{
	"contracts/Bounty.sol": {
		"BountyAddr": {
			"abi": [
				{
					"inputs": [
						{
							"internalType": "address",
							"name": "bountyBase",
							"type": "address"
						}
					],
					"stateMutability": "nonpayable",
					"type": "constructor"
				},
				{
					"inputs": [
						{
							"internalType": "contract IERC20",
							"name": "token",
							"type": "address"
						},
						{
							"internalType": "address",
							"name": "to",
							"type": "address"
						},
						{
							"internalType": "uint256",
							"name": "amount",
							"type": "uint256"
						}
					],
					"name": "approve",
					"outputs": [],
					"stateMutability": "nonpayable",
					"type": "function"
				},
				{
					"inputs": [],
					"name": "deposit",
					"outputs": [],
					"stateMutability": "payable",
					"type": "function"
				},
				{
					"inputs": [
						{
							"internalType": "address payable",
							"name": "to",
							"type": "address"
						},
						{
							"internalType": "uint256",
							"name": "amount",
							"type": "uint256"
						}
					],
					"name": "ethTransfer",
					"outputs": [],
					"stateMutability": "payable",
					"type": "function"
				},
				{
					"inputs": [],
					"name": "getPool",
					"outputs": [
						{
							"internalType": "address payable",
							"name": "",
							"type": "address"
						}
					],
					"stateMutability": "view",
					"type": "function"
				},
				{
					"inputs": [
						{
							"internalType": "address payable",
							"name": "to",
							"type": "address"
						},
						{
							"internalType": "uint256",
							"name": "amount",
							"type": "uint256"
						}
					],
					"name": "stableTransfer",
					"outputs": [],
					"stateMutability": "payable",
					"type": "function"
				},
				{
					"inputs": [
						{
							"internalType": "contract IERC20",
							"name": "token",
							"type": "address"
						},
						{
							"internalType": "address",
							"name": "to",
							"type": "address"
						},
						{
							"internalType": "uint256",
							"name": "amount",
							"type": "uint256"
						}
					],
					"name": "transfer",
					"outputs": [],
					"stateMutability": "nonpayable",
					"type": "function"
				},
				{
					"inputs": [
						{
							"internalType": "contract IERC20",
							"name": "token",
							"type": "address"
						},
						{
							"internalType": "address",
							"name": "to",
							"type": "address"
						},
						{
							"internalType": "uint256",
							"name": "amount",
							"type": "uint256"
						}
					],
					"name": "transferFrom",
					"outputs": [],
					"stateMutability": "nonpayable",
					"type": "function"
				},
				{
					"stateMutability": "payable",
					"type": "receive"
				}
			],
			"devdoc": {
				"kind": "dev",
				"methods": {},
				"version": 1
			},
			"evm": {
				"assembly": "    /* \"contracts/Bounty.sol\":1759:3000  contract BountyAddr {... */\n  mstore(0x40, 0x80)\n    /* \"contracts/Bounty.sol\":2088:2161  constructor(address bountyBase) {... */\n  callvalue\n  dup1\n  iszero\n  tag_1\n  jumpi\n  0x00\n  dup1\n  revert\ntag_1:\n  pop\n  mload(0x40)\n  sub(codesize, bytecodeSize)\n  dup1\n  bytecodeSize\n  dup4\n  codecopy\n  dup2\n  dup2\n  add\n  0x40\n  mstore\n  dup2\n  add\n  swap1\n  tag_2\n  swap2\n  swap1\n  tag_3\n  jump\t// in\ntag_2:\n    /* \"contracts/Bounty.sol\":2144:2154  bountyBase */\n  dup1\n    /* \"contracts/Bounty.sol\":2130:2141  _bountyBase */\n  0x00\n  dup1\n    /* \"contracts/Bounty.sol\":2130:2154  _bountyBase = bountyBase */\n  0x0100\n  exp\n  dup2\n  sload\n  dup2\n  0xffffffffffffffffffffffffffffffffffffffff\n  mul\n  not\n  and\n  swap1\n  dup4\n  0xffffffffffffffffffffffffffffffffffffffff\n  and\n  mul\n  or\n  swap1\n  sstore\n  pop\n    /* \"contracts/Bounty.sol\":2088:2161  constructor(address bountyBase) {... */\n  pop\n    /* \"contracts/Bounty.sol\":1759:3000  contract BountyAddr {... */\n  jump(tag_6)\n    /* \"#utility.yul\":7:150   */\ntag_8:\n    /* \"#utility.yul\":64:69   */\n  0x00\n    /* \"#utility.yul\":95:101   */\n  dup2\n    /* \"#utility.yul\":89:102   */\n  mload\n    /* \"#utility.yul\":80:102   */\n  swap1\n  pop\n    /* \"#utility.yul\":111:144   */\n  tag_10\n    /* \"#utility.yul\":138:143   */\n  dup2\n    /* \"#utility.yul\":111:144   */\n  tag_11\n  jump\t// in\ntag_10:\n    /* \"#utility.yul\":7:150   */\n  swap3\n  swap2\n  pop\n  pop\n  jump\t// out\n    /* \"#utility.yul\":156:507   */\ntag_3:\n    /* \"#utility.yul\":226:232   */\n  0x00\n    /* \"#utility.yul\":275:277   */\n  0x20\n    /* \"#utility.yul\":263:272   */\n  dup3\n    /* \"#utility.yul\":254:261   */\n  dup5\n    /* \"#utility.yul\":250:273   */\n  sub\n    /* \"#utility.yul\":246:278   */\n  slt\n    /* \"#utility.yul\":243:362   */\n  iszero\n  tag_13\n  jumpi\n    /* \"#utility.yul\":281:360   */\n  tag_14\n  tag_15\n  jump\t// in\ntag_14:\n    /* \"#utility.yul\":243:362   */\ntag_13:\n    /* \"#utility.yul\":401:402   */\n  0x00\n    /* \"#utility.yul\":426:490   */\n  tag_16\n    /* \"#utility.yul\":482:489   */\n  dup5\n    /* \"#utility.yul\":473:479   */\n  dup3\n    /* \"#utility.yul\":462:471   */\n  dup6\n    /* \"#utility.yul\":458:480   */\n  add\n    /* \"#utility.yul\":426:490   */\n  tag_8\n  jump\t// in\ntag_16:\n    /* \"#utility.yul\":416:490   */\n  swap2\n  pop\n    /* \"#utility.yul\":372:500   */\n  pop\n    /* \"#utility.yul\":156:507   */\n  swap3\n  swap2\n  pop\n  pop\n  jump\t// out\n    /* \"#utility.yul\":594:690   */\ntag_19:\n    /* \"#utility.yul\":631:638   */\n  0x00\n    /* \"#utility.yul\":660:684   */\n  tag_21\n    /* \"#utility.yul\":678:683   */\n  dup3\n    /* \"#utility.yul\":660:684   */\n  tag_22\n  jump\t// in\ntag_21:\n    /* \"#utility.yul\":649:684   */\n  swap1\n  pop\n    /* \"#utility.yul\":594:690   */\n  swap2\n  swap1\n  pop\n  jump\t// out\n    /* \"#utility.yul\":696:822   */\ntag_22:\n    /* \"#utility.yul\":733:740   */\n  0x00\n    /* \"#utility.yul\":773:815   */\n  0xffffffffffffffffffffffffffffffffffffffff\n    /* \"#utility.yul\":766:771   */\n  dup3\n    /* \"#utility.yul\":762:816   */\n  and\n    /* \"#utility.yul\":751:816   */\n  swap1\n  pop\n    /* \"#utility.yul\":696:822   */\n  swap2\n  swap1\n  pop\n  jump\t// out\n    /* \"#utility.yul\":951:1068   */\ntag_15:\n    /* \"#utility.yul\":1060:1061   */\n  0x00\n    /* \"#utility.yul\":1057:1058   */\n  dup1\n    /* \"#utility.yul\":1050:1062   */\n  revert\n    /* \"#utility.yul\":1074:1196   */\ntag_11:\n    /* \"#utility.yul\":1147:1171   */\n  tag_28\n    /* \"#utility.yul\":1165:1170   */\n  dup2\n    /* \"#utility.yul\":1147:1171   */\n  tag_19\n  jump\t// in\ntag_28:\n    /* \"#utility.yul\":1140:1145   */\n  dup2\n    /* \"#utility.yul\":1137:1172   */\n  eq\n    /* \"#utility.yul\":1127:1190   */\n  tag_29\n  jumpi\n    /* \"#utility.yul\":1186:1187   */\n  0x00\n    /* \"#utility.yul\":1183:1184   */\n  dup1\n    /* \"#utility.yul\":1176:1188   */\n  revert\n    /* \"#utility.yul\":1127:1190   */\ntag_29:\n    /* \"#utility.yul\":1074:1196   */\n  pop\n  jump\t// out\n    /* \"contracts/Bounty.sol\":1759:3000  contract BountyAddr {... */\ntag_6:\n  dataSize(sub_0)\n  dup1\n  dataOffset(sub_0)\n  0x00\n  codecopy\n  0x00\n  return\nstop\n\nsub_0: assembly {\n        /* \"contracts/Bounty.sol\":1759:3000  contract BountyAddr {... */\n      mstore(0x40, 0x80)\n      jumpi(tag_1, lt(calldatasize, 0x04))\n      shr(0xe0, calldataload(0x00))\n      dup1\n      0x4f95a04b\n      gt\n      tag_10\n      jumpi\n      dup1\n      0x4f95a04b\n      eq\n      tag_6\n      jumpi\n      dup1\n      0xbeabacc8\n      eq\n      tag_7\n      jumpi\n      dup1\n      0xd0e30db0\n      eq\n      tag_8\n      jumpi\n      dup1\n      0xe1f21c67\n      eq\n      tag_9\n      jumpi\n      jump(tag_2)\n    tag_10:\n      dup1\n      0x026b1d5f\n      eq\n      tag_3\n      jumpi\n      dup1\n      0x13658f8a\n      eq\n      tag_4\n      jumpi\n      dup1\n      0x23b872dd\n      eq\n      tag_5\n      jumpi\n      jump(tag_2)\n    tag_1:\n      jumpi(tag_2, calldatasize)\n        /* \"contracts/Bounty.sol\":1887:1888  0 */\n      0x00\n        /* \"contracts/Bounty.sol\":1855:1889  address(_bountyBase) != address(0) */\n      0xffffffffffffffffffffffffffffffffffffffff\n      and\n        /* \"contracts/Bounty.sol\":1863:1874  _bountyBase */\n      0x00\n      dup1\n      sload\n      swap1\n      0x0100\n      exp\n      swap1\n      div\n      0xffffffffffffffffffffffffffffffffffffffff\n      and\n        /* \"contracts/Bounty.sol\":1855:1889  address(_bountyBase) != address(0) */\n      0xffffffffffffffffffffffffffffffffffffffff\n      and\n      eq\n      iszero\n        /* \"contracts/Bounty.sol\":1847:1910  require(address(_bountyBase) != address(0), 'need init bounty') */\n      tag_13\n      jumpi\n      mload(0x40)\n      0x08c379a000000000000000000000000000000000000000000000000000000000\n      dup2\n      mstore\n      0x04\n      add\n      tag_14\n      swap1\n      tag_15\n      jump\t// in\n    tag_14:\n      mload(0x40)\n      dup1\n      swap2\n      sub\n      swap1\n      revert\n    tag_13:\n        /* \"contracts/Bounty.sol\":1759:3000  contract BountyAddr {... */\n      stop\n    tag_2:\n      0x00\n      dup1\n      revert\n        /* \"contracts/Bounty.sol\":2886:2998  function getPool() public view virtual returns (address payable) {... */\n    tag_3:\n      callvalue\n      dup1\n      iszero\n      tag_17\n      jumpi\n      0x00\n      dup1\n      revert\n    tag_17:\n      pop\n      tag_18\n      tag_19\n      jump\t// in\n    tag_18:\n      mload(0x40)\n      tag_20\n      swap2\n      swap1\n      tag_21\n      jump\t// in\n    tag_20:\n      mload(0x40)\n      dup1\n      swap2\n      sub\n      swap1\n      return\n        /* \"contracts/Bounty.sol\":2167:2280  function stableTransfer(address payable to, uint256 amount) external payable {... */\n    tag_4:\n      tag_22\n      0x04\n      dup1\n      calldatasize\n      sub\n      dup2\n      add\n      swap1\n      tag_23\n      swap2\n      swap1\n      tag_24\n      jump\t// in\n    tag_23:\n      tag_25\n      jump\t// in\n    tag_22:\n      stop\n        /* \"contracts/Bounty.sol\":2411:2555  function transferFrom(IERC20 token, address to, uint256 amount) external {... */\n    tag_5:\n      callvalue\n      dup1\n      iszero\n      tag_26\n      jumpi\n      0x00\n      dup1\n      revert\n    tag_26:\n      pop\n      tag_27\n      0x04\n      dup1\n      calldatasize\n      sub\n      dup2\n      add\n      swap1\n      tag_28\n      swap2\n      swap1\n      tag_29\n      jump\t// in\n    tag_28:\n      tag_30\n      jump\t// in\n    tag_27:\n      stop\n        /* \"contracts/Bounty.sol\":2769:2879  function ethTransfer(address payable to, uint256 amount) external payable {... */\n    tag_6:\n      tag_31\n      0x04\n      dup1\n      calldatasize\n      sub\n      dup2\n      add\n      swap1\n      tag_32\n      swap2\n      swap1\n      tag_24\n      jump\t// in\n    tag_32:\n      tag_33\n      jump\t// in\n    tag_31:\n      stop\n        /* \"contracts/Bounty.sol\":2561:2682  function transfer(IERC20 token, address to, uint256 amount) external {... */\n    tag_7:\n      callvalue\n      dup1\n      iszero\n      tag_34\n      jumpi\n      0x00\n      dup1\n      revert\n    tag_34:\n      pop\n      tag_35\n      0x04\n      dup1\n      calldatasize\n      sub\n      dup2\n      add\n      swap1\n      tag_36\n      swap2\n      swap1\n      tag_29\n      jump\t// in\n    tag_36:\n      tag_37\n      jump\t// in\n    tag_35:\n      stop\n        /* \"contracts/Bounty.sol\":2688:2763  function deposit() external payable {... */\n    tag_8:\n      tag_38\n      tag_39\n      jump\t// in\n    tag_38:\n      stop\n        /* \"contracts/Bounty.sol\":2286:2405  function approve(IERC20 token, address to, uint256 amount) external {... */\n    tag_9:\n      callvalue\n      dup1\n      iszero\n      tag_40\n      jumpi\n      0x00\n      dup1\n      revert\n    tag_40:\n      pop\n      tag_41\n      0x04\n      dup1\n      calldatasize\n      sub\n      dup2\n      add\n      swap1\n      tag_42\n      swap2\n      swap1\n      tag_29\n      jump\t// in\n    tag_42:\n      tag_43\n      jump\t// in\n    tag_41:\n      stop\n        /* \"contracts/Bounty.sol\":2886:2998  function getPool() public view virtual returns (address payable) {... */\n    tag_19:\n        /* \"contracts/Bounty.sol\":2934:2949  address payable */\n      0x00\n        /* \"contracts/Bounty.sol\":2985:2989  this */\n      address\n        /* \"contracts/Bounty.sol\":2962:2991  return payable(address(this)) */\n      swap1\n      pop\n        /* \"contracts/Bounty.sol\":2886:2998  function getPool() public view virtual returns (address payable) {... */\n      swap1\n      jump\t// out\n        /* \"contracts/Bounty.sol\":2167:2280  function stableTransfer(address payable to, uint256 amount) external payable {... */\n    tag_25:\n        /* \"contracts/Bounty.sol\":2254:2256  to */\n      dup2\n        /* \"contracts/Bounty.sol\":2254:2265  to.transfer */\n      0xffffffffffffffffffffffffffffffffffffffff\n      and\n        /* \"contracts/Bounty.sol\":2254:2273  to.transfer(amount) */\n      0x08fc\n        /* \"contracts/Bounty.sol\":2266:2272  amount */\n      dup3\n        /* \"contracts/Bounty.sol\":2254:2273  to.transfer(amount) */\n      swap1\n      dup2\n      iszero\n      mul\n      swap1\n      mload(0x40)\n      0x00\n      mload(0x40)\n      dup1\n      dup4\n      sub\n      dup2\n      dup6\n      dup9\n      dup9\n      call\n      swap4\n      pop\n      pop\n      pop\n      pop\n      iszero\n      dup1\n      iszero\n      tag_47\n      jumpi\n      returndatasize\n      0x00\n      dup1\n      returndatacopy\n      revert(0x00, returndatasize)\n    tag_47:\n      pop\n        /* \"contracts/Bounty.sol\":2167:2280  function stableTransfer(address payable to, uint256 amount) external payable {... */\n      pop\n      pop\n      jump\t// out\n        /* \"contracts/Bounty.sol\":2411:2555  function transferFrom(IERC20 token, address to, uint256 amount) external {... */\n    tag_30:\n        /* \"contracts/Bounty.sol\":2502:2507  token */\n      dup3\n        /* \"contracts/Bounty.sol\":2502:2520  token.transferFrom */\n      0xffffffffffffffffffffffffffffffffffffffff\n      and\n      0x23b872dd\n        /* \"contracts/Bounty.sol\":2529:2533  this */\n      address\n        /* \"contracts/Bounty.sol\":2536:2538  to */\n      dup5\n        /* \"contracts/Bounty.sol\":2540:2546  amount */\n      dup5\n        /* \"contracts/Bounty.sol\":2502:2547  token.transferFrom(address(this), to, amount) */\n      mload(0x40)\n      dup5\n      0xffffffff\n      and\n      0xe0\n      shl\n      dup2\n      mstore\n      0x04\n      add\n      tag_49\n      swap4\n      swap3\n      swap2\n      swap1\n      tag_50\n      jump\t// in\n    tag_49:\n      0x20\n      mload(0x40)\n      dup1\n      dup4\n      sub\n      dup2\n      0x00\n      dup8\n      dup1\n      extcodesize\n      iszero\n      dup1\n      iszero\n      tag_51\n      jumpi\n      0x00\n      dup1\n      revert\n    tag_51:\n      pop\n      gas\n      call\n      iszero\n      dup1\n      iszero\n      tag_53\n      jumpi\n      returndatasize\n      0x00\n      dup1\n      returndatacopy\n      revert(0x00, returndatasize)\n    tag_53:\n      pop\n      pop\n      pop\n      pop\n      mload(0x40)\n      returndatasize\n      not(0x1f)\n      0x1f\n      dup3\n      add\n      and\n      dup3\n      add\n      dup1\n      0x40\n      mstore\n      pop\n      dup2\n      add\n      swap1\n      tag_54\n      swap2\n      swap1\n      tag_55\n      jump\t// in\n    tag_54:\n        /* \"contracts/Bounty.sol\":2494:2548  require(token.transferFrom(address(this), to, amount)) */\n      tag_56\n      jumpi\n      0x00\n      dup1\n      revert\n    tag_56:\n        /* \"contracts/Bounty.sol\":2411:2555  function transferFrom(IERC20 token, address to, uint256 amount) external {... */\n      pop\n      pop\n      pop\n      jump\t// out\n        /* \"contracts/Bounty.sol\":2769:2879  function ethTransfer(address payable to, uint256 amount) external payable {... */\n    tag_33:\n        /* \"contracts/Bounty.sol\":2853:2855  to */\n      dup2\n        /* \"contracts/Bounty.sol\":2853:2864  to.transfer */\n      0xffffffffffffffffffffffffffffffffffffffff\n      and\n        /* \"contracts/Bounty.sol\":2853:2872  to.transfer(amount) */\n      0x08fc\n        /* \"contracts/Bounty.sol\":2865:2871  amount */\n      dup3\n        /* \"contracts/Bounty.sol\":2853:2872  to.transfer(amount) */\n      swap1\n      dup2\n      iszero\n      mul\n      swap1\n      mload(0x40)\n      0x00\n      mload(0x40)\n      dup1\n      dup4\n      sub\n      dup2\n      dup6\n      dup9\n      dup9\n      call\n      swap4\n      pop\n      pop\n      pop\n      pop\n      iszero\n      dup1\n      iszero\n      tag_59\n      jumpi\n      returndatasize\n      0x00\n      dup1\n      returndatacopy\n      revert(0x00, returndatasize)\n    tag_59:\n      pop\n        /* \"contracts/Bounty.sol\":2769:2879  function ethTransfer(address payable to, uint256 amount) external payable {... */\n      pop\n      pop\n      jump\t// out\n        /* \"contracts/Bounty.sol\":2561:2682  function transfer(IERC20 token, address to, uint256 amount) external {... */\n    tag_37:\n        /* \"contracts/Bounty.sol\":2648:2653  token */\n      dup3\n        /* \"contracts/Bounty.sol\":2648:2662  token.transfer */\n      0xffffffffffffffffffffffffffffffffffffffff\n      and\n      0xa9059cbb\n        /* \"contracts/Bounty.sol\":2663:2665  to */\n      dup4\n        /* \"contracts/Bounty.sol\":2667:2673  amount */\n      dup4\n        /* \"contracts/Bounty.sol\":2648:2674  token.transfer(to, amount) */\n      mload(0x40)\n      dup4\n      0xffffffff\n      and\n      0xe0\n      shl\n      dup2\n      mstore\n      0x04\n      add\n      tag_61\n      swap3\n      swap2\n      swap1\n      tag_62\n      jump\t// in\n    tag_61:\n      0x20\n      mload(0x40)\n      dup1\n      dup4\n      sub\n      dup2\n      0x00\n      dup8\n      dup1\n      extcodesize\n      iszero\n      dup1\n      iszero\n      tag_63\n      jumpi\n      0x00\n      dup1\n      revert\n    tag_63:\n      pop\n      gas\n      call\n      iszero\n      dup1\n      iszero\n      tag_65\n      jumpi\n      returndatasize\n      0x00\n      dup1\n      returndatacopy\n      revert(0x00, returndatasize)\n    tag_65:\n      pop\n      pop\n      pop\n      pop\n      mload(0x40)\n      returndatasize\n      not(0x1f)\n      0x1f\n      dup3\n      add\n      and\n      dup3\n      add\n      dup1\n      0x40\n      mstore\n      pop\n      dup2\n      add\n      swap1\n      tag_66\n      swap2\n      swap1\n      tag_55\n      jump\t// in\n    tag_66:\n        /* \"contracts/Bounty.sol\":2640:2675  require(token.transfer(to, amount)) */\n      tag_67\n      jumpi\n      0x00\n      dup1\n      revert\n    tag_67:\n        /* \"contracts/Bounty.sol\":2561:2682  function transfer(IERC20 token, address to, uint256 amount) external {... */\n      pop\n      pop\n      pop\n      jump\t// out\n        /* \"contracts/Bounty.sol\":2688:2763  function deposit() external payable {... */\n    tag_39:\n      jump\t// out\n        /* \"contracts/Bounty.sol\":2286:2405  function approve(IERC20 token, address to, uint256 amount) external {... */\n    tag_43:\n        /* \"contracts/Bounty.sol\":2372:2377  token */\n      dup3\n        /* \"contracts/Bounty.sol\":2372:2385  token.approve */\n      0xffffffffffffffffffffffffffffffffffffffff\n      and\n      0x095ea7b3\n        /* \"contracts/Bounty.sol\":2386:2388  to */\n      dup4\n        /* \"contracts/Bounty.sol\":2390:2396  amount */\n      dup4\n        /* \"contracts/Bounty.sol\":2372:2397  token.approve(to, amount) */\n      mload(0x40)\n      dup4\n      0xffffffff\n      and\n      0xe0\n      shl\n      dup2\n      mstore\n      0x04\n      add\n      tag_70\n      swap3\n      swap2\n      swap1\n      tag_62\n      jump\t// in\n    tag_70:\n      0x20\n      mload(0x40)\n      dup1\n      dup4\n      sub\n      dup2\n      0x00\n      dup8\n      dup1\n      extcodesize\n      iszero\n      dup1\n      iszero\n      tag_71\n      jumpi\n      0x00\n      dup1\n      revert\n    tag_71:\n      pop\n      gas\n      call\n      iszero\n      dup1\n      iszero\n      tag_73\n      jumpi\n      returndatasize\n      0x00\n      dup1\n      returndatacopy\n      revert(0x00, returndatasize)\n    tag_73:\n      pop\n      pop\n      pop\n      pop\n      mload(0x40)\n      returndatasize\n      not(0x1f)\n      0x1f\n      dup3\n      add\n      and\n      dup3\n      add\n      dup1\n      0x40\n      mstore\n      pop\n      dup2\n      add\n      swap1\n      tag_74\n      swap2\n      swap1\n      tag_55\n      jump\t// in\n    tag_74:\n        /* \"contracts/Bounty.sol\":2364:2398  require(token.approve(to, amount)) */\n      tag_75\n      jumpi\n      0x00\n      dup1\n      revert\n    tag_75:\n        /* \"contracts/Bounty.sol\":2286:2405  function approve(IERC20 token, address to, uint256 amount) external {... */\n      pop\n      pop\n      pop\n      jump\t// out\n        /* \"#utility.yul\":7:146   */\n    tag_77:\n        /* \"#utility.yul\":53:58   */\n      0x00\n        /* \"#utility.yul\":91:97   */\n      dup2\n        /* \"#utility.yul\":78:98   */\n      calldataload\n        /* \"#utility.yul\":69:98   */\n      swap1\n      pop\n        /* \"#utility.yul\":107:140   */\n      tag_79\n        /* \"#utility.yul\":134:139   */\n      dup2\n        /* \"#utility.yul\":107:140   */\n      tag_80\n      jump\t// in\n    tag_79:\n        /* \"#utility.yul\":7:146   */\n      swap3\n      swap2\n      pop\n      pop\n      jump\t// out\n        /* \"#utility.yul\":152:307   */\n    tag_81:\n        /* \"#utility.yul\":206:211   */\n      0x00\n        /* \"#utility.yul\":244:250   */\n      dup2\n        /* \"#utility.yul\":231:251   */\n      calldataload\n        /* \"#utility.yul\":222:251   */\n      swap1\n      pop\n        /* \"#utility.yul\":260:301   */\n      tag_83\n        /* \"#utility.yul\":295:300   */\n      dup2\n        /* \"#utility.yul\":260:301   */\n      tag_84\n      jump\t// in\n    tag_83:\n        /* \"#utility.yul\":152:307   */\n      swap3\n      swap2\n      pop\n      pop\n      jump\t// out\n        /* \"#utility.yul\":313:450   */\n    tag_85:\n        /* \"#utility.yul\":367:372   */\n      0x00\n        /* \"#utility.yul\":398:404   */\n      dup2\n        /* \"#utility.yul\":392:405   */\n      mload\n        /* \"#utility.yul\":383:405   */\n      swap1\n      pop\n        /* \"#utility.yul\":414:444   */\n      tag_87\n        /* \"#utility.yul\":438:443   */\n      dup2\n        /* \"#utility.yul\":414:444   */\n      tag_88\n      jump\t// in\n    tag_87:\n        /* \"#utility.yul\":313:450   */\n      swap3\n      swap2\n      pop\n      pop\n      jump\t// out\n        /* \"#utility.yul\":456:623   */\n    tag_89:\n        /* \"#utility.yul\":516:521   */\n      0x00\n        /* \"#utility.yul\":554:560   */\n      dup2\n        /* \"#utility.yul\":541:561   */\n      calldataload\n        /* \"#utility.yul\":532:561   */\n      swap1\n      pop\n        /* \"#utility.yul\":570:617   */\n      tag_91\n        /* \"#utility.yul\":611:616   */\n      dup2\n        /* \"#utility.yul\":570:617   */\n      tag_92\n      jump\t// in\n    tag_91:\n        /* \"#utility.yul\":456:623   */\n      swap3\n      swap2\n      pop\n      pop\n      jump\t// out\n        /* \"#utility.yul\":629:768   */\n    tag_93:\n        /* \"#utility.yul\":675:680   */\n      0x00\n        /* \"#utility.yul\":713:719   */\n      dup2\n        /* \"#utility.yul\":700:720   */\n      calldataload\n        /* \"#utility.yul\":691:720   */\n      swap1\n      pop\n        /* \"#utility.yul\":729:762   */\n      tag_95\n        /* \"#utility.yul\":756:761   */\n      dup2\n        /* \"#utility.yul\":729:762   */\n      tag_96\n      jump\t// in\n    tag_95:\n        /* \"#utility.yul\":629:768   */\n      swap3\n      swap2\n      pop\n      pop\n      jump\t// out\n        /* \"#utility.yul\":774:1264   */\n    tag_24:\n        /* \"#utility.yul\":850:856   */\n      0x00\n        /* \"#utility.yul\":858:864   */\n      dup1\n        /* \"#utility.yul\":907:909   */\n      0x40\n        /* \"#utility.yul\":895:904   */\n      dup4\n        /* \"#utility.yul\":886:893   */\n      dup6\n        /* \"#utility.yul\":882:905   */\n      sub\n        /* \"#utility.yul\":878:910   */\n      slt\n        /* \"#utility.yul\":875:994   */\n      iszero\n      tag_98\n      jumpi\n        /* \"#utility.yul\":913:992   */\n      tag_99\n      tag_100\n      jump\t// in\n    tag_99:\n        /* \"#utility.yul\":875:994   */\n    tag_98:\n        /* \"#utility.yul\":1033:1034   */\n      0x00\n        /* \"#utility.yul\":1058:1119   */\n      tag_101\n        /* \"#utility.yul\":1111:1118   */\n      dup6\n        /* \"#utility.yul\":1102:1108   */\n      dup3\n        /* \"#utility.yul\":1091:1100   */\n      dup7\n        /* \"#utility.yul\":1087:1109   */\n      add\n        /* \"#utility.yul\":1058:1119   */\n      tag_81\n      jump\t// in\n    tag_101:\n        /* \"#utility.yul\":1048:1119   */\n      swap3\n      pop\n        /* \"#utility.yul\":1004:1129   */\n      pop\n        /* \"#utility.yul\":1168:1170   */\n      0x20\n        /* \"#utility.yul\":1194:1247   */\n      tag_102\n        /* \"#utility.yul\":1239:1246   */\n      dup6\n        /* \"#utility.yul\":1230:1236   */\n      dup3\n        /* \"#utility.yul\":1219:1228   */\n      dup7\n        /* \"#utility.yul\":1215:1237   */\n      add\n        /* \"#utility.yul\":1194:1247   */\n      tag_93\n      jump\t// in\n    tag_102:\n        /* \"#utility.yul\":1184:1247   */\n      swap2\n      pop\n        /* \"#utility.yul\":1139:1257   */\n      pop\n        /* \"#utility.yul\":774:1264   */\n      swap3\n      pop\n      swap3\n      swap1\n      pop\n      jump\t// out\n        /* \"#utility.yul\":1270:1615   */\n    tag_55:\n        /* \"#utility.yul\":1337:1343   */\n      0x00\n        /* \"#utility.yul\":1386:1388   */\n      0x20\n        /* \"#utility.yul\":1374:1383   */\n      dup3\n        /* \"#utility.yul\":1365:1372   */\n      dup5\n        /* \"#utility.yul\":1361:1384   */\n      sub\n        /* \"#utility.yul\":1357:1389   */\n      slt\n        /* \"#utility.yul\":1354:1473   */\n      iszero\n      tag_104\n      jumpi\n        /* \"#utility.yul\":1392:1471   */\n      tag_105\n      tag_100\n      jump\t// in\n    tag_105:\n        /* \"#utility.yul\":1354:1473   */\n    tag_104:\n        /* \"#utility.yul\":1512:1513   */\n      0x00\n        /* \"#utility.yul\":1537:1598   */\n      tag_106\n        /* \"#utility.yul\":1590:1597   */\n      dup5\n        /* \"#utility.yul\":1581:1587   */\n      dup3\n        /* \"#utility.yul\":1570:1579   */\n      dup6\n        /* \"#utility.yul\":1566:1588   */\n      add\n        /* \"#utility.yul\":1537:1598   */\n      tag_85\n      jump\t// in\n    tag_106:\n        /* \"#utility.yul\":1527:1598   */\n      swap2\n      pop\n        /* \"#utility.yul\":1483:1608   */\n      pop\n        /* \"#utility.yul\":1270:1615   */\n      swap3\n      swap2\n      pop\n      pop\n      jump\t// out\n        /* \"#utility.yul\":1621:2268   */\n    tag_29:\n        /* \"#utility.yul\":1712:1718   */\n      0x00\n        /* \"#utility.yul\":1720:1726   */\n      dup1\n        /* \"#utility.yul\":1728:1734   */\n      0x00\n        /* \"#utility.yul\":1777:1779   */\n      0x60\n        /* \"#utility.yul\":1765:1774   */\n      dup5\n        /* \"#utility.yul\":1756:1763   */\n      dup7\n        /* \"#utility.yul\":1752:1775   */\n      sub\n        /* \"#utility.yul\":1748:1780   */\n      slt\n        /* \"#utility.yul\":1745:1864   */\n      iszero\n      tag_108\n      jumpi\n        /* \"#utility.yul\":1783:1862   */\n      tag_109\n      tag_100\n      jump\t// in\n    tag_109:\n        /* \"#utility.yul\":1745:1864   */\n    tag_108:\n        /* \"#utility.yul\":1903:1904   */\n      0x00\n        /* \"#utility.yul\":1928:1995   */\n      tag_110\n        /* \"#utility.yul\":1987:1994   */\n      dup7\n        /* \"#utility.yul\":1978:1984   */\n      dup3\n        /* \"#utility.yul\":1967:1976   */\n      dup8\n        /* \"#utility.yul\":1963:1985   */\n      add\n        /* \"#utility.yul\":1928:1995   */\n      tag_89\n      jump\t// in\n    tag_110:\n        /* \"#utility.yul\":1918:1995   */\n      swap4\n      pop\n        /* \"#utility.yul\":1874:2005   */\n      pop\n        /* \"#utility.yul\":2044:2046   */\n      0x20\n        /* \"#utility.yul\":2070:2123   */\n      tag_111\n        /* \"#utility.yul\":2115:2122   */\n      dup7\n        /* \"#utility.yul\":2106:2112   */\n      dup3\n        /* \"#utility.yul\":2095:2104   */\n      dup8\n        /* \"#utility.yul\":2091:2113   */\n      add\n        /* \"#utility.yul\":2070:2123   */\n      tag_77\n      jump\t// in\n    tag_111:\n        /* \"#utility.yul\":2060:2123   */\n      swap3\n      pop\n        /* \"#utility.yul\":2015:2133   */\n      pop\n        /* \"#utility.yul\":2172:2174   */\n      0x40\n        /* \"#utility.yul\":2198:2251   */\n      tag_112\n        /* \"#utility.yul\":2243:2250   */\n      dup7\n        /* \"#utility.yul\":2234:2240   */\n      dup3\n        /* \"#utility.yul\":2223:2232   */\n      dup8\n        /* \"#utility.yul\":2219:2241   */\n      add\n        /* \"#utility.yul\":2198:2251   */\n      tag_93\n      jump\t// in\n    tag_112:\n        /* \"#utility.yul\":2188:2251   */\n      swap2\n      pop\n        /* \"#utility.yul\":2143:2261   */\n      pop\n        /* \"#utility.yul\":1621:2268   */\n      swap3\n      pop\n      swap3\n      pop\n      swap3\n      jump\t// out\n        /* \"#utility.yul\":2274:2416   */\n    tag_113:\n        /* \"#utility.yul\":2377:2409   */\n      tag_115\n        /* \"#utility.yul\":2403:2408   */\n      dup2\n        /* \"#utility.yul\":2377:2409   */\n      tag_116\n      jump\t// in\n    tag_115:\n        /* \"#utility.yul\":2372:2375   */\n      dup3\n        /* \"#utility.yul\":2365:2410   */\n      mstore\n        /* \"#utility.yul\":2274:2416   */\n      pop\n      pop\n      jump\t// out\n        /* \"#utility.yul\":2422:2540   */\n    tag_117:\n        /* \"#utility.yul\":2509:2533   */\n      tag_119\n        /* \"#utility.yul\":2527:2532   */\n      dup2\n        /* \"#utility.yul\":2509:2533   */\n      tag_120\n      jump\t// in\n    tag_119:\n        /* \"#utility.yul\":2504:2507   */\n      dup3\n        /* \"#utility.yul\":2497:2534   */\n      mstore\n        /* \"#utility.yul\":2422:2540   */\n      pop\n      pop\n      jump\t// out\n        /* \"#utility.yul\":2546:2912   */\n    tag_121:\n        /* \"#utility.yul\":2688:2691   */\n      0x00\n        /* \"#utility.yul\":2709:2776   */\n      tag_123\n        /* \"#utility.yul\":2773:2775   */\n      0x10\n        /* \"#utility.yul\":2768:2771   */\n      dup4\n        /* \"#utility.yul\":2709:2776   */\n      tag_124\n      jump\t// in\n    tag_123:\n        /* \"#utility.yul\":2702:2776   */\n      swap2\n      pop\n        /* \"#utility.yul\":2785:2878   */\n      tag_125\n        /* \"#utility.yul\":2874:2877   */\n      dup3\n        /* \"#utility.yul\":2785:2878   */\n      tag_126\n      jump\t// in\n    tag_125:\n        /* \"#utility.yul\":2903:2905   */\n      0x20\n        /* \"#utility.yul\":2898:2901   */\n      dup3\n        /* \"#utility.yul\":2894:2906   */\n      add\n        /* \"#utility.yul\":2887:2906   */\n      swap1\n      pop\n        /* \"#utility.yul\":2546:2912   */\n      swap2\n      swap1\n      pop\n      jump\t// out\n        /* \"#utility.yul\":2918:3036   */\n    tag_127:\n        /* \"#utility.yul\":3005:3029   */\n      tag_129\n        /* \"#utility.yul\":3023:3028   */\n      dup2\n        /* \"#utility.yul\":3005:3029   */\n      tag_130\n      jump\t// in\n    tag_129:\n        /* \"#utility.yul\":3000:3003   */\n      dup3\n        /* \"#utility.yul\":2993:3030   */\n      mstore\n        /* \"#utility.yul\":2918:3036   */\n      pop\n      pop\n      jump\t// out\n        /* \"#utility.yul\":3042:3296   */\n    tag_21:\n        /* \"#utility.yul\":3151:3155   */\n      0x00\n        /* \"#utility.yul\":3189:3191   */\n      0x20\n        /* \"#utility.yul\":3178:3187   */\n      dup3\n        /* \"#utility.yul\":3174:3192   */\n      add\n        /* \"#utility.yul\":3166:3192   */\n      swap1\n      pop\n        /* \"#utility.yul\":3202:3289   */\n      tag_132\n        /* \"#utility.yul\":3286:3287   */\n      0x00\n        /* \"#utility.yul\":3275:3284   */\n      dup4\n        /* \"#utility.yul\":3271:3288   */\n      add\n        /* \"#utility.yul\":3262:3268   */\n      dup5\n        /* \"#utility.yul\":3202:3289   */\n      tag_113\n      jump\t// in\n    tag_132:\n        /* \"#utility.yul\":3042:3296   */\n      swap3\n      swap2\n      pop\n      pop\n      jump\t// out\n        /* \"#utility.yul\":3302:3744   */\n    tag_50:\n        /* \"#utility.yul\":3451:3455   */\n      0x00\n        /* \"#utility.yul\":3489:3491   */\n      0x60\n        /* \"#utility.yul\":3478:3487   */\n      dup3\n        /* \"#utility.yul\":3474:3492   */\n      add\n        /* \"#utility.yul\":3466:3492   */\n      swap1\n      pop\n        /* \"#utility.yul\":3502:3573   */\n      tag_134\n        /* \"#utility.yul\":3570:3571   */\n      0x00\n        /* \"#utility.yul\":3559:3568   */\n      dup4\n        /* \"#utility.yul\":3555:3572   */\n      add\n        /* \"#utility.yul\":3546:3552   */\n      dup7\n        /* \"#utility.yul\":3502:3573   */\n      tag_117\n      jump\t// in\n    tag_134:\n        /* \"#utility.yul\":3583:3655   */\n      tag_135\n        /* \"#utility.yul\":3651:3653   */\n      0x20\n        /* \"#utility.yul\":3640:3649   */\n      dup4\n        /* \"#utility.yul\":3636:3654   */\n      add\n        /* \"#utility.yul\":3627:3633   */\n      dup6\n        /* \"#utility.yul\":3583:3655   */\n      tag_117\n      jump\t// in\n    tag_135:\n        /* \"#utility.yul\":3665:3737   */\n      tag_136\n        /* \"#utility.yul\":3733:3735   */\n      0x40\n        /* \"#utility.yul\":3722:3731   */\n      dup4\n        /* \"#utility.yul\":3718:3736   */\n      add\n        /* \"#utility.yul\":3709:3715   */\n      dup5\n        /* \"#utility.yul\":3665:3737   */\n      tag_127\n      jump\t// in\n    tag_136:\n        /* \"#utility.yul\":3302:3744   */\n      swap5\n      swap4\n      pop\n      pop\n      pop\n      pop\n      jump\t// out\n        /* \"#utility.yul\":3750:4082   */\n    tag_62:\n        /* \"#utility.yul\":3871:3875   */\n      0x00\n        /* \"#utility.yul\":3909:3911   */\n      0x40\n        /* \"#utility.yul\":3898:3907   */\n      dup3\n        /* \"#utility.yul\":3894:3912   */\n      add\n        /* \"#utility.yul\":3886:3912   */\n      swap1\n      pop\n        /* \"#utility.yul\":3922:3993   */\n      tag_138\n        /* \"#utility.yul\":3990:3991   */\n      0x00\n        /* \"#utility.yul\":3979:3988   */\n      dup4\n        /* \"#utility.yul\":3975:3992   */\n      add\n        /* \"#utility.yul\":3966:3972   */\n      dup6\n        /* \"#utility.yul\":3922:3993   */\n      tag_117\n      jump\t// in\n    tag_138:\n        /* \"#utility.yul\":4003:4075   */\n      tag_139\n        /* \"#utility.yul\":4071:4073   */\n      0x20\n        /* \"#utility.yul\":4060:4069   */\n      dup4\n        /* \"#utility.yul\":4056:4074   */\n      add\n        /* \"#utility.yul\":4047:4053   */\n      dup5\n        /* \"#utility.yul\":4003:4075   */\n      tag_127\n      jump\t// in\n    tag_139:\n        /* \"#utility.yul\":3750:4082   */\n      swap4\n      swap3\n      pop\n      pop\n      pop\n      jump\t// out\n        /* \"#utility.yul\":4088:4507   */\n    tag_15:\n        /* \"#utility.yul\":4254:4258   */\n      0x00\n        /* \"#utility.yul\":4292:4294   */\n      0x20\n        /* \"#utility.yul\":4281:4290   */\n      dup3\n        /* \"#utility.yul\":4277:4295   */\n      add\n        /* \"#utility.yul\":4269:4295   */\n      swap1\n      pop\n        /* \"#utility.yul\":4341:4350   */\n      dup2\n        /* \"#utility.yul\":4335:4339   */\n      dup2\n        /* \"#utility.yul\":4331:4351   */\n      sub\n        /* \"#utility.yul\":4327:4328   */\n      0x00\n        /* \"#utility.yul\":4316:4325   */\n      dup4\n        /* \"#utility.yul\":4312:4329   */\n      add\n        /* \"#utility.yul\":4305:4352   */\n      mstore\n        /* \"#utility.yul\":4369:4500   */\n      tag_141\n        /* \"#utility.yul\":4495:4499   */\n      dup2\n        /* \"#utility.yul\":4369:4500   */\n      tag_121\n      jump\t// in\n    tag_141:\n        /* \"#utility.yul\":4361:4500   */\n      swap1\n      pop\n        /* \"#utility.yul\":4088:4507   */\n      swap2\n      swap1\n      pop\n      jump\t// out\n        /* \"#utility.yul\":4594:4763   */\n    tag_124:\n        /* \"#utility.yul\":4678:4689   */\n      0x00\n        /* \"#utility.yul\":4712:4718   */\n      dup3\n        /* \"#utility.yul\":4707:4710   */\n      dup3\n        /* \"#utility.yul\":4700:4719   */\n      mstore\n        /* \"#utility.yul\":4752:4756   */\n      0x20\n        /* \"#utility.yul\":4747:4750   */\n      dup3\n        /* \"#utility.yul\":4743:4757   */\n      add\n        /* \"#utility.yul\":4728:4757   */\n      swap1\n      pop\n        /* \"#utility.yul\":4594:4763   */\n      swap3\n      swap2\n      pop\n      pop\n      jump\t// out\n        /* \"#utility.yul\":4769:4865   */\n    tag_120:\n        /* \"#utility.yul\":4806:4813   */\n      0x00\n        /* \"#utility.yul\":4835:4859   */\n      tag_146\n        /* \"#utility.yul\":4853:4858   */\n      dup3\n        /* \"#utility.yul\":4835:4859   */\n      tag_147\n      jump\t// in\n    tag_146:\n        /* \"#utility.yul\":4824:4859   */\n      swap1\n      pop\n        /* \"#utility.yul\":4769:4865   */\n      swap2\n      swap1\n      pop\n      jump\t// out\n        /* \"#utility.yul\":4871:4975   */\n    tag_116:\n        /* \"#utility.yul\":4916:4923   */\n      0x00\n        /* \"#utility.yul\":4945:4969   */\n      tag_149\n        /* \"#utility.yul\":4963:4968   */\n      dup3\n        /* \"#utility.yul\":4945:4969   */\n      tag_147\n      jump\t// in\n    tag_149:\n        /* \"#utility.yul\":4934:4969   */\n      swap1\n      pop\n        /* \"#utility.yul\":4871:4975   */\n      swap2\n      swap1\n      pop\n      jump\t// out\n        /* \"#utility.yul\":4981:5071   */\n    tag_150:\n        /* \"#utility.yul\":5015:5022   */\n      0x00\n        /* \"#utility.yul\":5058:5063   */\n      dup2\n        /* \"#utility.yul\":5051:5064   */\n      iszero\n        /* \"#utility.yul\":5044:5065   */\n      iszero\n        /* \"#utility.yul\":5033:5065   */\n      swap1\n      pop\n        /* \"#utility.yul\":4981:5071   */\n      swap2\n      swap1\n      pop\n      jump\t// out\n        /* \"#utility.yul\":5077:5187   */\n    tag_152:\n        /* \"#utility.yul\":5128:5135   */\n      0x00\n        /* \"#utility.yul\":5157:5181   */\n      tag_154\n        /* \"#utility.yul\":5175:5180   */\n      dup3\n        /* \"#utility.yul\":5157:5181   */\n      tag_120\n      jump\t// in\n    tag_154:\n        /* \"#utility.yul\":5146:5181   */\n      swap1\n      pop\n        /* \"#utility.yul\":5077:5187   */\n      swap2\n      swap1\n      pop\n      jump\t// out\n        /* \"#utility.yul\":5193:5319   */\n    tag_147:\n        /* \"#utility.yul\":5230:5237   */\n      0x00\n        /* \"#utility.yul\":5270:5312   */\n      0xffffffffffffffffffffffffffffffffffffffff\n        /* \"#utility.yul\":5263:5268   */\n      dup3\n        /* \"#utility.yul\":5259:5313   */\n      and\n        /* \"#utility.yul\":5248:5313   */\n      swap1\n      pop\n        /* \"#utility.yul\":5193:5319   */\n      swap2\n      swap1\n      pop\n      jump\t// out\n        /* \"#utility.yul\":5325:5402   */\n    tag_130:\n        /* \"#utility.yul\":5362:5369   */\n      0x00\n        /* \"#utility.yul\":5391:5396   */\n      dup2\n        /* \"#utility.yul\":5380:5396   */\n      swap1\n      pop\n        /* \"#utility.yul\":5325:5402   */\n      swap2\n      swap1\n      pop\n      jump\t// out\n        /* \"#utility.yul\":5531:5648   */\n    tag_100:\n        /* \"#utility.yul\":5640:5641   */\n      0x00\n        /* \"#utility.yul\":5637:5638   */\n      dup1\n        /* \"#utility.yul\":5630:5642   */\n      revert\n        /* \"#utility.yul\":5654:5820   */\n    tag_126:\n        /* \"#utility.yul\":5794:5812   */\n      0x6e65656420696e697420626f756e747900000000000000000000000000000000\n        /* \"#utility.yul\":5790:5791   */\n      0x00\n        /* \"#utility.yul\":5782:5788   */\n      dup3\n        /* \"#utility.yul\":5778:5792   */\n      add\n        /* \"#utility.yul\":5771:5813   */\n      mstore\n        /* \"#utility.yul\":5654:5820   */\n      pop\n      jump\t// out\n        /* \"#utility.yul\":5826:5948   */\n    tag_80:\n        /* \"#utility.yul\":5899:5923   */\n      tag_162\n        /* \"#utility.yul\":5917:5922   */\n      dup2\n        /* \"#utility.yul\":5899:5923   */\n      tag_120\n      jump\t// in\n    tag_162:\n        /* \"#utility.yul\":5892:5897   */\n      dup2\n        /* \"#utility.yul\":5889:5924   */\n      eq\n        /* \"#utility.yul\":5879:5942   */\n      tag_163\n      jumpi\n        /* \"#utility.yul\":5938:5939   */\n      0x00\n        /* \"#utility.yul\":5935:5936   */\n      dup1\n        /* \"#utility.yul\":5928:5940   */\n      revert\n        /* \"#utility.yul\":5879:5942   */\n    tag_163:\n        /* \"#utility.yul\":5826:5948   */\n      pop\n      jump\t// out\n        /* \"#utility.yul\":5954:6092   */\n    tag_84:\n        /* \"#utility.yul\":6035:6067   */\n      tag_165\n        /* \"#utility.yul\":6061:6066   */\n      dup2\n        /* \"#utility.yul\":6035:6067   */\n      tag_116\n      jump\t// in\n    tag_165:\n        /* \"#utility.yul\":6028:6033   */\n      dup2\n        /* \"#utility.yul\":6025:6068   */\n      eq\n        /* \"#utility.yul\":6015:6086   */\n      tag_166\n      jumpi\n        /* \"#utility.yul\":6082:6083   */\n      0x00\n        /* \"#utility.yul\":6079:6080   */\n      dup1\n        /* \"#utility.yul\":6072:6084   */\n      revert\n        /* \"#utility.yul\":6015:6086   */\n    tag_166:\n        /* \"#utility.yul\":5954:6092   */\n      pop\n      jump\t// out\n        /* \"#utility.yul\":6098:6214   */\n    tag_88:\n        /* \"#utility.yul\":6168:6189   */\n      tag_168\n        /* \"#utility.yul\":6183:6188   */\n      dup2\n        /* \"#utility.yul\":6168:6189   */\n      tag_150\n      jump\t// in\n    tag_168:\n        /* \"#utility.yul\":6161:6166   */\n      dup2\n        /* \"#utility.yul\":6158:6190   */\n      eq\n        /* \"#utility.yul\":6148:6208   */\n      tag_169\n      jumpi\n        /* \"#utility.yul\":6204:6205   */\n      0x00\n        /* \"#utility.yul\":6201:6202   */\n      dup1\n        /* \"#utility.yul\":6194:6206   */\n      revert\n        /* \"#utility.yul\":6148:6208   */\n    tag_169:\n        /* \"#utility.yul\":6098:6214   */\n      pop\n      jump\t// out\n        /* \"#utility.yul\":6220:6370   */\n    tag_92:\n        /* \"#utility.yul\":6307:6345   */\n      tag_171\n        /* \"#utility.yul\":6339:6344   */\n      dup2\n        /* \"#utility.yul\":6307:6345   */\n      tag_152\n      jump\t// in\n    tag_171:\n        /* \"#utility.yul\":6300:6305   */\n      dup2\n        /* \"#utility.yul\":6297:6346   */\n      eq\n        /* \"#utility.yul\":6287:6364   */\n      tag_172\n      jumpi\n        /* \"#utility.yul\":6360:6361   */\n      0x00\n        /* \"#utility.yul\":6357:6358   */\n      dup1\n        /* \"#utility.yul\":6350:6362   */\n      revert\n        /* \"#utility.yul\":6287:6364   */\n    tag_172:\n        /* \"#utility.yul\":6220:6370   */\n      pop\n      jump\t// out\n        /* \"#utility.yul\":6376:6498   */\n    tag_96:\n        /* \"#utility.yul\":6449:6473   */\n      tag_174\n        /* \"#utility.yul\":6467:6472   */\n      dup2\n        /* \"#utility.yul\":6449:6473   */\n      tag_130\n      jump\t// in\n    tag_174:\n        /* \"#utility.yul\":6442:6447   */\n      dup2\n        /* \"#utility.yul\":6439:6474   */\n      eq\n        /* \"#utility.yul\":6429:6492   */\n      tag_175\n      jumpi\n        /* \"#utility.yul\":6488:6489   */\n      0x00\n        /* \"#utility.yul\":6485:6486   */\n      dup1\n        /* \"#utility.yul\":6478:6490   */\n      revert\n        /* \"#utility.yul\":6429:6492   */\n    tag_175:\n        /* \"#utility.yul\":6376:6498   */\n      pop\n      jump\t// out\n\n    auxdata: 0xa2646970667358221220e52fc63eaacbb6482b8c5f4427035bcd38bb5a9f5b405182afc4a910beee99ed64736f6c63430008070033\n}\n",
				"bytecode": {
					"linkReferences": {},
					"object": "608060405234801561001057600080fd5b506040516108ea3803806108ea8339818101604052810190610032919061008d565b806000806101000a81548173ffffffffffffffffffffffffffffffffffffffff021916908373ffffffffffffffffffffffffffffffffffffffff16021790555050610108565b600081519050610087816100f1565b92915050565b6000602082840312156100a3576100a26100ec565b5b60006100b184828501610078565b91505092915050565b60006100c5826100cc565b9050919050565b600073ffffffffffffffffffffffffffffffffffffffff82169050919050565b600080fd5b6100fa816100ba565b811461010557600080fd5b50565b6107d3806101176000396000f3fe6080604052600436106100745760003560e01c80634f95a04b1161004e5780634f95a04b14610180578063beabacc81461019c578063d0e30db0146101c5578063e1f21c67146101cf5761010b565b8063026b1d5f1461011057806313658f8a1461013b57806323b872dd146101575761010b565b3661010b57600073ffffffffffffffffffffffffffffffffffffffff1660008054906101000a900473ffffffffffffffffffffffffffffffffffffffff1673ffffffffffffffffffffffffffffffffffffffff161415610109576040517f08c379a00000000000000000000000000000000000000000000000000000000081526004016101009061065f565b60405180910390fd5b005b600080fd5b34801561011c57600080fd5b506101256101f8565b60405161013291906105e4565b60405180910390f35b610155600480360381019061015091906104d4565b610200565b005b34801561016357600080fd5b5061017e60048036038101906101799190610541565b61024b565b005b61019a600480360381019061019591906104d4565b6102e8565b005b3480156101a857600080fd5b506101c360048036038101906101be9190610541565b610333565b005b6101cd6103ce565b005b3480156101db57600080fd5b506101f660048036038101906101f19190610541565b6103d0565b005b600030905090565b8173ffffffffffffffffffffffffffffffffffffffff166108fc829081150290604051600060405180830381858888f19350505050158015610246573d6000803e3d6000fd5b505050565b8273ffffffffffffffffffffffffffffffffffffffff166323b872dd3084846040518463ffffffff1660e01b8152600401610288939291906105ff565b602060405180830381600087803b1580156102a257600080fd5b505af11580156102b6573d6000803e3d6000fd5b505050506040513d601f19601f820116820180604052508101906102da9190610514565b6102e357600080fd5b505050565b8173ffffffffffffffffffffffffffffffffffffffff166108fc829081150290604051600060405180830381858888f1935050505015801561032e573d6000803e3d6000fd5b505050565b8273ffffffffffffffffffffffffffffffffffffffff1663a9059cbb83836040518363ffffffff1660e01b815260040161036e929190610636565b602060405180830381600087803b15801561038857600080fd5b505af115801561039c573d6000803e3d6000fd5b505050506040513d601f19601f820116820180604052508101906103c09190610514565b6103c957600080fd5b505050565b565b8273ffffffffffffffffffffffffffffffffffffffff1663095ea7b383836040518363ffffffff1660e01b815260040161040b929190610636565b602060405180830381600087803b15801561042557600080fd5b505af1158015610439573d6000803e3d6000fd5b505050506040513d601f19601f8201168201806040525081019061045d9190610514565b61046657600080fd5b505050565b60008135905061047a8161072a565b92915050565b60008135905061048f81610741565b92915050565b6000815190506104a481610758565b92915050565b6000813590506104b98161076f565b92915050565b6000813590506104ce81610786565b92915050565b600080604083850312156104eb576104ea6106fc565b5b60006104f985828601610480565b925050602061050a858286016104bf565b9150509250929050565b60006020828403121561052a576105296106fc565b5b600061053884828501610495565b91505092915050565b60008060006060848603121561055a576105596106fc565b5b6000610568868287016104aa565b93505060206105798682870161046b565b925050604061058a868287016104bf565b9150509250925092565b61059d816106a2565b82525050565b6105ac81610690565b82525050565b60006105bf60108361067f565b91506105ca82610701565b602082019050919050565b6105de816106f2565b82525050565b60006020820190506105f96000830184610594565b92915050565b600060608201905061061460008301866105a3565b61062160208301856105a3565b61062e60408301846105d5565b949350505050565b600060408201905061064b60008301856105a3565b61065860208301846105d5565b9392505050565b60006020820190508181036000830152610678816105b2565b9050919050565b600082825260208201905092915050565b600061069b826106d2565b9050919050565b60006106ad826106d2565b9050919050565b60008115159050919050565b60006106cb82610690565b9050919050565b600073ffffffffffffffffffffffffffffffffffffffff82169050919050565b6000819050919050565b600080fd5b7f6e65656420696e697420626f756e747900000000000000000000000000000000600082015250565b61073381610690565b811461073e57600080fd5b50565b61074a816106a2565b811461075557600080fd5b50565b610761816106b4565b811461076c57600080fd5b50565b610778816106c0565b811461078357600080fd5b50565b61078f816106f2565b811461079a57600080fd5b5056fea2646970667358221220e52fc63eaacbb6482b8c5f4427035bcd38bb5a9f5b405182afc4a910beee99ed64736f6c63430008070033",
					"opcodes": "PUSH1 0x80 PUSH1 0x40 MSTORE CALLVALUE DUP1 ISZERO PUSH2 0x10 JUMPI PUSH1 0x0 DUP1 REVERT JUMPDEST POP PUSH1 0x40 MLOAD PUSH2 0x8EA CODESIZE SUB DUP1 PUSH2 0x8EA DUP4 CODECOPY DUP2 DUP2 ADD PUSH1 0x40 MSTORE DUP2 ADD SWAP1 PUSH2 0x32 SWAP2 SWAP1 PUSH2 0x8D JUMP JUMPDEST DUP1 PUSH1 0x0 DUP1 PUSH2 0x100 EXP DUP2 SLOAD DUP2 PUSH20 0xFFFFFFFFFFFFFFFFFFFFFFFFFFFFFFFFFFFFFFFF MUL NOT AND SWAP1 DUP4 PUSH20 0xFFFFFFFFFFFFFFFFFFFFFFFFFFFFFFFFFFFFFFFF AND MUL OR SWAP1 SSTORE POP POP PUSH2 0x108 JUMP JUMPDEST PUSH1 0x0 DUP2 MLOAD SWAP1 POP PUSH2 0x87 DUP2 PUSH2 0xF1 JUMP JUMPDEST SWAP3 SWAP2 POP POP JUMP JUMPDEST PUSH1 0x0 PUSH1 0x20 DUP3 DUP5 SUB SLT ISZERO PUSH2 0xA3 JUMPI PUSH2 0xA2 PUSH2 0xEC JUMP JUMPDEST JUMPDEST PUSH1 0x0 PUSH2 0xB1 DUP5 DUP3 DUP6 ADD PUSH2 0x78 JUMP JUMPDEST SWAP2 POP POP SWAP3 SWAP2 POP POP JUMP JUMPDEST PUSH1 0x0 PUSH2 0xC5 DUP3 PUSH2 0xCC JUMP JUMPDEST SWAP1 POP SWAP2 SWAP1 POP JUMP JUMPDEST PUSH1 0x0 PUSH20 0xFFFFFFFFFFFFFFFFFFFFFFFFFFFFFFFFFFFFFFFF DUP3 AND SWAP1 POP SWAP2 SWAP1 POP JUMP JUMPDEST PUSH1 0x0 DUP1 REVERT JUMPDEST PUSH2 0xFA DUP2 PUSH2 0xBA JUMP JUMPDEST DUP2 EQ PUSH2 0x105 JUMPI PUSH1 0x0 DUP1 REVERT JUMPDEST POP JUMP JUMPDEST PUSH2 0x7D3 DUP1 PUSH2 0x117 PUSH1 0x0 CODECOPY PUSH1 0x0 RETURN INVALID PUSH1 0x80 PUSH1 0x40 MSTORE PUSH1 0x4 CALLDATASIZE LT PUSH2 0x74 JUMPI PUSH1 0x0 CALLDATALOAD PUSH1 0xE0 SHR DUP1 PUSH4 0x4F95A04B GT PUSH2 0x4E JUMPI DUP1 PUSH4 0x4F95A04B EQ PUSH2 0x180 JUMPI DUP1 PUSH4 0xBEABACC8 EQ PUSH2 0x19C JUMPI DUP1 PUSH4 0xD0E30DB0 EQ PUSH2 0x1C5 JUMPI DUP1 PUSH4 0xE1F21C67 EQ PUSH2 0x1CF JUMPI PUSH2 0x10B JUMP JUMPDEST DUP1 PUSH4 0x26B1D5F EQ PUSH2 0x110 JUMPI DUP1 PUSH4 0x13658F8A EQ PUSH2 0x13B JUMPI DUP1 PUSH4 0x23B872DD EQ PUSH2 0x157 JUMPI PUSH2 0x10B JUMP JUMPDEST CALLDATASIZE PUSH2 0x10B JUMPI PUSH1 0x0 PUSH20 0xFFFFFFFFFFFFFFFFFFFFFFFFFFFFFFFFFFFFFFFF AND PUSH1 0x0 DUP1 SLOAD SWAP1 PUSH2 0x100 EXP SWAP1 DIV PUSH20 0xFFFFFFFFFFFFFFFFFFFFFFFFFFFFFFFFFFFFFFFF AND PUSH20 0xFFFFFFFFFFFFFFFFFFFFFFFFFFFFFFFFFFFFFFFF AND EQ ISZERO PUSH2 0x109 JUMPI PUSH1 0x40 MLOAD PUSH32 0x8C379A000000000000000000000000000000000000000000000000000000000 DUP2 MSTORE PUSH1 0x4 ADD PUSH2 0x100 SWAP1 PUSH2 0x65F JUMP JUMPDEST PUSH1 0x40 MLOAD DUP1 SWAP2 SUB SWAP1 REVERT JUMPDEST STOP JUMPDEST PUSH1 0x0 DUP1 REVERT JUMPDEST CALLVALUE DUP1 ISZERO PUSH2 0x11C JUMPI PUSH1 0x0 DUP1 REVERT JUMPDEST POP PUSH2 0x125 PUSH2 0x1F8 JUMP JUMPDEST PUSH1 0x40 MLOAD PUSH2 0x132 SWAP2 SWAP1 PUSH2 0x5E4 JUMP JUMPDEST PUSH1 0x40 MLOAD DUP1 SWAP2 SUB SWAP1 RETURN JUMPDEST PUSH2 0x155 PUSH1 0x4 DUP1 CALLDATASIZE SUB DUP2 ADD SWAP1 PUSH2 0x150 SWAP2 SWAP1 PUSH2 0x4D4 JUMP JUMPDEST PUSH2 0x200 JUMP JUMPDEST STOP JUMPDEST CALLVALUE DUP1 ISZERO PUSH2 0x163 JUMPI PUSH1 0x0 DUP1 REVERT JUMPDEST POP PUSH2 0x17E PUSH1 0x4 DUP1 CALLDATASIZE SUB DUP2 ADD SWAP1 PUSH2 0x179 SWAP2 SWAP1 PUSH2 0x541 JUMP JUMPDEST PUSH2 0x24B JUMP JUMPDEST STOP JUMPDEST PUSH2 0x19A PUSH1 0x4 DUP1 CALLDATASIZE SUB DUP2 ADD SWAP1 PUSH2 0x195 SWAP2 SWAP1 PUSH2 0x4D4 JUMP JUMPDEST PUSH2 0x2E8 JUMP JUMPDEST STOP JUMPDEST CALLVALUE DUP1 ISZERO PUSH2 0x1A8 JUMPI PUSH1 0x0 DUP1 REVERT JUMPDEST POP PUSH2 0x1C3 PUSH1 0x4 DUP1 CALLDATASIZE SUB DUP2 ADD SWAP1 PUSH2 0x1BE SWAP2 SWAP1 PUSH2 0x541 JUMP JUMPDEST PUSH2 0x333 JUMP JUMPDEST STOP JUMPDEST PUSH2 0x1CD PUSH2 0x3CE JUMP JUMPDEST STOP JUMPDEST CALLVALUE DUP1 ISZERO PUSH2 0x1DB JUMPI PUSH1 0x0 DUP1 REVERT JUMPDEST POP PUSH2 0x1F6 PUSH1 0x4 DUP1 CALLDATASIZE SUB DUP2 ADD SWAP1 PUSH2 0x1F1 SWAP2 SWAP1 PUSH2 0x541 JUMP JUMPDEST PUSH2 0x3D0 JUMP JUMPDEST STOP JUMPDEST PUSH1 0x0 ADDRESS SWAP1 POP SWAP1 JUMP JUMPDEST DUP2 PUSH20 0xFFFFFFFFFFFFFFFFFFFFFFFFFFFFFFFFFFFFFFFF AND PUSH2 0x8FC DUP3 SWAP1 DUP2 ISZERO MUL SWAP1 PUSH1 0x40 MLOAD PUSH1 0x0 PUSH1 0x40 MLOAD DUP1 DUP4 SUB DUP2 DUP6 DUP9 DUP9 CALL SWAP4 POP POP POP POP ISZERO DUP1 ISZERO PUSH2 0x246 JUMPI RETURNDATASIZE PUSH1 0x0 DUP1 RETURNDATACOPY RETURNDATASIZE PUSH1 0x0 REVERT JUMPDEST POP POP POP JUMP JUMPDEST DUP3 PUSH20 0xFFFFFFFFFFFFFFFFFFFFFFFFFFFFFFFFFFFFFFFF AND PUSH4 0x23B872DD ADDRESS DUP5 DUP5 PUSH1 0x40 MLOAD DUP5 PUSH4 0xFFFFFFFF AND PUSH1 0xE0 SHL DUP2 MSTORE PUSH1 0x4 ADD PUSH2 0x288 SWAP4 SWAP3 SWAP2 SWAP1 PUSH2 0x5FF JUMP JUMPDEST PUSH1 0x20 PUSH1 0x40 MLOAD DUP1 DUP4 SUB DUP2 PUSH1 0x0 DUP8 DUP1 EXTCODESIZE ISZERO DUP1 ISZERO PUSH2 0x2A2 JUMPI PUSH1 0x0 DUP1 REVERT JUMPDEST POP GAS CALL ISZERO DUP1 ISZERO PUSH2 0x2B6 JUMPI RETURNDATASIZE PUSH1 0x0 DUP1 RETURNDATACOPY RETURNDATASIZE PUSH1 0x0 REVERT JUMPDEST POP POP POP POP PUSH1 0x40 MLOAD RETURNDATASIZE PUSH1 0x1F NOT PUSH1 0x1F DUP3 ADD AND DUP3 ADD DUP1 PUSH1 0x40 MSTORE POP DUP2 ADD SWAP1 PUSH2 0x2DA SWAP2 SWAP1 PUSH2 0x514 JUMP JUMPDEST PUSH2 0x2E3 JUMPI PUSH1 0x0 DUP1 REVERT JUMPDEST POP POP POP JUMP JUMPDEST DUP2 PUSH20 0xFFFFFFFFFFFFFFFFFFFFFFFFFFFFFFFFFFFFFFFF AND PUSH2 0x8FC DUP3 SWAP1 DUP2 ISZERO MUL SWAP1 PUSH1 0x40 MLOAD PUSH1 0x0 PUSH1 0x40 MLOAD DUP1 DUP4 SUB DUP2 DUP6 DUP9 DUP9 CALL SWAP4 POP POP POP POP ISZERO DUP1 ISZERO PUSH2 0x32E JUMPI RETURNDATASIZE PUSH1 0x0 DUP1 RETURNDATACOPY RETURNDATASIZE PUSH1 0x0 REVERT JUMPDEST POP POP POP JUMP JUMPDEST DUP3 PUSH20 0xFFFFFFFFFFFFFFFFFFFFFFFFFFFFFFFFFFFFFFFF AND PUSH4 0xA9059CBB DUP4 DUP4 PUSH1 0x40 MLOAD DUP4 PUSH4 0xFFFFFFFF AND PUSH1 0xE0 SHL DUP2 MSTORE PUSH1 0x4 ADD PUSH2 0x36E SWAP3 SWAP2 SWAP1 PUSH2 0x636 JUMP JUMPDEST PUSH1 0x20 PUSH1 0x40 MLOAD DUP1 DUP4 SUB DUP2 PUSH1 0x0 DUP8 DUP1 EXTCODESIZE ISZERO DUP1 ISZERO PUSH2 0x388 JUMPI PUSH1 0x0 DUP1 REVERT JUMPDEST POP GAS CALL ISZERO DUP1 ISZERO PUSH2 0x39C JUMPI RETURNDATASIZE PUSH1 0x0 DUP1 RETURNDATACOPY RETURNDATASIZE PUSH1 0x0 REVERT JUMPDEST POP POP POP POP PUSH1 0x40 MLOAD RETURNDATASIZE PUSH1 0x1F NOT PUSH1 0x1F DUP3 ADD AND DUP3 ADD DUP1 PUSH1 0x40 MSTORE POP DUP2 ADD SWAP1 PUSH2 0x3C0 SWAP2 SWAP1 PUSH2 0x514 JUMP JUMPDEST PUSH2 0x3C9 JUMPI PUSH1 0x0 DUP1 REVERT JUMPDEST POP POP POP JUMP JUMPDEST JUMP JUMPDEST DUP3 PUSH20 0xFFFFFFFFFFFFFFFFFFFFFFFFFFFFFFFFFFFFFFFF AND PUSH4 0x95EA7B3 DUP4 DUP4 PUSH1 0x40 MLOAD DUP4 PUSH4 0xFFFFFFFF AND PUSH1 0xE0 SHL DUP2 MSTORE PUSH1 0x4 ADD PUSH2 0x40B SWAP3 SWAP2 SWAP1 PUSH2 0x636 JUMP JUMPDEST PUSH1 0x20 PUSH1 0x40 MLOAD DUP1 DUP4 SUB DUP2 PUSH1 0x0 DUP8 DUP1 EXTCODESIZE ISZERO DUP1 ISZERO PUSH2 0x425 JUMPI PUSH1 0x0 DUP1 REVERT JUMPDEST POP GAS CALL ISZERO DUP1 ISZERO PUSH2 0x439 JUMPI RETURNDATASIZE PUSH1 0x0 DUP1 RETURNDATACOPY RETURNDATASIZE PUSH1 0x0 REVERT JUMPDEST POP POP POP POP PUSH1 0x40 MLOAD RETURNDATASIZE PUSH1 0x1F NOT PUSH1 0x1F DUP3 ADD AND DUP3 ADD DUP1 PUSH1 0x40 MSTORE POP DUP2 ADD SWAP1 PUSH2 0x45D SWAP2 SWAP1 PUSH2 0x514 JUMP JUMPDEST PUSH2 0x466 JUMPI PUSH1 0x0 DUP1 REVERT JUMPDEST POP POP POP JUMP JUMPDEST PUSH1 0x0 DUP2 CALLDATALOAD SWAP1 POP PUSH2 0x47A DUP2 PUSH2 0x72A JUMP JUMPDEST SWAP3 SWAP2 POP POP JUMP JUMPDEST PUSH1 0x0 DUP2 CALLDATALOAD SWAP1 POP PUSH2 0x48F DUP2 PUSH2 0x741 JUMP JUMPDEST SWAP3 SWAP2 POP POP JUMP JUMPDEST PUSH1 0x0 DUP2 MLOAD SWAP1 POP PUSH2 0x4A4 DUP2 PUSH2 0x758 JUMP JUMPDEST SWAP3 SWAP2 POP POP JUMP JUMPDEST PUSH1 0x0 DUP2 CALLDATALOAD SWAP1 POP PUSH2 0x4B9 DUP2 PUSH2 0x76F JUMP JUMPDEST SWAP3 SWAP2 POP POP JUMP JUMPDEST PUSH1 0x0 DUP2 CALLDATALOAD SWAP1 POP PUSH2 0x4CE DUP2 PUSH2 0x786 JUMP JUMPDEST SWAP3 SWAP2 POP POP JUMP JUMPDEST PUSH1 0x0 DUP1 PUSH1 0x40 DUP4 DUP6 SUB SLT ISZERO PUSH2 0x4EB JUMPI PUSH2 0x4EA PUSH2 0x6FC JUMP JUMPDEST JUMPDEST PUSH1 0x0 PUSH2 0x4F9 DUP6 DUP3 DUP7 ADD PUSH2 0x480 JUMP JUMPDEST SWAP3 POP POP PUSH1 0x20 PUSH2 0x50A DUP6 DUP3 DUP7 ADD PUSH2 0x4BF JUMP JUMPDEST SWAP2 POP POP SWAP3 POP SWAP3 SWAP1 POP JUMP JUMPDEST PUSH1 0x0 PUSH1 0x20 DUP3 DUP5 SUB SLT ISZERO PUSH2 0x52A JUMPI PUSH2 0x529 PUSH2 0x6FC JUMP JUMPDEST JUMPDEST PUSH1 0x0 PUSH2 0x538 DUP5 DUP3 DUP6 ADD PUSH2 0x495 JUMP JUMPDEST SWAP2 POP POP SWAP3 SWAP2 POP POP JUMP JUMPDEST PUSH1 0x0 DUP1 PUSH1 0x0 PUSH1 0x60 DUP5 DUP7 SUB SLT ISZERO PUSH2 0x55A JUMPI PUSH2 0x559 PUSH2 0x6FC JUMP JUMPDEST JUMPDEST PUSH1 0x0 PUSH2 0x568 DUP7 DUP3 DUP8 ADD PUSH2 0x4AA JUMP JUMPDEST SWAP4 POP POP PUSH1 0x20 PUSH2 0x579 DUP7 DUP3 DUP8 ADD PUSH2 0x46B JUMP JUMPDEST SWAP3 POP POP PUSH1 0x40 PUSH2 0x58A DUP7 DUP3 DUP8 ADD PUSH2 0x4BF JUMP JUMPDEST SWAP2 POP POP SWAP3 POP SWAP3 POP SWAP3 JUMP JUMPDEST PUSH2 0x59D DUP2 PUSH2 0x6A2 JUMP JUMPDEST DUP3 MSTORE POP POP JUMP JUMPDEST PUSH2 0x5AC DUP2 PUSH2 0x690 JUMP JUMPDEST DUP3 MSTORE POP POP JUMP JUMPDEST PUSH1 0x0 PUSH2 0x5BF PUSH1 0x10 DUP4 PUSH2 0x67F JUMP JUMPDEST SWAP2 POP PUSH2 0x5CA DUP3 PUSH2 0x701 JUMP JUMPDEST PUSH1 0x20 DUP3 ADD SWAP1 POP SWAP2 SWAP1 POP JUMP JUMPDEST PUSH2 0x5DE DUP2 PUSH2 0x6F2 JUMP JUMPDEST DUP3 MSTORE POP POP JUMP JUMPDEST PUSH1 0x0 PUSH1 0x20 DUP3 ADD SWAP1 POP PUSH2 0x5F9 PUSH1 0x0 DUP4 ADD DUP5 PUSH2 0x594 JUMP JUMPDEST SWAP3 SWAP2 POP POP JUMP JUMPDEST PUSH1 0x0 PUSH1 0x60 DUP3 ADD SWAP1 POP PUSH2 0x614 PUSH1 0x0 DUP4 ADD DUP7 PUSH2 0x5A3 JUMP JUMPDEST PUSH2 0x621 PUSH1 0x20 DUP4 ADD DUP6 PUSH2 0x5A3 JUMP JUMPDEST PUSH2 0x62E PUSH1 0x40 DUP4 ADD DUP5 PUSH2 0x5D5 JUMP JUMPDEST SWAP5 SWAP4 POP POP POP POP JUMP JUMPDEST PUSH1 0x0 PUSH1 0x40 DUP3 ADD SWAP1 POP PUSH2 0x64B PUSH1 0x0 DUP4 ADD DUP6 PUSH2 0x5A3 JUMP JUMPDEST PUSH2 0x658 PUSH1 0x20 DUP4 ADD DUP5 PUSH2 0x5D5 JUMP JUMPDEST SWAP4 SWAP3 POP POP POP JUMP JUMPDEST PUSH1 0x0 PUSH1 0x20 DUP3 ADD SWAP1 POP DUP2 DUP2 SUB PUSH1 0x0 DUP4 ADD MSTORE PUSH2 0x678 DUP2 PUSH2 0x5B2 JUMP JUMPDEST SWAP1 POP SWAP2 SWAP1 POP JUMP JUMPDEST PUSH1 0x0 DUP3 DUP3 MSTORE PUSH1 0x20 DUP3 ADD SWAP1 POP SWAP3 SWAP2 POP POP JUMP JUMPDEST PUSH1 0x0 PUSH2 0x69B DUP3 PUSH2 0x6D2 JUMP JUMPDEST SWAP1 POP SWAP2 SWAP1 POP JUMP JUMPDEST PUSH1 0x0 PUSH2 0x6AD DUP3 PUSH2 0x6D2 JUMP JUMPDEST SWAP1 POP SWAP2 SWAP1 POP JUMP JUMPDEST PUSH1 0x0 DUP2 ISZERO ISZERO SWAP1 POP SWAP2 SWAP1 POP JUMP JUMPDEST PUSH1 0x0 PUSH2 0x6CB DUP3 PUSH2 0x690 JUMP JUMPDEST SWAP1 POP SWAP2 SWAP1 POP JUMP JUMPDEST PUSH1 0x0 PUSH20 0xFFFFFFFFFFFFFFFFFFFFFFFFFFFFFFFFFFFFFFFF DUP3 AND SWAP1 POP SWAP2 SWAP1 POP JUMP JUMPDEST PUSH1 0x0 DUP2 SWAP1 POP SWAP2 SWAP1 POP JUMP JUMPDEST PUSH1 0x0 DUP1 REVERT JUMPDEST PUSH32 0x6E65656420696E697420626F756E747900000000000000000000000000000000 PUSH1 0x0 DUP3 ADD MSTORE POP JUMP JUMPDEST PUSH2 0x733 DUP2 PUSH2 0x690 JUMP JUMPDEST DUP2 EQ PUSH2 0x73E JUMPI PUSH1 0x0 DUP1 REVERT JUMPDEST POP JUMP JUMPDEST PUSH2 0x74A DUP2 PUSH2 0x6A2 JUMP JUMPDEST DUP2 EQ PUSH2 0x755 JUMPI PUSH1 0x0 DUP1 REVERT JUMPDEST POP JUMP JUMPDEST PUSH2 0x761 DUP2 PUSH2 0x6B4 JUMP JUMPDEST DUP2 EQ PUSH2 0x76C JUMPI PUSH1 0x0 DUP1 REVERT JUMPDEST POP JUMP JUMPDEST PUSH2 0x778 DUP2 PUSH2 0x6C0 JUMP JUMPDEST DUP2 EQ PUSH2 0x783 JUMPI PUSH1 0x0 DUP1 REVERT JUMPDEST POP JUMP JUMPDEST PUSH2 0x78F DUP2 PUSH2 0x6F2 JUMP JUMPDEST DUP2 EQ PUSH2 0x79A JUMPI PUSH1 0x0 DUP1 REVERT JUMPDEST POP JUMP INVALID LOG2 PUSH5 0x6970667358 0x22 SLT KECCAK256 0xE5 0x2F 0xC6 RETURNDATACOPY 0xAA 0xCB 0xB6 BASEFEE 0x2B DUP13 0x5F DIFFICULTY 0x27 SUB JUMPDEST 0xCD CODESIZE 0xBB GAS SWAP16 JUMPDEST BLOCKHASH MLOAD DUP3 0xAF 0xC4 0xA9 LT 0xBE 0xEE SWAP10 0xED PUSH5 0x736F6C6343 STOP ADDMOD SMOD STOP CALLER "
				},
				"gasEstimates": {
					"creation": {
						"codeDepositCost": "400600",
						"executionCost": "infinite",
						"totalCost": "infinite"
					},
					"external": {
						"approve(address,address,uint256)": "infinite",
						"deposit()": "164",
						"ethTransfer(address,uint256)": "infinite",
						"getPool()": "386",
						"stableTransfer(address,uint256)": "infinite",
						"transfer(address,address,uint256)": "infinite",
						"transferFrom(address,address,uint256)": "infinite"
					}
				},
				"methodIdentifiers": {
					"approve(address,address,uint256)": "e1f21c67",
					"deposit()": "d0e30db0",
					"ethTransfer(address,uint256)": "4f95a04b",
					"getPool()": "026b1d5f",
					"stableTransfer(address,uint256)": "13658f8a",
					"transfer(address,address,uint256)": "beabacc8",
					"transferFrom(address,address,uint256)": "23b872dd"
				}
			},
			"storageLayout": {
				"storage": [
					{
						"astId": 170,
						"contract": "contracts/Bounty.sol:BountyAddr",
						"label": "_bountyBase",
						"offset": 0,
						"slot": "0",
						"type": "t_address"
					}
				],
				"types": {
					"t_address": {
						"encoding": "inplace",
						"label": "address",
						"numberOfBytes": "20"
					}
				}
			},
			"userdoc": {
				"kind": "user",
				"methods": {},
				"version": 1
			}
		}
	}
}