{
	"contracts/Bounty.sol": {
		"Bounty": {
			"abi": [
				{
					"inputs": [],
					"stateMutability": "nonpayable",
					"type": "constructor"
				},
				{
					"anonymous": false,
					"inputs": [
						{
							"indexed": true,
							"internalType": "address",
							"name": "previousOwner",
							"type": "address"
						},
						{
							"indexed": true,
							"internalType": "address",
							"name": "newOwner",
							"type": "address"
						}
					],
					"name": "OwnershipTransferred",
					"type": "event"
				},
				{
					"anonymous": false,
					"inputs": [
						{
							"indexed": false,
							"internalType": "contract BountyAddr",
							"name": "addr",
							"type": "address"
						}
					],
					"name": "createdBounty",
					"type": "event"
				},
				{
					"stateMutability": "payable",
					"type": "fallback"
				},
				{
					"inputs": [
						{
							"internalType": "uint256",
							"name": "amount",
							"type": "uint256"
						}
					],
					"name": "createBounty",
					"outputs": [],
					"stateMutability": "payable",
					"type": "function"
				},
				{
					"inputs": [
						{
							"internalType": "address",
							"name": "",
							"type": "address"
						},
						{
							"internalType": "uint256",
							"name": "",
							"type": "uint256"
						}
					],
					"name": "founders",
					"outputs": [
						{
							"internalType": "address payable",
							"name": "founder",
							"type": "address"
						},
						{
							"internalType": "uint256",
							"name": "value",
							"type": "uint256"
						}
					],
					"stateMutability": "view",
					"type": "function"
				},
				{
					"inputs": [
						{
							"internalType": "string",
							"name": "id",
							"type": "string"
						},
						{
							"internalType": "address payable",
							"name": "oriSender",
							"type": "address"
						},
						{
							"internalType": "uint256",
							"name": "oriVal",
							"type": "uint256"
						},
						{
							"internalType": "uint256",
							"name": "time",
							"type": "uint256"
						}
					],
					"name": "invest",
					"outputs": [],
					"stateMutability": "nonpayable",
					"type": "function"
				},
				{
					"inputs": [
						{
							"internalType": "address payable",
							"name": "bountyAddr",
							"type": "address"
						}
					],
					"name": "refund",
					"outputs": [],
					"stateMutability": "payable",
					"type": "function"
				},
				{
					"inputs": [
						{
							"internalType": "address payable",
							"name": "receiver",
							"type": "address"
						}
					],
					"name": "suicide0",
					"outputs": [],
					"stateMutability": "nonpayable",
					"type": "function"
				},
				{
					"inputs": [
						{
							"internalType": "address",
							"name": "newOwner",
							"type": "address"
						}
					],
					"name": "transferOwnership",
					"outputs": [],
					"stateMutability": "nonpayable",
					"type": "function"
				},
				{
					"stateMutability": "payable",
					"type": "receive"
				}
			],
			"devdoc": {
				"kind": "dev",
				"methods": {},
				"version": 1
			},
			"evm": {
				"assembly": "    /* \"contracts/Bounty.sol\":143:1757  contract Bounty is Base { ... */\n  mstore(0x40, 0x80)\n    /* \"contracts/Bounty.sol\":707:749  0xB97EF9Ef8734C71904D8002F8b6Bc66Dd9c48a6E */\n  0xb97ef9ef8734c71904d8002f8b6bc66dd9c48a6e\n    /* \"contracts/Bounty.sol\":677:750  address _stableAddr = address(0xB97EF9Ef8734C71904D8002F8b6Bc66Dd9c48a6E) */\n  0x04\n  exp(0x0100, 0x00)\n  dup2\n  sload\n  dup2\n  0xffffffffffffffffffffffffffffffffffffffff\n  mul\n  not\n  and\n  swap1\n  dup4\n  0xffffffffffffffffffffffffffffffffffffffff\n  and\n  mul\n  or\n  swap1\n  sstore\n  pop\n    /* \"contracts/Bounty.sol\":758:815  constructor() Base() {... */\n  callvalue\n  dup1\n  iszero\n  tag_1\n  jumpi\n  0x00\n  dup1\n  revert\ntag_1:\n  pop\n    /* \"contracts/base/Base.sol\":371:381  msg.sender */\n  caller\n    /* \"contracts/base/Base.sol\":362:368  _owner */\n  0x00\n  dup1\n    /* \"contracts/base/Base.sol\":362:381  _owner = msg.sender */\n  0x0100\n  exp\n  dup2\n  sload\n  dup2\n  0xffffffffffffffffffffffffffffffffffffffff\n  mul\n  not\n  and\n  swap1\n  dup4\n  0xffffffffffffffffffffffffffffffffffffffff\n  and\n  mul\n  or\n  swap1\n  sstore\n  pop\n    /* \"contracts/Bounty.sol\":798:808  msg.sender */\n  caller\n    /* \"contracts/Bounty.sol\":789:795  _owner */\n  0x00\n  dup1\n    /* \"contracts/Bounty.sol\":789:808  _owner = msg.sender */\n  0x0100\n  exp\n  dup2\n  sload\n  dup2\n  0xffffffffffffffffffffffffffffffffffffffff\n  mul\n  not\n  and\n  swap1\n  dup4\n  0xffffffffffffffffffffffffffffffffffffffff\n  and\n  mul\n  or\n  swap1\n  sstore\n  pop\n    /* \"contracts/Bounty.sol\":143:1757  contract Bounty is Base { ... */\n  dataSize(sub_0)\n  dup1\n  dataOffset(sub_0)\n  0x00\n  codecopy\n  0x00\n  return\nstop\n\nsub_0: assembly {\n        /* \"contracts/Bounty.sol\":143:1757  contract Bounty is Base { ... */\n      mstore(0x40, 0x80)\n      jumpi(tag_1, lt(calldatasize, 0x04))\n      shr(0xe0, calldataload(0x00))\n      dup1\n      0x14da447f\n      eq\n      tag_3\n      jumpi\n      dup1\n      0x3f28e9fb\n      eq\n      tag_4\n      jumpi\n      dup1\n      0x46964a0a\n      eq\n      tag_5\n      jumpi\n      dup1\n      0x5f0024b7\n      eq\n      tag_6\n      jumpi\n      dup1\n      0xf2fde38b\n      eq\n      tag_7\n      jumpi\n      dup1\n      0xfa89401a\n      eq\n      tag_8\n      jumpi\n      jump(tag_2)\n    tag_1:\n      jumpi(tag_2, calldatasize)\n        /* \"contracts/base/Base.sol\":498:506  revert() */\n      0x00\n      dup1\n      revert\n        /* \"contracts/Bounty.sol\":143:1757  contract Bounty is Base { ... */\n    tag_2:\n        /* \"contracts/base/Base.sol\":440:448  revert() */\n      0x00\n      dup1\n      revert\n        /* \"contracts/base/Base.sol\":1009:1115  function suicide0(address payable receiver)... */\n    tag_3:\n      callvalue\n      dup1\n      iszero\n      tag_13\n      jumpi\n      0x00\n      dup1\n      revert\n    tag_13:\n      pop\n      tag_14\n      0x04\n      dup1\n      calldatasize\n      sub\n      dup2\n      add\n      swap1\n      tag_15\n      swap2\n      swap1\n      tag_16\n      jump\t// in\n    tag_15:\n      tag_17\n      jump\t// in\n    tag_14:\n      stop\n        /* \"contracts/Bounty.sol\":821:1258  function createBounty(uint256 amount) public payable {... */\n    tag_4:\n      tag_18\n      0x04\n      dup1\n      calldatasize\n      sub\n      dup2\n      add\n      swap1\n      tag_19\n      swap2\n      swap1\n      tag_20\n      jump\t// in\n    tag_19:\n      tag_21\n      jump\t// in\n    tag_18:\n      stop\n        /* \"contracts/Bounty.sol\":1626:1755  function invest(string memory id, address payable oriSender, uint256 oriVal, uint256 time) public {... */\n    tag_5:\n      callvalue\n      dup1\n      iszero\n      tag_22\n      jumpi\n      0x00\n      dup1\n      revert\n    tag_22:\n      pop\n      tag_23\n      0x04\n      dup1\n      calldatasize\n      sub\n      dup2\n      add\n      swap1\n      tag_24\n      swap2\n      swap1\n      tag_25\n      jump\t// in\n    tag_24:\n      tag_26\n      jump\t// in\n    tag_23:\n      stop\n        /* \"contracts/Bounty.sol\":384:435  mapping(address => BountyFounder[]) public founders */\n    tag_6:\n      callvalue\n      dup1\n      iszero\n      tag_27\n      jumpi\n      0x00\n      dup1\n      revert\n    tag_27:\n      pop\n      tag_28\n      0x04\n      dup1\n      calldatasize\n      sub\n      dup2\n      add\n      swap1\n      tag_29\n      swap2\n      swap1\n      tag_30\n      jump\t// in\n    tag_29:\n      tag_31\n      jump\t// in\n    tag_28:\n      mload(0x40)\n      tag_32\n      swap3\n      swap2\n      swap1\n      tag_33\n      jump\t// in\n    tag_32:\n      mload(0x40)\n      dup1\n      swap2\n      sub\n      swap1\n      return\n        /* \"contracts/base/Base.sol\":614:810  function transferOwnership(address newOwner) public virtual isOwner {... */\n    tag_7:\n      callvalue\n      dup1\n      iszero\n      tag_34\n      jumpi\n      0x00\n      dup1\n      revert\n    tag_34:\n      pop\n      tag_35\n      0x04\n      dup1\n      calldatasize\n      sub\n      dup2\n      add\n      swap1\n      tag_36\n      swap2\n      swap1\n      tag_37\n      jump\t// in\n    tag_36:\n      tag_38\n      jump\t// in\n    tag_35:\n      stop\n        /* \"contracts/Bounty.sol\":1264:1620  function refund(address payable bountyAddr) public payable {... */\n    tag_8:\n      tag_39\n      0x04\n      dup1\n      calldatasize\n      sub\n      dup2\n      add\n      swap1\n      tag_40\n      swap2\n      swap1\n      tag_16\n      jump\t// in\n    tag_40:\n      tag_41\n      jump\t// in\n    tag_39:\n      stop\n        /* \"contracts/base/Base.sol\":1009:1115  function suicide0(address payable receiver)... */\n    tag_17:\n        /* \"contracts/base/Base.sol\":303:309  _owner */\n      0x00\n      dup1\n      sload\n      swap1\n      0x0100\n      exp\n      swap1\n      div\n      0xffffffffffffffffffffffffffffffffffffffff\n      and\n        /* \"contracts/base/Base.sol\":289:309  msg.sender == _owner */\n      0xffffffffffffffffffffffffffffffffffffffff\n      and\n        /* \"contracts/base/Base.sol\":289:299  msg.sender */\n      caller\n        /* \"contracts/base/Base.sol\":289:309  msg.sender == _owner */\n      0xffffffffffffffffffffffffffffffffffffffff\n      and\n      eq\n        /* \"contracts/base/Base.sol\":282:310  assert(msg.sender == _owner) */\n      tag_43\n      jumpi\n      tag_44\n      tag_45\n      jump\t// in\n    tag_44:\n    tag_43:\n        /* \"contracts/base/Base.sol\":1099:1107  receiver */\n      dup1\n        /* \"contracts/base/Base.sol\":1086:1108  selfdestruct(receiver) */\n      0xffffffffffffffffffffffffffffffffffffffff\n      and\n      selfdestruct\n        /* \"contracts/Bounty.sol\":821:1258  function createBounty(uint256 amount) public payable {... */\n    tag_21:\n        /* \"contracts/Bounty.sol\":884:899  BountyAddr addr */\n      0x00\n        /* \"contracts/Bounty.sol\":925:929  this */\n      address\n        /* \"contracts/Bounty.sol\":902:931  new BountyAddr(address(this)) */\n      mload(0x40)\n      tag_48\n      swap1\n      tag_49\n      jump\t// in\n    tag_48:\n      tag_50\n      swap2\n      swap1\n      tag_51\n      jump\t// in\n    tag_50:\n      mload(0x40)\n      dup1\n      swap2\n      sub\n      swap1\n      0x00\n      create\n      dup1\n      iszero\n      dup1\n      iszero\n      tag_52\n      jumpi\n      returndatasize\n      0x00\n      dup1\n      returndatacopy\n      revert(0x00, returndatasize)\n    tag_52:\n      pop\n        /* \"contracts/Bounty.sol\":884:931  BountyAddr addr = new BountyAddr(address(this)) */\n      swap1\n      pop\n        /* \"contracts/Bounty.sol\":996:1007  _stableAddr */\n      0x04\n      0x00\n      swap1\n      sload\n      swap1\n      0x0100\n      exp\n      swap1\n      div\n      0xffffffffffffffffffffffffffffffffffffffff\n      and\n        /* \"contracts/Bounty.sol\":989:1021  IERC20(_stableAddr).transferFrom */\n      0xffffffffffffffffffffffffffffffffffffffff\n      and\n      0x23b872dd\n        /* \"contracts/Bounty.sol\":1022:1032  msg.sender */\n      caller\n        /* \"contracts/Bounty.sol\":1034:1038  addr */\n      dup4\n        /* \"contracts/Bounty.sol\":1034:1046  addr.getPool */\n      0xffffffffffffffffffffffffffffffffffffffff\n      and\n      0x026b1d5f\n        /* \"contracts/Bounty.sol\":1034:1048  addr.getPool() */\n      mload(0x40)\n      dup2\n      0xffffffff\n      and\n      0xe0\n      shl\n      dup2\n      mstore\n      0x04\n      add\n      0x20\n      mload(0x40)\n      dup1\n      dup4\n      sub\n      dup2\n      dup7\n      dup1\n      extcodesize\n      iszero\n      dup1\n      iszero\n      tag_53\n      jumpi\n      0x00\n      dup1\n      revert\n    tag_53:\n      pop\n      gas\n      staticcall\n      iszero\n      dup1\n      iszero\n      tag_55\n      jumpi\n      returndatasize\n      0x00\n      dup1\n      returndatacopy\n      revert(0x00, returndatasize)\n    tag_55:\n      pop\n      pop\n      pop\n      pop\n      mload(0x40)\n      returndatasize\n      not(0x1f)\n      0x1f\n      dup3\n      add\n      and\n      dup3\n      add\n      dup1\n      0x40\n      mstore\n      pop\n      dup2\n      add\n      swap1\n      tag_56\n      swap2\n      swap1\n      tag_57\n      jump\t// in\n    tag_56:\n        /* \"contracts/Bounty.sol\":1050:1056  amount */\n      dup6\n        /* \"contracts/Bounty.sol\":989:1057  IERC20(_stableAddr).transferFrom(msg.sender, addr.getPool(), amount) */\n      mload(0x40)\n      dup5\n      0xffffffff\n      and\n      0xe0\n      shl\n      dup2\n      mstore\n      0x04\n      add\n      tag_58\n      swap4\n      swap3\n      swap2\n      swap1\n      tag_59\n      jump\t// in\n    tag_58:\n      0x20\n      mload(0x40)\n      dup1\n      dup4\n      sub\n      dup2\n      0x00\n      dup8\n      dup1\n      extcodesize\n      iszero\n      dup1\n      iszero\n      tag_60\n      jumpi\n      0x00\n      dup1\n      revert\n    tag_60:\n      pop\n      gas\n      call\n      iszero\n      dup1\n      iszero\n      tag_62\n      jumpi\n      returndatasize\n      0x00\n      dup1\n      returndatacopy\n      revert(0x00, returndatasize)\n    tag_62:\n      pop\n      pop\n      pop\n      pop\n      mload(0x40)\n      returndatasize\n      not(0x1f)\n      0x1f\n      dup3\n      add\n      and\n      dup3\n      add\n      dup1\n      0x40\n      mstore\n      pop\n      dup2\n      add\n      swap1\n      tag_63\n      swap2\n      swap1\n      tag_64\n      jump\t// in\n    tag_63:\n      pop\n        /* \"contracts/Bounty.sol\":1067:1084  bountyAddressList */\n      0x03\n        /* \"contracts/Bounty.sol\":1090:1094  addr */\n      dup2\n        /* \"contracts/Bounty.sol\":1067:1095  bountyAddressList.push(addr) */\n      swap1\n      dup1\n      0x01\n      dup2\n      sload\n      add\n      dup1\n      dup3\n      sstore\n      dup1\n      swap2\n      pop\n      pop\n      0x01\n      swap1\n      sub\n      swap1\n      0x00\n      mstore\n      keccak256(0x00, 0x20)\n      add\n      0x00\n      swap1\n      swap2\n      swap1\n      swap2\n      swap1\n      swap2\n      0x0100\n      exp\n      dup2\n      sload\n      dup2\n      0xffffffffffffffffffffffffffffffffffffffff\n      mul\n      not\n      and\n      swap1\n      dup4\n      0xffffffffffffffffffffffffffffffffffffffff\n      and\n      mul\n      or\n      swap1\n      sstore\n      pop\n        /* \"contracts/Bounty.sol\":1105:1127  BountyFounder memory f */\n      0x00\n        /* \"contracts/Bounty.sol\":1130:1175  BountyFounder(payable(msg.sender), msg.value) */\n      mload(0x40)\n      dup1\n      0x40\n      add\n      0x40\n      mstore\n      dup1\n        /* \"contracts/Bounty.sol\":1152:1162  msg.sender */\n      caller\n        /* \"contracts/Bounty.sol\":1130:1175  BountyFounder(payable(msg.sender), msg.value) */\n      0xffffffffffffffffffffffffffffffffffffffff\n      and\n      dup2\n      mstore\n      0x20\n      add\n        /* \"contracts/Bounty.sol\":1165:1174  msg.value */\n      callvalue\n        /* \"contracts/Bounty.sol\":1130:1175  BountyFounder(payable(msg.sender), msg.value) */\n      dup2\n      mstore\n      pop\n        /* \"contracts/Bounty.sol\":1105:1175  BountyFounder memory f = BountyFounder(payable(msg.sender), msg.value) */\n      swap1\n      pop\n        /* \"contracts/Bounty.sol\":1185:1193  founders */\n      0x02\n        /* \"contracts/Bounty.sol\":1185:1208  founders[address(addr)] */\n      0x00\n        /* \"contracts/Bounty.sol\":1202:1206  addr */\n      dup4\n        /* \"contracts/Bounty.sol\":1185:1208  founders[address(addr)] */\n      0xffffffffffffffffffffffffffffffffffffffff\n      and\n      0xffffffffffffffffffffffffffffffffffffffff\n      and\n      dup2\n      mstore\n      0x20\n      add\n      swap1\n      dup2\n      mstore\n      0x20\n      add\n      0x00\n      keccak256\n        /* \"contracts/Bounty.sol\":1214:1215  f */\n      dup2\n        /* \"contracts/Bounty.sol\":1185:1216  founders[address(addr)].push(f) */\n      swap1\n      dup1\n      0x01\n      dup2\n      sload\n      add\n      dup1\n      dup3\n      sstore\n      dup1\n      swap2\n      pop\n      pop\n      0x01\n      swap1\n      sub\n      swap1\n      0x00\n      mstore\n      keccak256(0x00, 0x20)\n      swap1\n      0x02\n      mul\n      add\n      0x00\n      swap1\n      swap2\n      swap1\n      swap2\n      swap1\n      swap2\n      pop\n      0x00\n      dup3\n      add\n      mload\n      dup2\n      0x00\n      add\n      exp(0x0100, 0x00)\n      dup2\n      sload\n      dup2\n      0xffffffffffffffffffffffffffffffffffffffff\n      mul\n      not\n      and\n      swap1\n      dup4\n      0xffffffffffffffffffffffffffffffffffffffff\n      and\n      mul\n      or\n      swap1\n      sstore\n      pop\n      0x20\n      dup3\n      add\n      mload\n      dup2\n      0x01\n      add\n      sstore\n      pop\n      pop\n        /* \"contracts/Bounty.sol\":1232:1251  createdBounty(addr) */\n      0x1bda7bb843640650292c2a26a73106328e0f83c1c09ea1a4176df3912ee47ff6\n        /* \"contracts/Bounty.sol\":1246:1250  addr */\n      dup3\n        /* \"contracts/Bounty.sol\":1232:1251  createdBounty(addr) */\n      mload(0x40)\n      tag_67\n      swap2\n      swap1\n      tag_68\n      jump\t// in\n    tag_67:\n      mload(0x40)\n      dup1\n      swap2\n      sub\n      swap1\n      log1\n        /* \"contracts/Bounty.sol\":874:1258  {... */\n      pop\n      pop\n        /* \"contracts/Bounty.sol\":821:1258  function createBounty(uint256 amount) public payable {... */\n      pop\n      jump\t// out\n        /* \"contracts/Bounty.sol\":1626:1755  function invest(string memory id, address payable oriSender, uint256 oriVal, uint256 time) public {... */\n    tag_26:\n      pop\n      pop\n      pop\n      pop\n      jump\t// out\n        /* \"contracts/Bounty.sol\":384:435  mapping(address => BountyFounder[]) public founders */\n    tag_31:\n      mstore(0x20, 0x02)\n      dup2\n      0x00\n      mstore\n      keccak256(0x00, 0x40)\n      dup2\n      dup2\n      sload\n      dup2\n      lt\n      tag_70\n      jumpi\n      0x00\n      dup1\n      revert\n    tag_70:\n      swap1\n      0x00\n      mstore\n      keccak256(0x00, 0x20)\n      swap1\n      0x02\n      mul\n      add\n      0x00\n      swap2\n      pop\n      swap2\n      pop\n      pop\n      dup1\n      0x00\n      add\n      0x00\n      swap1\n      sload\n      swap1\n      0x0100\n      exp\n      swap1\n      div\n      0xffffffffffffffffffffffffffffffffffffffff\n      and\n      swap1\n      dup1\n      0x01\n      add\n      sload\n      swap1\n      pop\n      dup3\n      jump\t// out\n        /* \"contracts/base/Base.sol\":614:810  function transferOwnership(address newOwner) public virtual isOwner {... */\n    tag_38:\n        /* \"contracts/base/Base.sol\":303:309  _owner */\n      0x00\n      dup1\n      sload\n      swap1\n      0x0100\n      exp\n      swap1\n      div\n      0xffffffffffffffffffffffffffffffffffffffff\n      and\n        /* \"contracts/base/Base.sol\":289:309  msg.sender == _owner */\n      0xffffffffffffffffffffffffffffffffffffffff\n      and\n        /* \"contracts/base/Base.sol\":289:299  msg.sender */\n      caller\n        /* \"contracts/base/Base.sol\":289:309  msg.sender == _owner */\n      0xffffffffffffffffffffffffffffffffffffffff\n      and\n      eq\n        /* \"contracts/base/Base.sol\":282:310  assert(msg.sender == _owner) */\n      tag_73\n      jumpi\n      tag_74\n      tag_45\n      jump\t// in\n    tag_74:\n    tag_73:\n        /* \"contracts/base/Base.sol\":720:721  0 */\n      0x00\n        /* \"contracts/base/Base.sol\":700:722  newOwner != address(0) */\n      0xffffffffffffffffffffffffffffffffffffffff\n      and\n        /* \"contracts/base/Base.sol\":700:708  newOwner */\n      dup2\n        /* \"contracts/base/Base.sol\":700:722  newOwner != address(0) */\n      0xffffffffffffffffffffffffffffffffffffffff\n      and\n      eq\n      iszero\n        /* \"contracts/base/Base.sol\":692:765  require(newOwner != address(0), \"Ownable: new owner is the zero address\") */\n      tag_76\n      jumpi\n      mload(0x40)\n      0x08c379a000000000000000000000000000000000000000000000000000000000\n      dup2\n      mstore\n      0x04\n      add\n      tag_77\n      swap1\n      tag_78\n      jump\t// in\n    tag_77:\n      mload(0x40)\n      dup1\n      swap2\n      sub\n      swap1\n      revert\n    tag_76:\n        /* \"contracts/base/Base.sol\":775:803  _transferOwnership(newOwner) */\n      tag_79\n        /* \"contracts/base/Base.sol\":794:802  newOwner */\n      dup2\n        /* \"contracts/base/Base.sol\":775:793  _transferOwnership */\n      tag_80\n        /* \"contracts/base/Base.sol\":775:803  _transferOwnership(newOwner) */\n      jump\t// in\n    tag_79:\n        /* \"contracts/base/Base.sol\":614:810  function transferOwnership(address newOwner) public virtual isOwner {... */\n      pop\n      jump\t// out\n        /* \"contracts/Bounty.sol\":1264:1620  function refund(address payable bountyAddr) public payable {... */\n    tag_41:\n        /* \"contracts/Bounty.sol\":1363:1364  0 */\n      0x00\n        /* \"contracts/Bounty.sol\":1341:1365  bountyAddr != address(0) */\n      0xffffffffffffffffffffffffffffffffffffffff\n      and\n        /* \"contracts/Bounty.sol\":1341:1351  bountyAddr */\n      dup2\n        /* \"contracts/Bounty.sol\":1341:1365  bountyAddr != address(0) */\n      0xffffffffffffffffffffffffffffffffffffffff\n      and\n      eq\n      iszero\n        /* \"contracts/Bounty.sol\":1333:1380  require(bountyAddr != address(0), 'empty addr') */\n      tag_82\n      jumpi\n      mload(0x40)\n      0x08c379a000000000000000000000000000000000000000000000000000000000\n      dup2\n      mstore\n      0x04\n      add\n      tag_83\n      swap1\n      tag_84\n      jump\t// in\n    tag_83:\n      mload(0x40)\n      dup1\n      swap2\n      sub\n      swap1\n      revert\n    tag_82:\n        /* \"contracts/Bounty.sol\":1419:1428  uint256 i */\n      0x00\n        /* \"contracts/Bounty.sol\":1414:1614  for (uint256 i = 0; i < founders[bountyAddr].length; i++) {... */\n    tag_85:\n        /* \"contracts/Bounty.sol\":1438:1446  founders */\n      0x02\n        /* \"contracts/Bounty.sol\":1438:1458  founders[bountyAddr] */\n      0x00\n        /* \"contracts/Bounty.sol\":1447:1457  bountyAddr */\n      dup4\n        /* \"contracts/Bounty.sol\":1438:1458  founders[bountyAddr] */\n      0xffffffffffffffffffffffffffffffffffffffff\n      and\n      0xffffffffffffffffffffffffffffffffffffffff\n      and\n      dup2\n      mstore\n      0x20\n      add\n      swap1\n      dup2\n      mstore\n      0x20\n      add\n      0x00\n      keccak256\n        /* \"contracts/Bounty.sol\":1438:1465  founders[bountyAddr].length */\n      dup1\n      sload\n      swap1\n      pop\n        /* \"contracts/Bounty.sol\":1434:1435  i */\n      dup2\n        /* \"contracts/Bounty.sol\":1434:1465  i < founders[bountyAddr].length */\n      lt\n        /* \"contracts/Bounty.sol\":1414:1614  for (uint256 i = 0; i < founders[bountyAddr].length; i++) {... */\n      iszero\n      tag_86\n      jumpi\n        /* \"contracts/Bounty.sol\":1486:1509  BountyFounder storage f */\n      0x00\n        /* \"contracts/Bounty.sol\":1512:1520  founders */\n      0x02\n        /* \"contracts/Bounty.sol\":1512:1532  founders[bountyAddr] */\n      0x00\n        /* \"contracts/Bounty.sol\":1521:1531  bountyAddr */\n      dup5\n        /* \"contracts/Bounty.sol\":1512:1532  founders[bountyAddr] */\n      0xffffffffffffffffffffffffffffffffffffffff\n      and\n      0xffffffffffffffffffffffffffffffffffffffff\n      and\n      dup2\n      mstore\n      0x20\n      add\n      swap1\n      dup2\n      mstore\n      0x20\n      add\n      0x00\n      keccak256\n        /* \"contracts/Bounty.sol\":1533:1534  i */\n      dup3\n        /* \"contracts/Bounty.sol\":1512:1535  founders[bountyAddr][i] */\n      dup2\n      sload\n      dup2\n      lt\n      tag_88\n      jumpi\n      tag_89\n      tag_90\n      jump\t// in\n    tag_89:\n    tag_88:\n      swap1\n      0x00\n      mstore\n      keccak256(0x00, 0x20)\n      swap1\n      0x02\n      mul\n      add\n        /* \"contracts/Bounty.sol\":1486:1535  BountyFounder storage f = founders[bountyAddr][i] */\n      swap1\n      pop\n        /* \"contracts/Bounty.sol\":1560:1570  bountyAddr */\n      dup3\n        /* \"contracts/Bounty.sol\":1549:1583  BountyAddr(bountyAddr).ethTransfer */\n      0xffffffffffffffffffffffffffffffffffffffff\n      and\n      0x4f95a04b\n        /* \"contracts/Bounty.sol\":1584:1585  f */\n      dup3\n        /* \"contracts/Bounty.sol\":1584:1593  f.founder */\n      0x00\n      add\n      0x00\n      swap1\n      sload\n      swap1\n      0x0100\n      exp\n      swap1\n      div\n      0xffffffffffffffffffffffffffffffffffffffff\n      and\n        /* \"contracts/Bounty.sol\":1595:1596  f */\n      dup4\n        /* \"contracts/Bounty.sol\":1595:1602  f.value */\n      0x01\n      add\n      sload\n        /* \"contracts/Bounty.sol\":1549:1603  BountyAddr(bountyAddr).ethTransfer(f.founder, f.value) */\n      mload(0x40)\n      dup4\n      0xffffffff\n      and\n      0xe0\n      shl\n      dup2\n      mstore\n      0x04\n      add\n      tag_92\n      swap3\n      swap2\n      swap1\n      tag_33\n      jump\t// in\n    tag_92:\n      0x00\n      mload(0x40)\n      dup1\n      dup4\n      sub\n      dup2\n      0x00\n      dup8\n      dup1\n      extcodesize\n      iszero\n      dup1\n      iszero\n      tag_93\n      jumpi\n      0x00\n      dup1\n      revert\n    tag_93:\n      pop\n      gas\n      call\n      iszero\n      dup1\n      iszero\n      tag_95\n      jumpi\n      returndatasize\n      0x00\n      dup1\n      returndatacopy\n      revert(0x00, returndatasize)\n    tag_95:\n      pop\n      pop\n      pop\n      pop\n        /* \"contracts/Bounty.sol\":1472:1614  {... */\n      pop\n        /* \"contracts/Bounty.sol\":1467:1470  i++ */\n      dup1\n      dup1\n      tag_96\n      swap1\n      tag_97\n      jump\t// in\n    tag_96:\n      swap2\n      pop\n      pop\n        /* \"contracts/Bounty.sol\":1414:1614  for (uint256 i = 0; i < founders[bountyAddr].length; i++) {... */\n      jump(tag_85)\n    tag_86:\n      pop\n        /* \"contracts/Bounty.sol\":1264:1620  function refund(address payable bountyAddr) public payable {... */\n      pop\n      jump\t// out\n        /* \"contracts/base/Base.sol\":816:1003  function _transferOwnership(address newOwner) internal virtual {... */\n    tag_80:\n        /* \"contracts/base/Base.sol\":889:905  address oldOwner */\n      0x00\n        /* \"contracts/base/Base.sol\":908:914  _owner */\n      dup1\n      0x00\n      swap1\n      sload\n      swap1\n      0x0100\n      exp\n      swap1\n      div\n      0xffffffffffffffffffffffffffffffffffffffff\n      and\n        /* \"contracts/base/Base.sol\":889:914  address oldOwner = _owner */\n      swap1\n      pop\n        /* \"contracts/base/Base.sol\":933:941  newOwner */\n      dup2\n        /* \"contracts/base/Base.sol\":924:930  _owner */\n      0x00\n      dup1\n        /* \"contracts/base/Base.sol\":924:941  _owner = newOwner */\n      0x0100\n      exp\n      dup2\n      sload\n      dup2\n      0xffffffffffffffffffffffffffffffffffffffff\n      mul\n      not\n      and\n      swap1\n      dup4\n      0xffffffffffffffffffffffffffffffffffffffff\n      and\n      mul\n      or\n      swap1\n      sstore\n      pop\n        /* \"contracts/base/Base.sol\":987:995  newOwner */\n      dup2\n        /* \"contracts/base/Base.sol\":956:996  OwnershipTransferred(oldOwner, newOwner) */\n      0xffffffffffffffffffffffffffffffffffffffff\n      and\n        /* \"contracts/base/Base.sol\":977:985  oldOwner */\n      dup2\n        /* \"contracts/base/Base.sol\":956:996  OwnershipTransferred(oldOwner, newOwner) */\n      0xffffffffffffffffffffffffffffffffffffffff\n      and\n      0x8be0079c531659141344cd1fd0a4f28419497f9722a3daafe3b4186f6b6457e0\n      mload(0x40)\n      mload(0x40)\n      dup1\n      swap2\n      sub\n      swap1\n      log3\n        /* \"contracts/base/Base.sol\":879:1003  {... */\n      pop\n        /* \"contracts/base/Base.sol\":816:1003  function _transferOwnership(address newOwner) internal virtual {... */\n      pop\n      jump\t// out\n    tag_49:\n      dataSize(sub_0)\n      dup1\n      dataOffset(sub_0)\n      dup4\n      codecopy\n      add\n      swap1\n      jump\t// out\n        /* \"#utility.yul\":7:419   */\n    tag_100:\n        /* \"#utility.yul\":85:90   */\n      0x00\n        /* \"#utility.yul\":110:176   */\n      tag_102\n        /* \"#utility.yul\":126:175   */\n      tag_103\n        /* \"#utility.yul\":168:174   */\n      dup5\n        /* \"#utility.yul\":126:175   */\n      tag_104\n      jump\t// in\n    tag_103:\n        /* \"#utility.yul\":110:176   */\n      tag_105\n      jump\t// in\n    tag_102:\n        /* \"#utility.yul\":101:176   */\n      swap1\n      pop\n        /* \"#utility.yul\":199:205   */\n      dup3\n        /* \"#utility.yul\":192:197   */\n      dup2\n        /* \"#utility.yul\":185:206   */\n      mstore\n        /* \"#utility.yul\":237:241   */\n      0x20\n        /* \"#utility.yul\":230:235   */\n      dup2\n        /* \"#utility.yul\":226:242   */\n      add\n        /* \"#utility.yul\":275:278   */\n      dup5\n        /* \"#utility.yul\":266:272   */\n      dup5\n        /* \"#utility.yul\":261:264   */\n      dup5\n        /* \"#utility.yul\":257:273   */\n      add\n        /* \"#utility.yul\":254:279   */\n      gt\n        /* \"#utility.yul\":251:363   */\n      iszero\n      tag_106\n      jumpi\n        /* \"#utility.yul\":282:361   */\n      tag_107\n      tag_108\n      jump\t// in\n    tag_107:\n        /* \"#utility.yul\":251:363   */\n    tag_106:\n        /* \"#utility.yul\":372:413   */\n      tag_109\n        /* \"#utility.yul\":406:412   */\n      dup5\n        /* \"#utility.yul\":401:404   */\n      dup3\n        /* \"#utility.yul\":396:399   */\n      dup6\n        /* \"#utility.yul\":372:413   */\n      tag_110\n      jump\t// in\n    tag_109:\n        /* \"#utility.yul\":91:419   */\n      pop\n        /* \"#utility.yul\":7:419   */\n      swap4\n      swap3\n      pop\n      pop\n      pop\n      jump\t// out\n        /* \"#utility.yul\":425:564   */\n    tag_111:\n        /* \"#utility.yul\":471:476   */\n      0x00\n        /* \"#utility.yul\":509:515   */\n      dup2\n        /* \"#utility.yul\":496:516   */\n      calldataload\n        /* \"#utility.yul\":487:516   */\n      swap1\n      pop\n        /* \"#utility.yul\":525:558   */\n      tag_113\n        /* \"#utility.yul\":552:557   */\n      dup2\n        /* \"#utility.yul\":525:558   */\n      tag_114\n      jump\t// in\n    tag_113:\n        /* \"#utility.yul\":425:564   */\n      swap3\n      swap2\n      pop\n      pop\n      jump\t// out\n        /* \"#utility.yul\":570:725   */\n    tag_115:\n        /* \"#utility.yul\":624:629   */\n      0x00\n        /* \"#utility.yul\":662:668   */\n      dup2\n        /* \"#utility.yul\":649:669   */\n      calldataload\n        /* \"#utility.yul\":640:669   */\n      swap1\n      pop\n        /* \"#utility.yul\":678:719   */\n      tag_117\n        /* \"#utility.yul\":713:718   */\n      dup2\n        /* \"#utility.yul\":678:719   */\n      tag_118\n      jump\t// in\n    tag_117:\n        /* \"#utility.yul\":570:725   */\n      swap3\n      swap2\n      pop\n      pop\n      jump\t// out\n        /* \"#utility.yul\":731:890   */\n    tag_119:\n        /* \"#utility.yul\":796:801   */\n      0x00\n        /* \"#utility.yul\":827:833   */\n      dup2\n        /* \"#utility.yul\":821:834   */\n      mload\n        /* \"#utility.yul\":812:834   */\n      swap1\n      pop\n        /* \"#utility.yul\":843:884   */\n      tag_121\n        /* \"#utility.yul\":878:883   */\n      dup2\n        /* \"#utility.yul\":843:884   */\n      tag_118\n      jump\t// in\n    tag_121:\n        /* \"#utility.yul\":731:890   */\n      swap3\n      swap2\n      pop\n      pop\n      jump\t// out\n        /* \"#utility.yul\":896:1033   */\n    tag_122:\n        /* \"#utility.yul\":950:955   */\n      0x00\n        /* \"#utility.yul\":981:987   */\n      dup2\n        /* \"#utility.yul\":975:988   */\n      mload\n        /* \"#utility.yul\":966:988   */\n      swap1\n      pop\n        /* \"#utility.yul\":997:1027   */\n      tag_124\n        /* \"#utility.yul\":1021:1026   */\n      dup2\n        /* \"#utility.yul\":997:1027   */\n      tag_125\n      jump\t// in\n    tag_124:\n        /* \"#utility.yul\":896:1033   */\n      swap3\n      swap2\n      pop\n      pop\n      jump\t// out\n        /* \"#utility.yul\":1053:1393   */\n    tag_126:\n        /* \"#utility.yul\":1109:1114   */\n      0x00\n        /* \"#utility.yul\":1158:1161   */\n      dup3\n        /* \"#utility.yul\":1151:1155   */\n      0x1f\n        /* \"#utility.yul\":1143:1149   */\n      dup4\n        /* \"#utility.yul\":1139:1156   */\n      add\n        /* \"#utility.yul\":1135:1162   */\n      slt\n        /* \"#utility.yul\":1125:1247   */\n      tag_128\n      jumpi\n        /* \"#utility.yul\":1166:1245   */\n      tag_129\n      tag_130\n      jump\t// in\n    tag_129:\n        /* \"#utility.yul\":1125:1247   */\n    tag_128:\n        /* \"#utility.yul\":1283:1289   */\n      dup2\n        /* \"#utility.yul\":1270:1290   */\n      calldataload\n        /* \"#utility.yul\":1308:1387   */\n      tag_131\n        /* \"#utility.yul\":1383:1386   */\n      dup5\n        /* \"#utility.yul\":1375:1381   */\n      dup3\n        /* \"#utility.yul\":1368:1372   */\n      0x20\n        /* \"#utility.yul\":1360:1366   */\n      dup7\n        /* \"#utility.yul\":1356:1373   */\n      add\n        /* \"#utility.yul\":1308:1387   */\n      tag_100\n      jump\t// in\n    tag_131:\n        /* \"#utility.yul\":1299:1387   */\n      swap2\n      pop\n        /* \"#utility.yul\":1115:1393   */\n      pop\n        /* \"#utility.yul\":1053:1393   */\n      swap3\n      swap2\n      pop\n      pop\n      jump\t// out\n        /* \"#utility.yul\":1399:1538   */\n    tag_132:\n        /* \"#utility.yul\":1445:1450   */\n      0x00\n        /* \"#utility.yul\":1483:1489   */\n      dup2\n        /* \"#utility.yul\":1470:1490   */\n      calldataload\n        /* \"#utility.yul\":1461:1490   */\n      swap1\n      pop\n        /* \"#utility.yul\":1499:1532   */\n      tag_134\n        /* \"#utility.yul\":1526:1531   */\n      dup2\n        /* \"#utility.yul\":1499:1532   */\n      tag_135\n      jump\t// in\n    tag_134:\n        /* \"#utility.yul\":1399:1538   */\n      swap3\n      swap2\n      pop\n      pop\n      jump\t// out\n        /* \"#utility.yul\":1544:1873   */\n    tag_37:\n        /* \"#utility.yul\":1603:1609   */\n      0x00\n        /* \"#utility.yul\":1652:1654   */\n      0x20\n        /* \"#utility.yul\":1640:1649   */\n      dup3\n        /* \"#utility.yul\":1631:1638   */\n      dup5\n        /* \"#utility.yul\":1627:1650   */\n      sub\n        /* \"#utility.yul\":1623:1655   */\n      slt\n        /* \"#utility.yul\":1620:1739   */\n      iszero\n      tag_137\n      jumpi\n        /* \"#utility.yul\":1658:1737   */\n      tag_138\n      tag_139\n      jump\t// in\n    tag_138:\n        /* \"#utility.yul\":1620:1739   */\n    tag_137:\n        /* \"#utility.yul\":1778:1779   */\n      0x00\n        /* \"#utility.yul\":1803:1856   */\n      tag_140\n        /* \"#utility.yul\":1848:1855   */\n      dup5\n        /* \"#utility.yul\":1839:1845   */\n      dup3\n        /* \"#utility.yul\":1828:1837   */\n      dup6\n        /* \"#utility.yul\":1824:1846   */\n      add\n        /* \"#utility.yul\":1803:1856   */\n      tag_111\n      jump\t// in\n    tag_140:\n        /* \"#utility.yul\":1793:1856   */\n      swap2\n      pop\n        /* \"#utility.yul\":1749:1866   */\n      pop\n        /* \"#utility.yul\":1544:1873   */\n      swap3\n      swap2\n      pop\n      pop\n      jump\t// out\n        /* \"#utility.yul\":1879:2224   */\n    tag_16:\n        /* \"#utility.yul\":1946:1952   */\n      0x00\n        /* \"#utility.yul\":1995:1997   */\n      0x20\n        /* \"#utility.yul\":1983:1992   */\n      dup3\n        /* \"#utility.yul\":1974:1981   */\n      dup5\n        /* \"#utility.yul\":1970:1993   */\n      sub\n        /* \"#utility.yul\":1966:1998   */\n      slt\n        /* \"#utility.yul\":1963:2082   */\n      iszero\n      tag_142\n      jumpi\n        /* \"#utility.yul\":2001:2080   */\n      tag_143\n      tag_139\n      jump\t// in\n    tag_143:\n        /* \"#utility.yul\":1963:2082   */\n    tag_142:\n        /* \"#utility.yul\":2121:2122   */\n      0x00\n        /* \"#utility.yul\":2146:2207   */\n      tag_144\n        /* \"#utility.yul\":2199:2206   */\n      dup5\n        /* \"#utility.yul\":2190:2196   */\n      dup3\n        /* \"#utility.yul\":2179:2188   */\n      dup6\n        /* \"#utility.yul\":2175:2197   */\n      add\n        /* \"#utility.yul\":2146:2207   */\n      tag_115\n      jump\t// in\n    tag_144:\n        /* \"#utility.yul\":2136:2207   */\n      swap2\n      pop\n        /* \"#utility.yul\":2092:2217   */\n      pop\n        /* \"#utility.yul\":1879:2224   */\n      swap3\n      swap2\n      pop\n      pop\n      jump\t// out\n        /* \"#utility.yul\":2230:2597   */\n    tag_57:\n        /* \"#utility.yul\":2308:2314   */\n      0x00\n        /* \"#utility.yul\":2357:2359   */\n      0x20\n        /* \"#utility.yul\":2345:2354   */\n      dup3\n        /* \"#utility.yul\":2336:2343   */\n      dup5\n        /* \"#utility.yul\":2332:2355   */\n      sub\n        /* \"#utility.yul\":2328:2360   */\n      slt\n        /* \"#utility.yul\":2325:2444   */\n      iszero\n      tag_146\n      jumpi\n        /* \"#utility.yul\":2363:2442   */\n      tag_147\n      tag_139\n      jump\t// in\n    tag_147:\n        /* \"#utility.yul\":2325:2444   */\n    tag_146:\n        /* \"#utility.yul\":2483:2484   */\n      0x00\n        /* \"#utility.yul\":2508:2580   */\n      tag_148\n        /* \"#utility.yul\":2572:2579   */\n      dup5\n        /* \"#utility.yul\":2563:2569   */\n      dup3\n        /* \"#utility.yul\":2552:2561   */\n      dup6\n        /* \"#utility.yul\":2548:2570   */\n      add\n        /* \"#utility.yul\":2508:2580   */\n      tag_119\n      jump\t// in\n    tag_148:\n        /* \"#utility.yul\":2498:2580   */\n      swap2\n      pop\n        /* \"#utility.yul\":2454:2590   */\n      pop\n        /* \"#utility.yul\":2230:2597   */\n      swap3\n      swap2\n      pop\n      pop\n      jump\t// out\n        /* \"#utility.yul\":2603:3077   */\n    tag_30:\n        /* \"#utility.yul\":2671:2677   */\n      0x00\n        /* \"#utility.yul\":2679:2685   */\n      dup1\n        /* \"#utility.yul\":2728:2730   */\n      0x40\n        /* \"#utility.yul\":2716:2725   */\n      dup4\n        /* \"#utility.yul\":2707:2714   */\n      dup6\n        /* \"#utility.yul\":2703:2726   */\n      sub\n        /* \"#utility.yul\":2699:2731   */\n      slt\n        /* \"#utility.yul\":2696:2815   */\n      iszero\n      tag_150\n      jumpi\n        /* \"#utility.yul\":2734:2813   */\n      tag_151\n      tag_139\n      jump\t// in\n    tag_151:\n        /* \"#utility.yul\":2696:2815   */\n    tag_150:\n        /* \"#utility.yul\":2854:2855   */\n      0x00\n        /* \"#utility.yul\":2879:2932   */\n      tag_152\n        /* \"#utility.yul\":2924:2931   */\n      dup6\n        /* \"#utility.yul\":2915:2921   */\n      dup3\n        /* \"#utility.yul\":2904:2913   */\n      dup7\n        /* \"#utility.yul\":2900:2922   */\n      add\n        /* \"#utility.yul\":2879:2932   */\n      tag_111\n      jump\t// in\n    tag_152:\n        /* \"#utility.yul\":2869:2932   */\n      swap3\n      pop\n        /* \"#utility.yul\":2825:2942   */\n      pop\n        /* \"#utility.yul\":2981:2983   */\n      0x20\n        /* \"#utility.yul\":3007:3060   */\n      tag_153\n        /* \"#utility.yul\":3052:3059   */\n      dup6\n        /* \"#utility.yul\":3043:3049   */\n      dup3\n        /* \"#utility.yul\":3032:3041   */\n      dup7\n        /* \"#utility.yul\":3028:3050   */\n      add\n        /* \"#utility.yul\":3007:3060   */\n      tag_132\n      jump\t// in\n    tag_153:\n        /* \"#utility.yul\":2997:3060   */\n      swap2\n      pop\n        /* \"#utility.yul\":2952:3070   */\n      pop\n        /* \"#utility.yul\":2603:3077   */\n      swap3\n      pop\n      swap3\n      swap1\n      pop\n      jump\t// out\n        /* \"#utility.yul\":3083:3428   */\n    tag_64:\n        /* \"#utility.yul\":3150:3156   */\n      0x00\n        /* \"#utility.yul\":3199:3201   */\n      0x20\n        /* \"#utility.yul\":3187:3196   */\n      dup3\n        /* \"#utility.yul\":3178:3185   */\n      dup5\n        /* \"#utility.yul\":3174:3197   */\n      sub\n        /* \"#utility.yul\":3170:3202   */\n      slt\n        /* \"#utility.yul\":3167:3286   */\n      iszero\n      tag_155\n      jumpi\n        /* \"#utility.yul\":3205:3284   */\n      tag_156\n      tag_139\n      jump\t// in\n    tag_156:\n        /* \"#utility.yul\":3167:3286   */\n    tag_155:\n        /* \"#utility.yul\":3325:3326   */\n      0x00\n        /* \"#utility.yul\":3350:3411   */\n      tag_157\n        /* \"#utility.yul\":3403:3410   */\n      dup5\n        /* \"#utility.yul\":3394:3400   */\n      dup3\n        /* \"#utility.yul\":3383:3392   */\n      dup6\n        /* \"#utility.yul\":3379:3401   */\n      add\n        /* \"#utility.yul\":3350:3411   */\n      tag_122\n      jump\t// in\n    tag_157:\n        /* \"#utility.yul\":3340:3411   */\n      swap2\n      pop\n        /* \"#utility.yul\":3296:3421   */\n      pop\n        /* \"#utility.yul\":3083:3428   */\n      swap3\n      swap2\n      pop\n      pop\n      jump\t// out\n        /* \"#utility.yul\":3434:4395   */\n    tag_25:\n        /* \"#utility.yul\":3538:3544   */\n      0x00\n        /* \"#utility.yul\":3546:3552   */\n      dup1\n        /* \"#utility.yul\":3554:3560   */\n      0x00\n        /* \"#utility.yul\":3562:3568   */\n      dup1\n        /* \"#utility.yul\":3611:3614   */\n      0x80\n        /* \"#utility.yul\":3599:3608   */\n      dup6\n        /* \"#utility.yul\":3590:3597   */\n      dup8\n        /* \"#utility.yul\":3586:3609   */\n      sub\n        /* \"#utility.yul\":3582:3615   */\n      slt\n        /* \"#utility.yul\":3579:3699   */\n      iszero\n      tag_159\n      jumpi\n        /* \"#utility.yul\":3618:3697   */\n      tag_160\n      tag_139\n      jump\t// in\n    tag_160:\n        /* \"#utility.yul\":3579:3699   */\n    tag_159:\n        /* \"#utility.yul\":3766:3767   */\n      0x00\n        /* \"#utility.yul\":3755:3764   */\n      dup6\n        /* \"#utility.yul\":3751:3768   */\n      add\n        /* \"#utility.yul\":3738:3769   */\n      calldataload\n        /* \"#utility.yul\":3796:3814   */\n      0xffffffffffffffff\n        /* \"#utility.yul\":3788:3794   */\n      dup2\n        /* \"#utility.yul\":3785:3815   */\n      gt\n        /* \"#utility.yul\":3782:3899   */\n      iszero\n      tag_161\n      jumpi\n        /* \"#utility.yul\":3818:3897   */\n      tag_162\n      tag_163\n      jump\t// in\n    tag_162:\n        /* \"#utility.yul\":3782:3899   */\n    tag_161:\n        /* \"#utility.yul\":3923:3986   */\n      tag_164\n        /* \"#utility.yul\":3978:3985   */\n      dup8\n        /* \"#utility.yul\":3969:3975   */\n      dup3\n        /* \"#utility.yul\":3958:3967   */\n      dup9\n        /* \"#utility.yul\":3954:3976   */\n      add\n        /* \"#utility.yul\":3923:3986   */\n      tag_126\n      jump\t// in\n    tag_164:\n        /* \"#utility.yul\":3913:3986   */\n      swap5\n      pop\n        /* \"#utility.yul\":3709:3996   */\n      pop\n        /* \"#utility.yul\":4035:4037   */\n      0x20\n        /* \"#utility.yul\":4061:4122   */\n      tag_165\n        /* \"#utility.yul\":4114:4121   */\n      dup8\n        /* \"#utility.yul\":4105:4111   */\n      dup3\n        /* \"#utility.yul\":4094:4103   */\n      dup9\n        /* \"#utility.yul\":4090:4112   */\n      add\n        /* \"#utility.yul\":4061:4122   */\n      tag_115\n      jump\t// in\n    tag_165:\n        /* \"#utility.yul\":4051:4122   */\n      swap4\n      pop\n        /* \"#utility.yul\":4006:4132   */\n      pop\n        /* \"#utility.yul\":4171:4173   */\n      0x40\n        /* \"#utility.yul\":4197:4250   */\n      tag_166\n        /* \"#utility.yul\":4242:4249   */\n      dup8\n        /* \"#utility.yul\":4233:4239   */\n      dup3\n        /* \"#utility.yul\":4222:4231   */\n      dup9\n        /* \"#utility.yul\":4218:4240   */\n      add\n        /* \"#utility.yul\":4197:4250   */\n      tag_132\n      jump\t// in\n    tag_166:\n        /* \"#utility.yul\":4187:4250   */\n      swap3\n      pop\n        /* \"#utility.yul\":4142:4260   */\n      pop\n        /* \"#utility.yul\":4299:4301   */\n      0x60\n        /* \"#utility.yul\":4325:4378   */\n      tag_167\n        /* \"#utility.yul\":4370:4377   */\n      dup8\n        /* \"#utility.yul\":4361:4367   */\n      dup3\n        /* \"#utility.yul\":4350:4359   */\n      dup9\n        /* \"#utility.yul\":4346:4368   */\n      add\n        /* \"#utility.yul\":4325:4378   */\n      tag_132\n      jump\t// in\n    tag_167:\n        /* \"#utility.yul\":4315:4378   */\n      swap2\n      pop\n        /* \"#utility.yul\":4270:4388   */\n      pop\n        /* \"#utility.yul\":3434:4395   */\n      swap3\n      swap6\n      swap2\n      swap5\n      pop\n      swap3\n      pop\n      jump\t// out\n        /* \"#utility.yul\":4401:4730   */\n    tag_20:\n        /* \"#utility.yul\":4460:4466   */\n      0x00\n        /* \"#utility.yul\":4509:4511   */\n      0x20\n        /* \"#utility.yul\":4497:4506   */\n      dup3\n        /* \"#utility.yul\":4488:4495   */\n      dup5\n        /* \"#utility.yul\":4484:4507   */\n      sub\n        /* \"#utility.yul\":4480:4512   */\n      slt\n        /* \"#utility.yul\":4477:4596   */\n      iszero\n      tag_169\n      jumpi\n        /* \"#utility.yul\":4515:4594   */\n      tag_170\n      tag_139\n      jump\t// in\n    tag_170:\n        /* \"#utility.yul\":4477:4596   */\n    tag_169:\n        /* \"#utility.yul\":4635:4636   */\n      0x00\n        /* \"#utility.yul\":4660:4713   */\n      tag_171\n        /* \"#utility.yul\":4705:4712   */\n      dup5\n        /* \"#utility.yul\":4696:4702   */\n      dup3\n        /* \"#utility.yul\":4685:4694   */\n      dup6\n        /* \"#utility.yul\":4681:4703   */\n      add\n        /* \"#utility.yul\":4660:4713   */\n      tag_132\n      jump\t// in\n    tag_171:\n        /* \"#utility.yul\":4650:4713   */\n      swap2\n      pop\n        /* \"#utility.yul\":4606:4723   */\n      pop\n        /* \"#utility.yul\":4401:4730   */\n      swap3\n      swap2\n      pop\n      pop\n      jump\t// out\n        /* \"#utility.yul\":4736:4883   */\n    tag_172:\n        /* \"#utility.yul\":4831:4876   */\n      tag_174\n        /* \"#utility.yul\":4870:4875   */\n      dup2\n        /* \"#utility.yul\":4831:4876   */\n      tag_175\n      jump\t// in\n    tag_174:\n        /* \"#utility.yul\":4826:4829   */\n      dup3\n        /* \"#utility.yul\":4819:4877   */\n      mstore\n        /* \"#utility.yul\":4736:4883   */\n      pop\n      pop\n      jump\t// out\n        /* \"#utility.yul\":4889:5031   */\n    tag_176:\n        /* \"#utility.yul\":4992:5024   */\n      tag_178\n        /* \"#utility.yul\":5018:5023   */\n      dup2\n        /* \"#utility.yul\":4992:5024   */\n      tag_179\n      jump\t// in\n    tag_178:\n        /* \"#utility.yul\":4987:4990   */\n      dup3\n        /* \"#utility.yul\":4980:5025   */\n      mstore\n        /* \"#utility.yul\":4889:5031   */\n      pop\n      pop\n      jump\t// out\n        /* \"#utility.yul\":5037:5155   */\n    tag_180:\n        /* \"#utility.yul\":5124:5148   */\n      tag_182\n        /* \"#utility.yul\":5142:5147   */\n      dup2\n        /* \"#utility.yul\":5124:5148   */\n      tag_183\n      jump\t// in\n    tag_182:\n        /* \"#utility.yul\":5119:5122   */\n      dup3\n        /* \"#utility.yul\":5112:5149   */\n      mstore\n        /* \"#utility.yul\":5037:5155   */\n      pop\n      pop\n      jump\t// out\n        /* \"#utility.yul\":5161:5344   */\n    tag_184:\n        /* \"#utility.yul\":5274:5337   */\n      tag_186\n        /* \"#utility.yul\":5331:5336   */\n      dup2\n        /* \"#utility.yul\":5274:5337   */\n      tag_187\n      jump\t// in\n    tag_186:\n        /* \"#utility.yul\":5269:5272   */\n      dup3\n        /* \"#utility.yul\":5262:5338   */\n      mstore\n        /* \"#utility.yul\":5161:5344   */\n      pop\n      pop\n      jump\t// out\n        /* \"#utility.yul\":5350:5716   */\n    tag_188:\n        /* \"#utility.yul\":5492:5495   */\n      0x00\n        /* \"#utility.yul\":5513:5580   */\n      tag_190\n        /* \"#utility.yul\":5577:5579   */\n      0x26\n        /* \"#utility.yul\":5572:5575   */\n      dup4\n        /* \"#utility.yul\":5513:5580   */\n      tag_191\n      jump\t// in\n    tag_190:\n        /* \"#utility.yul\":5506:5580   */\n      swap2\n      pop\n        /* \"#utility.yul\":5589:5682   */\n      tag_192\n        /* \"#utility.yul\":5678:5681   */\n      dup3\n        /* \"#utility.yul\":5589:5682   */\n      tag_193\n      jump\t// in\n    tag_192:\n        /* \"#utility.yul\":5707:5709   */\n      0x40\n        /* \"#utility.yul\":5702:5705   */\n      dup3\n        /* \"#utility.yul\":5698:5710   */\n      add\n        /* \"#utility.yul\":5691:5710   */\n      swap1\n      pop\n        /* \"#utility.yul\":5350:5716   */\n      swap2\n      swap1\n      pop\n      jump\t// out\n        /* \"#utility.yul\":5722:6088   */\n    tag_194:\n        /* \"#utility.yul\":5864:5867   */\n      0x00\n        /* \"#utility.yul\":5885:5952   */\n      tag_196\n        /* \"#utility.yul\":5949:5951   */\n      0x0a\n        /* \"#utility.yul\":5944:5947   */\n      dup4\n        /* \"#utility.yul\":5885:5952   */\n      tag_191\n      jump\t// in\n    tag_196:\n        /* \"#utility.yul\":5878:5952   */\n      swap2\n      pop\n        /* \"#utility.yul\":5961:6054   */\n      tag_197\n        /* \"#utility.yul\":6050:6053   */\n      dup3\n        /* \"#utility.yul\":5961:6054   */\n      tag_198\n      jump\t// in\n    tag_197:\n        /* \"#utility.yul\":6079:6081   */\n      0x20\n        /* \"#utility.yul\":6074:6077   */\n      dup3\n        /* \"#utility.yul\":6070:6082   */\n      add\n        /* \"#utility.yul\":6063:6082   */\n      swap1\n      pop\n        /* \"#utility.yul\":5722:6088   */\n      swap2\n      swap1\n      pop\n      jump\t// out\n        /* \"#utility.yul\":6094:6212   */\n    tag_199:\n        /* \"#utility.yul\":6181:6205   */\n      tag_201\n        /* \"#utility.yul\":6199:6204   */\n      dup2\n        /* \"#utility.yul\":6181:6205   */\n      tag_202\n      jump\t// in\n    tag_201:\n        /* \"#utility.yul\":6176:6179   */\n      dup3\n        /* \"#utility.yul\":6169:6206   */\n      mstore\n        /* \"#utility.yul\":6094:6212   */\n      pop\n      pop\n      jump\t// out\n        /* \"#utility.yul\":6218:6440   */\n    tag_51:\n        /* \"#utility.yul\":6311:6315   */\n      0x00\n        /* \"#utility.yul\":6349:6351   */\n      0x20\n        /* \"#utility.yul\":6338:6347   */\n      dup3\n        /* \"#utility.yul\":6334:6352   */\n      add\n        /* \"#utility.yul\":6326:6352   */\n      swap1\n      pop\n        /* \"#utility.yul\":6362:6433   */\n      tag_204\n        /* \"#utility.yul\":6430:6431   */\n      0x00\n        /* \"#utility.yul\":6419:6428   */\n      dup4\n        /* \"#utility.yul\":6415:6432   */\n      add\n        /* \"#utility.yul\":6406:6412   */\n      dup5\n        /* \"#utility.yul\":6362:6433   */\n      tag_180\n      jump\t// in\n    tag_204:\n        /* \"#utility.yul\":6218:6440   */\n      swap3\n      swap2\n      pop\n      pop\n      jump\t// out\n        /* \"#utility.yul\":6446:6810   */\n    tag_33:\n        /* \"#utility.yul\":6583:6587   */\n      0x00\n        /* \"#utility.yul\":6621:6623   */\n      0x40\n        /* \"#utility.yul\":6610:6619   */\n      dup3\n        /* \"#utility.yul\":6606:6624   */\n      add\n        /* \"#utility.yul\":6598:6624   */\n      swap1\n      pop\n        /* \"#utility.yul\":6634:6721   */\n      tag_206\n        /* \"#utility.yul\":6718:6719   */\n      0x00\n        /* \"#utility.yul\":6707:6716   */\n      dup4\n        /* \"#utility.yul\":6703:6720   */\n      add\n        /* \"#utility.yul\":6694:6700   */\n      dup6\n        /* \"#utility.yul\":6634:6721   */\n      tag_176\n      jump\t// in\n    tag_206:\n        /* \"#utility.yul\":6731:6803   */\n      tag_207\n        /* \"#utility.yul\":6799:6801   */\n      0x20\n        /* \"#utility.yul\":6788:6797   */\n      dup4\n        /* \"#utility.yul\":6784:6802   */\n      add\n        /* \"#utility.yul\":6775:6781   */\n      dup5\n        /* \"#utility.yul\":6731:6803   */\n      tag_199\n      jump\t// in\n    tag_207:\n        /* \"#utility.yul\":6446:6810   */\n      swap4\n      swap3\n      pop\n      pop\n      pop\n      jump\t// out\n        /* \"#utility.yul\":6816:7274   */\n    tag_59:\n        /* \"#utility.yul\":6973:6977   */\n      0x00\n        /* \"#utility.yul\":7011:7013   */\n      0x60\n        /* \"#utility.yul\":7000:7009   */\n      dup3\n        /* \"#utility.yul\":6996:7014   */\n      add\n        /* \"#utility.yul\":6988:7014   */\n      swap1\n      pop\n        /* \"#utility.yul\":7024:7095   */\n      tag_209\n        /* \"#utility.yul\":7092:7093   */\n      0x00\n        /* \"#utility.yul\":7081:7090   */\n      dup4\n        /* \"#utility.yul\":7077:7094   */\n      add\n        /* \"#utility.yul\":7068:7074   */\n      dup7\n        /* \"#utility.yul\":7024:7095   */\n      tag_180\n      jump\t// in\n    tag_209:\n        /* \"#utility.yul\":7105:7185   */\n      tag_210\n        /* \"#utility.yul\":7181:7183   */\n      0x20\n        /* \"#utility.yul\":7170:7179   */\n      dup4\n        /* \"#utility.yul\":7166:7184   */\n      add\n        /* \"#utility.yul\":7157:7163   */\n      dup6\n        /* \"#utility.yul\":7105:7185   */\n      tag_172\n      jump\t// in\n    tag_210:\n        /* \"#utility.yul\":7195:7267   */\n      tag_211\n        /* \"#utility.yul\":7263:7265   */\n      0x40\n        /* \"#utility.yul\":7252:7261   */\n      dup4\n        /* \"#utility.yul\":7248:7266   */\n      add\n        /* \"#utility.yul\":7239:7245   */\n      dup5\n        /* \"#utility.yul\":7195:7267   */\n      tag_199\n      jump\t// in\n    tag_211:\n        /* \"#utility.yul\":6816:7274   */\n      swap5\n      swap4\n      pop\n      pop\n      pop\n      pop\n      jump\t// out\n        /* \"#utility.yul\":7280:7554   */\n    tag_68:\n        /* \"#utility.yul\":7399:7403   */\n      0x00\n        /* \"#utility.yul\":7437:7439   */\n      0x20\n        /* \"#utility.yul\":7426:7435   */\n      dup3\n        /* \"#utility.yul\":7422:7440   */\n      add\n        /* \"#utility.yul\":7414:7440   */\n      swap1\n      pop\n        /* \"#utility.yul\":7450:7547   */\n      tag_213\n        /* \"#utility.yul\":7544:7545   */\n      0x00\n        /* \"#utility.yul\":7533:7542   */\n      dup4\n        /* \"#utility.yul\":7529:7546   */\n      add\n        /* \"#utility.yul\":7520:7526   */\n      dup5\n        /* \"#utility.yul\":7450:7547   */\n      tag_184\n      jump\t// in\n    tag_213:\n        /* \"#utility.yul\":7280:7554   */\n      swap3\n      swap2\n      pop\n      pop\n      jump\t// out\n        /* \"#utility.yul\":7560:7979   */\n    tag_78:\n        /* \"#utility.yul\":7726:7730   */\n      0x00\n        /* \"#utility.yul\":7764:7766   */\n      0x20\n        /* \"#utility.yul\":7753:7762   */\n      dup3\n        /* \"#utility.yul\":7749:7767   */\n      add\n        /* \"#utility.yul\":7741:7767   */\n      swap1\n      pop\n        /* \"#utility.yul\":7813:7822   */\n      dup2\n        /* \"#utility.yul\":7807:7811   */\n      dup2\n        /* \"#utility.yul\":7803:7823   */\n      sub\n        /* \"#utility.yul\":7799:7800   */\n      0x00\n        /* \"#utility.yul\":7788:7797   */\n      dup4\n        /* \"#utility.yul\":7784:7801   */\n      add\n        /* \"#utility.yul\":7777:7824   */\n      mstore\n        /* \"#utility.yul\":7841:7972   */\n      tag_215\n        /* \"#utility.yul\":7967:7971   */\n      dup2\n        /* \"#utility.yul\":7841:7972   */\n      tag_188\n      jump\t// in\n    tag_215:\n        /* \"#utility.yul\":7833:7972   */\n      swap1\n      pop\n        /* \"#utility.yul\":7560:7979   */\n      swap2\n      swap1\n      pop\n      jump\t// out\n        /* \"#utility.yul\":7985:8404   */\n    tag_84:\n        /* \"#utility.yul\":8151:8155   */\n      0x00\n        /* \"#utility.yul\":8189:8191   */\n      0x20\n        /* \"#utility.yul\":8178:8187   */\n      dup3\n        /* \"#utility.yul\":8174:8192   */\n      add\n        /* \"#utility.yul\":8166:8192   */\n      swap1\n      pop\n        /* \"#utility.yul\":8238:8247   */\n      dup2\n        /* \"#utility.yul\":8232:8236   */\n      dup2\n        /* \"#utility.yul\":8228:8248   */\n      sub\n        /* \"#utility.yul\":8224:8225   */\n      0x00\n        /* \"#utility.yul\":8213:8222   */\n      dup4\n        /* \"#utility.yul\":8209:8226   */\n      add\n        /* \"#utility.yul\":8202:8249   */\n      mstore\n        /* \"#utility.yul\":8266:8397   */\n      tag_217\n        /* \"#utility.yul\":8392:8396   */\n      dup2\n        /* \"#utility.yul\":8266:8397   */\n      tag_194\n      jump\t// in\n    tag_217:\n        /* \"#utility.yul\":8258:8397   */\n      swap1\n      pop\n        /* \"#utility.yul\":7985:8404   */\n      swap2\n      swap1\n      pop\n      jump\t// out\n        /* \"#utility.yul\":8410:8539   */\n    tag_105:\n        /* \"#utility.yul\":8444:8450   */\n      0x00\n        /* \"#utility.yul\":8471:8491   */\n      tag_219\n      tag_220\n      jump\t// in\n    tag_219:\n        /* \"#utility.yul\":8461:8491   */\n      swap1\n      pop\n        /* \"#utility.yul\":8500:8533   */\n      tag_221\n        /* \"#utility.yul\":8528:8532   */\n      dup3\n        /* \"#utility.yul\":8520:8526   */\n      dup3\n        /* \"#utility.yul\":8500:8533   */\n      tag_222\n      jump\t// in\n    tag_221:\n        /* \"#utility.yul\":8410:8539   */\n      swap2\n      swap1\n      pop\n      jump\t// out\n        /* \"#utility.yul\":8545:8620   */\n    tag_220:\n        /* \"#utility.yul\":8578:8584   */\n      0x00\n        /* \"#utility.yul\":8611:8613   */\n      0x40\n        /* \"#utility.yul\":8605:8614   */\n      mload\n        /* \"#utility.yul\":8595:8614   */\n      swap1\n      pop\n        /* \"#utility.yul\":8545:8620   */\n      swap1\n      jump\t// out\n        /* \"#utility.yul\":8626:8934   */\n    tag_104:\n        /* \"#utility.yul\":8688:8692   */\n      0x00\n        /* \"#utility.yul\":8778:8796   */\n      0xffffffffffffffff\n        /* \"#utility.yul\":8770:8776   */\n      dup3\n        /* \"#utility.yul\":8767:8797   */\n      gt\n        /* \"#utility.yul\":8764:8820   */\n      iszero\n      tag_225\n      jumpi\n        /* \"#utility.yul\":8800:8818   */\n      tag_226\n      tag_227\n      jump\t// in\n    tag_226:\n        /* \"#utility.yul\":8764:8820   */\n    tag_225:\n        /* \"#utility.yul\":8838:8867   */\n      tag_228\n        /* \"#utility.yul\":8860:8866   */\n      dup3\n        /* \"#utility.yul\":8838:8867   */\n      tag_229\n      jump\t// in\n    tag_228:\n        /* \"#utility.yul\":8830:8867   */\n      swap1\n      pop\n        /* \"#utility.yul\":8922:8926   */\n      0x20\n        /* \"#utility.yul\":8916:8920   */\n      dup2\n        /* \"#utility.yul\":8912:8927   */\n      add\n        /* \"#utility.yul\":8904:8927   */\n      swap1\n      pop\n        /* \"#utility.yul\":8626:8934   */\n      swap2\n      swap1\n      pop\n      jump\t// out\n        /* \"#utility.yul\":8940:9109   */\n    tag_191:\n        /* \"#utility.yul\":9024:9035   */\n      0x00\n        /* \"#utility.yul\":9058:9064   */\n      dup3\n        /* \"#utility.yul\":9053:9056   */\n      dup3\n        /* \"#utility.yul\":9046:9065   */\n      mstore\n        /* \"#utility.yul\":9098:9102   */\n      0x20\n        /* \"#utility.yul\":9093:9096   */\n      dup3\n        /* \"#utility.yul\":9089:9103   */\n      add\n        /* \"#utility.yul\":9074:9103   */\n      swap1\n      pop\n        /* \"#utility.yul\":8940:9109   */\n      swap3\n      swap2\n      pop\n      pop\n      jump\t// out\n        /* \"#utility.yul\":9115:9211   */\n    tag_183:\n        /* \"#utility.yul\":9152:9159   */\n      0x00\n        /* \"#utility.yul\":9181:9205   */\n      tag_232\n        /* \"#utility.yul\":9199:9204   */\n      dup3\n        /* \"#utility.yul\":9181:9205   */\n      tag_233\n      jump\t// in\n    tag_232:\n        /* \"#utility.yul\":9170:9205   */\n      swap1\n      pop\n        /* \"#utility.yul\":9115:9211   */\n      swap2\n      swap1\n      pop\n      jump\t// out\n        /* \"#utility.yul\":9217:9321   */\n    tag_179:\n        /* \"#utility.yul\":9262:9269   */\n      0x00\n        /* \"#utility.yul\":9291:9315   */\n      tag_235\n        /* \"#utility.yul\":9309:9314   */\n      dup3\n        /* \"#utility.yul\":9291:9315   */\n      tag_233\n      jump\t// in\n    tag_235:\n        /* \"#utility.yul\":9280:9315   */\n      swap1\n      pop\n        /* \"#utility.yul\":9217:9321   */\n      swap2\n      swap1\n      pop\n      jump\t// out\n        /* \"#utility.yul\":9327:9417   */\n    tag_236:\n        /* \"#utility.yul\":9361:9368   */\n      0x00\n        /* \"#utility.yul\":9404:9409   */\n      dup2\n        /* \"#utility.yul\":9397:9410   */\n      iszero\n        /* \"#utility.yul\":9390:9411   */\n      iszero\n        /* \"#utility.yul\":9379:9411   */\n      swap1\n      pop\n        /* \"#utility.yul\":9327:9417   */\n      swap2\n      swap1\n      pop\n      jump\t// out\n        /* \"#utility.yul\":9423:9549   */\n    tag_233:\n        /* \"#utility.yul\":9460:9467   */\n      0x00\n        /* \"#utility.yul\":9500:9542   */\n      0xffffffffffffffffffffffffffffffffffffffff\n        /* \"#utility.yul\":9493:9498   */\n      dup3\n        /* \"#utility.yul\":9489:9543   */\n      and\n        /* \"#utility.yul\":9478:9543   */\n      swap1\n      pop\n        /* \"#utility.yul\":9423:9549   */\n      swap2\n      swap1\n      pop\n      jump\t// out\n        /* \"#utility.yul\":9555:9632   */\n    tag_202:\n        /* \"#utility.yul\":9592:9599   */\n      0x00\n        /* \"#utility.yul\":9621:9626   */\n      dup2\n        /* \"#utility.yul\":9610:9626   */\n      swap1\n      pop\n        /* \"#utility.yul\":9555:9632   */\n      swap2\n      swap1\n      pop\n      jump\t// out\n        /* \"#utility.yul\":9638:9772   */\n    tag_175:\n        /* \"#utility.yul\":9696:9705   */\n      0x00\n        /* \"#utility.yul\":9729:9766   */\n      tag_241\n        /* \"#utility.yul\":9760:9765   */\n      dup3\n        /* \"#utility.yul\":9729:9766   */\n      tag_242\n      jump\t// in\n    tag_241:\n        /* \"#utility.yul\":9716:9766   */\n      swap1\n      pop\n        /* \"#utility.yul\":9638:9772   */\n      swap2\n      swap1\n      pop\n      jump\t// out\n        /* \"#utility.yul\":9778:9938   */\n    tag_187:\n        /* \"#utility.yul\":9854:9863   */\n      0x00\n        /* \"#utility.yul\":9887:9932   */\n      tag_244\n        /* \"#utility.yul\":9926:9931   */\n      dup3\n        /* \"#utility.yul\":9887:9932   */\n      tag_245\n      jump\t// in\n    tag_244:\n        /* \"#utility.yul\":9874:9932   */\n      swap1\n      pop\n        /* \"#utility.yul\":9778:9938   */\n      swap2\n      swap1\n      pop\n      jump\t// out\n        /* \"#utility.yul\":9944:10070   */\n    tag_242:\n        /* \"#utility.yul\":9994:10003   */\n      0x00\n        /* \"#utility.yul\":10027:10064   */\n      tag_247\n        /* \"#utility.yul\":10058:10063   */\n      dup3\n        /* \"#utility.yul\":10027:10064   */\n      tag_248\n      jump\t// in\n    tag_247:\n        /* \"#utility.yul\":10014:10064   */\n      swap1\n      pop\n        /* \"#utility.yul\":9944:10070   */\n      swap2\n      swap1\n      pop\n      jump\t// out\n        /* \"#utility.yul\":10076:10210   */\n    tag_245:\n        /* \"#utility.yul\":10134:10143   */\n      0x00\n        /* \"#utility.yul\":10167:10204   */\n      tag_250\n        /* \"#utility.yul\":10198:10203   */\n      dup3\n        /* \"#utility.yul\":10167:10204   */\n      tag_248\n      jump\t// in\n    tag_250:\n        /* \"#utility.yul\":10154:10204   */\n      swap1\n      pop\n        /* \"#utility.yul\":10076:10210   */\n      swap2\n      swap1\n      pop\n      jump\t// out\n        /* \"#utility.yul\":10216:10329   */\n    tag_248:\n        /* \"#utility.yul\":10266:10275   */\n      0x00\n        /* \"#utility.yul\":10299:10323   */\n      tag_252\n        /* \"#utility.yul\":10317:10322   */\n      dup3\n        /* \"#utility.yul\":10299:10323   */\n      tag_233\n      jump\t// in\n    tag_252:\n        /* \"#utility.yul\":10286:10323   */\n      swap1\n      pop\n        /* \"#utility.yul\":10216:10329   */\n      swap2\n      swap1\n      pop\n      jump\t// out\n        /* \"#utility.yul\":10335:10489   */\n    tag_110:\n        /* \"#utility.yul\":10419:10425   */\n      dup3\n        /* \"#utility.yul\":10414:10417   */\n      dup2\n        /* \"#utility.yul\":10409:10412   */\n      dup4\n        /* \"#utility.yul\":10396:10426   */\n      calldatacopy\n        /* \"#utility.yul\":10481:10482   */\n      0x00\n        /* \"#utility.yul\":10472:10478   */\n      dup4\n        /* \"#utility.yul\":10467:10470   */\n      dup4\n        /* \"#utility.yul\":10463:10479   */\n      add\n        /* \"#utility.yul\":10456:10483   */\n      mstore\n        /* \"#utility.yul\":10335:10489   */\n      pop\n      pop\n      pop\n      jump\t// out\n        /* \"#utility.yul\":10495:10776   */\n    tag_222:\n        /* \"#utility.yul\":10578:10605   */\n      tag_255\n        /* \"#utility.yul\":10600:10604   */\n      dup3\n        /* \"#utility.yul\":10578:10605   */\n      tag_229\n      jump\t// in\n    tag_255:\n        /* \"#utility.yul\":10570:10576   */\n      dup2\n        /* \"#utility.yul\":10566:10606   */\n      add\n        /* \"#utility.yul\":10708:10714   */\n      dup2\n        /* \"#utility.yul\":10696:10706   */\n      dup2\n        /* \"#utility.yul\":10693:10715   */\n      lt\n        /* \"#utility.yul\":10672:10690   */\n      0xffffffffffffffff\n        /* \"#utility.yul\":10660:10670   */\n      dup3\n        /* \"#utility.yul\":10657:10691   */\n      gt\n        /* \"#utility.yul\":10654:10716   */\n      or\n        /* \"#utility.yul\":10651:10739   */\n      iszero\n      tag_256\n      jumpi\n        /* \"#utility.yul\":10719:10737   */\n      tag_257\n      tag_227\n      jump\t// in\n    tag_257:\n        /* \"#utility.yul\":10651:10739   */\n    tag_256:\n        /* \"#utility.yul\":10759:10769   */\n      dup1\n        /* \"#utility.yul\":10755:10757   */\n      0x40\n        /* \"#utility.yul\":10748:10770   */\n      mstore\n        /* \"#utility.yul\":10538:10776   */\n      pop\n        /* \"#utility.yul\":10495:10776   */\n      pop\n      pop\n      jump\t// out\n        /* \"#utility.yul\":10782:11015   */\n    tag_97:\n        /* \"#utility.yul\":10821:10824   */\n      0x00\n        /* \"#utility.yul\":10844:10868   */\n      tag_259\n        /* \"#utility.yul\":10862:10867   */\n      dup3\n        /* \"#utility.yul\":10844:10868   */\n      tag_202\n      jump\t// in\n    tag_259:\n        /* \"#utility.yul\":10835:10868   */\n      swap2\n      pop\n        /* \"#utility.yul\":10890:10956   */\n      0xffffffffffffffffffffffffffffffffffffffffffffffffffffffffffffffff\n        /* \"#utility.yul\":10883:10888   */\n      dup3\n        /* \"#utility.yul\":10880:10957   */\n      eq\n        /* \"#utility.yul\":10877:10980   */\n      iszero\n      tag_260\n      jumpi\n        /* \"#utility.yul\":10960:10978   */\n      tag_261\n      tag_262\n      jump\t// in\n    tag_261:\n        /* \"#utility.yul\":10877:10980   */\n    tag_260:\n        /* \"#utility.yul\":11007:11008   */\n      0x01\n        /* \"#utility.yul\":11000:11005   */\n      dup3\n        /* \"#utility.yul\":10996:11009   */\n      add\n        /* \"#utility.yul\":10989:11009   */\n      swap1\n      pop\n        /* \"#utility.yul\":10782:11015   */\n      swap2\n      swap1\n      pop\n      jump\t// out\n        /* \"#utility.yul\":11021:11201   */\n    tag_45:\n        /* \"#utility.yul\":11069:11146   */\n      0x4e487b7100000000000000000000000000000000000000000000000000000000\n        /* \"#utility.yul\":11066:11067   */\n      0x00\n        /* \"#utility.yul\":11059:11147   */\n      mstore\n        /* \"#utility.yul\":11166:11170   */\n      0x01\n        /* \"#utility.yul\":11163:11164   */\n      0x04\n        /* \"#utility.yul\":11156:11171   */\n      mstore\n        /* \"#utility.yul\":11190:11194   */\n      0x24\n        /* \"#utility.yul\":11187:11188   */\n      0x00\n        /* \"#utility.yul\":11180:11195   */\n      revert\n        /* \"#utility.yul\":11207:11387   */\n    tag_262:\n        /* \"#utility.yul\":11255:11332   */\n      0x4e487b7100000000000000000000000000000000000000000000000000000000\n        /* \"#utility.yul\":11252:11253   */\n      0x00\n        /* \"#utility.yul\":11245:11333   */\n      mstore\n        /* \"#utility.yul\":11352:11356   */\n      0x11\n        /* \"#utility.yul\":11349:11350   */\n      0x04\n        /* \"#utility.yul\":11342:11357   */\n      mstore\n        /* \"#utility.yul\":11376:11380   */\n      0x24\n        /* \"#utility.yul\":11373:11374   */\n      0x00\n        /* \"#utility.yul\":11366:11381   */\n      revert\n        /* \"#utility.yul\":11393:11573   */\n    tag_90:\n        /* \"#utility.yul\":11441:11518   */\n      0x4e487b7100000000000000000000000000000000000000000000000000000000\n        /* \"#utility.yul\":11438:11439   */\n      0x00\n        /* \"#utility.yul\":11431:11519   */\n      mstore\n        /* \"#utility.yul\":11538:11542   */\n      0x32\n        /* \"#utility.yul\":11535:11536   */\n      0x04\n        /* \"#utility.yul\":11528:11543   */\n      mstore\n        /* \"#utility.yul\":11562:11566   */\n      0x24\n        /* \"#utility.yul\":11559:11560   */\n      0x00\n        /* \"#utility.yul\":11552:11567   */\n      revert\n        /* \"#utility.yul\":11579:11759   */\n    tag_227:\n        /* \"#utility.yul\":11627:11704   */\n      0x4e487b7100000000000000000000000000000000000000000000000000000000\n        /* \"#utility.yul\":11624:11625   */\n      0x00\n        /* \"#utility.yul\":11617:11705   */\n      mstore\n        /* \"#utility.yul\":11724:11728   */\n      0x41\n        /* \"#utility.yul\":11721:11722   */\n      0x04\n        /* \"#utility.yul\":11714:11729   */\n      mstore\n        /* \"#utility.yul\":11748:11752   */\n      0x24\n        /* \"#utility.yul\":11745:11746   */\n      0x00\n        /* \"#utility.yul\":11738:11753   */\n      revert\n        /* \"#utility.yul\":11765:11882   */\n    tag_130:\n        /* \"#utility.yul\":11874:11875   */\n      0x00\n        /* \"#utility.yul\":11871:11872   */\n      dup1\n        /* \"#utility.yul\":11864:11876   */\n      revert\n        /* \"#utility.yul\":11888:12005   */\n    tag_108:\n        /* \"#utility.yul\":11997:11998   */\n      0x00\n        /* \"#utility.yul\":11994:11995   */\n      dup1\n        /* \"#utility.yul\":11987:11999   */\n      revert\n        /* \"#utility.yul\":12011:12128   */\n    tag_163:\n        /* \"#utility.yul\":12120:12121   */\n      0x00\n        /* \"#utility.yul\":12117:12118   */\n      dup1\n        /* \"#utility.yul\":12110:12122   */\n      revert\n        /* \"#utility.yul\":12134:12251   */\n    tag_139:\n        /* \"#utility.yul\":12243:12244   */\n      0x00\n        /* \"#utility.yul\":12240:12241   */\n      dup1\n        /* \"#utility.yul\":12233:12245   */\n      revert\n        /* \"#utility.yul\":12257:12359   */\n    tag_229:\n        /* \"#utility.yul\":12298:12304   */\n      0x00\n        /* \"#utility.yul\":12349:12351   */\n      0x1f\n        /* \"#utility.yul\":12345:12352   */\n      not\n        /* \"#utility.yul\":12340:12342   */\n      0x1f\n        /* \"#utility.yul\":12333:12338   */\n      dup4\n        /* \"#utility.yul\":12329:12343   */\n      add\n        /* \"#utility.yul\":12325:12353   */\n      and\n        /* \"#utility.yul\":12315:12353   */\n      swap1\n      pop\n        /* \"#utility.yul\":12257:12359   */\n      swap2\n      swap1\n      pop\n      jump\t// out\n        /* \"#utility.yul\":12365:12590   */\n    tag_193:\n        /* \"#utility.yul\":12505:12539   */\n      0x4f776e61626c653a206e6577206f776e657220697320746865207a65726f2061\n        /* \"#utility.yul\":12501:12502   */\n      0x00\n        /* \"#utility.yul\":12493:12499   */\n      dup3\n        /* \"#utility.yul\":12489:12503   */\n      add\n        /* \"#utility.yul\":12482:12540   */\n      mstore\n        /* \"#utility.yul\":12574:12582   */\n      0x6464726573730000000000000000000000000000000000000000000000000000\n        /* \"#utility.yul\":12569:12571   */\n      0x20\n        /* \"#utility.yul\":12561:12567   */\n      dup3\n        /* \"#utility.yul\":12557:12572   */\n      add\n        /* \"#utility.yul\":12550:12583   */\n      mstore\n        /* \"#utility.yul\":12365:12590   */\n      pop\n      jump\t// out\n        /* \"#utility.yul\":12596:12756   */\n    tag_198:\n        /* \"#utility.yul\":12736:12748   */\n      0x656d707479206164647200000000000000000000000000000000000000000000\n        /* \"#utility.yul\":12732:12733   */\n      0x00\n        /* \"#utility.yul\":12724:12730   */\n      dup3\n        /* \"#utility.yul\":12720:12734   */\n      add\n        /* \"#utility.yul\":12713:12749   */\n      mstore\n        /* \"#utility.yul\":12596:12756   */\n      pop\n      jump\t// out\n        /* \"#utility.yul\":12762:12884   */\n    tag_114:\n        /* \"#utility.yul\":12835:12859   */\n      tag_275\n        /* \"#utility.yul\":12853:12858   */\n      dup2\n        /* \"#utility.yul\":12835:12859   */\n      tag_183\n      jump\t// in\n    tag_275:\n        /* \"#utility.yul\":12828:12833   */\n      dup2\n        /* \"#utility.yul\":12825:12860   */\n      eq\n        /* \"#utility.yul\":12815:12878   */\n      tag_276\n      jumpi\n        /* \"#utility.yul\":12874:12875   */\n      0x00\n        /* \"#utility.yul\":12871:12872   */\n      dup1\n        /* \"#utility.yul\":12864:12876   */\n      revert\n        /* \"#utility.yul\":12815:12878   */\n    tag_276:\n        /* \"#utility.yul\":12762:12884   */\n      pop\n      jump\t// out\n        /* \"#utility.yul\":12890:13028   */\n    tag_118:\n        /* \"#utility.yul\":12971:13003   */\n      tag_278\n        /* \"#utility.yul\":12997:13002   */\n      dup2\n        /* \"#utility.yul\":12971:13003   */\n      tag_179\n      jump\t// in\n    tag_278:\n        /* \"#utility.yul\":12964:12969   */\n      dup2\n        /* \"#utility.yul\":12961:13004   */\n      eq\n        /* \"#utility.yul\":12951:13022   */\n      tag_279\n      jumpi\n        /* \"#utility.yul\":13018:13019   */\n      0x00\n        /* \"#utility.yul\":13015:13016   */\n      dup1\n        /* \"#utility.yul\":13008:13020   */\n      revert\n        /* \"#utility.yul\":12951:13022   */\n    tag_279:\n        /* \"#utility.yul\":12890:13028   */\n      pop\n      jump\t// out\n        /* \"#utility.yul\":13034:13150   */\n    tag_125:\n        /* \"#utility.yul\":13104:13125   */\n      tag_281\n        /* \"#utility.yul\":13119:13124   */\n      dup2\n        /* \"#utility.yul\":13104:13125   */\n      tag_236\n      jump\t// in\n    tag_281:\n        /* \"#utility.yul\":13097:13102   */\n      dup2\n        /* \"#utility.yul\":13094:13126   */\n      eq\n        /* \"#utility.yul\":13084:13144   */\n      tag_282\n      jumpi\n        /* \"#utility.yul\":13140:13141   */\n      0x00\n        /* \"#utility.yul\":13137:13138   */\n      dup1\n        /* \"#utility.yul\":13130:13142   */\n      revert\n        /* \"#utility.yul\":13084:13144   */\n    tag_282:\n        /* \"#utility.yul\":13034:13150   */\n      pop\n      jump\t// out\n        /* \"#utility.yul\":13156:13278   */\n    tag_135:\n        /* \"#utility.yul\":13229:13253   */\n      tag_284\n        /* \"#utility.yul\":13247:13252   */\n      dup2\n        /* \"#utility.yul\":13229:13253   */\n      tag_202\n      jump\t// in\n    tag_284:\n        /* \"#utility.yul\":13222:13227   */\n      dup2\n        /* \"#utility.yul\":13219:13254   */\n      eq\n        /* \"#utility.yul\":13209:13272   */\n      tag_285\n      jumpi\n        /* \"#utility.yul\":13268:13269   */\n      0x00\n        /* \"#utility.yul\":13265:13266   */\n      dup1\n        /* \"#utility.yul\":13258:13270   */\n      revert\n        /* \"#utility.yul\":13209:13272   */\n    tag_285:\n        /* \"#utility.yul\":13156:13278   */\n      pop\n      jump\t// out\n    stop\n\n    sub_0: assembly {\n            /* \"contracts/Bounty.sol\":1759:3000  contract BountyAddr {... */\n          mstore(0x40, 0x80)\n            /* \"contracts/Bounty.sol\":2088:2161  constructor(address bountyBase) {... */\n          callvalue\n          dup1\n          iszero\n          tag_1\n          jumpi\n          0x00\n          dup1\n          revert\n        tag_1:\n          pop\n          mload(0x40)\n          sub(codesize, bytecodeSize)\n          dup1\n          bytecodeSize\n          dup4\n          codecopy\n          dup2\n          dup2\n          add\n          0x40\n          mstore\n          dup2\n          add\n          swap1\n          tag_2\n          swap2\n          swap1\n          tag_3\n          jump\t// in\n        tag_2:\n            /* \"contracts/Bounty.sol\":2144:2154  bountyBase */\n          dup1\n            /* \"contracts/Bounty.sol\":2130:2141  _bountyBase */\n          0x00\n          dup1\n            /* \"contracts/Bounty.sol\":2130:2154  _bountyBase = bountyBase */\n          0x0100\n          exp\n          dup2\n          sload\n          dup2\n          0xffffffffffffffffffffffffffffffffffffffff\n          mul\n          not\n          and\n          swap1\n          dup4\n          0xffffffffffffffffffffffffffffffffffffffff\n          and\n          mul\n          or\n          swap1\n          sstore\n          pop\n            /* \"contracts/Bounty.sol\":2088:2161  constructor(address bountyBase) {... */\n          pop\n            /* \"contracts/Bounty.sol\":1759:3000  contract BountyAddr {... */\n          jump(tag_6)\n            /* \"#utility.yul\":7:150   */\n        tag_8:\n            /* \"#utility.yul\":64:69   */\n          0x00\n            /* \"#utility.yul\":95:101   */\n          dup2\n            /* \"#utility.yul\":89:102   */\n          mload\n            /* \"#utility.yul\":80:102   */\n          swap1\n          pop\n            /* \"#utility.yul\":111:144   */\n          tag_10\n            /* \"#utility.yul\":138:143   */\n          dup2\n            /* \"#utility.yul\":111:144   */\n          tag_11\n          jump\t// in\n        tag_10:\n            /* \"#utility.yul\":7:150   */\n          swap3\n          swap2\n          pop\n          pop\n          jump\t// out\n            /* \"#utility.yul\":156:507   */\n        tag_3:\n            /* \"#utility.yul\":226:232   */\n          0x00\n            /* \"#utility.yul\":275:277   */\n          0x20\n            /* \"#utility.yul\":263:272   */\n          dup3\n            /* \"#utility.yul\":254:261   */\n          dup5\n            /* \"#utility.yul\":250:273   */\n          sub\n            /* \"#utility.yul\":246:278   */\n          slt\n            /* \"#utility.yul\":243:362   */\n          iszero\n          tag_13\n          jumpi\n            /* \"#utility.yul\":281:360   */\n          tag_14\n          tag_15\n          jump\t// in\n        tag_14:\n            /* \"#utility.yul\":243:362   */\n        tag_13:\n            /* \"#utility.yul\":401:402   */\n          0x00\n            /* \"#utility.yul\":426:490   */\n          tag_16\n            /* \"#utility.yul\":482:489   */\n          dup5\n            /* \"#utility.yul\":473:479   */\n          dup3\n            /* \"#utility.yul\":462:471   */\n          dup6\n            /* \"#utility.yul\":458:480   */\n          add\n            /* \"#utility.yul\":426:490   */\n          tag_8\n          jump\t// in\n        tag_16:\n            /* \"#utility.yul\":416:490   */\n          swap2\n          pop\n            /* \"#utility.yul\":372:500   */\n          pop\n            /* \"#utility.yul\":156:507   */\n          swap3\n          swap2\n          pop\n          pop\n          jump\t// out\n            /* \"#utility.yul\":594:690   */\n        tag_19:\n            /* \"#utility.yul\":631:638   */\n          0x00\n            /* \"#utility.yul\":660:684   */\n          tag_21\n            /* \"#utility.yul\":678:683   */\n          dup3\n            /* \"#utility.yul\":660:684   */\n          tag_22\n          jump\t// in\n        tag_21:\n            /* \"#utility.yul\":649:684   */\n          swap1\n          pop\n            /* \"#utility.yul\":594:690   */\n          swap2\n          swap1\n          pop\n          jump\t// out\n            /* \"#utility.yul\":696:822   */\n        tag_22:\n            /* \"#utility.yul\":733:740   */\n          0x00\n            /* \"#utility.yul\":773:815   */\n          0xffffffffffffffffffffffffffffffffffffffff\n            /* \"#utility.yul\":766:771   */\n          dup3\n            /* \"#utility.yul\":762:816   */\n          and\n            /* \"#utility.yul\":751:816   */\n          swap1\n          pop\n            /* \"#utility.yul\":696:822   */\n          swap2\n          swap1\n          pop\n          jump\t// out\n            /* \"#utility.yul\":951:1068   */\n        tag_15:\n            /* \"#utility.yul\":1060:1061   */\n          0x00\n            /* \"#utility.yul\":1057:1058   */\n          dup1\n            /* \"#utility.yul\":1050:1062   */\n          revert\n            /* \"#utility.yul\":1074:1196   */\n        tag_11:\n            /* \"#utility.yul\":1147:1171   */\n          tag_28\n            /* \"#utility.yul\":1165:1170   */\n          dup2\n            /* \"#utility.yul\":1147:1171   */\n          tag_19\n          jump\t// in\n        tag_28:\n            /* \"#utility.yul\":1140:1145   */\n          dup2\n            /* \"#utility.yul\":1137:1172   */\n          eq\n            /* \"#utility.yul\":1127:1190   */\n          tag_29\n          jumpi\n            /* \"#utility.yul\":1186:1187   */\n          0x00\n            /* \"#utility.yul\":1183:1184   */\n          dup1\n            /* \"#utility.yul\":1176:1188   */\n          revert\n            /* \"#utility.yul\":1127:1190   */\n        tag_29:\n            /* \"#utility.yul\":1074:1196   */\n          pop\n          jump\t// out\n            /* \"contracts/Bounty.sol\":1759:3000  contract BountyAddr {... */\n        tag_6:\n          dataSize(sub_0)\n          dup1\n          dataOffset(sub_0)\n          0x00\n          codecopy\n          0x00\n          return\n        stop\n\n        sub_0: assembly {\n                /* \"contracts/Bounty.sol\":1759:3000  contract BountyAddr {... */\n              mstore(0x40, 0x80)\n              jumpi(tag_1, lt(calldatasize, 0x04))\n              shr(0xe0, calldataload(0x00))\n              dup1\n              0x4f95a04b\n              gt\n              tag_10\n              jumpi\n              dup1\n              0x4f95a04b\n              eq\n              tag_6\n              jumpi\n              dup1\n              0xbeabacc8\n              eq\n              tag_7\n              jumpi\n              dup1\n              0xd0e30db0\n              eq\n              tag_8\n              jumpi\n              dup1\n              0xe1f21c67\n              eq\n              tag_9\n              jumpi\n              jump(tag_2)\n            tag_10:\n              dup1\n              0x026b1d5f\n              eq\n              tag_3\n              jumpi\n              dup1\n              0x13658f8a\n              eq\n              tag_4\n              jumpi\n              dup1\n              0x23b872dd\n              eq\n              tag_5\n              jumpi\n              jump(tag_2)\n            tag_1:\n              jumpi(tag_2, calldatasize)\n                /* \"contracts/Bounty.sol\":1887:1888  0 */\n              0x00\n                /* \"contracts/Bounty.sol\":1855:1889  address(_bountyBase) != address(0) */\n              0xffffffffffffffffffffffffffffffffffffffff\n              and\n                /* \"contracts/Bounty.sol\":1863:1874  _bountyBase */\n              0x00\n              dup1\n              sload\n              swap1\n              0x0100\n              exp\n              swap1\n              div\n              0xffffffffffffffffffffffffffffffffffffffff\n              and\n                /* \"contracts/Bounty.sol\":1855:1889  address(_bountyBase) != address(0) */\n              0xffffffffffffffffffffffffffffffffffffffff\n              and\n              eq\n              iszero\n                /* \"contracts/Bounty.sol\":1847:1910  require(address(_bountyBase) != address(0), 'need init bounty') */\n              tag_13\n              jumpi\n              mload(0x40)\n              0x08c379a000000000000000000000000000000000000000000000000000000000\n              dup2\n              mstore\n              0x04\n              add\n              tag_14\n              swap1\n              tag_15\n              jump\t// in\n            tag_14:\n              mload(0x40)\n              dup1\n              swap2\n              sub\n              swap1\n              revert\n            tag_13:\n                /* \"contracts/Bounty.sol\":1759:3000  contract BountyAddr {... */\n              stop\n            tag_2:\n              0x00\n              dup1\n              revert\n                /* \"contracts/Bounty.sol\":2886:2998  function getPool() public view virtual returns (address payable) {... */\n            tag_3:\n              callvalue\n              dup1\n              iszero\n              tag_17\n              jumpi\n              0x00\n              dup1\n              revert\n            tag_17:\n              pop\n              tag_18\n              tag_19\n              jump\t// in\n            tag_18:\n              mload(0x40)\n              tag_20\n              swap2\n              swap1\n              tag_21\n              jump\t// in\n            tag_20:\n              mload(0x40)\n              dup1\n              swap2\n              sub\n              swap1\n              return\n                /* \"contracts/Bounty.sol\":2167:2280  function stableTransfer(address payable to, uint256 amount) external payable {... */\n            tag_4:\n              tag_22\n              0x04\n              dup1\n              calldatasize\n              sub\n              dup2\n              add\n              swap1\n              tag_23\n              swap2\n              swap1\n              tag_24\n              jump\t// in\n            tag_23:\n              tag_25\n              jump\t// in\n            tag_22:\n              stop\n                /* \"contracts/Bounty.sol\":2411:2555  function transferFrom(IERC20 token, address to, uint256 amount) external {... */\n            tag_5:\n              callvalue\n              dup1\n              iszero\n              tag_26\n              jumpi\n              0x00\n              dup1\n              revert\n            tag_26:\n              pop\n              tag_27\n              0x04\n              dup1\n              calldatasize\n              sub\n              dup2\n              add\n              swap1\n              tag_28\n              swap2\n              swap1\n              tag_29\n              jump\t// in\n            tag_28:\n              tag_30\n              jump\t// in\n            tag_27:\n              stop\n                /* \"contracts/Bounty.sol\":2769:2879  function ethTransfer(address payable to, uint256 amount) external payable {... */\n            tag_6:\n              tag_31\n              0x04\n              dup1\n              calldatasize\n              sub\n              dup2\n              add\n              swap1\n              tag_32\n              swap2\n              swap1\n              tag_24\n              jump\t// in\n            tag_32:\n              tag_33\n              jump\t// in\n            tag_31:\n              stop\n                /* \"contracts/Bounty.sol\":2561:2682  function transfer(IERC20 token, address to, uint256 amount) external {... */\n            tag_7:\n              callvalue\n              dup1\n              iszero\n              tag_34\n              jumpi\n              0x00\n              dup1\n              revert\n            tag_34:\n              pop\n              tag_35\n              0x04\n              dup1\n              calldatasize\n              sub\n              dup2\n              add\n              swap1\n              tag_36\n              swap2\n              swap1\n              tag_29\n              jump\t// in\n            tag_36:\n              tag_37\n              jump\t// in\n            tag_35:\n              stop\n                /* \"contracts/Bounty.sol\":2688:2763  function deposit() external payable {... */\n            tag_8:\n              tag_38\n              tag_39\n              jump\t// in\n            tag_38:\n              stop\n                /* \"contracts/Bounty.sol\":2286:2405  function approve(IERC20 token, address to, uint256 amount) external {... */\n            tag_9:\n              callvalue\n              dup1\n              iszero\n              tag_40\n              jumpi\n              0x00\n              dup1\n              revert\n            tag_40:\n              pop\n              tag_41\n              0x04\n              dup1\n              calldatasize\n              sub\n              dup2\n              add\n              swap1\n              tag_42\n              swap2\n              swap1\n              tag_29\n              jump\t// in\n            tag_42:\n              tag_43\n              jump\t// in\n            tag_41:\n              stop\n                /* \"contracts/Bounty.sol\":2886:2998  function getPool() public view virtual returns (address payable) {... */\n            tag_19:\n                /* \"contracts/Bounty.sol\":2934:2949  address payable */\n              0x00\n                /* \"contracts/Bounty.sol\":2985:2989  this */\n              address\n                /* \"contracts/Bounty.sol\":2962:2991  return payable(address(this)) */\n              swap1\n              pop\n                /* \"contracts/Bounty.sol\":2886:2998  function getPool() public view virtual returns (address payable) {... */\n              swap1\n              jump\t// out\n                /* \"contracts/Bounty.sol\":2167:2280  function stableTransfer(address payable to, uint256 amount) external payable {... */\n            tag_25:\n                /* \"contracts/Bounty.sol\":2254:2256  to */\n              dup2\n                /* \"contracts/Bounty.sol\":2254:2265  to.transfer */\n              0xffffffffffffffffffffffffffffffffffffffff\n              and\n                /* \"contracts/Bounty.sol\":2254:2273  to.transfer(amount) */\n              0x08fc\n                /* \"contracts/Bounty.sol\":2266:2272  amount */\n              dup3\n                /* \"contracts/Bounty.sol\":2254:2273  to.transfer(amount) */\n              swap1\n              dup2\n              iszero\n              mul\n              swap1\n              mload(0x40)\n              0x00\n              mload(0x40)\n              dup1\n              dup4\n              sub\n              dup2\n              dup6\n              dup9\n              dup9\n              call\n              swap4\n              pop\n              pop\n              pop\n              pop\n              iszero\n              dup1\n              iszero\n              tag_47\n              jumpi\n              returndatasize\n              0x00\n              dup1\n              returndatacopy\n              revert(0x00, returndatasize)\n            tag_47:\n              pop\n                /* \"contracts/Bounty.sol\":2167:2280  function stableTransfer(address payable to, uint256 amount) external payable {... */\n              pop\n              pop\n              jump\t// out\n                /* \"contracts/Bounty.sol\":2411:2555  function transferFrom(IERC20 token, address to, uint256 amount) external {... */\n            tag_30:\n                /* \"contracts/Bounty.sol\":2502:2507  token */\n              dup3\n                /* \"contracts/Bounty.sol\":2502:2520  token.transferFrom */\n              0xffffffffffffffffffffffffffffffffffffffff\n              and\n              0x23b872dd\n                /* \"contracts/Bounty.sol\":2529:2533  this */\n              address\n                /* \"contracts/Bounty.sol\":2536:2538  to */\n              dup5\n                /* \"contracts/Bounty.sol\":2540:2546  amount */\n              dup5\n                /* \"contracts/Bounty.sol\":2502:2547  token.transferFrom(address(this), to, amount) */\n              mload(0x40)\n              dup5\n              0xffffffff\n              and\n              0xe0\n              shl\n              dup2\n              mstore\n              0x04\n              add\n              tag_49\n              swap4\n              swap3\n              swap2\n              swap1\n              tag_50\n              jump\t// in\n            tag_49:\n              0x20\n              mload(0x40)\n              dup1\n              dup4\n              sub\n              dup2\n              0x00\n              dup8\n              dup1\n              extcodesize\n              iszero\n              dup1\n              iszero\n              tag_51\n              jumpi\n              0x00\n              dup1\n              revert\n            tag_51:\n              pop\n              gas\n              call\n              iszero\n              dup1\n              iszero\n              tag_53\n              jumpi\n              returndatasize\n              0x00\n              dup1\n              returndatacopy\n              revert(0x00, returndatasize)\n            tag_53:\n              pop\n              pop\n              pop\n              pop\n              mload(0x40)\n              returndatasize\n              not(0x1f)\n              0x1f\n              dup3\n              add\n              and\n              dup3\n              add\n              dup1\n              0x40\n              mstore\n              pop\n              dup2\n              add\n              swap1\n              tag_54\n              swap2\n              swap1\n              tag_55\n              jump\t// in\n            tag_54:\n                /* \"contracts/Bounty.sol\":2494:2548  require(token.transferFrom(address(this), to, amount)) */\n              tag_56\n              jumpi\n              0x00\n              dup1\n              revert\n            tag_56:\n                /* \"contracts/Bounty.sol\":2411:2555  function transferFrom(IERC20 token, address to, uint256 amount) external {... */\n              pop\n              pop\n              pop\n              jump\t// out\n                /* \"contracts/Bounty.sol\":2769:2879  function ethTransfer(address payable to, uint256 amount) external payable {... */\n            tag_33:\n                /* \"contracts/Bounty.sol\":2853:2855  to */\n              dup2\n                /* \"contracts/Bounty.sol\":2853:2864  to.transfer */\n              0xffffffffffffffffffffffffffffffffffffffff\n              and\n                /* \"contracts/Bounty.sol\":2853:2872  to.transfer(amount) */\n              0x08fc\n                /* \"contracts/Bounty.sol\":2865:2871  amount */\n              dup3\n                /* \"contracts/Bounty.sol\":2853:2872  to.transfer(amount) */\n              swap1\n              dup2\n              iszero\n              mul\n              swap1\n              mload(0x40)\n              0x00\n              mload(0x40)\n              dup1\n              dup4\n              sub\n              dup2\n              dup6\n              dup9\n              dup9\n              call\n              swap4\n              pop\n              pop\n              pop\n              pop\n              iszero\n              dup1\n              iszero\n              tag_59\n              jumpi\n              returndatasize\n              0x00\n              dup1\n              returndatacopy\n              revert(0x00, returndatasize)\n            tag_59:\n              pop\n                /* \"contracts/Bounty.sol\":2769:2879  function ethTransfer(address payable to, uint256 amount) external payable {... */\n              pop\n              pop\n              jump\t// out\n                /* \"contracts/Bounty.sol\":2561:2682  function transfer(IERC20 token, address to, uint256 amount) external {... */\n            tag_37:\n                /* \"contracts/Bounty.sol\":2648:2653  token */\n              dup3\n                /* \"contracts/Bounty.sol\":2648:2662  token.transfer */\n              0xffffffffffffffffffffffffffffffffffffffff\n              and\n              0xa9059cbb\n                /* \"contracts/Bounty.sol\":2663:2665  to */\n              dup4\n                /* \"contracts/Bounty.sol\":2667:2673  amount */\n              dup4\n                /* \"contracts/Bounty.sol\":2648:2674  token.transfer(to, amount) */\n              mload(0x40)\n              dup4\n              0xffffffff\n              and\n              0xe0\n              shl\n              dup2\n              mstore\n              0x04\n              add\n              tag_61\n              swap3\n              swap2\n              swap1\n              tag_62\n              jump\t// in\n            tag_61:\n              0x20\n              mload(0x40)\n              dup1\n              dup4\n              sub\n              dup2\n              0x00\n              dup8\n              dup1\n              extcodesize\n              iszero\n              dup1\n              iszero\n              tag_63\n              jumpi\n              0x00\n              dup1\n              revert\n            tag_63:\n              pop\n              gas\n              call\n              iszero\n              dup1\n              iszero\n              tag_65\n              jumpi\n              returndatasize\n              0x00\n              dup1\n              returndatacopy\n              revert(0x00, returndatasize)\n            tag_65:\n              pop\n              pop\n              pop\n              pop\n              mload(0x40)\n              returndatasize\n              not(0x1f)\n              0x1f\n              dup3\n              add\n              and\n              dup3\n              add\n              dup1\n              0x40\n              mstore\n              pop\n              dup2\n              add\n              swap1\n              tag_66\n              swap2\n              swap1\n              tag_55\n              jump\t// in\n            tag_66:\n                /* \"contracts/Bounty.sol\":2640:2675  require(token.transfer(to, amount)) */\n              tag_67\n              jumpi\n              0x00\n              dup1\n              revert\n            tag_67:\n                /* \"contracts/Bounty.sol\":2561:2682  function transfer(IERC20 token, address to, uint256 amount) external {... */\n              pop\n              pop\n              pop\n              jump\t// out\n                /* \"contracts/Bounty.sol\":2688:2763  function deposit() external payable {... */\n            tag_39:\n              jump\t// out\n                /* \"contracts/Bounty.sol\":2286:2405  function approve(IERC20 token, address to, uint256 amount) external {... */\n            tag_43:\n                /* \"contracts/Bounty.sol\":2372:2377  token */\n              dup3\n                /* \"contracts/Bounty.sol\":2372:2385  token.approve */\n              0xffffffffffffffffffffffffffffffffffffffff\n              and\n              0x095ea7b3\n                /* \"contracts/Bounty.sol\":2386:2388  to */\n              dup4\n                /* \"contracts/Bounty.sol\":2390:2396  amount */\n              dup4\n                /* \"contracts/Bounty.sol\":2372:2397  token.approve(to, amount) */\n              mload(0x40)\n              dup4\n              0xffffffff\n              and\n              0xe0\n              shl\n              dup2\n              mstore\n              0x04\n              add\n              tag_70\n              swap3\n              swap2\n              swap1\n              tag_62\n              jump\t// in\n            tag_70:\n              0x20\n              mload(0x40)\n              dup1\n              dup4\n              sub\n              dup2\n              0x00\n              dup8\n              dup1\n              extcodesize\n              iszero\n              dup1\n              iszero\n              tag_71\n              jumpi\n              0x00\n              dup1\n              revert\n            tag_71:\n              pop\n              gas\n              call\n              iszero\n              dup1\n              iszero\n              tag_73\n              jumpi\n              returndatasize\n              0x00\n              dup1\n              returndatacopy\n              revert(0x00, returndatasize)\n            tag_73:\n              pop\n              pop\n              pop\n              pop\n              mload(0x40)\n              returndatasize\n              not(0x1f)\n              0x1f\n              dup3\n              add\n              and\n              dup3\n              add\n              dup1\n              0x40\n              mstore\n              pop\n              dup2\n              add\n              swap1\n              tag_74\n              swap2\n              swap1\n              tag_55\n              jump\t// in\n            tag_74:\n                /* \"contracts/Bounty.sol\":2364:2398  require(token.approve(to, amount)) */\n              tag_75\n              jumpi\n              0x00\n              dup1\n              revert\n            tag_75:\n                /* \"contracts/Bounty.sol\":2286:2405  function approve(IERC20 token, address to, uint256 amount) external {... */\n              pop\n              pop\n              pop\n              jump\t// out\n                /* \"#utility.yul\":7:146   */\n            tag_77:\n                /* \"#utility.yul\":53:58   */\n              0x00\n                /* \"#utility.yul\":91:97   */\n              dup2\n                /* \"#utility.yul\":78:98   */\n              calldataload\n                /* \"#utility.yul\":69:98   */\n              swap1\n              pop\n                /* \"#utility.yul\":107:140   */\n              tag_79\n                /* \"#utility.yul\":134:139   */\n              dup2\n                /* \"#utility.yul\":107:140   */\n              tag_80\n              jump\t// in\n            tag_79:\n                /* \"#utility.yul\":7:146   */\n              swap3\n              swap2\n              pop\n              pop\n              jump\t// out\n                /* \"#utility.yul\":152:307   */\n            tag_81:\n                /* \"#utility.yul\":206:211   */\n              0x00\n                /* \"#utility.yul\":244:250   */\n              dup2\n                /* \"#utility.yul\":231:251   */\n              calldataload\n                /* \"#utility.yul\":222:251   */\n              swap1\n              pop\n                /* \"#utility.yul\":260:301   */\n              tag_83\n                /* \"#utility.yul\":295:300   */\n              dup2\n                /* \"#utility.yul\":260:301   */\n              tag_84\n              jump\t// in\n            tag_83:\n                /* \"#utility.yul\":152:307   */\n              swap3\n              swap2\n              pop\n              pop\n              jump\t// out\n                /* \"#utility.yul\":313:450   */\n            tag_85:\n                /* \"#utility.yul\":367:372   */\n              0x00\n                /* \"#utility.yul\":398:404   */\n              dup2\n                /* \"#utility.yul\":392:405   */\n              mload\n                /* \"#utility.yul\":383:405   */\n              swap1\n              pop\n                /* \"#utility.yul\":414:444   */\n              tag_87\n                /* \"#utility.yul\":438:443   */\n              dup2\n                /* \"#utility.yul\":414:444   */\n              tag_88\n              jump\t// in\n            tag_87:\n                /* \"#utility.yul\":313:450   */\n              swap3\n              swap2\n              pop\n              pop\n              jump\t// out\n                /* \"#utility.yul\":456:623   */\n            tag_89:\n                /* \"#utility.yul\":516:521   */\n              0x00\n                /* \"#utility.yul\":554:560   */\n              dup2\n                /* \"#utility.yul\":541:561   */\n              calldataload\n                /* \"#utility.yul\":532:561   */\n              swap1\n              pop\n                /* \"#utility.yul\":570:617   */\n              tag_91\n                /* \"#utility.yul\":611:616   */\n              dup2\n                /* \"#utility.yul\":570:617   */\n              tag_92\n              jump\t// in\n            tag_91:\n                /* \"#utility.yul\":456:623   */\n              swap3\n              swap2\n              pop\n              pop\n              jump\t// out\n                /* \"#utility.yul\":629:768   */\n            tag_93:\n                /* \"#utility.yul\":675:680   */\n              0x00\n                /* \"#utility.yul\":713:719   */\n              dup2\n                /* \"#utility.yul\":700:720   */\n              calldataload\n                /* \"#utility.yul\":691:720   */\n              swap1\n              pop\n                /* \"#utility.yul\":729:762   */\n              tag_95\n                /* \"#utility.yul\":756:761   */\n              dup2\n                /* \"#utility.yul\":729:762   */\n              tag_96\n              jump\t// in\n            tag_95:\n                /* \"#utility.yul\":629:768   */\n              swap3\n              swap2\n              pop\n              pop\n              jump\t// out\n                /* \"#utility.yul\":774:1264   */\n            tag_24:\n                /* \"#utility.yul\":850:856   */\n              0x00\n                /* \"#utility.yul\":858:864   */\n              dup1\n                /* \"#utility.yul\":907:909   */\n              0x40\n                /* \"#utility.yul\":895:904   */\n              dup4\n                /* \"#utility.yul\":886:893   */\n              dup6\n                /* \"#utility.yul\":882:905   */\n              sub\n                /* \"#utility.yul\":878:910   */\n              slt\n                /* \"#utility.yul\":875:994   */\n              iszero\n              tag_98\n              jumpi\n                /* \"#utility.yul\":913:992   */\n              tag_99\n              tag_100\n              jump\t// in\n            tag_99:\n                /* \"#utility.yul\":875:994   */\n            tag_98:\n                /* \"#utility.yul\":1033:1034   */\n              0x00\n                /* \"#utility.yul\":1058:1119   */\n              tag_101\n                /* \"#utility.yul\":1111:1118   */\n              dup6\n                /* \"#utility.yul\":1102:1108   */\n              dup3\n                /* \"#utility.yul\":1091:1100   */\n              dup7\n                /* \"#utility.yul\":1087:1109   */\n              add\n                /* \"#utility.yul\":1058:1119   */\n              tag_81\n              jump\t// in\n            tag_101:\n                /* \"#utility.yul\":1048:1119   */\n              swap3\n              pop\n                /* \"#utility.yul\":1004:1129   */\n              pop\n                /* \"#utility.yul\":1168:1170   */\n              0x20\n                /* \"#utility.yul\":1194:1247   */\n              tag_102\n                /* \"#utility.yul\":1239:1246   */\n              dup6\n                /* \"#utility.yul\":1230:1236   */\n              dup3\n                /* \"#utility.yul\":1219:1228   */\n              dup7\n                /* \"#utility.yul\":1215:1237   */\n              add\n                /* \"#utility.yul\":1194:1247   */\n              tag_93\n              jump\t// in\n            tag_102:\n                /* \"#utility.yul\":1184:1247   */\n              swap2\n              pop\n                /* \"#utility.yul\":1139:1257   */\n              pop\n                /* \"#utility.yul\":774:1264   */\n              swap3\n              pop\n              swap3\n              swap1\n              pop\n              jump\t// out\n                /* \"#utility.yul\":1270:1615   */\n            tag_55:\n                /* \"#utility.yul\":1337:1343   */\n              0x00\n                /* \"#utility.yul\":1386:1388   */\n              0x20\n                /* \"#utility.yul\":1374:1383   */\n              dup3\n                /* \"#utility.yul\":1365:1372   */\n              dup5\n                /* \"#utility.yul\":1361:1384   */\n              sub\n                /* \"#utility.yul\":1357:1389   */\n              slt\n                /* \"#utility.yul\":1354:1473   */\n              iszero\n              tag_104\n              jumpi\n                /* \"#utility.yul\":1392:1471   */\n              tag_105\n              tag_100\n              jump\t// in\n            tag_105:\n                /* \"#utility.yul\":1354:1473   */\n            tag_104:\n                /* \"#utility.yul\":1512:1513   */\n              0x00\n                /* \"#utility.yul\":1537:1598   */\n              tag_106\n                /* \"#utility.yul\":1590:1597   */\n              dup5\n                /* \"#utility.yul\":1581:1587   */\n              dup3\n                /* \"#utility.yul\":1570:1579   */\n              dup6\n                /* \"#utility.yul\":1566:1588   */\n              add\n                /* \"#utility.yul\":1537:1598   */\n              tag_85\n              jump\t// in\n            tag_106:\n                /* \"#utility.yul\":1527:1598   */\n              swap2\n              pop\n                /* \"#utility.yul\":1483:1608   */\n              pop\n                /* \"#utility.yul\":1270:1615   */\n              swap3\n              swap2\n              pop\n              pop\n              jump\t// out\n                /* \"#utility.yul\":1621:2268   */\n            tag_29:\n                /* \"#utility.yul\":1712:1718   */\n              0x00\n                /* \"#utility.yul\":1720:1726   */\n              dup1\n                /* \"#utility.yul\":1728:1734   */\n              0x00\n                /* \"#utility.yul\":1777:1779   */\n              0x60\n                /* \"#utility.yul\":1765:1774   */\n              dup5\n                /* \"#utility.yul\":1756:1763   */\n              dup7\n                /* \"#utility.yul\":1752:1775   */\n              sub\n                /* \"#utility.yul\":1748:1780   */\n              slt\n                /* \"#utility.yul\":1745:1864   */\n              iszero\n              tag_108\n              jumpi\n                /* \"#utility.yul\":1783:1862   */\n              tag_109\n              tag_100\n              jump\t// in\n            tag_109:\n                /* \"#utility.yul\":1745:1864   */\n            tag_108:\n                /* \"#utility.yul\":1903:1904   */\n              0x00\n                /* \"#utility.yul\":1928:1995   */\n              tag_110\n                /* \"#utility.yul\":1987:1994   */\n              dup7\n                /* \"#utility.yul\":1978:1984   */\n              dup3\n                /* \"#utility.yul\":1967:1976   */\n              dup8\n                /* \"#utility.yul\":1963:1985   */\n              add\n                /* \"#utility.yul\":1928:1995   */\n              tag_89\n              jump\t// in\n            tag_110:\n                /* \"#utility.yul\":1918:1995   */\n              swap4\n              pop\n                /* \"#utility.yul\":1874:2005   */\n              pop\n                /* \"#utility.yul\":2044:2046   */\n              0x20\n                /* \"#utility.yul\":2070:2123   */\n              tag_111\n                /* \"#utility.yul\":2115:2122   */\n              dup7\n                /* \"#utility.yul\":2106:2112   */\n              dup3\n                /* \"#utility.yul\":2095:2104   */\n              dup8\n                /* \"#utility.yul\":2091:2113   */\n              add\n                /* \"#utility.yul\":2070:2123   */\n              tag_77\n              jump\t// in\n            tag_111:\n                /* \"#utility.yul\":2060:2123   */\n              swap3\n              pop\n                /* \"#utility.yul\":2015:2133   */\n              pop\n                /* \"#utility.yul\":2172:2174   */\n              0x40\n                /* \"#utility.yul\":2198:2251   */\n              tag_112\n                /* \"#utility.yul\":2243:2250   */\n              dup7\n                /* \"#utility.yul\":2234:2240   */\n              dup3\n                /* \"#utility.yul\":2223:2232   */\n              dup8\n                /* \"#utility.yul\":2219:2241   */\n              add\n                /* \"#utility.yul\":2198:2251   */\n              tag_93\n              jump\t// in\n            tag_112:\n                /* \"#utility.yul\":2188:2251   */\n              swap2\n              pop\n                /* \"#utility.yul\":2143:2261   */\n              pop\n                /* \"#utility.yul\":1621:2268   */\n              swap3\n              pop\n              swap3\n              pop\n              swap3\n              jump\t// out\n                /* \"#utility.yul\":2274:2416   */\n            tag_113:\n                /* \"#utility.yul\":2377:2409   */\n              tag_115\n                /* \"#utility.yul\":2403:2408   */\n              dup2\n                /* \"#utility.yul\":2377:2409   */\n              tag_116\n              jump\t// in\n            tag_115:\n                /* \"#utility.yul\":2372:2375   */\n              dup3\n                /* \"#utility.yul\":2365:2410   */\n              mstore\n                /* \"#utility.yul\":2274:2416   */\n              pop\n              pop\n              jump\t// out\n                /* \"#utility.yul\":2422:2540   */\n            tag_117:\n                /* \"#utility.yul\":2509:2533   */\n              tag_119\n                /* \"#utility.yul\":2527:2532   */\n              dup2\n                /* \"#utility.yul\":2509:2533   */\n              tag_120\n              jump\t// in\n            tag_119:\n                /* \"#utility.yul\":2504:2507   */\n              dup3\n                /* \"#utility.yul\":2497:2534   */\n              mstore\n                /* \"#utility.yul\":2422:2540   */\n              pop\n              pop\n              jump\t// out\n                /* \"#utility.yul\":2546:2912   */\n            tag_121:\n                /* \"#utility.yul\":2688:2691   */\n              0x00\n                /* \"#utility.yul\":2709:2776   */\n              tag_123\n                /* \"#utility.yul\":2773:2775   */\n              0x10\n                /* \"#utility.yul\":2768:2771   */\n              dup4\n                /* \"#utility.yul\":2709:2776   */\n              tag_124\n              jump\t// in\n            tag_123:\n                /* \"#utility.yul\":2702:2776   */\n              swap2\n              pop\n                /* \"#utility.yul\":2785:2878   */\n              tag_125\n                /* \"#utility.yul\":2874:2877   */\n              dup3\n                /* \"#utility.yul\":2785:2878   */\n              tag_126\n              jump\t// in\n            tag_125:\n                /* \"#utility.yul\":2903:2905   */\n              0x20\n                /* \"#utility.yul\":2898:2901   */\n              dup3\n                /* \"#utility.yul\":2894:2906   */\n              add\n                /* \"#utility.yul\":2887:2906   */\n              swap1\n              pop\n                /* \"#utility.yul\":2546:2912   */\n              swap2\n              swap1\n              pop\n              jump\t// out\n                /* \"#utility.yul\":2918:3036   */\n            tag_127:\n                /* \"#utility.yul\":3005:3029   */\n              tag_129\n                /* \"#utility.yul\":3023:3028   */\n              dup2\n                /* \"#utility.yul\":3005:3029   */\n              tag_130\n              jump\t// in\n            tag_129:\n                /* \"#utility.yul\":3000:3003   */\n              dup3\n                /* \"#utility.yul\":2993:3030   */\n              mstore\n                /* \"#utility.yul\":2918:3036   */\n              pop\n              pop\n              jump\t// out\n                /* \"#utility.yul\":3042:3296   */\n            tag_21:\n                /* \"#utility.yul\":3151:3155   */\n              0x00\n                /* \"#utility.yul\":3189:3191   */\n              0x20\n                /* \"#utility.yul\":3178:3187   */\n              dup3\n                /* \"#utility.yul\":3174:3192   */\n              add\n                /* \"#utility.yul\":3166:3192   */\n              swap1\n              pop\n                /* \"#utility.yul\":3202:3289   */\n              tag_132\n                /* \"#utility.yul\":3286:3287   */\n              0x00\n                /* \"#utility.yul\":3275:3284   */\n              dup4\n                /* \"#utility.yul\":3271:3288   */\n              add\n                /* \"#utility.yul\":3262:3268   */\n              dup5\n                /* \"#utility.yul\":3202:3289   */\n              tag_113\n              jump\t// in\n            tag_132:\n                /* \"#utility.yul\":3042:3296   */\n              swap3\n              swap2\n              pop\n              pop\n              jump\t// out\n                /* \"#utility.yul\":3302:3744   */\n            tag_50:\n                /* \"#utility.yul\":3451:3455   */\n              0x00\n                /* \"#utility.yul\":3489:3491   */\n              0x60\n                /* \"#utility.yul\":3478:3487   */\n              dup3\n                /* \"#utility.yul\":3474:3492   */\n              add\n                /* \"#utility.yul\":3466:3492   */\n              swap1\n              pop\n                /* \"#utility.yul\":3502:3573   */\n              tag_134\n                /* \"#utility.yul\":3570:3571   */\n              0x00\n                /* \"#utility.yul\":3559:3568   */\n              dup4\n                /* \"#utility.yul\":3555:3572   */\n              add\n                /* \"#utility.yul\":3546:3552   */\n              dup7\n                /* \"#utility.yul\":3502:3573   */\n              tag_117\n              jump\t// in\n            tag_134:\n                /* \"#utility.yul\":3583:3655   */\n              tag_135\n                /* \"#utility.yul\":3651:3653   */\n              0x20\n                /* \"#utility.yul\":3640:3649   */\n              dup4\n                /* \"#utility.yul\":3636:3654   */\n              add\n                /* \"#utility.yul\":3627:3633   */\n              dup6\n                /* \"#utility.yul\":3583:3655   */\n              tag_117\n              jump\t// in\n            tag_135:\n                /* \"#utility.yul\":3665:3737   */\n              tag_136\n                /* \"#utility.yul\":3733:3735   */\n              0x40\n                /* \"#utility.yul\":3722:3731   */\n              dup4\n                /* \"#utility.yul\":3718:3736   */\n              add\n                /* \"#utility.yul\":3709:3715   */\n              dup5\n                /* \"#utility.yul\":3665:3737   */\n              tag_127\n              jump\t// in\n            tag_136:\n                /* \"#utility.yul\":3302:3744   */\n              swap5\n              swap4\n              pop\n              pop\n              pop\n              pop\n              jump\t// out\n                /* \"#utility.yul\":3750:4082   */\n            tag_62:\n                /* \"#utility.yul\":3871:3875   */\n              0x00\n                /* \"#utility.yul\":3909:3911   */\n              0x40\n                /* \"#utility.yul\":3898:3907   */\n              dup3\n                /* \"#utility.yul\":3894:3912   */\n              add\n                /* \"#utility.yul\":3886:3912   */\n              swap1\n              pop\n                /* \"#utility.yul\":3922:3993   */\n              tag_138\n                /* \"#utility.yul\":3990:3991   */\n              0x00\n                /* \"#utility.yul\":3979:3988   */\n              dup4\n                /* \"#utility.yul\":3975:3992   */\n              add\n                /* \"#utility.yul\":3966:3972   */\n              dup6\n                /* \"#utility.yul\":3922:3993   */\n              tag_117\n              jump\t// in\n            tag_138:\n                /* \"#utility.yul\":4003:4075   */\n              tag_139\n                /* \"#utility.yul\":4071:4073   */\n              0x20\n                /* \"#utility.yul\":4060:4069   */\n              dup4\n                /* \"#utility.yul\":4056:4074   */\n              add\n                /* \"#utility.yul\":4047:4053   */\n              dup5\n                /* \"#utility.yul\":4003:4075   */\n              tag_127\n              jump\t// in\n            tag_139:\n                /* \"#utility.yul\":3750:4082   */\n              swap4\n              swap3\n              pop\n              pop\n              pop\n              jump\t// out\n                /* \"#utility.yul\":4088:4507   */\n            tag_15:\n                /* \"#utility.yul\":4254:4258   */\n              0x00\n                /* \"#utility.yul\":4292:4294   */\n              0x20\n                /* \"#utility.yul\":4281:4290   */\n              dup3\n                /* \"#utility.yul\":4277:4295   */\n              add\n                /* \"#utility.yul\":4269:4295   */\n              swap1\n              pop\n                /* \"#utility.yul\":4341:4350   */\n              dup2\n                /* \"#utility.yul\":4335:4339   */\n              dup2\n                /* \"#utility.yul\":4331:4351   */\n              sub\n                /* \"#utility.yul\":4327:4328   */\n              0x00\n                /* \"#utility.yul\":4316:4325   */\n              dup4\n                /* \"#utility.yul\":4312:4329   */\n              add\n                /* \"#utility.yul\":4305:4352   */\n              mstore\n                /* \"#utility.yul\":4369:4500   */\n              tag_141\n                /* \"#utility.yul\":4495:4499   */\n              dup2\n                /* \"#utility.yul\":4369:4500   */\n              tag_121\n              jump\t// in\n            tag_141:\n                /* \"#utility.yul\":4361:4500   */\n              swap1\n              pop\n                /* \"#utility.yul\":4088:4507   */\n              swap2\n              swap1\n              pop\n              jump\t// out\n                /* \"#utility.yul\":4594:4763   */\n            tag_124:\n                /* \"#utility.yul\":4678:4689   */\n              0x00\n                /* \"#utility.yul\":4712:4718   */\n              dup3\n                /* \"#utility.yul\":4707:4710   */\n              dup3\n                /* \"#utility.yul\":4700:4719   */\n              mstore\n                /* \"#utility.yul\":4752:4756   */\n              0x20\n                /* \"#utility.yul\":4747:4750   */\n              dup3\n                /* \"#utility.yul\":4743:4757   */\n              add\n                /* \"#utility.yul\":4728:4757   */\n              swap1\n              pop\n                /* \"#utility.yul\":4594:4763   */\n              swap3\n              swap2\n              pop\n              pop\n              jump\t// out\n                /* \"#utility.yul\":4769:4865   */\n            tag_120:\n                /* \"#utility.yul\":4806:4813   */\n              0x00\n                /* \"#utility.yul\":4835:4859   */\n              tag_146\n                /* \"#utility.yul\":4853:4858   */\n              dup3\n                /* \"#utility.yul\":4835:4859   */\n              tag_147\n              jump\t// in\n            tag_146:\n                /* \"#utility.yul\":4824:4859   */\n              swap1\n              pop\n                /* \"#utility.yul\":4769:4865   */\n              swap2\n              swap1\n              pop\n              jump\t// out\n                /* \"#utility.yul\":4871:4975   */\n            tag_116:\n                /* \"#utility.yul\":4916:4923   */\n              0x00\n                /* \"#utility.yul\":4945:4969   */\n              tag_149\n                /* \"#utility.yul\":4963:4968   */\n              dup3\n                /* \"#utility.yul\":4945:4969   */\n              tag_147\n              jump\t// in\n            tag_149:\n                /* \"#utility.yul\":4934:4969   */\n              swap1\n              pop\n                /* \"#utility.yul\":4871:4975   */\n              swap2\n              swap1\n              pop\n              jump\t// out\n                /* \"#utility.yul\":4981:5071   */\n            tag_150:\n                /* \"#utility.yul\":5015:5022   */\n              0x00\n                /* \"#utility.yul\":5058:5063   */\n              dup2\n                /* \"#utility.yul\":5051:5064   */\n              iszero\n                /* \"#utility.yul\":5044:5065   */\n              iszero\n                /* \"#utility.yul\":5033:5065   */\n              swap1\n              pop\n                /* \"#utility.yul\":4981:5071   */\n              swap2\n              swap1\n              pop\n              jump\t// out\n                /* \"#utility.yul\":5077:5187   */\n            tag_152:\n                /* \"#utility.yul\":5128:5135   */\n              0x00\n                /* \"#utility.yul\":5157:5181   */\n              tag_154\n                /* \"#utility.yul\":5175:5180   */\n              dup3\n                /* \"#utility.yul\":5157:5181   */\n              tag_120\n              jump\t// in\n            tag_154:\n                /* \"#utility.yul\":5146:5181   */\n              swap1\n              pop\n                /* \"#utility.yul\":5077:5187   */\n              swap2\n              swap1\n              pop\n              jump\t// out\n                /* \"#utility.yul\":5193:5319   */\n            tag_147:\n                /* \"#utility.yul\":5230:5237   */\n              0x00\n                /* \"#utility.yul\":5270:5312   */\n              0xffffffffffffffffffffffffffffffffffffffff\n                /* \"#utility.yul\":5263:5268   */\n              dup3\n                /* \"#utility.yul\":5259:5313   */\n              and\n                /* \"#utility.yul\":5248:5313   */\n              swap1\n              pop\n                /* \"#utility.yul\":5193:5319   */\n              swap2\n              swap1\n              pop\n              jump\t// out\n                /* \"#utility.yul\":5325:5402   */\n            tag_130:\n                /* \"#utility.yul\":5362:5369   */\n              0x00\n                /* \"#utility.yul\":5391:5396   */\n              dup2\n                /* \"#utility.yul\":5380:5396   */\n              swap1\n              pop\n                /* \"#utility.yul\":5325:5402   */\n              swap2\n              swap1\n              pop\n              jump\t// out\n                /* \"#utility.yul\":5531:5648   */\n            tag_100:\n                /* \"#utility.yul\":5640:5641   */\n              0x00\n                /* \"#utility.yul\":5637:5638   */\n              dup1\n                /* \"#utility.yul\":5630:5642   */\n              revert\n                /* \"#utility.yul\":5654:5820   */\n            tag_126:\n                /* \"#utility.yul\":5794:5812   */\n              0x6e65656420696e697420626f756e747900000000000000000000000000000000\n                /* \"#utility.yul\":5790:5791   */\n              0x00\n                /* \"#utility.yul\":5782:5788   */\n              dup3\n                /* \"#utility.yul\":5778:5792   */\n              add\n                /* \"#utility.yul\":5771:5813   */\n              mstore\n                /* \"#utility.yul\":5654:5820   */\n              pop\n              jump\t// out\n                /* \"#utility.yul\":5826:5948   */\n            tag_80:\n                /* \"#utility.yul\":5899:5923   */\n              tag_162\n                /* \"#utility.yul\":5917:5922   */\n              dup2\n                /* \"#utility.yul\":5899:5923   */\n              tag_120\n              jump\t// in\n            tag_162:\n                /* \"#utility.yul\":5892:5897   */\n              dup2\n                /* \"#utility.yul\":5889:5924   */\n              eq\n                /* \"#utility.yul\":5879:5942   */\n              tag_163\n              jumpi\n                /* \"#utility.yul\":5938:5939   */\n              0x00\n                /* \"#utility.yul\":5935:5936   */\n              dup1\n                /* \"#utility.yul\":5928:5940   */\n              revert\n                /* \"#utility.yul\":5879:5942   */\n            tag_163:\n                /* \"#utility.yul\":5826:5948   */\n              pop\n              jump\t// out\n                /* \"#utility.yul\":5954:6092   */\n            tag_84:\n                /* \"#utility.yul\":6035:6067   */\n              tag_165\n                /* \"#utility.yul\":6061:6066   */\n              dup2\n                /* \"#utility.yul\":6035:6067   */\n              tag_116\n              jump\t// in\n            tag_165:\n                /* \"#utility.yul\":6028:6033   */\n              dup2\n                /* \"#utility.yul\":6025:6068   */\n              eq\n                /* \"#utility.yul\":6015:6086   */\n              tag_166\n              jumpi\n                /* \"#utility.yul\":6082:6083   */\n              0x00\n                /* \"#utility.yul\":6079:6080   */\n              dup1\n                /* \"#utility.yul\":6072:6084   */\n              revert\n                /* \"#utility.yul\":6015:6086   */\n            tag_166:\n                /* \"#utility.yul\":5954:6092   */\n              pop\n              jump\t// out\n                /* \"#utility.yul\":6098:6214   */\n            tag_88:\n                /* \"#utility.yul\":6168:6189   */\n              tag_168\n                /* \"#utility.yul\":6183:6188   */\n              dup2\n                /* \"#utility.yul\":6168:6189   */\n              tag_150\n              jump\t// in\n            tag_168:\n                /* \"#utility.yul\":6161:6166   */\n              dup2\n                /* \"#utility.yul\":6158:6190   */\n              eq\n                /* \"#utility.yul\":6148:6208   */\n              tag_169\n              jumpi\n                /* \"#utility.yul\":6204:6205   */\n              0x00\n                /* \"#utility.yul\":6201:6202   */\n              dup1\n                /* \"#utility.yul\":6194:6206   */\n              revert\n                /* \"#utility.yul\":6148:6208   */\n            tag_169:\n                /* \"#utility.yul\":6098:6214   */\n              pop\n              jump\t// out\n                /* \"#utility.yul\":6220:6370   */\n            tag_92:\n                /* \"#utility.yul\":6307:6345   */\n              tag_171\n                /* \"#utility.yul\":6339:6344   */\n              dup2\n                /* \"#utility.yul\":6307:6345   */\n              tag_152\n              jump\t// in\n            tag_171:\n                /* \"#utility.yul\":6300:6305   */\n              dup2\n                /* \"#utility.yul\":6297:6346   */\n              eq\n                /* \"#utility.yul\":6287:6364   */\n              tag_172\n              jumpi\n                /* \"#utility.yul\":6360:6361   */\n              0x00\n                /* \"#utility.yul\":6357:6358   */\n              dup1\n                /* \"#utility.yul\":6350:6362   */\n              revert\n                /* \"#utility.yul\":6287:6364   */\n            tag_172:\n                /* \"#utility.yul\":6220:6370   */\n              pop\n              jump\t// out\n                /* \"#utility.yul\":6376:6498   */\n            tag_96:\n                /* \"#utility.yul\":6449:6473   */\n              tag_174\n                /* \"#utility.yul\":6467:6472   */\n              dup2\n                /* \"#utility.yul\":6449:6473   */\n              tag_130\n              jump\t// in\n            tag_174:\n                /* \"#utility.yul\":6442:6447   */\n              dup2\n                /* \"#utility.yul\":6439:6474   */\n              eq\n                /* \"#utility.yul\":6429:6492   */\n              tag_175\n              jumpi\n                /* \"#utility.yul\":6488:6489   */\n              0x00\n                /* \"#utility.yul\":6485:6486   */\n              dup1\n                /* \"#utility.yul\":6478:6490   */\n              revert\n                /* \"#utility.yul\":6429:6492   */\n            tag_175:\n                /* \"#utility.yul\":6376:6498   */\n              pop\n              jump\t// out\n\n            auxdata: 0xa2646970667358221220e52fc63eaacbb6482b8c5f4427035bcd38bb5a9f5b405182afc4a910beee99ed64736f6c63430008070033\n        }\n    }\n\n    auxdata: 0xa2646970667358221220170ccf730fb7257eb179ada662e89c6dbcf86e55f676055b35b4bf2ee24fdf4d64736f6c63430008070033\n}\n",
				"bytecode": {
					"linkReferences": {},
					"object": "608060405273b97ef9ef8734c71904d8002f8b6bc66dd9c48a6e600460006101000a81548173ffffffffffffffffffffffffffffffffffffffff021916908373ffffffffffffffffffffffffffffffffffffffff16021790555034801561006557600080fd5b50336000806101000a81548173ffffffffffffffffffffffffffffffffffffffff021916908373ffffffffffffffffffffffffffffffffffffffff160217905550336000806101000a81548173ffffffffffffffffffffffffffffffffffffffff021916908373ffffffffffffffffffffffffffffffffffffffff1602179055506118fa806100f56000396000f3fe6080604052600436106100595760003560e01c806314da447f146100685780633f28e9fb1461009157806346964a0a146100ad5780635f0024b7146100d6578063f2fde38b14610114578063fa89401a1461013d57610063565b3661006357600080fd5b600080fd5b34801561007457600080fd5b5061008f600480360381019061008a91906109a3565b610159565b005b6100ab60048036038101906100a69190610aed565b6101ce565b005b3480156100b957600080fd5b506100d460048036038101906100cf9190610a6a565b6104bf565b005b3480156100e257600080fd5b506100fd60048036038101906100f891906109fd565b6104c5565b60405161010b929190610bc6565b60405180910390f35b34801561012057600080fd5b5061013b60048036038101906101369190610976565b610526565b005b610157600480360381019061015291906109a3565b6105fe565b005b60008054906101000a900473ffffffffffffffffffffffffffffffffffffffff1673ffffffffffffffffffffffffffffffffffffffff163373ffffffffffffffffffffffffffffffffffffffff16146101b5576101b4610e25565b5b8073ffffffffffffffffffffffffffffffffffffffff16ff5b6000306040516101dd9061088f565b6101e79190610bab565b604051809103906000f080158015610203573d6000803e3d6000fd5b509050600460009054906101000a900473ffffffffffffffffffffffffffffffffffffffff1673ffffffffffffffffffffffffffffffffffffffff166323b872dd338373ffffffffffffffffffffffffffffffffffffffff1663026b1d5f6040518163ffffffff1660e01b815260040160206040518083038186803b15801561028b57600080fd5b505afa15801561029f573d6000803e3d6000fd5b505050506040513d601f19601f820116820180604052508101906102c391906109d0565b856040518463ffffffff1660e01b81526004016102e293929190610bef565b602060405180830381600087803b1580156102fc57600080fd5b505af1158015610310573d6000803e3d6000fd5b505050506040513d601f19601f820116820180604052508101906103349190610a3d565b506003819080600181540180825580915050600190039060005260206000200160009091909190916101000a81548173ffffffffffffffffffffffffffffffffffffffff021916908373ffffffffffffffffffffffffffffffffffffffff160217905550600060405180604001604052803373ffffffffffffffffffffffffffffffffffffffff168152602001348152509050600260008373ffffffffffffffffffffffffffffffffffffffff1673ffffffffffffffffffffffffffffffffffffffff16815260200190815260200160002081908060018154018082558091505060019003906000526020600020906002020160009091909190915060008201518160000160006101000a81548173ffffffffffffffffffffffffffffffffffffffff021916908373ffffffffffffffffffffffffffffffffffffffff1602179055506020820151816001015550507f1bda7bb843640650292c2a26a73106328e0f83c1c09ea1a4176df3912ee47ff6826040516104b29190610c26565b60405180910390a1505050565b50505050565b600260205281600052604060002081815481106104e157600080fd5b9060005260206000209060020201600091509150508060000160009054906101000a900473ffffffffffffffffffffffffffffffffffffffff16908060010154905082565b60008054906101000a900473ffffffffffffffffffffffffffffffffffffffff1673ffffffffffffffffffffffffffffffffffffffff163373ffffffffffffffffffffffffffffffffffffffff161461058257610581610e25565b5b600073ffffffffffffffffffffffffffffffffffffffff168173ffffffffffffffffffffffffffffffffffffffff1614156105f2576040517f08c379a00000000000000000000000000000000000000000000000000000000081526004016105e990610c41565b60405180910390fd5b6105fb816107cb565b50565b600073ffffffffffffffffffffffffffffffffffffffff168173ffffffffffffffffffffffffffffffffffffffff16141561066e576040517f08c379a000000000000000000000000000000000000000000000000000000000815260040161066590610c61565b60405180910390fd5b60005b600260008373ffffffffffffffffffffffffffffffffffffffff1673ffffffffffffffffffffffffffffffffffffffff168152602001908152602001600020805490508110156107c7576000600260008473ffffffffffffffffffffffffffffffffffffffff1673ffffffffffffffffffffffffffffffffffffffff168152602001908152602001600020828154811061070e5761070d610e83565b5b906000526020600020906002020190508273ffffffffffffffffffffffffffffffffffffffff16634f95a04b8260000160009054906101000a900473ffffffffffffffffffffffffffffffffffffffff1683600101546040518363ffffffff1660e01b8152600401610781929190610bc6565b600060405180830381600087803b15801561079b57600080fd5b505af11580156107af573d6000803e3d6000fd5b505050505080806107bf90610ddc565b915050610671565b5050565b60008060009054906101000a900473ffffffffffffffffffffffffffffffffffffffff169050816000806101000a81548173ffffffffffffffffffffffffffffffffffffffff021916908373ffffffffffffffffffffffffffffffffffffffff1602179055508173ffffffffffffffffffffffffffffffffffffffff168173ffffffffffffffffffffffffffffffffffffffff167f8be0079c531659141344cd1fd0a4f28419497f9722a3daafe3b4186f6b6457e060405160405180910390a35050565b6108ea8062000fdb83390190565b60006108b06108ab84610ca6565b610c81565b9050828152602081018484840111156108cc576108cb610ee6565b5b6108d7848285610d9c565b509392505050565b6000813590506108ee81610f7e565b92915050565b60008135905061090381610f95565b92915050565b60008151905061091881610f95565b92915050565b60008151905061092d81610fac565b92915050565b600082601f83011261094857610947610ee1565b5b813561095884826020860161089d565b91505092915050565b60008135905061097081610fc3565b92915050565b60006020828403121561098c5761098b610ef0565b5b600061099a848285016108df565b91505092915050565b6000602082840312156109b9576109b8610ef0565b5b60006109c7848285016108f4565b91505092915050565b6000602082840312156109e6576109e5610ef0565b5b60006109f484828501610909565b91505092915050565b60008060408385031215610a1457610a13610ef0565b5b6000610a22858286016108df565b9250506020610a3385828601610961565b9150509250929050565b600060208284031215610a5357610a52610ef0565b5b6000610a618482850161091e565b91505092915050565b60008060008060808587031215610a8457610a83610ef0565b5b600085013567ffffffffffffffff811115610aa257610aa1610eeb565b5b610aae87828801610933565b9450506020610abf878288016108f4565b9350506040610ad087828801610961565b9250506060610ae187828801610961565b91505092959194509250565b600060208284031215610b0357610b02610ef0565b5b6000610b1184828501610961565b91505092915050565b610b2381610d42565b82525050565b610b3281610cfa565b82525050565b610b4181610ce8565b82525050565b610b5081610d54565b82525050565b6000610b63602683610cd7565b9150610b6e82610f06565b604082019050919050565b6000610b86600a83610cd7565b9150610b9182610f55565b602082019050919050565b610ba581610d38565b82525050565b6000602082019050610bc06000830184610b38565b92915050565b6000604082019050610bdb6000830185610b29565b610be86020830184610b9c565b9392505050565b6000606082019050610c046000830186610b38565b610c116020830185610b1a565b610c1e6040830184610b9c565b949350505050565b6000602082019050610c3b6000830184610b47565b92915050565b60006020820190508181036000830152610c5a81610b56565b9050919050565b60006020820190508181036000830152610c7a81610b79565b9050919050565b6000610c8b610c9c565b9050610c978282610dab565b919050565b6000604051905090565b600067ffffffffffffffff821115610cc157610cc0610eb2565b5b610cca82610ef5565b9050602081019050919050565b600082825260208201905092915050565b6000610cf382610d18565b9050919050565b6000610d0582610d18565b9050919050565b60008115159050919050565b600073ffffffffffffffffffffffffffffffffffffffff82169050919050565b6000819050919050565b6000610d4d82610d66565b9050919050565b6000610d5f82610d78565b9050919050565b6000610d7182610d8a565b9050919050565b6000610d8382610d8a565b9050919050565b6000610d9582610d18565b9050919050565b82818337600083830152505050565b610db482610ef5565b810181811067ffffffffffffffff82111715610dd357610dd2610eb2565b5b80604052505050565b6000610de782610d38565b91507fffffffffffffffffffffffffffffffffffffffffffffffffffffffffffffffff821415610e1a57610e19610e54565b5b600182019050919050565b7f4e487b7100000000000000000000000000000000000000000000000000000000600052600160045260246000fd5b7f4e487b7100000000000000000000000000000000000000000000000000000000600052601160045260246000fd5b7f4e487b7100000000000000000000000000000000000000000000000000000000600052603260045260246000fd5b7f4e487b7100000000000000000000000000000000000000000000000000000000600052604160045260246000fd5b600080fd5b600080fd5b600080fd5b600080fd5b6000601f19601f8301169050919050565b7f4f776e61626c653a206e6577206f776e657220697320746865207a65726f206160008201527f6464726573730000000000000000000000000000000000000000000000000000602082015250565b7f656d707479206164647200000000000000000000000000000000000000000000600082015250565b610f8781610ce8565b8114610f9257600080fd5b50565b610f9e81610cfa565b8114610fa957600080fd5b50565b610fb581610d0c565b8114610fc057600080fd5b50565b610fcc81610d38565b8114610fd757600080fd5b5056fe608060405234801561001057600080fd5b506040516108ea3803806108ea8339818101604052810190610032919061008d565b806000806101000a81548173ffffffffffffffffffffffffffffffffffffffff021916908373ffffffffffffffffffffffffffffffffffffffff16021790555050610108565b600081519050610087816100f1565b92915050565b6000602082840312156100a3576100a26100ec565b5b60006100b184828501610078565b91505092915050565b60006100c5826100cc565b9050919050565b600073ffffffffffffffffffffffffffffffffffffffff82169050919050565b600080fd5b6100fa816100ba565b811461010557600080fd5b50565b6107d3806101176000396000f3fe6080604052600436106100745760003560e01c80634f95a04b1161004e5780634f95a04b14610180578063beabacc81461019c578063d0e30db0146101c5578063e1f21c67146101cf5761010b565b8063026b1d5f1461011057806313658f8a1461013b57806323b872dd146101575761010b565b3661010b57600073ffffffffffffffffffffffffffffffffffffffff1660008054906101000a900473ffffffffffffffffffffffffffffffffffffffff1673ffffffffffffffffffffffffffffffffffffffff161415610109576040517f08c379a00000000000000000000000000000000000000000000000000000000081526004016101009061065f565b60405180910390fd5b005b600080fd5b34801561011c57600080fd5b506101256101f8565b60405161013291906105e4565b60405180910390f35b610155600480360381019061015091906104d4565b610200565b005b34801561016357600080fd5b5061017e60048036038101906101799190610541565b61024b565b005b61019a600480360381019061019591906104d4565b6102e8565b005b3480156101a857600080fd5b506101c360048036038101906101be9190610541565b610333565b005b6101cd6103ce565b005b3480156101db57600080fd5b506101f660048036038101906101f19190610541565b6103d0565b005b600030905090565b8173ffffffffffffffffffffffffffffffffffffffff166108fc829081150290604051600060405180830381858888f19350505050158015610246573d6000803e3d6000fd5b505050565b8273ffffffffffffffffffffffffffffffffffffffff166323b872dd3084846040518463ffffffff1660e01b8152600401610288939291906105ff565b602060405180830381600087803b1580156102a257600080fd5b505af11580156102b6573d6000803e3d6000fd5b505050506040513d601f19601f820116820180604052508101906102da9190610514565b6102e357600080fd5b505050565b8173ffffffffffffffffffffffffffffffffffffffff166108fc829081150290604051600060405180830381858888f1935050505015801561032e573d6000803e3d6000fd5b505050565b8273ffffffffffffffffffffffffffffffffffffffff1663a9059cbb83836040518363ffffffff1660e01b815260040161036e929190610636565b602060405180830381600087803b15801561038857600080fd5b505af115801561039c573d6000803e3d6000fd5b505050506040513d601f19601f820116820180604052508101906103c09190610514565b6103c957600080fd5b505050565b565b8273ffffffffffffffffffffffffffffffffffffffff1663095ea7b383836040518363ffffffff1660e01b815260040161040b929190610636565b602060405180830381600087803b15801561042557600080fd5b505af1158015610439573d6000803e3d6000fd5b505050506040513d601f19601f8201168201806040525081019061045d9190610514565b61046657600080fd5b505050565b60008135905061047a8161072a565b92915050565b60008135905061048f81610741565b92915050565b6000815190506104a481610758565b92915050565b6000813590506104b98161076f565b92915050565b6000813590506104ce81610786565b92915050565b600080604083850312156104eb576104ea6106fc565b5b60006104f985828601610480565b925050602061050a858286016104bf565b9150509250929050565b60006020828403121561052a576105296106fc565b5b600061053884828501610495565b91505092915050565b60008060006060848603121561055a576105596106fc565b5b6000610568868287016104aa565b93505060206105798682870161046b565b925050604061058a868287016104bf565b9150509250925092565b61059d816106a2565b82525050565b6105ac81610690565b82525050565b60006105bf60108361067f565b91506105ca82610701565b602082019050919050565b6105de816106f2565b82525050565b60006020820190506105f96000830184610594565b92915050565b600060608201905061061460008301866105a3565b61062160208301856105a3565b61062e60408301846105d5565b949350505050565b600060408201905061064b60008301856105a3565b61065860208301846105d5565b9392505050565b60006020820190508181036000830152610678816105b2565b9050919050565b600082825260208201905092915050565b600061069b826106d2565b9050919050565b60006106ad826106d2565b9050919050565b60008115159050919050565b60006106cb82610690565b9050919050565b600073ffffffffffffffffffffffffffffffffffffffff82169050919050565b6000819050919050565b600080fd5b7f6e65656420696e697420626f756e747900000000000000000000000000000000600082015250565b61073381610690565b811461073e57600080fd5b50565b61074a816106a2565b811461075557600080fd5b50565b610761816106b4565b811461076c57600080fd5b50565b610778816106c0565b811461078357600080fd5b50565b61078f816106f2565b811461079a57600080fd5b5056fea2646970667358221220e52fc63eaacbb6482b8c5f4427035bcd38bb5a9f5b405182afc4a910beee99ed64736f6c63430008070033a2646970667358221220170ccf730fb7257eb179ada662e89c6dbcf86e55f676055b35b4bf2ee24fdf4d64736f6c63430008070033",
					"opcodes": "PUSH1 0x80 PUSH1 0x40 MSTORE PUSH20 0xB97EF9EF8734C71904D8002F8B6BC66DD9C48A6E PUSH1 0x4 PUSH1 0x0 PUSH2 0x100 EXP DUP2 SLOAD DUP2 PUSH20 0xFFFFFFFFFFFFFFFFFFFFFFFFFFFFFFFFFFFFFFFF MUL NOT AND SWAP1 DUP4 PUSH20 0xFFFFFFFFFFFFFFFFFFFFFFFFFFFFFFFFFFFFFFFF AND MUL OR SWAP1 SSTORE POP CALLVALUE DUP1 ISZERO PUSH2 0x65 JUMPI PUSH1 0x0 DUP1 REVERT JUMPDEST POP CALLER PUSH1 0x0 DUP1 PUSH2 0x100 EXP DUP2 SLOAD DUP2 PUSH20 0xFFFFFFFFFFFFFFFFFFFFFFFFFFFFFFFFFFFFFFFF MUL NOT AND SWAP1 DUP4 PUSH20 0xFFFFFFFFFFFFFFFFFFFFFFFFFFFFFFFFFFFFFFFF AND MUL OR SWAP1 SSTORE POP CALLER PUSH1 0x0 DUP1 PUSH2 0x100 EXP DUP2 SLOAD DUP2 PUSH20 0xFFFFFFFFFFFFFFFFFFFFFFFFFFFFFFFFFFFFFFFF MUL NOT AND SWAP1 DUP4 PUSH20 0xFFFFFFFFFFFFFFFFFFFFFFFFFFFFFFFFFFFFFFFF AND MUL OR SWAP1 SSTORE POP PUSH2 0x18FA DUP1 PUSH2 0xF5 PUSH1 0x0 CODECOPY PUSH1 0x0 RETURN INVALID PUSH1 0x80 PUSH1 0x40 MSTORE PUSH1 0x4 CALLDATASIZE LT PUSH2 0x59 JUMPI PUSH1 0x0 CALLDATALOAD PUSH1 0xE0 SHR DUP1 PUSH4 0x14DA447F EQ PUSH2 0x68 JUMPI DUP1 PUSH4 0x3F28E9FB EQ PUSH2 0x91 JUMPI DUP1 PUSH4 0x46964A0A EQ PUSH2 0xAD JUMPI DUP1 PUSH4 0x5F0024B7 EQ PUSH2 0xD6 JUMPI DUP1 PUSH4 0xF2FDE38B EQ PUSH2 0x114 JUMPI DUP1 PUSH4 0xFA89401A EQ PUSH2 0x13D JUMPI PUSH2 0x63 JUMP JUMPDEST CALLDATASIZE PUSH2 0x63 JUMPI PUSH1 0x0 DUP1 REVERT JUMPDEST PUSH1 0x0 DUP1 REVERT JUMPDEST CALLVALUE DUP1 ISZERO PUSH2 0x74 JUMPI PUSH1 0x0 DUP1 REVERT JUMPDEST POP PUSH2 0x8F PUSH1 0x4 DUP1 CALLDATASIZE SUB DUP2 ADD SWAP1 PUSH2 0x8A SWAP2 SWAP1 PUSH2 0x9A3 JUMP JUMPDEST PUSH2 0x159 JUMP JUMPDEST STOP JUMPDEST PUSH2 0xAB PUSH1 0x4 DUP1 CALLDATASIZE SUB DUP2 ADD SWAP1 PUSH2 0xA6 SWAP2 SWAP1 PUSH2 0xAED JUMP JUMPDEST PUSH2 0x1CE JUMP JUMPDEST STOP JUMPDEST CALLVALUE DUP1 ISZERO PUSH2 0xB9 JUMPI PUSH1 0x0 DUP1 REVERT JUMPDEST POP PUSH2 0xD4 PUSH1 0x4 DUP1 CALLDATASIZE SUB DUP2 ADD SWAP1 PUSH2 0xCF SWAP2 SWAP1 PUSH2 0xA6A JUMP JUMPDEST PUSH2 0x4BF JUMP JUMPDEST STOP JUMPDEST CALLVALUE DUP1 ISZERO PUSH2 0xE2 JUMPI PUSH1 0x0 DUP1 REVERT JUMPDEST POP PUSH2 0xFD PUSH1 0x4 DUP1 CALLDATASIZE SUB DUP2 ADD SWAP1 PUSH2 0xF8 SWAP2 SWAP1 PUSH2 0x9FD JUMP JUMPDEST PUSH2 0x4C5 JUMP JUMPDEST PUSH1 0x40 MLOAD PUSH2 0x10B SWAP3 SWAP2 SWAP1 PUSH2 0xBC6 JUMP JUMPDEST PUSH1 0x40 MLOAD DUP1 SWAP2 SUB SWAP1 RETURN JUMPDEST CALLVALUE DUP1 ISZERO PUSH2 0x120 JUMPI PUSH1 0x0 DUP1 REVERT JUMPDEST POP PUSH2 0x13B PUSH1 0x4 DUP1 CALLDATASIZE SUB DUP2 ADD SWAP1 PUSH2 0x136 SWAP2 SWAP1 PUSH2 0x976 JUMP JUMPDEST PUSH2 0x526 JUMP JUMPDEST STOP JUMPDEST PUSH2 0x157 PUSH1 0x4 DUP1 CALLDATASIZE SUB DUP2 ADD SWAP1 PUSH2 0x152 SWAP2 SWAP1 PUSH2 0x9A3 JUMP JUMPDEST PUSH2 0x5FE JUMP JUMPDEST STOP JUMPDEST PUSH1 0x0 DUP1 SLOAD SWAP1 PUSH2 0x100 EXP SWAP1 DIV PUSH20 0xFFFFFFFFFFFFFFFFFFFFFFFFFFFFFFFFFFFFFFFF AND PUSH20 0xFFFFFFFFFFFFFFFFFFFFFFFFFFFFFFFFFFFFFFFF AND CALLER PUSH20 0xFFFFFFFFFFFFFFFFFFFFFFFFFFFFFFFFFFFFFFFF AND EQ PUSH2 0x1B5 JUMPI PUSH2 0x1B4 PUSH2 0xE25 JUMP JUMPDEST JUMPDEST DUP1 PUSH20 0xFFFFFFFFFFFFFFFFFFFFFFFFFFFFFFFFFFFFFFFF AND SELFDESTRUCT JUMPDEST PUSH1 0x0 ADDRESS PUSH1 0x40 MLOAD PUSH2 0x1DD SWAP1 PUSH2 0x88F JUMP JUMPDEST PUSH2 0x1E7 SWAP2 SWAP1 PUSH2 0xBAB JUMP JUMPDEST PUSH1 0x40 MLOAD DUP1 SWAP2 SUB SWAP1 PUSH1 0x0 CREATE DUP1 ISZERO DUP1 ISZERO PUSH2 0x203 JUMPI RETURNDATASIZE PUSH1 0x0 DUP1 RETURNDATACOPY RETURNDATASIZE PUSH1 0x0 REVERT JUMPDEST POP SWAP1 POP PUSH1 0x4 PUSH1 0x0 SWAP1 SLOAD SWAP1 PUSH2 0x100 EXP SWAP1 DIV PUSH20 0xFFFFFFFFFFFFFFFFFFFFFFFFFFFFFFFFFFFFFFFF AND PUSH20 0xFFFFFFFFFFFFFFFFFFFFFFFFFFFFFFFFFFFFFFFF AND PUSH4 0x23B872DD CALLER DUP4 PUSH20 0xFFFFFFFFFFFFFFFFFFFFFFFFFFFFFFFFFFFFFFFF AND PUSH4 0x26B1D5F PUSH1 0x40 MLOAD DUP2 PUSH4 0xFFFFFFFF AND PUSH1 0xE0 SHL DUP2 MSTORE PUSH1 0x4 ADD PUSH1 0x20 PUSH1 0x40 MLOAD DUP1 DUP4 SUB DUP2 DUP7 DUP1 EXTCODESIZE ISZERO DUP1 ISZERO PUSH2 0x28B JUMPI PUSH1 0x0 DUP1 REVERT JUMPDEST POP GAS STATICCALL ISZERO DUP1 ISZERO PUSH2 0x29F JUMPI RETURNDATASIZE PUSH1 0x0 DUP1 RETURNDATACOPY RETURNDATASIZE PUSH1 0x0 REVERT JUMPDEST POP POP POP POP PUSH1 0x40 MLOAD RETURNDATASIZE PUSH1 0x1F NOT PUSH1 0x1F DUP3 ADD AND DUP3 ADD DUP1 PUSH1 0x40 MSTORE POP DUP2 ADD SWAP1 PUSH2 0x2C3 SWAP2 SWAP1 PUSH2 0x9D0 JUMP JUMPDEST DUP6 PUSH1 0x40 MLOAD DUP5 PUSH4 0xFFFFFFFF AND PUSH1 0xE0 SHL DUP2 MSTORE PUSH1 0x4 ADD PUSH2 0x2E2 SWAP4 SWAP3 SWAP2 SWAP1 PUSH2 0xBEF JUMP JUMPDEST PUSH1 0x20 PUSH1 0x40 MLOAD DUP1 DUP4 SUB DUP2 PUSH1 0x0 DUP8 DUP1 EXTCODESIZE ISZERO DUP1 ISZERO PUSH2 0x2FC JUMPI PUSH1 0x0 DUP1 REVERT JUMPDEST POP GAS CALL ISZERO DUP1 ISZERO PUSH2 0x310 JUMPI RETURNDATASIZE PUSH1 0x0 DUP1 RETURNDATACOPY RETURNDATASIZE PUSH1 0x0 REVERT JUMPDEST POP POP POP POP PUSH1 0x40 MLOAD RETURNDATASIZE PUSH1 0x1F NOT PUSH1 0x1F DUP3 ADD AND DUP3 ADD DUP1 PUSH1 0x40 MSTORE POP DUP2 ADD SWAP1 PUSH2 0x334 SWAP2 SWAP1 PUSH2 0xA3D JUMP JUMPDEST POP PUSH1 0x3 DUP2 SWAP1 DUP1 PUSH1 0x1 DUP2 SLOAD ADD DUP1 DUP3 SSTORE DUP1 SWAP2 POP POP PUSH1 0x1 SWAP1 SUB SWAP1 PUSH1 0x0 MSTORE PUSH1 0x20 PUSH1 0x0 KECCAK256 ADD PUSH1 0x0 SWAP1 SWAP2 SWAP1 SWAP2 SWAP1 SWAP2 PUSH2 0x100 EXP DUP2 SLOAD DUP2 PUSH20 0xFFFFFFFFFFFFFFFFFFFFFFFFFFFFFFFFFFFFFFFF MUL NOT AND SWAP1 DUP4 PUSH20 0xFFFFFFFFFFFFFFFFFFFFFFFFFFFFFFFFFFFFFFFF AND MUL OR SWAP1 SSTORE POP PUSH1 0x0 PUSH1 0x40 MLOAD DUP1 PUSH1 0x40 ADD PUSH1 0x40 MSTORE DUP1 CALLER PUSH20 0xFFFFFFFFFFFFFFFFFFFFFFFFFFFFFFFFFFFFFFFF AND DUP2 MSTORE PUSH1 0x20 ADD CALLVALUE DUP2 MSTORE POP SWAP1 POP PUSH1 0x2 PUSH1 0x0 DUP4 PUSH20 0xFFFFFFFFFFFFFFFFFFFFFFFFFFFFFFFFFFFFFFFF AND PUSH20 0xFFFFFFFFFFFFFFFFFFFFFFFFFFFFFFFFFFFFFFFF AND DUP2 MSTORE PUSH1 0x20 ADD SWAP1 DUP2 MSTORE PUSH1 0x20 ADD PUSH1 0x0 KECCAK256 DUP2 SWAP1 DUP1 PUSH1 0x1 DUP2 SLOAD ADD DUP1 DUP3 SSTORE DUP1 SWAP2 POP POP PUSH1 0x1 SWAP1 SUB SWAP1 PUSH1 0x0 MSTORE PUSH1 0x20 PUSH1 0x0 KECCAK256 SWAP1 PUSH1 0x2 MUL ADD PUSH1 0x0 SWAP1 SWAP2 SWAP1 SWAP2 SWAP1 SWAP2 POP PUSH1 0x0 DUP3 ADD MLOAD DUP2 PUSH1 0x0 ADD PUSH1 0x0 PUSH2 0x100 EXP DUP2 SLOAD DUP2 PUSH20 0xFFFFFFFFFFFFFFFFFFFFFFFFFFFFFFFFFFFFFFFF MUL NOT AND SWAP1 DUP4 PUSH20 0xFFFFFFFFFFFFFFFFFFFFFFFFFFFFFFFFFFFFFFFF AND MUL OR SWAP1 SSTORE POP PUSH1 0x20 DUP3 ADD MLOAD DUP2 PUSH1 0x1 ADD SSTORE POP POP PUSH32 0x1BDA7BB843640650292C2A26A73106328E0F83C1C09EA1A4176DF3912EE47FF6 DUP3 PUSH1 0x40 MLOAD PUSH2 0x4B2 SWAP2 SWAP1 PUSH2 0xC26 JUMP JUMPDEST PUSH1 0x40 MLOAD DUP1 SWAP2 SUB SWAP1 LOG1 POP POP POP JUMP JUMPDEST POP POP POP POP JUMP JUMPDEST PUSH1 0x2 PUSH1 0x20 MSTORE DUP2 PUSH1 0x0 MSTORE PUSH1 0x40 PUSH1 0x0 KECCAK256 DUP2 DUP2 SLOAD DUP2 LT PUSH2 0x4E1 JUMPI PUSH1 0x0 DUP1 REVERT JUMPDEST SWAP1 PUSH1 0x0 MSTORE PUSH1 0x20 PUSH1 0x0 KECCAK256 SWAP1 PUSH1 0x2 MUL ADD PUSH1 0x0 SWAP2 POP SWAP2 POP POP DUP1 PUSH1 0x0 ADD PUSH1 0x0 SWAP1 SLOAD SWAP1 PUSH2 0x100 EXP SWAP1 DIV PUSH20 0xFFFFFFFFFFFFFFFFFFFFFFFFFFFFFFFFFFFFFFFF AND SWAP1 DUP1 PUSH1 0x1 ADD SLOAD SWAP1 POP DUP3 JUMP JUMPDEST PUSH1 0x0 DUP1 SLOAD SWAP1 PUSH2 0x100 EXP SWAP1 DIV PUSH20 0xFFFFFFFFFFFFFFFFFFFFFFFFFFFFFFFFFFFFFFFF AND PUSH20 0xFFFFFFFFFFFFFFFFFFFFFFFFFFFFFFFFFFFFFFFF AND CALLER PUSH20 0xFFFFFFFFFFFFFFFFFFFFFFFFFFFFFFFFFFFFFFFF AND EQ PUSH2 0x582 JUMPI PUSH2 0x581 PUSH2 0xE25 JUMP JUMPDEST JUMPDEST PUSH1 0x0 PUSH20 0xFFFFFFFFFFFFFFFFFFFFFFFFFFFFFFFFFFFFFFFF AND DUP2 PUSH20 0xFFFFFFFFFFFFFFFFFFFFFFFFFFFFFFFFFFFFFFFF AND EQ ISZERO PUSH2 0x5F2 JUMPI PUSH1 0x40 MLOAD PUSH32 0x8C379A000000000000000000000000000000000000000000000000000000000 DUP2 MSTORE PUSH1 0x4 ADD PUSH2 0x5E9 SWAP1 PUSH2 0xC41 JUMP JUMPDEST PUSH1 0x40 MLOAD DUP1 SWAP2 SUB SWAP1 REVERT JUMPDEST PUSH2 0x5FB DUP2 PUSH2 0x7CB JUMP JUMPDEST POP JUMP JUMPDEST PUSH1 0x0 PUSH20 0xFFFFFFFFFFFFFFFFFFFFFFFFFFFFFFFFFFFFFFFF AND DUP2 PUSH20 0xFFFFFFFFFFFFFFFFFFFFFFFFFFFFFFFFFFFFFFFF AND EQ ISZERO PUSH2 0x66E JUMPI PUSH1 0x40 MLOAD PUSH32 0x8C379A000000000000000000000000000000000000000000000000000000000 DUP2 MSTORE PUSH1 0x4 ADD PUSH2 0x665 SWAP1 PUSH2 0xC61 JUMP JUMPDEST PUSH1 0x40 MLOAD DUP1 SWAP2 SUB SWAP1 REVERT JUMPDEST PUSH1 0x0 JUMPDEST PUSH1 0x2 PUSH1 0x0 DUP4 PUSH20 0xFFFFFFFFFFFFFFFFFFFFFFFFFFFFFFFFFFFFFFFF AND PUSH20 0xFFFFFFFFFFFFFFFFFFFFFFFFFFFFFFFFFFFFFFFF AND DUP2 MSTORE PUSH1 0x20 ADD SWAP1 DUP2 MSTORE PUSH1 0x20 ADD PUSH1 0x0 KECCAK256 DUP1 SLOAD SWAP1 POP DUP2 LT ISZERO PUSH2 0x7C7 JUMPI PUSH1 0x0 PUSH1 0x2 PUSH1 0x0 DUP5 PUSH20 0xFFFFFFFFFFFFFFFFFFFFFFFFFFFFFFFFFFFFFFFF AND PUSH20 0xFFFFFFFFFFFFFFFFFFFFFFFFFFFFFFFFFFFFFFFF AND DUP2 MSTORE PUSH1 0x20 ADD SWAP1 DUP2 MSTORE PUSH1 0x20 ADD PUSH1 0x0 KECCAK256 DUP3 DUP2 SLOAD DUP2 LT PUSH2 0x70E JUMPI PUSH2 0x70D PUSH2 0xE83 JUMP JUMPDEST JUMPDEST SWAP1 PUSH1 0x0 MSTORE PUSH1 0x20 PUSH1 0x0 KECCAK256 SWAP1 PUSH1 0x2 MUL ADD SWAP1 POP DUP3 PUSH20 0xFFFFFFFFFFFFFFFFFFFFFFFFFFFFFFFFFFFFFFFF AND PUSH4 0x4F95A04B DUP3 PUSH1 0x0 ADD PUSH1 0x0 SWAP1 SLOAD SWAP1 PUSH2 0x100 EXP SWAP1 DIV PUSH20 0xFFFFFFFFFFFFFFFFFFFFFFFFFFFFFFFFFFFFFFFF AND DUP4 PUSH1 0x1 ADD SLOAD PUSH1 0x40 MLOAD DUP4 PUSH4 0xFFFFFFFF AND PUSH1 0xE0 SHL DUP2 MSTORE PUSH1 0x4 ADD PUSH2 0x781 SWAP3 SWAP2 SWAP1 PUSH2 0xBC6 JUMP JUMPDEST PUSH1 0x0 PUSH1 0x40 MLOAD DUP1 DUP4 SUB DUP2 PUSH1 0x0 DUP8 DUP1 EXTCODESIZE ISZERO DUP1 ISZERO PUSH2 0x79B JUMPI PUSH1 0x0 DUP1 REVERT JUMPDEST POP GAS CALL ISZERO DUP1 ISZERO PUSH2 0x7AF JUMPI RETURNDATASIZE PUSH1 0x0 DUP1 RETURNDATACOPY RETURNDATASIZE PUSH1 0x0 REVERT JUMPDEST POP POP POP POP POP DUP1 DUP1 PUSH2 0x7BF SWAP1 PUSH2 0xDDC JUMP JUMPDEST SWAP2 POP POP PUSH2 0x671 JUMP JUMPDEST POP POP JUMP JUMPDEST PUSH1 0x0 DUP1 PUSH1 0x0 SWAP1 SLOAD SWAP1 PUSH2 0x100 EXP SWAP1 DIV PUSH20 0xFFFFFFFFFFFFFFFFFFFFFFFFFFFFFFFFFFFFFFFF AND SWAP1 POP DUP2 PUSH1 0x0 DUP1 PUSH2 0x100 EXP DUP2 SLOAD DUP2 PUSH20 0xFFFFFFFFFFFFFFFFFFFFFFFFFFFFFFFFFFFFFFFF MUL NOT AND SWAP1 DUP4 PUSH20 0xFFFFFFFFFFFFFFFFFFFFFFFFFFFFFFFFFFFFFFFF AND MUL OR SWAP1 SSTORE POP DUP2 PUSH20 0xFFFFFFFFFFFFFFFFFFFFFFFFFFFFFFFFFFFFFFFF AND DUP2 PUSH20 0xFFFFFFFFFFFFFFFFFFFFFFFFFFFFFFFFFFFFFFFF AND PUSH32 0x8BE0079C531659141344CD1FD0A4F28419497F9722A3DAAFE3B4186F6B6457E0 PUSH1 0x40 MLOAD PUSH1 0x40 MLOAD DUP1 SWAP2 SUB SWAP1 LOG3 POP POP JUMP JUMPDEST PUSH2 0x8EA DUP1 PUSH3 0xFDB DUP4 CODECOPY ADD SWAP1 JUMP JUMPDEST PUSH1 0x0 PUSH2 0x8B0 PUSH2 0x8AB DUP5 PUSH2 0xCA6 JUMP JUMPDEST PUSH2 0xC81 JUMP JUMPDEST SWAP1 POP DUP3 DUP2 MSTORE PUSH1 0x20 DUP2 ADD DUP5 DUP5 DUP5 ADD GT ISZERO PUSH2 0x8CC JUMPI PUSH2 0x8CB PUSH2 0xEE6 JUMP JUMPDEST JUMPDEST PUSH2 0x8D7 DUP5 DUP3 DUP6 PUSH2 0xD9C JUMP JUMPDEST POP SWAP4 SWAP3 POP POP POP JUMP JUMPDEST PUSH1 0x0 DUP2 CALLDATALOAD SWAP1 POP PUSH2 0x8EE DUP2 PUSH2 0xF7E JUMP JUMPDEST SWAP3 SWAP2 POP POP JUMP JUMPDEST PUSH1 0x0 DUP2 CALLDATALOAD SWAP1 POP PUSH2 0x903 DUP2 PUSH2 0xF95 JUMP JUMPDEST SWAP3 SWAP2 POP POP JUMP JUMPDEST PUSH1 0x0 DUP2 MLOAD SWAP1 POP PUSH2 0x918 DUP2 PUSH2 0xF95 JUMP JUMPDEST SWAP3 SWAP2 POP POP JUMP JUMPDEST PUSH1 0x0 DUP2 MLOAD SWAP1 POP PUSH2 0x92D DUP2 PUSH2 0xFAC JUMP JUMPDEST SWAP3 SWAP2 POP POP JUMP JUMPDEST PUSH1 0x0 DUP3 PUSH1 0x1F DUP4 ADD SLT PUSH2 0x948 JUMPI PUSH2 0x947 PUSH2 0xEE1 JUMP JUMPDEST JUMPDEST DUP2 CALLDATALOAD PUSH2 0x958 DUP5 DUP3 PUSH1 0x20 DUP7 ADD PUSH2 0x89D JUMP JUMPDEST SWAP2 POP POP SWAP3 SWAP2 POP POP JUMP JUMPDEST PUSH1 0x0 DUP2 CALLDATALOAD SWAP1 POP PUSH2 0x970 DUP2 PUSH2 0xFC3 JUMP JUMPDEST SWAP3 SWAP2 POP POP JUMP JUMPDEST PUSH1 0x0 PUSH1 0x20 DUP3 DUP5 SUB SLT ISZERO PUSH2 0x98C JUMPI PUSH2 0x98B PUSH2 0xEF0 JUMP JUMPDEST JUMPDEST PUSH1 0x0 PUSH2 0x99A DUP5 DUP3 DUP6 ADD PUSH2 0x8DF JUMP JUMPDEST SWAP2 POP POP SWAP3 SWAP2 POP POP JUMP JUMPDEST PUSH1 0x0 PUSH1 0x20 DUP3 DUP5 SUB SLT ISZERO PUSH2 0x9B9 JUMPI PUSH2 0x9B8 PUSH2 0xEF0 JUMP JUMPDEST JUMPDEST PUSH1 0x0 PUSH2 0x9C7 DUP5 DUP3 DUP6 ADD PUSH2 0x8F4 JUMP JUMPDEST SWAP2 POP POP SWAP3 SWAP2 POP POP JUMP JUMPDEST PUSH1 0x0 PUSH1 0x20 DUP3 DUP5 SUB SLT ISZERO PUSH2 0x9E6 JUMPI PUSH2 0x9E5 PUSH2 0xEF0 JUMP JUMPDEST JUMPDEST PUSH1 0x0 PUSH2 0x9F4 DUP5 DUP3 DUP6 ADD PUSH2 0x909 JUMP JUMPDEST SWAP2 POP POP SWAP3 SWAP2 POP POP JUMP JUMPDEST PUSH1 0x0 DUP1 PUSH1 0x40 DUP4 DUP6 SUB SLT ISZERO PUSH2 0xA14 JUMPI PUSH2 0xA13 PUSH2 0xEF0 JUMP JUMPDEST JUMPDEST PUSH1 0x0 PUSH2 0xA22 DUP6 DUP3 DUP7 ADD PUSH2 0x8DF JUMP JUMPDEST SWAP3 POP POP PUSH1 0x20 PUSH2 0xA33 DUP6 DUP3 DUP7 ADD PUSH2 0x961 JUMP JUMPDEST SWAP2 POP POP SWAP3 POP SWAP3 SWAP1 POP JUMP JUMPDEST PUSH1 0x0 PUSH1 0x20 DUP3 DUP5 SUB SLT ISZERO PUSH2 0xA53 JUMPI PUSH2 0xA52 PUSH2 0xEF0 JUMP JUMPDEST JUMPDEST PUSH1 0x0 PUSH2 0xA61 DUP5 DUP3 DUP6 ADD PUSH2 0x91E JUMP JUMPDEST SWAP2 POP POP SWAP3 SWAP2 POP POP JUMP JUMPDEST PUSH1 0x0 DUP1 PUSH1 0x0 DUP1 PUSH1 0x80 DUP6 DUP8 SUB SLT ISZERO PUSH2 0xA84 JUMPI PUSH2 0xA83 PUSH2 0xEF0 JUMP JUMPDEST JUMPDEST PUSH1 0x0 DUP6 ADD CALLDATALOAD PUSH8 0xFFFFFFFFFFFFFFFF DUP2 GT ISZERO PUSH2 0xAA2 JUMPI PUSH2 0xAA1 PUSH2 0xEEB JUMP JUMPDEST JUMPDEST PUSH2 0xAAE DUP8 DUP3 DUP9 ADD PUSH2 0x933 JUMP JUMPDEST SWAP5 POP POP PUSH1 0x20 PUSH2 0xABF DUP8 DUP3 DUP9 ADD PUSH2 0x8F4 JUMP JUMPDEST SWAP4 POP POP PUSH1 0x40 PUSH2 0xAD0 DUP8 DUP3 DUP9 ADD PUSH2 0x961 JUMP JUMPDEST SWAP3 POP POP PUSH1 0x60 PUSH2 0xAE1 DUP8 DUP3 DUP9 ADD PUSH2 0x961 JUMP JUMPDEST SWAP2 POP POP SWAP3 SWAP6 SWAP2 SWAP5 POP SWAP3 POP JUMP JUMPDEST PUSH1 0x0 PUSH1 0x20 DUP3 DUP5 SUB SLT ISZERO PUSH2 0xB03 JUMPI PUSH2 0xB02 PUSH2 0xEF0 JUMP JUMPDEST JUMPDEST PUSH1 0x0 PUSH2 0xB11 DUP5 DUP3 DUP6 ADD PUSH2 0x961 JUMP JUMPDEST SWAP2 POP POP SWAP3 SWAP2 POP POP JUMP JUMPDEST PUSH2 0xB23 DUP2 PUSH2 0xD42 JUMP JUMPDEST DUP3 MSTORE POP POP JUMP JUMPDEST PUSH2 0xB32 DUP2 PUSH2 0xCFA JUMP JUMPDEST DUP3 MSTORE POP POP JUMP JUMPDEST PUSH2 0xB41 DUP2 PUSH2 0xCE8 JUMP JUMPDEST DUP3 MSTORE POP POP JUMP JUMPDEST PUSH2 0xB50 DUP2 PUSH2 0xD54 JUMP JUMPDEST DUP3 MSTORE POP POP JUMP JUMPDEST PUSH1 0x0 PUSH2 0xB63 PUSH1 0x26 DUP4 PUSH2 0xCD7 JUMP JUMPDEST SWAP2 POP PUSH2 0xB6E DUP3 PUSH2 0xF06 JUMP JUMPDEST PUSH1 0x40 DUP3 ADD SWAP1 POP SWAP2 SWAP1 POP JUMP JUMPDEST PUSH1 0x0 PUSH2 0xB86 PUSH1 0xA DUP4 PUSH2 0xCD7 JUMP JUMPDEST SWAP2 POP PUSH2 0xB91 DUP3 PUSH2 0xF55 JUMP JUMPDEST PUSH1 0x20 DUP3 ADD SWAP1 POP SWAP2 SWAP1 POP JUMP JUMPDEST PUSH2 0xBA5 DUP2 PUSH2 0xD38 JUMP JUMPDEST DUP3 MSTORE POP POP JUMP JUMPDEST PUSH1 0x0 PUSH1 0x20 DUP3 ADD SWAP1 POP PUSH2 0xBC0 PUSH1 0x0 DUP4 ADD DUP5 PUSH2 0xB38 JUMP JUMPDEST SWAP3 SWAP2 POP POP JUMP JUMPDEST PUSH1 0x0 PUSH1 0x40 DUP3 ADD SWAP1 POP PUSH2 0xBDB PUSH1 0x0 DUP4 ADD DUP6 PUSH2 0xB29 JUMP JUMPDEST PUSH2 0xBE8 PUSH1 0x20 DUP4 ADD DUP5 PUSH2 0xB9C JUMP JUMPDEST SWAP4 SWAP3 POP POP POP JUMP JUMPDEST PUSH1 0x0 PUSH1 0x60 DUP3 ADD SWAP1 POP PUSH2 0xC04 PUSH1 0x0 DUP4 ADD DUP7 PUSH2 0xB38 JUMP JUMPDEST PUSH2 0xC11 PUSH1 0x20 DUP4 ADD DUP6 PUSH2 0xB1A JUMP JUMPDEST PUSH2 0xC1E PUSH1 0x40 DUP4 ADD DUP5 PUSH2 0xB9C JUMP JUMPDEST SWAP5 SWAP4 POP POP POP POP JUMP JUMPDEST PUSH1 0x0 PUSH1 0x20 DUP3 ADD SWAP1 POP PUSH2 0xC3B PUSH1 0x0 DUP4 ADD DUP5 PUSH2 0xB47 JUMP JUMPDEST SWAP3 SWAP2 POP POP JUMP JUMPDEST PUSH1 0x0 PUSH1 0x20 DUP3 ADD SWAP1 POP DUP2 DUP2 SUB PUSH1 0x0 DUP4 ADD MSTORE PUSH2 0xC5A DUP2 PUSH2 0xB56 JUMP JUMPDEST SWAP1 POP SWAP2 SWAP1 POP JUMP JUMPDEST PUSH1 0x0 PUSH1 0x20 DUP3 ADD SWAP1 POP DUP2 DUP2 SUB PUSH1 0x0 DUP4 ADD MSTORE PUSH2 0xC7A DUP2 PUSH2 0xB79 JUMP JUMPDEST SWAP1 POP SWAP2 SWAP1 POP JUMP JUMPDEST PUSH1 0x0 PUSH2 0xC8B PUSH2 0xC9C JUMP JUMPDEST SWAP1 POP PUSH2 0xC97 DUP3 DUP3 PUSH2 0xDAB JUMP JUMPDEST SWAP2 SWAP1 POP JUMP JUMPDEST PUSH1 0x0 PUSH1 0x40 MLOAD SWAP1 POP SWAP1 JUMP JUMPDEST PUSH1 0x0 PUSH8 0xFFFFFFFFFFFFFFFF DUP3 GT ISZERO PUSH2 0xCC1 JUMPI PUSH2 0xCC0 PUSH2 0xEB2 JUMP JUMPDEST JUMPDEST PUSH2 0xCCA DUP3 PUSH2 0xEF5 JUMP JUMPDEST SWAP1 POP PUSH1 0x20 DUP2 ADD SWAP1 POP SWAP2 SWAP1 POP JUMP JUMPDEST PUSH1 0x0 DUP3 DUP3 MSTORE PUSH1 0x20 DUP3 ADD SWAP1 POP SWAP3 SWAP2 POP POP JUMP JUMPDEST PUSH1 0x0 PUSH2 0xCF3 DUP3 PUSH2 0xD18 JUMP JUMPDEST SWAP1 POP SWAP2 SWAP1 POP JUMP JUMPDEST PUSH1 0x0 PUSH2 0xD05 DUP3 PUSH2 0xD18 JUMP JUMPDEST SWAP1 POP SWAP2 SWAP1 POP JUMP JUMPDEST PUSH1 0x0 DUP2 ISZERO ISZERO SWAP1 POP SWAP2 SWAP1 POP JUMP JUMPDEST PUSH1 0x0 PUSH20 0xFFFFFFFFFFFFFFFFFFFFFFFFFFFFFFFFFFFFFFFF DUP3 AND SWAP1 POP SWAP2 SWAP1 POP JUMP JUMPDEST PUSH1 0x0 DUP2 SWAP1 POP SWAP2 SWAP1 POP JUMP JUMPDEST PUSH1 0x0 PUSH2 0xD4D DUP3 PUSH2 0xD66 JUMP JUMPDEST SWAP1 POP SWAP2 SWAP1 POP JUMP JUMPDEST PUSH1 0x0 PUSH2 0xD5F DUP3 PUSH2 0xD78 JUMP JUMPDEST SWAP1 POP SWAP2 SWAP1 POP JUMP JUMPDEST PUSH1 0x0 PUSH2 0xD71 DUP3 PUSH2 0xD8A JUMP JUMPDEST SWAP1 POP SWAP2 SWAP1 POP JUMP JUMPDEST PUSH1 0x0 PUSH2 0xD83 DUP3 PUSH2 0xD8A JUMP JUMPDEST SWAP1 POP SWAP2 SWAP1 POP JUMP JUMPDEST PUSH1 0x0 PUSH2 0xD95 DUP3 PUSH2 0xD18 JUMP JUMPDEST SWAP1 POP SWAP2 SWAP1 POP JUMP JUMPDEST DUP3 DUP2 DUP4 CALLDATACOPY PUSH1 0x0 DUP4 DUP4 ADD MSTORE POP POP POP JUMP JUMPDEST PUSH2 0xDB4 DUP3 PUSH2 0xEF5 JUMP JUMPDEST DUP2 ADD DUP2 DUP2 LT PUSH8 0xFFFFFFFFFFFFFFFF DUP3 GT OR ISZERO PUSH2 0xDD3 JUMPI PUSH2 0xDD2 PUSH2 0xEB2 JUMP JUMPDEST JUMPDEST DUP1 PUSH1 0x40 MSTORE POP POP POP JUMP JUMPDEST PUSH1 0x0 PUSH2 0xDE7 DUP3 PUSH2 0xD38 JUMP JUMPDEST SWAP2 POP PUSH32 0xFFFFFFFFFFFFFFFFFFFFFFFFFFFFFFFFFFFFFFFFFFFFFFFFFFFFFFFFFFFFFFFF DUP3 EQ ISZERO PUSH2 0xE1A JUMPI PUSH2 0xE19 PUSH2 0xE54 JUMP JUMPDEST JUMPDEST PUSH1 0x1 DUP3 ADD SWAP1 POP SWAP2 SWAP1 POP JUMP JUMPDEST PUSH32 0x4E487B7100000000000000000000000000000000000000000000000000000000 PUSH1 0x0 MSTORE PUSH1 0x1 PUSH1 0x4 MSTORE PUSH1 0x24 PUSH1 0x0 REVERT JUMPDEST PUSH32 0x4E487B7100000000000000000000000000000000000000000000000000000000 PUSH1 0x0 MSTORE PUSH1 0x11 PUSH1 0x4 MSTORE PUSH1 0x24 PUSH1 0x0 REVERT JUMPDEST PUSH32 0x4E487B7100000000000000000000000000000000000000000000000000000000 PUSH1 0x0 MSTORE PUSH1 0x32 PUSH1 0x4 MSTORE PUSH1 0x24 PUSH1 0x0 REVERT JUMPDEST PUSH32 0x4E487B7100000000000000000000000000000000000000000000000000000000 PUSH1 0x0 MSTORE PUSH1 0x41 PUSH1 0x4 MSTORE PUSH1 0x24 PUSH1 0x0 REVERT JUMPDEST PUSH1 0x0 DUP1 REVERT JUMPDEST PUSH1 0x0 DUP1 REVERT JUMPDEST PUSH1 0x0 DUP1 REVERT JUMPDEST PUSH1 0x0 DUP1 REVERT JUMPDEST PUSH1 0x0 PUSH1 0x1F NOT PUSH1 0x1F DUP4 ADD AND SWAP1 POP SWAP2 SWAP1 POP JUMP JUMPDEST PUSH32 0x4F776E61626C653A206E6577206F776E657220697320746865207A65726F2061 PUSH1 0x0 DUP3 ADD MSTORE PUSH32 0x6464726573730000000000000000000000000000000000000000000000000000 PUSH1 0x20 DUP3 ADD MSTORE POP JUMP JUMPDEST PUSH32 0x656D707479206164647200000000000000000000000000000000000000000000 PUSH1 0x0 DUP3 ADD MSTORE POP JUMP JUMPDEST PUSH2 0xF87 DUP2 PUSH2 0xCE8 JUMP JUMPDEST DUP2 EQ PUSH2 0xF92 JUMPI PUSH1 0x0 DUP1 REVERT JUMPDEST POP JUMP JUMPDEST PUSH2 0xF9E DUP2 PUSH2 0xCFA JUMP JUMPDEST DUP2 EQ PUSH2 0xFA9 JUMPI PUSH1 0x0 DUP1 REVERT JUMPDEST POP JUMP JUMPDEST PUSH2 0xFB5 DUP2 PUSH2 0xD0C JUMP JUMPDEST DUP2 EQ PUSH2 0xFC0 JUMPI PUSH1 0x0 DUP1 REVERT JUMPDEST POP JUMP JUMPDEST PUSH2 0xFCC DUP2 PUSH2 0xD38 JUMP JUMPDEST DUP2 EQ PUSH2 0xFD7 JUMPI PUSH1 0x0 DUP1 REVERT JUMPDEST POP JUMP INVALID PUSH1 0x80 PUSH1 0x40 MSTORE CALLVALUE DUP1 ISZERO PUSH2 0x10 JUMPI PUSH1 0x0 DUP1 REVERT JUMPDEST POP PUSH1 0x40 MLOAD PUSH2 0x8EA CODESIZE SUB DUP1 PUSH2 0x8EA DUP4 CODECOPY DUP2 DUP2 ADD PUSH1 0x40 MSTORE DUP2 ADD SWAP1 PUSH2 0x32 SWAP2 SWAP1 PUSH2 0x8D JUMP JUMPDEST DUP1 PUSH1 0x0 DUP1 PUSH2 0x100 EXP DUP2 SLOAD DUP2 PUSH20 0xFFFFFFFFFFFFFFFFFFFFFFFFFFFFFFFFFFFFFFFF MUL NOT AND SWAP1 DUP4 PUSH20 0xFFFFFFFFFFFFFFFFFFFFFFFFFFFFFFFFFFFFFFFF AND MUL OR SWAP1 SSTORE POP POP PUSH2 0x108 JUMP JUMPDEST PUSH1 0x0 DUP2 MLOAD SWAP1 POP PUSH2 0x87 DUP2 PUSH2 0xF1 JUMP JUMPDEST SWAP3 SWAP2 POP POP JUMP JUMPDEST PUSH1 0x0 PUSH1 0x20 DUP3 DUP5 SUB SLT ISZERO PUSH2 0xA3 JUMPI PUSH2 0xA2 PUSH2 0xEC JUMP JUMPDEST JUMPDEST PUSH1 0x0 PUSH2 0xB1 DUP5 DUP3 DUP6 ADD PUSH2 0x78 JUMP JUMPDEST SWAP2 POP POP SWAP3 SWAP2 POP POP JUMP JUMPDEST PUSH1 0x0 PUSH2 0xC5 DUP3 PUSH2 0xCC JUMP JUMPDEST SWAP1 POP SWAP2 SWAP1 POP JUMP JUMPDEST PUSH1 0x0 PUSH20 0xFFFFFFFFFFFFFFFFFFFFFFFFFFFFFFFFFFFFFFFF DUP3 AND SWAP1 POP SWAP2 SWAP1 POP JUMP JUMPDEST PUSH1 0x0 DUP1 REVERT JUMPDEST PUSH2 0xFA DUP2 PUSH2 0xBA JUMP JUMPDEST DUP2 EQ PUSH2 0x105 JUMPI PUSH1 0x0 DUP1 REVERT JUMPDEST POP JUMP JUMPDEST PUSH2 0x7D3 DUP1 PUSH2 0x117 PUSH1 0x0 CODECOPY PUSH1 0x0 RETURN INVALID PUSH1 0x80 PUSH1 0x40 MSTORE PUSH1 0x4 CALLDATASIZE LT PUSH2 0x74 JUMPI PUSH1 0x0 CALLDATALOAD PUSH1 0xE0 SHR DUP1 PUSH4 0x4F95A04B GT PUSH2 0x4E JUMPI DUP1 PUSH4 0x4F95A04B EQ PUSH2 0x180 JUMPI DUP1 PUSH4 0xBEABACC8 EQ PUSH2 0x19C JUMPI DUP1 PUSH4 0xD0E30DB0 EQ PUSH2 0x1C5 JUMPI DUP1 PUSH4 0xE1F21C67 EQ PUSH2 0x1CF JUMPI PUSH2 0x10B JUMP JUMPDEST DUP1 PUSH4 0x26B1D5F EQ PUSH2 0x110 JUMPI DUP1 PUSH4 0x13658F8A EQ PUSH2 0x13B JUMPI DUP1 PUSH4 0x23B872DD EQ PUSH2 0x157 JUMPI PUSH2 0x10B JUMP JUMPDEST CALLDATASIZE PUSH2 0x10B JUMPI PUSH1 0x0 PUSH20 0xFFFFFFFFFFFFFFFFFFFFFFFFFFFFFFFFFFFFFFFF AND PUSH1 0x0 DUP1 SLOAD SWAP1 PUSH2 0x100 EXP SWAP1 DIV PUSH20 0xFFFFFFFFFFFFFFFFFFFFFFFFFFFFFFFFFFFFFFFF AND PUSH20 0xFFFFFFFFFFFFFFFFFFFFFFFFFFFFFFFFFFFFFFFF AND EQ ISZERO PUSH2 0x109 JUMPI PUSH1 0x40 MLOAD PUSH32 0x8C379A000000000000000000000000000000000000000000000000000000000 DUP2 MSTORE PUSH1 0x4 ADD PUSH2 0x100 SWAP1 PUSH2 0x65F JUMP JUMPDEST PUSH1 0x40 MLOAD DUP1 SWAP2 SUB SWAP1 REVERT JUMPDEST STOP JUMPDEST PUSH1 0x0 DUP1 REVERT JUMPDEST CALLVALUE DUP1 ISZERO PUSH2 0x11C JUMPI PUSH1 0x0 DUP1 REVERT JUMPDEST POP PUSH2 0x125 PUSH2 0x1F8 JUMP JUMPDEST PUSH1 0x40 MLOAD PUSH2 0x132 SWAP2 SWAP1 PUSH2 0x5E4 JUMP JUMPDEST PUSH1 0x40 MLOAD DUP1 SWAP2 SUB SWAP1 RETURN JUMPDEST PUSH2 0x155 PUSH1 0x4 DUP1 CALLDATASIZE SUB DUP2 ADD SWAP1 PUSH2 0x150 SWAP2 SWAP1 PUSH2 0x4D4 JUMP JUMPDEST PUSH2 0x200 JUMP JUMPDEST STOP JUMPDEST CALLVALUE DUP1 ISZERO PUSH2 0x163 JUMPI PUSH1 0x0 DUP1 REVERT JUMPDEST POP PUSH2 0x17E PUSH1 0x4 DUP1 CALLDATASIZE SUB DUP2 ADD SWAP1 PUSH2 0x179 SWAP2 SWAP1 PUSH2 0x541 JUMP JUMPDEST PUSH2 0x24B JUMP JUMPDEST STOP JUMPDEST PUSH2 0x19A PUSH1 0x4 DUP1 CALLDATASIZE SUB DUP2 ADD SWAP1 PUSH2 0x195 SWAP2 SWAP1 PUSH2 0x4D4 JUMP JUMPDEST PUSH2 0x2E8 JUMP JUMPDEST STOP JUMPDEST CALLVALUE DUP1 ISZERO PUSH2 0x1A8 JUMPI PUSH1 0x0 DUP1 REVERT JUMPDEST POP PUSH2 0x1C3 PUSH1 0x4 DUP1 CALLDATASIZE SUB DUP2 ADD SWAP1 PUSH2 0x1BE SWAP2 SWAP1 PUSH2 0x541 JUMP JUMPDEST PUSH2 0x333 JUMP JUMPDEST STOP JUMPDEST PUSH2 0x1CD PUSH2 0x3CE JUMP JUMPDEST STOP JUMPDEST CALLVALUE DUP1 ISZERO PUSH2 0x1DB JUMPI PUSH1 0x0 DUP1 REVERT JUMPDEST POP PUSH2 0x1F6 PUSH1 0x4 DUP1 CALLDATASIZE SUB DUP2 ADD SWAP1 PUSH2 0x1F1 SWAP2 SWAP1 PUSH2 0x541 JUMP JUMPDEST PUSH2 0x3D0 JUMP JUMPDEST STOP JUMPDEST PUSH1 0x0 ADDRESS SWAP1 POP SWAP1 JUMP JUMPDEST DUP2 PUSH20 0xFFFFFFFFFFFFFFFFFFFFFFFFFFFFFFFFFFFFFFFF AND PUSH2 0x8FC DUP3 SWAP1 DUP2 ISZERO MUL SWAP1 PUSH1 0x40 MLOAD PUSH1 0x0 PUSH1 0x40 MLOAD DUP1 DUP4 SUB DUP2 DUP6 DUP9 DUP9 CALL SWAP4 POP POP POP POP ISZERO DUP1 ISZERO PUSH2 0x246 JUMPI RETURNDATASIZE PUSH1 0x0 DUP1 RETURNDATACOPY RETURNDATASIZE PUSH1 0x0 REVERT JUMPDEST POP POP POP JUMP JUMPDEST DUP3 PUSH20 0xFFFFFFFFFFFFFFFFFFFFFFFFFFFFFFFFFFFFFFFF AND PUSH4 0x23B872DD ADDRESS DUP5 DUP5 PUSH1 0x40 MLOAD DUP5 PUSH4 0xFFFFFFFF AND PUSH1 0xE0 SHL DUP2 MSTORE PUSH1 0x4 ADD PUSH2 0x288 SWAP4 SWAP3 SWAP2 SWAP1 PUSH2 0x5FF JUMP JUMPDEST PUSH1 0x20 PUSH1 0x40 MLOAD DUP1 DUP4 SUB DUP2 PUSH1 0x0 DUP8 DUP1 EXTCODESIZE ISZERO DUP1 ISZERO PUSH2 0x2A2 JUMPI PUSH1 0x0 DUP1 REVERT JUMPDEST POP GAS CALL ISZERO DUP1 ISZERO PUSH2 0x2B6 JUMPI RETURNDATASIZE PUSH1 0x0 DUP1 RETURNDATACOPY RETURNDATASIZE PUSH1 0x0 REVERT JUMPDEST POP POP POP POP PUSH1 0x40 MLOAD RETURNDATASIZE PUSH1 0x1F NOT PUSH1 0x1F DUP3 ADD AND DUP3 ADD DUP1 PUSH1 0x40 MSTORE POP DUP2 ADD SWAP1 PUSH2 0x2DA SWAP2 SWAP1 PUSH2 0x514 JUMP JUMPDEST PUSH2 0x2E3 JUMPI PUSH1 0x0 DUP1 REVERT JUMPDEST POP POP POP JUMP JUMPDEST DUP2 PUSH20 0xFFFFFFFFFFFFFFFFFFFFFFFFFFFFFFFFFFFFFFFF AND PUSH2 0x8FC DUP3 SWAP1 DUP2 ISZERO MUL SWAP1 PUSH1 0x40 MLOAD PUSH1 0x0 PUSH1 0x40 MLOAD DUP1 DUP4 SUB DUP2 DUP6 DUP9 DUP9 CALL SWAP4 POP POP POP POP ISZERO DUP1 ISZERO PUSH2 0x32E JUMPI RETURNDATASIZE PUSH1 0x0 DUP1 RETURNDATACOPY RETURNDATASIZE PUSH1 0x0 REVERT JUMPDEST POP POP POP JUMP JUMPDEST DUP3 PUSH20 0xFFFFFFFFFFFFFFFFFFFFFFFFFFFFFFFFFFFFFFFF AND PUSH4 0xA9059CBB DUP4 DUP4 PUSH1 0x40 MLOAD DUP4 PUSH4 0xFFFFFFFF AND PUSH1 0xE0 SHL DUP2 MSTORE PUSH1 0x4 ADD PUSH2 0x36E SWAP3 SWAP2 SWAP1 PUSH2 0x636 JUMP JUMPDEST PUSH1 0x20 PUSH1 0x40 MLOAD DUP1 DUP4 SUB DUP2 PUSH1 0x0 DUP8 DUP1 EXTCODESIZE ISZERO DUP1 ISZERO PUSH2 0x388 JUMPI PUSH1 0x0 DUP1 REVERT JUMPDEST POP GAS CALL ISZERO DUP1 ISZERO PUSH2 0x39C JUMPI RETURNDATASIZE PUSH1 0x0 DUP1 RETURNDATACOPY RETURNDATASIZE PUSH1 0x0 REVERT JUMPDEST POP POP POP POP PUSH1 0x40 MLOAD RETURNDATASIZE PUSH1 0x1F NOT PUSH1 0x1F DUP3 ADD AND DUP3 ADD DUP1 PUSH1 0x40 MSTORE POP DUP2 ADD SWAP1 PUSH2 0x3C0 SWAP2 SWAP1 PUSH2 0x514 JUMP JUMPDEST PUSH2 0x3C9 JUMPI PUSH1 0x0 DUP1 REVERT JUMPDEST POP POP POP JUMP JUMPDEST JUMP JUMPDEST DUP3 PUSH20 0xFFFFFFFFFFFFFFFFFFFFFFFFFFFFFFFFFFFFFFFF AND PUSH4 0x95EA7B3 DUP4 DUP4 PUSH1 0x40 MLOAD DUP4 PUSH4 0xFFFFFFFF AND PUSH1 0xE0 SHL DUP2 MSTORE PUSH1 0x4 ADD PUSH2 0x40B SWAP3 SWAP2 SWAP1 PUSH2 0x636 JUMP JUMPDEST PUSH1 0x20 PUSH1 0x40 MLOAD DUP1 DUP4 SUB DUP2 PUSH1 0x0 DUP8 DUP1 EXTCODESIZE ISZERO DUP1 ISZERO PUSH2 0x425 JUMPI PUSH1 0x0 DUP1 REVERT JUMPDEST POP GAS CALL ISZERO DUP1 ISZERO PUSH2 0x439 JUMPI RETURNDATASIZE PUSH1 0x0 DUP1 RETURNDATACOPY RETURNDATASIZE PUSH1 0x0 REVERT JUMPDEST POP POP POP POP PUSH1 0x40 MLOAD RETURNDATASIZE PUSH1 0x1F NOT PUSH1 0x1F DUP3 ADD AND DUP3 ADD DUP1 PUSH1 0x40 MSTORE POP DUP2 ADD SWAP1 PUSH2 0x45D SWAP2 SWAP1 PUSH2 0x514 JUMP JUMPDEST PUSH2 0x466 JUMPI PUSH1 0x0 DUP1 REVERT JUMPDEST POP POP POP JUMP JUMPDEST PUSH1 0x0 DUP2 CALLDATALOAD SWAP1 POP PUSH2 0x47A DUP2 PUSH2 0x72A JUMP JUMPDEST SWAP3 SWAP2 POP POP JUMP JUMPDEST PUSH1 0x0 DUP2 CALLDATALOAD SWAP1 POP PUSH2 0x48F DUP2 PUSH2 0x741 JUMP JUMPDEST SWAP3 SWAP2 POP POP JUMP JUMPDEST PUSH1 0x0 DUP2 MLOAD SWAP1 POP PUSH2 0x4A4 DUP2 PUSH2 0x758 JUMP JUMPDEST SWAP3 SWAP2 POP POP JUMP JUMPDEST PUSH1 0x0 DUP2 CALLDATALOAD SWAP1 POP PUSH2 0x4B9 DUP2 PUSH2 0x76F JUMP JUMPDEST SWAP3 SWAP2 POP POP JUMP JUMPDEST PUSH1 0x0 DUP2 CALLDATALOAD SWAP1 POP PUSH2 0x4CE DUP2 PUSH2 0x786 JUMP JUMPDEST SWAP3 SWAP2 POP POP JUMP JUMPDEST PUSH1 0x0 DUP1 PUSH1 0x40 DUP4 DUP6 SUB SLT ISZERO PUSH2 0x4EB JUMPI PUSH2 0x4EA PUSH2 0x6FC JUMP JUMPDEST JUMPDEST PUSH1 0x0 PUSH2 0x4F9 DUP6 DUP3 DUP7 ADD PUSH2 0x480 JUMP JUMPDEST SWAP3 POP POP PUSH1 0x20 PUSH2 0x50A DUP6 DUP3 DUP7 ADD PUSH2 0x4BF JUMP JUMPDEST SWAP2 POP POP SWAP3 POP SWAP3 SWAP1 POP JUMP JUMPDEST PUSH1 0x0 PUSH1 0x20 DUP3 DUP5 SUB SLT ISZERO PUSH2 0x52A JUMPI PUSH2 0x529 PUSH2 0x6FC JUMP JUMPDEST JUMPDEST PUSH1 0x0 PUSH2 0x538 DUP5 DUP3 DUP6 ADD PUSH2 0x495 JUMP JUMPDEST SWAP2 POP POP SWAP3 SWAP2 POP POP JUMP JUMPDEST PUSH1 0x0 DUP1 PUSH1 0x0 PUSH1 0x60 DUP5 DUP7 SUB SLT ISZERO PUSH2 0x55A JUMPI PUSH2 0x559 PUSH2 0x6FC JUMP JUMPDEST JUMPDEST PUSH1 0x0 PUSH2 0x568 DUP7 DUP3 DUP8 ADD PUSH2 0x4AA JUMP JUMPDEST SWAP4 POP POP PUSH1 0x20 PUSH2 0x579 DUP7 DUP3 DUP8 ADD PUSH2 0x46B JUMP JUMPDEST SWAP3 POP POP PUSH1 0x40 PUSH2 0x58A DUP7 DUP3 DUP8 ADD PUSH2 0x4BF JUMP JUMPDEST SWAP2 POP POP SWAP3 POP SWAP3 POP SWAP3 JUMP JUMPDEST PUSH2 0x59D DUP2 PUSH2 0x6A2 JUMP JUMPDEST DUP3 MSTORE POP POP JUMP JUMPDEST PUSH2 0x5AC DUP2 PUSH2 0x690 JUMP JUMPDEST DUP3 MSTORE POP POP JUMP JUMPDEST PUSH1 0x0 PUSH2 0x5BF PUSH1 0x10 DUP4 PUSH2 0x67F JUMP JUMPDEST SWAP2 POP PUSH2 0x5CA DUP3 PUSH2 0x701 JUMP JUMPDEST PUSH1 0x20 DUP3 ADD SWAP1 POP SWAP2 SWAP1 POP JUMP JUMPDEST PUSH2 0x5DE DUP2 PUSH2 0x6F2 JUMP JUMPDEST DUP3 MSTORE POP POP JUMP JUMPDEST PUSH1 0x0 PUSH1 0x20 DUP3 ADD SWAP1 POP PUSH2 0x5F9 PUSH1 0x0 DUP4 ADD DUP5 PUSH2 0x594 JUMP JUMPDEST SWAP3 SWAP2 POP POP JUMP JUMPDEST PUSH1 0x0 PUSH1 0x60 DUP3 ADD SWAP1 POP PUSH2 0x614 PUSH1 0x0 DUP4 ADD DUP7 PUSH2 0x5A3 JUMP JUMPDEST PUSH2 0x621 PUSH1 0x20 DUP4 ADD DUP6 PUSH2 0x5A3 JUMP JUMPDEST PUSH2 0x62E PUSH1 0x40 DUP4 ADD DUP5 PUSH2 0x5D5 JUMP JUMPDEST SWAP5 SWAP4 POP POP POP POP JUMP JUMPDEST PUSH1 0x0 PUSH1 0x40 DUP3 ADD SWAP1 POP PUSH2 0x64B PUSH1 0x0 DUP4 ADD DUP6 PUSH2 0x5A3 JUMP JUMPDEST PUSH2 0x658 PUSH1 0x20 DUP4 ADD DUP5 PUSH2 0x5D5 JUMP JUMPDEST SWAP4 SWAP3 POP POP POP JUMP JUMPDEST PUSH1 0x0 PUSH1 0x20 DUP3 ADD SWAP1 POP DUP2 DUP2 SUB PUSH1 0x0 DUP4 ADD MSTORE PUSH2 0x678 DUP2 PUSH2 0x5B2 JUMP JUMPDEST SWAP1 POP SWAP2 SWAP1 POP JUMP JUMPDEST PUSH1 0x0 DUP3 DUP3 MSTORE PUSH1 0x20 DUP3 ADD SWAP1 POP SWAP3 SWAP2 POP POP JUMP JUMPDEST PUSH1 0x0 PUSH2 0x69B DUP3 PUSH2 0x6D2 JUMP JUMPDEST SWAP1 POP SWAP2 SWAP1 POP JUMP JUMPDEST PUSH1 0x0 PUSH2 0x6AD DUP3 PUSH2 0x6D2 JUMP JUMPDEST SWAP1 POP SWAP2 SWAP1 POP JUMP JUMPDEST PUSH1 0x0 DUP2 ISZERO ISZERO SWAP1 POP SWAP2 SWAP1 POP JUMP JUMPDEST PUSH1 0x0 PUSH2 0x6CB DUP3 PUSH2 0x690 JUMP JUMPDEST SWAP1 POP SWAP2 SWAP1 POP JUMP JUMPDEST PUSH1 0x0 PUSH20 0xFFFFFFFFFFFFFFFFFFFFFFFFFFFFFFFFFFFFFFFF DUP3 AND SWAP1 POP SWAP2 SWAP1 POP JUMP JUMPDEST PUSH1 0x0 DUP2 SWAP1 POP SWAP2 SWAP1 POP JUMP JUMPDEST PUSH1 0x0 DUP1 REVERT JUMPDEST PUSH32 0x6E65656420696E697420626F756E747900000000000000000000000000000000 PUSH1 0x0 DUP3 ADD MSTORE POP JUMP JUMPDEST PUSH2 0x733 DUP2 PUSH2 0x690 JUMP JUMPDEST DUP2 EQ PUSH2 0x73E JUMPI PUSH1 0x0 DUP1 REVERT JUMPDEST POP JUMP JUMPDEST PUSH2 0x74A DUP2 PUSH2 0x6A2 JUMP JUMPDEST DUP2 EQ PUSH2 0x755 JUMPI PUSH1 0x0 DUP1 REVERT JUMPDEST POP JUMP JUMPDEST PUSH2 0x761 DUP2 PUSH2 0x6B4 JUMP JUMPDEST DUP2 EQ PUSH2 0x76C JUMPI PUSH1 0x0 DUP1 REVERT JUMPDEST POP JUMP JUMPDEST PUSH2 0x778 DUP2 PUSH2 0x6C0 JUMP JUMPDEST DUP2 EQ PUSH2 0x783 JUMPI PUSH1 0x0 DUP1 REVERT JUMPDEST POP JUMP JUMPDEST PUSH2 0x78F DUP2 PUSH2 0x6F2 JUMP JUMPDEST DUP2 EQ PUSH2 0x79A JUMPI PUSH1 0x0 DUP1 REVERT JUMPDEST POP JUMP INVALID LOG2 PUSH5 0x6970667358 0x22 SLT KECCAK256 0xE5 0x2F 0xC6 RETURNDATACOPY 0xAA 0xCB 0xB6 BASEFEE 0x2B DUP13 0x5F DIFFICULTY 0x27 SUB JUMPDEST 0xCD CODESIZE 0xBB GAS SWAP16 JUMPDEST BLOCKHASH MLOAD DUP3 0xAF 0xC4 0xA9 LT 0xBE 0xEE SWAP10 0xED PUSH5 0x736F6C6343 STOP ADDMOD SMOD STOP CALLER LOG2 PUSH5 0x6970667358 0x22 SLT KECCAK256 OR 0xC 0xCF PUSH20 0xFB7257EB179ADA662E89C6DBCF86E55F676055B CALLDATALOAD 0xB4 0xBF 0x2E 0xE2 0x4F 0xDF 0x4D PUSH5 0x736F6C6343 STOP ADDMOD SMOD STOP CALLER "
				},
				"gasEstimates": {
					"creation": {
						"codeDepositCost": "1278800",
						"executionCost": "74128",
						"totalCost": "1352928"
					},
					"external": {
						"": "201",
						"createBounty(uint256)": "infinite",
						"founders(address,uint256)": "infinite",
						"invest(string,address,uint256,uint256)": "infinite",
						"refund(address)": "infinite",
						"suicide0(address)": "30198",
						"transferOwnership(address)": "30716"
					}
				},
				"methodIdentifiers": {
					"createBounty(uint256)": "3f28e9fb",
					"founders(address,uint256)": "5f0024b7",
					"invest(string,address,uint256,uint256)": "46964a0a",
					"refund(address)": "fa89401a",
					"suicide0(address)": "14da447f",
					"transferOwnership(address)": "f2fde38b"
				}
			},
			"storageLayout": {
				"storage": [
					{
						"astId": 315,
						"contract": "contracts/Bounty.sol:Bounty",
						"label": "_owner",
						"offset": 0,
						"slot": "0",
						"type": "t_address"
					},
					{
						"astId": 317,
						"contract": "contracts/Bounty.sol:Bounty",
						"label": "_coinbase",
						"offset": 0,
						"slot": "1",
						"type": "t_address_payable"
					},
					{
						"astId": 16,
						"contract": "contracts/Bounty.sol:Bounty",
						"label": "founders",
						"offset": 0,
						"slot": "2",
						"type": "t_mapping(t_address,t_array(t_struct(BountyFounder)10_storage)dyn_storage)"
					},
					{
						"astId": 25,
						"contract": "contracts/Bounty.sol:Bounty",
						"label": "bountyAddressList",
						"offset": 0,
						"slot": "3",
						"type": "t_array(t_contract(BountyAddr)311)dyn_storage"
					},
					{
						"astId": 31,
						"contract": "contracts/Bounty.sol:Bounty",
						"label": "_stableAddr",
						"offset": 0,
						"slot": "4",
						"type": "t_address"
					}
				],
				"types": {
					"t_address": {
						"encoding": "inplace",
						"label": "address",
						"numberOfBytes": "20"
					},
					"t_address_payable": {
						"encoding": "inplace",
						"label": "address payable",
						"numberOfBytes": "20"
					},
					"t_array(t_contract(BountyAddr)311)dyn_storage": {
						"base": "t_contract(BountyAddr)311",
						"encoding": "dynamic_array",
						"label": "contract BountyAddr[]",
						"numberOfBytes": "32"
					},
					"t_array(t_struct(BountyFounder)10_storage)dyn_storage": {
						"base": "t_struct(BountyFounder)10_storage",
						"encoding": "dynamic_array",
						"label": "struct Bounty.BountyFounder[]",
						"numberOfBytes": "32"
					},
					"t_contract(BountyAddr)311": {
						"encoding": "inplace",
						"label": "contract BountyAddr",
						"numberOfBytes": "20"
					},
					"t_mapping(t_address,t_array(t_struct(BountyFounder)10_storage)dyn_storage)": {
						"encoding": "mapping",
						"key": "t_address",
						"label": "mapping(address => struct Bounty.BountyFounder[])",
						"numberOfBytes": "32",
						"value": "t_array(t_struct(BountyFounder)10_storage)dyn_storage"
					},
					"t_struct(BountyFounder)10_storage": {
						"encoding": "inplace",
						"label": "struct Bounty.BountyFounder",
						"members": [
							{
								"astId": 7,
								"contract": "contracts/Bounty.sol:Bounty",
								"label": "founder",
								"offset": 0,
								"slot": "0",
								"type": "t_address_payable"
							},
							{
								"astId": 9,
								"contract": "contracts/Bounty.sol:Bounty",
								"label": "value",
								"offset": 0,
								"slot": "1",
								"type": "t_uint256"
							}
						],
						"numberOfBytes": "64"
					},
					"t_uint256": {
						"encoding": "inplace",
						"label": "uint256",
						"numberOfBytes": "32"
					}
				}
			},
			"userdoc": {
				"kind": "user",
				"methods": {},
				"version": 1
			}
		}
	}
}