{
	"data": {
		"bytecode": {
			"linkReferences": {},
			"object": "608060405234801561001057600080fd5b5061001a3361001f565b61006f565b600080546001600160a01b038381166001600160a01b0319831681178455604051919092169283917f8be0079c531659141344cd1fd0a4f28419497f9722a3daafe3b4186f6b6457e09190a35050565b612a638061007e6000396000f3fe60806040523480156200001157600080fd5b50600436106200006a5760003560e01c8063715018a6146200006f57806373e28ac8146200007b5780638da5cb5b1462000092578063c2bc80fd14620000b2578063f2fde38b14620000cb578063fc91a89714620000e2575b600080fd5b6200007962000122565b005b620000796200008c36600462000740565b6200013a565b6000546040516001600160a01b0390911681526020015b60405180910390f35b620000bc62000561565b604051620000a9919062000812565b62000079620000dc3660046200071b565b620005c5565b62000111620000f33660046200071b565b6001600160a01b031660009081526002602052604090205460ff1690565b6040519015158152602001620000a9565b6200012c62000644565b620001386000620006a0565b565b4281116200018f5760405162461bcd60e51b815260206004820181905260248201527f4170706c6963616e74206375746f66662064617465206973206578706972656460448201526064015b60405180910390fd5b60006040518060a00160405280866001600160a01b031681526020016000151581526020018581526020018481526020018381525090506000303383604051620001d990620006f0565b620001e793929190620007ba565b604051809103906000f08015801562000204573d6000803e3d6000fd5b50604083015190915015620004ba576040516370a0823160e01b8152336004820152869086906001600160a01b038316906370a082319060240160206040518083038186803b1580156200025757600080fd5b505afa1580156200026c573d6000803e3d6000fd5b505050506040513d601f19601f82011682018060405250810190620002929190620007a0565b1015620002f05760405162461bcd60e51b815260206004820152602560248201527f4465706f73697420746f6b656e2062616c616e636520697320696e737566666960448201526418da595b9d60da1b606482015260840162000186565b604051636eb1769f60e11b815233600482015230602482015286906001600160a01b0383169063dd62ed3e9060440160206040518083038186803b1580156200033857600080fd5b505afa1580156200034d573d6000803e3d6000fd5b505050506040513d601f19601f82011682018060405250810190620003739190620007a0565b1015620003d35760405162461bcd60e51b815260206004820152602760248201527f4465706f73697420746f6b656e20616c6c6f77616e636520697320696e737566604482015266199a58da595b9d60ca1b606482015260840162000186565b6040516323b872dd60e01b81523360048201526001600160a01b038381166024830152604482018890528216906323b872dd90606401602060405180830381600087803b1580156200042457600080fd5b505af115801562000439573d6000803e3d6000fd5b505050506040513d601f19601f820116820180604052508101906200045f91906200077c565b620004b85760405162461bcd60e51b815260206004820152602260248201527f4465706f73697420746f6b656e207472616e7366657246726f6d206661696c75604482015261726560f01b606482015260840162000186565b505b6001805480820182557fb10e2d527612073b26eecdfd717e6a320cf44b4afac2b0732d9fcbe2b7fa0cf60180546001600160a01b0319166001600160a01b03841690811790915560009081526002602052604090819020805460ff1916909217909155517f4fefd695e1a89e661601cae0270b695129b620dd1c31f71c306157d60b86f840906200055190339084908690620007ba565b60405180910390a1505050505050565b60606001805480602002602001604051908101604052809291908181526020018280548015620005bb57602002820191906000526020600020905b81546001600160a01b031681526001909101906020018083116200059c575b5050505050905090565b620005cf62000644565b6001600160a01b038116620006365760405162461bcd60e51b815260206004820152602660248201527f4f776e61626c653a206e6577206f776e657220697320746865207a65726f206160448201526564647265737360d01b606482015260840162000186565b6200064181620006a0565b50565b6000546001600160a01b03163314620001385760405162461bcd60e51b815260206004820181905260248201527f4f776e61626c653a2063616c6c6572206973206e6f7420746865206f776e6572604482015260640162000186565b600080546001600160a01b038381166001600160a01b0319831681178455604051919092169283917f8be0079c531659141344cd1fd0a4f28419497f9722a3daafe3b4186f6b6457e09190a35050565b6121cc806200086283390190565b80356001600160a01b03811681146200071657600080fd5b919050565b6000602082840312156200072e57600080fd5b6200073982620006fe565b9392505050565b600080600080608085870312156200075757600080fd5b6200076285620006fe565b966020860135965060408601359560600135945092505050565b6000602082840312156200078f57600080fd5b815180151581146200073957600080fd5b600060208284031215620007b357600080fd5b5051919050565b600060e08201905060018060a01b03808616835280851660208401528084511660408401525060208301511515606083015260408301516080830152606083015160a0830152608083015160c0830152949350505050565b6020808252825182820181905260009190848201906040850190845b81811015620008555783516001600160a01b0316835292840192918401916001016200082e565b5090969550505050505056fe60806040523480156200001157600080fd5b50604051620021cc380380620021cc833981016040819052620000349162000389565b6200003f3362000210565b600280546001600160a01b038086166001600160a01b03199283161790925560038054858416921691909117905581516005805460208501511515600160a01b026001600160a81b03199091169290931691909117919091179055604081015160065560608101516007556080810151600855620000bc62000260565b600c805461ff001916610100836004811115620000dd57620000dd62000453565b0217905550600654600955600c805460ff191690556000600b556005546001600160a01b031662000121576005805460ff60a01b1916600160a01b17905562000150565b6005805460ff60a01b198116909155600180546001600160a01b0319166001600160a01b039092169190911790555b600480546001600160a01b031916301790556200016d826200027a565b7f813d49ce84071dda2c63fce419cce1843e73c55512e307c889d031b57eda73c7620001a16000546001600160a01b031690565b600254600354604080516001600160a01b039485168152928416602084015290831690820152600554918216606082015260ff60a092831c16151560808201526006549181019190915260075460c082015260085460e08201526101000160405180910390a150505062000469565b600080546001600160a01b038381166001600160a01b0319831681178455604051919092169283917f8be0079c531659141344cd1fd0a4f28419497f9722a3daafe3b4186f6b6457e09190a35050565b600854600090421015620002745750600190565b50600490565b62000284620002fd565b6001600160a01b038116620002ef5760405162461bcd60e51b815260206004820152602660248201527f4f776e61626c653a206e6577206f776e657220697320746865207a65726f206160448201526564647265737360d01b60648201526084015b60405180910390fd5b620002fa8162000210565b50565b6000546001600160a01b03163314620003595760405162461bcd60e51b815260206004820181905260248201527f4f776e61626c653a2063616c6c6572206973206e6f7420746865206f776e65726044820152606401620002e6565b565b80516001600160a01b03811681146200037357600080fd5b919050565b805180151581146200037357600080fd5b600080600083850360e0811215620003a057600080fd5b620003ab856200035b565b9350620003bb602086016200035b565b925060a0603f1982011215620003d057600080fd5b5060405160a081016001600160401b03811182821017156200040257634e487b7160e01b600052604160045260246000fd5b806040525062000415604086016200035b565b8152620004256060860162000378565b60208201526080850151604082015260a0850151606082015260c08501516080820152809150509250925092565b634e487b7160e01b600052602160045260246000fd5b611d5380620004796000396000f3fe6080604052600436106100e85760003560e01c806386d1a69f1161008a578063c19d93fb11610059578063c19d93fb146101cc578063da91254c1461023e578063f2fde38b14610277578063f83d08ba1461029757600080fd5b806386d1a69f1461017c5780638da5cb5b14610184578063a69df4b5146101b1578063b6b55f25146101b957600080fd5b80634ba7ddb5116100c65780634ba7ddb51461012a5780636afc8d3e14610132578063715018a6146101525780637238fca81461016757600080fd5b80631292a282146100ed5780631a28c42e1461010f57806343d726d614610122575b600080fd5b3480156100f957600080fd5b5061010d610108366004611b51565b61029f565b005b61010d61011d366004611b9c565b6103ad565b61010d610461565b61010d6105e0565b34801561013e57600080fd5b5061010d61014d366004611b51565b61065d565b34801561015e57600080fd5b5061010d610722565b34801561017357600080fd5b5061010d610736565b61010d61076a565b34801561019057600080fd5b506000546040516001600160a01b0390911681526020015b60405180910390f35b61010d6107f5565b61010d6101c7366004611b9c565b610850565b3480156101d857600080fd5b506101e16108df565b6040805160ff9c8d168152602081019b909b528a01989098526060890196909652608088019490945260a0870192909252151560c086015260e08501528416610100840152610120830152909116610140820152610160016101a8565b34801561024a57600080fd5b50610253610980565b6040805160ff948516815260208101939093529216918101919091526060016101a8565b34801561028357600080fd5b5061010d610292366004611b51565b610999565b61010d610a12565b6102a7610a4d565b6102ca6001604051806060016040528060228152602001611cdb60229139610aa7565b60006102d582610afa565b509250505080806102ef5750801580156102ef5750600754155b6103405760405162461bcd60e51b815260206004820152601f60248201527f546f20626520617070726f766564206d7573742061206170706c6963616e740060448201526064015b60405180910390fd5b61034982610b58565b6103568260006005610c43565b600c805461ffff19166102011790556001600160a01b0382166000908152600f60209081526040808320805460ff19908116600190811790925560109093529220805490911690911790556103a9610d15565b5050565b6103b5610d27565b6103bd610e91565b6103e06001604051806060016040528060228152602001611cdb60229139610aa7565b6007548110156104325760405162461bcd60e51b815260206004820152601e60248201527f4465706f73697420616d6f756e74206c657373207468616e206c696d697400006044820152606401610337565b61043b81610eee565b61044733826001610c43565b80600a60008282546104599190611c4e565b909155505050565b610469610a4d565b600a546009546104799190611c4e565b156104c65760405162461bcd60e51b815260206004820152601e60248201527f4465706f7369742062616c616e6365206d6f7265207468616e207a65726f00006044820152606401610337565b61050660036040518060400160405280601a81526020017f426f756e74792073746174757320697320636f6d706c65746564000000000000815250611335565b61054660046040518060400160405280601881526020017f426f756e74792073746174757320697320657870697265640000000000000000815250611335565b60035460045461056b916001600160a01b03908116916105669116611384565b61142a565b6105c75760405162461bcd60e51b815260206004820152602760248201527f5472616e736665722062616c616e636520746f2074686520666f756e646572206044820152666661696c75726560c81b6064820152608401610337565b600c80546003919061ff001916610100835b0217905550565b6105e86115f1565b600c5460ff161561060b5760405162461bcd60e51b815260040161033790611c23565b61062e6001604051806060016040528060228152602001611cdb60229139610aa7565b61063733611643565b336000908152600e602052604090206001908101805460039260ff1990911690836105d9565b610665610a4d565b6106886002604051806060016040528060218152602001611cfd60219139610aa7565b600061069382610afa565b5050915050806106e55760405162461bcd60e51b815260206004820181905260248201527f4170706c6963616e7420737461747573206973206e6f7420617070726f7665646044820152606401610337565b506001600160a01b03166000908152600e60209081526040808320600101805460ff19908116600617909155600f90925290912080549091169055565b61072a61170a565b6107346000611764565b565b61073f336117b4565b6107626002604051806060016040528060218152602001611cfd60219139610aa7565b610734610d15565b610772610a4d565b600c5460ff16156107955760405162461bcd60e51b815260040161033790611c23565b6000600a546009546107a79190611c4e565b116107ed5760405162461bcd60e51b81526020600482015260166024820152754465706f73697420616d6f756e74206973207a65726f60501b6044820152606401610337565b610734611849565b6107fe33611859565b600c5460ff166108445760405162461bcd60e51b81526020600482015260116024820152704465706f73697420697320756e6c6f636b60781b6044820152606401610337565b600c805460ff19169055565b610858610a4d565b61087b6001604051806060016040528060228152602001611cdb60229139610aa7565b600081116108c45760405162461bcd60e51b81526020600482015260166024820152754465706f73697420616d6f756e74206973207a65726f60501b6044820152606401610337565b6108cd81610eee565b80600960008282546104599190611c4e565b6000806000806000806000806000806000806000806108fc610980565b600c549295509093509150610100900460ff16600481111561092057610920611cae565b600d54600454610938906001600160a01b0316611384565b600954600a54600560020154600c60009054906101000a900460ff16600b548a8a8a9d509d509d509d509d509d509d509d509d509d509d50505050909192939495969798999a565b600080600061098e33611928565b925092509250909192565b6109a161170a565b6001600160a01b038116610a065760405162461bcd60e51b815260206004820152602660248201527f4f776e61626c653a206e6577206f776e657220697320746865207a65726f206160448201526564647265737360d01b6064820152608401610337565b610a0f81611764565b50565b610a1b336117b4565b600c5460ff1615610a3e5760405162461bcd60e51b815260040161033790611c23565b600c805460ff19166001179055565b6003546001600160a01b031633146107345760405162461bcd60e51b815260206004820152601960248201527f43616c6c6572206973206e6f742074686520666f756e646572000000000000006044820152606401610337565b816004811115610ab957610ab9611cae565b600c54610100900460ff166004811115610ad557610ad5611cae565b148190610af55760405162461bcd60e51b81526004016103379190611bce565b505050565b6000806000806000806000610b0e8861197e565b92509250925082965060009550600094508615610b4b5760ff811660051415610b3a5760019550610b4b565b60ff811660011415610b4b57600194505b8193505050509193509193565b60005b600d548110156103a957816001600160a01b0316600d8281548110610b8257610b82611cc4565b6000918252602090912001546001600160a01b031614610c3157610bcc600d8281548110610bb257610bb2611cc4565b6000918252602090912001546001600160a01b0316611643565b6004600e6000600d8481548110610be557610be5611cc4565b60009182526020808320909101546001600160a01b03168352820192909252604001902060019081018054909160ff1990911690836006811115610c2b57610c2b611cae565b02179055505b80610c3b81611c7d565b915050610b5b565b6000610c4e8461197e565b5050905080610ca357600d80546001810182556000919091527fd7b6990105719101dabeb77144f2a3385c8033acd3af97e9423a695e81ad1eb50180546001600160a01b0319166001600160a01b0386161790555b6001600160a01b0384166000908152600e6020526040902060019081018054849260ff1990911690836006811115610cdd57610cdd611cae565b02179055506001600160a01b0384166000908152600e602052604081208054859290610d0a908490611c4e565b909155505050505050565b610d224262069780611c4e565b600b55565b6002546001600160a01b0316331415610d785760405162461bcd60e51b81526020600482015260136024820152724d757374206e6f7420626520666163746f727960681b6044820152606401610337565b6003546001600160a01b0316331415610dc95760405162461bcd60e51b815260206004820152601360248201527226bab9ba103737ba103132903337bab73232b960691b6044820152606401610337565b6004546001600160a01b0316331415610e245760405162461bcd60e51b815260206004820152601860248201527f4d757374206e6f7420626520636f6e747261637473656c6600000000000000006044820152606401610337565b600080610e303361197e565b9250509150811580610e4d5750818015610e4d575060ff81166003145b6103a95760405162461bcd60e51b8152602060048201526015602482015274135d5cdd081b9bdd08189948185c1c1b1a58d85b9d605a1b6044820152606401610337565b6008544211156107345760405162461bcd60e51b815260206004820152602260248201527f54696d65207061737420746865206170706c69636174696f6e20646561646c696044820152616e6560f01b6064820152608401610337565b8015610a0f57600554600160a01b900460ff161561104857803414610f4e5760405162461bcd60e51b81526020600482015260166024820152751b5cd9cb9d985b1d59481a5cc81b9bdd081d985b1a5960521b6044820152606401610337565b3331811115610f9f5760405162461bcd60e51b815260206004820152601c60248201527f596f75722062616c616e636520697320696e73756666696369656e74000000006044820152606401610337565b6004546040516000916001600160a01b03169083908381818185875af1925050503d8060008114610fec576040519150601f19603f3d011682016040523d82523d6000602084013e610ff1565b606091505b50509050806110425760405162461bcd60e51b815260206004820152601960248201527f5472616e7366657220636f6e7472616374206661696c757265000000000000006044820152606401610337565b506112f9565b60015460048054604051636eb1769f60e11b815233928101929092526001600160a01b0390811660248301528392169063dd62ed3e9060440160206040518083038186803b15801561109957600080fd5b505afa1580156110ad573d6000803e3d6000fd5b505050506040513d601f19601f820116820180604052508101906110d19190611bb5565b10156111345760405162461bcd60e51b815260206004820152602c60248201527f596f7572206465706f73697420746f6b656e20616c6c6f77616e63652069732060448201526b1a5b9cdd59999a58da595b9d60a21b6064820152608401610337565b6001546040516370a0823160e01b815233600482015282916001600160a01b0316906370a082319060240160206040518083038186803b15801561117757600080fd5b505afa15801561118b573d6000803e3d6000fd5b505050506040513d601f19601f820116820180604052508101906111af9190611bb5565b10156112105760405162461bcd60e51b815260206004820152602a60248201527f596f7572206465706f73697420746f6b656e2062616c616e636520697320696e6044820152691cdd59999a58da595b9d60b21b6064820152608401610337565b600154600480546040516323b872dd60e01b815233928101929092526001600160a01b03908116602483015260448201849052909116906323b872dd90606401602060405180830381600087803b15801561126a57600080fd5b505af115801561127e573d6000803e3d6000fd5b505050506040513d601f19601f820116820180604052508101906112a29190611b7a565b6112f95760405162461bcd60e51b815260206004820152602260248201527f4465706f73697420746f6b656e207472616e7366657246726f6d206661696c75604482015261726560f01b6064820152608401610337565b60408051338152602081018390527fe1fffcc4923d04b559f4d29a8bfc6cda04eb5b0d3c460751c2402c5c5cc9109c910160405180910390a150565b81600481111561134757611347611cae565b600c54610100900460ff16600481111561136357611363611cae565b14158190610af55760405162461bcd60e51b81526004016103379190611bce565b600554600090600160a01b900460ff16156113a757506001600160a01b03163190565b6001546040516370a0823160e01b81526001600160a01b038481166004830152909116906370a082319060240160206040518083038186803b1580156113ec57600080fd5b505afa158015611400573d6000803e3d6000fd5b505050506040513d601f19601f820116820180604052508101906114249190611bb5565b92915050565b6000600182156115ea5750600554600090600160a01b900460ff16156114e1576040516001600160a01b038516908490600081818185875af1925050503d8060008114611493576040519150601f19603f3d011682016040523d82523d6000602084013e611498565b606091505b505080915050806114dc5760405162461bcd60e51b815260206004820152600e60248201526d526566756e64206661696c75726560901b6044820152606401610337565b6115a7565b60015460405163a9059cbb60e01b81526001600160a01b038681166004830152602482018690529091169063a9059cbb90604401602060405180830381600087803b15801561152f57600080fd5b505af1158015611543573d6000803e3d6000fd5b505050506040513d601f19601f820116820180604052508101906115679190611b7a565b9050806115a75760405162461bcd60e51b815260206004820152600e60248201526d526566756e64206661696c75726560901b6044820152606401610337565b604080516001600160a01b0386168152602081018590527fbb28353e4598c3b9199101a66e0989549b659a59a54d2c27fbb183f1932c8e6d910160405180910390a15b9392505050565b60006115fc33610afa565b509250505080610a0f5760405162461bcd60e51b8152602060048201526012602482015271141b19585cd948185c1c1b1e48199a5c9cdd60721b6044820152606401610337565b6001600160a01b0381166000908152600e602052604090205461166790829061142a565b6116bf5760405162461bcd60e51b815260206004820152602360248201527f526566756e64206465706f73697420746f206170706c6963616e74206661696c60448201526275726560e81b6064820152608401610337565b6001600160a01b0381166000908152600e6020526040812054600a8054919290916116eb908490611c66565b90915550506001600160a01b03166000908152600e6020526040812055565b6000546001600160a01b031633146107345760405162461bcd60e51b815260206004820181905260248201527f4f776e61626c653a2063616c6c6572206973206e6f7420746865206f776e65726044820152606401610337565b600080546001600160a01b038381166001600160a01b0319831681178455604051919092169283917f8be0079c531659141344cd1fd0a4f28419497f9722a3daafe3b4186f6b6457e09190a35050565b6001600160a01b0381166000908152600f602052604081205460ff16156117fc57600b5415806117f357506000600b541180156117f35750600b544211155b156117fc575060015b806103a95760405162461bcd60e51b815260206004820152601d60248201527f43616c6c6572206973206e6f7420616c6c6f77656420746f206c6f636b0000006044820152606401610337565b6118516119e2565b610734611a5c565b6001600160a01b03811660009081526010602052604081205460ff16156118a657600b54158061189857506000600b541180156118985750600b544211155b156118a1575060015b6118db565b6000600b541180156118b95750600b5442115b80156118d257506003546001600160a01b038381169116145b156118db575060015b806103a95760405162461bcd60e51b815260206004820152601f60248201527f43616c6c6572206973206e6f7420616c6c6f77656420746f20756e6c6f636b006044820152606401610337565b60008080600381808061193a8861197e565b925092509250821561194f576002935061196f565b6003546001600160a01b038981169116141561196f576001935060095491505b92979096509194509092505050565b6001600160a01b0381166000908152600e602052604081208054600191820154839283929091839060ff1660068111156119ba576119ba611cae565b9050811580156119cb575060ff8116155b156119d557600092505b9196909550909350915050565b6003546009546119fb916001600160a01b03169061142a565b611a555760405162461bcd60e51b815260206004820152602560248201527f526566756e64206465706f73697420746f2074686520666f756e646572206661604482015264696c75726560d81b6064820152608401610337565b6000600955565b60005b600d54811015610a0f57611a7f600d8281548110610bb257610bb2611cc4565b6001600e6000600d8481548110611a9857611a98611cc4565b60009182526020808320909101546001600160a01b0316835282019290925260400190206001015460ff166006811115611ad457611ad4611cae565b1415611b3f576002600e6000600d8481548110611af357611af3611cc4565b60009182526020808320909101546001600160a01b03168352820192909252604001902060019081018054909160ff1990911690836006811115611b3957611b39611cae565b02179055505b80611b4981611c7d565b915050611a5f565b600060208284031215611b6357600080fd5b81356001600160a01b03811681146115ea57600080fd5b600060208284031215611b8c57600080fd5b815180151581146115ea57600080fd5b600060208284031215611bae57600080fd5b5035919050565b600060208284031215611bc757600080fd5b5051919050565b600060208083528351808285015260005b81811015611bfb57858101830151858201604001528201611bdf565b81811115611c0d576000604083870101525b50601f01601f1916929092016040019392505050565b60208082526011908201527011195c1bdcda5d081a5cc81b1bd8dad959607a1b604082015260600190565b60008219821115611c6157611c61611c98565b500190565b600082821015611c7857611c78611c98565b500390565b6000600019821415611c9157611c91611c98565b5060010190565b634e487b7160e01b600052601160045260246000fd5b634e487b7160e01b600052602160045260246000fd5b634e487b7160e01b600052603260045260246000fdfe426f756e747920737461747573206e6f7420696e20726561647920746f20776f726b426f756e747920737461747573206e6f7420696e20776f726b2073746172746564a2646970667358221220df927427d8b01e79d366fab1831c6fbf2145e543a32a09569de2089272d447d764736f6c63430008070033a2646970667358221220ae56225f02fa6fecf9d16f89a89a10197010d672aeaef6b2e9656bb5b554334a64736f6c63430008070033",
			"opcodes": "PUSH1 0x80 PUSH1 0x40 MSTORE CALLVALUE DUP1 ISZERO PUSH2 0x10 JUMPI PUSH1 0x0 DUP1 REVERT JUMPDEST POP PUSH2 0x1A CALLER PUSH2 0x1F JUMP JUMPDEST PUSH2 0x6F JUMP JUMPDEST PUSH1 0x0 DUP1 SLOAD PUSH1 0x1 PUSH1 0x1 PUSH1 0xA0 SHL SUB DUP4 DUP2 AND PUSH1 0x1 PUSH1 0x1 PUSH1 0xA0 SHL SUB NOT DUP4 AND DUP2 OR DUP5 SSTORE PUSH1 0x40 MLOAD SWAP2 SWAP1 SWAP3 AND SWAP3 DUP4 SWAP2 PUSH32 0x8BE0079C531659141344CD1FD0A4F28419497F9722A3DAAFE3B4186F6B6457E0 SWAP2 SWAP1 LOG3 POP POP JUMP JUMPDEST PUSH2 0x2A63 DUP1 PUSH2 0x7E PUSH1 0x0 CODECOPY PUSH1 0x0 RETURN INVALID PUSH1 0x80 PUSH1 0x40 MSTORE CALLVALUE DUP1 ISZERO PUSH3 0x11 JUMPI PUSH1 0x0 DUP1 REVERT JUMPDEST POP PUSH1 0x4 CALLDATASIZE LT PUSH3 0x6A JUMPI PUSH1 0x0 CALLDATALOAD PUSH1 0xE0 SHR DUP1 PUSH4 0x715018A6 EQ PUSH3 0x6F JUMPI DUP1 PUSH4 0x73E28AC8 EQ PUSH3 0x7B JUMPI DUP1 PUSH4 0x8DA5CB5B EQ PUSH3 0x92 JUMPI DUP1 PUSH4 0xC2BC80FD EQ PUSH3 0xB2 JUMPI DUP1 PUSH4 0xF2FDE38B EQ PUSH3 0xCB JUMPI DUP1 PUSH4 0xFC91A897 EQ PUSH3 0xE2 JUMPI JUMPDEST PUSH1 0x0 DUP1 REVERT JUMPDEST PUSH3 0x79 PUSH3 0x122 JUMP JUMPDEST STOP JUMPDEST PUSH3 0x79 PUSH3 0x8C CALLDATASIZE PUSH1 0x4 PUSH3 0x740 JUMP JUMPDEST PUSH3 0x13A JUMP JUMPDEST PUSH1 0x0 SLOAD PUSH1 0x40 MLOAD PUSH1 0x1 PUSH1 0x1 PUSH1 0xA0 SHL SUB SWAP1 SWAP2 AND DUP2 MSTORE PUSH1 0x20 ADD JUMPDEST PUSH1 0x40 MLOAD DUP1 SWAP2 SUB SWAP1 RETURN JUMPDEST PUSH3 0xBC PUSH3 0x561 JUMP JUMPDEST PUSH1 0x40 MLOAD PUSH3 0xA9 SWAP2 SWAP1 PUSH3 0x812 JUMP JUMPDEST PUSH3 0x79 PUSH3 0xDC CALLDATASIZE PUSH1 0x4 PUSH3 0x71B JUMP JUMPDEST PUSH3 0x5C5 JUMP JUMPDEST PUSH3 0x111 PUSH3 0xF3 CALLDATASIZE PUSH1 0x4 PUSH3 0x71B JUMP JUMPDEST PUSH1 0x1 PUSH1 0x1 PUSH1 0xA0 SHL SUB AND PUSH1 0x0 SWAP1 DUP2 MSTORE PUSH1 0x2 PUSH1 0x20 MSTORE PUSH1 0x40 SWAP1 KECCAK256 SLOAD PUSH1 0xFF AND SWAP1 JUMP JUMPDEST PUSH1 0x40 MLOAD SWAP1 ISZERO ISZERO DUP2 MSTORE PUSH1 0x20 ADD PUSH3 0xA9 JUMP JUMPDEST PUSH3 0x12C PUSH3 0x644 JUMP JUMPDEST PUSH3 0x138 PUSH1 0x0 PUSH3 0x6A0 JUMP JUMPDEST JUMP JUMPDEST TIMESTAMP DUP2 GT PUSH3 0x18F JUMPI PUSH1 0x40 MLOAD PUSH3 0x461BCD PUSH1 0xE5 SHL DUP2 MSTORE PUSH1 0x20 PUSH1 0x4 DUP3 ADD DUP2 SWAP1 MSTORE PUSH1 0x24 DUP3 ADD MSTORE PUSH32 0x4170706C6963616E74206375746F666620646174652069732065787069726564 PUSH1 0x44 DUP3 ADD MSTORE PUSH1 0x64 ADD JUMPDEST PUSH1 0x40 MLOAD DUP1 SWAP2 SUB SWAP1 REVERT JUMPDEST PUSH1 0x0 PUSH1 0x40 MLOAD DUP1 PUSH1 0xA0 ADD PUSH1 0x40 MSTORE DUP1 DUP7 PUSH1 0x1 PUSH1 0x1 PUSH1 0xA0 SHL SUB AND DUP2 MSTORE PUSH1 0x20 ADD PUSH1 0x0 ISZERO ISZERO DUP2 MSTORE PUSH1 0x20 ADD DUP6 DUP2 MSTORE PUSH1 0x20 ADD DUP5 DUP2 MSTORE PUSH1 0x20 ADD DUP4 DUP2 MSTORE POP SWAP1 POP PUSH1 0x0 ADDRESS CALLER DUP4 PUSH1 0x40 MLOAD PUSH3 0x1D9 SWAP1 PUSH3 0x6F0 JUMP JUMPDEST PUSH3 0x1E7 SWAP4 SWAP3 SWAP2 SWAP1 PUSH3 0x7BA JUMP JUMPDEST PUSH1 0x40 MLOAD DUP1 SWAP2 SUB SWAP1 PUSH1 0x0 CREATE DUP1 ISZERO DUP1 ISZERO PUSH3 0x204 JUMPI RETURNDATASIZE PUSH1 0x0 DUP1 RETURNDATACOPY RETURNDATASIZE PUSH1 0x0 REVERT JUMPDEST POP PUSH1 0x40 DUP4 ADD MLOAD SWAP1 SWAP2 POP ISZERO PUSH3 0x4BA JUMPI PUSH1 0x40 MLOAD PUSH4 0x70A08231 PUSH1 0xE0 SHL DUP2 MSTORE CALLER PUSH1 0x4 DUP3 ADD MSTORE DUP7 SWAP1 DUP7 SWAP1 PUSH1 0x1 PUSH1 0x1 PUSH1 0xA0 SHL SUB DUP4 AND SWAP1 PUSH4 0x70A08231 SWAP1 PUSH1 0x24 ADD PUSH1 0x20 PUSH1 0x40 MLOAD DUP1 DUP4 SUB DUP2 DUP7 DUP1 EXTCODESIZE ISZERO DUP1 ISZERO PUSH3 0x257 JUMPI PUSH1 0x0 DUP1 REVERT JUMPDEST POP GAS STATICCALL ISZERO DUP1 ISZERO PUSH3 0x26C JUMPI RETURNDATASIZE PUSH1 0x0 DUP1 RETURNDATACOPY RETURNDATASIZE PUSH1 0x0 REVERT JUMPDEST POP POP POP POP PUSH1 0x40 MLOAD RETURNDATASIZE PUSH1 0x1F NOT PUSH1 0x1F DUP3 ADD AND DUP3 ADD DUP1 PUSH1 0x40 MSTORE POP DUP2 ADD SWAP1 PUSH3 0x292 SWAP2 SWAP1 PUSH3 0x7A0 JUMP JUMPDEST LT ISZERO PUSH3 0x2F0 JUMPI PUSH1 0x40 MLOAD PUSH3 0x461BCD PUSH1 0xE5 SHL DUP2 MSTORE PUSH1 0x20 PUSH1 0x4 DUP3 ADD MSTORE PUSH1 0x25 PUSH1 0x24 DUP3 ADD MSTORE PUSH32 0x4465706F73697420746F6B656E2062616C616E636520697320696E7375666669 PUSH1 0x44 DUP3 ADD MSTORE PUSH5 0x18DA595B9D PUSH1 0xDA SHL PUSH1 0x64 DUP3 ADD MSTORE PUSH1 0x84 ADD PUSH3 0x186 JUMP JUMPDEST PUSH1 0x40 MLOAD PUSH4 0x6EB1769F PUSH1 0xE1 SHL DUP2 MSTORE CALLER PUSH1 0x4 DUP3 ADD MSTORE ADDRESS PUSH1 0x24 DUP3 ADD MSTORE DUP7 SWAP1 PUSH1 0x1 PUSH1 0x1 PUSH1 0xA0 SHL SUB DUP4 AND SWAP1 PUSH4 0xDD62ED3E SWAP1 PUSH1 0x44 ADD PUSH1 0x20 PUSH1 0x40 MLOAD DUP1 DUP4 SUB DUP2 DUP7 DUP1 EXTCODESIZE ISZERO DUP1 ISZERO PUSH3 0x338 JUMPI PUSH1 0x0 DUP1 REVERT JUMPDEST POP GAS STATICCALL ISZERO DUP1 ISZERO PUSH3 0x34D JUMPI RETURNDATASIZE PUSH1 0x0 DUP1 RETURNDATACOPY RETURNDATASIZE PUSH1 0x0 REVERT JUMPDEST POP POP POP POP PUSH1 0x40 MLOAD RETURNDATASIZE PUSH1 0x1F NOT PUSH1 0x1F DUP3 ADD AND DUP3 ADD DUP1 PUSH1 0x40 MSTORE POP DUP2 ADD SWAP1 PUSH3 0x373 SWAP2 SWAP1 PUSH3 0x7A0 JUMP JUMPDEST LT ISZERO PUSH3 0x3D3 JUMPI PUSH1 0x40 MLOAD PUSH3 0x461BCD PUSH1 0xE5 SHL DUP2 MSTORE PUSH1 0x20 PUSH1 0x4 DUP3 ADD MSTORE PUSH1 0x27 PUSH1 0x24 DUP3 ADD MSTORE PUSH32 0x4465706F73697420746F6B656E20616C6C6F77616E636520697320696E737566 PUSH1 0x44 DUP3 ADD MSTORE PUSH7 0x199A58DA595B9D PUSH1 0xCA SHL PUSH1 0x64 DUP3 ADD MSTORE PUSH1 0x84 ADD PUSH3 0x186 JUMP JUMPDEST PUSH1 0x40 MLOAD PUSH4 0x23B872DD PUSH1 0xE0 SHL DUP2 MSTORE CALLER PUSH1 0x4 DUP3 ADD MSTORE PUSH1 0x1 PUSH1 0x1 PUSH1 0xA0 SHL SUB DUP4 DUP2 AND PUSH1 0x24 DUP4 ADD MSTORE PUSH1 0x44 DUP3 ADD DUP9 SWAP1 MSTORE DUP3 AND SWAP1 PUSH4 0x23B872DD SWAP1 PUSH1 0x64 ADD PUSH1 0x20 PUSH1 0x40 MLOAD DUP1 DUP4 SUB DUP2 PUSH1 0x0 DUP8 DUP1 EXTCODESIZE ISZERO DUP1 ISZERO PUSH3 0x424 JUMPI PUSH1 0x0 DUP1 REVERT JUMPDEST POP GAS CALL ISZERO DUP1 ISZERO PUSH3 0x439 JUMPI RETURNDATASIZE PUSH1 0x0 DUP1 RETURNDATACOPY RETURNDATASIZE PUSH1 0x0 REVERT JUMPDEST POP POP POP POP PUSH1 0x40 MLOAD RETURNDATASIZE PUSH1 0x1F NOT PUSH1 0x1F DUP3 ADD AND DUP3 ADD DUP1 PUSH1 0x40 MSTORE POP DUP2 ADD SWAP1 PUSH3 0x45F SWAP2 SWAP1 PUSH3 0x77C JUMP JUMPDEST PUSH3 0x4B8 JUMPI PUSH1 0x40 MLOAD PUSH3 0x461BCD PUSH1 0xE5 SHL DUP2 MSTORE PUSH1 0x20 PUSH1 0x4 DUP3 ADD MSTORE PUSH1 0x22 PUSH1 0x24 DUP3 ADD MSTORE PUSH32 0x4465706F73697420746F6B656E207472616E7366657246726F6D206661696C75 PUSH1 0x44 DUP3 ADD MSTORE PUSH2 0x7265 PUSH1 0xF0 SHL PUSH1 0x64 DUP3 ADD MSTORE PUSH1 0x84 ADD PUSH3 0x186 JUMP JUMPDEST POP JUMPDEST PUSH1 0x1 DUP1 SLOAD DUP1 DUP3 ADD DUP3 SSTORE PUSH32 0xB10E2D527612073B26EECDFD717E6A320CF44B4AFAC2B0732D9FCBE2B7FA0CF6 ADD DUP1 SLOAD PUSH1 0x1 PUSH1 0x1 PUSH1 0xA0 SHL SUB NOT AND PUSH1 0x1 PUSH1 0x1 PUSH1 0xA0 SHL SUB DUP5 AND SWAP1 DUP2 OR SWAP1 SWAP2 SSTORE PUSH1 0x0 SWAP1 DUP2 MSTORE PUSH1 0x2 PUSH1 0x20 MSTORE PUSH1 0x40 SWAP1 DUP2 SWAP1 KECCAK256 DUP1 SLOAD PUSH1 0xFF NOT AND SWAP1 SWAP3 OR SWAP1 SWAP2 SSTORE MLOAD PUSH32 0x4FEFD695E1A89E661601CAE0270B695129B620DD1C31F71C306157D60B86F840 SWAP1 PUSH3 0x551 SWAP1 CALLER SWAP1 DUP5 SWAP1 DUP7 SWAP1 PUSH3 0x7BA JUMP JUMPDEST PUSH1 0x40 MLOAD DUP1 SWAP2 SUB SWAP1 LOG1 POP POP POP POP POP POP JUMP JUMPDEST PUSH1 0x60 PUSH1 0x1 DUP1 SLOAD DUP1 PUSH1 0x20 MUL PUSH1 0x20 ADD PUSH1 0x40 MLOAD SWAP1 DUP2 ADD PUSH1 0x40 MSTORE DUP1 SWAP3 SWAP2 SWAP1 DUP2 DUP2 MSTORE PUSH1 0x20 ADD DUP3 DUP1 SLOAD DUP1 ISZERO PUSH3 0x5BB JUMPI PUSH1 0x20 MUL DUP3 ADD SWAP2 SWAP1 PUSH1 0x0 MSTORE PUSH1 0x20 PUSH1 0x0 KECCAK256 SWAP1 JUMPDEST DUP2 SLOAD PUSH1 0x1 PUSH1 0x1 PUSH1 0xA0 SHL SUB AND DUP2 MSTORE PUSH1 0x1 SWAP1 SWAP2 ADD SWAP1 PUSH1 0x20 ADD DUP1 DUP4 GT PUSH3 0x59C JUMPI JUMPDEST POP POP POP POP POP SWAP1 POP SWAP1 JUMP JUMPDEST PUSH3 0x5CF PUSH3 0x644 JUMP JUMPDEST PUSH1 0x1 PUSH1 0x1 PUSH1 0xA0 SHL SUB DUP2 AND PUSH3 0x636 JUMPI PUSH1 0x40 MLOAD PUSH3 0x461BCD PUSH1 0xE5 SHL DUP2 MSTORE PUSH1 0x20 PUSH1 0x4 DUP3 ADD MSTORE PUSH1 0x26 PUSH1 0x24 DUP3 ADD MSTORE PUSH32 0x4F776E61626C653A206E6577206F776E657220697320746865207A65726F2061 PUSH1 0x44 DUP3 ADD MSTORE PUSH6 0x646472657373 PUSH1 0xD0 SHL PUSH1 0x64 DUP3 ADD MSTORE PUSH1 0x84 ADD PUSH3 0x186 JUMP JUMPDEST PUSH3 0x641 DUP2 PUSH3 0x6A0 JUMP JUMPDEST POP JUMP JUMPDEST PUSH1 0x0 SLOAD PUSH1 0x1 PUSH1 0x1 PUSH1 0xA0 SHL SUB AND CALLER EQ PUSH3 0x138 JUMPI PUSH1 0x40 MLOAD PUSH3 0x461BCD PUSH1 0xE5 SHL DUP2 MSTORE PUSH1 0x20 PUSH1 0x4 DUP3 ADD DUP2 SWAP1 MSTORE PUSH1 0x24 DUP3 ADD MSTORE PUSH32 0x4F776E61626C653A2063616C6C6572206973206E6F7420746865206F776E6572 PUSH1 0x44 DUP3 ADD MSTORE PUSH1 0x64 ADD PUSH3 0x186 JUMP JUMPDEST PUSH1 0x0 DUP1 SLOAD PUSH1 0x1 PUSH1 0x1 PUSH1 0xA0 SHL SUB DUP4 DUP2 AND PUSH1 0x1 PUSH1 0x1 PUSH1 0xA0 SHL SUB NOT DUP4 AND DUP2 OR DUP5 SSTORE PUSH1 0x40 MLOAD SWAP2 SWAP1 SWAP3 AND SWAP3 DUP4 SWAP2 PUSH32 0x8BE0079C531659141344CD1FD0A4F28419497F9722A3DAAFE3B4186F6B6457E0 SWAP2 SWAP1 LOG3 POP POP JUMP JUMPDEST PUSH2 0x21CC DUP1 PUSH3 0x862 DUP4 CODECOPY ADD SWAP1 JUMP JUMPDEST DUP1 CALLDATALOAD PUSH1 0x1 PUSH1 0x1 PUSH1 0xA0 SHL SUB DUP2 AND DUP2 EQ PUSH3 0x716 JUMPI PUSH1 0x0 DUP1 REVERT JUMPDEST SWAP2 SWAP1 POP JUMP JUMPDEST PUSH1 0x0 PUSH1 0x20 DUP3 DUP5 SUB SLT ISZERO PUSH3 0x72E JUMPI PUSH1 0x0 DUP1 REVERT JUMPDEST PUSH3 0x739 DUP3 PUSH3 0x6FE JUMP JUMPDEST SWAP4 SWAP3 POP POP POP JUMP JUMPDEST PUSH1 0x0 DUP1 PUSH1 0x0 DUP1 PUSH1 0x80 DUP6 DUP8 SUB SLT ISZERO PUSH3 0x757 JUMPI PUSH1 0x0 DUP1 REVERT JUMPDEST PUSH3 0x762 DUP6 PUSH3 0x6FE JUMP JUMPDEST SWAP7 PUSH1 0x20 DUP7 ADD CALLDATALOAD SWAP7 POP PUSH1 0x40 DUP7 ADD CALLDATALOAD SWAP6 PUSH1 0x60 ADD CALLDATALOAD SWAP5 POP SWAP3 POP POP POP JUMP JUMPDEST PUSH1 0x0 PUSH1 0x20 DUP3 DUP5 SUB SLT ISZERO PUSH3 0x78F JUMPI PUSH1 0x0 DUP1 REVERT JUMPDEST DUP2 MLOAD DUP1 ISZERO ISZERO DUP2 EQ PUSH3 0x739 JUMPI PUSH1 0x0 DUP1 REVERT JUMPDEST PUSH1 0x0 PUSH1 0x20 DUP3 DUP5 SUB SLT ISZERO PUSH3 0x7B3 JUMPI PUSH1 0x0 DUP1 REVERT JUMPDEST POP MLOAD SWAP2 SWAP1 POP JUMP JUMPDEST PUSH1 0x0 PUSH1 0xE0 DUP3 ADD SWAP1 POP PUSH1 0x1 DUP1 PUSH1 0xA0 SHL SUB DUP1 DUP7 AND DUP4 MSTORE DUP1 DUP6 AND PUSH1 0x20 DUP5 ADD MSTORE DUP1 DUP5 MLOAD AND PUSH1 0x40 DUP5 ADD MSTORE POP PUSH1 0x20 DUP4 ADD MLOAD ISZERO ISZERO PUSH1 0x60 DUP4 ADD MSTORE PUSH1 0x40 DUP4 ADD MLOAD PUSH1 0x80 DUP4 ADD MSTORE PUSH1 0x60 DUP4 ADD MLOAD PUSH1 0xA0 DUP4 ADD MSTORE PUSH1 0x80 DUP4 ADD MLOAD PUSH1 0xC0 DUP4 ADD MSTORE SWAP5 SWAP4 POP POP POP POP JUMP JUMPDEST PUSH1 0x20 DUP1 DUP3 MSTORE DUP3 MLOAD DUP3 DUP3 ADD DUP2 SWAP1 MSTORE PUSH1 0x0 SWAP2 SWAP1 DUP5 DUP3 ADD SWAP1 PUSH1 0x40 DUP6 ADD SWAP1 DUP5 JUMPDEST DUP2 DUP2 LT ISZERO PUSH3 0x855 JUMPI DUP4 MLOAD PUSH1 0x1 PUSH1 0x1 PUSH1 0xA0 SHL SUB AND DUP4 MSTORE SWAP3 DUP5 ADD SWAP3 SWAP2 DUP5 ADD SWAP2 PUSH1 0x1 ADD PUSH3 0x82E JUMP JUMPDEST POP SWAP1 SWAP7 SWAP6 POP POP POP POP POP POP JUMP INVALID PUSH1 0x80 PUSH1 0x40 MSTORE CALLVALUE DUP1 ISZERO PUSH3 0x11 JUMPI PUSH1 0x0 DUP1 REVERT JUMPDEST POP PUSH1 0x40 MLOAD PUSH3 0x21CC CODESIZE SUB DUP1 PUSH3 0x21CC DUP4 CODECOPY DUP2 ADD PUSH1 0x40 DUP2 SWAP1 MSTORE PUSH3 0x34 SWAP2 PUSH3 0x389 JUMP JUMPDEST PUSH3 0x3F CALLER PUSH3 0x210 JUMP JUMPDEST PUSH1 0x2 DUP1 SLOAD PUSH1 0x1 PUSH1 0x1 PUSH1 0xA0 SHL SUB DUP1 DUP7 AND PUSH1 0x1 PUSH1 0x1 PUSH1 0xA0 SHL SUB NOT SWAP3 DUP4 AND OR SWAP1 SWAP3 SSTORE PUSH1 0x3 DUP1 SLOAD DUP6 DUP5 AND SWAP3 AND SWAP2 SWAP1 SWAP2 OR SWAP1 SSTORE DUP2 MLOAD PUSH1 0x5 DUP1 SLOAD PUSH1 0x20 DUP6 ADD MLOAD ISZERO ISZERO PUSH1 0x1 PUSH1 0xA0 SHL MUL PUSH1 0x1 PUSH1 0x1 PUSH1 0xA8 SHL SUB NOT SWAP1 SWAP2 AND SWAP3 SWAP1 SWAP4 AND SWAP2 SWAP1 SWAP2 OR SWAP2 SWAP1 SWAP2 OR SWAP1 SSTORE PUSH1 0x40 DUP2 ADD MLOAD PUSH1 0x6 SSTORE PUSH1 0x60 DUP2 ADD MLOAD PUSH1 0x7 SSTORE PUSH1 0x80 DUP2 ADD MLOAD PUSH1 0x8 SSTORE PUSH3 0xBC PUSH3 0x260 JUMP JUMPDEST PUSH1 0xC DUP1 SLOAD PUSH2 0xFF00 NOT AND PUSH2 0x100 DUP4 PUSH1 0x4 DUP2 GT ISZERO PUSH3 0xDD JUMPI PUSH3 0xDD PUSH3 0x453 JUMP JUMPDEST MUL OR SWAP1 SSTORE POP PUSH1 0x6 SLOAD PUSH1 0x9 SSTORE PUSH1 0xC DUP1 SLOAD PUSH1 0xFF NOT AND SWAP1 SSTORE PUSH1 0x0 PUSH1 0xB SSTORE PUSH1 0x5 SLOAD PUSH1 0x1 PUSH1 0x1 PUSH1 0xA0 SHL SUB AND PUSH3 0x121 JUMPI PUSH1 0x5 DUP1 SLOAD PUSH1 0xFF PUSH1 0xA0 SHL NOT AND PUSH1 0x1 PUSH1 0xA0 SHL OR SWAP1 SSTORE PUSH3 0x150 JUMP JUMPDEST PUSH1 0x5 DUP1 SLOAD PUSH1 0xFF PUSH1 0xA0 SHL NOT DUP2 AND SWAP1 SWAP2 SSTORE PUSH1 0x1 DUP1 SLOAD PUSH1 0x1 PUSH1 0x1 PUSH1 0xA0 SHL SUB NOT AND PUSH1 0x1 PUSH1 0x1 PUSH1 0xA0 SHL SUB SWAP1 SWAP3 AND SWAP2 SWAP1 SWAP2 OR SWAP1 SSTORE JUMPDEST PUSH1 0x4 DUP1 SLOAD PUSH1 0x1 PUSH1 0x1 PUSH1 0xA0 SHL SUB NOT AND ADDRESS OR SWAP1 SSTORE PUSH3 0x16D DUP3 PUSH3 0x27A JUMP JUMPDEST PUSH32 0x813D49CE84071DDA2C63FCE419CCE1843E73C55512E307C889D031B57EDA73C7 PUSH3 0x1A1 PUSH1 0x0 SLOAD PUSH1 0x1 PUSH1 0x1 PUSH1 0xA0 SHL SUB AND SWAP1 JUMP JUMPDEST PUSH1 0x2 SLOAD PUSH1 0x3 SLOAD PUSH1 0x40 DUP1 MLOAD PUSH1 0x1 PUSH1 0x1 PUSH1 0xA0 SHL SUB SWAP5 DUP6 AND DUP2 MSTORE SWAP3 DUP5 AND PUSH1 0x20 DUP5 ADD MSTORE SWAP1 DUP4 AND SWAP1 DUP3 ADD MSTORE PUSH1 0x5 SLOAD SWAP2 DUP3 AND PUSH1 0x60 DUP3 ADD MSTORE PUSH1 0xFF PUSH1 0xA0 SWAP3 DUP4 SHR AND ISZERO ISZERO PUSH1 0x80 DUP3 ADD MSTORE PUSH1 0x6 SLOAD SWAP2 DUP2 ADD SWAP2 SWAP1 SWAP2 MSTORE PUSH1 0x7 SLOAD PUSH1 0xC0 DUP3 ADD MSTORE PUSH1 0x8 SLOAD PUSH1 0xE0 DUP3 ADD MSTORE PUSH2 0x100 ADD PUSH1 0x40 MLOAD DUP1 SWAP2 SUB SWAP1 LOG1 POP POP POP PUSH3 0x469 JUMP JUMPDEST PUSH1 0x0 DUP1 SLOAD PUSH1 0x1 PUSH1 0x1 PUSH1 0xA0 SHL SUB DUP4 DUP2 AND PUSH1 0x1 PUSH1 0x1 PUSH1 0xA0 SHL SUB NOT DUP4 AND DUP2 OR DUP5 SSTORE PUSH1 0x40 MLOAD SWAP2 SWAP1 SWAP3 AND SWAP3 DUP4 SWAP2 PUSH32 0x8BE0079C531659141344CD1FD0A4F28419497F9722A3DAAFE3B4186F6B6457E0 SWAP2 SWAP1 LOG3 POP POP JUMP JUMPDEST PUSH1 0x8 SLOAD PUSH1 0x0 SWAP1 TIMESTAMP LT ISZERO PUSH3 0x274 JUMPI POP PUSH1 0x1 SWAP1 JUMP JUMPDEST POP PUSH1 0x4 SWAP1 JUMP JUMPDEST PUSH3 0x284 PUSH3 0x2FD JUMP JUMPDEST PUSH1 0x1 PUSH1 0x1 PUSH1 0xA0 SHL SUB DUP2 AND PUSH3 0x2EF JUMPI PUSH1 0x40 MLOAD PUSH3 0x461BCD PUSH1 0xE5 SHL DUP2 MSTORE PUSH1 0x20 PUSH1 0x4 DUP3 ADD MSTORE PUSH1 0x26 PUSH1 0x24 DUP3 ADD MSTORE PUSH32 0x4F776E61626C653A206E6577206F776E657220697320746865207A65726F2061 PUSH1 0x44 DUP3 ADD MSTORE PUSH6 0x646472657373 PUSH1 0xD0 SHL PUSH1 0x64 DUP3 ADD MSTORE PUSH1 0x84 ADD JUMPDEST PUSH1 0x40 MLOAD DUP1 SWAP2 SUB SWAP1 REVERT JUMPDEST PUSH3 0x2FA DUP2 PUSH3 0x210 JUMP JUMPDEST POP JUMP JUMPDEST PUSH1 0x0 SLOAD PUSH1 0x1 PUSH1 0x1 PUSH1 0xA0 SHL SUB AND CALLER EQ PUSH3 0x359 JUMPI PUSH1 0x40 MLOAD PUSH3 0x461BCD PUSH1 0xE5 SHL DUP2 MSTORE PUSH1 0x20 PUSH1 0x4 DUP3 ADD DUP2 SWAP1 MSTORE PUSH1 0x24 DUP3 ADD MSTORE PUSH32 0x4F776E61626C653A2063616C6C6572206973206E6F7420746865206F776E6572 PUSH1 0x44 DUP3 ADD MSTORE PUSH1 0x64 ADD PUSH3 0x2E6 JUMP JUMPDEST JUMP JUMPDEST DUP1 MLOAD PUSH1 0x1 PUSH1 0x1 PUSH1 0xA0 SHL SUB DUP2 AND DUP2 EQ PUSH3 0x373 JUMPI PUSH1 0x0 DUP1 REVERT JUMPDEST SWAP2 SWAP1 POP JUMP JUMPDEST DUP1 MLOAD DUP1 ISZERO ISZERO DUP2 EQ PUSH3 0x373 JUMPI PUSH1 0x0 DUP1 REVERT JUMPDEST PUSH1 0x0 DUP1 PUSH1 0x0 DUP4 DUP6 SUB PUSH1 0xE0 DUP2 SLT ISZERO PUSH3 0x3A0 JUMPI PUSH1 0x0 DUP1 REVERT JUMPDEST PUSH3 0x3AB DUP6 PUSH3 0x35B JUMP JUMPDEST SWAP4 POP PUSH3 0x3BB PUSH1 0x20 DUP7 ADD PUSH3 0x35B JUMP JUMPDEST SWAP3 POP PUSH1 0xA0 PUSH1 0x3F NOT DUP3 ADD SLT ISZERO PUSH3 0x3D0 JUMPI PUSH1 0x0 DUP1 REVERT JUMPDEST POP PUSH1 0x40 MLOAD PUSH1 0xA0 DUP2 ADD PUSH1 0x1 PUSH1 0x1 PUSH1 0x40 SHL SUB DUP2 GT DUP3 DUP3 LT OR ISZERO PUSH3 0x402 JUMPI PUSH4 0x4E487B71 PUSH1 0xE0 SHL PUSH1 0x0 MSTORE PUSH1 0x41 PUSH1 0x4 MSTORE PUSH1 0x24 PUSH1 0x0 REVERT JUMPDEST DUP1 PUSH1 0x40 MSTORE POP PUSH3 0x415 PUSH1 0x40 DUP7 ADD PUSH3 0x35B JUMP JUMPDEST DUP2 MSTORE PUSH3 0x425 PUSH1 0x60 DUP7 ADD PUSH3 0x378 JUMP JUMPDEST PUSH1 0x20 DUP3 ADD MSTORE PUSH1 0x80 DUP6 ADD MLOAD PUSH1 0x40 DUP3 ADD MSTORE PUSH1 0xA0 DUP6 ADD MLOAD PUSH1 0x60 DUP3 ADD MSTORE PUSH1 0xC0 DUP6 ADD MLOAD PUSH1 0x80 DUP3 ADD MSTORE DUP1 SWAP2 POP POP SWAP3 POP SWAP3 POP SWAP3 JUMP JUMPDEST PUSH4 0x4E487B71 PUSH1 0xE0 SHL PUSH1 0x0 MSTORE PUSH1 0x21 PUSH1 0x4 MSTORE PUSH1 0x24 PUSH1 0x0 REVERT JUMPDEST PUSH2 0x1D53 DUP1 PUSH3 0x479 PUSH1 0x0 CODECOPY PUSH1 0x0 RETURN INVALID PUSH1 0x80 PUSH1 0x40 MSTORE PUSH1 0x4 CALLDATASIZE LT PUSH2 0xE8 JUMPI PUSH1 0x0 CALLDATALOAD PUSH1 0xE0 SHR DUP1 PUSH4 0x86D1A69F GT PUSH2 0x8A JUMPI DUP1 PUSH4 0xC19D93FB GT PUSH2 0x59 JUMPI DUP1 PUSH4 0xC19D93FB EQ PUSH2 0x1CC JUMPI DUP1 PUSH4 0xDA91254C EQ PUSH2 0x23E JUMPI DUP1 PUSH4 0xF2FDE38B EQ PUSH2 0x277 JUMPI DUP1 PUSH4 0xF83D08BA EQ PUSH2 0x297 JUMPI PUSH1 0x0 DUP1 REVERT JUMPDEST DUP1 PUSH4 0x86D1A69F EQ PUSH2 0x17C JUMPI DUP1 PUSH4 0x8DA5CB5B EQ PUSH2 0x184 JUMPI DUP1 PUSH4 0xA69DF4B5 EQ PUSH2 0x1B1 JUMPI DUP1 PUSH4 0xB6B55F25 EQ PUSH2 0x1B9 JUMPI PUSH1 0x0 DUP1 REVERT JUMPDEST DUP1 PUSH4 0x4BA7DDB5 GT PUSH2 0xC6 JUMPI DUP1 PUSH4 0x4BA7DDB5 EQ PUSH2 0x12A JUMPI DUP1 PUSH4 0x6AFC8D3E EQ PUSH2 0x132 JUMPI DUP1 PUSH4 0x715018A6 EQ PUSH2 0x152 JUMPI DUP1 PUSH4 0x7238FCA8 EQ PUSH2 0x167 JUMPI PUSH1 0x0 DUP1 REVERT JUMPDEST DUP1 PUSH4 0x1292A282 EQ PUSH2 0xED JUMPI DUP1 PUSH4 0x1A28C42E EQ PUSH2 0x10F JUMPI DUP1 PUSH4 0x43D726D6 EQ PUSH2 0x122 JUMPI JUMPDEST PUSH1 0x0 DUP1 REVERT JUMPDEST CALLVALUE DUP1 ISZERO PUSH2 0xF9 JUMPI PUSH1 0x0 DUP1 REVERT JUMPDEST POP PUSH2 0x10D PUSH2 0x108 CALLDATASIZE PUSH1 0x4 PUSH2 0x1B51 JUMP JUMPDEST PUSH2 0x29F JUMP JUMPDEST STOP JUMPDEST PUSH2 0x10D PUSH2 0x11D CALLDATASIZE PUSH1 0x4 PUSH2 0x1B9C JUMP JUMPDEST PUSH2 0x3AD JUMP JUMPDEST PUSH2 0x10D PUSH2 0x461 JUMP JUMPDEST PUSH2 0x10D PUSH2 0x5E0 JUMP JUMPDEST CALLVALUE DUP1 ISZERO PUSH2 0x13E JUMPI PUSH1 0x0 DUP1 REVERT JUMPDEST POP PUSH2 0x10D PUSH2 0x14D CALLDATASIZE PUSH1 0x4 PUSH2 0x1B51 JUMP JUMPDEST PUSH2 0x65D JUMP JUMPDEST CALLVALUE DUP1 ISZERO PUSH2 0x15E JUMPI PUSH1 0x0 DUP1 REVERT JUMPDEST POP PUSH2 0x10D PUSH2 0x722 JUMP JUMPDEST CALLVALUE DUP1 ISZERO PUSH2 0x173 JUMPI PUSH1 0x0 DUP1 REVERT JUMPDEST POP PUSH2 0x10D PUSH2 0x736 JUMP JUMPDEST PUSH2 0x10D PUSH2 0x76A JUMP JUMPDEST CALLVALUE DUP1 ISZERO PUSH2 0x190 JUMPI PUSH1 0x0 DUP1 REVERT JUMPDEST POP PUSH1 0x0 SLOAD PUSH1 0x40 MLOAD PUSH1 0x1 PUSH1 0x1 PUSH1 0xA0 SHL SUB SWAP1 SWAP2 AND DUP2 MSTORE PUSH1 0x20 ADD JUMPDEST PUSH1 0x40 MLOAD DUP1 SWAP2 SUB SWAP1 RETURN JUMPDEST PUSH2 0x10D PUSH2 0x7F5 JUMP JUMPDEST PUSH2 0x10D PUSH2 0x1C7 CALLDATASIZE PUSH1 0x4 PUSH2 0x1B9C JUMP JUMPDEST PUSH2 0x850 JUMP JUMPDEST CALLVALUE DUP1 ISZERO PUSH2 0x1D8 JUMPI PUSH1 0x0 DUP1 REVERT JUMPDEST POP PUSH2 0x1E1 PUSH2 0x8DF JUMP JUMPDEST PUSH1 0x40 DUP1 MLOAD PUSH1 0xFF SWAP13 DUP14 AND DUP2 MSTORE PUSH1 0x20 DUP2 ADD SWAP12 SWAP1 SWAP12 MSTORE DUP11 ADD SWAP9 SWAP1 SWAP9 MSTORE PUSH1 0x60 DUP10 ADD SWAP7 SWAP1 SWAP7 MSTORE PUSH1 0x80 DUP9 ADD SWAP5 SWAP1 SWAP5 MSTORE PUSH1 0xA0 DUP8 ADD SWAP3 SWAP1 SWAP3 MSTORE ISZERO ISZERO PUSH1 0xC0 DUP7 ADD MSTORE PUSH1 0xE0 DUP6 ADD MSTORE DUP5 AND PUSH2 0x100 DUP5 ADD MSTORE PUSH2 0x120 DUP4 ADD MSTORE SWAP1 SWAP2 AND PUSH2 0x140 DUP3 ADD MSTORE PUSH2 0x160 ADD PUSH2 0x1A8 JUMP JUMPDEST CALLVALUE DUP1 ISZERO PUSH2 0x24A JUMPI PUSH1 0x0 DUP1 REVERT JUMPDEST POP PUSH2 0x253 PUSH2 0x980 JUMP JUMPDEST PUSH1 0x40 DUP1 MLOAD PUSH1 0xFF SWAP5 DUP6 AND DUP2 MSTORE PUSH1 0x20 DUP2 ADD SWAP4 SWAP1 SWAP4 MSTORE SWAP3 AND SWAP2 DUP2 ADD SWAP2 SWAP1 SWAP2 MSTORE PUSH1 0x60 ADD PUSH2 0x1A8 JUMP JUMPDEST CALLVALUE DUP1 ISZERO PUSH2 0x283 JUMPI PUSH1 0x0 DUP1 REVERT JUMPDEST POP PUSH2 0x10D PUSH2 0x292 CALLDATASIZE PUSH1 0x4 PUSH2 0x1B51 JUMP JUMPDEST PUSH2 0x999 JUMP JUMPDEST PUSH2 0x10D PUSH2 0xA12 JUMP JUMPDEST PUSH2 0x2A7 PUSH2 0xA4D JUMP JUMPDEST PUSH2 0x2CA PUSH1 0x1 PUSH1 0x40 MLOAD DUP1 PUSH1 0x60 ADD PUSH1 0x40 MSTORE DUP1 PUSH1 0x22 DUP2 MSTORE PUSH1 0x20 ADD PUSH2 0x1CDB PUSH1 0x22 SWAP2 CODECOPY PUSH2 0xAA7 JUMP JUMPDEST PUSH1 0x0 PUSH2 0x2D5 DUP3 PUSH2 0xAFA JUMP JUMPDEST POP SWAP3 POP POP POP DUP1 DUP1 PUSH2 0x2EF JUMPI POP DUP1 ISZERO DUP1 ISZERO PUSH2 0x2EF JUMPI POP PUSH1 0x7 SLOAD ISZERO JUMPDEST PUSH2 0x340 JUMPI PUSH1 0x40 MLOAD PUSH3 0x461BCD PUSH1 0xE5 SHL DUP2 MSTORE PUSH1 0x20 PUSH1 0x4 DUP3 ADD MSTORE PUSH1 0x1F PUSH1 0x24 DUP3 ADD MSTORE PUSH32 0x546F20626520617070726F766564206D7573742061206170706C6963616E7400 PUSH1 0x44 DUP3 ADD MSTORE PUSH1 0x64 ADD JUMPDEST PUSH1 0x40 MLOAD DUP1 SWAP2 SUB SWAP1 REVERT JUMPDEST PUSH2 0x349 DUP3 PUSH2 0xB58 JUMP JUMPDEST PUSH2 0x356 DUP3 PUSH1 0x0 PUSH1 0x5 PUSH2 0xC43 JUMP JUMPDEST PUSH1 0xC DUP1 SLOAD PUSH2 0xFFFF NOT AND PUSH2 0x201 OR SWAP1 SSTORE PUSH1 0x1 PUSH1 0x1 PUSH1 0xA0 SHL SUB DUP3 AND PUSH1 0x0 SWAP1 DUP2 MSTORE PUSH1 0xF PUSH1 0x20 SWAP1 DUP2 MSTORE PUSH1 0x40 DUP1 DUP4 KECCAK256 DUP1 SLOAD PUSH1 0xFF NOT SWAP1 DUP2 AND PUSH1 0x1 SWAP1 DUP2 OR SWAP1 SWAP3 SSTORE PUSH1 0x10 SWAP1 SWAP4 MSTORE SWAP3 KECCAK256 DUP1 SLOAD SWAP1 SWAP2 AND SWAP1 SWAP2 OR SWAP1 SSTORE PUSH2 0x3A9 PUSH2 0xD15 JUMP JUMPDEST POP POP JUMP JUMPDEST PUSH2 0x3B5 PUSH2 0xD27 JUMP JUMPDEST PUSH2 0x3BD PUSH2 0xE91 JUMP JUMPDEST PUSH2 0x3E0 PUSH1 0x1 PUSH1 0x40 MLOAD DUP1 PUSH1 0x60 ADD PUSH1 0x40 MSTORE DUP1 PUSH1 0x22 DUP2 MSTORE PUSH1 0x20 ADD PUSH2 0x1CDB PUSH1 0x22 SWAP2 CODECOPY PUSH2 0xAA7 JUMP JUMPDEST PUSH1 0x7 SLOAD DUP2 LT ISZERO PUSH2 0x432 JUMPI PUSH1 0x40 MLOAD PUSH3 0x461BCD PUSH1 0xE5 SHL DUP2 MSTORE PUSH1 0x20 PUSH1 0x4 DUP3 ADD MSTORE PUSH1 0x1E PUSH1 0x24 DUP3 ADD MSTORE PUSH32 0x4465706F73697420616D6F756E74206C657373207468616E206C696D69740000 PUSH1 0x44 DUP3 ADD MSTORE PUSH1 0x64 ADD PUSH2 0x337 JUMP JUMPDEST PUSH2 0x43B DUP2 PUSH2 0xEEE JUMP JUMPDEST PUSH2 0x447 CALLER DUP3 PUSH1 0x1 PUSH2 0xC43 JUMP JUMPDEST DUP1 PUSH1 0xA PUSH1 0x0 DUP3 DUP3 SLOAD PUSH2 0x459 SWAP2 SWAP1 PUSH2 0x1C4E JUMP JUMPDEST SWAP1 SWAP2 SSTORE POP POP POP JUMP JUMPDEST PUSH2 0x469 PUSH2 0xA4D JUMP JUMPDEST PUSH1 0xA SLOAD PUSH1 0x9 SLOAD PUSH2 0x479 SWAP2 SWAP1 PUSH2 0x1C4E JUMP JUMPDEST ISZERO PUSH2 0x4C6 JUMPI PUSH1 0x40 MLOAD PUSH3 0x461BCD PUSH1 0xE5 SHL DUP2 MSTORE PUSH1 0x20 PUSH1 0x4 DUP3 ADD MSTORE PUSH1 0x1E PUSH1 0x24 DUP3 ADD MSTORE PUSH32 0x4465706F7369742062616C616E6365206D6F7265207468616E207A65726F0000 PUSH1 0x44 DUP3 ADD MSTORE PUSH1 0x64 ADD PUSH2 0x337 JUMP JUMPDEST PUSH2 0x506 PUSH1 0x3 PUSH1 0x40 MLOAD DUP1 PUSH1 0x40 ADD PUSH1 0x40 MSTORE DUP1 PUSH1 0x1A DUP2 MSTORE PUSH1 0x20 ADD PUSH32 0x426F756E74792073746174757320697320636F6D706C65746564000000000000 DUP2 MSTORE POP PUSH2 0x1335 JUMP JUMPDEST PUSH2 0x546 PUSH1 0x4 PUSH1 0x40 MLOAD DUP1 PUSH1 0x40 ADD PUSH1 0x40 MSTORE DUP1 PUSH1 0x18 DUP2 MSTORE PUSH1 0x20 ADD PUSH32 0x426F756E74792073746174757320697320657870697265640000000000000000 DUP2 MSTORE POP PUSH2 0x1335 JUMP JUMPDEST PUSH1 0x3 SLOAD PUSH1 0x4 SLOAD PUSH2 0x56B SWAP2 PUSH1 0x1 PUSH1 0x1 PUSH1 0xA0 SHL SUB SWAP1 DUP2 AND SWAP2 PUSH2 0x566 SWAP2 AND PUSH2 0x1384 JUMP JUMPDEST PUSH2 0x142A JUMP JUMPDEST PUSH2 0x5C7 JUMPI PUSH1 0x40 MLOAD PUSH3 0x461BCD PUSH1 0xE5 SHL DUP2 MSTORE PUSH1 0x20 PUSH1 0x4 DUP3 ADD MSTORE PUSH1 0x27 PUSH1 0x24 DUP3 ADD MSTORE PUSH32 0x5472616E736665722062616C616E636520746F2074686520666F756E64657220 PUSH1 0x44 DUP3 ADD MSTORE PUSH7 0x6661696C757265 PUSH1 0xC8 SHL PUSH1 0x64 DUP3 ADD MSTORE PUSH1 0x84 ADD PUSH2 0x337 JUMP JUMPDEST PUSH1 0xC DUP1 SLOAD PUSH1 0x3 SWAP2 SWAP1 PUSH2 0xFF00 NOT AND PUSH2 0x100 DUP4 JUMPDEST MUL OR SWAP1 SSTORE POP JUMP JUMPDEST PUSH2 0x5E8 PUSH2 0x15F1 JUMP JUMPDEST PUSH1 0xC SLOAD PUSH1 0xFF AND ISZERO PUSH2 0x60B JUMPI PUSH1 0x40 MLOAD PUSH3 0x461BCD PUSH1 0xE5 SHL DUP2 MSTORE PUSH1 0x4 ADD PUSH2 0x337 SWAP1 PUSH2 0x1C23 JUMP JUMPDEST PUSH2 0x62E PUSH1 0x1 PUSH1 0x40 MLOAD DUP1 PUSH1 0x60 ADD PUSH1 0x40 MSTORE DUP1 PUSH1 0x22 DUP2 MSTORE PUSH1 0x20 ADD PUSH2 0x1CDB PUSH1 0x22 SWAP2 CODECOPY PUSH2 0xAA7 JUMP JUMPDEST PUSH2 0x637 CALLER PUSH2 0x1643 JUMP JUMPDEST CALLER PUSH1 0x0 SWAP1 DUP2 MSTORE PUSH1 0xE PUSH1 0x20 MSTORE PUSH1 0x40 SWAP1 KECCAK256 PUSH1 0x1 SWAP1 DUP2 ADD DUP1 SLOAD PUSH1 0x3 SWAP3 PUSH1 0xFF NOT SWAP1 SWAP2 AND SWAP1 DUP4 PUSH2 0x5D9 JUMP JUMPDEST PUSH2 0x665 PUSH2 0xA4D JUMP JUMPDEST PUSH2 0x688 PUSH1 0x2 PUSH1 0x40 MLOAD DUP1 PUSH1 0x60 ADD PUSH1 0x40 MSTORE DUP1 PUSH1 0x21 DUP2 MSTORE PUSH1 0x20 ADD PUSH2 0x1CFD PUSH1 0x21 SWAP2 CODECOPY PUSH2 0xAA7 JUMP JUMPDEST PUSH1 0x0 PUSH2 0x693 DUP3 PUSH2 0xAFA JUMP JUMPDEST POP POP SWAP2 POP POP DUP1 PUSH2 0x6E5 JUMPI PUSH1 0x40 MLOAD PUSH3 0x461BCD PUSH1 0xE5 SHL DUP2 MSTORE PUSH1 0x20 PUSH1 0x4 DUP3 ADD DUP2 SWAP1 MSTORE PUSH1 0x24 DUP3 ADD MSTORE PUSH32 0x4170706C6963616E7420737461747573206973206E6F7420617070726F766564 PUSH1 0x44 DUP3 ADD MSTORE PUSH1 0x64 ADD PUSH2 0x337 JUMP JUMPDEST POP PUSH1 0x1 PUSH1 0x1 PUSH1 0xA0 SHL SUB AND PUSH1 0x0 SWAP1 DUP2 MSTORE PUSH1 0xE PUSH1 0x20 SWAP1 DUP2 MSTORE PUSH1 0x40 DUP1 DUP4 KECCAK256 PUSH1 0x1 ADD DUP1 SLOAD PUSH1 0xFF NOT SWAP1 DUP2 AND PUSH1 0x6 OR SWAP1 SWAP2 SSTORE PUSH1 0xF SWAP1 SWAP3 MSTORE SWAP1 SWAP2 KECCAK256 DUP1 SLOAD SWAP1 SWAP2 AND SWAP1 SSTORE JUMP JUMPDEST PUSH2 0x72A PUSH2 0x170A JUMP JUMPDEST PUSH2 0x734 PUSH1 0x0 PUSH2 0x1764 JUMP JUMPDEST JUMP JUMPDEST PUSH2 0x73F CALLER PUSH2 0x17B4 JUMP JUMPDEST PUSH2 0x762 PUSH1 0x2 PUSH1 0x40 MLOAD DUP1 PUSH1 0x60 ADD PUSH1 0x40 MSTORE DUP1 PUSH1 0x21 DUP2 MSTORE PUSH1 0x20 ADD PUSH2 0x1CFD PUSH1 0x21 SWAP2 CODECOPY PUSH2 0xAA7 JUMP JUMPDEST PUSH2 0x734 PUSH2 0xD15 JUMP JUMPDEST PUSH2 0x772 PUSH2 0xA4D JUMP JUMPDEST PUSH1 0xC SLOAD PUSH1 0xFF AND ISZERO PUSH2 0x795 JUMPI PUSH1 0x40 MLOAD PUSH3 0x461BCD PUSH1 0xE5 SHL DUP2 MSTORE PUSH1 0x4 ADD PUSH2 0x337 SWAP1 PUSH2 0x1C23 JUMP JUMPDEST PUSH1 0x0 PUSH1 0xA SLOAD PUSH1 0x9 SLOAD PUSH2 0x7A7 SWAP2 SWAP1 PUSH2 0x1C4E JUMP JUMPDEST GT PUSH2 0x7ED JUMPI PUSH1 0x40 MLOAD PUSH3 0x461BCD PUSH1 0xE5 SHL DUP2 MSTORE PUSH1 0x20 PUSH1 0x4 DUP3 ADD MSTORE PUSH1 0x16 PUSH1 0x24 DUP3 ADD MSTORE PUSH22 0x4465706F73697420616D6F756E74206973207A65726F PUSH1 0x50 SHL PUSH1 0x44 DUP3 ADD MSTORE PUSH1 0x64 ADD PUSH2 0x337 JUMP JUMPDEST PUSH2 0x734 PUSH2 0x1849 JUMP JUMPDEST PUSH2 0x7FE CALLER PUSH2 0x1859 JUMP JUMPDEST PUSH1 0xC SLOAD PUSH1 0xFF AND PUSH2 0x844 JUMPI PUSH1 0x40 MLOAD PUSH3 0x461BCD PUSH1 0xE5 SHL DUP2 MSTORE PUSH1 0x20 PUSH1 0x4 DUP3 ADD MSTORE PUSH1 0x11 PUSH1 0x24 DUP3 ADD MSTORE PUSH17 0x4465706F73697420697320756E6C6F636B PUSH1 0x78 SHL PUSH1 0x44 DUP3 ADD MSTORE PUSH1 0x64 ADD PUSH2 0x337 JUMP JUMPDEST PUSH1 0xC DUP1 SLOAD PUSH1 0xFF NOT AND SWAP1 SSTORE JUMP JUMPDEST PUSH2 0x858 PUSH2 0xA4D JUMP JUMPDEST PUSH2 0x87B PUSH1 0x1 PUSH1 0x40 MLOAD DUP1 PUSH1 0x60 ADD PUSH1 0x40 MSTORE DUP1 PUSH1 0x22 DUP2 MSTORE PUSH1 0x20 ADD PUSH2 0x1CDB PUSH1 0x22 SWAP2 CODECOPY PUSH2 0xAA7 JUMP JUMPDEST PUSH1 0x0 DUP2 GT PUSH2 0x8C4 JUMPI PUSH1 0x40 MLOAD PUSH3 0x461BCD PUSH1 0xE5 SHL DUP2 MSTORE PUSH1 0x20 PUSH1 0x4 DUP3 ADD MSTORE PUSH1 0x16 PUSH1 0x24 DUP3 ADD MSTORE PUSH22 0x4465706F73697420616D6F756E74206973207A65726F PUSH1 0x50 SHL PUSH1 0x44 DUP3 ADD MSTORE PUSH1 0x64 ADD PUSH2 0x337 JUMP JUMPDEST PUSH2 0x8CD DUP2 PUSH2 0xEEE JUMP JUMPDEST DUP1 PUSH1 0x9 PUSH1 0x0 DUP3 DUP3 SLOAD PUSH2 0x459 SWAP2 SWAP1 PUSH2 0x1C4E JUMP JUMPDEST PUSH1 0x0 DUP1 PUSH1 0x0 DUP1 PUSH1 0x0 DUP1 PUSH1 0x0 DUP1 PUSH1 0x0 DUP1 PUSH1 0x0 DUP1 PUSH1 0x0 DUP1 PUSH2 0x8FC PUSH2 0x980 JUMP JUMPDEST PUSH1 0xC SLOAD SWAP3 SWAP6 POP SWAP1 SWAP4 POP SWAP2 POP PUSH2 0x100 SWAP1 DIV PUSH1 0xFF AND PUSH1 0x4 DUP2 GT ISZERO PUSH2 0x920 JUMPI PUSH2 0x920 PUSH2 0x1CAE JUMP JUMPDEST PUSH1 0xD SLOAD PUSH1 0x4 SLOAD PUSH2 0x938 SWAP1 PUSH1 0x1 PUSH1 0x1 PUSH1 0xA0 SHL SUB AND PUSH2 0x1384 JUMP JUMPDEST PUSH1 0x9 SLOAD PUSH1 0xA SLOAD PUSH1 0x5 PUSH1 0x2 ADD SLOAD PUSH1 0xC PUSH1 0x0 SWAP1 SLOAD SWAP1 PUSH2 0x100 EXP SWAP1 DIV PUSH1 0xFF AND PUSH1 0xB SLOAD DUP11 DUP11 DUP11 SWAP14 POP SWAP14 POP SWAP14 POP SWAP14 POP SWAP14 POP SWAP14 POP SWAP14 POP SWAP14 POP SWAP14 POP SWAP14 POP SWAP14 POP POP POP POP SWAP1 SWAP2 SWAP3 SWAP4 SWAP5 SWAP6 SWAP7 SWAP8 SWAP9 SWAP10 SWAP11 JUMP JUMPDEST PUSH1 0x0 DUP1 PUSH1 0x0 PUSH2 0x98E CALLER PUSH2 0x1928 JUMP JUMPDEST SWAP3 POP SWAP3 POP SWAP3 POP SWAP1 SWAP2 SWAP3 JUMP JUMPDEST PUSH2 0x9A1 PUSH2 0x170A JUMP JUMPDEST PUSH1 0x1 PUSH1 0x1 PUSH1 0xA0 SHL SUB DUP2 AND PUSH2 0xA06 JUMPI PUSH1 0x40 MLOAD PUSH3 0x461BCD PUSH1 0xE5 SHL DUP2 MSTORE PUSH1 0x20 PUSH1 0x4 DUP3 ADD MSTORE PUSH1 0x26 PUSH1 0x24 DUP3 ADD MSTORE PUSH32 0x4F776E61626C653A206E6577206F776E657220697320746865207A65726F2061 PUSH1 0x44 DUP3 ADD MSTORE PUSH6 0x646472657373 PUSH1 0xD0 SHL PUSH1 0x64 DUP3 ADD MSTORE PUSH1 0x84 ADD PUSH2 0x337 JUMP JUMPDEST PUSH2 0xA0F DUP2 PUSH2 0x1764 JUMP JUMPDEST POP JUMP JUMPDEST PUSH2 0xA1B CALLER PUSH2 0x17B4 JUMP JUMPDEST PUSH1 0xC SLOAD PUSH1 0xFF AND ISZERO PUSH2 0xA3E JUMPI PUSH1 0x40 MLOAD PUSH3 0x461BCD PUSH1 0xE5 SHL DUP2 MSTORE PUSH1 0x4 ADD PUSH2 0x337 SWAP1 PUSH2 0x1C23 JUMP JUMPDEST PUSH1 0xC DUP1 SLOAD PUSH1 0xFF NOT AND PUSH1 0x1 OR SWAP1 SSTORE JUMP JUMPDEST PUSH1 0x3 SLOAD PUSH1 0x1 PUSH1 0x1 PUSH1 0xA0 SHL SUB AND CALLER EQ PUSH2 0x734 JUMPI PUSH1 0x40 MLOAD PUSH3 0x461BCD PUSH1 0xE5 SHL DUP2 MSTORE PUSH1 0x20 PUSH1 0x4 DUP3 ADD MSTORE PUSH1 0x19 PUSH1 0x24 DUP3 ADD MSTORE PUSH32 0x43616C6C6572206973206E6F742074686520666F756E64657200000000000000 PUSH1 0x44 DUP3 ADD MSTORE PUSH1 0x64 ADD PUSH2 0x337 JUMP JUMPDEST DUP2 PUSH1 0x4 DUP2 GT ISZERO PUSH2 0xAB9 JUMPI PUSH2 0xAB9 PUSH2 0x1CAE JUMP JUMPDEST PUSH1 0xC SLOAD PUSH2 0x100 SWAP1 DIV PUSH1 0xFF AND PUSH1 0x4 DUP2 GT ISZERO PUSH2 0xAD5 JUMPI PUSH2 0xAD5 PUSH2 0x1CAE JUMP JUMPDEST EQ DUP2 SWAP1 PUSH2 0xAF5 JUMPI PUSH1 0x40 MLOAD PUSH3 0x461BCD PUSH1 0xE5 SHL DUP2 MSTORE PUSH1 0x4 ADD PUSH2 0x337 SWAP2 SWAP1 PUSH2 0x1BCE JUMP JUMPDEST POP POP POP JUMP JUMPDEST PUSH1 0x0 DUP1 PUSH1 0x0 DUP1 PUSH1 0x0 DUP1 PUSH1 0x0 PUSH2 0xB0E DUP9 PUSH2 0x197E JUMP JUMPDEST SWAP3 POP SWAP3 POP SWAP3 POP DUP3 SWAP7 POP PUSH1 0x0 SWAP6 POP PUSH1 0x0 SWAP5 POP DUP7 ISZERO PUSH2 0xB4B JUMPI PUSH1 0xFF DUP2 AND PUSH1 0x5 EQ ISZERO PUSH2 0xB3A JUMPI PUSH1 0x1 SWAP6 POP PUSH2 0xB4B JUMP JUMPDEST PUSH1 0xFF DUP2 AND PUSH1 0x1 EQ ISZERO PUSH2 0xB4B JUMPI PUSH1 0x1 SWAP5 POP JUMPDEST DUP2 SWAP4 POP POP POP POP SWAP2 SWAP4 POP SWAP2 SWAP4 JUMP JUMPDEST PUSH1 0x0 JUMPDEST PUSH1 0xD SLOAD DUP2 LT ISZERO PUSH2 0x3A9 JUMPI DUP2 PUSH1 0x1 PUSH1 0x1 PUSH1 0xA0 SHL SUB AND PUSH1 0xD DUP3 DUP2 SLOAD DUP2 LT PUSH2 0xB82 JUMPI PUSH2 0xB82 PUSH2 0x1CC4 JUMP JUMPDEST PUSH1 0x0 SWAP2 DUP3 MSTORE PUSH1 0x20 SWAP1 SWAP2 KECCAK256 ADD SLOAD PUSH1 0x1 PUSH1 0x1 PUSH1 0xA0 SHL SUB AND EQ PUSH2 0xC31 JUMPI PUSH2 0xBCC PUSH1 0xD DUP3 DUP2 SLOAD DUP2 LT PUSH2 0xBB2 JUMPI PUSH2 0xBB2 PUSH2 0x1CC4 JUMP JUMPDEST PUSH1 0x0 SWAP2 DUP3 MSTORE PUSH1 0x20 SWAP1 SWAP2 KECCAK256 ADD SLOAD PUSH1 0x1 PUSH1 0x1 PUSH1 0xA0 SHL SUB AND PUSH2 0x1643 JUMP JUMPDEST PUSH1 0x4 PUSH1 0xE PUSH1 0x0 PUSH1 0xD DUP5 DUP2 SLOAD DUP2 LT PUSH2 0xBE5 JUMPI PUSH2 0xBE5 PUSH2 0x1CC4 JUMP JUMPDEST PUSH1 0x0 SWAP2 DUP3 MSTORE PUSH1 0x20 DUP1 DUP4 KECCAK256 SWAP1 SWAP2 ADD SLOAD PUSH1 0x1 PUSH1 0x1 PUSH1 0xA0 SHL SUB AND DUP4 MSTORE DUP3 ADD SWAP3 SWAP1 SWAP3 MSTORE PUSH1 0x40 ADD SWAP1 KECCAK256 PUSH1 0x1 SWAP1 DUP2 ADD DUP1 SLOAD SWAP1 SWAP2 PUSH1 0xFF NOT SWAP1 SWAP2 AND SWAP1 DUP4 PUSH1 0x6 DUP2 GT ISZERO PUSH2 0xC2B JUMPI PUSH2 0xC2B PUSH2 0x1CAE JUMP JUMPDEST MUL OR SWAP1 SSTORE POP JUMPDEST DUP1 PUSH2 0xC3B DUP2 PUSH2 0x1C7D JUMP JUMPDEST SWAP2 POP POP PUSH2 0xB5B JUMP JUMPDEST PUSH1 0x0 PUSH2 0xC4E DUP5 PUSH2 0x197E JUMP JUMPDEST POP POP SWAP1 POP DUP1 PUSH2 0xCA3 JUMPI PUSH1 0xD DUP1 SLOAD PUSH1 0x1 DUP2 ADD DUP3 SSTORE PUSH1 0x0 SWAP2 SWAP1 SWAP2 MSTORE PUSH32 0xD7B6990105719101DABEB77144F2A3385C8033ACD3AF97E9423A695E81AD1EB5 ADD DUP1 SLOAD PUSH1 0x1 PUSH1 0x1 PUSH1 0xA0 SHL SUB NOT AND PUSH1 0x1 PUSH1 0x1 PUSH1 0xA0 SHL SUB DUP7 AND OR SWAP1 SSTORE JUMPDEST PUSH1 0x1 PUSH1 0x1 PUSH1 0xA0 SHL SUB DUP5 AND PUSH1 0x0 SWAP1 DUP2 MSTORE PUSH1 0xE PUSH1 0x20 MSTORE PUSH1 0x40 SWAP1 KECCAK256 PUSH1 0x1 SWAP1 DUP2 ADD DUP1 SLOAD DUP5 SWAP3 PUSH1 0xFF NOT SWAP1 SWAP2 AND SWAP1 DUP4 PUSH1 0x6 DUP2 GT ISZERO PUSH2 0xCDD JUMPI PUSH2 0xCDD PUSH2 0x1CAE JUMP JUMPDEST MUL OR SWAP1 SSTORE POP PUSH1 0x1 PUSH1 0x1 PUSH1 0xA0 SHL SUB DUP5 AND PUSH1 0x0 SWAP1 DUP2 MSTORE PUSH1 0xE PUSH1 0x20 MSTORE PUSH1 0x40 DUP2 KECCAK256 DUP1 SLOAD DUP6 SWAP3 SWAP1 PUSH2 0xD0A SWAP1 DUP5 SWAP1 PUSH2 0x1C4E JUMP JUMPDEST SWAP1 SWAP2 SSTORE POP POP POP POP POP POP JUMP JUMPDEST PUSH2 0xD22 TIMESTAMP PUSH3 0x69780 PUSH2 0x1C4E JUMP JUMPDEST PUSH1 0xB SSTORE JUMP JUMPDEST PUSH1 0x2 SLOAD PUSH1 0x1 PUSH1 0x1 PUSH1 0xA0 SHL SUB AND CALLER EQ ISZERO PUSH2 0xD78 JUMPI PUSH1 0x40 MLOAD PUSH3 0x461BCD PUSH1 0xE5 SHL DUP2 MSTORE PUSH1 0x20 PUSH1 0x4 DUP3 ADD MSTORE PUSH1 0x13 PUSH1 0x24 DUP3 ADD MSTORE PUSH19 0x4D757374206E6F7420626520666163746F7279 PUSH1 0x68 SHL PUSH1 0x44 DUP3 ADD MSTORE PUSH1 0x64 ADD PUSH2 0x337 JUMP JUMPDEST PUSH1 0x3 SLOAD PUSH1 0x1 PUSH1 0x1 PUSH1 0xA0 SHL SUB AND CALLER EQ ISZERO PUSH2 0xDC9 JUMPI PUSH1 0x40 MLOAD PUSH3 0x461BCD PUSH1 0xE5 SHL DUP2 MSTORE PUSH1 0x20 PUSH1 0x4 DUP3 ADD MSTORE PUSH1 0x13 PUSH1 0x24 DUP3 ADD MSTORE PUSH19 0x26BAB9BA103737BA103132903337BAB73232B9 PUSH1 0x69 SHL PUSH1 0x44 DUP3 ADD MSTORE PUSH1 0x64 ADD PUSH2 0x337 JUMP JUMPDEST PUSH1 0x4 SLOAD PUSH1 0x1 PUSH1 0x1 PUSH1 0xA0 SHL SUB AND CALLER EQ ISZERO PUSH2 0xE24 JUMPI PUSH1 0x40 MLOAD PUSH3 0x461BCD PUSH1 0xE5 SHL DUP2 MSTORE PUSH1 0x20 PUSH1 0x4 DUP3 ADD MSTORE PUSH1 0x18 PUSH1 0x24 DUP3 ADD MSTORE PUSH32 0x4D757374206E6F7420626520636F6E747261637473656C660000000000000000 PUSH1 0x44 DUP3 ADD MSTORE PUSH1 0x64 ADD PUSH2 0x337 JUMP JUMPDEST PUSH1 0x0 DUP1 PUSH2 0xE30 CALLER PUSH2 0x197E JUMP JUMPDEST SWAP3 POP POP SWAP2 POP DUP2 ISZERO DUP1 PUSH2 0xE4D JUMPI POP DUP2 DUP1 ISZERO PUSH2 0xE4D JUMPI POP PUSH1 0xFF DUP2 AND PUSH1 0x3 EQ JUMPDEST PUSH2 0x3A9 JUMPI PUSH1 0x40 MLOAD PUSH3 0x461BCD PUSH1 0xE5 SHL DUP2 MSTORE PUSH1 0x20 PUSH1 0x4 DUP3 ADD MSTORE PUSH1 0x15 PUSH1 0x24 DUP3 ADD MSTORE PUSH21 0x135D5CDD081B9BDD08189948185C1C1B1A58D85B9D PUSH1 0x5A SHL PUSH1 0x44 DUP3 ADD MSTORE PUSH1 0x64 ADD PUSH2 0x337 JUMP JUMPDEST PUSH1 0x8 SLOAD TIMESTAMP GT ISZERO PUSH2 0x734 JUMPI PUSH1 0x40 MLOAD PUSH3 0x461BCD PUSH1 0xE5 SHL DUP2 MSTORE PUSH1 0x20 PUSH1 0x4 DUP3 ADD MSTORE PUSH1 0x22 PUSH1 0x24 DUP3 ADD MSTORE PUSH32 0x54696D65207061737420746865206170706C69636174696F6E20646561646C69 PUSH1 0x44 DUP3 ADD MSTORE PUSH2 0x6E65 PUSH1 0xF0 SHL PUSH1 0x64 DUP3 ADD MSTORE PUSH1 0x84 ADD PUSH2 0x337 JUMP JUMPDEST DUP1 ISZERO PUSH2 0xA0F JUMPI PUSH1 0x5 SLOAD PUSH1 0x1 PUSH1 0xA0 SHL SWAP1 DIV PUSH1 0xFF AND ISZERO PUSH2 0x1048 JUMPI DUP1 CALLVALUE EQ PUSH2 0xF4E JUMPI PUSH1 0x40 MLOAD PUSH3 0x461BCD PUSH1 0xE5 SHL DUP2 MSTORE PUSH1 0x20 PUSH1 0x4 DUP3 ADD MSTORE PUSH1 0x16 PUSH1 0x24 DUP3 ADD MSTORE PUSH22 0x1B5CD9CB9D985B1D59481A5CC81B9BDD081D985B1A59 PUSH1 0x52 SHL PUSH1 0x44 DUP3 ADD MSTORE PUSH1 0x64 ADD PUSH2 0x337 JUMP JUMPDEST CALLER BALANCE DUP2 GT ISZERO PUSH2 0xF9F JUMPI PUSH1 0x40 MLOAD PUSH3 0x461BCD PUSH1 0xE5 SHL DUP2 MSTORE PUSH1 0x20 PUSH1 0x4 DUP3 ADD MSTORE PUSH1 0x1C PUSH1 0x24 DUP3 ADD MSTORE PUSH32 0x596F75722062616C616E636520697320696E73756666696369656E7400000000 PUSH1 0x44 DUP3 ADD MSTORE PUSH1 0x64 ADD PUSH2 0x337 JUMP JUMPDEST PUSH1 0x4 SLOAD PUSH1 0x40 MLOAD PUSH1 0x0 SWAP2 PUSH1 0x1 PUSH1 0x1 PUSH1 0xA0 SHL SUB AND SWAP1 DUP4 SWAP1 DUP4 DUP2 DUP2 DUP2 DUP6 DUP8 GAS CALL SWAP3 POP POP POP RETURNDATASIZE DUP1 PUSH1 0x0 DUP2 EQ PUSH2 0xFEC JUMPI PUSH1 0x40 MLOAD SWAP2 POP PUSH1 0x1F NOT PUSH1 0x3F RETURNDATASIZE ADD AND DUP3 ADD PUSH1 0x40 MSTORE RETURNDATASIZE DUP3 MSTORE RETURNDATASIZE PUSH1 0x0 PUSH1 0x20 DUP5 ADD RETURNDATACOPY PUSH2 0xFF1 JUMP JUMPDEST PUSH1 0x60 SWAP2 POP JUMPDEST POP POP SWAP1 POP DUP1 PUSH2 0x1042 JUMPI PUSH1 0x40 MLOAD PUSH3 0x461BCD PUSH1 0xE5 SHL DUP2 MSTORE PUSH1 0x20 PUSH1 0x4 DUP3 ADD MSTORE PUSH1 0x19 PUSH1 0x24 DUP3 ADD MSTORE PUSH32 0x5472616E7366657220636F6E7472616374206661696C75726500000000000000 PUSH1 0x44 DUP3 ADD MSTORE PUSH1 0x64 ADD PUSH2 0x337 JUMP JUMPDEST POP PUSH2 0x12F9 JUMP JUMPDEST PUSH1 0x1 SLOAD PUSH1 0x4 DUP1 SLOAD PUSH1 0x40 MLOAD PUSH4 0x6EB1769F PUSH1 0xE1 SHL DUP2 MSTORE CALLER SWAP3 DUP2 ADD SWAP3 SWAP1 SWAP3 MSTORE PUSH1 0x1 PUSH1 0x1 PUSH1 0xA0 SHL SUB SWAP1 DUP2 AND PUSH1 0x24 DUP4 ADD MSTORE DUP4 SWAP3 AND SWAP1 PUSH4 0xDD62ED3E SWAP1 PUSH1 0x44 ADD PUSH1 0x20 PUSH1 0x40 MLOAD DUP1 DUP4 SUB DUP2 DUP7 DUP1 EXTCODESIZE ISZERO DUP1 ISZERO PUSH2 0x1099 JUMPI PUSH1 0x0 DUP1 REVERT JUMPDEST POP GAS STATICCALL ISZERO DUP1 ISZERO PUSH2 0x10AD JUMPI RETURNDATASIZE PUSH1 0x0 DUP1 RETURNDATACOPY RETURNDATASIZE PUSH1 0x0 REVERT JUMPDEST POP POP POP POP PUSH1 0x40 MLOAD RETURNDATASIZE PUSH1 0x1F NOT PUSH1 0x1F DUP3 ADD AND DUP3 ADD DUP1 PUSH1 0x40 MSTORE POP DUP2 ADD SWAP1 PUSH2 0x10D1 SWAP2 SWAP1 PUSH2 0x1BB5 JUMP JUMPDEST LT ISZERO PUSH2 0x1134 JUMPI PUSH1 0x40 MLOAD PUSH3 0x461BCD PUSH1 0xE5 SHL DUP2 MSTORE PUSH1 0x20 PUSH1 0x4 DUP3 ADD MSTORE PUSH1 0x2C PUSH1 0x24 DUP3 ADD MSTORE PUSH32 0x596F7572206465706F73697420746F6B656E20616C6C6F77616E636520697320 PUSH1 0x44 DUP3 ADD MSTORE PUSH12 0x1A5B9CDD59999A58DA595B9D PUSH1 0xA2 SHL PUSH1 0x64 DUP3 ADD MSTORE PUSH1 0x84 ADD PUSH2 0x337 JUMP JUMPDEST PUSH1 0x1 SLOAD PUSH1 0x40 MLOAD PUSH4 0x70A08231 PUSH1 0xE0 SHL DUP2 MSTORE CALLER PUSH1 0x4 DUP3 ADD MSTORE DUP3 SWAP2 PUSH1 0x1 PUSH1 0x1 PUSH1 0xA0 SHL SUB AND SWAP1 PUSH4 0x70A08231 SWAP1 PUSH1 0x24 ADD PUSH1 0x20 PUSH1 0x40 MLOAD DUP1 DUP4 SUB DUP2 DUP7 DUP1 EXTCODESIZE ISZERO DUP1 ISZERO PUSH2 0x1177 JUMPI PUSH1 0x0 DUP1 REVERT JUMPDEST POP GAS STATICCALL ISZERO DUP1 ISZERO PUSH2 0x118B JUMPI RETURNDATASIZE PUSH1 0x0 DUP1 RETURNDATACOPY RETURNDATASIZE PUSH1 0x0 REVERT JUMPDEST POP POP POP POP PUSH1 0x40 MLOAD RETURNDATASIZE PUSH1 0x1F NOT PUSH1 0x1F DUP3 ADD AND DUP3 ADD DUP1 PUSH1 0x40 MSTORE POP DUP2 ADD SWAP1 PUSH2 0x11AF SWAP2 SWAP1 PUSH2 0x1BB5 JUMP JUMPDEST LT ISZERO PUSH2 0x1210 JUMPI PUSH1 0x40 MLOAD PUSH3 0x461BCD PUSH1 0xE5 SHL DUP2 MSTORE PUSH1 0x20 PUSH1 0x4 DUP3 ADD MSTORE PUSH1 0x2A PUSH1 0x24 DUP3 ADD MSTORE PUSH32 0x596F7572206465706F73697420746F6B656E2062616C616E636520697320696E PUSH1 0x44 DUP3 ADD MSTORE PUSH10 0x1CDD59999A58DA595B9D PUSH1 0xB2 SHL PUSH1 0x64 DUP3 ADD MSTORE PUSH1 0x84 ADD PUSH2 0x337 JUMP JUMPDEST PUSH1 0x1 SLOAD PUSH1 0x4 DUP1 SLOAD PUSH1 0x40 MLOAD PUSH4 0x23B872DD PUSH1 0xE0 SHL DUP2 MSTORE CALLER SWAP3 DUP2 ADD SWAP3 SWAP1 SWAP3 MSTORE PUSH1 0x1 PUSH1 0x1 PUSH1 0xA0 SHL SUB SWAP1 DUP2 AND PUSH1 0x24 DUP4 ADD MSTORE PUSH1 0x44 DUP3 ADD DUP5 SWAP1 MSTORE SWAP1 SWAP2 AND SWAP1 PUSH4 0x23B872DD SWAP1 PUSH1 0x64 ADD PUSH1 0x20 PUSH1 0x40 MLOAD DUP1 DUP4 SUB DUP2 PUSH1 0x0 DUP8 DUP1 EXTCODESIZE ISZERO DUP1 ISZERO PUSH2 0x126A JUMPI PUSH1 0x0 DUP1 REVERT JUMPDEST POP GAS CALL ISZERO DUP1 ISZERO PUSH2 0x127E JUMPI RETURNDATASIZE PUSH1 0x0 DUP1 RETURNDATACOPY RETURNDATASIZE PUSH1 0x0 REVERT JUMPDEST POP POP POP POP PUSH1 0x40 MLOAD RETURNDATASIZE PUSH1 0x1F NOT PUSH1 0x1F DUP3 ADD AND DUP3 ADD DUP1 PUSH1 0x40 MSTORE POP DUP2 ADD SWAP1 PUSH2 0x12A2 SWAP2 SWAP1 PUSH2 0x1B7A JUMP JUMPDEST PUSH2 0x12F9 JUMPI PUSH1 0x40 MLOAD PUSH3 0x461BCD PUSH1 0xE5 SHL DUP2 MSTORE PUSH1 0x20 PUSH1 0x4 DUP3 ADD MSTORE PUSH1 0x22 PUSH1 0x24 DUP3 ADD MSTORE PUSH32 0x4465706F73697420746F6B656E207472616E7366657246726F6D206661696C75 PUSH1 0x44 DUP3 ADD MSTORE PUSH2 0x7265 PUSH1 0xF0 SHL PUSH1 0x64 DUP3 ADD MSTORE PUSH1 0x84 ADD PUSH2 0x337 JUMP JUMPDEST PUSH1 0x40 DUP1 MLOAD CALLER DUP2 MSTORE PUSH1 0x20 DUP2 ADD DUP4 SWAP1 MSTORE PUSH32 0xE1FFFCC4923D04B559F4D29A8BFC6CDA04EB5B0D3C460751C2402C5C5CC9109C SWAP2 ADD PUSH1 0x40 MLOAD DUP1 SWAP2 SUB SWAP1 LOG1 POP JUMP JUMPDEST DUP2 PUSH1 0x4 DUP2 GT ISZERO PUSH2 0x1347 JUMPI PUSH2 0x1347 PUSH2 0x1CAE JUMP JUMPDEST PUSH1 0xC SLOAD PUSH2 0x100 SWAP1 DIV PUSH1 0xFF AND PUSH1 0x4 DUP2 GT ISZERO PUSH2 0x1363 JUMPI PUSH2 0x1363 PUSH2 0x1CAE JUMP JUMPDEST EQ ISZERO DUP2 SWAP1 PUSH2 0xAF5 JUMPI PUSH1 0x40 MLOAD PUSH3 0x461BCD PUSH1 0xE5 SHL DUP2 MSTORE PUSH1 0x4 ADD PUSH2 0x337 SWAP2 SWAP1 PUSH2 0x1BCE JUMP JUMPDEST PUSH1 0x5 SLOAD PUSH1 0x0 SWAP1 PUSH1 0x1 PUSH1 0xA0 SHL SWAP1 DIV PUSH1 0xFF AND ISZERO PUSH2 0x13A7 JUMPI POP PUSH1 0x1 PUSH1 0x1 PUSH1 0xA0 SHL SUB AND BALANCE SWAP1 JUMP JUMPDEST PUSH1 0x1 SLOAD PUSH1 0x40 MLOAD PUSH4 0x70A08231 PUSH1 0xE0 SHL DUP2 MSTORE PUSH1 0x1 PUSH1 0x1 PUSH1 0xA0 SHL SUB DUP5 DUP2 AND PUSH1 0x4 DUP4 ADD MSTORE SWAP1 SWAP2 AND SWAP1 PUSH4 0x70A08231 SWAP1 PUSH1 0x24 ADD PUSH1 0x20 PUSH1 0x40 MLOAD DUP1 DUP4 SUB DUP2 DUP7 DUP1 EXTCODESIZE ISZERO DUP1 ISZERO PUSH2 0x13EC JUMPI PUSH1 0x0 DUP1 REVERT JUMPDEST POP GAS STATICCALL ISZERO DUP1 ISZERO PUSH2 0x1400 JUMPI RETURNDATASIZE PUSH1 0x0 DUP1 RETURNDATACOPY RETURNDATASIZE PUSH1 0x0 REVERT JUMPDEST POP POP POP POP PUSH1 0x40 MLOAD RETURNDATASIZE PUSH1 0x1F NOT PUSH1 0x1F DUP3 ADD AND DUP3 ADD DUP1 PUSH1 0x40 MSTORE POP DUP2 ADD SWAP1 PUSH2 0x1424 SWAP2 SWAP1 PUSH2 0x1BB5 JUMP JUMPDEST SWAP3 SWAP2 POP POP JUMP JUMPDEST PUSH1 0x0 PUSH1 0x1 DUP3 ISZERO PUSH2 0x15EA JUMPI POP PUSH1 0x5 SLOAD PUSH1 0x0 SWAP1 PUSH1 0x1 PUSH1 0xA0 SHL SWAP1 DIV PUSH1 0xFF AND ISZERO PUSH2 0x14E1 JUMPI PUSH1 0x40 MLOAD PUSH1 0x1 PUSH1 0x1 PUSH1 0xA0 SHL SUB DUP6 AND SWAP1 DUP5 SWAP1 PUSH1 0x0 DUP2 DUP2 DUP2 DUP6 DUP8 GAS CALL SWAP3 POP POP POP RETURNDATASIZE DUP1 PUSH1 0x0 DUP2 EQ PUSH2 0x1493 JUMPI PUSH1 0x40 MLOAD SWAP2 POP PUSH1 0x1F NOT PUSH1 0x3F RETURNDATASIZE ADD AND DUP3 ADD PUSH1 0x40 MSTORE RETURNDATASIZE DUP3 MSTORE RETURNDATASIZE PUSH1 0x0 PUSH1 0x20 DUP5 ADD RETURNDATACOPY PUSH2 0x1498 JUMP JUMPDEST PUSH1 0x60 SWAP2 POP JUMPDEST POP POP DUP1 SWAP2 POP POP DUP1 PUSH2 0x14DC JUMPI PUSH1 0x40 MLOAD PUSH3 0x461BCD PUSH1 0xE5 SHL DUP2 MSTORE PUSH1 0x20 PUSH1 0x4 DUP3 ADD MSTORE PUSH1 0xE PUSH1 0x24 DUP3 ADD MSTORE PUSH14 0x526566756E64206661696C757265 PUSH1 0x90 SHL PUSH1 0x44 DUP3 ADD MSTORE PUSH1 0x64 ADD PUSH2 0x337 JUMP JUMPDEST PUSH2 0x15A7 JUMP JUMPDEST PUSH1 0x1 SLOAD PUSH1 0x40 MLOAD PUSH4 0xA9059CBB PUSH1 0xE0 SHL DUP2 MSTORE PUSH1 0x1 PUSH1 0x1 PUSH1 0xA0 SHL SUB DUP7 DUP2 AND PUSH1 0x4 DUP4 ADD MSTORE PUSH1 0x24 DUP3 ADD DUP7 SWAP1 MSTORE SWAP1 SWAP2 AND SWAP1 PUSH4 0xA9059CBB SWAP1 PUSH1 0x44 ADD PUSH1 0x20 PUSH1 0x40 MLOAD DUP1 DUP4 SUB DUP2 PUSH1 0x0 DUP8 DUP1 EXTCODESIZE ISZERO DUP1 ISZERO PUSH2 0x152F JUMPI PUSH1 0x0 DUP1 REVERT JUMPDEST POP GAS CALL ISZERO DUP1 ISZERO PUSH2 0x1543 JUMPI RETURNDATASIZE PUSH1 0x0 DUP1 RETURNDATACOPY RETURNDATASIZE PUSH1 0x0 REVERT JUMPDEST POP POP POP POP PUSH1 0x40 MLOAD RETURNDATASIZE PUSH1 0x1F NOT PUSH1 0x1F DUP3 ADD AND DUP3 ADD DUP1 PUSH1 0x40 MSTORE POP DUP2 ADD SWAP1 PUSH2 0x1567 SWAP2 SWAP1 PUSH2 0x1B7A JUMP JUMPDEST SWAP1 POP DUP1 PUSH2 0x15A7 JUMPI PUSH1 0x40 MLOAD PUSH3 0x461BCD PUSH1 0xE5 SHL DUP2 MSTORE PUSH1 0x20 PUSH1 0x4 DUP3 ADD MSTORE PUSH1 0xE PUSH1 0x24 DUP3 ADD MSTORE PUSH14 0x526566756E64206661696C757265 PUSH1 0x90 SHL PUSH1 0x44 DUP3 ADD MSTORE PUSH1 0x64 ADD PUSH2 0x337 JUMP JUMPDEST PUSH1 0x40 DUP1 MLOAD PUSH1 0x1 PUSH1 0x1 PUSH1 0xA0 SHL SUB DUP7 AND DUP2 MSTORE PUSH1 0x20 DUP2 ADD DUP6 SWAP1 MSTORE PUSH32 0xBB28353E4598C3B9199101A66E0989549B659A59A54D2C27FBB183F1932C8E6D SWAP2 ADD PUSH1 0x40 MLOAD DUP1 SWAP2 SUB SWAP1 LOG1 JUMPDEST SWAP4 SWAP3 POP POP POP JUMP JUMPDEST PUSH1 0x0 PUSH2 0x15FC CALLER PUSH2 0xAFA JUMP JUMPDEST POP SWAP3 POP POP POP DUP1 PUSH2 0xA0F JUMPI PUSH1 0x40 MLOAD PUSH3 0x461BCD PUSH1 0xE5 SHL DUP2 MSTORE PUSH1 0x20 PUSH1 0x4 DUP3 ADD MSTORE PUSH1 0x12 PUSH1 0x24 DUP3 ADD MSTORE PUSH18 0x141B19585CD948185C1C1B1E48199A5C9CDD PUSH1 0x72 SHL PUSH1 0x44 DUP3 ADD MSTORE PUSH1 0x64 ADD PUSH2 0x337 JUMP JUMPDEST PUSH1 0x1 PUSH1 0x1 PUSH1 0xA0 SHL SUB DUP2 AND PUSH1 0x0 SWAP1 DUP2 MSTORE PUSH1 0xE PUSH1 0x20 MSTORE PUSH1 0x40 SWAP1 KECCAK256 SLOAD PUSH2 0x1667 SWAP1 DUP3 SWAP1 PUSH2 0x142A JUMP JUMPDEST PUSH2 0x16BF JUMPI PUSH1 0x40 MLOAD PUSH3 0x461BCD PUSH1 0xE5 SHL DUP2 MSTORE PUSH1 0x20 PUSH1 0x4 DUP3 ADD MSTORE PUSH1 0x23 PUSH1 0x24 DUP3 ADD MSTORE PUSH32 0x526566756E64206465706F73697420746F206170706C6963616E74206661696C PUSH1 0x44 DUP3 ADD MSTORE PUSH3 0x757265 PUSH1 0xE8 SHL PUSH1 0x64 DUP3 ADD MSTORE PUSH1 0x84 ADD PUSH2 0x337 JUMP JUMPDEST PUSH1 0x1 PUSH1 0x1 PUSH1 0xA0 SHL SUB DUP2 AND PUSH1 0x0 SWAP1 DUP2 MSTORE PUSH1 0xE PUSH1 0x20 MSTORE PUSH1 0x40 DUP2 KECCAK256 SLOAD PUSH1 0xA DUP1 SLOAD SWAP2 SWAP3 SWAP1 SWAP2 PUSH2 0x16EB SWAP1 DUP5 SWAP1 PUSH2 0x1C66 JUMP JUMPDEST SWAP1 SWAP2 SSTORE POP POP PUSH1 0x1 PUSH1 0x1 PUSH1 0xA0 SHL SUB AND PUSH1 0x0 SWAP1 DUP2 MSTORE PUSH1 0xE PUSH1 0x20 MSTORE PUSH1 0x40 DUP2 KECCAK256 SSTORE JUMP JUMPDEST PUSH1 0x0 SLOAD PUSH1 0x1 PUSH1 0x1 PUSH1 0xA0 SHL SUB AND CALLER EQ PUSH2 0x734 JUMPI PUSH1 0x40 MLOAD PUSH3 0x461BCD PUSH1 0xE5 SHL DUP2 MSTORE PUSH1 0x20 PUSH1 0x4 DUP3 ADD DUP2 SWAP1 MSTORE PUSH1 0x24 DUP3 ADD MSTORE PUSH32 0x4F776E61626C653A2063616C6C6572206973206E6F7420746865206F776E6572 PUSH1 0x44 DUP3 ADD MSTORE PUSH1 0x64 ADD PUSH2 0x337 JUMP JUMPDEST PUSH1 0x0 DUP1 SLOAD PUSH1 0x1 PUSH1 0x1 PUSH1 0xA0 SHL SUB DUP4 DUP2 AND PUSH1 0x1 PUSH1 0x1 PUSH1 0xA0 SHL SUB NOT DUP4 AND DUP2 OR DUP5 SSTORE PUSH1 0x40 MLOAD SWAP2 SWAP1 SWAP3 AND SWAP3 DUP4 SWAP2 PUSH32 0x8BE0079C531659141344CD1FD0A4F28419497F9722A3DAAFE3B4186F6B6457E0 SWAP2 SWAP1 LOG3 POP POP JUMP JUMPDEST PUSH1 0x1 PUSH1 0x1 PUSH1 0xA0 SHL SUB DUP2 AND PUSH1 0x0 SWAP1 DUP2 MSTORE PUSH1 0xF PUSH1 0x20 MSTORE PUSH1 0x40 DUP2 KECCAK256 SLOAD PUSH1 0xFF AND ISZERO PUSH2 0x17FC JUMPI PUSH1 0xB SLOAD ISZERO DUP1 PUSH2 0x17F3 JUMPI POP PUSH1 0x0 PUSH1 0xB SLOAD GT DUP1 ISZERO PUSH2 0x17F3 JUMPI POP PUSH1 0xB SLOAD TIMESTAMP GT ISZERO JUMPDEST ISZERO PUSH2 0x17FC JUMPI POP PUSH1 0x1 JUMPDEST DUP1 PUSH2 0x3A9 JUMPI PUSH1 0x40 MLOAD PUSH3 0x461BCD PUSH1 0xE5 SHL DUP2 MSTORE PUSH1 0x20 PUSH1 0x4 DUP3 ADD MSTORE PUSH1 0x1D PUSH1 0x24 DUP3 ADD MSTORE PUSH32 0x43616C6C6572206973206E6F7420616C6C6F77656420746F206C6F636B000000 PUSH1 0x44 DUP3 ADD MSTORE PUSH1 0x64 ADD PUSH2 0x337 JUMP JUMPDEST PUSH2 0x1851 PUSH2 0x19E2 JUMP JUMPDEST PUSH2 0x734 PUSH2 0x1A5C JUMP JUMPDEST PUSH1 0x1 PUSH1 0x1 PUSH1 0xA0 SHL SUB DUP2 AND PUSH1 0x0 SWAP1 DUP2 MSTORE PUSH1 0x10 PUSH1 0x20 MSTORE PUSH1 0x40 DUP2 KECCAK256 SLOAD PUSH1 0xFF AND ISZERO PUSH2 0x18A6 JUMPI PUSH1 0xB SLOAD ISZERO DUP1 PUSH2 0x1898 JUMPI POP PUSH1 0x0 PUSH1 0xB SLOAD GT DUP1 ISZERO PUSH2 0x1898 JUMPI POP PUSH1 0xB SLOAD TIMESTAMP GT ISZERO JUMPDEST ISZERO PUSH2 0x18A1 JUMPI POP PUSH1 0x1 JUMPDEST PUSH2 0x18DB JUMP JUMPDEST PUSH1 0x0 PUSH1 0xB SLOAD GT DUP1 ISZERO PUSH2 0x18B9 JUMPI POP PUSH1 0xB SLOAD TIMESTAMP GT JUMPDEST DUP1 ISZERO PUSH2 0x18D2 JUMPI POP PUSH1 0x3 SLOAD PUSH1 0x1 PUSH1 0x1 PUSH1 0xA0 SHL SUB DUP4 DUP2 AND SWAP2 AND EQ JUMPDEST ISZERO PUSH2 0x18DB JUMPI POP PUSH1 0x1 JUMPDEST DUP1 PUSH2 0x3A9 JUMPI PUSH1 0x40 MLOAD PUSH3 0x461BCD PUSH1 0xE5 SHL DUP2 MSTORE PUSH1 0x20 PUSH1 0x4 DUP3 ADD MSTORE PUSH1 0x1F PUSH1 0x24 DUP3 ADD MSTORE PUSH32 0x43616C6C6572206973206E6F7420616C6C6F77656420746F20756E6C6F636B00 PUSH1 0x44 DUP3 ADD MSTORE PUSH1 0x64 ADD PUSH2 0x337 JUMP JUMPDEST PUSH1 0x0 DUP1 DUP1 PUSH1 0x3 DUP2 DUP1 DUP1 PUSH2 0x193A DUP9 PUSH2 0x197E JUMP JUMPDEST SWAP3 POP SWAP3 POP SWAP3 POP DUP3 ISZERO PUSH2 0x194F JUMPI PUSH1 0x2 SWAP4 POP PUSH2 0x196F JUMP JUMPDEST PUSH1 0x3 SLOAD PUSH1 0x1 PUSH1 0x1 PUSH1 0xA0 SHL SUB DUP10 DUP2 AND SWAP2 AND EQ ISZERO PUSH2 0x196F JUMPI PUSH1 0x1 SWAP4 POP PUSH1 0x9 SLOAD SWAP2 POP JUMPDEST SWAP3 SWAP8 SWAP1 SWAP7 POP SWAP2 SWAP5 POP SWAP1 SWAP3 POP POP POP JUMP JUMPDEST PUSH1 0x1 PUSH1 0x1 PUSH1 0xA0 SHL SUB DUP2 AND PUSH1 0x0 SWAP1 DUP2 MSTORE PUSH1 0xE PUSH1 0x20 MSTORE PUSH1 0x40 DUP2 KECCAK256 DUP1 SLOAD PUSH1 0x1 SWAP2 DUP3 ADD SLOAD DUP4 SWAP3 DUP4 SWAP3 SWAP1 SWAP2 DUP4 SWAP1 PUSH1 0xFF AND PUSH1 0x6 DUP2 GT ISZERO PUSH2 0x19BA JUMPI PUSH2 0x19BA PUSH2 0x1CAE JUMP JUMPDEST SWAP1 POP DUP2 ISZERO DUP1 ISZERO PUSH2 0x19CB JUMPI POP PUSH1 0xFF DUP2 AND ISZERO JUMPDEST ISZERO PUSH2 0x19D5 JUMPI PUSH1 0x0 SWAP3 POP JUMPDEST SWAP2 SWAP7 SWAP1 SWAP6 POP SWAP1 SWAP4 POP SWAP2 POP POP JUMP JUMPDEST PUSH1 0x3 SLOAD PUSH1 0x9 SLOAD PUSH2 0x19FB SWAP2 PUSH1 0x1 PUSH1 0x1 PUSH1 0xA0 SHL SUB AND SWAP1 PUSH2 0x142A JUMP JUMPDEST PUSH2 0x1A55 JUMPI PUSH1 0x40 MLOAD PUSH3 0x461BCD PUSH1 0xE5 SHL DUP2 MSTORE PUSH1 0x20 PUSH1 0x4 DUP3 ADD MSTORE PUSH1 0x25 PUSH1 0x24 DUP3 ADD MSTORE PUSH32 0x526566756E64206465706F73697420746F2074686520666F756E646572206661 PUSH1 0x44 DUP3 ADD MSTORE PUSH5 0x696C757265 PUSH1 0xD8 SHL PUSH1 0x64 DUP3 ADD MSTORE PUSH1 0x84 ADD PUSH2 0x337 JUMP JUMPDEST PUSH1 0x0 PUSH1 0x9 SSTORE JUMP JUMPDEST PUSH1 0x0 JUMPDEST PUSH1 0xD SLOAD DUP2 LT ISZERO PUSH2 0xA0F JUMPI PUSH2 0x1A7F PUSH1 0xD DUP3 DUP2 SLOAD DUP2 LT PUSH2 0xBB2 JUMPI PUSH2 0xBB2 PUSH2 0x1CC4 JUMP JUMPDEST PUSH1 0x1 PUSH1 0xE PUSH1 0x0 PUSH1 0xD DUP5 DUP2 SLOAD DUP2 LT PUSH2 0x1A98 JUMPI PUSH2 0x1A98 PUSH2 0x1CC4 JUMP JUMPDEST PUSH1 0x0 SWAP2 DUP3 MSTORE PUSH1 0x20 DUP1 DUP4 KECCAK256 SWAP1 SWAP2 ADD SLOAD PUSH1 0x1 PUSH1 0x1 PUSH1 0xA0 SHL SUB AND DUP4 MSTORE DUP3 ADD SWAP3 SWAP1 SWAP3 MSTORE PUSH1 0x40 ADD SWAP1 KECCAK256 PUSH1 0x1 ADD SLOAD PUSH1 0xFF AND PUSH1 0x6 DUP2 GT ISZERO PUSH2 0x1AD4 JUMPI PUSH2 0x1AD4 PUSH2 0x1CAE JUMP JUMPDEST EQ ISZERO PUSH2 0x1B3F JUMPI PUSH1 0x2 PUSH1 0xE PUSH1 0x0 PUSH1 0xD DUP5 DUP2 SLOAD DUP2 LT PUSH2 0x1AF3 JUMPI PUSH2 0x1AF3 PUSH2 0x1CC4 JUMP JUMPDEST PUSH1 0x0 SWAP2 DUP3 MSTORE PUSH1 0x20 DUP1 DUP4 KECCAK256 SWAP1 SWAP2 ADD SLOAD PUSH1 0x1 PUSH1 0x1 PUSH1 0xA0 SHL SUB AND DUP4 MSTORE DUP3 ADD SWAP3 SWAP1 SWAP3 MSTORE PUSH1 0x40 ADD SWAP1 KECCAK256 PUSH1 0x1 SWAP1 DUP2 ADD DUP1 SLOAD SWAP1 SWAP2 PUSH1 0xFF NOT SWAP1 SWAP2 AND SWAP1 DUP4 PUSH1 0x6 DUP2 GT ISZERO PUSH2 0x1B39 JUMPI PUSH2 0x1B39 PUSH2 0x1CAE JUMP JUMPDEST MUL OR SWAP1 SSTORE POP JUMPDEST DUP1 PUSH2 0x1B49 DUP2 PUSH2 0x1C7D JUMP JUMPDEST SWAP2 POP POP PUSH2 0x1A5F JUMP JUMPDEST PUSH1 0x0 PUSH1 0x20 DUP3 DUP5 SUB SLT ISZERO PUSH2 0x1B63 JUMPI PUSH1 0x0 DUP1 REVERT JUMPDEST DUP2 CALLDATALOAD PUSH1 0x1 PUSH1 0x1 PUSH1 0xA0 SHL SUB DUP2 AND DUP2 EQ PUSH2 0x15EA JUMPI PUSH1 0x0 DUP1 REVERT JUMPDEST PUSH1 0x0 PUSH1 0x20 DUP3 DUP5 SUB SLT ISZERO PUSH2 0x1B8C JUMPI PUSH1 0x0 DUP1 REVERT JUMPDEST DUP2 MLOAD DUP1 ISZERO ISZERO DUP2 EQ PUSH2 0x15EA JUMPI PUSH1 0x0 DUP1 REVERT JUMPDEST PUSH1 0x0 PUSH1 0x20 DUP3 DUP5 SUB SLT ISZERO PUSH2 0x1BAE JUMPI PUSH1 0x0 DUP1 REVERT JUMPDEST POP CALLDATALOAD SWAP2 SWAP1 POP JUMP JUMPDEST PUSH1 0x0 PUSH1 0x20 DUP3 DUP5 SUB SLT ISZERO PUSH2 0x1BC7 JUMPI PUSH1 0x0 DUP1 REVERT JUMPDEST POP MLOAD SWAP2 SWAP1 POP JUMP JUMPDEST PUSH1 0x0 PUSH1 0x20 DUP1 DUP4 MSTORE DUP4 MLOAD DUP1 DUP3 DUP6 ADD MSTORE PUSH1 0x0 JUMPDEST DUP2 DUP2 LT ISZERO PUSH2 0x1BFB JUMPI DUP6 DUP2 ADD DUP4 ADD MLOAD DUP6 DUP3 ADD PUSH1 0x40 ADD MSTORE DUP3 ADD PUSH2 0x1BDF JUMP JUMPDEST DUP2 DUP2 GT ISZERO PUSH2 0x1C0D JUMPI PUSH1 0x0 PUSH1 0x40 DUP4 DUP8 ADD ADD MSTORE JUMPDEST POP PUSH1 0x1F ADD PUSH1 0x1F NOT AND SWAP3 SWAP1 SWAP3 ADD PUSH1 0x40 ADD SWAP4 SWAP3 POP POP POP JUMP JUMPDEST PUSH1 0x20 DUP1 DUP3 MSTORE PUSH1 0x11 SWAP1 DUP3 ADD MSTORE PUSH17 0x11195C1BDCDA5D081A5CC81B1BD8DAD959 PUSH1 0x7A SHL PUSH1 0x40 DUP3 ADD MSTORE PUSH1 0x60 ADD SWAP1 JUMP JUMPDEST PUSH1 0x0 DUP3 NOT DUP3 GT ISZERO PUSH2 0x1C61 JUMPI PUSH2 0x1C61 PUSH2 0x1C98 JUMP JUMPDEST POP ADD SWAP1 JUMP JUMPDEST PUSH1 0x0 DUP3 DUP3 LT ISZERO PUSH2 0x1C78 JUMPI PUSH2 0x1C78 PUSH2 0x1C98 JUMP JUMPDEST POP SUB SWAP1 JUMP JUMPDEST PUSH1 0x0 PUSH1 0x0 NOT DUP3 EQ ISZERO PUSH2 0x1C91 JUMPI PUSH2 0x1C91 PUSH2 0x1C98 JUMP JUMPDEST POP PUSH1 0x1 ADD SWAP1 JUMP JUMPDEST PUSH4 0x4E487B71 PUSH1 0xE0 SHL PUSH1 0x0 MSTORE PUSH1 0x11 PUSH1 0x4 MSTORE PUSH1 0x24 PUSH1 0x0 REVERT JUMPDEST PUSH4 0x4E487B71 PUSH1 0xE0 SHL PUSH1 0x0 MSTORE PUSH1 0x21 PUSH1 0x4 MSTORE PUSH1 0x24 PUSH1 0x0 REVERT JUMPDEST PUSH4 0x4E487B71 PUSH1 0xE0 SHL PUSH1 0x0 MSTORE PUSH1 0x32 PUSH1 0x4 MSTORE PUSH1 0x24 PUSH1 0x0 REVERT INVALID TIMESTAMP PUSH16 0x756E747920737461747573206E6F7420 PUSH10 0x6E20726561647920746F KECCAK256 PUSH24 0x6F726B426F756E747920737461747573206E6F7420696E20 PUSH24 0x6F726B2073746172746564A2646970667358221220DF9274 0x27 0xD8 0xB0 0x1E PUSH26 0xD366FAB1831C6FBF2145E543A32A09569DE2089272D447D76473 PUSH16 0x6C63430008070033A264697066735822 SLT KECCAK256 0xAE JUMP 0x22 0x5F MUL STATICCALL PUSH16 0xECF9D16F89A89A10197010D672AEAEF6 0xB2 0xE9 PUSH6 0x6BB5B554334A PUSH5 0x736F6C6343 STOP ADDMOD SMOD STOP CALLER "
		},
		"gasEstimates": {
			"creation": {
				"codeDepositCost": "2170200",
				"executionCost": "28157",
				"totalCost": "2198357"
			},
			"external": {
				"children()": "infinite",
				"createBounty(address,uint256,uint256,uint256)": "infinite",
				"isChild(address)": "2637",
				"owner()": "2312",
				"renounceOwnership()": "infinite",
				"transferOwnership(address)": "28399"
			}
		},
		"methodIdentifiers": {
			"children()": "c2bc80fd",
			"createBounty(address,uint256,uint256,uint256)": "73e28ac8",
			"isChild(address)": "fc91a897",
			"owner()": "8da5cb5b",
			"renounceOwnership()": "715018a6",
			"transferOwnership(address)": "f2fde38b"
		}
	},
	"abi": [
		{
			"anonymous": false,
			"inputs": [
				{
					"indexed": false,
					"internalType": "address",
					"name": "founder",
					"type": "address"
				},
				{
					"indexed": false,
					"internalType": "address",
					"name": "bounty",
					"type": "address"
				},
				{
					"components": [
						{
							"internalType": "address",
							"name": "depositToken",
							"type": "address"
						},
						{
							"internalType": "bool",
							"name": "depositTokenIsNative",
							"type": "bool"
						},
						{
							"internalType": "uint256",
							"name": "founderDepositAmount",
							"type": "uint256"
						},
						{
							"internalType": "uint256",
							"name": "applicantDepositMinAmount",
							"type": "uint256"
						},
						{
							"internalType": "uint256",
							"name": "applyDeadline",
							"type": "uint256"
						}
					],
					"indexed": false,
					"internalType": "struct Parameters",
					"name": "paras",
					"type": "tuple"
				}
			],
			"name": "Created",
			"type": "event"
		},
		{
			"anonymous": false,
			"inputs": [
				{
					"indexed": true,
					"internalType": "address",
					"name": "previousOwner",
					"type": "address"
				},
				{
					"indexed": true,
					"internalType": "address",
					"name": "newOwner",
					"type": "address"
				}
			],
			"name": "OwnershipTransferred",
			"type": "event"
		},
		{
			"inputs": [],
			"name": "children",
			"outputs": [
				{
					"internalType": "address[]",
					"name": "",
					"type": "address[]"
				}
			],
			"stateMutability": "view",
			"type": "function"
		},
		{
			"inputs": [
				{
					"internalType": "address",
					"name": "_depositToken",
					"type": "address"
				},
				{
					"internalType": "uint256",
					"name": "_founderDepositAmount",
					"type": "uint256"
				},
				{
					"internalType": "uint256",
					"name": "_applicantDepositAmount",
					"type": "uint256"
				},
				{
					"internalType": "uint256",
					"name": "_applyDeadline",
					"type": "uint256"
				}
			],
			"name": "createBounty",
			"outputs": [],
			"stateMutability": "nonpayable",
			"type": "function"
		},
		{
			"inputs": [
				{
					"internalType": "address",
					"name": "_address",
					"type": "address"
				}
			],
			"name": "isChild",
			"outputs": [
				{
					"internalType": "bool",
					"name": "",
					"type": "bool"
				}
			],
			"stateMutability": "view",
			"type": "function"
		},
		{
			"inputs": [],
			"name": "owner",
			"outputs": [
				{
					"internalType": "address",
					"name": "",
					"type": "address"
				}
			],
			"stateMutability": "view",
			"type": "function"
		},
		{
			"inputs": [],
			"name": "renounceOwnership",
			"outputs": [],
			"stateMutability": "nonpayable",
			"type": "function"
		},
		{
			"inputs": [
				{
					"internalType": "address",
					"name": "newOwner",
					"type": "address"
				}
			],
			"name": "transferOwnership",
			"outputs": [],
			"stateMutability": "nonpayable",
			"type": "function"
		}
	]
}