{
	"data": {
		"bytecode": {
			"linkReferences": {},
			"object": "60806040523480156200001157600080fd5b50604051620072d6380380620072d6833981810160405281019062000037919062000205565b620000576200004b6200012260201b60201c565b6200012a60201b60201c565b81600360006101000a81548173ffffffffffffffffffffffffffffffffffffffff021916908373ffffffffffffffffffffffffffffffffffffffff16021790555080600460006101000a81548173ffffffffffffffffffffffffffffffffffffffff021916908373ffffffffffffffffffffffffffffffffffffffff16021790555030600560006101000a81548173ffffffffffffffffffffffffffffffffffffffff021916908373ffffffffffffffffffffffffffffffffffffffff16021790555050506200029f565b600033905090565b60008060009054906101000a900473ffffffffffffffffffffffffffffffffffffffff169050816000806101000a81548173ffffffffffffffffffffffffffffffffffffffff021916908373ffffffffffffffffffffffffffffffffffffffff1602179055508173ffffffffffffffffffffffffffffffffffffffff168173ffffffffffffffffffffffffffffffffffffffff167f8be0079c531659141344cd1fd0a4f28419497f9722a3daafe3b4186f6b6457e060405160405180910390a35050565b600081519050620001ff8162000285565b92915050565b600080604083850312156200021f576200021e62000280565b5b60006200022f85828601620001ee565b92505060206200024285828601620001ee565b9150509250929050565b6000620002598262000260565b9050919050565b600073ffffffffffffffffffffffffffffffffffffffff82169050919050565b600080fd5b62000290816200024c565b81146200029c57600080fd5b50565b61702780620002af6000396000f3fe608060405260043610620001465760003560e01c80638903573011620000bb578063c2722ecc1162000079578063c2722ecc1462000333578063da91254c1462000363578063f2fde38b1462000395578063f4e759ef14620003c3578063f523e77514620003f3578063f83d08ba14620004215762000146565b806389035730146200026d5780638da5cb5b146200029d578063a69df4b514620002cd578063b6b55f2514620002d9578063c19d93fb14620002f95762000146565b80634d5d4ec711620001095780634d5d4ec714620001df5780636afc8d3e14620001ff578063715018a6146200022d5780637238fca8146200024757806386d1a69f14620002615762000146565b80631292a282146200014b5780631a28c42e14620001795780632348238c146200019957806343d726d614620001c75780634ba7ddb514620001d3575b600080fd5b3480156200015857600080fd5b50620001776004803603810190620001719190620039ae565b6200042d565b005b62000197600480360381019062000191919062003ac7565b620006a2565b005b348015620001a657600080fd5b50620001c56004803603810190620001bf9190620039ae565b620008e0565b005b620001d16200097e565b005b620001dd62000b79565b005b620001fd6004803603810190620001f7919062003a95565b62000d3b565b005b3480156200020c57600080fd5b506200022b6004803603810190620002259190620039ae565b6200112c565b005b3480156200023a57600080fd5b50620002456200132c565b005b3480156200025457600080fd5b506200025f62001338565b005b6200026b620013b2565b005b3480156200027a57600080fd5b506200028562001472565b604051620002949190620049b2565b60405180910390f35b348015620002aa57600080fd5b50620002b56200151d565b604051620002c491906200425e565b60405180910390f35b620002d762001546565b005b620002f76004803603810190620002f1919062003ac7565b620015f9565b005b3480156200030657600080fd5b5062000311620016d9565b6040516200032a9b9a99989796959493929190620049cf565b60405180910390f35b3480156200034057600080fd5b506200034b62001848565b6040516200035a91906200425e565b60405180910390f35b3480156200037057600080fd5b506200037b6200187c565b6040516200038c9392919062004a90565b60405180910390f35b348015620003a257600080fd5b50620003c16004803603810190620003bb9190620039ae565b62001897565b005b348015620003d057600080fd5b50620003db62001922565b604051620003ea91906200425e565b60405180910390f35b3480156200040057600080fd5b506200041f6004803603810190620004199190620039e0565b62001956565b005b6200042b620019a4565b005b6200043762001a58565b6200045d600160405180606001604052806022815260200162006faf6022913962001aed565b60006200046a8262001b73565b509250505080806200048c5750801580156200048b57506000600760020154145b5b620004ce576040517f08c379a0000000000000000000000000000000000000000000000000000000008152600401620004c590620048a2565b60405180910390fd5b620004d98262001c09565b620004e8826000600562001e1e565b6002600e60026101000a81548160ff0219169083600481111562000511576200051062004e56565b5b02179055506001600e60006101000a81548160ff021916908315150217905550600160009054906101000a900473ffffffffffffffffffffffffffffffffffffffff1673ffffffffffffffffffffffffffffffffffffffff1663e2f88c1f8360016040518363ffffffff1660e01b81526004016200059192919062004360565b600060405180830381600087803b158015620005ac57600080fd5b505af1158015620005c1573d6000803e3d6000fd5b50505050600160009054906101000a900473ffffffffffffffffffffffffffffffffffffffff1673ffffffffffffffffffffffffffffffffffffffff1663a374e6288360016040518363ffffffff1660e01b81526004016200062592919062004360565b600060405180830381600087803b1580156200064057600080fd5b505af115801562000655573d6000803e3d6000fd5b505050506200066362002041565b7f3ce2da1daf10aa0a28578b70fe768ed2f390a3da82445358f9346fbc2981f6fd338360405162000696929190620042a8565b60405180910390a15050565b620006ac6200205a565b620006b6620022a2565b620006dc600160405180606001604052806022815260200162006faf6022913962001aed565b600e60019054906101000a900460ff16156200072f576040517f08c379a000000000000000000000000000000000000000000000000000000000815260040162000726906200494c565b60405180910390fd5b6001600e60016101000a81548160ff02191690831515021790555060076002015481101562000795576040517f08c379a00000000000000000000000000000000000000000000000000000000081526004016200078c90620046a4565b60405180910390fd5b620007a081620022ef565b620007ae3382600162001e1e565b620007c581600c54620027c090919063ffffffff16565b600c819055506000600160009054906101000a900473ffffffffffffffffffffffffffffffffffffffff1673ffffffffffffffffffffffffffffffffffffffff16633b8e1bf5336040518263ffffffff1660e01b81526004016200082a91906200425e565b604080518083038186803b1580156200084257600080fd5b505afa15801562000857573d6000803e3d6000fd5b505050506040513d601f19601f820116820180604052508101906200087d919062003b2b565b5090507f3ec20ffa4a6f153b890e952f2ba9e704f33a57723bd66c48896fc34df27f0c37338383600c54604051620008b994939291906200449e565b60405180910390a1506000600e60016101000a81548160ff02191690831515021790555050565b620008ea620027d8565b600160009054906101000a900473ffffffffffffffffffffffffffffffffffffffff1673ffffffffffffffffffffffffffffffffffffffff16632348238c826040518263ffffffff1660e01b81526004016200094791906200425e565b600060405180830381600087803b1580156200096257600080fd5b505af115801562000977573d6000803e3d6000fd5b5050505050565b6200098862001a58565b6000600c54600b546200099c919062004b4c565b14620009df576040517f08c379a0000000000000000000000000000000000000000000000000000000008152600401620009d690620047b4565b60405180910390fd5b62000a2160036040518060400160405280601a81526020017f426f756e74792073746174757320697320636f6d706c657465640000000000008152506200285d565b62000a6360046040518060400160405280601881526020017f426f756e747920737461747573206973206578706972656400000000000000008152506200285d565b62000abd600460009054906101000a900473ffffffffffffffffffffffffffffffffffffffff1662000ab7600660009054906101000a900473ffffffffffffffffffffffffffffffffffffffff16620028e4565b620029d8565b62000aff576040517f08c379a000000000000000000000000000000000000000000000000000000000815260040162000af69062004682565b60405180910390fd5b6003600e60026101000a81548160ff0219169083600481111562000b285762000b2762004e56565b5b02179055507fb0f771c4186611b76611e784eee7d7399b853aa6cae3da4a8d5755cfeeac993333600e60029054906101000a900460ff1660405162000b6f9291906200438d565b60405180910390a1565b62000b8362002bed565b600e60009054906101000a900460ff161562000bd6576040517f08c379a000000000000000000000000000000000000000000000000000000000815260040162000bcd906200461c565b60405180910390fd5b62000bfc600160405180606001604052806022815260200162006faf6022913962001aed565b600e60019054906101000a900460ff161562000c4f576040517f08c379a000000000000000000000000000000000000000000000000000000000815260040162000c46906200494c565b60405180910390fd5b6001600e60016101000a81548160ff02191690831515021790555062000c753362002c45565b600160009054906101000a900473ffffffffffffffffffffffffffffffffffffffff1673ffffffffffffffffffffffffffffffffffffffff1663cb765d4d336003600681111562000ccb5762000cca62004e56565b5b6040518363ffffffff1660e01b815260040162000cea92919062004528565b600060405180830381600087803b15801562000d0557600080fd5b505af115801562000d1a573d6000803e3d6000fd5b505050506000600e60016101000a81548160ff021916908315150217905550565b62000d45620027d8565b600073ffffffffffffffffffffffffffffffffffffffff16600160009054906101000a900473ffffffffffffffffffffffffffffffffffffffff1673ffffffffffffffffffffffffffffffffffffffff161462000dd9576040517f08c379a000000000000000000000000000000000000000000000000000000000815260040162000dd09062004660565b60405180910390fd5b60405162000de79062003758565b604051809103906000f08015801562000e04573d6000803e3d6000fd5b50600160006101000a81548173ffffffffffffffffffffffffffffffffffffffff021916908373ffffffffffffffffffffffffffffffffffffffff160217905550600160009054906101000a900473ffffffffffffffffffffffffffffffffffffffff16600660006101000a81548173ffffffffffffffffffffffffffffffffffffffff021916908373ffffffffffffffffffffffffffffffffffffffff16021790555080600760008201518160000160006101000a81548173ffffffffffffffffffffffffffffffffffffffff021916908373ffffffffffffffffffffffffffffffffffffffff16021790555060208201518160000160146101000a81548160ff02191690831515021790555060408201518160010155606082015181600201556080820151816003015590505062000f3d62002e3f565b600e60026101000a81548160ff0219169083600481111562000f645762000f6362004e56565b5b0217905550600760010154600b819055506000600e60006101000a81548160ff0219169083151502179055506000600d81905550600073ffffffffffffffffffffffffffffffffffffffff16600760000160009054906101000a900473ffffffffffffffffffffffffffffffffffffffff1673ffffffffffffffffffffffffffffffffffffffff16141562001017576001600760000160146101000a81548160ff0219169083151502179055506200109c565b6000600760000160146101000a81548160ff021916908315150217905550600760000160009054906101000a900473ffffffffffffffffffffffffffffffffffffffff16600260006101000a81548173ffffffffffffffffffffffffffffffffffffffff021916908373ffffffffffffffffffffffffffffffffffffffff1602179055505b7f813d49ce84071dda2c63fce419cce1843e73c55512e307c889d031b57eda73c7620010c76200151d565b600360009054906101000a900473ffffffffffffffffffffffffffffffffffffffff16600460009054906101000a900473ffffffffffffffffffffffffffffffffffffffff16600760405162001121949392919062004312565b60405180910390a150565b6200113662001a58565b6200115c600260405180606001604052806021815260200162006fd16021913962001aed565b6000620011698262001b73565b505091505080620011b1576040517f08c379a0000000000000000000000000000000000000000000000000000000008152600401620011a890620045d8565b60405180910390fd5b600160009054906101000a900473ffffffffffffffffffffffffffffffffffffffff1673ffffffffffffffffffffffffffffffffffffffff1663cb765d4d8360068081111562001206576200120562004e56565b5b6040518363ffffffff1660e01b81526004016200122592919062004528565b600060405180830381600087803b1580156200124057600080fd5b505af115801562001255573d6000803e3d6000fd5b50505050600160009054906101000a900473ffffffffffffffffffffffffffffffffffffffff1673ffffffffffffffffffffffffffffffffffffffff1663e2f88c1f8360006040518363ffffffff1660e01b8152600401620012b992919062004360565b600060405180830381600087803b158015620012d457600080fd5b505af1158015620012e9573d6000803e3d6000fd5b505050507fb0a24d625a3d04a04108c98b7722db25e9435210d27050369082689178d4f1db338360405162001320929190620042a8565b60405180910390a15050565b62001336620027d8565b565b620013433362002e61565b62001369600260405180606001604052806021815260200162006fd16021913962001aed565b6200137362002041565b7fe2e42d676937b0633826eadcaf74807ca1f18c2174c6632ea6e044874385fd6833600d54604051620013a8929190620043e7565b60405180910390a1565b620013bc62001a58565b600e60009054906101000a900460ff16156200140f576040517f08c379a000000000000000000000000000000000000000000000000000000000815260040162001406906200461c565b60405180910390fd5b6000600c54600b5462001423919062004b4c565b1162001466576040517f08c379a00000000000000000000000000000000000000000000000000000000081526004016200145d9062004908565b60405180910390fd5b6200147062002f90565b565b6200147c62003766565b60076040518060a00160405290816000820160009054906101000a900473ffffffffffffffffffffffffffffffffffffffff1673ffffffffffffffffffffffffffffffffffffffff1673ffffffffffffffffffffffffffffffffffffffff1681526020016000820160149054906101000a900460ff161515151581526020016001820154815260200160028201548152602001600382015481525050905090565b60008060009054906101000a900473ffffffffffffffffffffffffffffffffffffffff16905090565b620015513362002fa6565b600e60009054906101000a900460ff16620015a3576040517f08c379a00000000000000000000000000000000000000000000000000000000081526004016200159a90620048e6565b60405180910390fd5b6000600e60006101000a81548160ff0219169083151502179055507f0be774851955c26a1d6a32b13b020663a069006b4a3b643ff0b809d31826057233604051620015ef91906200425e565b60405180910390a1565b6200160362001a58565b62001629600160405180606001604052806022815260200162006faf6022913962001aed565b600081116200166f576040517f08c379a0000000000000000000000000000000000000000000000000000000008152600401620016669062004908565b60405180910390fd5b6200167a81620022ef565b6200169181600b54620027c090919063ffffffff16565b600b819055507f90890809c654f11d6e72a28fa60149770a0d11ec6c92319d6ceb2bb0a4ea1a153382600b54604051620016ce9392919062004461565b60405180910390a150565b600080600080600080600080600080600080600080620016f86200187c565b9250925092506000600160009054906101000a900473ffffffffffffffffffffffffffffffffffffffff1673ffffffffffffffffffffffffffffffffffffffff1663fdf5963a6040518163ffffffff1660e01b815260040160006040518083038186803b1580156200176957600080fd5b505afa1580156200177e573d6000803e3d6000fd5b505050506040513d6000823e3d601f19601f82011682018060405250810190620017a9919062003a12565b9050600e60029054906101000a900460ff166004811115620017d057620017cf62004e56565b5b8151620017ff600660009054906101000a900473ffffffffffffffffffffffffffffffffffffffff16620028e4565b600b54600c54600760020154600e60009054906101000a900460ff16600d548b8b8b9e509e509e509e509e509e509e509e509e509e509e5050505050909192939495969798999a565b600062001854620027d8565b600160009054906101000a900473ffffffffffffffffffffffffffffffffffffffff16905090565b60008060006200188c3362003154565b925092509250909192565b620018a1620027d8565b600073ffffffffffffffffffffffffffffffffffffffff168173ffffffffffffffffffffffffffffffffffffffff16141562001914576040517f08c379a00000000000000000000000000000000000000000000000000000000081526004016200190b906200463e565b60405180910390fd5b6200191f8162003239565b50565b60006200192e620027d8565b600660009054906101000a900473ffffffffffffffffffffffffffffffffffffffff16905090565b62001960620027d8565b80600160006101000a81548173ffffffffffffffffffffffffffffffffffffffff021916908373ffffffffffffffffffffffffffffffffffffffff16021790555050565b620019af3362002e61565b600e60009054906101000a900460ff161562001a02576040517f08c379a0000000000000000000000000000000000000000000000000000000008152600401620019f9906200461c565b60405180910390fd5b6001600e60006101000a81548160ff0219169083151502179055507fc1b5f12cea7c200ad495a43bf2d4c7ba1a753343c06c339093937849de84d9133360405162001a4e91906200425e565b60405180910390a1565b600460009054906101000a900473ffffffffffffffffffffffffffffffffffffffff1673ffffffffffffffffffffffffffffffffffffffff163373ffffffffffffffffffffffffffffffffffffffff161462001aeb576040517f08c379a000000000000000000000000000000000000000000000000000000000815260040162001ae29062004770565b60405180910390fd5b565b81600481111562001b035762001b0262004e56565b5b600e60029054906101000a900460ff16600481111562001b285762001b2762004e56565b5b14819062001b6e576040517f08c379a000000000000000000000000000000000000000000000000000000000815260040162001b65919062004592565b60405180910390fd5b505050565b600080600080600080600062001b8988620032fd565b9250925092508296506000955060009450861562001bfc576005600681111562001bb85762001bb762004e56565b5b60ff168160ff16141562001bd0576001955062001bfb565b6001600681111562001be75762001be662004e56565b5b60ff168160ff16141562001bfa57600194505b5b5b8193505050509193509193565b6000600160009054906101000a900473ffffffffffffffffffffffffffffffffffffffff1673ffffffffffffffffffffffffffffffffffffffff1663fdf5963a6040518163ffffffff1660e01b815260040160006040518083038186803b15801562001c7457600080fd5b505afa15801562001c89573d6000803e3d6000fd5b505050506040513d6000823e3d601f19601f8201168201806040525081019062001cb4919062003a12565b905060005b815181101562001e19578273ffffffffffffffffffffffffffffffffffffffff1682828151811062001cf05762001cef62004e85565b5b602002602001015173ffffffffffffffffffffffffffffffffffffffff161462001e035762001d3c82828151811062001d2e5762001d2d62004e85565b5b602002602001015162002c45565b600160009054906101000a900473ffffffffffffffffffffffffffffffffffffffff1673ffffffffffffffffffffffffffffffffffffffff1663cb765d4d83838151811062001d905762001d8f62004e85565b5b60200260200101516004600681111562001daf5762001dae62004e56565b5b6040518363ffffffff1660e01b815260040162001dce92919062004528565b600060405180830381600087803b15801562001de957600080fd5b505af115801562001dfe573d6000803e3d6000fd5b505050505b808062001e109062004dd9565b91505062001cb9565b505050565b600062001e2b84620032fd565b505090508062001ec757600160009054906101000a900473ffffffffffffffffffffffffffffffffffffffff1673ffffffffffffffffffffffffffffffffffffffff1663a2321aa1856040518263ffffffff1660e01b815260040162001e9291906200425e565b600060405180830381600087803b15801562001ead57600080fd5b505af115801562001ec2573d6000803e3d6000fd5b505050505b6000600160009054906101000a900473ffffffffffffffffffffffffffffffffffffffff1673ffffffffffffffffffffffffffffffffffffffff16633b8e1bf5866040518263ffffffff1660e01b815260040162001f2691906200425e565b604080518083038186803b15801562001f3e57600080fd5b505afa15801562001f53573d6000803e3d6000fd5b505050506040513d601f19601f8201168201806040525081019062001f79919062003b2b565b509050600160009054906101000a900473ffffffffffffffffffffffffffffffffffffffff1673ffffffffffffffffffffffffffffffffffffffff166320d529a68662001fd08785620027c090919063ffffffff16565b86600681111562001fe65762001fe562004e56565b5b6040518463ffffffff1660e01b81526004016200200693929190620044eb565b600060405180830381600087803b1580156200202157600080fd5b505af115801562002036573d6000803e3d6000fd5b505050505050505050565b620697804262002052919062004b4c565b600d81905550565b600360009054906101000a900473ffffffffffffffffffffffffffffffffffffffff1673ffffffffffffffffffffffffffffffffffffffff163373ffffffffffffffffffffffffffffffffffffffff161415620020ee576040517f08c379a0000000000000000000000000000000000000000000000000000000008152600401620020e5906200481a565b60405180910390fd5b600460009054906101000a900473ffffffffffffffffffffffffffffffffffffffff1673ffffffffffffffffffffffffffffffffffffffff163373ffffffffffffffffffffffffffffffffffffffff16141562002182576040517f08c379a000000000000000000000000000000000000000000000000000000000815260040162002179906200496e565b60405180910390fd5b600560009054906101000a900473ffffffffffffffffffffffffffffffffffffffff1673ffffffffffffffffffffffffffffffffffffffff163373ffffffffffffffffffffffffffffffffffffffff16141562002216576040517f08c379a00000000000000000000000000000000000000000000000000000000081526004016200220d906200485e565b60405180910390fd5b6000806200222433620032fd565b92505091508115806200225c57508180156200225b57506003600681111562002252576200225162004e56565b5b60ff168160ff16145b5b6200229e576040517f08c379a0000000000000000000000000000000000000000000000000000000008152600401620022959062004990565b60405180910390fd5b5050565b600760030154421115620022ed576040517f08c379a0000000000000000000000000000000000000000000000000000000008152600401620022e49062004880565b60405180910390fd5b565b6000811115620027bd57600760000160149054906101000a900460ff1615620024905780341462002357576040517f08c379a00000000000000000000000000000000000000000000000000000000081526004016200234e906200472c565b60405180910390fd5b803373ffffffffffffffffffffffffffffffffffffffff16311015620023b4576040517f08c379a0000000000000000000000000000000000000000000000000000000008152600401620023ab90620045b6565b60405180910390fd5b6000600660009054906101000a900473ffffffffffffffffffffffffffffffffffffffff1673ffffffffffffffffffffffffffffffffffffffff1682604051620023fe9062004247565b60006040518083038185875af1925050503d80600081146200243d576040519150601f19603f3d011682016040523d82523d6000602084013e62002442565b606091505b505090508062002489576040517f08c379a00000000000000000000000000000000000000000000000000000000081526004016200248090620045fa565b60405180910390fd5b50620027bc565b80600260009054906101000a900473ffffffffffffffffffffffffffffffffffffffff1673ffffffffffffffffffffffffffffffffffffffff1663dd62ed3e33600560009054906101000a900473ffffffffffffffffffffffffffffffffffffffff166040518363ffffffff1660e01b815260040162002512929190620042a8565b60206040518083038186803b1580156200252b57600080fd5b505afa15801562002540573d6000803e3d6000fd5b505050506040513d601f19601f8201168201806040525081019062002566919062003af9565b1015620025aa576040517f08c379a0000000000000000000000000000000000000000000000000000000008152600401620025a1906200474e565b60405180910390fd5b80600260009054906101000a900473ffffffffffffffffffffffffffffffffffffffff1673ffffffffffffffffffffffffffffffffffffffff166370a08231336040518263ffffffff1660e01b81526004016200260891906200425e565b60206040518083038186803b1580156200262157600080fd5b505afa15801562002636573d6000803e3d6000fd5b505050506040513d601f19601f820116820180604052508101906200265c919062003af9565b1015620026a0576040517f08c379a000000000000000000000000000000000000000000000000000000000815260040162002697906200470a565b60405180910390fd5b600260009054906101000a900473ffffffffffffffffffffffffffffffffffffffff1673ffffffffffffffffffffffffffffffffffffffff166323b872dd33600660009054906101000a900473ffffffffffffffffffffffffffffffffffffffff16846040518463ffffffff1660e01b81526004016200272393929190620042d5565b602060405180830381600087803b1580156200273e57600080fd5b505af115801562002753573d6000803e3d6000fd5b505050506040513d601f19601f8201168201806040525081019062002779919062003a63565b620027bb576040517f08c379a0000000000000000000000000000000000000000000000000000000008152600401620027b2906200492a565b60405180910390fd5b5b5b50565b60008183620027d0919062004b4c565b905092915050565b620027e2620033f0565b73ffffffffffffffffffffffffffffffffffffffff16620028026200151d565b73ffffffffffffffffffffffffffffffffffffffff16146200285b576040517f08c379a00000000000000000000000000000000000000000000000000000000081526004016200285290620048c4565b60405180910390fd5b565b81600481111562002873576200287262004e56565b5b600e60029054906101000a900460ff16600481111562002898576200289762004e56565b5b14158190620028df576040517f08c379a0000000000000000000000000000000000000000000000000000000008152600401620028d6919062004592565b60405180910390fd5b505050565b6000600760000160149054906101000a900460ff16156200291f578173ffffffffffffffffffffffffffffffffffffffff16319050620029d3565b600260009054906101000a900473ffffffffffffffffffffffffffffffffffffffff1673ffffffffffffffffffffffffffffffffffffffff166370a08231836040518263ffffffff1660e01b81526004016200297c91906200425e565b60206040518083038186803b1580156200299557600080fd5b505afa158015620029aa573d6000803e3d6000fd5b505050506040513d601f19601f82011682018060405250810190620029d0919062003af9565b90505b919050565b60008060019050600083111562002be35760009050600760000160149054906101000a900460ff161562002ac357600160009054906101000a900473ffffffffffffffffffffffffffffffffffffffff1673ffffffffffffffffffffffffffffffffffffffff1663a9059cbb85856040518363ffffffff1660e01b815260040162002a659291906200427b565b602060405180830381600087803b15801562002a8057600080fd5b505af115801562002a95573d6000803e3d6000fd5b505050506040513d601f19601f8201168201806040525081019062002abb919062003a63565b905062002b9f565b600160009054906101000a900473ffffffffffffffffffffffffffffffffffffffff1673ffffffffffffffffffffffffffffffffffffffff1663f5537ede600260009054906101000a900473ffffffffffffffffffffffffffffffffffffffff1686866040518463ffffffff1660e01b815260040162002b469392919062004555565b602060405180830381600087803b15801562002b6157600080fd5b505af115801562002b76573d6000803e3d6000fd5b505050506040513d601f19601f8201168201806040525081019062002b9c919062003a63565b90505b8062002be2576040517f08c379a000000000000000000000000000000000000000000000000000000000815260040162002bd990620047f8565b60405180910390fd5b5b8091505092915050565b600062002bfa3362001b73565b50925050508062002c42576040517f08c379a000000000000000000000000000000000000000000000000000000000815260040162002c3990620046c6565b60405180910390fd5b50565b6000600160009054906101000a900473ffffffffffffffffffffffffffffffffffffffff1673ffffffffffffffffffffffffffffffffffffffff16633b8e1bf5836040518263ffffffff1660e01b815260040162002ca491906200425e565b604080518083038186803b15801562002cbc57600080fd5b505afa15801562002cd1573d6000803e3d6000fd5b505050506040513d601f19601f8201168201806040525081019062002cf7919062003b2b565b50905062002d068282620029d8565b62002d48576040517f08c379a000000000000000000000000000000000000000000000000000000000815260040162002d3f90620047d6565b60405180910390fd5b62002d5f81600c54620033f890919063ffffffff16565b600c81905550600160009054906101000a900473ffffffffffffffffffffffffffffffffffffffff1673ffffffffffffffffffffffffffffffffffffffff1663ad4a7d488360006040518363ffffffff1660e01b815260040162002dc5929190620043ba565b600060405180830381600087803b15801562002de057600080fd5b505af115801562002df5573d6000803e3d6000fd5b505050507fe91d6e8b0922288cb099f612a8ebe95f158ff1fa70ade28df221224e75ccbeba82826000600c5460405162002e33949392919062004414565b60405180910390a15050565b600060076003015442101562002e59576001905062002e5e565b600490505b90565b6000600160009054906101000a900473ffffffffffffffffffffffffffffffffffffffff1673ffffffffffffffffffffffffffffffffffffffff16630fd37059836040518263ffffffff1660e01b815260040162002ec091906200425e565b60206040518083038186803b15801562002ed957600080fd5b505afa15801562002eee573d6000803e3d6000fd5b505050506040513d601f19601f8201168201806040525081019062002f14919062003a63565b1562002f49576000600d54148062002f3d57506000600d5411801562002f3c5750600d544211155b5b1562002f4857600190505b5b8062002f8c576040517f08c379a000000000000000000000000000000000000000000000000000000000815260040162002f839062004792565b60405180910390fd5b5050565b62002f9a62003410565b62002fa4620034d1565b565b6000600160009054906101000a900473ffffffffffffffffffffffffffffffffffffffff1673ffffffffffffffffffffffffffffffffffffffff1663e696288a836040518263ffffffff1660e01b81526004016200300591906200425e565b60206040518083038186803b1580156200301e57600080fd5b505afa15801562003033573d6000803e3d6000fd5b505050506040513d601f19601f8201168201806040525081019062003059919062003a63565b1562003093576000600d5414806200308257506000600d54118015620030815750600d544211155b5b156200308d57600190505b6200310d565b6000600d54118015620030a75750600d5442115b8015620031015750600460009054906101000a900473ffffffffffffffffffffffffffffffffffffffff1673ffffffffffffffffffffffffffffffffffffffff168273ffffffffffffffffffffffffffffffffffffffff16145b156200310c57600190505b5b8062003150576040517f08c379a000000000000000000000000000000000000000000000000000000000815260040162003147906200483c565b60405180910390fd5b5050565b60008060008060038081111562003170576200316f62004e56565b5b905060008060006200318288620032fd565b9250925092508215620031ae5760026003811115620031a657620031a562004e56565b5b935062003225565b600460009054906101000a900473ffffffffffffffffffffffffffffffffffffffff1673ffffffffffffffffffffffffffffffffffffffff168873ffffffffffffffffffffffffffffffffffffffff1614156200322457600160038111156200321c576200321b62004e56565b5b9350600b5491505b5b838282965096509650505050509193909250565b60008060009054906101000a900473ffffffffffffffffffffffffffffffffffffffff169050816000806101000a81548173ffffffffffffffffffffffffffffffffffffffff021916908373ffffffffffffffffffffffffffffffffffffffff1602179055508173ffffffffffffffffffffffffffffffffffffffff168173ffffffffffffffffffffffffffffffffffffffff167f8be0079c531659141344cd1fd0a4f28419497f9722a3daafe3b4186f6b6457e060405160405180910390a35050565b60008060008060019050600080600160009054906101000a900473ffffffffffffffffffffffffffffffffffffffff1673ffffffffffffffffffffffffffffffffffffffff16633b8e1bf5886040518263ffffffff1660e01b81526004016200336791906200425e565b604080518083038186803b1580156200337f57600080fd5b505afa15801562003394573d6000803e3d6000fd5b505050506040513d601f19601f82011682018060405250810190620033ba919062003b2b565b91509150600082148015620033d2575060008160ff16145b15620033dd57600092505b8282829550955095505050509193909250565b600033905090565b6000818362003408919062004ba9565b905092915050565b6000600b54905062003445600460009054906101000a900473ffffffffffffffffffffffffffffffffffffffff1682620029d8565b62003487576040517f08c379a00000000000000000000000000000000000000000000000000000000081526004016200347e90620046e8565b60405180910390fd5b6000600b819055507fe48599699a32e09c4df6e7e49d630b3b349e877d551bb9c34d31d5add15abcd83382600b54604051620034c69392919062004461565b60405180910390a150565b6000600160009054906101000a900473ffffffffffffffffffffffffffffffffffffffff1673ffffffffffffffffffffffffffffffffffffffff1663fdf5963a6040518163ffffffff1660e01b815260040160006040518083038186803b1580156200353c57600080fd5b505afa15801562003551573d6000803e3d6000fd5b505050506040513d6000823e3d601f19601f820116820180604052508101906200357c919062003a12565b905060005b815181101562003754576000828281518110620035a357620035a262004e85565b5b60200260200101519050620035b88162002c45565b6000600160009054906101000a900473ffffffffffffffffffffffffffffffffffffffff1673ffffffffffffffffffffffffffffffffffffffff16633b8e1bf5836040518263ffffffff1660e01b81526004016200361791906200425e565b604080518083038186803b1580156200362f57600080fd5b505afa15801562003644573d6000803e3d6000fd5b505050506040513d601f19601f820116820180604052508101906200366a919062003b2b565b9150506001600681111562003684576200368362004e56565b5b60ff168160ff1614156200373c57600160009054906101000a900473ffffffffffffffffffffffffffffffffffffffff1673ffffffffffffffffffffffffffffffffffffffff1663cb765d4d8360026006811115620036e857620036e762004e56565b5b6040518363ffffffff1660e01b81526004016200370792919062004528565b600060405180830381600087803b1580156200372257600080fd5b505af115801562003737573d6000803e3d6000fd5b505050505b505080806200374b9062004dd9565b91505062003581565b5050565b6119ed80620055c283390190565b6040518060a00160405280600073ffffffffffffffffffffffffffffffffffffffff1681526020016000151581526020016000815260200160008152602001600081525090565b6000620037c4620037be8462004af6565b62004acd565b90508083825260208201905082856020860282011115620037ea57620037e962004eed565b5b60005b858110156200381e57816200380388826200383f565b845260208401935060208301925050600181019050620037ed565b5050509392505050565b60008135905062003839816200553f565b92915050565b60008151905062003850816200553f565b92915050565b600081359050620038678162005559565b92915050565b600082601f83011262003885576200388462004ee3565b5b815162003897848260208601620037ad565b91505092915050565b600081359050620038b18162005573565b92915050565b600081519050620038c88162005573565b92915050565b600060a08284031215620038e757620038e662004ee8565b5b620038f360a062004acd565b90506000620039058482850162003828565b60008301525060206200391b84828501620038a0565b6020830152506040620039318482850162003969565b6040830152506060620039478482850162003969565b60608301525060806200395d8482850162003969565b60808301525092915050565b6000813590506200397a816200558d565b92915050565b60008151905062003991816200558d565b92915050565b600081519050620039a881620055a7565b92915050565b600060208284031215620039c757620039c662004ef7565b5b6000620039d78482850162003828565b91505092915050565b600060208284031215620039f957620039f862004ef7565b5b600062003a098482850162003856565b91505092915050565b60006020828403121562003a2b5762003a2a62004ef7565b5b600082015167ffffffffffffffff81111562003a4c5762003a4b62004ef2565b5b62003a5a848285016200386d565b91505092915050565b60006020828403121562003a7c5762003a7b62004ef7565b5b600062003a8c84828501620038b7565b91505092915050565b600060a0828403121562003aae5762003aad62004ef7565b5b600062003abe84828501620038ce565b91505092915050565b60006020828403121562003ae05762003adf62004ef7565b5b600062003af08482850162003969565b91505092915050565b60006020828403121562003b125762003b1162004ef7565b5b600062003b228482850162003980565b91505092915050565b6000806040838503121562003b455762003b4462004ef7565b5b600062003b558582860162003980565b925050602062003b688582860162003997565b9150509250929050565b62003b7d8162004c9b565b82525050565b62003b8e8162004c1b565b82525050565b62003b9f8162004c1b565b82525050565b62003bb08162004c43565b82525050565b62003bc18162004c43565b82525050565b62003bd28162004caf565b82525050565b62003be38162004cc3565b82525050565b62003bf48162004cd7565b82525050565b600062003c078262004b25565b62003c13818562004b3b565b935062003c2581856020860162004d13565b62003c308162004efc565b840191505092915050565b600062003c4a601c8362004b3b565b915062003c578262004f27565b602082019050919050565b600062003c7160208362004b3b565b915062003c7e8262004f50565b602082019050919050565b600062003c9860198362004b3b565b915062003ca58262004f79565b602082019050919050565b600062003cbf60118362004b3b565b915062003ccc8262004fa2565b602082019050919050565b600062003ce660268362004b3b565b915062003cf38262004fcb565b604082019050919050565b600062003d0d60118362004b3b565b915062003d1a826200501a565b602082019050919050565b600062003d3460278362004b3b565b915062003d418262005043565b604082019050919050565b600062003d5b601e8362004b3b565b915062003d688262005092565b602082019050919050565b600062003d8260128362004b3b565b915062003d8f82620050bb565b602082019050919050565b600062003da960258362004b3b565b915062003db682620050e4565b604082019050919050565b600062003dd0602a8362004b3b565b915062003ddd8262005133565b604082019050919050565b600062003df760168362004b3b565b915062003e048262005182565b602082019050919050565b600062003e1e602c8362004b3b565b915062003e2b82620051ab565b604082019050919050565b600062003e4560198362004b3b565b915062003e5282620051fa565b602082019050919050565b600062003e6c601d8362004b3b565b915062003e798262005223565b602082019050919050565b600062003e93601e8362004b3b565b915062003ea0826200524c565b602082019050919050565b600062003eba60238362004b3b565b915062003ec78262005275565b604082019050919050565b600062003ee1600e8362004b3b565b915062003eee82620052c4565b602082019050919050565b600062003f0860138362004b3b565b915062003f1582620052ed565b602082019050919050565b600062003f2f601f8362004b3b565b915062003f3c8262005316565b602082019050919050565b600062003f5660188362004b3b565b915062003f63826200533f565b602082019050919050565b600062003f7d60228362004b3b565b915062003f8a8262005368565b604082019050919050565b600062003fa4601f8362004b3b565b915062003fb182620053b7565b602082019050919050565b600062003fcb60208362004b3b565b915062003fd882620053e0565b602082019050919050565b600062003ff260118362004b3b565b915062003fff8262005409565b602082019050919050565b60006200401960168362004b3b565b9150620040268262005432565b602082019050919050565b60006200404060228362004b3b565b91506200404d826200545b565b604082019050919050565b600062004067600e8362004b3b565b91506200407482620054aa565b602082019050919050565b60006200408e60008362004b30565b91506200409b82620054d3565b600082019050919050565b6000620040b560138362004b3b565b9150620040c282620054d6565b602082019050919050565b6000620040dc60158362004b3b565b9150620040e982620054ff565b602082019050919050565b60a0820160008201516200410c600085018262003b83565b50602082015162004121602085018262003ba5565b50604082015162004136604085018262004214565b5060608201516200414b606085018262004214565b50608082015162004160608085018262004214565b50505050565b60a0820160008083015490506200417d8162004d49565b6200418c600086018262003b83565b50620041988162004d85565b620041a7602086018262003ba5565b5060018301549050620041ba8162004d67565b620041c9604086018262004214565b5060028301549050620041dc8162004d67565b620041eb606086018262004214565b5060038301549050620041fe8162004d67565b6200420d608086018262004214565b5050505050565b6200421f8162004c84565b82525050565b620042308162004c84565b82525050565b620042418162004c8e565b82525050565b600062004254826200407f565b9150819050919050565b600060208201905062004275600083018462003b94565b92915050565b600060408201905062004292600083018562003b72565b620042a1602083018462004225565b9392505050565b6000604082019050620042bf600083018562003b94565b620042ce602083018462003b94565b9392505050565b6000606082019050620042ec600083018662003b94565b620042fb602083018562003b72565b6200430a604083018462004225565b949350505050565b6000610100820190506200432a600083018762003b94565b62004339602083018662003b94565b62004348604083018562003b94565b62004357606083018462004166565b95945050505050565b600060408201905062004377600083018562003b94565b62004386602083018462003bb6565b9392505050565b6000604082019050620043a4600083018562003b94565b620043b3602083018462003bd8565b9392505050565b6000604082019050620043d1600083018562003b94565b620043e0602083018462003be9565b9392505050565b6000604082019050620043fe600083018562003b94565b6200440d602083018462004225565b9392505050565b60006080820190506200442b600083018762003b94565b6200443a602083018662004225565b62004449604083018562003be9565b62004458606083018462004225565b95945050505050565b600060608201905062004478600083018662003b94565b62004487602083018562004225565b62004496604083018462004225565b949350505050565b6000608082019050620044b5600083018762003b94565b620044c4602083018662004225565b620044d3604083018562004225565b620044e2606083018462004225565b95945050505050565b600060608201905062004502600083018662003b94565b62004511602083018562004225565b62004520604083018462004236565b949350505050565b60006040820190506200453f600083018562003b94565b6200454e602083018462004236565b9392505050565b60006060820190506200456c600083018662003bc7565b6200457b602083018562003b72565b6200458a604083018462004225565b949350505050565b60006020820190508181036000830152620045ae818462003bfa565b905092915050565b60006020820190508181036000830152620045d18162003c3b565b9050919050565b60006020820190508181036000830152620045f38162003c62565b9050919050565b60006020820190508181036000830152620046158162003c89565b9050919050565b60006020820190508181036000830152620046378162003cb0565b9050919050565b60006020820190508181036000830152620046598162003cd7565b9050919050565b600060208201905081810360008301526200467b8162003cfe565b9050919050565b600060208201905081810360008301526200469d8162003d25565b9050919050565b60006020820190508181036000830152620046bf8162003d4c565b9050919050565b60006020820190508181036000830152620046e18162003d73565b9050919050565b60006020820190508181036000830152620047038162003d9a565b9050919050565b60006020820190508181036000830152620047258162003dc1565b9050919050565b60006020820190508181036000830152620047478162003de8565b9050919050565b60006020820190508181036000830152620047698162003e0f565b9050919050565b600060208201905081810360008301526200478b8162003e36565b9050919050565b60006020820190508181036000830152620047ad8162003e5d565b9050919050565b60006020820190508181036000830152620047cf8162003e84565b9050919050565b60006020820190508181036000830152620047f18162003eab565b9050919050565b60006020820190508181036000830152620048138162003ed2565b9050919050565b60006020820190508181036000830152620048358162003ef9565b9050919050565b60006020820190508181036000830152620048578162003f20565b9050919050565b60006020820190508181036000830152620048798162003f47565b9050919050565b600060208201905081810360008301526200489b8162003f6e565b9050919050565b60006020820190508181036000830152620048bd8162003f95565b9050919050565b60006020820190508181036000830152620048df8162003fbc565b9050919050565b60006020820190508181036000830152620049018162003fe3565b9050919050565b6000602082019050818103600083015262004923816200400a565b9050919050565b60006020820190508181036000830152620049458162004031565b9050919050565b60006020820190508181036000830152620049678162004058565b9050919050565b600060208201905081810360008301526200498981620040a6565b9050919050565b60006020820190508181036000830152620049ab81620040cd565b9050919050565b600060a082019050620049c96000830184620040f4565b92915050565b600061016082019050620049e7600083018e62004236565b620049f6602083018d62004225565b62004a05604083018c62004225565b62004a14606083018b62004225565b62004a23608083018a62004225565b62004a3260a083018962004225565b62004a4160c083018862003bb6565b62004a5060e083018762004225565b62004a6061010083018662004236565b62004a7061012083018562004225565b62004a8061014083018462004236565b9c9b505050505050505050505050565b600060608201905062004aa7600083018662004236565b62004ab6602083018562004225565b62004ac5604083018462004236565b949350505050565b600062004ad962004aec565b905062004ae7828262004da3565b919050565b6000604051905090565b600067ffffffffffffffff82111562004b145762004b1362004eb4565b5b602082029050602081019050919050565b600081519050919050565b600081905092915050565b600082825260208201905092915050565b600062004b598262004c84565b915062004b668362004c84565b9250827fffffffffffffffffffffffffffffffffffffffffffffffffffffffffffffffff0382111562004b9e5762004b9d62004e27565b5b828201905092915050565b600062004bb68262004c84565b915062004bc38362004c84565b92508282101562004bd95762004bd862004e27565b5b828203905092915050565b600073ffffffffffffffffffffffffffffffffffffffff82169050919050565b600060ff82169050919050565b6000819050919050565b600062004c288262004c64565b9050919050565b600062004c3c8262004c64565b9050919050565b60008115159050919050565b600081905062004c5f8262005528565b919050565b600073ffffffffffffffffffffffffffffffffffffffff82169050919050565b6000819050919050565b600060ff82169050919050565b600062004ca88262004ceb565b9050919050565b600062004cbc8262004ceb565b9050919050565b600062004cd08262004c4f565b9050919050565b600062004ce48262004c84565b9050919050565b600062004cf88262004cff565b9050919050565b600062004d0c8262004c64565b9050919050565b60005b8381101562004d3357808201518184015260208101905062004d16565b8381111562004d43576000848401525b50505050565b600062004d6062004d5a8362004f0d565b62004be4565b9050919050565b600062004d7e62004d788362004f0d565b62004c11565b9050919050565b600062004d9c62004d968362004f1a565b62004c04565b9050919050565b62004dae8262004efc565b810181811067ffffffffffffffff8211171562004dd05762004dcf62004eb4565b5b80604052505050565b600062004de68262004c84565b91507fffffffffffffffffffffffffffffffffffffffffffffffffffffffffffffffff82141562004e1c5762004e1b62004e27565b5b600182019050919050565b7f4e487b7100000000000000000000000000000000000000000000000000000000600052601160045260246000fd5b7f4e487b7100000000000000000000000000000000000000000000000000000000600052602160045260246000fd5b7f4e487b7100000000000000000000000000000000000000000000000000000000600052603260045260246000fd5b7f4e487b7100000000000000000000000000000000000000000000000000000000600052604160045260246000fd5b600080fd5b600080fd5b600080fd5b600080fd5b600080fd5b6000601f19601f8301169050919050565b60008160001c9050919050565b60008160a01c9050919050565b7f596f75722062616c616e636520697320696e73756666696369656e7400000000600082015250565b7f4170706c6963616e7420737461747573206973206e6f7420617070726f766564600082015250565b7f5472616e7366657220636f6e7472616374206661696c75726500000000000000600082015250565b7f4465706f736974206973206c6f636b6564000000000000000000000000000000600082015250565b7f4f776e61626c653a206e6577206f776e657220697320746865207a65726f206160008201527f6464726573730000000000000000000000000000000000000000000000000000602082015250565b7f53746f7265206973206e6f74207a65726f000000000000000000000000000000600082015250565b7f5472616e736665722062616c616e636520746f2074686520666f756e6465722060008201527f6661696c75726500000000000000000000000000000000000000000000000000602082015250565b7f4465706f73697420616d6f756e74206c657373207468616e206c696d69740000600082015250565b7f506c65617365206170706c792066697273740000000000000000000000000000600082015250565b7f526566756e64206465706f73697420746f2074686520666f756e64657220666160008201527f696c757265000000000000000000000000000000000000000000000000000000602082015250565b7f596f7572206465706f73697420746f6b656e2062616c616e636520697320696e60008201527f73756666696369656e7400000000000000000000000000000000000000000000602082015250565b7f6d73672e76616c7565206973206e6f742076616c696400000000000000000000600082015250565b7f596f7572206465706f73697420746f6b656e20616c6c6f77616e63652069732060008201527f696e73756666696369656e740000000000000000000000000000000000000000602082015250565b7f43616c6c6572206973206e6f742074686520666f756e64657200000000000000600082015250565b7f43616c6c6572206973206e6f7420616c6c6f77656420746f206c6f636b000000600082015250565b7f4465706f7369742062616c616e6365206d6f7265207468616e207a65726f0000600082015250565b7f526566756e64206465706f73697420746f206170706c6963616e74206661696c60008201527f7572650000000000000000000000000000000000000000000000000000000000602082015250565b7f526566756e64206661696c757265000000000000000000000000000000000000600082015250565b7f4d757374206e6f7420626520666163746f727900000000000000000000000000600082015250565b7f43616c6c6572206973206e6f7420616c6c6f77656420746f20756e6c6f636b00600082015250565b7f4d757374206e6f7420626520636f6e747261637473656c660000000000000000600082015250565b7f54696d65207061737420746865206170706c69636174696f6e20646561646c6960008201527f6e65000000000000000000000000000000000000000000000000000000000000602082015250565b7f546f20626520617070726f766564206d7573742061206170706c6963616e7400600082015250565b7f4f776e61626c653a2063616c6c6572206973206e6f7420746865206f776e6572600082015250565b7f4465706f73697420697320756e6c6f636b000000000000000000000000000000600082015250565b7f4465706f73697420616d6f756e74206973207a65726f00000000000000000000600082015250565b7f4465706f73697420746f6b656e207472616e7366657246726f6d206661696c7560008201527f7265000000000000000000000000000000000000000000000000000000000000602082015250565b7f4e6f2072652d656e7472616e6379000000000000000000000000000000000000600082015250565b50565b7f4d757374206e6f7420626520666f756e64657200000000000000000000000000600082015250565b7f4d757374206e6f74206265206170706c6963616e740000000000000000000000600082015250565b600581106200553c576200553b62004e56565b5b50565b6200554a8162004c1b565b81146200555657600080fd5b50565b620055648162004c2f565b81146200557057600080fd5b50565b6200557e8162004c43565b81146200558a57600080fd5b50565b620055988162004c84565b8114620055a457600080fd5b50565b620055b28162004c8e565b8114620055be57600080fd5b5056fe60806040523480156200001157600080fd5b5062000022620000c060201b60201c565b6000806101000a81548173ffffffffffffffffffffffffffffffffffffffff021916908373ffffffffffffffffffffffffffffffffffffffff1602179055507f4101e71e974f68df5e9730cc223280b41654676bbb052cdcc735c3337e64d2d960008054906101000a900473ffffffffffffffffffffffffffffffffffffffff16604051620000b29190620000d9565b60405180910390a16200012a565b600033905090565b620000d381620000f6565b82525050565b6000602082019050620000f06000830184620000c8565b92915050565b600062000103826200010a565b9050919050565b600073ffffffffffffffffffffffffffffffffffffffff82169050919050565b6118b3806200013a6000396000f3fe6080604052600436106100e15760003560e01c8063ad4a7d481161007f578063e2f88c1f11610059578063e2f88c1f146102fd578063e696288a14610326578063f5537ede14610363578063fdf5963a146103a05761011f565b8063ad4a7d4814610280578063c6dbdf61146102a9578063cb765d4d146102d45761011f565b80633b8e1bf5116100bb5780633b8e1bf5146101b3578063a2321aa1146101f1578063a374e6281461021a578063a9059cbb146102435761011f565b80630fd370591461012457806320d529a6146101615780632348238c1461018a5761011f565b3661011f577fd00ca3f088120b3d909c3a9e01be91e94a2b001aed9c25fe751c3c7a72dc49bf336040516101159190611582565b60405180910390a1005b600080fd5b34801561013057600080fd5b5061014b60048036038101906101469190611245565b6103cb565b60405161015891906115fb565b60405180910390f35b34801561016d57600080fd5b50610188600480360381019061018391906112f2565b6104b7565b005b34801561019657600080fd5b506101b160048036038101906101ac9190611245565b6105dc565b005b3480156101bf57600080fd5b506101da60048036038101906101d59190611245565b61077b565b6040516101e8929190611656565b60405180910390f35b3480156101fd57600080fd5b5061021860048036038101906102139190611245565b61089c565b005b34801561022657600080fd5b50610241600480360381019061023c9190611272565b610997565b005b34801561024f57600080fd5b5061026a600480360381019061026591906112b2565b610a87565b60405161027791906115fb565b60405180910390f35b34801561028c57600080fd5b506102a760048036038101906102a291906112b2565b610b95565b005b3480156102b557600080fd5b506102be610c75565b6040516102cb9190611567565b60405180910390f35b3480156102e057600080fd5b506102fb60048036038101906102f69190611345565b610c9e565b005b34801561030957600080fd5b50610324600480360381019061031f9190611272565b610d92565b005b34801561033257600080fd5b5061034d60048036038101906103489190611245565b610e82565b60405161035a91906115fb565b60405180910390f35b34801561036f57600080fd5b5061038a600480360381019061038591906113b2565b610f6e565b60405161039791906115fb565b60405180910390f35b3480156103ac57600080fd5b506103b561109c565b6040516103c291906115d9565b60405180910390f35b60008060009054906101000a900473ffffffffffffffffffffffffffffffffffffffff1673ffffffffffffffffffffffffffffffffffffffff1661040d6111bf565b73ffffffffffffffffffffffffffffffffffffffff1614610463576040517f08c379a000000000000000000000000000000000000000000000000000000000815260040161045a90611636565b60405180910390fd5b600360008373ffffffffffffffffffffffffffffffffffffffff1673ffffffffffffffffffffffffffffffffffffffff16815260200190815260200160002060009054906101000a900460ff169050919050565b60008054906101000a900473ffffffffffffffffffffffffffffffffffffffff1673ffffffffffffffffffffffffffffffffffffffff166104f66111bf565b73ffffffffffffffffffffffffffffffffffffffff161461054c576040517f08c379a000000000000000000000000000000000000000000000000000000000815260040161054390611636565b60405180910390fd5b600060405180604001604052808481526020018360ff16815250905080600260008673ffffffffffffffffffffffffffffffffffffffff1673ffffffffffffffffffffffffffffffffffffffff1681526020019081526020016000206000820151816000015560208201518160010160006101000a81548160ff021916908360ff16021790555090505050505050565b60008054906101000a900473ffffffffffffffffffffffffffffffffffffffff1673ffffffffffffffffffffffffffffffffffffffff1661061b6111bf565b73ffffffffffffffffffffffffffffffffffffffff1614610671576040517f08c379a000000000000000000000000000000000000000000000000000000000815260040161066890611636565b60405180910390fd5b600073ffffffffffffffffffffffffffffffffffffffff168173ffffffffffffffffffffffffffffffffffffffff1614156106e1576040517f08c379a00000000000000000000000000000000000000000000000000000000081526004016106d890611616565b60405180910390fd5b806000806101000a81548173ffffffffffffffffffffffffffffffffffffffff021916908373ffffffffffffffffffffffffffffffffffffffff1602179055507f4101e71e974f68df5e9730cc223280b41654676bbb052cdcc735c3337e64d2d960008054906101000a900473ffffffffffffffffffffffffffffffffffffffff166040516107709190611567565b60405180910390a150565b60008060008054906101000a900473ffffffffffffffffffffffffffffffffffffffff1673ffffffffffffffffffffffffffffffffffffffff166107bd6111bf565b73ffffffffffffffffffffffffffffffffffffffff1614610813576040517f08c379a000000000000000000000000000000000000000000000000000000000815260040161080a90611636565b60405180910390fd5b6000600260008573ffffffffffffffffffffffffffffffffffffffff1673ffffffffffffffffffffffffffffffffffffffff168152602001908152602001600020604051806040016040529081600082015481526020016001820160009054906101000a900460ff1660ff1660ff16815250509050806000015181602001519250925050915091565b60008054906101000a900473ffffffffffffffffffffffffffffffffffffffff1673ffffffffffffffffffffffffffffffffffffffff166108db6111bf565b73ffffffffffffffffffffffffffffffffffffffff1614610931576040517f08c379a000000000000000000000000000000000000000000000000000000000815260040161092890611636565b60405180910390fd5b6001819080600181540180825580915050600190039060005260206000200160009091909190916101000a81548173ffffffffffffffffffffffffffffffffffffffff021916908373ffffffffffffffffffffffffffffffffffffffff16021790555050565b60008054906101000a900473ffffffffffffffffffffffffffffffffffffffff1673ffffffffffffffffffffffffffffffffffffffff166109d66111bf565b73ffffffffffffffffffffffffffffffffffffffff1614610a2c576040517f08c379a0000000000000000000000000000000000000000000000000000000008152600401610a2390611636565b60405180910390fd5b80600460008473ffffffffffffffffffffffffffffffffffffffff1673ffffffffffffffffffffffffffffffffffffffff16815260200190815260200160002060006101000a81548160ff0219169083151502179055505050565b60008060009054906101000a900473ffffffffffffffffffffffffffffffffffffffff1673ffffffffffffffffffffffffffffffffffffffff16610ac96111bf565b73ffffffffffffffffffffffffffffffffffffffff1614610b1f576040517f08c379a0000000000000000000000000000000000000000000000000000000008152600401610b1690611636565b60405180910390fd5b60008373ffffffffffffffffffffffffffffffffffffffff1683604051610b4590611552565b60006040518083038185875af1925050503d8060008114610b82576040519150601f19603f3d011682016040523d82523d6000602084013e610b87565b606091505b505090508091505092915050565b60008054906101000a900473ffffffffffffffffffffffffffffffffffffffff1673ffffffffffffffffffffffffffffffffffffffff16610bd46111bf565b73ffffffffffffffffffffffffffffffffffffffff1614610c2a576040517f08c379a0000000000000000000000000000000000000000000000000000000008152600401610c2190611636565b60405180910390fd5b80600260008473ffffffffffffffffffffffffffffffffffffffff1673ffffffffffffffffffffffffffffffffffffffff168152602001908152602001600020600001819055505050565b60008060009054906101000a900473ffffffffffffffffffffffffffffffffffffffff16905090565b60008054906101000a900473ffffffffffffffffffffffffffffffffffffffff1673ffffffffffffffffffffffffffffffffffffffff16610cdd6111bf565b73ffffffffffffffffffffffffffffffffffffffff1614610d33576040517f08c379a0000000000000000000000000000000000000000000000000000000008152600401610d2a90611636565b60405180910390fd5b80600260008473ffffffffffffffffffffffffffffffffffffffff1673ffffffffffffffffffffffffffffffffffffffff16815260200190815260200160002060010160006101000a81548160ff021916908360ff1602179055505050565b60008054906101000a900473ffffffffffffffffffffffffffffffffffffffff1673ffffffffffffffffffffffffffffffffffffffff16610dd16111bf565b73ffffffffffffffffffffffffffffffffffffffff1614610e27576040517f08c379a0000000000000000000000000000000000000000000000000000000008152600401610e1e90611636565b60405180910390fd5b80600360008473ffffffffffffffffffffffffffffffffffffffff1673ffffffffffffffffffffffffffffffffffffffff16815260200190815260200160002060006101000a81548160ff0219169083151502179055505050565b60008060009054906101000a900473ffffffffffffffffffffffffffffffffffffffff1673ffffffffffffffffffffffffffffffffffffffff16610ec46111bf565b73ffffffffffffffffffffffffffffffffffffffff1614610f1a576040517f08c379a0000000000000000000000000000000000000000000000000000000008152600401610f1190611636565b60405180910390fd5b600460008373ffffffffffffffffffffffffffffffffffffffff1673ffffffffffffffffffffffffffffffffffffffff16815260200190815260200160002060009054906101000a900460ff169050919050565b60008060009054906101000a900473ffffffffffffffffffffffffffffffffffffffff1673ffffffffffffffffffffffffffffffffffffffff16610fb06111bf565b73ffffffffffffffffffffffffffffffffffffffff1614611006576040517f08c379a0000000000000000000000000000000000000000000000000000000008152600401610ffd90611636565b60405180910390fd5b8373ffffffffffffffffffffffffffffffffffffffff1663a9059cbb84846040518363ffffffff1660e01b81526004016110419291906115b0565b602060405180830381600087803b15801561105b57600080fd5b505af115801561106f573d6000803e3d6000fd5b505050506040513d601f19601f820116820180604052508101906110939190611385565b90509392505050565b606060008054906101000a900473ffffffffffffffffffffffffffffffffffffffff1673ffffffffffffffffffffffffffffffffffffffff166110dd6111bf565b73ffffffffffffffffffffffffffffffffffffffff1614611133576040517f08c379a000000000000000000000000000000000000000000000000000000000815260040161112a90611636565b60405180910390fd5b60018054806020026020016040519081016040528092919081815260200182805480156111b557602002820191906000526020600020905b8160009054906101000a900473ffffffffffffffffffffffffffffffffffffffff1673ffffffffffffffffffffffffffffffffffffffff168152602001906001019080831161116b575b5050505050905090565b600033905090565b6000813590506111d68161180a565b92915050565b6000813590506111eb81611821565b92915050565b60008151905061120081611821565b92915050565b60008135905061121581611838565b92915050565b60008135905061122a8161184f565b92915050565b60008135905061123f81611866565b92915050565b60006020828403121561125b5761125a61173b565b5b6000611269848285016111c7565b91505092915050565b600080604083850312156112895761128861173b565b5b6000611297858286016111c7565b92505060206112a8858286016111dc565b9150509250929050565b600080604083850312156112c9576112c861173b565b5b60006112d7858286016111c7565b92505060206112e88582860161121b565b9150509250929050565b60008060006060848603121561130b5761130a61173b565b5b6000611319868287016111c7565b935050602061132a8682870161121b565b925050604061133b86828701611230565b9150509250925092565b6000806040838503121561135c5761135b61173b565b5b600061136a858286016111c7565b925050602061137b85828601611230565b9150509250929050565b60006020828403121561139b5761139a61173b565b5b60006113a9848285016111f1565b91505092915050565b6000806000606084860312156113cb576113ca61173b565b5b60006113d986828701611206565b93505060206113ea868287016111c7565b92505060406113fb8682870161121b565b9150509250925092565b6000611411838361141d565b60208301905092915050565b611426816116d4565b82525050565b611435816116d4565b82525050565b60006114468261168f565b61145081856116a7565b935061145b8361167f565b8060005b8381101561148c5781516114738882611405565b975061147e8361169a565b92505060018101905061145f565b5085935050505092915050565b6114a2816116e6565b82525050565b60006114b5602a836116c3565b91506114c082611740565b604082019050919050565b60006114d8602c836116c3565b91506114e38261178f565b604082019050919050565b60006114fb6000836116b8565b9150611506826117de565b600082019050919050565b600061151e6007836116c3565b9150611529826117e1565b602082019050919050565b61153d81611724565b82525050565b61154c8161172e565b82525050565b600061155d826114ee565b9150819050919050565b600060208201905061157c600083018461142c565b92915050565b6000604082019050611597600083018461142c565b81810360208301526115a881611511565b905092915050565b60006040820190506115c5600083018561142c565b6115d26020830184611534565b9392505050565b600060208201905081810360008301526115f3818461143b565b905092915050565b60006020820190506116106000830184611499565b92915050565b6000602082019050818103600083015261162f816114a8565b9050919050565b6000602082019050818103600083015261164f816114cb565b9050919050565b600060408201905061166b6000830185611534565b6116786020830184611543565b9392505050565b6000819050602082019050919050565b600081519050919050565b6000602082019050919050565b600082825260208201905092915050565b600081905092915050565b600082825260208201905092915050565b60006116df82611704565b9050919050565b60008115159050919050565b60006116fd826116d4565b9050919050565b600073ffffffffffffffffffffffffffffffffffffffff82169050919050565b6000819050919050565b600060ff82169050919050565b600080fd5b7f5365636f6e646172793a206e6577207072696d61727920697320746865207a6560008201527f726f206164647265737300000000000000000000000000000000000000000000602082015250565b7f5365636f6e646172793a2063616c6c6572206973206e6f74207468652070726960008201527f6d617279206163636f756e740000000000000000000000000000000000000000602082015250565b50565b7f7265636569766500000000000000000000000000000000000000000000000000600082015250565b611813816116d4565b811461181e57600080fd5b50565b61182a816116e6565b811461183557600080fd5b50565b611841816116f2565b811461184c57600080fd5b50565b61185881611724565b811461186357600080fd5b50565b61186f8161172e565b811461187a57600080fd5b5056fea26469706673582212204829d7687602176a149413828dc2a7117759caddc2be5bc7b06c4a779f8d00cc64736f6c63430008070033426f756e747920737461747573206e6f7420696e20726561647920746f20776f726b426f756e747920737461747573206e6f7420696e20776f726b2073746172746564a264697066735822122001367ab2575db88c4cdec49374160c00b204c12cb4bbfdc47ed538973fc7dc8764736f6c63430008070033",
			"opcodes": "PUSH1 0x80 PUSH1 0x40 MSTORE CALLVALUE DUP1 ISZERO PUSH3 0x11 JUMPI PUSH1 0x0 DUP1 REVERT JUMPDEST POP PUSH1 0x40 MLOAD PUSH3 0x72D6 CODESIZE SUB DUP1 PUSH3 0x72D6 DUP4 CODECOPY DUP2 DUP2 ADD PUSH1 0x40 MSTORE DUP2 ADD SWAP1 PUSH3 0x37 SWAP2 SWAP1 PUSH3 0x205 JUMP JUMPDEST PUSH3 0x57 PUSH3 0x4B PUSH3 0x122 PUSH1 0x20 SHL PUSH1 0x20 SHR JUMP JUMPDEST PUSH3 0x12A PUSH1 0x20 SHL PUSH1 0x20 SHR JUMP JUMPDEST DUP2 PUSH1 0x3 PUSH1 0x0 PUSH2 0x100 EXP DUP2 SLOAD DUP2 PUSH20 0xFFFFFFFFFFFFFFFFFFFFFFFFFFFFFFFFFFFFFFFF MUL NOT AND SWAP1 DUP4 PUSH20 0xFFFFFFFFFFFFFFFFFFFFFFFFFFFFFFFFFFFFFFFF AND MUL OR SWAP1 SSTORE POP DUP1 PUSH1 0x4 PUSH1 0x0 PUSH2 0x100 EXP DUP2 SLOAD DUP2 PUSH20 0xFFFFFFFFFFFFFFFFFFFFFFFFFFFFFFFFFFFFFFFF MUL NOT AND SWAP1 DUP4 PUSH20 0xFFFFFFFFFFFFFFFFFFFFFFFFFFFFFFFFFFFFFFFF AND MUL OR SWAP1 SSTORE POP ADDRESS PUSH1 0x5 PUSH1 0x0 PUSH2 0x100 EXP DUP2 SLOAD DUP2 PUSH20 0xFFFFFFFFFFFFFFFFFFFFFFFFFFFFFFFFFFFFFFFF MUL NOT AND SWAP1 DUP4 PUSH20 0xFFFFFFFFFFFFFFFFFFFFFFFFFFFFFFFFFFFFFFFF AND MUL OR SWAP1 SSTORE POP POP POP PUSH3 0x29F JUMP JUMPDEST PUSH1 0x0 CALLER SWAP1 POP SWAP1 JUMP JUMPDEST PUSH1 0x0 DUP1 PUSH1 0x0 SWAP1 SLOAD SWAP1 PUSH2 0x100 EXP SWAP1 DIV PUSH20 0xFFFFFFFFFFFFFFFFFFFFFFFFFFFFFFFFFFFFFFFF AND SWAP1 POP DUP2 PUSH1 0x0 DUP1 PUSH2 0x100 EXP DUP2 SLOAD DUP2 PUSH20 0xFFFFFFFFFFFFFFFFFFFFFFFFFFFFFFFFFFFFFFFF MUL NOT AND SWAP1 DUP4 PUSH20 0xFFFFFFFFFFFFFFFFFFFFFFFFFFFFFFFFFFFFFFFF AND MUL OR SWAP1 SSTORE POP DUP2 PUSH20 0xFFFFFFFFFFFFFFFFFFFFFFFFFFFFFFFFFFFFFFFF AND DUP2 PUSH20 0xFFFFFFFFFFFFFFFFFFFFFFFFFFFFFFFFFFFFFFFF AND PUSH32 0x8BE0079C531659141344CD1FD0A4F28419497F9722A3DAAFE3B4186F6B6457E0 PUSH1 0x40 MLOAD PUSH1 0x40 MLOAD DUP1 SWAP2 SUB SWAP1 LOG3 POP POP JUMP JUMPDEST PUSH1 0x0 DUP2 MLOAD SWAP1 POP PUSH3 0x1FF DUP2 PUSH3 0x285 JUMP JUMPDEST SWAP3 SWAP2 POP POP JUMP JUMPDEST PUSH1 0x0 DUP1 PUSH1 0x40 DUP4 DUP6 SUB SLT ISZERO PUSH3 0x21F JUMPI PUSH3 0x21E PUSH3 0x280 JUMP JUMPDEST JUMPDEST PUSH1 0x0 PUSH3 0x22F DUP6 DUP3 DUP7 ADD PUSH3 0x1EE JUMP JUMPDEST SWAP3 POP POP PUSH1 0x20 PUSH3 0x242 DUP6 DUP3 DUP7 ADD PUSH3 0x1EE JUMP JUMPDEST SWAP2 POP POP SWAP3 POP SWAP3 SWAP1 POP JUMP JUMPDEST PUSH1 0x0 PUSH3 0x259 DUP3 PUSH3 0x260 JUMP JUMPDEST SWAP1 POP SWAP2 SWAP1 POP JUMP JUMPDEST PUSH1 0x0 PUSH20 0xFFFFFFFFFFFFFFFFFFFFFFFFFFFFFFFFFFFFFFFF DUP3 AND SWAP1 POP SWAP2 SWAP1 POP JUMP JUMPDEST PUSH1 0x0 DUP1 REVERT JUMPDEST PUSH3 0x290 DUP2 PUSH3 0x24C JUMP JUMPDEST DUP2 EQ PUSH3 0x29C JUMPI PUSH1 0x0 DUP1 REVERT JUMPDEST POP JUMP JUMPDEST PUSH2 0x7027 DUP1 PUSH3 0x2AF PUSH1 0x0 CODECOPY PUSH1 0x0 RETURN INVALID PUSH1 0x80 PUSH1 0x40 MSTORE PUSH1 0x4 CALLDATASIZE LT PUSH3 0x146 JUMPI PUSH1 0x0 CALLDATALOAD PUSH1 0xE0 SHR DUP1 PUSH4 0x89035730 GT PUSH3 0xBB JUMPI DUP1 PUSH4 0xC2722ECC GT PUSH3 0x79 JUMPI DUP1 PUSH4 0xC2722ECC EQ PUSH3 0x333 JUMPI DUP1 PUSH4 0xDA91254C EQ PUSH3 0x363 JUMPI DUP1 PUSH4 0xF2FDE38B EQ PUSH3 0x395 JUMPI DUP1 PUSH4 0xF4E759EF EQ PUSH3 0x3C3 JUMPI DUP1 PUSH4 0xF523E775 EQ PUSH3 0x3F3 JUMPI DUP1 PUSH4 0xF83D08BA EQ PUSH3 0x421 JUMPI PUSH3 0x146 JUMP JUMPDEST DUP1 PUSH4 0x89035730 EQ PUSH3 0x26D JUMPI DUP1 PUSH4 0x8DA5CB5B EQ PUSH3 0x29D JUMPI DUP1 PUSH4 0xA69DF4B5 EQ PUSH3 0x2CD JUMPI DUP1 PUSH4 0xB6B55F25 EQ PUSH3 0x2D9 JUMPI DUP1 PUSH4 0xC19D93FB EQ PUSH3 0x2F9 JUMPI PUSH3 0x146 JUMP JUMPDEST DUP1 PUSH4 0x4D5D4EC7 GT PUSH3 0x109 JUMPI DUP1 PUSH4 0x4D5D4EC7 EQ PUSH3 0x1DF JUMPI DUP1 PUSH4 0x6AFC8D3E EQ PUSH3 0x1FF JUMPI DUP1 PUSH4 0x715018A6 EQ PUSH3 0x22D JUMPI DUP1 PUSH4 0x7238FCA8 EQ PUSH3 0x247 JUMPI DUP1 PUSH4 0x86D1A69F EQ PUSH3 0x261 JUMPI PUSH3 0x146 JUMP JUMPDEST DUP1 PUSH4 0x1292A282 EQ PUSH3 0x14B JUMPI DUP1 PUSH4 0x1A28C42E EQ PUSH3 0x179 JUMPI DUP1 PUSH4 0x2348238C EQ PUSH3 0x199 JUMPI DUP1 PUSH4 0x43D726D6 EQ PUSH3 0x1C7 JUMPI DUP1 PUSH4 0x4BA7DDB5 EQ PUSH3 0x1D3 JUMPI JUMPDEST PUSH1 0x0 DUP1 REVERT JUMPDEST CALLVALUE DUP1 ISZERO PUSH3 0x158 JUMPI PUSH1 0x0 DUP1 REVERT JUMPDEST POP PUSH3 0x177 PUSH1 0x4 DUP1 CALLDATASIZE SUB DUP2 ADD SWAP1 PUSH3 0x171 SWAP2 SWAP1 PUSH3 0x39AE JUMP JUMPDEST PUSH3 0x42D JUMP JUMPDEST STOP JUMPDEST PUSH3 0x197 PUSH1 0x4 DUP1 CALLDATASIZE SUB DUP2 ADD SWAP1 PUSH3 0x191 SWAP2 SWAP1 PUSH3 0x3AC7 JUMP JUMPDEST PUSH3 0x6A2 JUMP JUMPDEST STOP JUMPDEST CALLVALUE DUP1 ISZERO PUSH3 0x1A6 JUMPI PUSH1 0x0 DUP1 REVERT JUMPDEST POP PUSH3 0x1C5 PUSH1 0x4 DUP1 CALLDATASIZE SUB DUP2 ADD SWAP1 PUSH3 0x1BF SWAP2 SWAP1 PUSH3 0x39AE JUMP JUMPDEST PUSH3 0x8E0 JUMP JUMPDEST STOP JUMPDEST PUSH3 0x1D1 PUSH3 0x97E JUMP JUMPDEST STOP JUMPDEST PUSH3 0x1DD PUSH3 0xB79 JUMP JUMPDEST STOP JUMPDEST PUSH3 0x1FD PUSH1 0x4 DUP1 CALLDATASIZE SUB DUP2 ADD SWAP1 PUSH3 0x1F7 SWAP2 SWAP1 PUSH3 0x3A95 JUMP JUMPDEST PUSH3 0xD3B JUMP JUMPDEST STOP JUMPDEST CALLVALUE DUP1 ISZERO PUSH3 0x20C JUMPI PUSH1 0x0 DUP1 REVERT JUMPDEST POP PUSH3 0x22B PUSH1 0x4 DUP1 CALLDATASIZE SUB DUP2 ADD SWAP1 PUSH3 0x225 SWAP2 SWAP1 PUSH3 0x39AE JUMP JUMPDEST PUSH3 0x112C JUMP JUMPDEST STOP JUMPDEST CALLVALUE DUP1 ISZERO PUSH3 0x23A JUMPI PUSH1 0x0 DUP1 REVERT JUMPDEST POP PUSH3 0x245 PUSH3 0x132C JUMP JUMPDEST STOP JUMPDEST CALLVALUE DUP1 ISZERO PUSH3 0x254 JUMPI PUSH1 0x0 DUP1 REVERT JUMPDEST POP PUSH3 0x25F PUSH3 0x1338 JUMP JUMPDEST STOP JUMPDEST PUSH3 0x26B PUSH3 0x13B2 JUMP JUMPDEST STOP JUMPDEST CALLVALUE DUP1 ISZERO PUSH3 0x27A JUMPI PUSH1 0x0 DUP1 REVERT JUMPDEST POP PUSH3 0x285 PUSH3 0x1472 JUMP JUMPDEST PUSH1 0x40 MLOAD PUSH3 0x294 SWAP2 SWAP1 PUSH3 0x49B2 JUMP JUMPDEST PUSH1 0x40 MLOAD DUP1 SWAP2 SUB SWAP1 RETURN JUMPDEST CALLVALUE DUP1 ISZERO PUSH3 0x2AA JUMPI PUSH1 0x0 DUP1 REVERT JUMPDEST POP PUSH3 0x2B5 PUSH3 0x151D JUMP JUMPDEST PUSH1 0x40 MLOAD PUSH3 0x2C4 SWAP2 SWAP1 PUSH3 0x425E JUMP JUMPDEST PUSH1 0x40 MLOAD DUP1 SWAP2 SUB SWAP1 RETURN JUMPDEST PUSH3 0x2D7 PUSH3 0x1546 JUMP JUMPDEST STOP JUMPDEST PUSH3 0x2F7 PUSH1 0x4 DUP1 CALLDATASIZE SUB DUP2 ADD SWAP1 PUSH3 0x2F1 SWAP2 SWAP1 PUSH3 0x3AC7 JUMP JUMPDEST PUSH3 0x15F9 JUMP JUMPDEST STOP JUMPDEST CALLVALUE DUP1 ISZERO PUSH3 0x306 JUMPI PUSH1 0x0 DUP1 REVERT JUMPDEST POP PUSH3 0x311 PUSH3 0x16D9 JUMP JUMPDEST PUSH1 0x40 MLOAD PUSH3 0x32A SWAP12 SWAP11 SWAP10 SWAP9 SWAP8 SWAP7 SWAP6 SWAP5 SWAP4 SWAP3 SWAP2 SWAP1 PUSH3 0x49CF JUMP JUMPDEST PUSH1 0x40 MLOAD DUP1 SWAP2 SUB SWAP1 RETURN JUMPDEST CALLVALUE DUP1 ISZERO PUSH3 0x340 JUMPI PUSH1 0x0 DUP1 REVERT JUMPDEST POP PUSH3 0x34B PUSH3 0x1848 JUMP JUMPDEST PUSH1 0x40 MLOAD PUSH3 0x35A SWAP2 SWAP1 PUSH3 0x425E JUMP JUMPDEST PUSH1 0x40 MLOAD DUP1 SWAP2 SUB SWAP1 RETURN JUMPDEST CALLVALUE DUP1 ISZERO PUSH3 0x370 JUMPI PUSH1 0x0 DUP1 REVERT JUMPDEST POP PUSH3 0x37B PUSH3 0x187C JUMP JUMPDEST PUSH1 0x40 MLOAD PUSH3 0x38C SWAP4 SWAP3 SWAP2 SWAP1 PUSH3 0x4A90 JUMP JUMPDEST PUSH1 0x40 MLOAD DUP1 SWAP2 SUB SWAP1 RETURN JUMPDEST CALLVALUE DUP1 ISZERO PUSH3 0x3A2 JUMPI PUSH1 0x0 DUP1 REVERT JUMPDEST POP PUSH3 0x3C1 PUSH1 0x4 DUP1 CALLDATASIZE SUB DUP2 ADD SWAP1 PUSH3 0x3BB SWAP2 SWAP1 PUSH3 0x39AE JUMP JUMPDEST PUSH3 0x1897 JUMP JUMPDEST STOP JUMPDEST CALLVALUE DUP1 ISZERO PUSH3 0x3D0 JUMPI PUSH1 0x0 DUP1 REVERT JUMPDEST POP PUSH3 0x3DB PUSH3 0x1922 JUMP JUMPDEST PUSH1 0x40 MLOAD PUSH3 0x3EA SWAP2 SWAP1 PUSH3 0x425E JUMP JUMPDEST PUSH1 0x40 MLOAD DUP1 SWAP2 SUB SWAP1 RETURN JUMPDEST CALLVALUE DUP1 ISZERO PUSH3 0x400 JUMPI PUSH1 0x0 DUP1 REVERT JUMPDEST POP PUSH3 0x41F PUSH1 0x4 DUP1 CALLDATASIZE SUB DUP2 ADD SWAP1 PUSH3 0x419 SWAP2 SWAP1 PUSH3 0x39E0 JUMP JUMPDEST PUSH3 0x1956 JUMP JUMPDEST STOP JUMPDEST PUSH3 0x42B PUSH3 0x19A4 JUMP JUMPDEST STOP JUMPDEST PUSH3 0x437 PUSH3 0x1A58 JUMP JUMPDEST PUSH3 0x45D PUSH1 0x1 PUSH1 0x40 MLOAD DUP1 PUSH1 0x60 ADD PUSH1 0x40 MSTORE DUP1 PUSH1 0x22 DUP2 MSTORE PUSH1 0x20 ADD PUSH3 0x6FAF PUSH1 0x22 SWAP2 CODECOPY PUSH3 0x1AED JUMP JUMPDEST PUSH1 0x0 PUSH3 0x46A DUP3 PUSH3 0x1B73 JUMP JUMPDEST POP SWAP3 POP POP POP DUP1 DUP1 PUSH3 0x48C JUMPI POP DUP1 ISZERO DUP1 ISZERO PUSH3 0x48B JUMPI POP PUSH1 0x0 PUSH1 0x7 PUSH1 0x2 ADD SLOAD EQ JUMPDEST JUMPDEST PUSH3 0x4CE JUMPI PUSH1 0x40 MLOAD PUSH32 0x8C379A000000000000000000000000000000000000000000000000000000000 DUP2 MSTORE PUSH1 0x4 ADD PUSH3 0x4C5 SWAP1 PUSH3 0x48A2 JUMP JUMPDEST PUSH1 0x40 MLOAD DUP1 SWAP2 SUB SWAP1 REVERT JUMPDEST PUSH3 0x4D9 DUP3 PUSH3 0x1C09 JUMP JUMPDEST PUSH3 0x4E8 DUP3 PUSH1 0x0 PUSH1 0x5 PUSH3 0x1E1E JUMP JUMPDEST PUSH1 0x2 PUSH1 0xE PUSH1 0x2 PUSH2 0x100 EXP DUP2 SLOAD DUP2 PUSH1 0xFF MUL NOT AND SWAP1 DUP4 PUSH1 0x4 DUP2 GT ISZERO PUSH3 0x511 JUMPI PUSH3 0x510 PUSH3 0x4E56 JUMP JUMPDEST JUMPDEST MUL OR SWAP1 SSTORE POP PUSH1 0x1 PUSH1 0xE PUSH1 0x0 PUSH2 0x100 EXP DUP2 SLOAD DUP2 PUSH1 0xFF MUL NOT AND SWAP1 DUP4 ISZERO ISZERO MUL OR SWAP1 SSTORE POP PUSH1 0x1 PUSH1 0x0 SWAP1 SLOAD SWAP1 PUSH2 0x100 EXP SWAP1 DIV PUSH20 0xFFFFFFFFFFFFFFFFFFFFFFFFFFFFFFFFFFFFFFFF AND PUSH20 0xFFFFFFFFFFFFFFFFFFFFFFFFFFFFFFFFFFFFFFFF AND PUSH4 0xE2F88C1F DUP4 PUSH1 0x1 PUSH1 0x40 MLOAD DUP4 PUSH4 0xFFFFFFFF AND PUSH1 0xE0 SHL DUP2 MSTORE PUSH1 0x4 ADD PUSH3 0x591 SWAP3 SWAP2 SWAP1 PUSH3 0x4360 JUMP JUMPDEST PUSH1 0x0 PUSH1 0x40 MLOAD DUP1 DUP4 SUB DUP2 PUSH1 0x0 DUP8 DUP1 EXTCODESIZE ISZERO DUP1 ISZERO PUSH3 0x5AC JUMPI PUSH1 0x0 DUP1 REVERT JUMPDEST POP GAS CALL ISZERO DUP1 ISZERO PUSH3 0x5C1 JUMPI RETURNDATASIZE PUSH1 0x0 DUP1 RETURNDATACOPY RETURNDATASIZE PUSH1 0x0 REVERT JUMPDEST POP POP POP POP PUSH1 0x1 PUSH1 0x0 SWAP1 SLOAD SWAP1 PUSH2 0x100 EXP SWAP1 DIV PUSH20 0xFFFFFFFFFFFFFFFFFFFFFFFFFFFFFFFFFFFFFFFF AND PUSH20 0xFFFFFFFFFFFFFFFFFFFFFFFFFFFFFFFFFFFFFFFF AND PUSH4 0xA374E628 DUP4 PUSH1 0x1 PUSH1 0x40 MLOAD DUP4 PUSH4 0xFFFFFFFF AND PUSH1 0xE0 SHL DUP2 MSTORE PUSH1 0x4 ADD PUSH3 0x625 SWAP3 SWAP2 SWAP1 PUSH3 0x4360 JUMP JUMPDEST PUSH1 0x0 PUSH1 0x40 MLOAD DUP1 DUP4 SUB DUP2 PUSH1 0x0 DUP8 DUP1 EXTCODESIZE ISZERO DUP1 ISZERO PUSH3 0x640 JUMPI PUSH1 0x0 DUP1 REVERT JUMPDEST POP GAS CALL ISZERO DUP1 ISZERO PUSH3 0x655 JUMPI RETURNDATASIZE PUSH1 0x0 DUP1 RETURNDATACOPY RETURNDATASIZE PUSH1 0x0 REVERT JUMPDEST POP POP POP POP PUSH3 0x663 PUSH3 0x2041 JUMP JUMPDEST PUSH32 0x3CE2DA1DAF10AA0A28578B70FE768ED2F390A3DA82445358F9346FBC2981F6FD CALLER DUP4 PUSH1 0x40 MLOAD PUSH3 0x696 SWAP3 SWAP2 SWAP1 PUSH3 0x42A8 JUMP JUMPDEST PUSH1 0x40 MLOAD DUP1 SWAP2 SUB SWAP1 LOG1 POP POP JUMP JUMPDEST PUSH3 0x6AC PUSH3 0x205A JUMP JUMPDEST PUSH3 0x6B6 PUSH3 0x22A2 JUMP JUMPDEST PUSH3 0x6DC PUSH1 0x1 PUSH1 0x40 MLOAD DUP1 PUSH1 0x60 ADD PUSH1 0x40 MSTORE DUP1 PUSH1 0x22 DUP2 MSTORE PUSH1 0x20 ADD PUSH3 0x6FAF PUSH1 0x22 SWAP2 CODECOPY PUSH3 0x1AED JUMP JUMPDEST PUSH1 0xE PUSH1 0x1 SWAP1 SLOAD SWAP1 PUSH2 0x100 EXP SWAP1 DIV PUSH1 0xFF AND ISZERO PUSH3 0x72F JUMPI PUSH1 0x40 MLOAD PUSH32 0x8C379A000000000000000000000000000000000000000000000000000000000 DUP2 MSTORE PUSH1 0x4 ADD PUSH3 0x726 SWAP1 PUSH3 0x494C JUMP JUMPDEST PUSH1 0x40 MLOAD DUP1 SWAP2 SUB SWAP1 REVERT JUMPDEST PUSH1 0x1 PUSH1 0xE PUSH1 0x1 PUSH2 0x100 EXP DUP2 SLOAD DUP2 PUSH1 0xFF MUL NOT AND SWAP1 DUP4 ISZERO ISZERO MUL OR SWAP1 SSTORE POP PUSH1 0x7 PUSH1 0x2 ADD SLOAD DUP2 LT ISZERO PUSH3 0x795 JUMPI PUSH1 0x40 MLOAD PUSH32 0x8C379A000000000000000000000000000000000000000000000000000000000 DUP2 MSTORE PUSH1 0x4 ADD PUSH3 0x78C SWAP1 PUSH3 0x46A4 JUMP JUMPDEST PUSH1 0x40 MLOAD DUP1 SWAP2 SUB SWAP1 REVERT JUMPDEST PUSH3 0x7A0 DUP2 PUSH3 0x22EF JUMP JUMPDEST PUSH3 0x7AE CALLER DUP3 PUSH1 0x1 PUSH3 0x1E1E JUMP JUMPDEST PUSH3 0x7C5 DUP2 PUSH1 0xC SLOAD PUSH3 0x27C0 SWAP1 SWAP2 SWAP1 PUSH4 0xFFFFFFFF AND JUMP JUMPDEST PUSH1 0xC DUP2 SWAP1 SSTORE POP PUSH1 0x0 PUSH1 0x1 PUSH1 0x0 SWAP1 SLOAD SWAP1 PUSH2 0x100 EXP SWAP1 DIV PUSH20 0xFFFFFFFFFFFFFFFFFFFFFFFFFFFFFFFFFFFFFFFF AND PUSH20 0xFFFFFFFFFFFFFFFFFFFFFFFFFFFFFFFFFFFFFFFF AND PUSH4 0x3B8E1BF5 CALLER PUSH1 0x40 MLOAD DUP3 PUSH4 0xFFFFFFFF AND PUSH1 0xE0 SHL DUP2 MSTORE PUSH1 0x4 ADD PUSH3 0x82A SWAP2 SWAP1 PUSH3 0x425E JUMP JUMPDEST PUSH1 0x40 DUP1 MLOAD DUP1 DUP4 SUB DUP2 DUP7 DUP1 EXTCODESIZE ISZERO DUP1 ISZERO PUSH3 0x842 JUMPI PUSH1 0x0 DUP1 REVERT JUMPDEST POP GAS STATICCALL ISZERO DUP1 ISZERO PUSH3 0x857 JUMPI RETURNDATASIZE PUSH1 0x0 DUP1 RETURNDATACOPY RETURNDATASIZE PUSH1 0x0 REVERT JUMPDEST POP POP POP POP PUSH1 0x40 MLOAD RETURNDATASIZE PUSH1 0x1F NOT PUSH1 0x1F DUP3 ADD AND DUP3 ADD DUP1 PUSH1 0x40 MSTORE POP DUP2 ADD SWAP1 PUSH3 0x87D SWAP2 SWAP1 PUSH3 0x3B2B JUMP JUMPDEST POP SWAP1 POP PUSH32 0x3EC20FFA4A6F153B890E952F2BA9E704F33A57723BD66C48896FC34DF27F0C37 CALLER DUP4 DUP4 PUSH1 0xC SLOAD PUSH1 0x40 MLOAD PUSH3 0x8B9 SWAP5 SWAP4 SWAP3 SWAP2 SWAP1 PUSH3 0x449E JUMP JUMPDEST PUSH1 0x40 MLOAD DUP1 SWAP2 SUB SWAP1 LOG1 POP PUSH1 0x0 PUSH1 0xE PUSH1 0x1 PUSH2 0x100 EXP DUP2 SLOAD DUP2 PUSH1 0xFF MUL NOT AND SWAP1 DUP4 ISZERO ISZERO MUL OR SWAP1 SSTORE POP POP JUMP JUMPDEST PUSH3 0x8EA PUSH3 0x27D8 JUMP JUMPDEST PUSH1 0x1 PUSH1 0x0 SWAP1 SLOAD SWAP1 PUSH2 0x100 EXP SWAP1 DIV PUSH20 0xFFFFFFFFFFFFFFFFFFFFFFFFFFFFFFFFFFFFFFFF AND PUSH20 0xFFFFFFFFFFFFFFFFFFFFFFFFFFFFFFFFFFFFFFFF AND PUSH4 0x2348238C DUP3 PUSH1 0x40 MLOAD DUP3 PUSH4 0xFFFFFFFF AND PUSH1 0xE0 SHL DUP2 MSTORE PUSH1 0x4 ADD PUSH3 0x947 SWAP2 SWAP1 PUSH3 0x425E JUMP JUMPDEST PUSH1 0x0 PUSH1 0x40 MLOAD DUP1 DUP4 SUB DUP2 PUSH1 0x0 DUP8 DUP1 EXTCODESIZE ISZERO DUP1 ISZERO PUSH3 0x962 JUMPI PUSH1 0x0 DUP1 REVERT JUMPDEST POP GAS CALL ISZERO DUP1 ISZERO PUSH3 0x977 JUMPI RETURNDATASIZE PUSH1 0x0 DUP1 RETURNDATACOPY RETURNDATASIZE PUSH1 0x0 REVERT JUMPDEST POP POP POP POP POP JUMP JUMPDEST PUSH3 0x988 PUSH3 0x1A58 JUMP JUMPDEST PUSH1 0x0 PUSH1 0xC SLOAD PUSH1 0xB SLOAD PUSH3 0x99C SWAP2 SWAP1 PUSH3 0x4B4C JUMP JUMPDEST EQ PUSH3 0x9DF JUMPI PUSH1 0x40 MLOAD PUSH32 0x8C379A000000000000000000000000000000000000000000000000000000000 DUP2 MSTORE PUSH1 0x4 ADD PUSH3 0x9D6 SWAP1 PUSH3 0x47B4 JUMP JUMPDEST PUSH1 0x40 MLOAD DUP1 SWAP2 SUB SWAP1 REVERT JUMPDEST PUSH3 0xA21 PUSH1 0x3 PUSH1 0x40 MLOAD DUP1 PUSH1 0x40 ADD PUSH1 0x40 MSTORE DUP1 PUSH1 0x1A DUP2 MSTORE PUSH1 0x20 ADD PUSH32 0x426F756E74792073746174757320697320636F6D706C65746564000000000000 DUP2 MSTORE POP PUSH3 0x285D JUMP JUMPDEST PUSH3 0xA63 PUSH1 0x4 PUSH1 0x40 MLOAD DUP1 PUSH1 0x40 ADD PUSH1 0x40 MSTORE DUP1 PUSH1 0x18 DUP2 MSTORE PUSH1 0x20 ADD PUSH32 0x426F756E74792073746174757320697320657870697265640000000000000000 DUP2 MSTORE POP PUSH3 0x285D JUMP JUMPDEST PUSH3 0xABD PUSH1 0x4 PUSH1 0x0 SWAP1 SLOAD SWAP1 PUSH2 0x100 EXP SWAP1 DIV PUSH20 0xFFFFFFFFFFFFFFFFFFFFFFFFFFFFFFFFFFFFFFFF AND PUSH3 0xAB7 PUSH1 0x6 PUSH1 0x0 SWAP1 SLOAD SWAP1 PUSH2 0x100 EXP SWAP1 DIV PUSH20 0xFFFFFFFFFFFFFFFFFFFFFFFFFFFFFFFFFFFFFFFF AND PUSH3 0x28E4 JUMP JUMPDEST PUSH3 0x29D8 JUMP JUMPDEST PUSH3 0xAFF JUMPI PUSH1 0x40 MLOAD PUSH32 0x8C379A000000000000000000000000000000000000000000000000000000000 DUP2 MSTORE PUSH1 0x4 ADD PUSH3 0xAF6 SWAP1 PUSH3 0x4682 JUMP JUMPDEST PUSH1 0x40 MLOAD DUP1 SWAP2 SUB SWAP1 REVERT JUMPDEST PUSH1 0x3 PUSH1 0xE PUSH1 0x2 PUSH2 0x100 EXP DUP2 SLOAD DUP2 PUSH1 0xFF MUL NOT AND SWAP1 DUP4 PUSH1 0x4 DUP2 GT ISZERO PUSH3 0xB28 JUMPI PUSH3 0xB27 PUSH3 0x4E56 JUMP JUMPDEST JUMPDEST MUL OR SWAP1 SSTORE POP PUSH32 0xB0F771C4186611B76611E784EEE7D7399B853AA6CAE3DA4A8D5755CFEEAC9933 CALLER PUSH1 0xE PUSH1 0x2 SWAP1 SLOAD SWAP1 PUSH2 0x100 EXP SWAP1 DIV PUSH1 0xFF AND PUSH1 0x40 MLOAD PUSH3 0xB6F SWAP3 SWAP2 SWAP1 PUSH3 0x438D JUMP JUMPDEST PUSH1 0x40 MLOAD DUP1 SWAP2 SUB SWAP1 LOG1 JUMP JUMPDEST PUSH3 0xB83 PUSH3 0x2BED JUMP JUMPDEST PUSH1 0xE PUSH1 0x0 SWAP1 SLOAD SWAP1 PUSH2 0x100 EXP SWAP1 DIV PUSH1 0xFF AND ISZERO PUSH3 0xBD6 JUMPI PUSH1 0x40 MLOAD PUSH32 0x8C379A000000000000000000000000000000000000000000000000000000000 DUP2 MSTORE PUSH1 0x4 ADD PUSH3 0xBCD SWAP1 PUSH3 0x461C JUMP JUMPDEST PUSH1 0x40 MLOAD DUP1 SWAP2 SUB SWAP1 REVERT JUMPDEST PUSH3 0xBFC PUSH1 0x1 PUSH1 0x40 MLOAD DUP1 PUSH1 0x60 ADD PUSH1 0x40 MSTORE DUP1 PUSH1 0x22 DUP2 MSTORE PUSH1 0x20 ADD PUSH3 0x6FAF PUSH1 0x22 SWAP2 CODECOPY PUSH3 0x1AED JUMP JUMPDEST PUSH1 0xE PUSH1 0x1 SWAP1 SLOAD SWAP1 PUSH2 0x100 EXP SWAP1 DIV PUSH1 0xFF AND ISZERO PUSH3 0xC4F JUMPI PUSH1 0x40 MLOAD PUSH32 0x8C379A000000000000000000000000000000000000000000000000000000000 DUP2 MSTORE PUSH1 0x4 ADD PUSH3 0xC46 SWAP1 PUSH3 0x494C JUMP JUMPDEST PUSH1 0x40 MLOAD DUP1 SWAP2 SUB SWAP1 REVERT JUMPDEST PUSH1 0x1 PUSH1 0xE PUSH1 0x1 PUSH2 0x100 EXP DUP2 SLOAD DUP2 PUSH1 0xFF MUL NOT AND SWAP1 DUP4 ISZERO ISZERO MUL OR SWAP1 SSTORE POP PUSH3 0xC75 CALLER PUSH3 0x2C45 JUMP JUMPDEST PUSH1 0x1 PUSH1 0x0 SWAP1 SLOAD SWAP1 PUSH2 0x100 EXP SWAP1 DIV PUSH20 0xFFFFFFFFFFFFFFFFFFFFFFFFFFFFFFFFFFFFFFFF AND PUSH20 0xFFFFFFFFFFFFFFFFFFFFFFFFFFFFFFFFFFFFFFFF AND PUSH4 0xCB765D4D CALLER PUSH1 0x3 PUSH1 0x6 DUP2 GT ISZERO PUSH3 0xCCB JUMPI PUSH3 0xCCA PUSH3 0x4E56 JUMP JUMPDEST JUMPDEST PUSH1 0x40 MLOAD DUP4 PUSH4 0xFFFFFFFF AND PUSH1 0xE0 SHL DUP2 MSTORE PUSH1 0x4 ADD PUSH3 0xCEA SWAP3 SWAP2 SWAP1 PUSH3 0x4528 JUMP JUMPDEST PUSH1 0x0 PUSH1 0x40 MLOAD DUP1 DUP4 SUB DUP2 PUSH1 0x0 DUP8 DUP1 EXTCODESIZE ISZERO DUP1 ISZERO PUSH3 0xD05 JUMPI PUSH1 0x0 DUP1 REVERT JUMPDEST POP GAS CALL ISZERO DUP1 ISZERO PUSH3 0xD1A JUMPI RETURNDATASIZE PUSH1 0x0 DUP1 RETURNDATACOPY RETURNDATASIZE PUSH1 0x0 REVERT JUMPDEST POP POP POP POP PUSH1 0x0 PUSH1 0xE PUSH1 0x1 PUSH2 0x100 EXP DUP2 SLOAD DUP2 PUSH1 0xFF MUL NOT AND SWAP1 DUP4 ISZERO ISZERO MUL OR SWAP1 SSTORE POP JUMP JUMPDEST PUSH3 0xD45 PUSH3 0x27D8 JUMP JUMPDEST PUSH1 0x0 PUSH20 0xFFFFFFFFFFFFFFFFFFFFFFFFFFFFFFFFFFFFFFFF AND PUSH1 0x1 PUSH1 0x0 SWAP1 SLOAD SWAP1 PUSH2 0x100 EXP SWAP1 DIV PUSH20 0xFFFFFFFFFFFFFFFFFFFFFFFFFFFFFFFFFFFFFFFF AND PUSH20 0xFFFFFFFFFFFFFFFFFFFFFFFFFFFFFFFFFFFFFFFF AND EQ PUSH3 0xDD9 JUMPI PUSH1 0x40 MLOAD PUSH32 0x8C379A000000000000000000000000000000000000000000000000000000000 DUP2 MSTORE PUSH1 0x4 ADD PUSH3 0xDD0 SWAP1 PUSH3 0x4660 JUMP JUMPDEST PUSH1 0x40 MLOAD DUP1 SWAP2 SUB SWAP1 REVERT JUMPDEST PUSH1 0x40 MLOAD PUSH3 0xDE7 SWAP1 PUSH3 0x3758 JUMP JUMPDEST PUSH1 0x40 MLOAD DUP1 SWAP2 SUB SWAP1 PUSH1 0x0 CREATE DUP1 ISZERO DUP1 ISZERO PUSH3 0xE04 JUMPI RETURNDATASIZE PUSH1 0x0 DUP1 RETURNDATACOPY RETURNDATASIZE PUSH1 0x0 REVERT JUMPDEST POP PUSH1 0x1 PUSH1 0x0 PUSH2 0x100 EXP DUP2 SLOAD DUP2 PUSH20 0xFFFFFFFFFFFFFFFFFFFFFFFFFFFFFFFFFFFFFFFF MUL NOT AND SWAP1 DUP4 PUSH20 0xFFFFFFFFFFFFFFFFFFFFFFFFFFFFFFFFFFFFFFFF AND MUL OR SWAP1 SSTORE POP PUSH1 0x1 PUSH1 0x0 SWAP1 SLOAD SWAP1 PUSH2 0x100 EXP SWAP1 DIV PUSH20 0xFFFFFFFFFFFFFFFFFFFFFFFFFFFFFFFFFFFFFFFF AND PUSH1 0x6 PUSH1 0x0 PUSH2 0x100 EXP DUP2 SLOAD DUP2 PUSH20 0xFFFFFFFFFFFFFFFFFFFFFFFFFFFFFFFFFFFFFFFF MUL NOT AND SWAP1 DUP4 PUSH20 0xFFFFFFFFFFFFFFFFFFFFFFFFFFFFFFFFFFFFFFFF AND MUL OR SWAP1 SSTORE POP DUP1 PUSH1 0x7 PUSH1 0x0 DUP3 ADD MLOAD DUP2 PUSH1 0x0 ADD PUSH1 0x0 PUSH2 0x100 EXP DUP2 SLOAD DUP2 PUSH20 0xFFFFFFFFFFFFFFFFFFFFFFFFFFFFFFFFFFFFFFFF MUL NOT AND SWAP1 DUP4 PUSH20 0xFFFFFFFFFFFFFFFFFFFFFFFFFFFFFFFFFFFFFFFF AND MUL OR SWAP1 SSTORE POP PUSH1 0x20 DUP3 ADD MLOAD DUP2 PUSH1 0x0 ADD PUSH1 0x14 PUSH2 0x100 EXP DUP2 SLOAD DUP2 PUSH1 0xFF MUL NOT AND SWAP1 DUP4 ISZERO ISZERO MUL OR SWAP1 SSTORE POP PUSH1 0x40 DUP3 ADD MLOAD DUP2 PUSH1 0x1 ADD SSTORE PUSH1 0x60 DUP3 ADD MLOAD DUP2 PUSH1 0x2 ADD SSTORE PUSH1 0x80 DUP3 ADD MLOAD DUP2 PUSH1 0x3 ADD SSTORE SWAP1 POP POP PUSH3 0xF3D PUSH3 0x2E3F JUMP JUMPDEST PUSH1 0xE PUSH1 0x2 PUSH2 0x100 EXP DUP2 SLOAD DUP2 PUSH1 0xFF MUL NOT AND SWAP1 DUP4 PUSH1 0x4 DUP2 GT ISZERO PUSH3 0xF64 JUMPI PUSH3 0xF63 PUSH3 0x4E56 JUMP JUMPDEST JUMPDEST MUL OR SWAP1 SSTORE POP PUSH1 0x7 PUSH1 0x1 ADD SLOAD PUSH1 0xB DUP2 SWAP1 SSTORE POP PUSH1 0x0 PUSH1 0xE PUSH1 0x0 PUSH2 0x100 EXP DUP2 SLOAD DUP2 PUSH1 0xFF MUL NOT AND SWAP1 DUP4 ISZERO ISZERO MUL OR SWAP1 SSTORE POP PUSH1 0x0 PUSH1 0xD DUP2 SWAP1 SSTORE POP PUSH1 0x0 PUSH20 0xFFFFFFFFFFFFFFFFFFFFFFFFFFFFFFFFFFFFFFFF AND PUSH1 0x7 PUSH1 0x0 ADD PUSH1 0x0 SWAP1 SLOAD SWAP1 PUSH2 0x100 EXP SWAP1 DIV PUSH20 0xFFFFFFFFFFFFFFFFFFFFFFFFFFFFFFFFFFFFFFFF AND PUSH20 0xFFFFFFFFFFFFFFFFFFFFFFFFFFFFFFFFFFFFFFFF AND EQ ISZERO PUSH3 0x1017 JUMPI PUSH1 0x1 PUSH1 0x7 PUSH1 0x0 ADD PUSH1 0x14 PUSH2 0x100 EXP DUP2 SLOAD DUP2 PUSH1 0xFF MUL NOT AND SWAP1 DUP4 ISZERO ISZERO MUL OR SWAP1 SSTORE POP PUSH3 0x109C JUMP JUMPDEST PUSH1 0x0 PUSH1 0x7 PUSH1 0x0 ADD PUSH1 0x14 PUSH2 0x100 EXP DUP2 SLOAD DUP2 PUSH1 0xFF MUL NOT AND SWAP1 DUP4 ISZERO ISZERO MUL OR SWAP1 SSTORE POP PUSH1 0x7 PUSH1 0x0 ADD PUSH1 0x0 SWAP1 SLOAD SWAP1 PUSH2 0x100 EXP SWAP1 DIV PUSH20 0xFFFFFFFFFFFFFFFFFFFFFFFFFFFFFFFFFFFFFFFF AND PUSH1 0x2 PUSH1 0x0 PUSH2 0x100 EXP DUP2 SLOAD DUP2 PUSH20 0xFFFFFFFFFFFFFFFFFFFFFFFFFFFFFFFFFFFFFFFF MUL NOT AND SWAP1 DUP4 PUSH20 0xFFFFFFFFFFFFFFFFFFFFFFFFFFFFFFFFFFFFFFFF AND MUL OR SWAP1 SSTORE POP JUMPDEST PUSH32 0x813D49CE84071DDA2C63FCE419CCE1843E73C55512E307C889D031B57EDA73C7 PUSH3 0x10C7 PUSH3 0x151D JUMP JUMPDEST PUSH1 0x3 PUSH1 0x0 SWAP1 SLOAD SWAP1 PUSH2 0x100 EXP SWAP1 DIV PUSH20 0xFFFFFFFFFFFFFFFFFFFFFFFFFFFFFFFFFFFFFFFF AND PUSH1 0x4 PUSH1 0x0 SWAP1 SLOAD SWAP1 PUSH2 0x100 EXP SWAP1 DIV PUSH20 0xFFFFFFFFFFFFFFFFFFFFFFFFFFFFFFFFFFFFFFFF AND PUSH1 0x7 PUSH1 0x40 MLOAD PUSH3 0x1121 SWAP5 SWAP4 SWAP3 SWAP2 SWAP1 PUSH3 0x4312 JUMP JUMPDEST PUSH1 0x40 MLOAD DUP1 SWAP2 SUB SWAP1 LOG1 POP JUMP JUMPDEST PUSH3 0x1136 PUSH3 0x1A58 JUMP JUMPDEST PUSH3 0x115C PUSH1 0x2 PUSH1 0x40 MLOAD DUP1 PUSH1 0x60 ADD PUSH1 0x40 MSTORE DUP1 PUSH1 0x21 DUP2 MSTORE PUSH1 0x20 ADD PUSH3 0x6FD1 PUSH1 0x21 SWAP2 CODECOPY PUSH3 0x1AED JUMP JUMPDEST PUSH1 0x0 PUSH3 0x1169 DUP3 PUSH3 0x1B73 JUMP JUMPDEST POP POP SWAP2 POP POP DUP1 PUSH3 0x11B1 JUMPI PUSH1 0x40 MLOAD PUSH32 0x8C379A000000000000000000000000000000000000000000000000000000000 DUP2 MSTORE PUSH1 0x4 ADD PUSH3 0x11A8 SWAP1 PUSH3 0x45D8 JUMP JUMPDEST PUSH1 0x40 MLOAD DUP1 SWAP2 SUB SWAP1 REVERT JUMPDEST PUSH1 0x1 PUSH1 0x0 SWAP1 SLOAD SWAP1 PUSH2 0x100 EXP SWAP1 DIV PUSH20 0xFFFFFFFFFFFFFFFFFFFFFFFFFFFFFFFFFFFFFFFF AND PUSH20 0xFFFFFFFFFFFFFFFFFFFFFFFFFFFFFFFFFFFFFFFF AND PUSH4 0xCB765D4D DUP4 PUSH1 0x6 DUP1 DUP2 GT ISZERO PUSH3 0x1206 JUMPI PUSH3 0x1205 PUSH3 0x4E56 JUMP JUMPDEST JUMPDEST PUSH1 0x40 MLOAD DUP4 PUSH4 0xFFFFFFFF AND PUSH1 0xE0 SHL DUP2 MSTORE PUSH1 0x4 ADD PUSH3 0x1225 SWAP3 SWAP2 SWAP1 PUSH3 0x4528 JUMP JUMPDEST PUSH1 0x0 PUSH1 0x40 MLOAD DUP1 DUP4 SUB DUP2 PUSH1 0x0 DUP8 DUP1 EXTCODESIZE ISZERO DUP1 ISZERO PUSH3 0x1240 JUMPI PUSH1 0x0 DUP1 REVERT JUMPDEST POP GAS CALL ISZERO DUP1 ISZERO PUSH3 0x1255 JUMPI RETURNDATASIZE PUSH1 0x0 DUP1 RETURNDATACOPY RETURNDATASIZE PUSH1 0x0 REVERT JUMPDEST POP POP POP POP PUSH1 0x1 PUSH1 0x0 SWAP1 SLOAD SWAP1 PUSH2 0x100 EXP SWAP1 DIV PUSH20 0xFFFFFFFFFFFFFFFFFFFFFFFFFFFFFFFFFFFFFFFF AND PUSH20 0xFFFFFFFFFFFFFFFFFFFFFFFFFFFFFFFFFFFFFFFF AND PUSH4 0xE2F88C1F DUP4 PUSH1 0x0 PUSH1 0x40 MLOAD DUP4 PUSH4 0xFFFFFFFF AND PUSH1 0xE0 SHL DUP2 MSTORE PUSH1 0x4 ADD PUSH3 0x12B9 SWAP3 SWAP2 SWAP1 PUSH3 0x4360 JUMP JUMPDEST PUSH1 0x0 PUSH1 0x40 MLOAD DUP1 DUP4 SUB DUP2 PUSH1 0x0 DUP8 DUP1 EXTCODESIZE ISZERO DUP1 ISZERO PUSH3 0x12D4 JUMPI PUSH1 0x0 DUP1 REVERT JUMPDEST POP GAS CALL ISZERO DUP1 ISZERO PUSH3 0x12E9 JUMPI RETURNDATASIZE PUSH1 0x0 DUP1 RETURNDATACOPY RETURNDATASIZE PUSH1 0x0 REVERT JUMPDEST POP POP POP POP PUSH32 0xB0A24D625A3D04A04108C98B7722DB25E9435210D27050369082689178D4F1DB CALLER DUP4 PUSH1 0x40 MLOAD PUSH3 0x1320 SWAP3 SWAP2 SWAP1 PUSH3 0x42A8 JUMP JUMPDEST PUSH1 0x40 MLOAD DUP1 SWAP2 SUB SWAP1 LOG1 POP POP JUMP JUMPDEST PUSH3 0x1336 PUSH3 0x27D8 JUMP JUMPDEST JUMP JUMPDEST PUSH3 0x1343 CALLER PUSH3 0x2E61 JUMP JUMPDEST PUSH3 0x1369 PUSH1 0x2 PUSH1 0x40 MLOAD DUP1 PUSH1 0x60 ADD PUSH1 0x40 MSTORE DUP1 PUSH1 0x21 DUP2 MSTORE PUSH1 0x20 ADD PUSH3 0x6FD1 PUSH1 0x21 SWAP2 CODECOPY PUSH3 0x1AED JUMP JUMPDEST PUSH3 0x1373 PUSH3 0x2041 JUMP JUMPDEST PUSH32 0xE2E42D676937B0633826EADCAF74807CA1F18C2174C6632EA6E044874385FD68 CALLER PUSH1 0xD SLOAD PUSH1 0x40 MLOAD PUSH3 0x13A8 SWAP3 SWAP2 SWAP1 PUSH3 0x43E7 JUMP JUMPDEST PUSH1 0x40 MLOAD DUP1 SWAP2 SUB SWAP1 LOG1 JUMP JUMPDEST PUSH3 0x13BC PUSH3 0x1A58 JUMP JUMPDEST PUSH1 0xE PUSH1 0x0 SWAP1 SLOAD SWAP1 PUSH2 0x100 EXP SWAP1 DIV PUSH1 0xFF AND ISZERO PUSH3 0x140F JUMPI PUSH1 0x40 MLOAD PUSH32 0x8C379A000000000000000000000000000000000000000000000000000000000 DUP2 MSTORE PUSH1 0x4 ADD PUSH3 0x1406 SWAP1 PUSH3 0x461C JUMP JUMPDEST PUSH1 0x40 MLOAD DUP1 SWAP2 SUB SWAP1 REVERT JUMPDEST PUSH1 0x0 PUSH1 0xC SLOAD PUSH1 0xB SLOAD PUSH3 0x1423 SWAP2 SWAP1 PUSH3 0x4B4C JUMP JUMPDEST GT PUSH3 0x1466 JUMPI PUSH1 0x40 MLOAD PUSH32 0x8C379A000000000000000000000000000000000000000000000000000000000 DUP2 MSTORE PUSH1 0x4 ADD PUSH3 0x145D SWAP1 PUSH3 0x4908 JUMP JUMPDEST PUSH1 0x40 MLOAD DUP1 SWAP2 SUB SWAP1 REVERT JUMPDEST PUSH3 0x1470 PUSH3 0x2F90 JUMP JUMPDEST JUMP JUMPDEST PUSH3 0x147C PUSH3 0x3766 JUMP JUMPDEST PUSH1 0x7 PUSH1 0x40 MLOAD DUP1 PUSH1 0xA0 ADD PUSH1 0x40 MSTORE SWAP1 DUP2 PUSH1 0x0 DUP3 ADD PUSH1 0x0 SWAP1 SLOAD SWAP1 PUSH2 0x100 EXP SWAP1 DIV PUSH20 0xFFFFFFFFFFFFFFFFFFFFFFFFFFFFFFFFFFFFFFFF AND PUSH20 0xFFFFFFFFFFFFFFFFFFFFFFFFFFFFFFFFFFFFFFFF AND PUSH20 0xFFFFFFFFFFFFFFFFFFFFFFFFFFFFFFFFFFFFFFFF AND DUP2 MSTORE PUSH1 0x20 ADD PUSH1 0x0 DUP3 ADD PUSH1 0x14 SWAP1 SLOAD SWAP1 PUSH2 0x100 EXP SWAP1 DIV PUSH1 0xFF AND ISZERO ISZERO ISZERO ISZERO DUP2 MSTORE PUSH1 0x20 ADD PUSH1 0x1 DUP3 ADD SLOAD DUP2 MSTORE PUSH1 0x20 ADD PUSH1 0x2 DUP3 ADD SLOAD DUP2 MSTORE PUSH1 0x20 ADD PUSH1 0x3 DUP3 ADD SLOAD DUP2 MSTORE POP POP SWAP1 POP SWAP1 JUMP JUMPDEST PUSH1 0x0 DUP1 PUSH1 0x0 SWAP1 SLOAD SWAP1 PUSH2 0x100 EXP SWAP1 DIV PUSH20 0xFFFFFFFFFFFFFFFFFFFFFFFFFFFFFFFFFFFFFFFF AND SWAP1 POP SWAP1 JUMP JUMPDEST PUSH3 0x1551 CALLER PUSH3 0x2FA6 JUMP JUMPDEST PUSH1 0xE PUSH1 0x0 SWAP1 SLOAD SWAP1 PUSH2 0x100 EXP SWAP1 DIV PUSH1 0xFF AND PUSH3 0x15A3 JUMPI PUSH1 0x40 MLOAD PUSH32 0x8C379A000000000000000000000000000000000000000000000000000000000 DUP2 MSTORE PUSH1 0x4 ADD PUSH3 0x159A SWAP1 PUSH3 0x48E6 JUMP JUMPDEST PUSH1 0x40 MLOAD DUP1 SWAP2 SUB SWAP1 REVERT JUMPDEST PUSH1 0x0 PUSH1 0xE PUSH1 0x0 PUSH2 0x100 EXP DUP2 SLOAD DUP2 PUSH1 0xFF MUL NOT AND SWAP1 DUP4 ISZERO ISZERO MUL OR SWAP1 SSTORE POP PUSH32 0xBE774851955C26A1D6A32B13B020663A069006B4A3B643FF0B809D318260572 CALLER PUSH1 0x40 MLOAD PUSH3 0x15EF SWAP2 SWAP1 PUSH3 0x425E JUMP JUMPDEST PUSH1 0x40 MLOAD DUP1 SWAP2 SUB SWAP1 LOG1 JUMP JUMPDEST PUSH3 0x1603 PUSH3 0x1A58 JUMP JUMPDEST PUSH3 0x1629 PUSH1 0x1 PUSH1 0x40 MLOAD DUP1 PUSH1 0x60 ADD PUSH1 0x40 MSTORE DUP1 PUSH1 0x22 DUP2 MSTORE PUSH1 0x20 ADD PUSH3 0x6FAF PUSH1 0x22 SWAP2 CODECOPY PUSH3 0x1AED JUMP JUMPDEST PUSH1 0x0 DUP2 GT PUSH3 0x166F JUMPI PUSH1 0x40 MLOAD PUSH32 0x8C379A000000000000000000000000000000000000000000000000000000000 DUP2 MSTORE PUSH1 0x4 ADD PUSH3 0x1666 SWAP1 PUSH3 0x4908 JUMP JUMPDEST PUSH1 0x40 MLOAD DUP1 SWAP2 SUB SWAP1 REVERT JUMPDEST PUSH3 0x167A DUP2 PUSH3 0x22EF JUMP JUMPDEST PUSH3 0x1691 DUP2 PUSH1 0xB SLOAD PUSH3 0x27C0 SWAP1 SWAP2 SWAP1 PUSH4 0xFFFFFFFF AND JUMP JUMPDEST PUSH1 0xB DUP2 SWAP1 SSTORE POP PUSH32 0x90890809C654F11D6E72A28FA60149770A0D11EC6C92319D6CEB2BB0A4EA1A15 CALLER DUP3 PUSH1 0xB SLOAD PUSH1 0x40 MLOAD PUSH3 0x16CE SWAP4 SWAP3 SWAP2 SWAP1 PUSH3 0x4461 JUMP JUMPDEST PUSH1 0x40 MLOAD DUP1 SWAP2 SUB SWAP1 LOG1 POP JUMP JUMPDEST PUSH1 0x0 DUP1 PUSH1 0x0 DUP1 PUSH1 0x0 DUP1 PUSH1 0x0 DUP1 PUSH1 0x0 DUP1 PUSH1 0x0 DUP1 PUSH1 0x0 DUP1 PUSH3 0x16F8 PUSH3 0x187C JUMP JUMPDEST SWAP3 POP SWAP3 POP SWAP3 POP PUSH1 0x0 PUSH1 0x1 PUSH1 0x0 SWAP1 SLOAD SWAP1 PUSH2 0x100 EXP SWAP1 DIV PUSH20 0xFFFFFFFFFFFFFFFFFFFFFFFFFFFFFFFFFFFFFFFF AND PUSH20 0xFFFFFFFFFFFFFFFFFFFFFFFFFFFFFFFFFFFFFFFF AND PUSH4 0xFDF5963A PUSH1 0x40 MLOAD DUP2 PUSH4 0xFFFFFFFF AND PUSH1 0xE0 SHL DUP2 MSTORE PUSH1 0x4 ADD PUSH1 0x0 PUSH1 0x40 MLOAD DUP1 DUP4 SUB DUP2 DUP7 DUP1 EXTCODESIZE ISZERO DUP1 ISZERO PUSH3 0x1769 JUMPI PUSH1 0x0 DUP1 REVERT JUMPDEST POP GAS STATICCALL ISZERO DUP1 ISZERO PUSH3 0x177E JUMPI RETURNDATASIZE PUSH1 0x0 DUP1 RETURNDATACOPY RETURNDATASIZE PUSH1 0x0 REVERT JUMPDEST POP POP POP POP PUSH1 0x40 MLOAD RETURNDATASIZE PUSH1 0x0 DUP3 RETURNDATACOPY RETURNDATASIZE PUSH1 0x1F NOT PUSH1 0x1F DUP3 ADD AND DUP3 ADD DUP1 PUSH1 0x40 MSTORE POP DUP2 ADD SWAP1 PUSH3 0x17A9 SWAP2 SWAP1 PUSH3 0x3A12 JUMP JUMPDEST SWAP1 POP PUSH1 0xE PUSH1 0x2 SWAP1 SLOAD SWAP1 PUSH2 0x100 EXP SWAP1 DIV PUSH1 0xFF AND PUSH1 0x4 DUP2 GT ISZERO PUSH3 0x17D0 JUMPI PUSH3 0x17CF PUSH3 0x4E56 JUMP JUMPDEST JUMPDEST DUP2 MLOAD PUSH3 0x17FF PUSH1 0x6 PUSH1 0x0 SWAP1 SLOAD SWAP1 PUSH2 0x100 EXP SWAP1 DIV PUSH20 0xFFFFFFFFFFFFFFFFFFFFFFFFFFFFFFFFFFFFFFFF AND PUSH3 0x28E4 JUMP JUMPDEST PUSH1 0xB SLOAD PUSH1 0xC SLOAD PUSH1 0x7 PUSH1 0x2 ADD SLOAD PUSH1 0xE PUSH1 0x0 SWAP1 SLOAD SWAP1 PUSH2 0x100 EXP SWAP1 DIV PUSH1 0xFF AND PUSH1 0xD SLOAD DUP12 DUP12 DUP12 SWAP15 POP SWAP15 POP SWAP15 POP SWAP15 POP SWAP15 POP SWAP15 POP SWAP15 POP SWAP15 POP SWAP15 POP SWAP15 POP SWAP15 POP POP POP POP POP SWAP1 SWAP2 SWAP3 SWAP4 SWAP5 SWAP6 SWAP7 SWAP8 SWAP9 SWAP10 SWAP11 JUMP JUMPDEST PUSH1 0x0 PUSH3 0x1854 PUSH3 0x27D8 JUMP JUMPDEST PUSH1 0x1 PUSH1 0x0 SWAP1 SLOAD SWAP1 PUSH2 0x100 EXP SWAP1 DIV PUSH20 0xFFFFFFFFFFFFFFFFFFFFFFFFFFFFFFFFFFFFFFFF AND SWAP1 POP SWAP1 JUMP JUMPDEST PUSH1 0x0 DUP1 PUSH1 0x0 PUSH3 0x188C CALLER PUSH3 0x3154 JUMP JUMPDEST SWAP3 POP SWAP3 POP SWAP3 POP SWAP1 SWAP2 SWAP3 JUMP JUMPDEST PUSH3 0x18A1 PUSH3 0x27D8 JUMP JUMPDEST PUSH1 0x0 PUSH20 0xFFFFFFFFFFFFFFFFFFFFFFFFFFFFFFFFFFFFFFFF AND DUP2 PUSH20 0xFFFFFFFFFFFFFFFFFFFFFFFFFFFFFFFFFFFFFFFF AND EQ ISZERO PUSH3 0x1914 JUMPI PUSH1 0x40 MLOAD PUSH32 0x8C379A000000000000000000000000000000000000000000000000000000000 DUP2 MSTORE PUSH1 0x4 ADD PUSH3 0x190B SWAP1 PUSH3 0x463E JUMP JUMPDEST PUSH1 0x40 MLOAD DUP1 SWAP2 SUB SWAP1 REVERT JUMPDEST PUSH3 0x191F DUP2 PUSH3 0x3239 JUMP JUMPDEST POP JUMP JUMPDEST PUSH1 0x0 PUSH3 0x192E PUSH3 0x27D8 JUMP JUMPDEST PUSH1 0x6 PUSH1 0x0 SWAP1 SLOAD SWAP1 PUSH2 0x100 EXP SWAP1 DIV PUSH20 0xFFFFFFFFFFFFFFFFFFFFFFFFFFFFFFFFFFFFFFFF AND SWAP1 POP SWAP1 JUMP JUMPDEST PUSH3 0x1960 PUSH3 0x27D8 JUMP JUMPDEST DUP1 PUSH1 0x1 PUSH1 0x0 PUSH2 0x100 EXP DUP2 SLOAD DUP2 PUSH20 0xFFFFFFFFFFFFFFFFFFFFFFFFFFFFFFFFFFFFFFFF MUL NOT AND SWAP1 DUP4 PUSH20 0xFFFFFFFFFFFFFFFFFFFFFFFFFFFFFFFFFFFFFFFF AND MUL OR SWAP1 SSTORE POP POP JUMP JUMPDEST PUSH3 0x19AF CALLER PUSH3 0x2E61 JUMP JUMPDEST PUSH1 0xE PUSH1 0x0 SWAP1 SLOAD SWAP1 PUSH2 0x100 EXP SWAP1 DIV PUSH1 0xFF AND ISZERO PUSH3 0x1A02 JUMPI PUSH1 0x40 MLOAD PUSH32 0x8C379A000000000000000000000000000000000000000000000000000000000 DUP2 MSTORE PUSH1 0x4 ADD PUSH3 0x19F9 SWAP1 PUSH3 0x461C JUMP JUMPDEST PUSH1 0x40 MLOAD DUP1 SWAP2 SUB SWAP1 REVERT JUMPDEST PUSH1 0x1 PUSH1 0xE PUSH1 0x0 PUSH2 0x100 EXP DUP2 SLOAD DUP2 PUSH1 0xFF MUL NOT AND SWAP1 DUP4 ISZERO ISZERO MUL OR SWAP1 SSTORE POP PUSH32 0xC1B5F12CEA7C200AD495A43BF2D4C7BA1A753343C06C339093937849DE84D913 CALLER PUSH1 0x40 MLOAD PUSH3 0x1A4E SWAP2 SWAP1 PUSH3 0x425E JUMP JUMPDEST PUSH1 0x40 MLOAD DUP1 SWAP2 SUB SWAP1 LOG1 JUMP JUMPDEST PUSH1 0x4 PUSH1 0x0 SWAP1 SLOAD SWAP1 PUSH2 0x100 EXP SWAP1 DIV PUSH20 0xFFFFFFFFFFFFFFFFFFFFFFFFFFFFFFFFFFFFFFFF AND PUSH20 0xFFFFFFFFFFFFFFFFFFFFFFFFFFFFFFFFFFFFFFFF AND CALLER PUSH20 0xFFFFFFFFFFFFFFFFFFFFFFFFFFFFFFFFFFFFFFFF AND EQ PUSH3 0x1AEB JUMPI PUSH1 0x40 MLOAD PUSH32 0x8C379A000000000000000000000000000000000000000000000000000000000 DUP2 MSTORE PUSH1 0x4 ADD PUSH3 0x1AE2 SWAP1 PUSH3 0x4770 JUMP JUMPDEST PUSH1 0x40 MLOAD DUP1 SWAP2 SUB SWAP1 REVERT JUMPDEST JUMP JUMPDEST DUP2 PUSH1 0x4 DUP2 GT ISZERO PUSH3 0x1B03 JUMPI PUSH3 0x1B02 PUSH3 0x4E56 JUMP JUMPDEST JUMPDEST PUSH1 0xE PUSH1 0x2 SWAP1 SLOAD SWAP1 PUSH2 0x100 EXP SWAP1 DIV PUSH1 0xFF AND PUSH1 0x4 DUP2 GT ISZERO PUSH3 0x1B28 JUMPI PUSH3 0x1B27 PUSH3 0x4E56 JUMP JUMPDEST JUMPDEST EQ DUP2 SWAP1 PUSH3 0x1B6E JUMPI PUSH1 0x40 MLOAD PUSH32 0x8C379A000000000000000000000000000000000000000000000000000000000 DUP2 MSTORE PUSH1 0x4 ADD PUSH3 0x1B65 SWAP2 SWAP1 PUSH3 0x4592 JUMP JUMPDEST PUSH1 0x40 MLOAD DUP1 SWAP2 SUB SWAP1 REVERT JUMPDEST POP POP POP JUMP JUMPDEST PUSH1 0x0 DUP1 PUSH1 0x0 DUP1 PUSH1 0x0 DUP1 PUSH1 0x0 PUSH3 0x1B89 DUP9 PUSH3 0x32FD JUMP JUMPDEST SWAP3 POP SWAP3 POP SWAP3 POP DUP3 SWAP7 POP PUSH1 0x0 SWAP6 POP PUSH1 0x0 SWAP5 POP DUP7 ISZERO PUSH3 0x1BFC JUMPI PUSH1 0x5 PUSH1 0x6 DUP2 GT ISZERO PUSH3 0x1BB8 JUMPI PUSH3 0x1BB7 PUSH3 0x4E56 JUMP JUMPDEST JUMPDEST PUSH1 0xFF AND DUP2 PUSH1 0xFF AND EQ ISZERO PUSH3 0x1BD0 JUMPI PUSH1 0x1 SWAP6 POP PUSH3 0x1BFB JUMP JUMPDEST PUSH1 0x1 PUSH1 0x6 DUP2 GT ISZERO PUSH3 0x1BE7 JUMPI PUSH3 0x1BE6 PUSH3 0x4E56 JUMP JUMPDEST JUMPDEST PUSH1 0xFF AND DUP2 PUSH1 0xFF AND EQ ISZERO PUSH3 0x1BFA JUMPI PUSH1 0x1 SWAP5 POP JUMPDEST JUMPDEST JUMPDEST DUP2 SWAP4 POP POP POP POP SWAP2 SWAP4 POP SWAP2 SWAP4 JUMP JUMPDEST PUSH1 0x0 PUSH1 0x1 PUSH1 0x0 SWAP1 SLOAD SWAP1 PUSH2 0x100 EXP SWAP1 DIV PUSH20 0xFFFFFFFFFFFFFFFFFFFFFFFFFFFFFFFFFFFFFFFF AND PUSH20 0xFFFFFFFFFFFFFFFFFFFFFFFFFFFFFFFFFFFFFFFF AND PUSH4 0xFDF5963A PUSH1 0x40 MLOAD DUP2 PUSH4 0xFFFFFFFF AND PUSH1 0xE0 SHL DUP2 MSTORE PUSH1 0x4 ADD PUSH1 0x0 PUSH1 0x40 MLOAD DUP1 DUP4 SUB DUP2 DUP7 DUP1 EXTCODESIZE ISZERO DUP1 ISZERO PUSH3 0x1C74 JUMPI PUSH1 0x0 DUP1 REVERT JUMPDEST POP GAS STATICCALL ISZERO DUP1 ISZERO PUSH3 0x1C89 JUMPI RETURNDATASIZE PUSH1 0x0 DUP1 RETURNDATACOPY RETURNDATASIZE PUSH1 0x0 REVERT JUMPDEST POP POP POP POP PUSH1 0x40 MLOAD RETURNDATASIZE PUSH1 0x0 DUP3 RETURNDATACOPY RETURNDATASIZE PUSH1 0x1F NOT PUSH1 0x1F DUP3 ADD AND DUP3 ADD DUP1 PUSH1 0x40 MSTORE POP DUP2 ADD SWAP1 PUSH3 0x1CB4 SWAP2 SWAP1 PUSH3 0x3A12 JUMP JUMPDEST SWAP1 POP PUSH1 0x0 JUMPDEST DUP2 MLOAD DUP2 LT ISZERO PUSH3 0x1E19 JUMPI DUP3 PUSH20 0xFFFFFFFFFFFFFFFFFFFFFFFFFFFFFFFFFFFFFFFF AND DUP3 DUP3 DUP2 MLOAD DUP2 LT PUSH3 0x1CF0 JUMPI PUSH3 0x1CEF PUSH3 0x4E85 JUMP JUMPDEST JUMPDEST PUSH1 0x20 MUL PUSH1 0x20 ADD ADD MLOAD PUSH20 0xFFFFFFFFFFFFFFFFFFFFFFFFFFFFFFFFFFFFFFFF AND EQ PUSH3 0x1E03 JUMPI PUSH3 0x1D3C DUP3 DUP3 DUP2 MLOAD DUP2 LT PUSH3 0x1D2E JUMPI PUSH3 0x1D2D PUSH3 0x4E85 JUMP JUMPDEST JUMPDEST PUSH1 0x20 MUL PUSH1 0x20 ADD ADD MLOAD PUSH3 0x2C45 JUMP JUMPDEST PUSH1 0x1 PUSH1 0x0 SWAP1 SLOAD SWAP1 PUSH2 0x100 EXP SWAP1 DIV PUSH20 0xFFFFFFFFFFFFFFFFFFFFFFFFFFFFFFFFFFFFFFFF AND PUSH20 0xFFFFFFFFFFFFFFFFFFFFFFFFFFFFFFFFFFFFFFFF AND PUSH4 0xCB765D4D DUP4 DUP4 DUP2 MLOAD DUP2 LT PUSH3 0x1D90 JUMPI PUSH3 0x1D8F PUSH3 0x4E85 JUMP JUMPDEST JUMPDEST PUSH1 0x20 MUL PUSH1 0x20 ADD ADD MLOAD PUSH1 0x4 PUSH1 0x6 DUP2 GT ISZERO PUSH3 0x1DAF JUMPI PUSH3 0x1DAE PUSH3 0x4E56 JUMP JUMPDEST JUMPDEST PUSH1 0x40 MLOAD DUP4 PUSH4 0xFFFFFFFF AND PUSH1 0xE0 SHL DUP2 MSTORE PUSH1 0x4 ADD PUSH3 0x1DCE SWAP3 SWAP2 SWAP1 PUSH3 0x4528 JUMP JUMPDEST PUSH1 0x0 PUSH1 0x40 MLOAD DUP1 DUP4 SUB DUP2 PUSH1 0x0 DUP8 DUP1 EXTCODESIZE ISZERO DUP1 ISZERO PUSH3 0x1DE9 JUMPI PUSH1 0x0 DUP1 REVERT JUMPDEST POP GAS CALL ISZERO DUP1 ISZERO PUSH3 0x1DFE JUMPI RETURNDATASIZE PUSH1 0x0 DUP1 RETURNDATACOPY RETURNDATASIZE PUSH1 0x0 REVERT JUMPDEST POP POP POP POP JUMPDEST DUP1 DUP1 PUSH3 0x1E10 SWAP1 PUSH3 0x4DD9 JUMP JUMPDEST SWAP2 POP POP PUSH3 0x1CB9 JUMP JUMPDEST POP POP POP JUMP JUMPDEST PUSH1 0x0 PUSH3 0x1E2B DUP5 PUSH3 0x32FD JUMP JUMPDEST POP POP SWAP1 POP DUP1 PUSH3 0x1EC7 JUMPI PUSH1 0x1 PUSH1 0x0 SWAP1 SLOAD SWAP1 PUSH2 0x100 EXP SWAP1 DIV PUSH20 0xFFFFFFFFFFFFFFFFFFFFFFFFFFFFFFFFFFFFFFFF AND PUSH20 0xFFFFFFFFFFFFFFFFFFFFFFFFFFFFFFFFFFFFFFFF AND PUSH4 0xA2321AA1 DUP6 PUSH1 0x40 MLOAD DUP3 PUSH4 0xFFFFFFFF AND PUSH1 0xE0 SHL DUP2 MSTORE PUSH1 0x4 ADD PUSH3 0x1E92 SWAP2 SWAP1 PUSH3 0x425E JUMP JUMPDEST PUSH1 0x0 PUSH1 0x40 MLOAD DUP1 DUP4 SUB DUP2 PUSH1 0x0 DUP8 DUP1 EXTCODESIZE ISZERO DUP1 ISZERO PUSH3 0x1EAD JUMPI PUSH1 0x0 DUP1 REVERT JUMPDEST POP GAS CALL ISZERO DUP1 ISZERO PUSH3 0x1EC2 JUMPI RETURNDATASIZE PUSH1 0x0 DUP1 RETURNDATACOPY RETURNDATASIZE PUSH1 0x0 REVERT JUMPDEST POP POP POP POP JUMPDEST PUSH1 0x0 PUSH1 0x1 PUSH1 0x0 SWAP1 SLOAD SWAP1 PUSH2 0x100 EXP SWAP1 DIV PUSH20 0xFFFFFFFFFFFFFFFFFFFFFFFFFFFFFFFFFFFFFFFF AND PUSH20 0xFFFFFFFFFFFFFFFFFFFFFFFFFFFFFFFFFFFFFFFF AND PUSH4 0x3B8E1BF5 DUP7 PUSH1 0x40 MLOAD DUP3 PUSH4 0xFFFFFFFF AND PUSH1 0xE0 SHL DUP2 MSTORE PUSH1 0x4 ADD PUSH3 0x1F26 SWAP2 SWAP1 PUSH3 0x425E JUMP JUMPDEST PUSH1 0x40 DUP1 MLOAD DUP1 DUP4 SUB DUP2 DUP7 DUP1 EXTCODESIZE ISZERO DUP1 ISZERO PUSH3 0x1F3E JUMPI PUSH1 0x0 DUP1 REVERT JUMPDEST POP GAS STATICCALL ISZERO DUP1 ISZERO PUSH3 0x1F53 JUMPI RETURNDATASIZE PUSH1 0x0 DUP1 RETURNDATACOPY RETURNDATASIZE PUSH1 0x0 REVERT JUMPDEST POP POP POP POP PUSH1 0x40 MLOAD RETURNDATASIZE PUSH1 0x1F NOT PUSH1 0x1F DUP3 ADD AND DUP3 ADD DUP1 PUSH1 0x40 MSTORE POP DUP2 ADD SWAP1 PUSH3 0x1F79 SWAP2 SWAP1 PUSH3 0x3B2B JUMP JUMPDEST POP SWAP1 POP PUSH1 0x1 PUSH1 0x0 SWAP1 SLOAD SWAP1 PUSH2 0x100 EXP SWAP1 DIV PUSH20 0xFFFFFFFFFFFFFFFFFFFFFFFFFFFFFFFFFFFFFFFF AND PUSH20 0xFFFFFFFFFFFFFFFFFFFFFFFFFFFFFFFFFFFFFFFF AND PUSH4 0x20D529A6 DUP7 PUSH3 0x1FD0 DUP8 DUP6 PUSH3 0x27C0 SWAP1 SWAP2 SWAP1 PUSH4 0xFFFFFFFF AND JUMP JUMPDEST DUP7 PUSH1 0x6 DUP2 GT ISZERO PUSH3 0x1FE6 JUMPI PUSH3 0x1FE5 PUSH3 0x4E56 JUMP JUMPDEST JUMPDEST PUSH1 0x40 MLOAD DUP5 PUSH4 0xFFFFFFFF AND PUSH1 0xE0 SHL DUP2 MSTORE PUSH1 0x4 ADD PUSH3 0x2006 SWAP4 SWAP3 SWAP2 SWAP1 PUSH3 0x44EB JUMP JUMPDEST PUSH1 0x0 PUSH1 0x40 MLOAD DUP1 DUP4 SUB DUP2 PUSH1 0x0 DUP8 DUP1 EXTCODESIZE ISZERO DUP1 ISZERO PUSH3 0x2021 JUMPI PUSH1 0x0 DUP1 REVERT JUMPDEST POP GAS CALL ISZERO DUP1 ISZERO PUSH3 0x2036 JUMPI RETURNDATASIZE PUSH1 0x0 DUP1 RETURNDATACOPY RETURNDATASIZE PUSH1 0x0 REVERT JUMPDEST POP POP POP POP POP POP POP POP POP JUMP JUMPDEST PUSH3 0x69780 TIMESTAMP PUSH3 0x2052 SWAP2 SWAP1 PUSH3 0x4B4C JUMP JUMPDEST PUSH1 0xD DUP2 SWAP1 SSTORE POP JUMP JUMPDEST PUSH1 0x3 PUSH1 0x0 SWAP1 SLOAD SWAP1 PUSH2 0x100 EXP SWAP1 DIV PUSH20 0xFFFFFFFFFFFFFFFFFFFFFFFFFFFFFFFFFFFFFFFF AND PUSH20 0xFFFFFFFFFFFFFFFFFFFFFFFFFFFFFFFFFFFFFFFF AND CALLER PUSH20 0xFFFFFFFFFFFFFFFFFFFFFFFFFFFFFFFFFFFFFFFF AND EQ ISZERO PUSH3 0x20EE JUMPI PUSH1 0x40 MLOAD PUSH32 0x8C379A000000000000000000000000000000000000000000000000000000000 DUP2 MSTORE PUSH1 0x4 ADD PUSH3 0x20E5 SWAP1 PUSH3 0x481A JUMP JUMPDEST PUSH1 0x40 MLOAD DUP1 SWAP2 SUB SWAP1 REVERT JUMPDEST PUSH1 0x4 PUSH1 0x0 SWAP1 SLOAD SWAP1 PUSH2 0x100 EXP SWAP1 DIV PUSH20 0xFFFFFFFFFFFFFFFFFFFFFFFFFFFFFFFFFFFFFFFF AND PUSH20 0xFFFFFFFFFFFFFFFFFFFFFFFFFFFFFFFFFFFFFFFF AND CALLER PUSH20 0xFFFFFFFFFFFFFFFFFFFFFFFFFFFFFFFFFFFFFFFF AND EQ ISZERO PUSH3 0x2182 JUMPI PUSH1 0x40 MLOAD PUSH32 0x8C379A000000000000000000000000000000000000000000000000000000000 DUP2 MSTORE PUSH1 0x4 ADD PUSH3 0x2179 SWAP1 PUSH3 0x496E JUMP JUMPDEST PUSH1 0x40 MLOAD DUP1 SWAP2 SUB SWAP1 REVERT JUMPDEST PUSH1 0x5 PUSH1 0x0 SWAP1 SLOAD SWAP1 PUSH2 0x100 EXP SWAP1 DIV PUSH20 0xFFFFFFFFFFFFFFFFFFFFFFFFFFFFFFFFFFFFFFFF AND PUSH20 0xFFFFFFFFFFFFFFFFFFFFFFFFFFFFFFFFFFFFFFFF AND CALLER PUSH20 0xFFFFFFFFFFFFFFFFFFFFFFFFFFFFFFFFFFFFFFFF AND EQ ISZERO PUSH3 0x2216 JUMPI PUSH1 0x40 MLOAD PUSH32 0x8C379A000000000000000000000000000000000000000000000000000000000 DUP2 MSTORE PUSH1 0x4 ADD PUSH3 0x220D SWAP1 PUSH3 0x485E JUMP JUMPDEST PUSH1 0x40 MLOAD DUP1 SWAP2 SUB SWAP1 REVERT JUMPDEST PUSH1 0x0 DUP1 PUSH3 0x2224 CALLER PUSH3 0x32FD JUMP JUMPDEST SWAP3 POP POP SWAP2 POP DUP2 ISZERO DUP1 PUSH3 0x225C JUMPI POP DUP2 DUP1 ISZERO PUSH3 0x225B JUMPI POP PUSH1 0x3 PUSH1 0x6 DUP2 GT ISZERO PUSH3 0x2252 JUMPI PUSH3 0x2251 PUSH3 0x4E56 JUMP JUMPDEST JUMPDEST PUSH1 0xFF AND DUP2 PUSH1 0xFF AND EQ JUMPDEST JUMPDEST PUSH3 0x229E JUMPI PUSH1 0x40 MLOAD PUSH32 0x8C379A000000000000000000000000000000000000000000000000000000000 DUP2 MSTORE PUSH1 0x4 ADD PUSH3 0x2295 SWAP1 PUSH3 0x4990 JUMP JUMPDEST PUSH1 0x40 MLOAD DUP1 SWAP2 SUB SWAP1 REVERT JUMPDEST POP POP JUMP JUMPDEST PUSH1 0x7 PUSH1 0x3 ADD SLOAD TIMESTAMP GT ISZERO PUSH3 0x22ED JUMPI PUSH1 0x40 MLOAD PUSH32 0x8C379A000000000000000000000000000000000000000000000000000000000 DUP2 MSTORE PUSH1 0x4 ADD PUSH3 0x22E4 SWAP1 PUSH3 0x4880 JUMP JUMPDEST PUSH1 0x40 MLOAD DUP1 SWAP2 SUB SWAP1 REVERT JUMPDEST JUMP JUMPDEST PUSH1 0x0 DUP2 GT ISZERO PUSH3 0x27BD JUMPI PUSH1 0x7 PUSH1 0x0 ADD PUSH1 0x14 SWAP1 SLOAD SWAP1 PUSH2 0x100 EXP SWAP1 DIV PUSH1 0xFF AND ISZERO PUSH3 0x2490 JUMPI DUP1 CALLVALUE EQ PUSH3 0x2357 JUMPI PUSH1 0x40 MLOAD PUSH32 0x8C379A000000000000000000000000000000000000000000000000000000000 DUP2 MSTORE PUSH1 0x4 ADD PUSH3 0x234E SWAP1 PUSH3 0x472C JUMP JUMPDEST PUSH1 0x40 MLOAD DUP1 SWAP2 SUB SWAP1 REVERT JUMPDEST DUP1 CALLER PUSH20 0xFFFFFFFFFFFFFFFFFFFFFFFFFFFFFFFFFFFFFFFF AND BALANCE LT ISZERO PUSH3 0x23B4 JUMPI PUSH1 0x40 MLOAD PUSH32 0x8C379A000000000000000000000000000000000000000000000000000000000 DUP2 MSTORE PUSH1 0x4 ADD PUSH3 0x23AB SWAP1 PUSH3 0x45B6 JUMP JUMPDEST PUSH1 0x40 MLOAD DUP1 SWAP2 SUB SWAP1 REVERT JUMPDEST PUSH1 0x0 PUSH1 0x6 PUSH1 0x0 SWAP1 SLOAD SWAP1 PUSH2 0x100 EXP SWAP1 DIV PUSH20 0xFFFFFFFFFFFFFFFFFFFFFFFFFFFFFFFFFFFFFFFF AND PUSH20 0xFFFFFFFFFFFFFFFFFFFFFFFFFFFFFFFFFFFFFFFF AND DUP3 PUSH1 0x40 MLOAD PUSH3 0x23FE SWAP1 PUSH3 0x4247 JUMP JUMPDEST PUSH1 0x0 PUSH1 0x40 MLOAD DUP1 DUP4 SUB DUP2 DUP6 DUP8 GAS CALL SWAP3 POP POP POP RETURNDATASIZE DUP1 PUSH1 0x0 DUP2 EQ PUSH3 0x243D JUMPI PUSH1 0x40 MLOAD SWAP2 POP PUSH1 0x1F NOT PUSH1 0x3F RETURNDATASIZE ADD AND DUP3 ADD PUSH1 0x40 MSTORE RETURNDATASIZE DUP3 MSTORE RETURNDATASIZE PUSH1 0x0 PUSH1 0x20 DUP5 ADD RETURNDATACOPY PUSH3 0x2442 JUMP JUMPDEST PUSH1 0x60 SWAP2 POP JUMPDEST POP POP SWAP1 POP DUP1 PUSH3 0x2489 JUMPI PUSH1 0x40 MLOAD PUSH32 0x8C379A000000000000000000000000000000000000000000000000000000000 DUP2 MSTORE PUSH1 0x4 ADD PUSH3 0x2480 SWAP1 PUSH3 0x45FA JUMP JUMPDEST PUSH1 0x40 MLOAD DUP1 SWAP2 SUB SWAP1 REVERT JUMPDEST POP PUSH3 0x27BC JUMP JUMPDEST DUP1 PUSH1 0x2 PUSH1 0x0 SWAP1 SLOAD SWAP1 PUSH2 0x100 EXP SWAP1 DIV PUSH20 0xFFFFFFFFFFFFFFFFFFFFFFFFFFFFFFFFFFFFFFFF AND PUSH20 0xFFFFFFFFFFFFFFFFFFFFFFFFFFFFFFFFFFFFFFFF AND PUSH4 0xDD62ED3E CALLER PUSH1 0x5 PUSH1 0x0 SWAP1 SLOAD SWAP1 PUSH2 0x100 EXP SWAP1 DIV PUSH20 0xFFFFFFFFFFFFFFFFFFFFFFFFFFFFFFFFFFFFFFFF AND PUSH1 0x40 MLOAD DUP4 PUSH4 0xFFFFFFFF AND PUSH1 0xE0 SHL DUP2 MSTORE PUSH1 0x4 ADD PUSH3 0x2512 SWAP3 SWAP2 SWAP1 PUSH3 0x42A8 JUMP JUMPDEST PUSH1 0x20 PUSH1 0x40 MLOAD DUP1 DUP4 SUB DUP2 DUP7 DUP1 EXTCODESIZE ISZERO DUP1 ISZERO PUSH3 0x252B JUMPI PUSH1 0x0 DUP1 REVERT JUMPDEST POP GAS STATICCALL ISZERO DUP1 ISZERO PUSH3 0x2540 JUMPI RETURNDATASIZE PUSH1 0x0 DUP1 RETURNDATACOPY RETURNDATASIZE PUSH1 0x0 REVERT JUMPDEST POP POP POP POP PUSH1 0x40 MLOAD RETURNDATASIZE PUSH1 0x1F NOT PUSH1 0x1F DUP3 ADD AND DUP3 ADD DUP1 PUSH1 0x40 MSTORE POP DUP2 ADD SWAP1 PUSH3 0x2566 SWAP2 SWAP1 PUSH3 0x3AF9 JUMP JUMPDEST LT ISZERO PUSH3 0x25AA JUMPI PUSH1 0x40 MLOAD PUSH32 0x8C379A000000000000000000000000000000000000000000000000000000000 DUP2 MSTORE PUSH1 0x4 ADD PUSH3 0x25A1 SWAP1 PUSH3 0x474E JUMP JUMPDEST PUSH1 0x40 MLOAD DUP1 SWAP2 SUB SWAP1 REVERT JUMPDEST DUP1 PUSH1 0x2 PUSH1 0x0 SWAP1 SLOAD SWAP1 PUSH2 0x100 EXP SWAP1 DIV PUSH20 0xFFFFFFFFFFFFFFFFFFFFFFFFFFFFFFFFFFFFFFFF AND PUSH20 0xFFFFFFFFFFFFFFFFFFFFFFFFFFFFFFFFFFFFFFFF AND PUSH4 0x70A08231 CALLER PUSH1 0x40 MLOAD DUP3 PUSH4 0xFFFFFFFF AND PUSH1 0xE0 SHL DUP2 MSTORE PUSH1 0x4 ADD PUSH3 0x2608 SWAP2 SWAP1 PUSH3 0x425E JUMP JUMPDEST PUSH1 0x20 PUSH1 0x40 MLOAD DUP1 DUP4 SUB DUP2 DUP7 DUP1 EXTCODESIZE ISZERO DUP1 ISZERO PUSH3 0x2621 JUMPI PUSH1 0x0 DUP1 REVERT JUMPDEST POP GAS STATICCALL ISZERO DUP1 ISZERO PUSH3 0x2636 JUMPI RETURNDATASIZE PUSH1 0x0 DUP1 RETURNDATACOPY RETURNDATASIZE PUSH1 0x0 REVERT JUMPDEST POP POP POP POP PUSH1 0x40 MLOAD RETURNDATASIZE PUSH1 0x1F NOT PUSH1 0x1F DUP3 ADD AND DUP3 ADD DUP1 PUSH1 0x40 MSTORE POP DUP2 ADD SWAP1 PUSH3 0x265C SWAP2 SWAP1 PUSH3 0x3AF9 JUMP JUMPDEST LT ISZERO PUSH3 0x26A0 JUMPI PUSH1 0x40 MLOAD PUSH32 0x8C379A000000000000000000000000000000000000000000000000000000000 DUP2 MSTORE PUSH1 0x4 ADD PUSH3 0x2697 SWAP1 PUSH3 0x470A JUMP JUMPDEST PUSH1 0x40 MLOAD DUP1 SWAP2 SUB SWAP1 REVERT JUMPDEST PUSH1 0x2 PUSH1 0x0 SWAP1 SLOAD SWAP1 PUSH2 0x100 EXP SWAP1 DIV PUSH20 0xFFFFFFFFFFFFFFFFFFFFFFFFFFFFFFFFFFFFFFFF AND PUSH20 0xFFFFFFFFFFFFFFFFFFFFFFFFFFFFFFFFFFFFFFFF AND PUSH4 0x23B872DD CALLER PUSH1 0x6 PUSH1 0x0 SWAP1 SLOAD SWAP1 PUSH2 0x100 EXP SWAP1 DIV PUSH20 0xFFFFFFFFFFFFFFFFFFFFFFFFFFFFFFFFFFFFFFFF AND DUP5 PUSH1 0x40 MLOAD DUP5 PUSH4 0xFFFFFFFF AND PUSH1 0xE0 SHL DUP2 MSTORE PUSH1 0x4 ADD PUSH3 0x2723 SWAP4 SWAP3 SWAP2 SWAP1 PUSH3 0x42D5 JUMP JUMPDEST PUSH1 0x20 PUSH1 0x40 MLOAD DUP1 DUP4 SUB DUP2 PUSH1 0x0 DUP8 DUP1 EXTCODESIZE ISZERO DUP1 ISZERO PUSH3 0x273E JUMPI PUSH1 0x0 DUP1 REVERT JUMPDEST POP GAS CALL ISZERO DUP1 ISZERO PUSH3 0x2753 JUMPI RETURNDATASIZE PUSH1 0x0 DUP1 RETURNDATACOPY RETURNDATASIZE PUSH1 0x0 REVERT JUMPDEST POP POP POP POP PUSH1 0x40 MLOAD RETURNDATASIZE PUSH1 0x1F NOT PUSH1 0x1F DUP3 ADD AND DUP3 ADD DUP1 PUSH1 0x40 MSTORE POP DUP2 ADD SWAP1 PUSH3 0x2779 SWAP2 SWAP1 PUSH3 0x3A63 JUMP JUMPDEST PUSH3 0x27BB JUMPI PUSH1 0x40 MLOAD PUSH32 0x8C379A000000000000000000000000000000000000000000000000000000000 DUP2 MSTORE PUSH1 0x4 ADD PUSH3 0x27B2 SWAP1 PUSH3 0x492A JUMP JUMPDEST PUSH1 0x40 MLOAD DUP1 SWAP2 SUB SWAP1 REVERT JUMPDEST JUMPDEST JUMPDEST POP JUMP JUMPDEST PUSH1 0x0 DUP2 DUP4 PUSH3 0x27D0 SWAP2 SWAP1 PUSH3 0x4B4C JUMP JUMPDEST SWAP1 POP SWAP3 SWAP2 POP POP JUMP JUMPDEST PUSH3 0x27E2 PUSH3 0x33F0 JUMP JUMPDEST PUSH20 0xFFFFFFFFFFFFFFFFFFFFFFFFFFFFFFFFFFFFFFFF AND PUSH3 0x2802 PUSH3 0x151D JUMP JUMPDEST PUSH20 0xFFFFFFFFFFFFFFFFFFFFFFFFFFFFFFFFFFFFFFFF AND EQ PUSH3 0x285B JUMPI PUSH1 0x40 MLOAD PUSH32 0x8C379A000000000000000000000000000000000000000000000000000000000 DUP2 MSTORE PUSH1 0x4 ADD PUSH3 0x2852 SWAP1 PUSH3 0x48C4 JUMP JUMPDEST PUSH1 0x40 MLOAD DUP1 SWAP2 SUB SWAP1 REVERT JUMPDEST JUMP JUMPDEST DUP2 PUSH1 0x4 DUP2 GT ISZERO PUSH3 0x2873 JUMPI PUSH3 0x2872 PUSH3 0x4E56 JUMP JUMPDEST JUMPDEST PUSH1 0xE PUSH1 0x2 SWAP1 SLOAD SWAP1 PUSH2 0x100 EXP SWAP1 DIV PUSH1 0xFF AND PUSH1 0x4 DUP2 GT ISZERO PUSH3 0x2898 JUMPI PUSH3 0x2897 PUSH3 0x4E56 JUMP JUMPDEST JUMPDEST EQ ISZERO DUP2 SWAP1 PUSH3 0x28DF JUMPI PUSH1 0x40 MLOAD PUSH32 0x8C379A000000000000000000000000000000000000000000000000000000000 DUP2 MSTORE PUSH1 0x4 ADD PUSH3 0x28D6 SWAP2 SWAP1 PUSH3 0x4592 JUMP JUMPDEST PUSH1 0x40 MLOAD DUP1 SWAP2 SUB SWAP1 REVERT JUMPDEST POP POP POP JUMP JUMPDEST PUSH1 0x0 PUSH1 0x7 PUSH1 0x0 ADD PUSH1 0x14 SWAP1 SLOAD SWAP1 PUSH2 0x100 EXP SWAP1 DIV PUSH1 0xFF AND ISZERO PUSH3 0x291F JUMPI DUP2 PUSH20 0xFFFFFFFFFFFFFFFFFFFFFFFFFFFFFFFFFFFFFFFF AND BALANCE SWAP1 POP PUSH3 0x29D3 JUMP JUMPDEST PUSH1 0x2 PUSH1 0x0 SWAP1 SLOAD SWAP1 PUSH2 0x100 EXP SWAP1 DIV PUSH20 0xFFFFFFFFFFFFFFFFFFFFFFFFFFFFFFFFFFFFFFFF AND PUSH20 0xFFFFFFFFFFFFFFFFFFFFFFFFFFFFFFFFFFFFFFFF AND PUSH4 0x70A08231 DUP4 PUSH1 0x40 MLOAD DUP3 PUSH4 0xFFFFFFFF AND PUSH1 0xE0 SHL DUP2 MSTORE PUSH1 0x4 ADD PUSH3 0x297C SWAP2 SWAP1 PUSH3 0x425E JUMP JUMPDEST PUSH1 0x20 PUSH1 0x40 MLOAD DUP1 DUP4 SUB DUP2 DUP7 DUP1 EXTCODESIZE ISZERO DUP1 ISZERO PUSH3 0x2995 JUMPI PUSH1 0x0 DUP1 REVERT JUMPDEST POP GAS STATICCALL ISZERO DUP1 ISZERO PUSH3 0x29AA JUMPI RETURNDATASIZE PUSH1 0x0 DUP1 RETURNDATACOPY RETURNDATASIZE PUSH1 0x0 REVERT JUMPDEST POP POP POP POP PUSH1 0x40 MLOAD RETURNDATASIZE PUSH1 0x1F NOT PUSH1 0x1F DUP3 ADD AND DUP3 ADD DUP1 PUSH1 0x40 MSTORE POP DUP2 ADD SWAP1 PUSH3 0x29D0 SWAP2 SWAP1 PUSH3 0x3AF9 JUMP JUMPDEST SWAP1 POP JUMPDEST SWAP2 SWAP1 POP JUMP JUMPDEST PUSH1 0x0 DUP1 PUSH1 0x1 SWAP1 POP PUSH1 0x0 DUP4 GT ISZERO PUSH3 0x2BE3 JUMPI PUSH1 0x0 SWAP1 POP PUSH1 0x7 PUSH1 0x0 ADD PUSH1 0x14 SWAP1 SLOAD SWAP1 PUSH2 0x100 EXP SWAP1 DIV PUSH1 0xFF AND ISZERO PUSH3 0x2AC3 JUMPI PUSH1 0x1 PUSH1 0x0 SWAP1 SLOAD SWAP1 PUSH2 0x100 EXP SWAP1 DIV PUSH20 0xFFFFFFFFFFFFFFFFFFFFFFFFFFFFFFFFFFFFFFFF AND PUSH20 0xFFFFFFFFFFFFFFFFFFFFFFFFFFFFFFFFFFFFFFFF AND PUSH4 0xA9059CBB DUP6 DUP6 PUSH1 0x40 MLOAD DUP4 PUSH4 0xFFFFFFFF AND PUSH1 0xE0 SHL DUP2 MSTORE PUSH1 0x4 ADD PUSH3 0x2A65 SWAP3 SWAP2 SWAP1 PUSH3 0x427B JUMP JUMPDEST PUSH1 0x20 PUSH1 0x40 MLOAD DUP1 DUP4 SUB DUP2 PUSH1 0x0 DUP8 DUP1 EXTCODESIZE ISZERO DUP1 ISZERO PUSH3 0x2A80 JUMPI PUSH1 0x0 DUP1 REVERT JUMPDEST POP GAS CALL ISZERO DUP1 ISZERO PUSH3 0x2A95 JUMPI RETURNDATASIZE PUSH1 0x0 DUP1 RETURNDATACOPY RETURNDATASIZE PUSH1 0x0 REVERT JUMPDEST POP POP POP POP PUSH1 0x40 MLOAD RETURNDATASIZE PUSH1 0x1F NOT PUSH1 0x1F DUP3 ADD AND DUP3 ADD DUP1 PUSH1 0x40 MSTORE POP DUP2 ADD SWAP1 PUSH3 0x2ABB SWAP2 SWAP1 PUSH3 0x3A63 JUMP JUMPDEST SWAP1 POP PUSH3 0x2B9F JUMP JUMPDEST PUSH1 0x1 PUSH1 0x0 SWAP1 SLOAD SWAP1 PUSH2 0x100 EXP SWAP1 DIV PUSH20 0xFFFFFFFFFFFFFFFFFFFFFFFFFFFFFFFFFFFFFFFF AND PUSH20 0xFFFFFFFFFFFFFFFFFFFFFFFFFFFFFFFFFFFFFFFF AND PUSH4 0xF5537EDE PUSH1 0x2 PUSH1 0x0 SWAP1 SLOAD SWAP1 PUSH2 0x100 EXP SWAP1 DIV PUSH20 0xFFFFFFFFFFFFFFFFFFFFFFFFFFFFFFFFFFFFFFFF AND DUP7 DUP7 PUSH1 0x40 MLOAD DUP5 PUSH4 0xFFFFFFFF AND PUSH1 0xE0 SHL DUP2 MSTORE PUSH1 0x4 ADD PUSH3 0x2B46 SWAP4 SWAP3 SWAP2 SWAP1 PUSH3 0x4555 JUMP JUMPDEST PUSH1 0x20 PUSH1 0x40 MLOAD DUP1 DUP4 SUB DUP2 PUSH1 0x0 DUP8 DUP1 EXTCODESIZE ISZERO DUP1 ISZERO PUSH3 0x2B61 JUMPI PUSH1 0x0 DUP1 REVERT JUMPDEST POP GAS CALL ISZERO DUP1 ISZERO PUSH3 0x2B76 JUMPI RETURNDATASIZE PUSH1 0x0 DUP1 RETURNDATACOPY RETURNDATASIZE PUSH1 0x0 REVERT JUMPDEST POP POP POP POP PUSH1 0x40 MLOAD RETURNDATASIZE PUSH1 0x1F NOT PUSH1 0x1F DUP3 ADD AND DUP3 ADD DUP1 PUSH1 0x40 MSTORE POP DUP2 ADD SWAP1 PUSH3 0x2B9C SWAP2 SWAP1 PUSH3 0x3A63 JUMP JUMPDEST SWAP1 POP JUMPDEST DUP1 PUSH3 0x2BE2 JUMPI PUSH1 0x40 MLOAD PUSH32 0x8C379A000000000000000000000000000000000000000000000000000000000 DUP2 MSTORE PUSH1 0x4 ADD PUSH3 0x2BD9 SWAP1 PUSH3 0x47F8 JUMP JUMPDEST PUSH1 0x40 MLOAD DUP1 SWAP2 SUB SWAP1 REVERT JUMPDEST JUMPDEST DUP1 SWAP2 POP POP SWAP3 SWAP2 POP POP JUMP JUMPDEST PUSH1 0x0 PUSH3 0x2BFA CALLER PUSH3 0x1B73 JUMP JUMPDEST POP SWAP3 POP POP POP DUP1 PUSH3 0x2C42 JUMPI PUSH1 0x40 MLOAD PUSH32 0x8C379A000000000000000000000000000000000000000000000000000000000 DUP2 MSTORE PUSH1 0x4 ADD PUSH3 0x2C39 SWAP1 PUSH3 0x46C6 JUMP JUMPDEST PUSH1 0x40 MLOAD DUP1 SWAP2 SUB SWAP1 REVERT JUMPDEST POP JUMP JUMPDEST PUSH1 0x0 PUSH1 0x1 PUSH1 0x0 SWAP1 SLOAD SWAP1 PUSH2 0x100 EXP SWAP1 DIV PUSH20 0xFFFFFFFFFFFFFFFFFFFFFFFFFFFFFFFFFFFFFFFF AND PUSH20 0xFFFFFFFFFFFFFFFFFFFFFFFFFFFFFFFFFFFFFFFF AND PUSH4 0x3B8E1BF5 DUP4 PUSH1 0x40 MLOAD DUP3 PUSH4 0xFFFFFFFF AND PUSH1 0xE0 SHL DUP2 MSTORE PUSH1 0x4 ADD PUSH3 0x2CA4 SWAP2 SWAP1 PUSH3 0x425E JUMP JUMPDEST PUSH1 0x40 DUP1 MLOAD DUP1 DUP4 SUB DUP2 DUP7 DUP1 EXTCODESIZE ISZERO DUP1 ISZERO PUSH3 0x2CBC JUMPI PUSH1 0x0 DUP1 REVERT JUMPDEST POP GAS STATICCALL ISZERO DUP1 ISZERO PUSH3 0x2CD1 JUMPI RETURNDATASIZE PUSH1 0x0 DUP1 RETURNDATACOPY RETURNDATASIZE PUSH1 0x0 REVERT JUMPDEST POP POP POP POP PUSH1 0x40 MLOAD RETURNDATASIZE PUSH1 0x1F NOT PUSH1 0x1F DUP3 ADD AND DUP3 ADD DUP1 PUSH1 0x40 MSTORE POP DUP2 ADD SWAP1 PUSH3 0x2CF7 SWAP2 SWAP1 PUSH3 0x3B2B JUMP JUMPDEST POP SWAP1 POP PUSH3 0x2D06 DUP3 DUP3 PUSH3 0x29D8 JUMP JUMPDEST PUSH3 0x2D48 JUMPI PUSH1 0x40 MLOAD PUSH32 0x8C379A000000000000000000000000000000000000000000000000000000000 DUP2 MSTORE PUSH1 0x4 ADD PUSH3 0x2D3F SWAP1 PUSH3 0x47D6 JUMP JUMPDEST PUSH1 0x40 MLOAD DUP1 SWAP2 SUB SWAP1 REVERT JUMPDEST PUSH3 0x2D5F DUP2 PUSH1 0xC SLOAD PUSH3 0x33F8 SWAP1 SWAP2 SWAP1 PUSH4 0xFFFFFFFF AND JUMP JUMPDEST PUSH1 0xC DUP2 SWAP1 SSTORE POP PUSH1 0x1 PUSH1 0x0 SWAP1 SLOAD SWAP1 PUSH2 0x100 EXP SWAP1 DIV PUSH20 0xFFFFFFFFFFFFFFFFFFFFFFFFFFFFFFFFFFFFFFFF AND PUSH20 0xFFFFFFFFFFFFFFFFFFFFFFFFFFFFFFFFFFFFFFFF AND PUSH4 0xAD4A7D48 DUP4 PUSH1 0x0 PUSH1 0x40 MLOAD DUP4 PUSH4 0xFFFFFFFF AND PUSH1 0xE0 SHL DUP2 MSTORE PUSH1 0x4 ADD PUSH3 0x2DC5 SWAP3 SWAP2 SWAP1 PUSH3 0x43BA JUMP JUMPDEST PUSH1 0x0 PUSH1 0x40 MLOAD DUP1 DUP4 SUB DUP2 PUSH1 0x0 DUP8 DUP1 EXTCODESIZE ISZERO DUP1 ISZERO PUSH3 0x2DE0 JUMPI PUSH1 0x0 DUP1 REVERT JUMPDEST POP GAS CALL ISZERO DUP1 ISZERO PUSH3 0x2DF5 JUMPI RETURNDATASIZE PUSH1 0x0 DUP1 RETURNDATACOPY RETURNDATASIZE PUSH1 0x0 REVERT JUMPDEST POP POP POP POP PUSH32 0xE91D6E8B0922288CB099F612A8EBE95F158FF1FA70ADE28DF221224E75CCBEBA DUP3 DUP3 PUSH1 0x0 PUSH1 0xC SLOAD PUSH1 0x40 MLOAD PUSH3 0x2E33 SWAP5 SWAP4 SWAP3 SWAP2 SWAP1 PUSH3 0x4414 JUMP JUMPDEST PUSH1 0x40 MLOAD DUP1 SWAP2 SUB SWAP1 LOG1 POP POP JUMP JUMPDEST PUSH1 0x0 PUSH1 0x7 PUSH1 0x3 ADD SLOAD TIMESTAMP LT ISZERO PUSH3 0x2E59 JUMPI PUSH1 0x1 SWAP1 POP PUSH3 0x2E5E JUMP JUMPDEST PUSH1 0x4 SWAP1 POP JUMPDEST SWAP1 JUMP JUMPDEST PUSH1 0x0 PUSH1 0x1 PUSH1 0x0 SWAP1 SLOAD SWAP1 PUSH2 0x100 EXP SWAP1 DIV PUSH20 0xFFFFFFFFFFFFFFFFFFFFFFFFFFFFFFFFFFFFFFFF AND PUSH20 0xFFFFFFFFFFFFFFFFFFFFFFFFFFFFFFFFFFFFFFFF AND PUSH4 0xFD37059 DUP4 PUSH1 0x40 MLOAD DUP3 PUSH4 0xFFFFFFFF AND PUSH1 0xE0 SHL DUP2 MSTORE PUSH1 0x4 ADD PUSH3 0x2EC0 SWAP2 SWAP1 PUSH3 0x425E JUMP JUMPDEST PUSH1 0x20 PUSH1 0x40 MLOAD DUP1 DUP4 SUB DUP2 DUP7 DUP1 EXTCODESIZE ISZERO DUP1 ISZERO PUSH3 0x2ED9 JUMPI PUSH1 0x0 DUP1 REVERT JUMPDEST POP GAS STATICCALL ISZERO DUP1 ISZERO PUSH3 0x2EEE JUMPI RETURNDATASIZE PUSH1 0x0 DUP1 RETURNDATACOPY RETURNDATASIZE PUSH1 0x0 REVERT JUMPDEST POP POP POP POP PUSH1 0x40 MLOAD RETURNDATASIZE PUSH1 0x1F NOT PUSH1 0x1F DUP3 ADD AND DUP3 ADD DUP1 PUSH1 0x40 MSTORE POP DUP2 ADD SWAP1 PUSH3 0x2F14 SWAP2 SWAP1 PUSH3 0x3A63 JUMP JUMPDEST ISZERO PUSH3 0x2F49 JUMPI PUSH1 0x0 PUSH1 0xD SLOAD EQ DUP1 PUSH3 0x2F3D JUMPI POP PUSH1 0x0 PUSH1 0xD SLOAD GT DUP1 ISZERO PUSH3 0x2F3C JUMPI POP PUSH1 0xD SLOAD TIMESTAMP GT ISZERO JUMPDEST JUMPDEST ISZERO PUSH3 0x2F48 JUMPI PUSH1 0x1 SWAP1 POP JUMPDEST JUMPDEST DUP1 PUSH3 0x2F8C JUMPI PUSH1 0x40 MLOAD PUSH32 0x8C379A000000000000000000000000000000000000000000000000000000000 DUP2 MSTORE PUSH1 0x4 ADD PUSH3 0x2F83 SWAP1 PUSH3 0x4792 JUMP JUMPDEST PUSH1 0x40 MLOAD DUP1 SWAP2 SUB SWAP1 REVERT JUMPDEST POP POP JUMP JUMPDEST PUSH3 0x2F9A PUSH3 0x3410 JUMP JUMPDEST PUSH3 0x2FA4 PUSH3 0x34D1 JUMP JUMPDEST JUMP JUMPDEST PUSH1 0x0 PUSH1 0x1 PUSH1 0x0 SWAP1 SLOAD SWAP1 PUSH2 0x100 EXP SWAP1 DIV PUSH20 0xFFFFFFFFFFFFFFFFFFFFFFFFFFFFFFFFFFFFFFFF AND PUSH20 0xFFFFFFFFFFFFFFFFFFFFFFFFFFFFFFFFFFFFFFFF AND PUSH4 0xE696288A DUP4 PUSH1 0x40 MLOAD DUP3 PUSH4 0xFFFFFFFF AND PUSH1 0xE0 SHL DUP2 MSTORE PUSH1 0x4 ADD PUSH3 0x3005 SWAP2 SWAP1 PUSH3 0x425E JUMP JUMPDEST PUSH1 0x20 PUSH1 0x40 MLOAD DUP1 DUP4 SUB DUP2 DUP7 DUP1 EXTCODESIZE ISZERO DUP1 ISZERO PUSH3 0x301E JUMPI PUSH1 0x0 DUP1 REVERT JUMPDEST POP GAS STATICCALL ISZERO DUP1 ISZERO PUSH3 0x3033 JUMPI RETURNDATASIZE PUSH1 0x0 DUP1 RETURNDATACOPY RETURNDATASIZE PUSH1 0x0 REVERT JUMPDEST POP POP POP POP PUSH1 0x40 MLOAD RETURNDATASIZE PUSH1 0x1F NOT PUSH1 0x1F DUP3 ADD AND DUP3 ADD DUP1 PUSH1 0x40 MSTORE POP DUP2 ADD SWAP1 PUSH3 0x3059 SWAP2 SWAP1 PUSH3 0x3A63 JUMP JUMPDEST ISZERO PUSH3 0x3093 JUMPI PUSH1 0x0 PUSH1 0xD SLOAD EQ DUP1 PUSH3 0x3082 JUMPI POP PUSH1 0x0 PUSH1 0xD SLOAD GT DUP1 ISZERO PUSH3 0x3081 JUMPI POP PUSH1 0xD SLOAD TIMESTAMP GT ISZERO JUMPDEST JUMPDEST ISZERO PUSH3 0x308D JUMPI PUSH1 0x1 SWAP1 POP JUMPDEST PUSH3 0x310D JUMP JUMPDEST PUSH1 0x0 PUSH1 0xD SLOAD GT DUP1 ISZERO PUSH3 0x30A7 JUMPI POP PUSH1 0xD SLOAD TIMESTAMP GT JUMPDEST DUP1 ISZERO PUSH3 0x3101 JUMPI POP PUSH1 0x4 PUSH1 0x0 SWAP1 SLOAD SWAP1 PUSH2 0x100 EXP SWAP1 DIV PUSH20 0xFFFFFFFFFFFFFFFFFFFFFFFFFFFFFFFFFFFFFFFF AND PUSH20 0xFFFFFFFFFFFFFFFFFFFFFFFFFFFFFFFFFFFFFFFF AND DUP3 PUSH20 0xFFFFFFFFFFFFFFFFFFFFFFFFFFFFFFFFFFFFFFFF AND EQ JUMPDEST ISZERO PUSH3 0x310C JUMPI PUSH1 0x1 SWAP1 POP JUMPDEST JUMPDEST DUP1 PUSH3 0x3150 JUMPI PUSH1 0x40 MLOAD PUSH32 0x8C379A000000000000000000000000000000000000000000000000000000000 DUP2 MSTORE PUSH1 0x4 ADD PUSH3 0x3147 SWAP1 PUSH3 0x483C JUMP JUMPDEST PUSH1 0x40 MLOAD DUP1 SWAP2 SUB SWAP1 REVERT JUMPDEST POP POP JUMP JUMPDEST PUSH1 0x0 DUP1 PUSH1 0x0 DUP1 PUSH1 0x3 DUP1 DUP2 GT ISZERO PUSH3 0x3170 JUMPI PUSH3 0x316F PUSH3 0x4E56 JUMP JUMPDEST JUMPDEST SWAP1 POP PUSH1 0x0 DUP1 PUSH1 0x0 PUSH3 0x3182 DUP9 PUSH3 0x32FD JUMP JUMPDEST SWAP3 POP SWAP3 POP SWAP3 POP DUP3 ISZERO PUSH3 0x31AE JUMPI PUSH1 0x2 PUSH1 0x3 DUP2 GT ISZERO PUSH3 0x31A6 JUMPI PUSH3 0x31A5 PUSH3 0x4E56 JUMP JUMPDEST JUMPDEST SWAP4 POP PUSH3 0x3225 JUMP JUMPDEST PUSH1 0x4 PUSH1 0x0 SWAP1 SLOAD SWAP1 PUSH2 0x100 EXP SWAP1 DIV PUSH20 0xFFFFFFFFFFFFFFFFFFFFFFFFFFFFFFFFFFFFFFFF AND PUSH20 0xFFFFFFFFFFFFFFFFFFFFFFFFFFFFFFFFFFFFFFFF AND DUP9 PUSH20 0xFFFFFFFFFFFFFFFFFFFFFFFFFFFFFFFFFFFFFFFF AND EQ ISZERO PUSH3 0x3224 JUMPI PUSH1 0x1 PUSH1 0x3 DUP2 GT ISZERO PUSH3 0x321C JUMPI PUSH3 0x321B PUSH3 0x4E56 JUMP JUMPDEST JUMPDEST SWAP4 POP PUSH1 0xB SLOAD SWAP2 POP JUMPDEST JUMPDEST DUP4 DUP3 DUP3 SWAP7 POP SWAP7 POP SWAP7 POP POP POP POP POP SWAP2 SWAP4 SWAP1 SWAP3 POP JUMP JUMPDEST PUSH1 0x0 DUP1 PUSH1 0x0 SWAP1 SLOAD SWAP1 PUSH2 0x100 EXP SWAP1 DIV PUSH20 0xFFFFFFFFFFFFFFFFFFFFFFFFFFFFFFFFFFFFFFFF AND SWAP1 POP DUP2 PUSH1 0x0 DUP1 PUSH2 0x100 EXP DUP2 SLOAD DUP2 PUSH20 0xFFFFFFFFFFFFFFFFFFFFFFFFFFFFFFFFFFFFFFFF MUL NOT AND SWAP1 DUP4 PUSH20 0xFFFFFFFFFFFFFFFFFFFFFFFFFFFFFFFFFFFFFFFF AND MUL OR SWAP1 SSTORE POP DUP2 PUSH20 0xFFFFFFFFFFFFFFFFFFFFFFFFFFFFFFFFFFFFFFFF AND DUP2 PUSH20 0xFFFFFFFFFFFFFFFFFFFFFFFFFFFFFFFFFFFFFFFF AND PUSH32 0x8BE0079C531659141344CD1FD0A4F28419497F9722A3DAAFE3B4186F6B6457E0 PUSH1 0x40 MLOAD PUSH1 0x40 MLOAD DUP1 SWAP2 SUB SWAP1 LOG3 POP POP JUMP JUMPDEST PUSH1 0x0 DUP1 PUSH1 0x0 DUP1 PUSH1 0x1 SWAP1 POP PUSH1 0x0 DUP1 PUSH1 0x1 PUSH1 0x0 SWAP1 SLOAD SWAP1 PUSH2 0x100 EXP SWAP1 DIV PUSH20 0xFFFFFFFFFFFFFFFFFFFFFFFFFFFFFFFFFFFFFFFF AND PUSH20 0xFFFFFFFFFFFFFFFFFFFFFFFFFFFFFFFFFFFFFFFF AND PUSH4 0x3B8E1BF5 DUP9 PUSH1 0x40 MLOAD DUP3 PUSH4 0xFFFFFFFF AND PUSH1 0xE0 SHL DUP2 MSTORE PUSH1 0x4 ADD PUSH3 0x3367 SWAP2 SWAP1 PUSH3 0x425E JUMP JUMPDEST PUSH1 0x40 DUP1 MLOAD DUP1 DUP4 SUB DUP2 DUP7 DUP1 EXTCODESIZE ISZERO DUP1 ISZERO PUSH3 0x337F JUMPI PUSH1 0x0 DUP1 REVERT JUMPDEST POP GAS STATICCALL ISZERO DUP1 ISZERO PUSH3 0x3394 JUMPI RETURNDATASIZE PUSH1 0x0 DUP1 RETURNDATACOPY RETURNDATASIZE PUSH1 0x0 REVERT JUMPDEST POP POP POP POP PUSH1 0x40 MLOAD RETURNDATASIZE PUSH1 0x1F NOT PUSH1 0x1F DUP3 ADD AND DUP3 ADD DUP1 PUSH1 0x40 MSTORE POP DUP2 ADD SWAP1 PUSH3 0x33BA SWAP2 SWAP1 PUSH3 0x3B2B JUMP JUMPDEST SWAP2 POP SWAP2 POP PUSH1 0x0 DUP3 EQ DUP1 ISZERO PUSH3 0x33D2 JUMPI POP PUSH1 0x0 DUP2 PUSH1 0xFF AND EQ JUMPDEST ISZERO PUSH3 0x33DD JUMPI PUSH1 0x0 SWAP3 POP JUMPDEST DUP3 DUP3 DUP3 SWAP6 POP SWAP6 POP SWAP6 POP POP POP POP SWAP2 SWAP4 SWAP1 SWAP3 POP JUMP JUMPDEST PUSH1 0x0 CALLER SWAP1 POP SWAP1 JUMP JUMPDEST PUSH1 0x0 DUP2 DUP4 PUSH3 0x3408 SWAP2 SWAP1 PUSH3 0x4BA9 JUMP JUMPDEST SWAP1 POP SWAP3 SWAP2 POP POP JUMP JUMPDEST PUSH1 0x0 PUSH1 0xB SLOAD SWAP1 POP PUSH3 0x3445 PUSH1 0x4 PUSH1 0x0 SWAP1 SLOAD SWAP1 PUSH2 0x100 EXP SWAP1 DIV PUSH20 0xFFFFFFFFFFFFFFFFFFFFFFFFFFFFFFFFFFFFFFFF AND DUP3 PUSH3 0x29D8 JUMP JUMPDEST PUSH3 0x3487 JUMPI PUSH1 0x40 MLOAD PUSH32 0x8C379A000000000000000000000000000000000000000000000000000000000 DUP2 MSTORE PUSH1 0x4 ADD PUSH3 0x347E SWAP1 PUSH3 0x46E8 JUMP JUMPDEST PUSH1 0x40 MLOAD DUP1 SWAP2 SUB SWAP1 REVERT JUMPDEST PUSH1 0x0 PUSH1 0xB DUP2 SWAP1 SSTORE POP PUSH32 0xE48599699A32E09C4DF6E7E49D630B3B349E877D551BB9C34D31D5ADD15ABCD8 CALLER DUP3 PUSH1 0xB SLOAD PUSH1 0x40 MLOAD PUSH3 0x34C6 SWAP4 SWAP3 SWAP2 SWAP1 PUSH3 0x4461 JUMP JUMPDEST PUSH1 0x40 MLOAD DUP1 SWAP2 SUB SWAP1 LOG1 POP JUMP JUMPDEST PUSH1 0x0 PUSH1 0x1 PUSH1 0x0 SWAP1 SLOAD SWAP1 PUSH2 0x100 EXP SWAP1 DIV PUSH20 0xFFFFFFFFFFFFFFFFFFFFFFFFFFFFFFFFFFFFFFFF AND PUSH20 0xFFFFFFFFFFFFFFFFFFFFFFFFFFFFFFFFFFFFFFFF AND PUSH4 0xFDF5963A PUSH1 0x40 MLOAD DUP2 PUSH4 0xFFFFFFFF AND PUSH1 0xE0 SHL DUP2 MSTORE PUSH1 0x4 ADD PUSH1 0x0 PUSH1 0x40 MLOAD DUP1 DUP4 SUB DUP2 DUP7 DUP1 EXTCODESIZE ISZERO DUP1 ISZERO PUSH3 0x353C JUMPI PUSH1 0x0 DUP1 REVERT JUMPDEST POP GAS STATICCALL ISZERO DUP1 ISZERO PUSH3 0x3551 JUMPI RETURNDATASIZE PUSH1 0x0 DUP1 RETURNDATACOPY RETURNDATASIZE PUSH1 0x0 REVERT JUMPDEST POP POP POP POP PUSH1 0x40 MLOAD RETURNDATASIZE PUSH1 0x0 DUP3 RETURNDATACOPY RETURNDATASIZE PUSH1 0x1F NOT PUSH1 0x1F DUP3 ADD AND DUP3 ADD DUP1 PUSH1 0x40 MSTORE POP DUP2 ADD SWAP1 PUSH3 0x357C SWAP2 SWAP1 PUSH3 0x3A12 JUMP JUMPDEST SWAP1 POP PUSH1 0x0 JUMPDEST DUP2 MLOAD DUP2 LT ISZERO PUSH3 0x3754 JUMPI PUSH1 0x0 DUP3 DUP3 DUP2 MLOAD DUP2 LT PUSH3 0x35A3 JUMPI PUSH3 0x35A2 PUSH3 0x4E85 JUMP JUMPDEST JUMPDEST PUSH1 0x20 MUL PUSH1 0x20 ADD ADD MLOAD SWAP1 POP PUSH3 0x35B8 DUP2 PUSH3 0x2C45 JUMP JUMPDEST PUSH1 0x0 PUSH1 0x1 PUSH1 0x0 SWAP1 SLOAD SWAP1 PUSH2 0x100 EXP SWAP1 DIV PUSH20 0xFFFFFFFFFFFFFFFFFFFFFFFFFFFFFFFFFFFFFFFF AND PUSH20 0xFFFFFFFFFFFFFFFFFFFFFFFFFFFFFFFFFFFFFFFF AND PUSH4 0x3B8E1BF5 DUP4 PUSH1 0x40 MLOAD DUP3 PUSH4 0xFFFFFFFF AND PUSH1 0xE0 SHL DUP2 MSTORE PUSH1 0x4 ADD PUSH3 0x3617 SWAP2 SWAP1 PUSH3 0x425E JUMP JUMPDEST PUSH1 0x40 DUP1 MLOAD DUP1 DUP4 SUB DUP2 DUP7 DUP1 EXTCODESIZE ISZERO DUP1 ISZERO PUSH3 0x362F JUMPI PUSH1 0x0 DUP1 REVERT JUMPDEST POP GAS STATICCALL ISZERO DUP1 ISZERO PUSH3 0x3644 JUMPI RETURNDATASIZE PUSH1 0x0 DUP1 RETURNDATACOPY RETURNDATASIZE PUSH1 0x0 REVERT JUMPDEST POP POP POP POP PUSH1 0x40 MLOAD RETURNDATASIZE PUSH1 0x1F NOT PUSH1 0x1F DUP3 ADD AND DUP3 ADD DUP1 PUSH1 0x40 MSTORE POP DUP2 ADD SWAP1 PUSH3 0x366A SWAP2 SWAP1 PUSH3 0x3B2B JUMP JUMPDEST SWAP2 POP POP PUSH1 0x1 PUSH1 0x6 DUP2 GT ISZERO PUSH3 0x3684 JUMPI PUSH3 0x3683 PUSH3 0x4E56 JUMP JUMPDEST JUMPDEST PUSH1 0xFF AND DUP2 PUSH1 0xFF AND EQ ISZERO PUSH3 0x373C JUMPI PUSH1 0x1 PUSH1 0x0 SWAP1 SLOAD SWAP1 PUSH2 0x100 EXP SWAP1 DIV PUSH20 0xFFFFFFFFFFFFFFFFFFFFFFFFFFFFFFFFFFFFFFFF AND PUSH20 0xFFFFFFFFFFFFFFFFFFFFFFFFFFFFFFFFFFFFFFFF AND PUSH4 0xCB765D4D DUP4 PUSH1 0x2 PUSH1 0x6 DUP2 GT ISZERO PUSH3 0x36E8 JUMPI PUSH3 0x36E7 PUSH3 0x4E56 JUMP JUMPDEST JUMPDEST PUSH1 0x40 MLOAD DUP4 PUSH4 0xFFFFFFFF AND PUSH1 0xE0 SHL DUP2 MSTORE PUSH1 0x4 ADD PUSH3 0x3707 SWAP3 SWAP2 SWAP1 PUSH3 0x4528 JUMP JUMPDEST PUSH1 0x0 PUSH1 0x40 MLOAD DUP1 DUP4 SUB DUP2 PUSH1 0x0 DUP8 DUP1 EXTCODESIZE ISZERO DUP1 ISZERO PUSH3 0x3722 JUMPI PUSH1 0x0 DUP1 REVERT JUMPDEST POP GAS CALL ISZERO DUP1 ISZERO PUSH3 0x3737 JUMPI RETURNDATASIZE PUSH1 0x0 DUP1 RETURNDATACOPY RETURNDATASIZE PUSH1 0x0 REVERT JUMPDEST POP POP POP POP JUMPDEST POP POP DUP1 DUP1 PUSH3 0x374B SWAP1 PUSH3 0x4DD9 JUMP JUMPDEST SWAP2 POP POP PUSH3 0x3581 JUMP JUMPDEST POP POP JUMP JUMPDEST PUSH2 0x19ED DUP1 PUSH3 0x55C2 DUP4 CODECOPY ADD SWAP1 JUMP JUMPDEST PUSH1 0x40 MLOAD DUP1 PUSH1 0xA0 ADD PUSH1 0x40 MSTORE DUP1 PUSH1 0x0 PUSH20 0xFFFFFFFFFFFFFFFFFFFFFFFFFFFFFFFFFFFFFFFF AND DUP2 MSTORE PUSH1 0x20 ADD PUSH1 0x0 ISZERO ISZERO DUP2 MSTORE PUSH1 0x20 ADD PUSH1 0x0 DUP2 MSTORE PUSH1 0x20 ADD PUSH1 0x0 DUP2 MSTORE PUSH1 0x20 ADD PUSH1 0x0 DUP2 MSTORE POP SWAP1 JUMP JUMPDEST PUSH1 0x0 PUSH3 0x37C4 PUSH3 0x37BE DUP5 PUSH3 0x4AF6 JUMP JUMPDEST PUSH3 0x4ACD JUMP JUMPDEST SWAP1 POP DUP1 DUP4 DUP3 MSTORE PUSH1 0x20 DUP3 ADD SWAP1 POP DUP3 DUP6 PUSH1 0x20 DUP7 MUL DUP3 ADD GT ISZERO PUSH3 0x37EA JUMPI PUSH3 0x37E9 PUSH3 0x4EED JUMP JUMPDEST JUMPDEST PUSH1 0x0 JUMPDEST DUP6 DUP2 LT ISZERO PUSH3 0x381E JUMPI DUP2 PUSH3 0x3803 DUP9 DUP3 PUSH3 0x383F JUMP JUMPDEST DUP5 MSTORE PUSH1 0x20 DUP5 ADD SWAP4 POP PUSH1 0x20 DUP4 ADD SWAP3 POP POP PUSH1 0x1 DUP2 ADD SWAP1 POP PUSH3 0x37ED JUMP JUMPDEST POP POP POP SWAP4 SWAP3 POP POP POP JUMP JUMPDEST PUSH1 0x0 DUP2 CALLDATALOAD SWAP1 POP PUSH3 0x3839 DUP2 PUSH3 0x553F JUMP JUMPDEST SWAP3 SWAP2 POP POP JUMP JUMPDEST PUSH1 0x0 DUP2 MLOAD SWAP1 POP PUSH3 0x3850 DUP2 PUSH3 0x553F JUMP JUMPDEST SWAP3 SWAP2 POP POP JUMP JUMPDEST PUSH1 0x0 DUP2 CALLDATALOAD SWAP1 POP PUSH3 0x3867 DUP2 PUSH3 0x5559 JUMP JUMPDEST SWAP3 SWAP2 POP POP JUMP JUMPDEST PUSH1 0x0 DUP3 PUSH1 0x1F DUP4 ADD SLT PUSH3 0x3885 JUMPI PUSH3 0x3884 PUSH3 0x4EE3 JUMP JUMPDEST JUMPDEST DUP2 MLOAD PUSH3 0x3897 DUP5 DUP3 PUSH1 0x20 DUP7 ADD PUSH3 0x37AD JUMP JUMPDEST SWAP2 POP POP SWAP3 SWAP2 POP POP JUMP JUMPDEST PUSH1 0x0 DUP2 CALLDATALOAD SWAP1 POP PUSH3 0x38B1 DUP2 PUSH3 0x5573 JUMP JUMPDEST SWAP3 SWAP2 POP POP JUMP JUMPDEST PUSH1 0x0 DUP2 MLOAD SWAP1 POP PUSH3 0x38C8 DUP2 PUSH3 0x5573 JUMP JUMPDEST SWAP3 SWAP2 POP POP JUMP JUMPDEST PUSH1 0x0 PUSH1 0xA0 DUP3 DUP5 SUB SLT ISZERO PUSH3 0x38E7 JUMPI PUSH3 0x38E6 PUSH3 0x4EE8 JUMP JUMPDEST JUMPDEST PUSH3 0x38F3 PUSH1 0xA0 PUSH3 0x4ACD JUMP JUMPDEST SWAP1 POP PUSH1 0x0 PUSH3 0x3905 DUP5 DUP3 DUP6 ADD PUSH3 0x3828 JUMP JUMPDEST PUSH1 0x0 DUP4 ADD MSTORE POP PUSH1 0x20 PUSH3 0x391B DUP5 DUP3 DUP6 ADD PUSH3 0x38A0 JUMP JUMPDEST PUSH1 0x20 DUP4 ADD MSTORE POP PUSH1 0x40 PUSH3 0x3931 DUP5 DUP3 DUP6 ADD PUSH3 0x3969 JUMP JUMPDEST PUSH1 0x40 DUP4 ADD MSTORE POP PUSH1 0x60 PUSH3 0x3947 DUP5 DUP3 DUP6 ADD PUSH3 0x3969 JUMP JUMPDEST PUSH1 0x60 DUP4 ADD MSTORE POP PUSH1 0x80 PUSH3 0x395D DUP5 DUP3 DUP6 ADD PUSH3 0x3969 JUMP JUMPDEST PUSH1 0x80 DUP4 ADD MSTORE POP SWAP3 SWAP2 POP POP JUMP JUMPDEST PUSH1 0x0 DUP2 CALLDATALOAD SWAP1 POP PUSH3 0x397A DUP2 PUSH3 0x558D JUMP JUMPDEST SWAP3 SWAP2 POP POP JUMP JUMPDEST PUSH1 0x0 DUP2 MLOAD SWAP1 POP PUSH3 0x3991 DUP2 PUSH3 0x558D JUMP JUMPDEST SWAP3 SWAP2 POP POP JUMP JUMPDEST PUSH1 0x0 DUP2 MLOAD SWAP1 POP PUSH3 0x39A8 DUP2 PUSH3 0x55A7 JUMP JUMPDEST SWAP3 SWAP2 POP POP JUMP JUMPDEST PUSH1 0x0 PUSH1 0x20 DUP3 DUP5 SUB SLT ISZERO PUSH3 0x39C7 JUMPI PUSH3 0x39C6 PUSH3 0x4EF7 JUMP JUMPDEST JUMPDEST PUSH1 0x0 PUSH3 0x39D7 DUP5 DUP3 DUP6 ADD PUSH3 0x3828 JUMP JUMPDEST SWAP2 POP POP SWAP3 SWAP2 POP POP JUMP JUMPDEST PUSH1 0x0 PUSH1 0x20 DUP3 DUP5 SUB SLT ISZERO PUSH3 0x39F9 JUMPI PUSH3 0x39F8 PUSH3 0x4EF7 JUMP JUMPDEST JUMPDEST PUSH1 0x0 PUSH3 0x3A09 DUP5 DUP3 DUP6 ADD PUSH3 0x3856 JUMP JUMPDEST SWAP2 POP POP SWAP3 SWAP2 POP POP JUMP JUMPDEST PUSH1 0x0 PUSH1 0x20 DUP3 DUP5 SUB SLT ISZERO PUSH3 0x3A2B JUMPI PUSH3 0x3A2A PUSH3 0x4EF7 JUMP JUMPDEST JUMPDEST PUSH1 0x0 DUP3 ADD MLOAD PUSH8 0xFFFFFFFFFFFFFFFF DUP2 GT ISZERO PUSH3 0x3A4C JUMPI PUSH3 0x3A4B PUSH3 0x4EF2 JUMP JUMPDEST JUMPDEST PUSH3 0x3A5A DUP5 DUP3 DUP6 ADD PUSH3 0x386D JUMP JUMPDEST SWAP2 POP POP SWAP3 SWAP2 POP POP JUMP JUMPDEST PUSH1 0x0 PUSH1 0x20 DUP3 DUP5 SUB SLT ISZERO PUSH3 0x3A7C JUMPI PUSH3 0x3A7B PUSH3 0x4EF7 JUMP JUMPDEST JUMPDEST PUSH1 0x0 PUSH3 0x3A8C DUP5 DUP3 DUP6 ADD PUSH3 0x38B7 JUMP JUMPDEST SWAP2 POP POP SWAP3 SWAP2 POP POP JUMP JUMPDEST PUSH1 0x0 PUSH1 0xA0 DUP3 DUP5 SUB SLT ISZERO PUSH3 0x3AAE JUMPI PUSH3 0x3AAD PUSH3 0x4EF7 JUMP JUMPDEST JUMPDEST PUSH1 0x0 PUSH3 0x3ABE DUP5 DUP3 DUP6 ADD PUSH3 0x38CE JUMP JUMPDEST SWAP2 POP POP SWAP3 SWAP2 POP POP JUMP JUMPDEST PUSH1 0x0 PUSH1 0x20 DUP3 DUP5 SUB SLT ISZERO PUSH3 0x3AE0 JUMPI PUSH3 0x3ADF PUSH3 0x4EF7 JUMP JUMPDEST JUMPDEST PUSH1 0x0 PUSH3 0x3AF0 DUP5 DUP3 DUP6 ADD PUSH3 0x3969 JUMP JUMPDEST SWAP2 POP POP SWAP3 SWAP2 POP POP JUMP JUMPDEST PUSH1 0x0 PUSH1 0x20 DUP3 DUP5 SUB SLT ISZERO PUSH3 0x3B12 JUMPI PUSH3 0x3B11 PUSH3 0x4EF7 JUMP JUMPDEST JUMPDEST PUSH1 0x0 PUSH3 0x3B22 DUP5 DUP3 DUP6 ADD PUSH3 0x3980 JUMP JUMPDEST SWAP2 POP POP SWAP3 SWAP2 POP POP JUMP JUMPDEST PUSH1 0x0 DUP1 PUSH1 0x40 DUP4 DUP6 SUB SLT ISZERO PUSH3 0x3B45 JUMPI PUSH3 0x3B44 PUSH3 0x4EF7 JUMP JUMPDEST JUMPDEST PUSH1 0x0 PUSH3 0x3B55 DUP6 DUP3 DUP7 ADD PUSH3 0x3980 JUMP JUMPDEST SWAP3 POP POP PUSH1 0x20 PUSH3 0x3B68 DUP6 DUP3 DUP7 ADD PUSH3 0x3997 JUMP JUMPDEST SWAP2 POP POP SWAP3 POP SWAP3 SWAP1 POP JUMP JUMPDEST PUSH3 0x3B7D DUP2 PUSH3 0x4C9B JUMP JUMPDEST DUP3 MSTORE POP POP JUMP JUMPDEST PUSH3 0x3B8E DUP2 PUSH3 0x4C1B JUMP JUMPDEST DUP3 MSTORE POP POP JUMP JUMPDEST PUSH3 0x3B9F DUP2 PUSH3 0x4C1B JUMP JUMPDEST DUP3 MSTORE POP POP JUMP JUMPDEST PUSH3 0x3BB0 DUP2 PUSH3 0x4C43 JUMP JUMPDEST DUP3 MSTORE POP POP JUMP JUMPDEST PUSH3 0x3BC1 DUP2 PUSH3 0x4C43 JUMP JUMPDEST DUP3 MSTORE POP POP JUMP JUMPDEST PUSH3 0x3BD2 DUP2 PUSH3 0x4CAF JUMP JUMPDEST DUP3 MSTORE POP POP JUMP JUMPDEST PUSH3 0x3BE3 DUP2 PUSH3 0x4CC3 JUMP JUMPDEST DUP3 MSTORE POP POP JUMP JUMPDEST PUSH3 0x3BF4 DUP2 PUSH3 0x4CD7 JUMP JUMPDEST DUP3 MSTORE POP POP JUMP JUMPDEST PUSH1 0x0 PUSH3 0x3C07 DUP3 PUSH3 0x4B25 JUMP JUMPDEST PUSH3 0x3C13 DUP2 DUP6 PUSH3 0x4B3B JUMP JUMPDEST SWAP4 POP PUSH3 0x3C25 DUP2 DUP6 PUSH1 0x20 DUP7 ADD PUSH3 0x4D13 JUMP JUMPDEST PUSH3 0x3C30 DUP2 PUSH3 0x4EFC JUMP JUMPDEST DUP5 ADD SWAP2 POP POP SWAP3 SWAP2 POP POP JUMP JUMPDEST PUSH1 0x0 PUSH3 0x3C4A PUSH1 0x1C DUP4 PUSH3 0x4B3B JUMP JUMPDEST SWAP2 POP PUSH3 0x3C57 DUP3 PUSH3 0x4F27 JUMP JUMPDEST PUSH1 0x20 DUP3 ADD SWAP1 POP SWAP2 SWAP1 POP JUMP JUMPDEST PUSH1 0x0 PUSH3 0x3C71 PUSH1 0x20 DUP4 PUSH3 0x4B3B JUMP JUMPDEST SWAP2 POP PUSH3 0x3C7E DUP3 PUSH3 0x4F50 JUMP JUMPDEST PUSH1 0x20 DUP3 ADD SWAP1 POP SWAP2 SWAP1 POP JUMP JUMPDEST PUSH1 0x0 PUSH3 0x3C98 PUSH1 0x19 DUP4 PUSH3 0x4B3B JUMP JUMPDEST SWAP2 POP PUSH3 0x3CA5 DUP3 PUSH3 0x4F79 JUMP JUMPDEST PUSH1 0x20 DUP3 ADD SWAP1 POP SWAP2 SWAP1 POP JUMP JUMPDEST PUSH1 0x0 PUSH3 0x3CBF PUSH1 0x11 DUP4 PUSH3 0x4B3B JUMP JUMPDEST SWAP2 POP PUSH3 0x3CCC DUP3 PUSH3 0x4FA2 JUMP JUMPDEST PUSH1 0x20 DUP3 ADD SWAP1 POP SWAP2 SWAP1 POP JUMP JUMPDEST PUSH1 0x0 PUSH3 0x3CE6 PUSH1 0x26 DUP4 PUSH3 0x4B3B JUMP JUMPDEST SWAP2 POP PUSH3 0x3CF3 DUP3 PUSH3 0x4FCB JUMP JUMPDEST PUSH1 0x40 DUP3 ADD SWAP1 POP SWAP2 SWAP1 POP JUMP JUMPDEST PUSH1 0x0 PUSH3 0x3D0D PUSH1 0x11 DUP4 PUSH3 0x4B3B JUMP JUMPDEST SWAP2 POP PUSH3 0x3D1A DUP3 PUSH3 0x501A JUMP JUMPDEST PUSH1 0x20 DUP3 ADD SWAP1 POP SWAP2 SWAP1 POP JUMP JUMPDEST PUSH1 0x0 PUSH3 0x3D34 PUSH1 0x27 DUP4 PUSH3 0x4B3B JUMP JUMPDEST SWAP2 POP PUSH3 0x3D41 DUP3 PUSH3 0x5043 JUMP JUMPDEST PUSH1 0x40 DUP3 ADD SWAP1 POP SWAP2 SWAP1 POP JUMP JUMPDEST PUSH1 0x0 PUSH3 0x3D5B PUSH1 0x1E DUP4 PUSH3 0x4B3B JUMP JUMPDEST SWAP2 POP PUSH3 0x3D68 DUP3 PUSH3 0x5092 JUMP JUMPDEST PUSH1 0x20 DUP3 ADD SWAP1 POP SWAP2 SWAP1 POP JUMP JUMPDEST PUSH1 0x0 PUSH3 0x3D82 PUSH1 0x12 DUP4 PUSH3 0x4B3B JUMP JUMPDEST SWAP2 POP PUSH3 0x3D8F DUP3 PUSH3 0x50BB JUMP JUMPDEST PUSH1 0x20 DUP3 ADD SWAP1 POP SWAP2 SWAP1 POP JUMP JUMPDEST PUSH1 0x0 PUSH3 0x3DA9 PUSH1 0x25 DUP4 PUSH3 0x4B3B JUMP JUMPDEST SWAP2 POP PUSH3 0x3DB6 DUP3 PUSH3 0x50E4 JUMP JUMPDEST PUSH1 0x40 DUP3 ADD SWAP1 POP SWAP2 SWAP1 POP JUMP JUMPDEST PUSH1 0x0 PUSH3 0x3DD0 PUSH1 0x2A DUP4 PUSH3 0x4B3B JUMP JUMPDEST SWAP2 POP PUSH3 0x3DDD DUP3 PUSH3 0x5133 JUMP JUMPDEST PUSH1 0x40 DUP3 ADD SWAP1 POP SWAP2 SWAP1 POP JUMP JUMPDEST PUSH1 0x0 PUSH3 0x3DF7 PUSH1 0x16 DUP4 PUSH3 0x4B3B JUMP JUMPDEST SWAP2 POP PUSH3 0x3E04 DUP3 PUSH3 0x5182 JUMP JUMPDEST PUSH1 0x20 DUP3 ADD SWAP1 POP SWAP2 SWAP1 POP JUMP JUMPDEST PUSH1 0x0 PUSH3 0x3E1E PUSH1 0x2C DUP4 PUSH3 0x4B3B JUMP JUMPDEST SWAP2 POP PUSH3 0x3E2B DUP3 PUSH3 0x51AB JUMP JUMPDEST PUSH1 0x40 DUP3 ADD SWAP1 POP SWAP2 SWAP1 POP JUMP JUMPDEST PUSH1 0x0 PUSH3 0x3E45 PUSH1 0x19 DUP4 PUSH3 0x4B3B JUMP JUMPDEST SWAP2 POP PUSH3 0x3E52 DUP3 PUSH3 0x51FA JUMP JUMPDEST PUSH1 0x20 DUP3 ADD SWAP1 POP SWAP2 SWAP1 POP JUMP JUMPDEST PUSH1 0x0 PUSH3 0x3E6C PUSH1 0x1D DUP4 PUSH3 0x4B3B JUMP JUMPDEST SWAP2 POP PUSH3 0x3E79 DUP3 PUSH3 0x5223 JUMP JUMPDEST PUSH1 0x20 DUP3 ADD SWAP1 POP SWAP2 SWAP1 POP JUMP JUMPDEST PUSH1 0x0 PUSH3 0x3E93 PUSH1 0x1E DUP4 PUSH3 0x4B3B JUMP JUMPDEST SWAP2 POP PUSH3 0x3EA0 DUP3 PUSH3 0x524C JUMP JUMPDEST PUSH1 0x20 DUP3 ADD SWAP1 POP SWAP2 SWAP1 POP JUMP JUMPDEST PUSH1 0x0 PUSH3 0x3EBA PUSH1 0x23 DUP4 PUSH3 0x4B3B JUMP JUMPDEST SWAP2 POP PUSH3 0x3EC7 DUP3 PUSH3 0x5275 JUMP JUMPDEST PUSH1 0x40 DUP3 ADD SWAP1 POP SWAP2 SWAP1 POP JUMP JUMPDEST PUSH1 0x0 PUSH3 0x3EE1 PUSH1 0xE DUP4 PUSH3 0x4B3B JUMP JUMPDEST SWAP2 POP PUSH3 0x3EEE DUP3 PUSH3 0x52C4 JUMP JUMPDEST PUSH1 0x20 DUP3 ADD SWAP1 POP SWAP2 SWAP1 POP JUMP JUMPDEST PUSH1 0x0 PUSH3 0x3F08 PUSH1 0x13 DUP4 PUSH3 0x4B3B JUMP JUMPDEST SWAP2 POP PUSH3 0x3F15 DUP3 PUSH3 0x52ED JUMP JUMPDEST PUSH1 0x20 DUP3 ADD SWAP1 POP SWAP2 SWAP1 POP JUMP JUMPDEST PUSH1 0x0 PUSH3 0x3F2F PUSH1 0x1F DUP4 PUSH3 0x4B3B JUMP JUMPDEST SWAP2 POP PUSH3 0x3F3C DUP3 PUSH3 0x5316 JUMP JUMPDEST PUSH1 0x20 DUP3 ADD SWAP1 POP SWAP2 SWAP1 POP JUMP JUMPDEST PUSH1 0x0 PUSH3 0x3F56 PUSH1 0x18 DUP4 PUSH3 0x4B3B JUMP JUMPDEST SWAP2 POP PUSH3 0x3F63 DUP3 PUSH3 0x533F JUMP JUMPDEST PUSH1 0x20 DUP3 ADD SWAP1 POP SWAP2 SWAP1 POP JUMP JUMPDEST PUSH1 0x0 PUSH3 0x3F7D PUSH1 0x22 DUP4 PUSH3 0x4B3B JUMP JUMPDEST SWAP2 POP PUSH3 0x3F8A DUP3 PUSH3 0x5368 JUMP JUMPDEST PUSH1 0x40 DUP3 ADD SWAP1 POP SWAP2 SWAP1 POP JUMP JUMPDEST PUSH1 0x0 PUSH3 0x3FA4 PUSH1 0x1F DUP4 PUSH3 0x4B3B JUMP JUMPDEST SWAP2 POP PUSH3 0x3FB1 DUP3 PUSH3 0x53B7 JUMP JUMPDEST PUSH1 0x20 DUP3 ADD SWAP1 POP SWAP2 SWAP1 POP JUMP JUMPDEST PUSH1 0x0 PUSH3 0x3FCB PUSH1 0x20 DUP4 PUSH3 0x4B3B JUMP JUMPDEST SWAP2 POP PUSH3 0x3FD8 DUP3 PUSH3 0x53E0 JUMP JUMPDEST PUSH1 0x20 DUP3 ADD SWAP1 POP SWAP2 SWAP1 POP JUMP JUMPDEST PUSH1 0x0 PUSH3 0x3FF2 PUSH1 0x11 DUP4 PUSH3 0x4B3B JUMP JUMPDEST SWAP2 POP PUSH3 0x3FFF DUP3 PUSH3 0x5409 JUMP JUMPDEST PUSH1 0x20 DUP3 ADD SWAP1 POP SWAP2 SWAP1 POP JUMP JUMPDEST PUSH1 0x0 PUSH3 0x4019 PUSH1 0x16 DUP4 PUSH3 0x4B3B JUMP JUMPDEST SWAP2 POP PUSH3 0x4026 DUP3 PUSH3 0x5432 JUMP JUMPDEST PUSH1 0x20 DUP3 ADD SWAP1 POP SWAP2 SWAP1 POP JUMP JUMPDEST PUSH1 0x0 PUSH3 0x4040 PUSH1 0x22 DUP4 PUSH3 0x4B3B JUMP JUMPDEST SWAP2 POP PUSH3 0x404D DUP3 PUSH3 0x545B JUMP JUMPDEST PUSH1 0x40 DUP3 ADD SWAP1 POP SWAP2 SWAP1 POP JUMP JUMPDEST PUSH1 0x0 PUSH3 0x4067 PUSH1 0xE DUP4 PUSH3 0x4B3B JUMP JUMPDEST SWAP2 POP PUSH3 0x4074 DUP3 PUSH3 0x54AA JUMP JUMPDEST PUSH1 0x20 DUP3 ADD SWAP1 POP SWAP2 SWAP1 POP JUMP JUMPDEST PUSH1 0x0 PUSH3 0x408E PUSH1 0x0 DUP4 PUSH3 0x4B30 JUMP JUMPDEST SWAP2 POP PUSH3 0x409B DUP3 PUSH3 0x54D3 JUMP JUMPDEST PUSH1 0x0 DUP3 ADD SWAP1 POP SWAP2 SWAP1 POP JUMP JUMPDEST PUSH1 0x0 PUSH3 0x40B5 PUSH1 0x13 DUP4 PUSH3 0x4B3B JUMP JUMPDEST SWAP2 POP PUSH3 0x40C2 DUP3 PUSH3 0x54D6 JUMP JUMPDEST PUSH1 0x20 DUP3 ADD SWAP1 POP SWAP2 SWAP1 POP JUMP JUMPDEST PUSH1 0x0 PUSH3 0x40DC PUSH1 0x15 DUP4 PUSH3 0x4B3B JUMP JUMPDEST SWAP2 POP PUSH3 0x40E9 DUP3 PUSH3 0x54FF JUMP JUMPDEST PUSH1 0x20 DUP3 ADD SWAP1 POP SWAP2 SWAP1 POP JUMP JUMPDEST PUSH1 0xA0 DUP3 ADD PUSH1 0x0 DUP3 ADD MLOAD PUSH3 0x410C PUSH1 0x0 DUP6 ADD DUP3 PUSH3 0x3B83 JUMP JUMPDEST POP PUSH1 0x20 DUP3 ADD MLOAD PUSH3 0x4121 PUSH1 0x20 DUP6 ADD DUP3 PUSH3 0x3BA5 JUMP JUMPDEST POP PUSH1 0x40 DUP3 ADD MLOAD PUSH3 0x4136 PUSH1 0x40 DUP6 ADD DUP3 PUSH3 0x4214 JUMP JUMPDEST POP PUSH1 0x60 DUP3 ADD MLOAD PUSH3 0x414B PUSH1 0x60 DUP6 ADD DUP3 PUSH3 0x4214 JUMP JUMPDEST POP PUSH1 0x80 DUP3 ADD MLOAD PUSH3 0x4160 PUSH1 0x80 DUP6 ADD DUP3 PUSH3 0x4214 JUMP JUMPDEST POP POP POP POP JUMP JUMPDEST PUSH1 0xA0 DUP3 ADD PUSH1 0x0 DUP1 DUP4 ADD SLOAD SWAP1 POP PUSH3 0x417D DUP2 PUSH3 0x4D49 JUMP JUMPDEST PUSH3 0x418C PUSH1 0x0 DUP7 ADD DUP3 PUSH3 0x3B83 JUMP JUMPDEST POP PUSH3 0x4198 DUP2 PUSH3 0x4D85 JUMP JUMPDEST PUSH3 0x41A7 PUSH1 0x20 DUP7 ADD DUP3 PUSH3 0x3BA5 JUMP JUMPDEST POP PUSH1 0x1 DUP4 ADD SLOAD SWAP1 POP PUSH3 0x41BA DUP2 PUSH3 0x4D67 JUMP JUMPDEST PUSH3 0x41C9 PUSH1 0x40 DUP7 ADD DUP3 PUSH3 0x4214 JUMP JUMPDEST POP PUSH1 0x2 DUP4 ADD SLOAD SWAP1 POP PUSH3 0x41DC DUP2 PUSH3 0x4D67 JUMP JUMPDEST PUSH3 0x41EB PUSH1 0x60 DUP7 ADD DUP3 PUSH3 0x4214 JUMP JUMPDEST POP PUSH1 0x3 DUP4 ADD SLOAD SWAP1 POP PUSH3 0x41FE DUP2 PUSH3 0x4D67 JUMP JUMPDEST PUSH3 0x420D PUSH1 0x80 DUP7 ADD DUP3 PUSH3 0x4214 JUMP JUMPDEST POP POP POP POP POP JUMP JUMPDEST PUSH3 0x421F DUP2 PUSH3 0x4C84 JUMP JUMPDEST DUP3 MSTORE POP POP JUMP JUMPDEST PUSH3 0x4230 DUP2 PUSH3 0x4C84 JUMP JUMPDEST DUP3 MSTORE POP POP JUMP JUMPDEST PUSH3 0x4241 DUP2 PUSH3 0x4C8E JUMP JUMPDEST DUP3 MSTORE POP POP JUMP JUMPDEST PUSH1 0x0 PUSH3 0x4254 DUP3 PUSH3 0x407F JUMP JUMPDEST SWAP2 POP DUP2 SWAP1 POP SWAP2 SWAP1 POP JUMP JUMPDEST PUSH1 0x0 PUSH1 0x20 DUP3 ADD SWAP1 POP PUSH3 0x4275 PUSH1 0x0 DUP4 ADD DUP5 PUSH3 0x3B94 JUMP JUMPDEST SWAP3 SWAP2 POP POP JUMP JUMPDEST PUSH1 0x0 PUSH1 0x40 DUP3 ADD SWAP1 POP PUSH3 0x4292 PUSH1 0x0 DUP4 ADD DUP6 PUSH3 0x3B72 JUMP JUMPDEST PUSH3 0x42A1 PUSH1 0x20 DUP4 ADD DUP5 PUSH3 0x4225 JUMP JUMPDEST SWAP4 SWAP3 POP POP POP JUMP JUMPDEST PUSH1 0x0 PUSH1 0x40 DUP3 ADD SWAP1 POP PUSH3 0x42BF PUSH1 0x0 DUP4 ADD DUP6 PUSH3 0x3B94 JUMP JUMPDEST PUSH3 0x42CE PUSH1 0x20 DUP4 ADD DUP5 PUSH3 0x3B94 JUMP JUMPDEST SWAP4 SWAP3 POP POP POP JUMP JUMPDEST PUSH1 0x0 PUSH1 0x60 DUP3 ADD SWAP1 POP PUSH3 0x42EC PUSH1 0x0 DUP4 ADD DUP7 PUSH3 0x3B94 JUMP JUMPDEST PUSH3 0x42FB PUSH1 0x20 DUP4 ADD DUP6 PUSH3 0x3B72 JUMP JUMPDEST PUSH3 0x430A PUSH1 0x40 DUP4 ADD DUP5 PUSH3 0x4225 JUMP JUMPDEST SWAP5 SWAP4 POP POP POP POP JUMP JUMPDEST PUSH1 0x0 PUSH2 0x100 DUP3 ADD SWAP1 POP PUSH3 0x432A PUSH1 0x0 DUP4 ADD DUP8 PUSH3 0x3B94 JUMP JUMPDEST PUSH3 0x4339 PUSH1 0x20 DUP4 ADD DUP7 PUSH3 0x3B94 JUMP JUMPDEST PUSH3 0x4348 PUSH1 0x40 DUP4 ADD DUP6 PUSH3 0x3B94 JUMP JUMPDEST PUSH3 0x4357 PUSH1 0x60 DUP4 ADD DUP5 PUSH3 0x4166 JUMP JUMPDEST SWAP6 SWAP5 POP POP POP POP POP JUMP JUMPDEST PUSH1 0x0 PUSH1 0x40 DUP3 ADD SWAP1 POP PUSH3 0x4377 PUSH1 0x0 DUP4 ADD DUP6 PUSH3 0x3B94 JUMP JUMPDEST PUSH3 0x4386 PUSH1 0x20 DUP4 ADD DUP5 PUSH3 0x3BB6 JUMP JUMPDEST SWAP4 SWAP3 POP POP POP JUMP JUMPDEST PUSH1 0x0 PUSH1 0x40 DUP3 ADD SWAP1 POP PUSH3 0x43A4 PUSH1 0x0 DUP4 ADD DUP6 PUSH3 0x3B94 JUMP JUMPDEST PUSH3 0x43B3 PUSH1 0x20 DUP4 ADD DUP5 PUSH3 0x3BD8 JUMP JUMPDEST SWAP4 SWAP3 POP POP POP JUMP JUMPDEST PUSH1 0x0 PUSH1 0x40 DUP3 ADD SWAP1 POP PUSH3 0x43D1 PUSH1 0x0 DUP4 ADD DUP6 PUSH3 0x3B94 JUMP JUMPDEST PUSH3 0x43E0 PUSH1 0x20 DUP4 ADD DUP5 PUSH3 0x3BE9 JUMP JUMPDEST SWAP4 SWAP3 POP POP POP JUMP JUMPDEST PUSH1 0x0 PUSH1 0x40 DUP3 ADD SWAP1 POP PUSH3 0x43FE PUSH1 0x0 DUP4 ADD DUP6 PUSH3 0x3B94 JUMP JUMPDEST PUSH3 0x440D PUSH1 0x20 DUP4 ADD DUP5 PUSH3 0x4225 JUMP JUMPDEST SWAP4 SWAP3 POP POP POP JUMP JUMPDEST PUSH1 0x0 PUSH1 0x80 DUP3 ADD SWAP1 POP PUSH3 0x442B PUSH1 0x0 DUP4 ADD DUP8 PUSH3 0x3B94 JUMP JUMPDEST PUSH3 0x443A PUSH1 0x20 DUP4 ADD DUP7 PUSH3 0x4225 JUMP JUMPDEST PUSH3 0x4449 PUSH1 0x40 DUP4 ADD DUP6 PUSH3 0x3BE9 JUMP JUMPDEST PUSH3 0x4458 PUSH1 0x60 DUP4 ADD DUP5 PUSH3 0x4225 JUMP JUMPDEST SWAP6 SWAP5 POP POP POP POP POP JUMP JUMPDEST PUSH1 0x0 PUSH1 0x60 DUP3 ADD SWAP1 POP PUSH3 0x4478 PUSH1 0x0 DUP4 ADD DUP7 PUSH3 0x3B94 JUMP JUMPDEST PUSH3 0x4487 PUSH1 0x20 DUP4 ADD DUP6 PUSH3 0x4225 JUMP JUMPDEST PUSH3 0x4496 PUSH1 0x40 DUP4 ADD DUP5 PUSH3 0x4225 JUMP JUMPDEST SWAP5 SWAP4 POP POP POP POP JUMP JUMPDEST PUSH1 0x0 PUSH1 0x80 DUP3 ADD SWAP1 POP PUSH3 0x44B5 PUSH1 0x0 DUP4 ADD DUP8 PUSH3 0x3B94 JUMP JUMPDEST PUSH3 0x44C4 PUSH1 0x20 DUP4 ADD DUP7 PUSH3 0x4225 JUMP JUMPDEST PUSH3 0x44D3 PUSH1 0x40 DUP4 ADD DUP6 PUSH3 0x4225 JUMP JUMPDEST PUSH3 0x44E2 PUSH1 0x60 DUP4 ADD DUP5 PUSH3 0x4225 JUMP JUMPDEST SWAP6 SWAP5 POP POP POP POP POP JUMP JUMPDEST PUSH1 0x0 PUSH1 0x60 DUP3 ADD SWAP1 POP PUSH3 0x4502 PUSH1 0x0 DUP4 ADD DUP7 PUSH3 0x3B94 JUMP JUMPDEST PUSH3 0x4511 PUSH1 0x20 DUP4 ADD DUP6 PUSH3 0x4225 JUMP JUMPDEST PUSH3 0x4520 PUSH1 0x40 DUP4 ADD DUP5 PUSH3 0x4236 JUMP JUMPDEST SWAP5 SWAP4 POP POP POP POP JUMP JUMPDEST PUSH1 0x0 PUSH1 0x40 DUP3 ADD SWAP1 POP PUSH3 0x453F PUSH1 0x0 DUP4 ADD DUP6 PUSH3 0x3B94 JUMP JUMPDEST PUSH3 0x454E PUSH1 0x20 DUP4 ADD DUP5 PUSH3 0x4236 JUMP JUMPDEST SWAP4 SWAP3 POP POP POP JUMP JUMPDEST PUSH1 0x0 PUSH1 0x60 DUP3 ADD SWAP1 POP PUSH3 0x456C PUSH1 0x0 DUP4 ADD DUP7 PUSH3 0x3BC7 JUMP JUMPDEST PUSH3 0x457B PUSH1 0x20 DUP4 ADD DUP6 PUSH3 0x3B72 JUMP JUMPDEST PUSH3 0x458A PUSH1 0x40 DUP4 ADD DUP5 PUSH3 0x4225 JUMP JUMPDEST SWAP5 SWAP4 POP POP POP POP JUMP JUMPDEST PUSH1 0x0 PUSH1 0x20 DUP3 ADD SWAP1 POP DUP2 DUP2 SUB PUSH1 0x0 DUP4 ADD MSTORE PUSH3 0x45AE DUP2 DUP5 PUSH3 0x3BFA JUMP JUMPDEST SWAP1 POP SWAP3 SWAP2 POP POP JUMP JUMPDEST PUSH1 0x0 PUSH1 0x20 DUP3 ADD SWAP1 POP DUP2 DUP2 SUB PUSH1 0x0 DUP4 ADD MSTORE PUSH3 0x45D1 DUP2 PUSH3 0x3C3B JUMP JUMPDEST SWAP1 POP SWAP2 SWAP1 POP JUMP JUMPDEST PUSH1 0x0 PUSH1 0x20 DUP3 ADD SWAP1 POP DUP2 DUP2 SUB PUSH1 0x0 DUP4 ADD MSTORE PUSH3 0x45F3 DUP2 PUSH3 0x3C62 JUMP JUMPDEST SWAP1 POP SWAP2 SWAP1 POP JUMP JUMPDEST PUSH1 0x0 PUSH1 0x20 DUP3 ADD SWAP1 POP DUP2 DUP2 SUB PUSH1 0x0 DUP4 ADD MSTORE PUSH3 0x4615 DUP2 PUSH3 0x3C89 JUMP JUMPDEST SWAP1 POP SWAP2 SWAP1 POP JUMP JUMPDEST PUSH1 0x0 PUSH1 0x20 DUP3 ADD SWAP1 POP DUP2 DUP2 SUB PUSH1 0x0 DUP4 ADD MSTORE PUSH3 0x4637 DUP2 PUSH3 0x3CB0 JUMP JUMPDEST SWAP1 POP SWAP2 SWAP1 POP JUMP JUMPDEST PUSH1 0x0 PUSH1 0x20 DUP3 ADD SWAP1 POP DUP2 DUP2 SUB PUSH1 0x0 DUP4 ADD MSTORE PUSH3 0x4659 DUP2 PUSH3 0x3CD7 JUMP JUMPDEST SWAP1 POP SWAP2 SWAP1 POP JUMP JUMPDEST PUSH1 0x0 PUSH1 0x20 DUP3 ADD SWAP1 POP DUP2 DUP2 SUB PUSH1 0x0 DUP4 ADD MSTORE PUSH3 0x467B DUP2 PUSH3 0x3CFE JUMP JUMPDEST SWAP1 POP SWAP2 SWAP1 POP JUMP JUMPDEST PUSH1 0x0 PUSH1 0x20 DUP3 ADD SWAP1 POP DUP2 DUP2 SUB PUSH1 0x0 DUP4 ADD MSTORE PUSH3 0x469D DUP2 PUSH3 0x3D25 JUMP JUMPDEST SWAP1 POP SWAP2 SWAP1 POP JUMP JUMPDEST PUSH1 0x0 PUSH1 0x20 DUP3 ADD SWAP1 POP DUP2 DUP2 SUB PUSH1 0x0 DUP4 ADD MSTORE PUSH3 0x46BF DUP2 PUSH3 0x3D4C JUMP JUMPDEST SWAP1 POP SWAP2 SWAP1 POP JUMP JUMPDEST PUSH1 0x0 PUSH1 0x20 DUP3 ADD SWAP1 POP DUP2 DUP2 SUB PUSH1 0x0 DUP4 ADD MSTORE PUSH3 0x46E1 DUP2 PUSH3 0x3D73 JUMP JUMPDEST SWAP1 POP SWAP2 SWAP1 POP JUMP JUMPDEST PUSH1 0x0 PUSH1 0x20 DUP3 ADD SWAP1 POP DUP2 DUP2 SUB PUSH1 0x0 DUP4 ADD MSTORE PUSH3 0x4703 DUP2 PUSH3 0x3D9A JUMP JUMPDEST SWAP1 POP SWAP2 SWAP1 POP JUMP JUMPDEST PUSH1 0x0 PUSH1 0x20 DUP3 ADD SWAP1 POP DUP2 DUP2 SUB PUSH1 0x0 DUP4 ADD MSTORE PUSH3 0x4725 DUP2 PUSH3 0x3DC1 JUMP JUMPDEST SWAP1 POP SWAP2 SWAP1 POP JUMP JUMPDEST PUSH1 0x0 PUSH1 0x20 DUP3 ADD SWAP1 POP DUP2 DUP2 SUB PUSH1 0x0 DUP4 ADD MSTORE PUSH3 0x4747 DUP2 PUSH3 0x3DE8 JUMP JUMPDEST SWAP1 POP SWAP2 SWAP1 POP JUMP JUMPDEST PUSH1 0x0 PUSH1 0x20 DUP3 ADD SWAP1 POP DUP2 DUP2 SUB PUSH1 0x0 DUP4 ADD MSTORE PUSH3 0x4769 DUP2 PUSH3 0x3E0F JUMP JUMPDEST SWAP1 POP SWAP2 SWAP1 POP JUMP JUMPDEST PUSH1 0x0 PUSH1 0x20 DUP3 ADD SWAP1 POP DUP2 DUP2 SUB PUSH1 0x0 DUP4 ADD MSTORE PUSH3 0x478B DUP2 PUSH3 0x3E36 JUMP JUMPDEST SWAP1 POP SWAP2 SWAP1 POP JUMP JUMPDEST PUSH1 0x0 PUSH1 0x20 DUP3 ADD SWAP1 POP DUP2 DUP2 SUB PUSH1 0x0 DUP4 ADD MSTORE PUSH3 0x47AD DUP2 PUSH3 0x3E5D JUMP JUMPDEST SWAP1 POP SWAP2 SWAP1 POP JUMP JUMPDEST PUSH1 0x0 PUSH1 0x20 DUP3 ADD SWAP1 POP DUP2 DUP2 SUB PUSH1 0x0 DUP4 ADD MSTORE PUSH3 0x47CF DUP2 PUSH3 0x3E84 JUMP JUMPDEST SWAP1 POP SWAP2 SWAP1 POP JUMP JUMPDEST PUSH1 0x0 PUSH1 0x20 DUP3 ADD SWAP1 POP DUP2 DUP2 SUB PUSH1 0x0 DUP4 ADD MSTORE PUSH3 0x47F1 DUP2 PUSH3 0x3EAB JUMP JUMPDEST SWAP1 POP SWAP2 SWAP1 POP JUMP JUMPDEST PUSH1 0x0 PUSH1 0x20 DUP3 ADD SWAP1 POP DUP2 DUP2 SUB PUSH1 0x0 DUP4 ADD MSTORE PUSH3 0x4813 DUP2 PUSH3 0x3ED2 JUMP JUMPDEST SWAP1 POP SWAP2 SWAP1 POP JUMP JUMPDEST PUSH1 0x0 PUSH1 0x20 DUP3 ADD SWAP1 POP DUP2 DUP2 SUB PUSH1 0x0 DUP4 ADD MSTORE PUSH3 0x4835 DUP2 PUSH3 0x3EF9 JUMP JUMPDEST SWAP1 POP SWAP2 SWAP1 POP JUMP JUMPDEST PUSH1 0x0 PUSH1 0x20 DUP3 ADD SWAP1 POP DUP2 DUP2 SUB PUSH1 0x0 DUP4 ADD MSTORE PUSH3 0x4857 DUP2 PUSH3 0x3F20 JUMP JUMPDEST SWAP1 POP SWAP2 SWAP1 POP JUMP JUMPDEST PUSH1 0x0 PUSH1 0x20 DUP3 ADD SWAP1 POP DUP2 DUP2 SUB PUSH1 0x0 DUP4 ADD MSTORE PUSH3 0x4879 DUP2 PUSH3 0x3F47 JUMP JUMPDEST SWAP1 POP SWAP2 SWAP1 POP JUMP JUMPDEST PUSH1 0x0 PUSH1 0x20 DUP3 ADD SWAP1 POP DUP2 DUP2 SUB PUSH1 0x0 DUP4 ADD MSTORE PUSH3 0x489B DUP2 PUSH3 0x3F6E JUMP JUMPDEST SWAP1 POP SWAP2 SWAP1 POP JUMP JUMPDEST PUSH1 0x0 PUSH1 0x20 DUP3 ADD SWAP1 POP DUP2 DUP2 SUB PUSH1 0x0 DUP4 ADD MSTORE PUSH3 0x48BD DUP2 PUSH3 0x3F95 JUMP JUMPDEST SWAP1 POP SWAP2 SWAP1 POP JUMP JUMPDEST PUSH1 0x0 PUSH1 0x20 DUP3 ADD SWAP1 POP DUP2 DUP2 SUB PUSH1 0x0 DUP4 ADD MSTORE PUSH3 0x48DF DUP2 PUSH3 0x3FBC JUMP JUMPDEST SWAP1 POP SWAP2 SWAP1 POP JUMP JUMPDEST PUSH1 0x0 PUSH1 0x20 DUP3 ADD SWAP1 POP DUP2 DUP2 SUB PUSH1 0x0 DUP4 ADD MSTORE PUSH3 0x4901 DUP2 PUSH3 0x3FE3 JUMP JUMPDEST SWAP1 POP SWAP2 SWAP1 POP JUMP JUMPDEST PUSH1 0x0 PUSH1 0x20 DUP3 ADD SWAP1 POP DUP2 DUP2 SUB PUSH1 0x0 DUP4 ADD MSTORE PUSH3 0x4923 DUP2 PUSH3 0x400A JUMP JUMPDEST SWAP1 POP SWAP2 SWAP1 POP JUMP JUMPDEST PUSH1 0x0 PUSH1 0x20 DUP3 ADD SWAP1 POP DUP2 DUP2 SUB PUSH1 0x0 DUP4 ADD MSTORE PUSH3 0x4945 DUP2 PUSH3 0x4031 JUMP JUMPDEST SWAP1 POP SWAP2 SWAP1 POP JUMP JUMPDEST PUSH1 0x0 PUSH1 0x20 DUP3 ADD SWAP1 POP DUP2 DUP2 SUB PUSH1 0x0 DUP4 ADD MSTORE PUSH3 0x4967 DUP2 PUSH3 0x4058 JUMP JUMPDEST SWAP1 POP SWAP2 SWAP1 POP JUMP JUMPDEST PUSH1 0x0 PUSH1 0x20 DUP3 ADD SWAP1 POP DUP2 DUP2 SUB PUSH1 0x0 DUP4 ADD MSTORE PUSH3 0x4989 DUP2 PUSH3 0x40A6 JUMP JUMPDEST SWAP1 POP SWAP2 SWAP1 POP JUMP JUMPDEST PUSH1 0x0 PUSH1 0x20 DUP3 ADD SWAP1 POP DUP2 DUP2 SUB PUSH1 0x0 DUP4 ADD MSTORE PUSH3 0x49AB DUP2 PUSH3 0x40CD JUMP JUMPDEST SWAP1 POP SWAP2 SWAP1 POP JUMP JUMPDEST PUSH1 0x0 PUSH1 0xA0 DUP3 ADD SWAP1 POP PUSH3 0x49C9 PUSH1 0x0 DUP4 ADD DUP5 PUSH3 0x40F4 JUMP JUMPDEST SWAP3 SWAP2 POP POP JUMP JUMPDEST PUSH1 0x0 PUSH2 0x160 DUP3 ADD SWAP1 POP PUSH3 0x49E7 PUSH1 0x0 DUP4 ADD DUP15 PUSH3 0x4236 JUMP JUMPDEST PUSH3 0x49F6 PUSH1 0x20 DUP4 ADD DUP14 PUSH3 0x4225 JUMP JUMPDEST PUSH3 0x4A05 PUSH1 0x40 DUP4 ADD DUP13 PUSH3 0x4225 JUMP JUMPDEST PUSH3 0x4A14 PUSH1 0x60 DUP4 ADD DUP12 PUSH3 0x4225 JUMP JUMPDEST PUSH3 0x4A23 PUSH1 0x80 DUP4 ADD DUP11 PUSH3 0x4225 JUMP JUMPDEST PUSH3 0x4A32 PUSH1 0xA0 DUP4 ADD DUP10 PUSH3 0x4225 JUMP JUMPDEST PUSH3 0x4A41 PUSH1 0xC0 DUP4 ADD DUP9 PUSH3 0x3BB6 JUMP JUMPDEST PUSH3 0x4A50 PUSH1 0xE0 DUP4 ADD DUP8 PUSH3 0x4225 JUMP JUMPDEST PUSH3 0x4A60 PUSH2 0x100 DUP4 ADD DUP7 PUSH3 0x4236 JUMP JUMPDEST PUSH3 0x4A70 PUSH2 0x120 DUP4 ADD DUP6 PUSH3 0x4225 JUMP JUMPDEST PUSH3 0x4A80 PUSH2 0x140 DUP4 ADD DUP5 PUSH3 0x4236 JUMP JUMPDEST SWAP13 SWAP12 POP POP POP POP POP POP POP POP POP POP POP POP JUMP JUMPDEST PUSH1 0x0 PUSH1 0x60 DUP3 ADD SWAP1 POP PUSH3 0x4AA7 PUSH1 0x0 DUP4 ADD DUP7 PUSH3 0x4236 JUMP JUMPDEST PUSH3 0x4AB6 PUSH1 0x20 DUP4 ADD DUP6 PUSH3 0x4225 JUMP JUMPDEST PUSH3 0x4AC5 PUSH1 0x40 DUP4 ADD DUP5 PUSH3 0x4236 JUMP JUMPDEST SWAP5 SWAP4 POP POP POP POP JUMP JUMPDEST PUSH1 0x0 PUSH3 0x4AD9 PUSH3 0x4AEC JUMP JUMPDEST SWAP1 POP PUSH3 0x4AE7 DUP3 DUP3 PUSH3 0x4DA3 JUMP JUMPDEST SWAP2 SWAP1 POP JUMP JUMPDEST PUSH1 0x0 PUSH1 0x40 MLOAD SWAP1 POP SWAP1 JUMP JUMPDEST PUSH1 0x0 PUSH8 0xFFFFFFFFFFFFFFFF DUP3 GT ISZERO PUSH3 0x4B14 JUMPI PUSH3 0x4B13 PUSH3 0x4EB4 JUMP JUMPDEST JUMPDEST PUSH1 0x20 DUP3 MUL SWAP1 POP PUSH1 0x20 DUP2 ADD SWAP1 POP SWAP2 SWAP1 POP JUMP JUMPDEST PUSH1 0x0 DUP2 MLOAD SWAP1 POP SWAP2 SWAP1 POP JUMP JUMPDEST PUSH1 0x0 DUP2 SWAP1 POP SWAP3 SWAP2 POP POP JUMP JUMPDEST PUSH1 0x0 DUP3 DUP3 MSTORE PUSH1 0x20 DUP3 ADD SWAP1 POP SWAP3 SWAP2 POP POP JUMP JUMPDEST PUSH1 0x0 PUSH3 0x4B59 DUP3 PUSH3 0x4C84 JUMP JUMPDEST SWAP2 POP PUSH3 0x4B66 DUP4 PUSH3 0x4C84 JUMP JUMPDEST SWAP3 POP DUP3 PUSH32 0xFFFFFFFFFFFFFFFFFFFFFFFFFFFFFFFFFFFFFFFFFFFFFFFFFFFFFFFFFFFFFFFF SUB DUP3 GT ISZERO PUSH3 0x4B9E JUMPI PUSH3 0x4B9D PUSH3 0x4E27 JUMP JUMPDEST JUMPDEST DUP3 DUP3 ADD SWAP1 POP SWAP3 SWAP2 POP POP JUMP JUMPDEST PUSH1 0x0 PUSH3 0x4BB6 DUP3 PUSH3 0x4C84 JUMP JUMPDEST SWAP2 POP PUSH3 0x4BC3 DUP4 PUSH3 0x4C84 JUMP JUMPDEST SWAP3 POP DUP3 DUP3 LT ISZERO PUSH3 0x4BD9 JUMPI PUSH3 0x4BD8 PUSH3 0x4E27 JUMP JUMPDEST JUMPDEST DUP3 DUP3 SUB SWAP1 POP SWAP3 SWAP2 POP POP JUMP JUMPDEST PUSH1 0x0 PUSH20 0xFFFFFFFFFFFFFFFFFFFFFFFFFFFFFFFFFFFFFFFF DUP3 AND SWAP1 POP SWAP2 SWAP1 POP JUMP JUMPDEST PUSH1 0x0 PUSH1 0xFF DUP3 AND SWAP1 POP SWAP2 SWAP1 POP JUMP JUMPDEST PUSH1 0x0 DUP2 SWAP1 POP SWAP2 SWAP1 POP JUMP JUMPDEST PUSH1 0x0 PUSH3 0x4C28 DUP3 PUSH3 0x4C64 JUMP JUMPDEST SWAP1 POP SWAP2 SWAP1 POP JUMP JUMPDEST PUSH1 0x0 PUSH3 0x4C3C DUP3 PUSH3 0x4C64 JUMP JUMPDEST SWAP1 POP SWAP2 SWAP1 POP JUMP JUMPDEST PUSH1 0x0 DUP2 ISZERO ISZERO SWAP1 POP SWAP2 SWAP1 POP JUMP JUMPDEST PUSH1 0x0 DUP2 SWAP1 POP PUSH3 0x4C5F DUP3 PUSH3 0x5528 JUMP JUMPDEST SWAP2 SWAP1 POP JUMP JUMPDEST PUSH1 0x0 PUSH20 0xFFFFFFFFFFFFFFFFFFFFFFFFFFFFFFFFFFFFFFFF DUP3 AND SWAP1 POP SWAP2 SWAP1 POP JUMP JUMPDEST PUSH1 0x0 DUP2 SWAP1 POP SWAP2 SWAP1 POP JUMP JUMPDEST PUSH1 0x0 PUSH1 0xFF DUP3 AND SWAP1 POP SWAP2 SWAP1 POP JUMP JUMPDEST PUSH1 0x0 PUSH3 0x4CA8 DUP3 PUSH3 0x4CEB JUMP JUMPDEST SWAP1 POP SWAP2 SWAP1 POP JUMP JUMPDEST PUSH1 0x0 PUSH3 0x4CBC DUP3 PUSH3 0x4CEB JUMP JUMPDEST SWAP1 POP SWAP2 SWAP1 POP JUMP JUMPDEST PUSH1 0x0 PUSH3 0x4CD0 DUP3 PUSH3 0x4C4F JUMP JUMPDEST SWAP1 POP SWAP2 SWAP1 POP JUMP JUMPDEST PUSH1 0x0 PUSH3 0x4CE4 DUP3 PUSH3 0x4C84 JUMP JUMPDEST SWAP1 POP SWAP2 SWAP1 POP JUMP JUMPDEST PUSH1 0x0 PUSH3 0x4CF8 DUP3 PUSH3 0x4CFF JUMP JUMPDEST SWAP1 POP SWAP2 SWAP1 POP JUMP JUMPDEST PUSH1 0x0 PUSH3 0x4D0C DUP3 PUSH3 0x4C64 JUMP JUMPDEST SWAP1 POP SWAP2 SWAP1 POP JUMP JUMPDEST PUSH1 0x0 JUMPDEST DUP4 DUP2 LT ISZERO PUSH3 0x4D33 JUMPI DUP1 DUP3 ADD MLOAD DUP2 DUP5 ADD MSTORE PUSH1 0x20 DUP2 ADD SWAP1 POP PUSH3 0x4D16 JUMP JUMPDEST DUP4 DUP2 GT ISZERO PUSH3 0x4D43 JUMPI PUSH1 0x0 DUP5 DUP5 ADD MSTORE JUMPDEST POP POP POP POP JUMP JUMPDEST PUSH1 0x0 PUSH3 0x4D60 PUSH3 0x4D5A DUP4 PUSH3 0x4F0D JUMP JUMPDEST PUSH3 0x4BE4 JUMP JUMPDEST SWAP1 POP SWAP2 SWAP1 POP JUMP JUMPDEST PUSH1 0x0 PUSH3 0x4D7E PUSH3 0x4D78 DUP4 PUSH3 0x4F0D JUMP JUMPDEST PUSH3 0x4C11 JUMP JUMPDEST SWAP1 POP SWAP2 SWAP1 POP JUMP JUMPDEST PUSH1 0x0 PUSH3 0x4D9C PUSH3 0x4D96 DUP4 PUSH3 0x4F1A JUMP JUMPDEST PUSH3 0x4C04 JUMP JUMPDEST SWAP1 POP SWAP2 SWAP1 POP JUMP JUMPDEST PUSH3 0x4DAE DUP3 PUSH3 0x4EFC JUMP JUMPDEST DUP2 ADD DUP2 DUP2 LT PUSH8 0xFFFFFFFFFFFFFFFF DUP3 GT OR ISZERO PUSH3 0x4DD0 JUMPI PUSH3 0x4DCF PUSH3 0x4EB4 JUMP JUMPDEST JUMPDEST DUP1 PUSH1 0x40 MSTORE POP POP POP JUMP JUMPDEST PUSH1 0x0 PUSH3 0x4DE6 DUP3 PUSH3 0x4C84 JUMP JUMPDEST SWAP2 POP PUSH32 0xFFFFFFFFFFFFFFFFFFFFFFFFFFFFFFFFFFFFFFFFFFFFFFFFFFFFFFFFFFFFFFFF DUP3 EQ ISZERO PUSH3 0x4E1C JUMPI PUSH3 0x4E1B PUSH3 0x4E27 JUMP JUMPDEST JUMPDEST PUSH1 0x1 DUP3 ADD SWAP1 POP SWAP2 SWAP1 POP JUMP JUMPDEST PUSH32 0x4E487B7100000000000000000000000000000000000000000000000000000000 PUSH1 0x0 MSTORE PUSH1 0x11 PUSH1 0x4 MSTORE PUSH1 0x24 PUSH1 0x0 REVERT JUMPDEST PUSH32 0x4E487B7100000000000000000000000000000000000000000000000000000000 PUSH1 0x0 MSTORE PUSH1 0x21 PUSH1 0x4 MSTORE PUSH1 0x24 PUSH1 0x0 REVERT JUMPDEST PUSH32 0x4E487B7100000000000000000000000000000000000000000000000000000000 PUSH1 0x0 MSTORE PUSH1 0x32 PUSH1 0x4 MSTORE PUSH1 0x24 PUSH1 0x0 REVERT JUMPDEST PUSH32 0x4E487B7100000000000000000000000000000000000000000000000000000000 PUSH1 0x0 MSTORE PUSH1 0x41 PUSH1 0x4 MSTORE PUSH1 0x24 PUSH1 0x0 REVERT JUMPDEST PUSH1 0x0 DUP1 REVERT JUMPDEST PUSH1 0x0 DUP1 REVERT JUMPDEST PUSH1 0x0 DUP1 REVERT JUMPDEST PUSH1 0x0 DUP1 REVERT JUMPDEST PUSH1 0x0 DUP1 REVERT JUMPDEST PUSH1 0x0 PUSH1 0x1F NOT PUSH1 0x1F DUP4 ADD AND SWAP1 POP SWAP2 SWAP1 POP JUMP JUMPDEST PUSH1 0x0 DUP2 PUSH1 0x0 SHR SWAP1 POP SWAP2 SWAP1 POP JUMP JUMPDEST PUSH1 0x0 DUP2 PUSH1 0xA0 SHR SWAP1 POP SWAP2 SWAP1 POP JUMP JUMPDEST PUSH32 0x596F75722062616C616E636520697320696E73756666696369656E7400000000 PUSH1 0x0 DUP3 ADD MSTORE POP JUMP JUMPDEST PUSH32 0x4170706C6963616E7420737461747573206973206E6F7420617070726F766564 PUSH1 0x0 DUP3 ADD MSTORE POP JUMP JUMPDEST PUSH32 0x5472616E7366657220636F6E7472616374206661696C75726500000000000000 PUSH1 0x0 DUP3 ADD MSTORE POP JUMP JUMPDEST PUSH32 0x4465706F736974206973206C6F636B6564000000000000000000000000000000 PUSH1 0x0 DUP3 ADD MSTORE POP JUMP JUMPDEST PUSH32 0x4F776E61626C653A206E6577206F776E657220697320746865207A65726F2061 PUSH1 0x0 DUP3 ADD MSTORE PUSH32 0x6464726573730000000000000000000000000000000000000000000000000000 PUSH1 0x20 DUP3 ADD MSTORE POP JUMP JUMPDEST PUSH32 0x53746F7265206973206E6F74207A65726F000000000000000000000000000000 PUSH1 0x0 DUP3 ADD MSTORE POP JUMP JUMPDEST PUSH32 0x5472616E736665722062616C616E636520746F2074686520666F756E64657220 PUSH1 0x0 DUP3 ADD MSTORE PUSH32 0x6661696C75726500000000000000000000000000000000000000000000000000 PUSH1 0x20 DUP3 ADD MSTORE POP JUMP JUMPDEST PUSH32 0x4465706F73697420616D6F756E74206C657373207468616E206C696D69740000 PUSH1 0x0 DUP3 ADD MSTORE POP JUMP JUMPDEST PUSH32 0x506C65617365206170706C792066697273740000000000000000000000000000 PUSH1 0x0 DUP3 ADD MSTORE POP JUMP JUMPDEST PUSH32 0x526566756E64206465706F73697420746F2074686520666F756E646572206661 PUSH1 0x0 DUP3 ADD MSTORE PUSH32 0x696C757265000000000000000000000000000000000000000000000000000000 PUSH1 0x20 DUP3 ADD MSTORE POP JUMP JUMPDEST PUSH32 0x596F7572206465706F73697420746F6B656E2062616C616E636520697320696E PUSH1 0x0 DUP3 ADD MSTORE PUSH32 0x73756666696369656E7400000000000000000000000000000000000000000000 PUSH1 0x20 DUP3 ADD MSTORE POP JUMP JUMPDEST PUSH32 0x6D73672E76616C7565206973206E6F742076616C696400000000000000000000 PUSH1 0x0 DUP3 ADD MSTORE POP JUMP JUMPDEST PUSH32 0x596F7572206465706F73697420746F6B656E20616C6C6F77616E636520697320 PUSH1 0x0 DUP3 ADD MSTORE PUSH32 0x696E73756666696369656E740000000000000000000000000000000000000000 PUSH1 0x20 DUP3 ADD MSTORE POP JUMP JUMPDEST PUSH32 0x43616C6C6572206973206E6F742074686520666F756E64657200000000000000 PUSH1 0x0 DUP3 ADD MSTORE POP JUMP JUMPDEST PUSH32 0x43616C6C6572206973206E6F7420616C6C6F77656420746F206C6F636B000000 PUSH1 0x0 DUP3 ADD MSTORE POP JUMP JUMPDEST PUSH32 0x4465706F7369742062616C616E6365206D6F7265207468616E207A65726F0000 PUSH1 0x0 DUP3 ADD MSTORE POP JUMP JUMPDEST PUSH32 0x526566756E64206465706F73697420746F206170706C6963616E74206661696C PUSH1 0x0 DUP3 ADD MSTORE PUSH32 0x7572650000000000000000000000000000000000000000000000000000000000 PUSH1 0x20 DUP3 ADD MSTORE POP JUMP JUMPDEST PUSH32 0x526566756E64206661696C757265000000000000000000000000000000000000 PUSH1 0x0 DUP3 ADD MSTORE POP JUMP JUMPDEST PUSH32 0x4D757374206E6F7420626520666163746F727900000000000000000000000000 PUSH1 0x0 DUP3 ADD MSTORE POP JUMP JUMPDEST PUSH32 0x43616C6C6572206973206E6F7420616C6C6F77656420746F20756E6C6F636B00 PUSH1 0x0 DUP3 ADD MSTORE POP JUMP JUMPDEST PUSH32 0x4D757374206E6F7420626520636F6E747261637473656C660000000000000000 PUSH1 0x0 DUP3 ADD MSTORE POP JUMP JUMPDEST PUSH32 0x54696D65207061737420746865206170706C69636174696F6E20646561646C69 PUSH1 0x0 DUP3 ADD MSTORE PUSH32 0x6E65000000000000000000000000000000000000000000000000000000000000 PUSH1 0x20 DUP3 ADD MSTORE POP JUMP JUMPDEST PUSH32 0x546F20626520617070726F766564206D7573742061206170706C6963616E7400 PUSH1 0x0 DUP3 ADD MSTORE POP JUMP JUMPDEST PUSH32 0x4F776E61626C653A2063616C6C6572206973206E6F7420746865206F776E6572 PUSH1 0x0 DUP3 ADD MSTORE POP JUMP JUMPDEST PUSH32 0x4465706F73697420697320756E6C6F636B000000000000000000000000000000 PUSH1 0x0 DUP3 ADD MSTORE POP JUMP JUMPDEST PUSH32 0x4465706F73697420616D6F756E74206973207A65726F00000000000000000000 PUSH1 0x0 DUP3 ADD MSTORE POP JUMP JUMPDEST PUSH32 0x4465706F73697420746F6B656E207472616E7366657246726F6D206661696C75 PUSH1 0x0 DUP3 ADD MSTORE PUSH32 0x7265000000000000000000000000000000000000000000000000000000000000 PUSH1 0x20 DUP3 ADD MSTORE POP JUMP JUMPDEST PUSH32 0x4E6F2072652D656E7472616E6379000000000000000000000000000000000000 PUSH1 0x0 DUP3 ADD MSTORE POP JUMP JUMPDEST POP JUMP JUMPDEST PUSH32 0x4D757374206E6F7420626520666F756E64657200000000000000000000000000 PUSH1 0x0 DUP3 ADD MSTORE POP JUMP JUMPDEST PUSH32 0x4D757374206E6F74206265206170706C6963616E740000000000000000000000 PUSH1 0x0 DUP3 ADD MSTORE POP JUMP JUMPDEST PUSH1 0x5 DUP2 LT PUSH3 0x553C JUMPI PUSH3 0x553B PUSH3 0x4E56 JUMP JUMPDEST JUMPDEST POP JUMP JUMPDEST PUSH3 0x554A DUP2 PUSH3 0x4C1B JUMP JUMPDEST DUP2 EQ PUSH3 0x5556 JUMPI PUSH1 0x0 DUP1 REVERT JUMPDEST POP JUMP JUMPDEST PUSH3 0x5564 DUP2 PUSH3 0x4C2F JUMP JUMPDEST DUP2 EQ PUSH3 0x5570 JUMPI PUSH1 0x0 DUP1 REVERT JUMPDEST POP JUMP JUMPDEST PUSH3 0x557E DUP2 PUSH3 0x4C43 JUMP JUMPDEST DUP2 EQ PUSH3 0x558A JUMPI PUSH1 0x0 DUP1 REVERT JUMPDEST POP JUMP JUMPDEST PUSH3 0x5598 DUP2 PUSH3 0x4C84 JUMP JUMPDEST DUP2 EQ PUSH3 0x55A4 JUMPI PUSH1 0x0 DUP1 REVERT JUMPDEST POP JUMP JUMPDEST PUSH3 0x55B2 DUP2 PUSH3 0x4C8E JUMP JUMPDEST DUP2 EQ PUSH3 0x55BE JUMPI PUSH1 0x0 DUP1 REVERT JUMPDEST POP JUMP INVALID PUSH1 0x80 PUSH1 0x40 MSTORE CALLVALUE DUP1 ISZERO PUSH3 0x11 JUMPI PUSH1 0x0 DUP1 REVERT JUMPDEST POP PUSH3 0x22 PUSH3 0xC0 PUSH1 0x20 SHL PUSH1 0x20 SHR JUMP JUMPDEST PUSH1 0x0 DUP1 PUSH2 0x100 EXP DUP2 SLOAD DUP2 PUSH20 0xFFFFFFFFFFFFFFFFFFFFFFFFFFFFFFFFFFFFFFFF MUL NOT AND SWAP1 DUP4 PUSH20 0xFFFFFFFFFFFFFFFFFFFFFFFFFFFFFFFFFFFFFFFF AND MUL OR SWAP1 SSTORE POP PUSH32 0x4101E71E974F68DF5E9730CC223280B41654676BBB052CDCC735C3337E64D2D9 PUSH1 0x0 DUP1 SLOAD SWAP1 PUSH2 0x100 EXP SWAP1 DIV PUSH20 0xFFFFFFFFFFFFFFFFFFFFFFFFFFFFFFFFFFFFFFFF AND PUSH1 0x40 MLOAD PUSH3 0xB2 SWAP2 SWAP1 PUSH3 0xD9 JUMP JUMPDEST PUSH1 0x40 MLOAD DUP1 SWAP2 SUB SWAP1 LOG1 PUSH3 0x12A JUMP JUMPDEST PUSH1 0x0 CALLER SWAP1 POP SWAP1 JUMP JUMPDEST PUSH3 0xD3 DUP2 PUSH3 0xF6 JUMP JUMPDEST DUP3 MSTORE POP POP JUMP JUMPDEST PUSH1 0x0 PUSH1 0x20 DUP3 ADD SWAP1 POP PUSH3 0xF0 PUSH1 0x0 DUP4 ADD DUP5 PUSH3 0xC8 JUMP JUMPDEST SWAP3 SWAP2 POP POP JUMP JUMPDEST PUSH1 0x0 PUSH3 0x103 DUP3 PUSH3 0x10A JUMP JUMPDEST SWAP1 POP SWAP2 SWAP1 POP JUMP JUMPDEST PUSH1 0x0 PUSH20 0xFFFFFFFFFFFFFFFFFFFFFFFFFFFFFFFFFFFFFFFF DUP3 AND SWAP1 POP SWAP2 SWAP1 POP JUMP JUMPDEST PUSH2 0x18B3 DUP1 PUSH3 0x13A PUSH1 0x0 CODECOPY PUSH1 0x0 RETURN INVALID PUSH1 0x80 PUSH1 0x40 MSTORE PUSH1 0x4 CALLDATASIZE LT PUSH2 0xE1 JUMPI PUSH1 0x0 CALLDATALOAD PUSH1 0xE0 SHR DUP1 PUSH4 0xAD4A7D48 GT PUSH2 0x7F JUMPI DUP1 PUSH4 0xE2F88C1F GT PUSH2 0x59 JUMPI DUP1 PUSH4 0xE2F88C1F EQ PUSH2 0x2FD JUMPI DUP1 PUSH4 0xE696288A EQ PUSH2 0x326 JUMPI DUP1 PUSH4 0xF5537EDE EQ PUSH2 0x363 JUMPI DUP1 PUSH4 0xFDF5963A EQ PUSH2 0x3A0 JUMPI PUSH2 0x11F JUMP JUMPDEST DUP1 PUSH4 0xAD4A7D48 EQ PUSH2 0x280 JUMPI DUP1 PUSH4 0xC6DBDF61 EQ PUSH2 0x2A9 JUMPI DUP1 PUSH4 0xCB765D4D EQ PUSH2 0x2D4 JUMPI PUSH2 0x11F JUMP JUMPDEST DUP1 PUSH4 0x3B8E1BF5 GT PUSH2 0xBB JUMPI DUP1 PUSH4 0x3B8E1BF5 EQ PUSH2 0x1B3 JUMPI DUP1 PUSH4 0xA2321AA1 EQ PUSH2 0x1F1 JUMPI DUP1 PUSH4 0xA374E628 EQ PUSH2 0x21A JUMPI DUP1 PUSH4 0xA9059CBB EQ PUSH2 0x243 JUMPI PUSH2 0x11F JUMP JUMPDEST DUP1 PUSH4 0xFD37059 EQ PUSH2 0x124 JUMPI DUP1 PUSH4 0x20D529A6 EQ PUSH2 0x161 JUMPI DUP1 PUSH4 0x2348238C EQ PUSH2 0x18A JUMPI PUSH2 0x11F JUMP JUMPDEST CALLDATASIZE PUSH2 0x11F JUMPI PUSH32 0xD00CA3F088120B3D909C3A9E01BE91E94A2B001AED9C25FE751C3C7A72DC49BF CALLER PUSH1 0x40 MLOAD PUSH2 0x115 SWAP2 SWAP1 PUSH2 0x1582 JUMP JUMPDEST PUSH1 0x40 MLOAD DUP1 SWAP2 SUB SWAP1 LOG1 STOP JUMPDEST PUSH1 0x0 DUP1 REVERT JUMPDEST CALLVALUE DUP1 ISZERO PUSH2 0x130 JUMPI PUSH1 0x0 DUP1 REVERT JUMPDEST POP PUSH2 0x14B PUSH1 0x4 DUP1 CALLDATASIZE SUB DUP2 ADD SWAP1 PUSH2 0x146 SWAP2 SWAP1 PUSH2 0x1245 JUMP JUMPDEST PUSH2 0x3CB JUMP JUMPDEST PUSH1 0x40 MLOAD PUSH2 0x158 SWAP2 SWAP1 PUSH2 0x15FB JUMP JUMPDEST PUSH1 0x40 MLOAD DUP1 SWAP2 SUB SWAP1 RETURN JUMPDEST CALLVALUE DUP1 ISZERO PUSH2 0x16D JUMPI PUSH1 0x0 DUP1 REVERT JUMPDEST POP PUSH2 0x188 PUSH1 0x4 DUP1 CALLDATASIZE SUB DUP2 ADD SWAP1 PUSH2 0x183 SWAP2 SWAP1 PUSH2 0x12F2 JUMP JUMPDEST PUSH2 0x4B7 JUMP JUMPDEST STOP JUMPDEST CALLVALUE DUP1 ISZERO PUSH2 0x196 JUMPI PUSH1 0x0 DUP1 REVERT JUMPDEST POP PUSH2 0x1B1 PUSH1 0x4 DUP1 CALLDATASIZE SUB DUP2 ADD SWAP1 PUSH2 0x1AC SWAP2 SWAP1 PUSH2 0x1245 JUMP JUMPDEST PUSH2 0x5DC JUMP JUMPDEST STOP JUMPDEST CALLVALUE DUP1 ISZERO PUSH2 0x1BF JUMPI PUSH1 0x0 DUP1 REVERT JUMPDEST POP PUSH2 0x1DA PUSH1 0x4 DUP1 CALLDATASIZE SUB DUP2 ADD SWAP1 PUSH2 0x1D5 SWAP2 SWAP1 PUSH2 0x1245 JUMP JUMPDEST PUSH2 0x77B JUMP JUMPDEST PUSH1 0x40 MLOAD PUSH2 0x1E8 SWAP3 SWAP2 SWAP1 PUSH2 0x1656 JUMP JUMPDEST PUSH1 0x40 MLOAD DUP1 SWAP2 SUB SWAP1 RETURN JUMPDEST CALLVALUE DUP1 ISZERO PUSH2 0x1FD JUMPI PUSH1 0x0 DUP1 REVERT JUMPDEST POP PUSH2 0x218 PUSH1 0x4 DUP1 CALLDATASIZE SUB DUP2 ADD SWAP1 PUSH2 0x213 SWAP2 SWAP1 PUSH2 0x1245 JUMP JUMPDEST PUSH2 0x89C JUMP JUMPDEST STOP JUMPDEST CALLVALUE DUP1 ISZERO PUSH2 0x226 JUMPI PUSH1 0x0 DUP1 REVERT JUMPDEST POP PUSH2 0x241 PUSH1 0x4 DUP1 CALLDATASIZE SUB DUP2 ADD SWAP1 PUSH2 0x23C SWAP2 SWAP1 PUSH2 0x1272 JUMP JUMPDEST PUSH2 0x997 JUMP JUMPDEST STOP JUMPDEST CALLVALUE DUP1 ISZERO PUSH2 0x24F JUMPI PUSH1 0x0 DUP1 REVERT JUMPDEST POP PUSH2 0x26A PUSH1 0x4 DUP1 CALLDATASIZE SUB DUP2 ADD SWAP1 PUSH2 0x265 SWAP2 SWAP1 PUSH2 0x12B2 JUMP JUMPDEST PUSH2 0xA87 JUMP JUMPDEST PUSH1 0x40 MLOAD PUSH2 0x277 SWAP2 SWAP1 PUSH2 0x15FB JUMP JUMPDEST PUSH1 0x40 MLOAD DUP1 SWAP2 SUB SWAP1 RETURN JUMPDEST CALLVALUE DUP1 ISZERO PUSH2 0x28C JUMPI PUSH1 0x0 DUP1 REVERT JUMPDEST POP PUSH2 0x2A7 PUSH1 0x4 DUP1 CALLDATASIZE SUB DUP2 ADD SWAP1 PUSH2 0x2A2 SWAP2 SWAP1 PUSH2 0x12B2 JUMP JUMPDEST PUSH2 0xB95 JUMP JUMPDEST STOP JUMPDEST CALLVALUE DUP1 ISZERO PUSH2 0x2B5 JUMPI PUSH1 0x0 DUP1 REVERT JUMPDEST POP PUSH2 0x2BE PUSH2 0xC75 JUMP JUMPDEST PUSH1 0x40 MLOAD PUSH2 0x2CB SWAP2 SWAP1 PUSH2 0x1567 JUMP JUMPDEST PUSH1 0x40 MLOAD DUP1 SWAP2 SUB SWAP1 RETURN JUMPDEST CALLVALUE DUP1 ISZERO PUSH2 0x2E0 JUMPI PUSH1 0x0 DUP1 REVERT JUMPDEST POP PUSH2 0x2FB PUSH1 0x4 DUP1 CALLDATASIZE SUB DUP2 ADD SWAP1 PUSH2 0x2F6 SWAP2 SWAP1 PUSH2 0x1345 JUMP JUMPDEST PUSH2 0xC9E JUMP JUMPDEST STOP JUMPDEST CALLVALUE DUP1 ISZERO PUSH2 0x309 JUMPI PUSH1 0x0 DUP1 REVERT JUMPDEST POP PUSH2 0x324 PUSH1 0x4 DUP1 CALLDATASIZE SUB DUP2 ADD SWAP1 PUSH2 0x31F SWAP2 SWAP1 PUSH2 0x1272 JUMP JUMPDEST PUSH2 0xD92 JUMP JUMPDEST STOP JUMPDEST CALLVALUE DUP1 ISZERO PUSH2 0x332 JUMPI PUSH1 0x0 DUP1 REVERT JUMPDEST POP PUSH2 0x34D PUSH1 0x4 DUP1 CALLDATASIZE SUB DUP2 ADD SWAP1 PUSH2 0x348 SWAP2 SWAP1 PUSH2 0x1245 JUMP JUMPDEST PUSH2 0xE82 JUMP JUMPDEST PUSH1 0x40 MLOAD PUSH2 0x35A SWAP2 SWAP1 PUSH2 0x15FB JUMP JUMPDEST PUSH1 0x40 MLOAD DUP1 SWAP2 SUB SWAP1 RETURN JUMPDEST CALLVALUE DUP1 ISZERO PUSH2 0x36F JUMPI PUSH1 0x0 DUP1 REVERT JUMPDEST POP PUSH2 0x38A PUSH1 0x4 DUP1 CALLDATASIZE SUB DUP2 ADD SWAP1 PUSH2 0x385 SWAP2 SWAP1 PUSH2 0x13B2 JUMP JUMPDEST PUSH2 0xF6E JUMP JUMPDEST PUSH1 0x40 MLOAD PUSH2 0x397 SWAP2 SWAP1 PUSH2 0x15FB JUMP JUMPDEST PUSH1 0x40 MLOAD DUP1 SWAP2 SUB SWAP1 RETURN JUMPDEST CALLVALUE DUP1 ISZERO PUSH2 0x3AC JUMPI PUSH1 0x0 DUP1 REVERT JUMPDEST POP PUSH2 0x3B5 PUSH2 0x109C JUMP JUMPDEST PUSH1 0x40 MLOAD PUSH2 0x3C2 SWAP2 SWAP1 PUSH2 0x15D9 JUMP JUMPDEST PUSH1 0x40 MLOAD DUP1 SWAP2 SUB SWAP1 RETURN JUMPDEST PUSH1 0x0 DUP1 PUSH1 0x0 SWAP1 SLOAD SWAP1 PUSH2 0x100 EXP SWAP1 DIV PUSH20 0xFFFFFFFFFFFFFFFFFFFFFFFFFFFFFFFFFFFFFFFF AND PUSH20 0xFFFFFFFFFFFFFFFFFFFFFFFFFFFFFFFFFFFFFFFF AND PUSH2 0x40D PUSH2 0x11BF JUMP JUMPDEST PUSH20 0xFFFFFFFFFFFFFFFFFFFFFFFFFFFFFFFFFFFFFFFF AND EQ PUSH2 0x463 JUMPI PUSH1 0x40 MLOAD PUSH32 0x8C379A000000000000000000000000000000000000000000000000000000000 DUP2 MSTORE PUSH1 0x4 ADD PUSH2 0x45A SWAP1 PUSH2 0x1636 JUMP JUMPDEST PUSH1 0x40 MLOAD DUP1 SWAP2 SUB SWAP1 REVERT JUMPDEST PUSH1 0x3 PUSH1 0x0 DUP4 PUSH20 0xFFFFFFFFFFFFFFFFFFFFFFFFFFFFFFFFFFFFFFFF AND PUSH20 0xFFFFFFFFFFFFFFFFFFFFFFFFFFFFFFFFFFFFFFFF AND DUP2 MSTORE PUSH1 0x20 ADD SWAP1 DUP2 MSTORE PUSH1 0x20 ADD PUSH1 0x0 KECCAK256 PUSH1 0x0 SWAP1 SLOAD SWAP1 PUSH2 0x100 EXP SWAP1 DIV PUSH1 0xFF AND SWAP1 POP SWAP2 SWAP1 POP JUMP JUMPDEST PUSH1 0x0 DUP1 SLOAD SWAP1 PUSH2 0x100 EXP SWAP1 DIV PUSH20 0xFFFFFFFFFFFFFFFFFFFFFFFFFFFFFFFFFFFFFFFF AND PUSH20 0xFFFFFFFFFFFFFFFFFFFFFFFFFFFFFFFFFFFFFFFF AND PUSH2 0x4F6 PUSH2 0x11BF JUMP JUMPDEST PUSH20 0xFFFFFFFFFFFFFFFFFFFFFFFFFFFFFFFFFFFFFFFF AND EQ PUSH2 0x54C JUMPI PUSH1 0x40 MLOAD PUSH32 0x8C379A000000000000000000000000000000000000000000000000000000000 DUP2 MSTORE PUSH1 0x4 ADD PUSH2 0x543 SWAP1 PUSH2 0x1636 JUMP JUMPDEST PUSH1 0x40 MLOAD DUP1 SWAP2 SUB SWAP1 REVERT JUMPDEST PUSH1 0x0 PUSH1 0x40 MLOAD DUP1 PUSH1 0x40 ADD PUSH1 0x40 MSTORE DUP1 DUP5 DUP2 MSTORE PUSH1 0x20 ADD DUP4 PUSH1 0xFF AND DUP2 MSTORE POP SWAP1 POP DUP1 PUSH1 0x2 PUSH1 0x0 DUP7 PUSH20 0xFFFFFFFFFFFFFFFFFFFFFFFFFFFFFFFFFFFFFFFF AND PUSH20 0xFFFFFFFFFFFFFFFFFFFFFFFFFFFFFFFFFFFFFFFF AND DUP2 MSTORE PUSH1 0x20 ADD SWAP1 DUP2 MSTORE PUSH1 0x20 ADD PUSH1 0x0 KECCAK256 PUSH1 0x0 DUP3 ADD MLOAD DUP2 PUSH1 0x0 ADD SSTORE PUSH1 0x20 DUP3 ADD MLOAD DUP2 PUSH1 0x1 ADD PUSH1 0x0 PUSH2 0x100 EXP DUP2 SLOAD DUP2 PUSH1 0xFF MUL NOT AND SWAP1 DUP4 PUSH1 0xFF AND MUL OR SWAP1 SSTORE POP SWAP1 POP POP POP POP POP POP JUMP JUMPDEST PUSH1 0x0 DUP1 SLOAD SWAP1 PUSH2 0x100 EXP SWAP1 DIV PUSH20 0xFFFFFFFFFFFFFFFFFFFFFFFFFFFFFFFFFFFFFFFF AND PUSH20 0xFFFFFFFFFFFFFFFFFFFFFFFFFFFFFFFFFFFFFFFF AND PUSH2 0x61B PUSH2 0x11BF JUMP JUMPDEST PUSH20 0xFFFFFFFFFFFFFFFFFFFFFFFFFFFFFFFFFFFFFFFF AND EQ PUSH2 0x671 JUMPI PUSH1 0x40 MLOAD PUSH32 0x8C379A000000000000000000000000000000000000000000000000000000000 DUP2 MSTORE PUSH1 0x4 ADD PUSH2 0x668 SWAP1 PUSH2 0x1636 JUMP JUMPDEST PUSH1 0x40 MLOAD DUP1 SWAP2 SUB SWAP1 REVERT JUMPDEST PUSH1 0x0 PUSH20 0xFFFFFFFFFFFFFFFFFFFFFFFFFFFFFFFFFFFFFFFF AND DUP2 PUSH20 0xFFFFFFFFFFFFFFFFFFFFFFFFFFFFFFFFFFFFFFFF AND EQ ISZERO PUSH2 0x6E1 JUMPI PUSH1 0x40 MLOAD PUSH32 0x8C379A000000000000000000000000000000000000000000000000000000000 DUP2 MSTORE PUSH1 0x4 ADD PUSH2 0x6D8 SWAP1 PUSH2 0x1616 JUMP JUMPDEST PUSH1 0x40 MLOAD DUP1 SWAP2 SUB SWAP1 REVERT JUMPDEST DUP1 PUSH1 0x0 DUP1 PUSH2 0x100 EXP DUP2 SLOAD DUP2 PUSH20 0xFFFFFFFFFFFFFFFFFFFFFFFFFFFFFFFFFFFFFFFF MUL NOT AND SWAP1 DUP4 PUSH20 0xFFFFFFFFFFFFFFFFFFFFFFFFFFFFFFFFFFFFFFFF AND MUL OR SWAP1 SSTORE POP PUSH32 0x4101E71E974F68DF5E9730CC223280B41654676BBB052CDCC735C3337E64D2D9 PUSH1 0x0 DUP1 SLOAD SWAP1 PUSH2 0x100 EXP SWAP1 DIV PUSH20 0xFFFFFFFFFFFFFFFFFFFFFFFFFFFFFFFFFFFFFFFF AND PUSH1 0x40 MLOAD PUSH2 0x770 SWAP2 SWAP1 PUSH2 0x1567 JUMP JUMPDEST PUSH1 0x40 MLOAD DUP1 SWAP2 SUB SWAP1 LOG1 POP JUMP JUMPDEST PUSH1 0x0 DUP1 PUSH1 0x0 DUP1 SLOAD SWAP1 PUSH2 0x100 EXP SWAP1 DIV PUSH20 0xFFFFFFFFFFFFFFFFFFFFFFFFFFFFFFFFFFFFFFFF AND PUSH20 0xFFFFFFFFFFFFFFFFFFFFFFFFFFFFFFFFFFFFFFFF AND PUSH2 0x7BD PUSH2 0x11BF JUMP JUMPDEST PUSH20 0xFFFFFFFFFFFFFFFFFFFFFFFFFFFFFFFFFFFFFFFF AND EQ PUSH2 0x813 JUMPI PUSH1 0x40 MLOAD PUSH32 0x8C379A000000000000000000000000000000000000000000000000000000000 DUP2 MSTORE PUSH1 0x4 ADD PUSH2 0x80A SWAP1 PUSH2 0x1636 JUMP JUMPDEST PUSH1 0x40 MLOAD DUP1 SWAP2 SUB SWAP1 REVERT JUMPDEST PUSH1 0x0 PUSH1 0x2 PUSH1 0x0 DUP6 PUSH20 0xFFFFFFFFFFFFFFFFFFFFFFFFFFFFFFFFFFFFFFFF AND PUSH20 0xFFFFFFFFFFFFFFFFFFFFFFFFFFFFFFFFFFFFFFFF AND DUP2 MSTORE PUSH1 0x20 ADD SWAP1 DUP2 MSTORE PUSH1 0x20 ADD PUSH1 0x0 KECCAK256 PUSH1 0x40 MLOAD DUP1 PUSH1 0x40 ADD PUSH1 0x40 MSTORE SWAP1 DUP2 PUSH1 0x0 DUP3 ADD SLOAD DUP2 MSTORE PUSH1 0x20 ADD PUSH1 0x1 DUP3 ADD PUSH1 0x0 SWAP1 SLOAD SWAP1 PUSH2 0x100 EXP SWAP1 DIV PUSH1 0xFF AND PUSH1 0xFF AND PUSH1 0xFF AND DUP2 MSTORE POP POP SWAP1 POP DUP1 PUSH1 0x0 ADD MLOAD DUP2 PUSH1 0x20 ADD MLOAD SWAP3 POP SWAP3 POP POP SWAP2 POP SWAP2 JUMP JUMPDEST PUSH1 0x0 DUP1 SLOAD SWAP1 PUSH2 0x100 EXP SWAP1 DIV PUSH20 0xFFFFFFFFFFFFFFFFFFFFFFFFFFFFFFFFFFFFFFFF AND PUSH20 0xFFFFFFFFFFFFFFFFFFFFFFFFFFFFFFFFFFFFFFFF AND PUSH2 0x8DB PUSH2 0x11BF JUMP JUMPDEST PUSH20 0xFFFFFFFFFFFFFFFFFFFFFFFFFFFFFFFFFFFFFFFF AND EQ PUSH2 0x931 JUMPI PUSH1 0x40 MLOAD PUSH32 0x8C379A000000000000000000000000000000000000000000000000000000000 DUP2 MSTORE PUSH1 0x4 ADD PUSH2 0x928 SWAP1 PUSH2 0x1636 JUMP JUMPDEST PUSH1 0x40 MLOAD DUP1 SWAP2 SUB SWAP1 REVERT JUMPDEST PUSH1 0x1 DUP2 SWAP1 DUP1 PUSH1 0x1 DUP2 SLOAD ADD DUP1 DUP3 SSTORE DUP1 SWAP2 POP POP PUSH1 0x1 SWAP1 SUB SWAP1 PUSH1 0x0 MSTORE PUSH1 0x20 PUSH1 0x0 KECCAK256 ADD PUSH1 0x0 SWAP1 SWAP2 SWAP1 SWAP2 SWAP1 SWAP2 PUSH2 0x100 EXP DUP2 SLOAD DUP2 PUSH20 0xFFFFFFFFFFFFFFFFFFFFFFFFFFFFFFFFFFFFFFFF MUL NOT AND SWAP1 DUP4 PUSH20 0xFFFFFFFFFFFFFFFFFFFFFFFFFFFFFFFFFFFFFFFF AND MUL OR SWAP1 SSTORE POP POP JUMP JUMPDEST PUSH1 0x0 DUP1 SLOAD SWAP1 PUSH2 0x100 EXP SWAP1 DIV PUSH20 0xFFFFFFFFFFFFFFFFFFFFFFFFFFFFFFFFFFFFFFFF AND PUSH20 0xFFFFFFFFFFFFFFFFFFFFFFFFFFFFFFFFFFFFFFFF AND PUSH2 0x9D6 PUSH2 0x11BF JUMP JUMPDEST PUSH20 0xFFFFFFFFFFFFFFFFFFFFFFFFFFFFFFFFFFFFFFFF AND EQ PUSH2 0xA2C JUMPI PUSH1 0x40 MLOAD PUSH32 0x8C379A000000000000000000000000000000000000000000000000000000000 DUP2 MSTORE PUSH1 0x4 ADD PUSH2 0xA23 SWAP1 PUSH2 0x1636 JUMP JUMPDEST PUSH1 0x40 MLOAD DUP1 SWAP2 SUB SWAP1 REVERT JUMPDEST DUP1 PUSH1 0x4 PUSH1 0x0 DUP5 PUSH20 0xFFFFFFFFFFFFFFFFFFFFFFFFFFFFFFFFFFFFFFFF AND PUSH20 0xFFFFFFFFFFFFFFFFFFFFFFFFFFFFFFFFFFFFFFFF AND DUP2 MSTORE PUSH1 0x20 ADD SWAP1 DUP2 MSTORE PUSH1 0x20 ADD PUSH1 0x0 KECCAK256 PUSH1 0x0 PUSH2 0x100 EXP DUP2 SLOAD DUP2 PUSH1 0xFF MUL NOT AND SWAP1 DUP4 ISZERO ISZERO MUL OR SWAP1 SSTORE POP POP POP JUMP JUMPDEST PUSH1 0x0 DUP1 PUSH1 0x0 SWAP1 SLOAD SWAP1 PUSH2 0x100 EXP SWAP1 DIV PUSH20 0xFFFFFFFFFFFFFFFFFFFFFFFFFFFFFFFFFFFFFFFF AND PUSH20 0xFFFFFFFFFFFFFFFFFFFFFFFFFFFFFFFFFFFFFFFF AND PUSH2 0xAC9 PUSH2 0x11BF JUMP JUMPDEST PUSH20 0xFFFFFFFFFFFFFFFFFFFFFFFFFFFFFFFFFFFFFFFF AND EQ PUSH2 0xB1F JUMPI PUSH1 0x40 MLOAD PUSH32 0x8C379A000000000000000000000000000000000000000000000000000000000 DUP2 MSTORE PUSH1 0x4 ADD PUSH2 0xB16 SWAP1 PUSH2 0x1636 JUMP JUMPDEST PUSH1 0x40 MLOAD DUP1 SWAP2 SUB SWAP1 REVERT JUMPDEST PUSH1 0x0 DUP4 PUSH20 0xFFFFFFFFFFFFFFFFFFFFFFFFFFFFFFFFFFFFFFFF AND DUP4 PUSH1 0x40 MLOAD PUSH2 0xB45 SWAP1 PUSH2 0x1552 JUMP JUMPDEST PUSH1 0x0 PUSH1 0x40 MLOAD DUP1 DUP4 SUB DUP2 DUP6 DUP8 GAS CALL SWAP3 POP POP POP RETURNDATASIZE DUP1 PUSH1 0x0 DUP2 EQ PUSH2 0xB82 JUMPI PUSH1 0x40 MLOAD SWAP2 POP PUSH1 0x1F NOT PUSH1 0x3F RETURNDATASIZE ADD AND DUP3 ADD PUSH1 0x40 MSTORE RETURNDATASIZE DUP3 MSTORE RETURNDATASIZE PUSH1 0x0 PUSH1 0x20 DUP5 ADD RETURNDATACOPY PUSH2 0xB87 JUMP JUMPDEST PUSH1 0x60 SWAP2 POP JUMPDEST POP POP SWAP1 POP DUP1 SWAP2 POP POP SWAP3 SWAP2 POP POP JUMP JUMPDEST PUSH1 0x0 DUP1 SLOAD SWAP1 PUSH2 0x100 EXP SWAP1 DIV PUSH20 0xFFFFFFFFFFFFFFFFFFFFFFFFFFFFFFFFFFFFFFFF AND PUSH20 0xFFFFFFFFFFFFFFFFFFFFFFFFFFFFFFFFFFFFFFFF AND PUSH2 0xBD4 PUSH2 0x11BF JUMP JUMPDEST PUSH20 0xFFFFFFFFFFFFFFFFFFFFFFFFFFFFFFFFFFFFFFFF AND EQ PUSH2 0xC2A JUMPI PUSH1 0x40 MLOAD PUSH32 0x8C379A000000000000000000000000000000000000000000000000000000000 DUP2 MSTORE PUSH1 0x4 ADD PUSH2 0xC21 SWAP1 PUSH2 0x1636 JUMP JUMPDEST PUSH1 0x40 MLOAD DUP1 SWAP2 SUB SWAP1 REVERT JUMPDEST DUP1 PUSH1 0x2 PUSH1 0x0 DUP5 PUSH20 0xFFFFFFFFFFFFFFFFFFFFFFFFFFFFFFFFFFFFFFFF AND PUSH20 0xFFFFFFFFFFFFFFFFFFFFFFFFFFFFFFFFFFFFFFFF AND DUP2 MSTORE PUSH1 0x20 ADD SWAP1 DUP2 MSTORE PUSH1 0x20 ADD PUSH1 0x0 KECCAK256 PUSH1 0x0 ADD DUP2 SWAP1 SSTORE POP POP POP JUMP JUMPDEST PUSH1 0x0 DUP1 PUSH1 0x0 SWAP1 SLOAD SWAP1 PUSH2 0x100 EXP SWAP1 DIV PUSH20 0xFFFFFFFFFFFFFFFFFFFFFFFFFFFFFFFFFFFFFFFF AND SWAP1 POP SWAP1 JUMP JUMPDEST PUSH1 0x0 DUP1 SLOAD SWAP1 PUSH2 0x100 EXP SWAP1 DIV PUSH20 0xFFFFFFFFFFFFFFFFFFFFFFFFFFFFFFFFFFFFFFFF AND PUSH20 0xFFFFFFFFFFFFFFFFFFFFFFFFFFFFFFFFFFFFFFFF AND PUSH2 0xCDD PUSH2 0x11BF JUMP JUMPDEST PUSH20 0xFFFFFFFFFFFFFFFFFFFFFFFFFFFFFFFFFFFFFFFF AND EQ PUSH2 0xD33 JUMPI PUSH1 0x40 MLOAD PUSH32 0x8C379A000000000000000000000000000000000000000000000000000000000 DUP2 MSTORE PUSH1 0x4 ADD PUSH2 0xD2A SWAP1 PUSH2 0x1636 JUMP JUMPDEST PUSH1 0x40 MLOAD DUP1 SWAP2 SUB SWAP1 REVERT JUMPDEST DUP1 PUSH1 0x2 PUSH1 0x0 DUP5 PUSH20 0xFFFFFFFFFFFFFFFFFFFFFFFFFFFFFFFFFFFFFFFF AND PUSH20 0xFFFFFFFFFFFFFFFFFFFFFFFFFFFFFFFFFFFFFFFF AND DUP2 MSTORE PUSH1 0x20 ADD SWAP1 DUP2 MSTORE PUSH1 0x20 ADD PUSH1 0x0 KECCAK256 PUSH1 0x1 ADD PUSH1 0x0 PUSH2 0x100 EXP DUP2 SLOAD DUP2 PUSH1 0xFF MUL NOT AND SWAP1 DUP4 PUSH1 0xFF AND MUL OR SWAP1 SSTORE POP POP POP JUMP JUMPDEST PUSH1 0x0 DUP1 SLOAD SWAP1 PUSH2 0x100 EXP SWAP1 DIV PUSH20 0xFFFFFFFFFFFFFFFFFFFFFFFFFFFFFFFFFFFFFFFF AND PUSH20 0xFFFFFFFFFFFFFFFFFFFFFFFFFFFFFFFFFFFFFFFF AND PUSH2 0xDD1 PUSH2 0x11BF JUMP JUMPDEST PUSH20 0xFFFFFFFFFFFFFFFFFFFFFFFFFFFFFFFFFFFFFFFF AND EQ PUSH2 0xE27 JUMPI PUSH1 0x40 MLOAD PUSH32 0x8C379A000000000000000000000000000000000000000000000000000000000 DUP2 MSTORE PUSH1 0x4 ADD PUSH2 0xE1E SWAP1 PUSH2 0x1636 JUMP JUMPDEST PUSH1 0x40 MLOAD DUP1 SWAP2 SUB SWAP1 REVERT JUMPDEST DUP1 PUSH1 0x3 PUSH1 0x0 DUP5 PUSH20 0xFFFFFFFFFFFFFFFFFFFFFFFFFFFFFFFFFFFFFFFF AND PUSH20 0xFFFFFFFFFFFFFFFFFFFFFFFFFFFFFFFFFFFFFFFF AND DUP2 MSTORE PUSH1 0x20 ADD SWAP1 DUP2 MSTORE PUSH1 0x20 ADD PUSH1 0x0 KECCAK256 PUSH1 0x0 PUSH2 0x100 EXP DUP2 SLOAD DUP2 PUSH1 0xFF MUL NOT AND SWAP1 DUP4 ISZERO ISZERO MUL OR SWAP1 SSTORE POP POP POP JUMP JUMPDEST PUSH1 0x0 DUP1 PUSH1 0x0 SWAP1 SLOAD SWAP1 PUSH2 0x100 EXP SWAP1 DIV PUSH20 0xFFFFFFFFFFFFFFFFFFFFFFFFFFFFFFFFFFFFFFFF AND PUSH20 0xFFFFFFFFFFFFFFFFFFFFFFFFFFFFFFFFFFFFFFFF AND PUSH2 0xEC4 PUSH2 0x11BF JUMP JUMPDEST PUSH20 0xFFFFFFFFFFFFFFFFFFFFFFFFFFFFFFFFFFFFFFFF AND EQ PUSH2 0xF1A JUMPI PUSH1 0x40 MLOAD PUSH32 0x8C379A000000000000000000000000000000000000000000000000000000000 DUP2 MSTORE PUSH1 0x4 ADD PUSH2 0xF11 SWAP1 PUSH2 0x1636 JUMP JUMPDEST PUSH1 0x40 MLOAD DUP1 SWAP2 SUB SWAP1 REVERT JUMPDEST PUSH1 0x4 PUSH1 0x0 DUP4 PUSH20 0xFFFFFFFFFFFFFFFFFFFFFFFFFFFFFFFFFFFFFFFF AND PUSH20 0xFFFFFFFFFFFFFFFFFFFFFFFFFFFFFFFFFFFFFFFF AND DUP2 MSTORE PUSH1 0x20 ADD SWAP1 DUP2 MSTORE PUSH1 0x20 ADD PUSH1 0x0 KECCAK256 PUSH1 0x0 SWAP1 SLOAD SWAP1 PUSH2 0x100 EXP SWAP1 DIV PUSH1 0xFF AND SWAP1 POP SWAP2 SWAP1 POP JUMP JUMPDEST PUSH1 0x0 DUP1 PUSH1 0x0 SWAP1 SLOAD SWAP1 PUSH2 0x100 EXP SWAP1 DIV PUSH20 0xFFFFFFFFFFFFFFFFFFFFFFFFFFFFFFFFFFFFFFFF AND PUSH20 0xFFFFFFFFFFFFFFFFFFFFFFFFFFFFFFFFFFFFFFFF AND PUSH2 0xFB0 PUSH2 0x11BF JUMP JUMPDEST PUSH20 0xFFFFFFFFFFFFFFFFFFFFFFFFFFFFFFFFFFFFFFFF AND EQ PUSH2 0x1006 JUMPI PUSH1 0x40 MLOAD PUSH32 0x8C379A000000000000000000000000000000000000000000000000000000000 DUP2 MSTORE PUSH1 0x4 ADD PUSH2 0xFFD SWAP1 PUSH2 0x1636 JUMP JUMPDEST PUSH1 0x40 MLOAD DUP1 SWAP2 SUB SWAP1 REVERT JUMPDEST DUP4 PUSH20 0xFFFFFFFFFFFFFFFFFFFFFFFFFFFFFFFFFFFFFFFF AND PUSH4 0xA9059CBB DUP5 DUP5 PUSH1 0x40 MLOAD DUP4 PUSH4 0xFFFFFFFF AND PUSH1 0xE0 SHL DUP2 MSTORE PUSH1 0x4 ADD PUSH2 0x1041 SWAP3 SWAP2 SWAP1 PUSH2 0x15B0 JUMP JUMPDEST PUSH1 0x20 PUSH1 0x40 MLOAD DUP1 DUP4 SUB DUP2 PUSH1 0x0 DUP8 DUP1 EXTCODESIZE ISZERO DUP1 ISZERO PUSH2 0x105B JUMPI PUSH1 0x0 DUP1 REVERT JUMPDEST POP GAS CALL ISZERO DUP1 ISZERO PUSH2 0x106F JUMPI RETURNDATASIZE PUSH1 0x0 DUP1 RETURNDATACOPY RETURNDATASIZE PUSH1 0x0 REVERT JUMPDEST POP POP POP POP PUSH1 0x40 MLOAD RETURNDATASIZE PUSH1 0x1F NOT PUSH1 0x1F DUP3 ADD AND DUP3 ADD DUP1 PUSH1 0x40 MSTORE POP DUP2 ADD SWAP1 PUSH2 0x1093 SWAP2 SWAP1 PUSH2 0x1385 JUMP JUMPDEST SWAP1 POP SWAP4 SWAP3 POP POP POP JUMP JUMPDEST PUSH1 0x60 PUSH1 0x0 DUP1 SLOAD SWAP1 PUSH2 0x100 EXP SWAP1 DIV PUSH20 0xFFFFFFFFFFFFFFFFFFFFFFFFFFFFFFFFFFFFFFFF AND PUSH20 0xFFFFFFFFFFFFFFFFFFFFFFFFFFFFFFFFFFFFFFFF AND PUSH2 0x10DD PUSH2 0x11BF JUMP JUMPDEST PUSH20 0xFFFFFFFFFFFFFFFFFFFFFFFFFFFFFFFFFFFFFFFF AND EQ PUSH2 0x1133 JUMPI PUSH1 0x40 MLOAD PUSH32 0x8C379A000000000000000000000000000000000000000000000000000000000 DUP2 MSTORE PUSH1 0x4 ADD PUSH2 0x112A SWAP1 PUSH2 0x1636 JUMP JUMPDEST PUSH1 0x40 MLOAD DUP1 SWAP2 SUB SWAP1 REVERT JUMPDEST PUSH1 0x1 DUP1 SLOAD DUP1 PUSH1 0x20 MUL PUSH1 0x20 ADD PUSH1 0x40 MLOAD SWAP1 DUP2 ADD PUSH1 0x40 MSTORE DUP1 SWAP3 SWAP2 SWAP1 DUP2 DUP2 MSTORE PUSH1 0x20 ADD DUP3 DUP1 SLOAD DUP1 ISZERO PUSH2 0x11B5 JUMPI PUSH1 0x20 MUL DUP3 ADD SWAP2 SWAP1 PUSH1 0x0 MSTORE PUSH1 0x20 PUSH1 0x0 KECCAK256 SWAP1 JUMPDEST DUP2 PUSH1 0x0 SWAP1 SLOAD SWAP1 PUSH2 0x100 EXP SWAP1 DIV PUSH20 0xFFFFFFFFFFFFFFFFFFFFFFFFFFFFFFFFFFFFFFFF AND PUSH20 0xFFFFFFFFFFFFFFFFFFFFFFFFFFFFFFFFFFFFFFFF AND DUP2 MSTORE PUSH1 0x20 ADD SWAP1 PUSH1 0x1 ADD SWAP1 DUP1 DUP4 GT PUSH2 0x116B JUMPI JUMPDEST POP POP POP POP POP SWAP1 POP SWAP1 JUMP JUMPDEST PUSH1 0x0 CALLER SWAP1 POP SWAP1 JUMP JUMPDEST PUSH1 0x0 DUP2 CALLDATALOAD SWAP1 POP PUSH2 0x11D6 DUP2 PUSH2 0x180A JUMP JUMPDEST SWAP3 SWAP2 POP POP JUMP JUMPDEST PUSH1 0x0 DUP2 CALLDATALOAD SWAP1 POP PUSH2 0x11EB DUP2 PUSH2 0x1821 JUMP JUMPDEST SWAP3 SWAP2 POP POP JUMP JUMPDEST PUSH1 0x0 DUP2 MLOAD SWAP1 POP PUSH2 0x1200 DUP2 PUSH2 0x1821 JUMP JUMPDEST SWAP3 SWAP2 POP POP JUMP JUMPDEST PUSH1 0x0 DUP2 CALLDATALOAD SWAP1 POP PUSH2 0x1215 DUP2 PUSH2 0x1838 JUMP JUMPDEST SWAP3 SWAP2 POP POP JUMP JUMPDEST PUSH1 0x0 DUP2 CALLDATALOAD SWAP1 POP PUSH2 0x122A DUP2 PUSH2 0x184F JUMP JUMPDEST SWAP3 SWAP2 POP POP JUMP JUMPDEST PUSH1 0x0 DUP2 CALLDATALOAD SWAP1 POP PUSH2 0x123F DUP2 PUSH2 0x1866 JUMP JUMPDEST SWAP3 SWAP2 POP POP JUMP JUMPDEST PUSH1 0x0 PUSH1 0x20 DUP3 DUP5 SUB SLT ISZERO PUSH2 0x125B JUMPI PUSH2 0x125A PUSH2 0x173B JUMP JUMPDEST JUMPDEST PUSH1 0x0 PUSH2 0x1269 DUP5 DUP3 DUP6 ADD PUSH2 0x11C7 JUMP JUMPDEST SWAP2 POP POP SWAP3 SWAP2 POP POP JUMP JUMPDEST PUSH1 0x0 DUP1 PUSH1 0x40 DUP4 DUP6 SUB SLT ISZERO PUSH2 0x1289 JUMPI PUSH2 0x1288 PUSH2 0x173B JUMP JUMPDEST JUMPDEST PUSH1 0x0 PUSH2 0x1297 DUP6 DUP3 DUP7 ADD PUSH2 0x11C7 JUMP JUMPDEST SWAP3 POP POP PUSH1 0x20 PUSH2 0x12A8 DUP6 DUP3 DUP7 ADD PUSH2 0x11DC JUMP JUMPDEST SWAP2 POP POP SWAP3 POP SWAP3 SWAP1 POP JUMP JUMPDEST PUSH1 0x0 DUP1 PUSH1 0x40 DUP4 DUP6 SUB SLT ISZERO PUSH2 0x12C9 JUMPI PUSH2 0x12C8 PUSH2 0x173B JUMP JUMPDEST JUMPDEST PUSH1 0x0 PUSH2 0x12D7 DUP6 DUP3 DUP7 ADD PUSH2 0x11C7 JUMP JUMPDEST SWAP3 POP POP PUSH1 0x20 PUSH2 0x12E8 DUP6 DUP3 DUP7 ADD PUSH2 0x121B JUMP JUMPDEST SWAP2 POP POP SWAP3 POP SWAP3 SWAP1 POP JUMP JUMPDEST PUSH1 0x0 DUP1 PUSH1 0x0 PUSH1 0x60 DUP5 DUP7 SUB SLT ISZERO PUSH2 0x130B JUMPI PUSH2 0x130A PUSH2 0x173B JUMP JUMPDEST JUMPDEST PUSH1 0x0 PUSH2 0x1319 DUP7 DUP3 DUP8 ADD PUSH2 0x11C7 JUMP JUMPDEST SWAP4 POP POP PUSH1 0x20 PUSH2 0x132A DUP7 DUP3 DUP8 ADD PUSH2 0x121B JUMP JUMPDEST SWAP3 POP POP PUSH1 0x40 PUSH2 0x133B DUP7 DUP3 DUP8 ADD PUSH2 0x1230 JUMP JUMPDEST SWAP2 POP POP SWAP3 POP SWAP3 POP SWAP3 JUMP JUMPDEST PUSH1 0x0 DUP1 PUSH1 0x40 DUP4 DUP6 SUB SLT ISZERO PUSH2 0x135C JUMPI PUSH2 0x135B PUSH2 0x173B JUMP JUMPDEST JUMPDEST PUSH1 0x0 PUSH2 0x136A DUP6 DUP3 DUP7 ADD PUSH2 0x11C7 JUMP JUMPDEST SWAP3 POP POP PUSH1 0x20 PUSH2 0x137B DUP6 DUP3 DUP7 ADD PUSH2 0x1230 JUMP JUMPDEST SWAP2 POP POP SWAP3 POP SWAP3 SWAP1 POP JUMP JUMPDEST PUSH1 0x0 PUSH1 0x20 DUP3 DUP5 SUB SLT ISZERO PUSH2 0x139B JUMPI PUSH2 0x139A PUSH2 0x173B JUMP JUMPDEST JUMPDEST PUSH1 0x0 PUSH2 0x13A9 DUP5 DUP3 DUP6 ADD PUSH2 0x11F1 JUMP JUMPDEST SWAP2 POP POP SWAP3 SWAP2 POP POP JUMP JUMPDEST PUSH1 0x0 DUP1 PUSH1 0x0 PUSH1 0x60 DUP5 DUP7 SUB SLT ISZERO PUSH2 0x13CB JUMPI PUSH2 0x13CA PUSH2 0x173B JUMP JUMPDEST JUMPDEST PUSH1 0x0 PUSH2 0x13D9 DUP7 DUP3 DUP8 ADD PUSH2 0x1206 JUMP JUMPDEST SWAP4 POP POP PUSH1 0x20 PUSH2 0x13EA DUP7 DUP3 DUP8 ADD PUSH2 0x11C7 JUMP JUMPDEST SWAP3 POP POP PUSH1 0x40 PUSH2 0x13FB DUP7 DUP3 DUP8 ADD PUSH2 0x121B JUMP JUMPDEST SWAP2 POP POP SWAP3 POP SWAP3 POP SWAP3 JUMP JUMPDEST PUSH1 0x0 PUSH2 0x1411 DUP4 DUP4 PUSH2 0x141D JUMP JUMPDEST PUSH1 0x20 DUP4 ADD SWAP1 POP SWAP3 SWAP2 POP POP JUMP JUMPDEST PUSH2 0x1426 DUP2 PUSH2 0x16D4 JUMP JUMPDEST DUP3 MSTORE POP POP JUMP JUMPDEST PUSH2 0x1435 DUP2 PUSH2 0x16D4 JUMP JUMPDEST DUP3 MSTORE POP POP JUMP JUMPDEST PUSH1 0x0 PUSH2 0x1446 DUP3 PUSH2 0x168F JUMP JUMPDEST PUSH2 0x1450 DUP2 DUP6 PUSH2 0x16A7 JUMP JUMPDEST SWAP4 POP PUSH2 0x145B DUP4 PUSH2 0x167F JUMP JUMPDEST DUP1 PUSH1 0x0 JUMPDEST DUP4 DUP2 LT ISZERO PUSH2 0x148C JUMPI DUP2 MLOAD PUSH2 0x1473 DUP9 DUP3 PUSH2 0x1405 JUMP JUMPDEST SWAP8 POP PUSH2 0x147E DUP4 PUSH2 0x169A JUMP JUMPDEST SWAP3 POP POP PUSH1 0x1 DUP2 ADD SWAP1 POP PUSH2 0x145F JUMP JUMPDEST POP DUP6 SWAP4 POP POP POP POP SWAP3 SWAP2 POP POP JUMP JUMPDEST PUSH2 0x14A2 DUP2 PUSH2 0x16E6 JUMP JUMPDEST DUP3 MSTORE POP POP JUMP JUMPDEST PUSH1 0x0 PUSH2 0x14B5 PUSH1 0x2A DUP4 PUSH2 0x16C3 JUMP JUMPDEST SWAP2 POP PUSH2 0x14C0 DUP3 PUSH2 0x1740 JUMP JUMPDEST PUSH1 0x40 DUP3 ADD SWAP1 POP SWAP2 SWAP1 POP JUMP JUMPDEST PUSH1 0x0 PUSH2 0x14D8 PUSH1 0x2C DUP4 PUSH2 0x16C3 JUMP JUMPDEST SWAP2 POP PUSH2 0x14E3 DUP3 PUSH2 0x178F JUMP JUMPDEST PUSH1 0x40 DUP3 ADD SWAP1 POP SWAP2 SWAP1 POP JUMP JUMPDEST PUSH1 0x0 PUSH2 0x14FB PUSH1 0x0 DUP4 PUSH2 0x16B8 JUMP JUMPDEST SWAP2 POP PUSH2 0x1506 DUP3 PUSH2 0x17DE JUMP JUMPDEST PUSH1 0x0 DUP3 ADD SWAP1 POP SWAP2 SWAP1 POP JUMP JUMPDEST PUSH1 0x0 PUSH2 0x151E PUSH1 0x7 DUP4 PUSH2 0x16C3 JUMP JUMPDEST SWAP2 POP PUSH2 0x1529 DUP3 PUSH2 0x17E1 JUMP JUMPDEST PUSH1 0x20 DUP3 ADD SWAP1 POP SWAP2 SWAP1 POP JUMP JUMPDEST PUSH2 0x153D DUP2 PUSH2 0x1724 JUMP JUMPDEST DUP3 MSTORE POP POP JUMP JUMPDEST PUSH2 0x154C DUP2 PUSH2 0x172E JUMP JUMPDEST DUP3 MSTORE POP POP JUMP JUMPDEST PUSH1 0x0 PUSH2 0x155D DUP3 PUSH2 0x14EE JUMP JUMPDEST SWAP2 POP DUP2 SWAP1 POP SWAP2 SWAP1 POP JUMP JUMPDEST PUSH1 0x0 PUSH1 0x20 DUP3 ADD SWAP1 POP PUSH2 0x157C PUSH1 0x0 DUP4 ADD DUP5 PUSH2 0x142C JUMP JUMPDEST SWAP3 SWAP2 POP POP JUMP JUMPDEST PUSH1 0x0 PUSH1 0x40 DUP3 ADD SWAP1 POP PUSH2 0x1597 PUSH1 0x0 DUP4 ADD DUP5 PUSH2 0x142C JUMP JUMPDEST DUP2 DUP2 SUB PUSH1 0x20 DUP4 ADD MSTORE PUSH2 0x15A8 DUP2 PUSH2 0x1511 JUMP JUMPDEST SWAP1 POP SWAP3 SWAP2 POP POP JUMP JUMPDEST PUSH1 0x0 PUSH1 0x40 DUP3 ADD SWAP1 POP PUSH2 0x15C5 PUSH1 0x0 DUP4 ADD DUP6 PUSH2 0x142C JUMP JUMPDEST PUSH2 0x15D2 PUSH1 0x20 DUP4 ADD DUP5 PUSH2 0x1534 JUMP JUMPDEST SWAP4 SWAP3 POP POP POP JUMP JUMPDEST PUSH1 0x0 PUSH1 0x20 DUP3 ADD SWAP1 POP DUP2 DUP2 SUB PUSH1 0x0 DUP4 ADD MSTORE PUSH2 0x15F3 DUP2 DUP5 PUSH2 0x143B JUMP JUMPDEST SWAP1 POP SWAP3 SWAP2 POP POP JUMP JUMPDEST PUSH1 0x0 PUSH1 0x20 DUP3 ADD SWAP1 POP PUSH2 0x1610 PUSH1 0x0 DUP4 ADD DUP5 PUSH2 0x1499 JUMP JUMPDEST SWAP3 SWAP2 POP POP JUMP JUMPDEST PUSH1 0x0 PUSH1 0x20 DUP3 ADD SWAP1 POP DUP2 DUP2 SUB PUSH1 0x0 DUP4 ADD MSTORE PUSH2 0x162F DUP2 PUSH2 0x14A8 JUMP JUMPDEST SWAP1 POP SWAP2 SWAP1 POP JUMP JUMPDEST PUSH1 0x0 PUSH1 0x20 DUP3 ADD SWAP1 POP DUP2 DUP2 SUB PUSH1 0x0 DUP4 ADD MSTORE PUSH2 0x164F DUP2 PUSH2 0x14CB JUMP JUMPDEST SWAP1 POP SWAP2 SWAP1 POP JUMP JUMPDEST PUSH1 0x0 PUSH1 0x40 DUP3 ADD SWAP1 POP PUSH2 0x166B PUSH1 0x0 DUP4 ADD DUP6 PUSH2 0x1534 JUMP JUMPDEST PUSH2 0x1678 PUSH1 0x20 DUP4 ADD DUP5 PUSH2 0x1543 JUMP JUMPDEST SWAP4 SWAP3 POP POP POP JUMP JUMPDEST PUSH1 0x0 DUP2 SWAP1 POP PUSH1 0x20 DUP3 ADD SWAP1 POP SWAP2 SWAP1 POP JUMP JUMPDEST PUSH1 0x0 DUP2 MLOAD SWAP1 POP SWAP2 SWAP1 POP JUMP JUMPDEST PUSH1 0x0 PUSH1 0x20 DUP3 ADD SWAP1 POP SWAP2 SWAP1 POP JUMP JUMPDEST PUSH1 0x0 DUP3 DUP3 MSTORE PUSH1 0x20 DUP3 ADD SWAP1 POP SWAP3 SWAP2 POP POP JUMP JUMPDEST PUSH1 0x0 DUP2 SWAP1 POP SWAP3 SWAP2 POP POP JUMP JUMPDEST PUSH1 0x0 DUP3 DUP3 MSTORE PUSH1 0x20 DUP3 ADD SWAP1 POP SWAP3 SWAP2 POP POP JUMP JUMPDEST PUSH1 0x0 PUSH2 0x16DF DUP3 PUSH2 0x1704 JUMP JUMPDEST SWAP1 POP SWAP2 SWAP1 POP JUMP JUMPDEST PUSH1 0x0 DUP2 ISZERO ISZERO SWAP1 POP SWAP2 SWAP1 POP JUMP JUMPDEST PUSH1 0x0 PUSH2 0x16FD DUP3 PUSH2 0x16D4 JUMP JUMPDEST SWAP1 POP SWAP2 SWAP1 POP JUMP JUMPDEST PUSH1 0x0 PUSH20 0xFFFFFFFFFFFFFFFFFFFFFFFFFFFFFFFFFFFFFFFF DUP3 AND SWAP1 POP SWAP2 SWAP1 POP JUMP JUMPDEST PUSH1 0x0 DUP2 SWAP1 POP SWAP2 SWAP1 POP JUMP JUMPDEST PUSH1 0x0 PUSH1 0xFF DUP3 AND SWAP1 POP SWAP2 SWAP1 POP JUMP JUMPDEST PUSH1 0x0 DUP1 REVERT JUMPDEST PUSH32 0x5365636F6E646172793A206E6577207072696D61727920697320746865207A65 PUSH1 0x0 DUP3 ADD MSTORE PUSH32 0x726F206164647265737300000000000000000000000000000000000000000000 PUSH1 0x20 DUP3 ADD MSTORE POP JUMP JUMPDEST PUSH32 0x5365636F6E646172793A2063616C6C6572206973206E6F742074686520707269 PUSH1 0x0 DUP3 ADD MSTORE PUSH32 0x6D617279206163636F756E740000000000000000000000000000000000000000 PUSH1 0x20 DUP3 ADD MSTORE POP JUMP JUMPDEST POP JUMP JUMPDEST PUSH32 0x7265636569766500000000000000000000000000000000000000000000000000 PUSH1 0x0 DUP3 ADD MSTORE POP JUMP JUMPDEST PUSH2 0x1813 DUP2 PUSH2 0x16D4 JUMP JUMPDEST DUP2 EQ PUSH2 0x181E JUMPI PUSH1 0x0 DUP1 REVERT JUMPDEST POP JUMP JUMPDEST PUSH2 0x182A DUP2 PUSH2 0x16E6 JUMP JUMPDEST DUP2 EQ PUSH2 0x1835 JUMPI PUSH1 0x0 DUP1 REVERT JUMPDEST POP JUMP JUMPDEST PUSH2 0x1841 DUP2 PUSH2 0x16F2 JUMP JUMPDEST DUP2 EQ PUSH2 0x184C JUMPI PUSH1 0x0 DUP1 REVERT JUMPDEST POP JUMP JUMPDEST PUSH2 0x1858 DUP2 PUSH2 0x1724 JUMP JUMPDEST DUP2 EQ PUSH2 0x1863 JUMPI PUSH1 0x0 DUP1 REVERT JUMPDEST POP JUMP JUMPDEST PUSH2 0x186F DUP2 PUSH2 0x172E JUMP JUMPDEST DUP2 EQ PUSH2 0x187A JUMPI PUSH1 0x0 DUP1 REVERT JUMPDEST POP JUMP INVALID LOG2 PUSH5 0x6970667358 0x22 SLT KECCAK256 BASEFEE 0x29 0xD7 PUSH9 0x7602176A149413828D 0xC2 0xA7 GT PUSH24 0x59CADDC2BE5BC7B06C4A779F8D00CC64736F6C6343000807 STOP CALLER TIMESTAMP PUSH16 0x756E747920737461747573206E6F7420 PUSH10 0x6E20726561647920746F KECCAK256 PUSH24 0x6F726B426F756E747920737461747573206E6F7420696E20 PUSH24 0x6F726B2073746172746564A264697066735822122001367A 0xB2 JUMPI 0x5D 0xB8 DUP13 0x4C 0xDE 0xC4 SWAP4 PUSH21 0x160C00B204C12CB4BBFDC47ED538973FC7DC876473 PUSH16 0x6C634300080700330000000000000000 "
		},
		"gasEstimates": {
			"creation": {
				"codeDepositCost": "5742200",
				"executionCost": "infinite",
				"totalCost": "infinite"
			},
			"external": {
				"applyFor(uint256)": "infinite",
				"approveApplicant(address)": "infinite",
				"close()": "infinite",
				"deposit(uint256)": "infinite",
				"getStore()": "4808",
				"init((address,bool,uint256,uint256,uint256))": "infinite",
				"lock()": "infinite",
				"owner()": "2567",
				"parameters()": "infinite",
				"postUpdate()": "infinite",
				"release()": "infinite",
				"releaseMyDeposit()": "infinite",
				"renounceOwnership()": "2755",
				"state()": "infinite",
				"transferOwnership(address)": "30813",
				"transferPrimary(address)": "infinite",
				"transferStore(address)": "27096",
				"unapproveApplicant(address)": "infinite",
				"unlock()": "infinite",
				"vaultAccount()": "4874",
				"whoAmI()": "infinite"
			},
			"internal": {
				"_addApplicant(address,uint256,enum Bounty.ApplicantStatus)": "infinite",
				"_applicantState(address)": "infinite",
				"_checkAppliedApplicant()": "infinite",
				"_checkBountyStatus(enum Bounty.BountyStatus,string memory)": "infinite",
				"_checkDepositLocker(address)": "infinite",
				"_checkDepositUnlocker(address)": "infinite",
				"_checkFounder()": "infinite",
				"_checkInApplyTime()": "infinite",
				"_checkNotBountyStatus(enum Bounty.BountyStatus,string memory)": "infinite",
				"_checkOthers()": "infinite",
				"_deposit(uint256)": "infinite",
				"_depositIsLocked()": "infinite",
				"_getApplicant(address)": "infinite",
				"_getBalance(address)": "infinite",
				"_refundApplicant(address)": "infinite",
				"_refundApplicants()": "infinite",
				"_refundDepositToken(address payable,uint256)": "infinite",
				"_refundFounder()": "infinite",
				"_refuseOtherApplicants(address)": "infinite",
				"_releaseAllDeposit()": "infinite",
				"_startTimer()": "infinite",
				"_statusFromTime()": "2165",
				"_whoIs(address)": "infinite"
			}
		},
		"methodIdentifiers": {
			"applyFor(uint256)": "1a28c42e",
			"approveApplicant(address)": "1292a282",
			"close()": "43d726d6",
			"deposit(uint256)": "b6b55f25",
			"getStore()": "c2722ecc",
			"init((address,bool,uint256,uint256,uint256))": "4d5d4ec7",
			"lock()": "f83d08ba",
			"owner()": "8da5cb5b",
			"parameters()": "89035730",
			"postUpdate()": "7238fca8",
			"release()": "86d1a69f",
			"releaseMyDeposit()": "4ba7ddb5",
			"renounceOwnership()": "715018a6",
			"state()": "c19d93fb",
			"transferOwnership(address)": "f2fde38b",
			"transferPrimary(address)": "2348238c",
			"transferStore(address)": "f523e775",
			"unapproveApplicant(address)": "6afc8d3e",
			"unlock()": "a69df4b5",
			"vaultAccount()": "f4e759ef",
			"whoAmI()": "da91254c"
		}
	},
	"abi": [
		{
			"inputs": [
				{
					"internalType": "address",
					"name": "_factory",
					"type": "address"
				},
				{
					"internalType": "address",
					"name": "_founder",
					"type": "address"
				}
			],
			"stateMutability": "nonpayable",
			"type": "constructor"
		},
		{
			"anonymous": false,
			"inputs": [
				{
					"indexed": false,
					"internalType": "address",
					"name": "applicant",
					"type": "address"
				},
				{
					"indexed": false,
					"internalType": "uint256",
					"name": "amount",
					"type": "uint256"
				},
				{
					"indexed": false,
					"internalType": "uint256",
					"name": "balance",
					"type": "uint256"
				},
				{
					"indexed": false,
					"internalType": "uint256",
					"name": "applicantsBalance",
					"type": "uint256"
				}
			],
			"name": "Apply",
			"type": "event"
		},
		{
			"anonymous": false,
			"inputs": [
				{
					"indexed": false,
					"internalType": "address",
					"name": "caller",
					"type": "address"
				},
				{
					"indexed": false,
					"internalType": "address",
					"name": "applicant",
					"type": "address"
				}
			],
			"name": "Approve",
			"type": "event"
		},
		{
			"anonymous": false,
			"inputs": [
				{
					"indexed": false,
					"internalType": "address",
					"name": "caller",
					"type": "address"
				},
				{
					"indexed": false,
					"internalType": "enum Bounty.BountyStatus",
					"name": "bountyStatus",
					"type": "uint8"
				}
			],
			"name": "Close",
			"type": "event"
		},
		{
			"anonymous": false,
			"inputs": [
				{
					"indexed": false,
					"internalType": "address",
					"name": "owner",
					"type": "address"
				},
				{
					"indexed": false,
					"internalType": "address",
					"name": "factory",
					"type": "address"
				},
				{
					"indexed": false,
					"internalType": "address",
					"name": "founder",
					"type": "address"
				},
				{
					"components": [
						{
							"internalType": "address",
							"name": "depositToken",
							"type": "address"
						},
						{
							"internalType": "bool",
							"name": "depositTokenIsNative",
							"type": "bool"
						},
						{
							"internalType": "uint256",
							"name": "founderDepositAmount",
							"type": "uint256"
						},
						{
							"internalType": "uint256",
							"name": "applicantDepositMinAmount",
							"type": "uint256"
						},
						{
							"internalType": "uint256",
							"name": "applyDeadline",
							"type": "uint256"
						}
					],
					"indexed": false,
					"internalType": "struct Parameters",
					"name": "paras",
					"type": "tuple"
				}
			],
			"name": "Created",
			"type": "event"
		},
		{
			"anonymous": false,
			"inputs": [
				{
					"indexed": false,
					"internalType": "address",
					"name": "from",
					"type": "address"
				},
				{
					"indexed": false,
					"internalType": "uint256",
					"name": "amount",
					"type": "uint256"
				},
				{
					"indexed": false,
					"internalType": "uint256",
					"name": "founderBalance",
					"type": "uint256"
				}
			],
			"name": "Deposit",
			"type": "event"
		},
		{
			"anonymous": false,
			"inputs": [
				{
					"indexed": false,
					"internalType": "address",
					"name": "caller",
					"type": "address"
				}
			],
			"name": "Lock",
			"type": "event"
		},
		{
			"anonymous": false,
			"inputs": [
				{
					"indexed": true,
					"internalType": "address",
					"name": "previousOwner",
					"type": "address"
				},
				{
					"indexed": true,
					"internalType": "address",
					"name": "newOwner",
					"type": "address"
				}
			],
			"name": "OwnershipTransferred",
			"type": "event"
		},
		{
			"anonymous": false,
			"inputs": [
				{
					"indexed": false,
					"internalType": "address",
					"name": "caller",
					"type": "address"
				},
				{
					"indexed": false,
					"internalType": "uint256",
					"name": "expiredTime",
					"type": "uint256"
				}
			],
			"name": "PostUpdate",
			"type": "event"
		},
		{
			"anonymous": false,
			"inputs": [
				{
					"indexed": false,
					"internalType": "address",
					"name": "applicant",
					"type": "address"
				},
				{
					"indexed": false,
					"internalType": "uint256",
					"name": "amount",
					"type": "uint256"
				},
				{
					"indexed": false,
					"internalType": "uint256",
					"name": "balance",
					"type": "uint256"
				},
				{
					"indexed": false,
					"internalType": "uint256",
					"name": "applicantsBalance",
					"type": "uint256"
				}
			],
			"name": "ReleaseApplicantDeposit",
			"type": "event"
		},
		{
			"anonymous": false,
			"inputs": [
				{
					"indexed": false,
					"internalType": "address",
					"name": "founder",
					"type": "address"
				},
				{
					"indexed": false,
					"internalType": "uint256",
					"name": "amount",
					"type": "uint256"
				},
				{
					"indexed": false,
					"internalType": "uint256",
					"name": "balance",
					"type": "uint256"
				}
			],
			"name": "ReleaseFounderDeposit",
			"type": "event"
		},
		{
			"anonymous": false,
			"inputs": [
				{
					"indexed": false,
					"internalType": "address",
					"name": "caller",
					"type": "address"
				},
				{
					"indexed": false,
					"internalType": "address",
					"name": "applicant",
					"type": "address"
				}
			],
			"name": "Unapprove",
			"type": "event"
		},
		{
			"anonymous": false,
			"inputs": [
				{
					"indexed": false,
					"internalType": "address",
					"name": "caller",
					"type": "address"
				}
			],
			"name": "Unlock",
			"type": "event"
		},
		{
			"inputs": [
				{
					"internalType": "uint256",
					"name": "_amount",
					"type": "uint256"
				}
			],
			"name": "applyFor",
			"outputs": [],
			"stateMutability": "payable",
			"type": "function"
		},
		{
			"inputs": [
				{
					"internalType": "address",
					"name": "_address",
					"type": "address"
				}
			],
			"name": "approveApplicant",
			"outputs": [],
			"stateMutability": "nonpayable",
			"type": "function"
		},
		{
			"inputs": [],
			"name": "close",
			"outputs": [],
			"stateMutability": "payable",
			"type": "function"
		},
		{
			"inputs": [
				{
					"internalType": "uint256",
					"name": "_amount",
					"type": "uint256"
				}
			],
			"name": "deposit",
			"outputs": [],
			"stateMutability": "payable",
			"type": "function"
		},
		{
			"inputs": [],
			"name": "getStore",
			"outputs": [
				{
					"internalType": "address",
					"name": "",
					"type": "address"
				}
			],
			"stateMutability": "view",
			"type": "function"
		},
		{
			"inputs": [
				{
					"components": [
						{
							"internalType": "address",
							"name": "depositToken",
							"type": "address"
						},
						{
							"internalType": "bool",
							"name": "depositTokenIsNative",
							"type": "bool"
						},
						{
							"internalType": "uint256",
							"name": "founderDepositAmount",
							"type": "uint256"
						},
						{
							"internalType": "uint256",
							"name": "applicantDepositMinAmount",
							"type": "uint256"
						},
						{
							"internalType": "uint256",
							"name": "applyDeadline",
							"type": "uint256"
						}
					],
					"internalType": "struct Parameters",
					"name": "_paras",
					"type": "tuple"
				}
			],
			"name": "init",
			"outputs": [],
			"stateMutability": "payable",
			"type": "function"
		},
		{
			"inputs": [],
			"name": "lock",
			"outputs": [],
			"stateMutability": "payable",
			"type": "function"
		},
		{
			"inputs": [],
			"name": "owner",
			"outputs": [
				{
					"internalType": "address",
					"name": "",
					"type": "address"
				}
			],
			"stateMutability": "view",
			"type": "function"
		},
		{
			"inputs": [],
			"name": "parameters",
			"outputs": [
				{
					"components": [
						{
							"internalType": "address",
							"name": "depositToken",
							"type": "address"
						},
						{
							"internalType": "bool",
							"name": "depositTokenIsNative",
							"type": "bool"
						},
						{
							"internalType": "uint256",
							"name": "founderDepositAmount",
							"type": "uint256"
						},
						{
							"internalType": "uint256",
							"name": "applicantDepositMinAmount",
							"type": "uint256"
						},
						{
							"internalType": "uint256",
							"name": "applyDeadline",
							"type": "uint256"
						}
					],
					"internalType": "struct Parameters",
					"name": "_paras",
					"type": "tuple"
				}
			],
			"stateMutability": "view",
			"type": "function"
		},
		{
			"inputs": [],
			"name": "postUpdate",
			"outputs": [],
			"stateMutability": "nonpayable",
			"type": "function"
		},
		{
			"inputs": [],
			"name": "release",
			"outputs": [],
			"stateMutability": "payable",
			"type": "function"
		},
		{
			"inputs": [],
			"name": "releaseMyDeposit",
			"outputs": [],
			"stateMutability": "payable",
			"type": "function"
		},
		{
			"inputs": [],
			"name": "renounceOwnership",
			"outputs": [],
			"stateMutability": "nonpayable",
			"type": "function"
		},
		{
			"inputs": [],
			"name": "state",
			"outputs": [
				{
					"internalType": "uint8",
					"name": "_bountyStatus",
					"type": "uint8"
				},
				{
					"internalType": "uint256",
					"name": "_applicantCount",
					"type": "uint256"
				},
				{
					"internalType": "uint256",
					"name": "_depositBalance",
					"type": "uint256"
				},
				{
					"internalType": "uint256",
					"name": "_founderDepositAmount",
					"type": "uint256"
				},
				{
					"internalType": "uint256",
					"name": "_applicantDepositAmount",
					"type": "uint256"
				},
				{
					"internalType": "uint256",
					"name": "_applicantDepositMinAmount",
					"type": "uint256"
				},
				{
					"internalType": "bool",
					"name": "_depositLock",
					"type": "bool"
				},
				{
					"internalType": "uint256",
					"name": "_timeLock",
					"type": "uint256"
				},
				{
					"internalType": "uint8",
					"name": "_myRole",
					"type": "uint8"
				},
				{
					"internalType": "uint256",
					"name": "_myDepositAmount",
					"type": "uint256"
				},
				{
					"internalType": "uint8",
					"name": "_myStatus",
					"type": "uint8"
				}
			],
			"stateMutability": "view",
			"type": "function"
		},
		{
			"inputs": [
				{
					"internalType": "address",
					"name": "newOwner",
					"type": "address"
				}
			],
			"name": "transferOwnership",
			"outputs": [],
			"stateMutability": "nonpayable",
			"type": "function"
		},
		{
			"inputs": [
				{
					"internalType": "address",
					"name": "newBounty",
					"type": "address"
				}
			],
			"name": "transferPrimary",
			"outputs": [],
			"stateMutability": "nonpayable",
			"type": "function"
		},
		{
			"inputs": [
				{
					"internalType": "address payable",
					"name": "newStore",
					"type": "address"
				}
			],
			"name": "transferStore",
			"outputs": [],
			"stateMutability": "nonpayable",
			"type": "function"
		},
		{
			"inputs": [
				{
					"internalType": "address",
					"name": "_address",
					"type": "address"
				}
			],
			"name": "unapproveApplicant",
			"outputs": [],
			"stateMutability": "nonpayable",
			"type": "function"
		},
		{
			"inputs": [],
			"name": "unlock",
			"outputs": [],
			"stateMutability": "payable",
			"type": "function"
		},
		{
			"inputs": [],
			"name": "vaultAccount",
			"outputs": [
				{
					"internalType": "address",
					"name": "",
					"type": "address"
				}
			],
			"stateMutability": "view",
			"type": "function"
		},
		{
			"inputs": [],
			"name": "whoAmI",
			"outputs": [
				{
					"internalType": "uint8",
					"name": "_role",
					"type": "uint8"
				},
				{
					"internalType": "uint256",
					"name": "_depositAmount",
					"type": "uint256"
				},
				{
					"internalType": "uint8",
					"name": "_applicantStatus",
					"type": "uint8"
				}
			],
			"stateMutability": "view",
			"type": "function"
		}
	]
}