{
  "_format": "hh-sol-artifact-1",
  "contractName": "Crowdfunding",
  "sourceName": "contracts/Crowdfunding.sol",
  "abi": [
    {
      "inputs": [
        {
          "internalType": "address",
          "name": "_factory",
          "type": "address"
        },
        {
          "internalType": "address",
          "name": "_founder",
          "type": "address"
        }
      ],
      "stateMutability": "nonpayable",
      "type": "constructor"
    },
    {
      "inputs": [],
      "name": "AmountExceedsMaximum",
      "type": "error"
    },
    {
      "inputs": [],
      "name": "AmountLTMinimum",
      "type": "error"
    },
    {
      "inputs": [],
      "name": "PriceIsMismatch",
      "type": "error"
    },
    {
      "inputs": [
        {
          "internalType": "string",
          "name": "_type",
          "type": "string"
        }
      ],
      "name": "TokenAllowanceInsufficient",
      "type": "error"
    },
    {
      "inputs": [
        {
          "internalType": "string",
          "name": "_type",
          "type": "string"
        }
      ],
      "name": "TokenBalanceInsufficient",
      "type": "error"
    },
    {
      "inputs": [
        {
          "internalType": "string",
          "name": "_type",
          "type": "string"
        }
      ],
      "name": "Transfer",
      "type": "error"
    },
    {
      "inputs": [
        {
          "internalType": "string",
          "name": "_type",
          "type": "string"
        }
      ],
      "name": "TransferLiquidity",
      "type": "error"
    },
    {
      "inputs": [],
      "name": "ZeroAmount",
      "type": "error"
    },
    {
      "anonymous": false,
      "inputs": [
        {
          "indexed": false,
          "internalType": "address",
          "name": "caller",
          "type": "address"
        },
        {
          "indexed": false,
          "internalType": "uint256",
          "name": "buyAmount",
          "type": "uint256"
        },
        {
          "indexed": false,
          "internalType": "uint256",
          "name": "sellAmount",
          "type": "uint256"
        },
        {
          "indexed": false,
          "internalType": "uint256",
          "name": "buyTokenBalance",
          "type": "uint256"
        },
        {
          "indexed": false,
          "internalType": "uint256",
          "name": "sellTokenBalance",
          "type": "uint256"
        },
        {
          "indexed": false,
          "internalType": "uint256",
          "name": "swapPoolBalance",
          "type": "uint256"
        }
      ],
      "name": "Buy",
      "type": "event"
    },
    {
      "anonymous": false,
      "inputs": [
        {
          "indexed": false,
          "internalType": "address",
          "name": "caller",
          "type": "address"
        },
        {
          "indexed": false,
          "internalType": "enum Crowdfunding.Status",
          "name": "status",
          "type": "uint8"
        }
      ],
      "name": "Cancel",
      "type": "event"
    },
    {
      "anonymous": false,
      "inputs": [
        {
          "indexed": false,
          "internalType": "address",
          "name": "owner",
          "type": "address"
        },
        {
          "indexed": false,
          "internalType": "address",
          "name": "factory",
          "type": "address"
        },
        {
          "indexed": false,
          "internalType": "address",
          "name": "founder",
          "type": "address"
        },
        {
          "indexed": false,
          "internalType": "uint256",
          "name": "deposit",
          "type": "uint256"
        },
        {
          "components": [
            {
              "internalType": "address",
              "name": "sellTokenAddress",
              "type": "address"
            },
            {
              "internalType": "address",
              "name": "buyTokenAddress",
              "type": "address"
            },
            {
              "internalType": "uint8",
              "name": "sellTokenDecimals",
              "type": "uint8"
            },
            {
              "internalType": "uint8",
              "name": "buyTokenDecimals",
              "type": "uint8"
            },
            {
              "internalType": "bool",
              "name": "buyTokenIsNative",
              "type": "bool"
            },
            {
              "internalType": "uint256",
              "name": "raiseTotal",
              "type": "uint256"
            },
            {
              "internalType": "uint256",
              "name": "buyPrice",
              "type": "uint256"
            },
            {
              "internalType": "uint16",
              "name": "swapPercent",
              "type": "uint16"
            },
            {
              "internalType": "uint16",
              "name": "sellTax",
              "type": "uint16"
            },
            {
              "internalType": "uint256",
              "name": "maxBuyAmount",
              "type": "uint256"
            },
            {
              "internalType": "uint256",
              "name": "minBuyAmount",
              "type": "uint256"
            },
            {
              "internalType": "uint16",
              "name": "maxSellPercent",
              "type": "uint16"
            },
            {
              "internalType": "address",
              "name": "teamWallet",
              "type": "address"
            },
            {
              "internalType": "uint256",
              "name": "startTime",
              "type": "uint256"
            },
            {
              "internalType": "uint256",
              "name": "endTime",
              "type": "uint256"
            },
            {
              "internalType": "address",
              "name": "router",
              "type": "address"
            },
            {
              "internalType": "uint256",
              "name": "dexInitPrice",
              "type": "uint256"
            }
          ],
          "indexed": false,
          "internalType": "struct Parameters",
          "name": "paras",
          "type": "tuple"
        }
      ],
      "name": "Created",
      "type": "event"
    },
    {
      "anonymous": false,
      "inputs": [
        {
          "indexed": true,
          "internalType": "address",
          "name": "previousOwner",
          "type": "address"
        },
        {
          "indexed": true,
          "internalType": "address",
          "name": "newOwner",
          "type": "address"
        }
      ],
      "name": "OwnershipTransferred",
      "type": "event"
    },
    {
      "anonymous": false,
      "inputs": [
        {
          "indexed": false,
          "internalType": "address",
          "name": "sender",
          "type": "address"
        },
        {
          "indexed": false,
          "internalType": "string",
          "name": "func",
          "type": "string"
        }
      ],
      "name": "Receive",
      "type": "event"
    },
    {
      "anonymous": false,
      "inputs": [
        {
          "indexed": false,
          "internalType": "address",
          "name": "caller",
          "type": "address"
        },
        {
          "indexed": false,
          "internalType": "enum Crowdfunding.Status",
          "name": "status",
          "type": "uint8"
        }
      ],
      "name": "Remove",
      "type": "event"
    },
    {
      "anonymous": false,
      "inputs": [
        {
          "indexed": false,
          "internalType": "address",
          "name": "caller",
          "type": "address"
        },
        {
          "indexed": false,
          "internalType": "uint256",
          "name": "buyAmount",
          "type": "uint256"
        },
        {
          "indexed": false,
          "internalType": "uint256",
          "name": "sellAmount",
          "type": "uint256"
        },
        {
          "indexed": false,
          "internalType": "uint256",
          "name": "buyTokenBalance",
          "type": "uint256"
        },
        {
          "indexed": false,
          "internalType": "uint256",
          "name": "sellTokenBalance",
          "type": "uint256"
        },
        {
          "indexed": false,
          "internalType": "uint256",
          "name": "swapPoolBalance",
          "type": "uint256"
        }
      ],
      "name": "Sell",
      "type": "event"
    },
    {
      "anonymous": false,
      "inputs": [
        {
          "indexed": false,
          "internalType": "address",
          "name": "caller",
          "type": "address"
        },
        {
          "indexed": false,
          "internalType": "enum Crowdfunding.Status",
          "name": "status",
          "type": "uint8"
        },
        {
          "indexed": false,
          "internalType": "bytes",
          "name": "data",
          "type": "bytes"
        }
      ],
      "name": "TransferToLiquidity",
      "type": "event"
    },
    {
      "anonymous": false,
      "inputs": [
        {
          "indexed": false,
          "internalType": "address",
          "name": "caller",
          "type": "address"
        },
        {
          "indexed": false,
          "internalType": "uint256",
          "name": "buyPrice",
          "type": "uint256"
        },
        {
          "indexed": false,
          "internalType": "uint16",
          "name": "swapPercent",
          "type": "uint16"
        },
        {
          "indexed": false,
          "internalType": "uint256",
          "name": "maxBuyAmount",
          "type": "uint256"
        },
        {
          "indexed": false,
          "internalType": "uint16",
          "name": "maxSellPercent",
          "type": "uint16"
        },
        {
          "indexed": false,
          "internalType": "uint256",
          "name": "endTime",
          "type": "uint256"
        }
      ],
      "name": "UpdateParas",
      "type": "event"
    },
    {
      "inputs": [],
      "name": "account",
      "outputs": [
        {
          "internalType": "address",
          "name": "",
          "type": "address"
        },
        {
          "internalType": "address",
          "name": "",
          "type": "address"
        },
        {
          "internalType": "address",
          "name": "",
          "type": "address"
        }
      ],
      "stateMutability": "view",
      "type": "function"
    },
    {
      "inputs": [
        {
          "internalType": "uint256",
          "name": "_buyAmount",
          "type": "uint256"
        },
        {
          "internalType": "uint256",
          "name": "_sellAmount",
          "type": "uint256"
        }
      ],
      "name": "buy",
      "outputs": [
        {
          "internalType": "bool",
          "name": "",
          "type": "bool"
        }
      ],
      "stateMutability": "payable",
      "type": "function"
    },
    {
      "inputs": [],
      "name": "buyTokenIsNative",
      "outputs": [
        {
          "internalType": "bool",
          "name": "isNative",
          "type": "bool"
        }
      ],
      "stateMutability": "view",
      "type": "function"
    },
    {
      "inputs": [],
      "name": "cancel",
      "outputs": [],
      "stateMutability": "nonpayable",
      "type": "function"
    },
    {
      "inputs": [],
      "name": "deposit",
      "outputs": [
        {
          "internalType": "uint256",
          "name": "_depositAmount",
          "type": "uint256"
        }
      ],
      "stateMutability": "view",
      "type": "function"
    },
    {
      "inputs": [],
      "name": "getStore",
      "outputs": [
        {
          "internalType": "address",
          "name": "",
          "type": "address"
        }
      ],
      "stateMutability": "view",
      "type": "function"
    },
    {
      "inputs": [
        {
          "components": [
            {
              "internalType": "address",
              "name": "sellTokenAddress",
              "type": "address"
            },
            {
              "internalType": "address",
              "name": "buyTokenAddress",
              "type": "address"
            },
            {
              "internalType": "uint8",
              "name": "sellTokenDecimals",
              "type": "uint8"
            },
            {
              "internalType": "uint8",
              "name": "buyTokenDecimals",
              "type": "uint8"
            },
            {
              "internalType": "bool",
              "name": "buyTokenIsNative",
              "type": "bool"
            },
            {
              "internalType": "uint256",
              "name": "raiseTotal",
              "type": "uint256"
            },
            {
              "internalType": "uint256",
              "name": "buyPrice",
              "type": "uint256"
            },
            {
              "internalType": "uint16",
              "name": "swapPercent",
              "type": "uint16"
            },
            {
              "internalType": "uint16",
              "name": "sellTax",
              "type": "uint16"
            },
            {
              "internalType": "uint256",
              "name": "maxBuyAmount",
              "type": "uint256"
            },
            {
              "internalType": "uint256",
              "name": "minBuyAmount",
              "type": "uint256"
            },
            {
              "internalType": "uint16",
              "name": "maxSellPercent",
              "type": "uint16"
            },
            {
              "internalType": "address",
              "name": "teamWallet",
              "type": "address"
            },
            {
              "internalType": "uint256",
              "name": "startTime",
              "type": "uint256"
            },
            {
              "internalType": "uint256",
              "name": "endTime",
              "type": "uint256"
            },
            {
              "internalType": "address",
              "name": "router",
              "type": "address"
            },
            {
              "internalType": "uint256",
              "name": "dexInitPrice",
              "type": "uint256"
            }
          ],
          "internalType": "struct Parameters",
          "name": "_parameters",
          "type": "tuple"
        }
      ],
      "name": "init",
      "outputs": [],
      "stateMutability": "payable",
      "type": "function"
    },
    {
      "inputs": [],
      "name": "maxBuyAmount",
      "outputs": [
        {
          "internalType": "uint256",
          "name": "_buyAmount",
          "type": "uint256"
        },
        {
          "internalType": "uint256",
          "name": "_sellAmount",
          "type": "uint256"
        }
      ],
      "stateMutability": "view",
      "type": "function"
    },
    {
      "inputs": [],
      "name": "maxSellAmount",
      "outputs": [
        {
          "internalType": "uint256",
          "name": "_buyAmount",
          "type": "uint256"
        },
        {
          "internalType": "uint256",
          "name": "_sellAmount",
          "type": "uint256"
        }
      ],
      "stateMutability": "view",
      "type": "function"
    },
    {
      "inputs": [],
      "name": "owner",
      "outputs": [
        {
          "internalType": "address",
          "name": "",
          "type": "address"
        }
      ],
      "stateMutability": "view",
      "type": "function"
    },
    {
      "inputs": [],
      "name": "parameters",
      "outputs": [
        {
          "components": [
            {
              "internalType": "address",
              "name": "sellTokenAddress",
              "type": "address"
            },
            {
              "internalType": "address",
              "name": "buyTokenAddress",
              "type": "address"
            },
            {
              "internalType": "uint8",
              "name": "sellTokenDecimals",
              "type": "uint8"
            },
            {
              "internalType": "uint8",
              "name": "buyTokenDecimals",
              "type": "uint8"
            },
            {
              "internalType": "bool",
              "name": "buyTokenIsNative",
              "type": "bool"
            },
            {
              "internalType": "uint256",
              "name": "raiseTotal",
              "type": "uint256"
            },
            {
              "internalType": "uint256",
              "name": "buyPrice",
              "type": "uint256"
            },
            {
              "internalType": "uint16",
              "name": "swapPercent",
              "type": "uint16"
            },
            {
              "internalType": "uint16",
              "name": "sellTax",
              "type": "uint16"
            },
            {
              "internalType": "uint256",
              "name": "maxBuyAmount",
              "type": "uint256"
            },
            {
              "internalType": "uint256",
              "name": "minBuyAmount",
              "type": "uint256"
            },
            {
              "internalType": "uint16",
              "name": "maxSellPercent",
              "type": "uint16"
            },
            {
              "internalType": "address",
              "name": "teamWallet",
              "type": "address"
            },
            {
              "internalType": "uint256",
              "name": "startTime",
              "type": "uint256"
            },
            {
              "internalType": "uint256",
              "name": "endTime",
              "type": "uint256"
            },
            {
              "internalType": "address",
              "name": "router",
              "type": "address"
            },
            {
              "internalType": "uint256",
              "name": "dexInitPrice",
              "type": "uint256"
            }
          ],
          "internalType": "struct Parameters",
          "name": "_paras",
          "type": "tuple"
        }
      ],
      "stateMutability": "view",
      "type": "function"
    },
    {
      "inputs": [],
      "name": "remove",
      "outputs": [],
      "stateMutability": "nonpayable",
      "type": "function"
    },
    {
      "inputs": [],
      "name": "renounceOwnership",
      "outputs": [],
      "stateMutability": "nonpayable",
      "type": "function"
    },
    {
      "inputs": [
        {
          "internalType": "uint256",
          "name": "_buyAmount",
          "type": "uint256"
        },
        {
          "internalType": "uint256",
          "name": "_sellAmount",
          "type": "uint256"
        }
      ],
      "name": "sell",
      "outputs": [
        {
          "internalType": "bool",
          "name": "",
          "type": "bool"
        }
      ],
      "stateMutability": "payable",
      "type": "function"
    },
    {
      "inputs": [],
      "name": "sellDeposit",
      "outputs": [
        {
          "internalType": "uint256",
          "name": "_depositAmount",
          "type": "uint256"
        }
      ],
      "stateMutability": "view",
      "type": "function"
    },
    {
      "inputs": [],
      "name": "state",
      "outputs": [
        {
          "internalType": "uint256",
          "name": "_raiseTotal",
          "type": "uint256"
        },
        {
          "internalType": "uint256",
          "name": "_raiseAmount",
          "type": "uint256"
        },
        {
          "internalType": "uint256",
          "name": "_swapPoolAmount",
          "type": "uint256"
        },
        {
          "internalType": "uint256",
          "name": "_sellTokenDeposit",
          "type": "uint256"
        },
        {
          "internalType": "uint256",
          "name": "_sellTokenAmount",
          "type": "uint256"
        },
        {
          "internalType": "uint256",
          "name": "_myBuyTokenAmount",
          "type": "uint256"
        },
        {
          "internalType": "uint256",
          "name": "_mySellTokenAmount",
          "type": "uint256"
        },
        {
          "internalType": "uint256",
          "name": "_buyTokenBalance",
          "type": "uint256"
        },
        {
          "internalType": "uint256",
          "name": "_sellTokenBalance",
          "type": "uint256"
        },
        {
          "internalType": "enum Crowdfunding.Status",
          "name": "_status",
          "type": "uint8"
        },
        {
          "internalType": "uint256",
          "name": "_dexInitPrice",
          "type": "uint256"
        }
      ],
      "stateMutability": "view",
      "type": "function"
    },
    {
      "inputs": [
        {
          "internalType": "address",
          "name": "newOwner",
          "type": "address"
        }
      ],
      "name": "transferOwnership",
      "outputs": [],
      "stateMutability": "nonpayable",
      "type": "function"
    },
    {
      "inputs": [
        {
          "internalType": "address",
          "name": "newCrowdfunding",
          "type": "address"
        }
      ],
      "name": "transferPrimary",
      "outputs": [],
      "stateMutability": "nonpayable",
      "type": "function"
    },
    {
      "inputs": [
        {
          "internalType": "address payable",
          "name": "newStore",
          "type": "address"
        }
      ],
      "name": "transferStore",
      "outputs": [],
      "stateMutability": "nonpayable",
      "type": "function"
    },
    {
      "inputs": [
        {
          "internalType": "address",
          "name": "_router",
          "type": "address"
        },
        {
          "internalType": "bytes",
          "name": "_data",
          "type": "bytes"
        }
      ],
      "name": "transferToLiquidity",
      "outputs": [
        {
          "internalType": "bool",
          "name": "success",
          "type": "bool"
        },
        {
          "internalType": "bytes",
          "name": "result",
          "type": "bytes"
        }
      ],
      "stateMutability": "payable",
      "type": "function"
    },
    {
      "inputs": [
        {
          "internalType": "uint256",
          "name": "_buyPrice",
          "type": "uint256"
        },
        {
          "internalType": "uint16",
          "name": "_swapPercent",
          "type": "uint16"
        },
        {
          "internalType": "uint256",
          "name": "_maxBuyAmount",
          "type": "uint256"
        },
        {
          "internalType": "uint256",
          "name": "_minBuyAmount",
          "type": "uint256"
        },
        {
          "internalType": "uint16",
          "name": "_maxSellPercent",
          "type": "uint16"
        },
        {
          "internalType": "uint256",
          "name": "_endTime",
          "type": "uint256"
        }
      ],
      "name": "updateParas",
      "outputs": [],
      "stateMutability": "nonpayable",
      "type": "function"
    },
    {
      "inputs": [],
      "name": "vaultAccount",
      "outputs": [
        {
          "internalType": "address",
          "name": "",
          "type": "address"
        }
      ],
      "stateMutability": "view",
      "type": "function"
    },
    {
      "stateMutability": "payable",
      "type": "receive"
    }
  ],
  "bytecode": "0x60806040523480156200001157600080fd5b5060405162004a7038038062004a708339810160408190526200003491620000fa565b6200003f336200008d565b600580546001600160a01b039384166001600160a01b031991821681179092556006805493909416928116929092179092556018805482163017905560048054909116909117905562000132565b600080546001600160a01b038381166001600160a01b0319831681178455604051919092169283917f8be0079c531659141344cd1fd0a4f28419497f9722a3daafe3b4186f6b6457e09190a35050565b80516001600160a01b0381168114620000f557600080fd5b919050565b600080604083850312156200010e57600080fd5b6200011983620000dd565b91506200012960208401620000dd565b90509250929050565b61492e80620001426000396000f3fe6080604052600436106101395760003560e01c8063ae9bb7a7116100ab578063d6febde81161006f578063d6febde814610507578063d79875eb1461051a578063ea8a1af01461052d578063f2fde38b14610542578063f4e759ef14610562578063f523e7751461057757600080fd5b8063ae9bb7a71461047f578063c19d93fb1461049e578063c2722ecc146104ca578063d0e30db0146104df578063d13a2672146104f457600080fd5b8063715018a6116100fd578063715018a61461027057806388e765ff14610285578063890357301461029a5780638da5cb5b146104175780639761729314610449578063a7f437791461046a57600080fd5b80632348238c146101955780632ac2eebf146101b75780633bf3e18e146101d75780635dab24201461020757806366d602ae1461024657600080fd5b36610190576040805133815260208101829052600781830152667265636569766560c81b606082015290517fd00ca3f088120b3d909c3a9e01be91e94a2b001aed9c25fe751c3c7a72dc49bf9181900360800190a1005b600080fd5b3480156101a157600080fd5b506101b56101b0366004612f1d565b610597565b005b3480156101c357600080fd5b506101b56101d2366004612f53565b61062c565b3480156101e357600080fd5b50600d54600160b01b900460ff165b60405190151581526020015b60405180910390f35b34801561021357600080fd5b5061021c6106fd565b604080516001600160a01b03948516815292841660208401529216918101919091526060016101fe565b34801561025257600080fd5b5061025b610731565b604080519283526020830191909152016101fe565b34801561027c57600080fd5b506101b5610745565b34801561029157600080fd5b5061025b610771565b3480156102a657600080fd5b5061040a6040805161022081018252600080825260208201819052918101829052606081018290526080810182905260a0810182905260c0810182905260e08101829052610100810182905261012081018290526101408101829052610160810182905261018081018290526101a081018290526101c081018290526101e08101829052610200810191909152506040805161022081018252600c546001600160a01b039081168252600d54808216602084015260ff600160a01b8204811694840194909452600160a81b810484166060840152600160b01b900490921615156080820152600e5460a0820152600f5460c082015260105461ffff80821660e0840152620100009182900481166101008401526011546101208401526012546101408401526013549081166101608401520482166101808201526014546101a08201526015546101c08201526016549091166101e082015260175461020082015290565b6040516101fe9190612fab565b34801561042357600080fd5b506000546001600160a01b03165b6040516001600160a01b0390911681526020016101fe565b61045c6104573660046130cd565b61077d565b6040516101fe9291906131a2565b34801561047657600080fd5b506101b5610b85565b34801561048b57600080fd5b506007545b6040519081526020016101fe565b3480156104aa57600080fd5b506104b3610d2f565b6040516101fe9b9a999897969594939291906131fd565b3480156104d657600080fd5b50610431610f1a565b3480156104eb57600080fd5b50600854610490565b6101b56105023660046132d2565b610f55565b6101f26105153660046133e9565b6113b4565b6101f26105283660046133e9565b611b11565b34801561053957600080fd5b506101b56120fc565b34801561054e57600080fd5b506101b561055d366004612f1d565b6121c7565b34801561056e57600080fd5b50610431612262565b34801561058357600080fd5b506101b5610592366004612f1d565b61229d565b6000546001600160a01b031633146105ca5760405162461bcd60e51b81526004016105c19061340b565b60405180910390fd5b6001546040516308d208e360e21b81526001600160a01b03838116600483015290911690632348238c90602401600060405180830381600087803b15801561061157600080fd5b505af1158015610625573d6000803e3d6000fd5b5050505050565b6000546001600160a01b031633146106565760405162461bcd60e51b81526004016105c19061340b565b61065e6122e9565b61066661234f565b600f8690556010805461ffff87811661ffff1992831681179093556011879055601286905560138054918616919092168117909155601583905560408051338152602081018a90529081019290925260608201869052608082015260a081018290527fa8b16e07b45dffc2932e0802241be3440dde875279aadac4329f00b494dc495e9060c00160405180910390a1505050505050565b60008060006107146000546001600160a01b031690565b60055460065491956001600160a01b039182169550911692509050565b60008061073d3361239a565b915091509091565b6000546001600160a01b0316331461076f5760405162461bcd60e51b81526004016105c19061340b565b565b60008061073d336124fd565b600080546060906001600160a01b031633146107ab5760405162461bcd60e51b81526004016105c19061340b565b601954600160a81b900460ff16156107d55760405162461bcd60e51b81526004016105c190613440565b6019805460ff60a81b1916600160a81b1790556107f06122e9565b6107f86125d1565b6016546001600160a01b031661084a576040516306b53bd360e11b81526020600482015260166024820152756e6f7420616c6c6f77206175746f206c697374696e6760501b60448201526064016105c1565b6016546001600160a01b0386811691161461089e576040516306b53bd360e11b815260206004820152601360248201527224b731b7b739b4b9ba32b73a103937baba32b960691b60448201526064016105c1565b60006108a86126a9565b9050806108c75760405162461bcd60e51b81526004016105c190613468565b60006108d1612929565b600d54909150600090610907906108f390600160a81b900460ff16600a6135b3565b6017546109019085906129c4565b906129d0565b6002546019546040516370a0823160e01b81526001600160a01b03918216600482015292935016906370a0823190602401602060405180830381865afa158015610955573d6000803e3d6000fd5b505050506040513d601f19601f8201168201806040525081019061097991906135c2565b8111156109b657604051638c2f4c6b60e01b815260206004820152600a60248201526939b2b636103a37b5b2b760b11b60448201526064016105c1565b600160009054906101000a90046001600160a01b03166001600160a01b031663e5a4dbf889600260009054906101000a90046001600160a01b0316600360009054906101000a90046001600160a01b031685878d8d600c60010160169054906101000a900460ff166040518963ffffffff1660e01b8152600401610a419897969594939291906135db565b6000604051808303816000875af1158015610a60573d6000803e3d6000fd5b505050506040513d6000823e601f3d908101601f19168201604052610a889190810190613646565b909550935084610ada5760405162461bcd60e51b815260206004820152601760248201527f4661696c656420746f20616464206c697175696469747900000000000000000060448201526064016105c1565b601354610af5906201000090046001600160a01b03166129dc565b610b115760405162461bcd60e51b81526004016105c190613709565b6019805460ff60a01b1916600360a01b17908190556040517fab3f2147088482db1a84b21889cc70b0e5ac5a0a34b9217f12cfc1861a9c3cef91610b63913391600160a01b900460ff16908890613740565b60405180910390a15050506019805460ff60a81b191690559094909350915050565b6000546001600160a01b03163314610baf5760405162461bcd60e51b81526004016105c19061340b565b610bb76122e9565b610bbf6125d1565b6016546001600160a01b031615610c0d576040516306b53bd360e11b81526020600482015260116024820152706f6e6c79206175746f206c697374696e6760781b60448201526064016105c1565b6000610c176126a9565b905080610c365760405162461bcd60e51b81526004016105c190613468565b601354610c51906201000090046001600160a01b0316612afc565b610c9d5760405162461bcd60e51b815260206004820152601860248201527f526566756e642062757920746f6b656e206661696c757265000000000000000060448201526064016105c1565b601354610cb8906201000090046001600160a01b03166129dc565b610cd45760405162461bcd60e51b81526004016105c190613709565b6019805460ff60a01b1916600360a01b17908190556040517fc5b1926826a1a3d3516971a2579cab66ddfa770959e8c2f1d832386b262e2d8691610d24913391600160a01b900460ff1690613778565b60405180910390a150565b601954600d5460009182918291829182918291829182918291829182916001600160a01b03163190600160b01b900460ff16610dd8576003546019546040516370a0823160e01b81526001600160a01b0391821660048201529116906370a0823190602401602060405180830381865afa158015610db1573d6000803e3d6000fd5b505050506040513d601f19601f82011682018060405250810190610dd591906135c2565b90505b60015460405163f5a7976760e01b815233600482015260009182916001600160a01b039091169063f5a79767906024016040805180830381865afa158015610e24573d6000803e3d6000fd5b505050506040513d601f19601f82011682018060405250810190610e489190613795565b600e54600954600a54600754600b546002546019546040516370a0823160e01b81526001600160a01b039182166004820152989a5096985094969395929491939092899289928c92909116906370a0823190602401602060405180830381865afa158015610eba573d6000803e3d6000fd5b505050506040513d601f19601f82011682018060405250810190610ede91906135c2565b601960149054906101000a900460ff16600c600b01549d509d509d509d509d509d509d509d509d509d509d50505050909192939495969798999a565b600080546001600160a01b03163314610f455760405162461bcd60e51b81526004016105c19061340b565b506001546001600160a01b031690565b6000546001600160a01b03163314610f7f5760405162461bcd60e51b81526004016105c19061340b565b6001546001600160a01b031615610fcc5760405162461bcd60e51b815260206004820152601160248201527053746f7265206973206e6f74207a65726f60781b60448201526064016105c1565b604051610fd890612eeb565b604051809103906000f080158015610ff4573d6000803e3d6000fd5b50600180546001600160a01b03199081166001600160a01b039384169081179092556019805482169092179091558251600c805483169184169190911790556020830151600d80546040860151606087015160808801519487166001600160a81b031990931692909217600160a01b60ff928316021761ffff60a81b1916600160a81b919092160260ff60b01b191617600160b01b9215159290920291909117905560a0830151600e5560c0830151600f5560e08301516010805461010086015161ffff93841663ffffffff19909216919091176201000091841682021790915561012085015160115561014085015160125561016085015160138054610180880151929094166001600160b01b0319909416939093179085169091021790556101a08301516014556101c08301516015556101e083015160168054909216921691909117905561020081015160175561114c612c2a565b6019805460ff60a01b1916600160a01b83600481111561116e5761116e6131c5565b0217905550600c54600280546001600160a01b0319166001600160a01b0390921691821790556040805163313ce56760e01b8152905163313ce567916004808201926020929091908290030181865afa1580156111cf573d6000803e3d6000fd5b505050506040513d601f19601f820116820180604052508101906111f391906137b9565b600d805460ff92909216600160a01b0260ff60a01b1983168117909155600c546001600160a01b039182169282169290921791160361124557600d805461ffff60a81b1916608960a91b1790556112f1565b600d805460ff60b01b198116909155600380546001600160a01b0319166001600160a01b0390921691821790556040805163313ce56760e01b8152905163313ce567916004808201926020929091908290030181865afa1580156112ad573d6000803e3d6000fd5b505050506040513d601f19601f820116820180604052508101906112d191906137b9565b600d805460ff92909216600160a81b0260ff60a81b199092169190911790555b600e546112ff906000612c52565b6007819055600b819055600d5461135692506113509061132a90600160a81b900460ff16600a6135b3565b601754601054600e546109019261271092849261134a9161ffff166129c4565b906129c4565b90612ce2565b6008557fa81af9f26c34c6997396d1d61be10b4cd9843035f372979270c7049cf0325b8a61138c6000546001600160a01b031690565b600554600654600754604051610d2494936001600160a01b0390811693169190600c906137d6565b60006113be6122e9565b6113c6612cee565b601954600160a81b900460ff16156113f05760405162461bcd60e51b81526004016105c190613440565b6019805460ff60a81b1916600160a81b17905582158061140e575081155b1561142c57604051631f2a200560e01b815260040160405180910390fd5b6114368383612d40565b6114535760405163640dea9d60e11b815260040160405180910390fd5b60125483101561147657604051636226a2a560e01b815260040160405180910390fd5b6114803384612d89565b61149d576040516311b5c73d60e21b815260040160405180910390fd5b6002546019546040516370a0823160e01b81526001600160a01b039182166004820152849291909116906370a0823190602401602060405180830381865afa1580156114ed573d6000803e3d6000fd5b505050506040513d601f19601f8201168201806040525081019061151191906135c2565b101561153057604051638c2f4c6b60e01b81526004016105c1906138f2565b600061153b84612db3565b600d54909150600160b01b900460ff1615611694578334146115985760405162461bcd60e51b81526020600482015260166024820152751b5cd9cb9d985b1d59481a5cc81b9bdd081d985b1a5960521b60448201526064016105c1565b6019546040516000916001600160a01b03169083908381818185875af1925050503d80600081146115e5576040519150601f19603f3d011682016040523d82523d6000602084013e6115ea565b606091505b50509050801561160d57604051633e75f72760e11b81526004016105c190613910565b6013546201000090046001600160a01b03166116293484612dd5565b604051600081818185875af1925050503d8060008114611665576040519150601f19603f3d011682016040523d82523d6000602084013e61166a565b606091505b5090915050801561168e57604051633e75f72760e11b81526004016105c190613910565b506118fb565b600354601854604051636eb1769f60e11b81523360048201526001600160a01b0391821660248201528692919091169063dd62ed3e90604401602060405180830381865afa1580156116ea573d6000803e3d6000fd5b505050506040513d601f19601f8201168201806040525081019061170e91906135c2565b101561172d57604051630b29193560e31b81526004016105c190613910565b6003546040516370a0823160e01b815233600482015285916001600160a01b0316906370a0823190602401602060405180830381865afa158015611775573d6000803e3d6000fd5b505050506040513d601f19601f8201168201806040525081019061179991906135c2565b10156117b857604051638c2f4c6b60e01b81526004016105c190613910565b6003546019546040516323b872dd60e01b81526001600160a01b03928316926323b872dd926117f192339290911690869060040161392d565b6020604051808303816000875af1158015611810573d6000803e3d6000fd5b505050506040513d601f19601f820116820180604052508101906118349190613951565b61185157604051633e75f72760e11b81526004016105c190613910565b6003546013546001600160a01b03918216916323b872dd913391620100009091041661187d8886612dd5565b6040518463ffffffff1660e01b815260040161189b9392919061392d565b6020604051808303816000875af11580156118ba573d6000803e3d6000fd5b505050506040513d601f19601f820116820180604052508101906118de9190613951565b6118fb57604051633e75f72760e11b81526004016105c190613910565b600154600254604051637aa9bf6f60e11b81526001600160a01b039283169263f5537ede92611933929116903390889060040161392d565b6020604051808303816000875af1158015611952573d6000803e3d6000fd5b505050506040513d601f19601f820116820180604052508101906119769190613951565b61199357604051633e75f72760e11b81526004016105c1906138f2565b6009546119a09085612ce2565b600955600b546119b09084612dd5565b600b55600a546119c09082612ce2565b600a55600154604051636aa05ee360e01b815233600482015260248101869052604481018590526001600160a01b0390911690636aa05ee390606401600060405180830381600087803b158015611a1657600080fd5b505af1158015611a2a573d6000803e3d6000fd5b50506001546040516379da956560e01b815233600482015260248101889052604481018790526001600160a01b0390911692506379da95659150606401600060405180830381600087803b158015611a8157600080fd5b505af1158015611a95573d6000803e3d6000fd5b5050600954600b54600a5460408051338152602081018b90529081018990526060810193909352608083019190915260a08201527f178f20a8980b4e6cdc2c84f3ef670f5047f63638f90a8acc6b724b43f1da778d925060c00190505b60405180910390a150506019805460ff60a81b19169055506001919050565b6000611b1b6122e9565b611b23612cee565b601954600160a81b900460ff1615611b4d5760405162461bcd60e51b81526004016105c190613440565b6019805460ff60a81b1916600160a81b179055821580611b6b575081155b15611b8957604051631f2a200560e01b815260040160405180910390fd5b611b938383612d40565b611bb05760405163640dea9d60e11b815260040160405180910390fd5b611bba3383612de1565b611bd7576040516311b5c73d60e21b815260040160405180910390fd5b6000611be284612e01565b905080611bed612929565b1015611c0c57604051638c2f4c6b60e01b81526004016105c190613910565b600254601854604051636eb1769f60e11b81523360048201526001600160a01b0391821660248201528592919091169063dd62ed3e90604401602060405180830381865afa158015611c62573d6000803e3d6000fd5b505050506040513d601f19601f82011682018060405250810190611c8691906135c2565b1015611cc257604051630b29193560e31b815260206004820152600a60248201526929b2b636103a37b5b2b760b11b60448201526064016105c1565b6002546040516370a0823160e01b815233600482015284916001600160a01b0316906370a0823190602401602060405180830381865afa158015611d0a573d6000803e3d6000fd5b505050506040513d601f19601f82011682018060405250810190611d2e91906135c2565b1015611d6a57604051638c2f4c6b60e01b815260206004820152600a60248201526929b2b636103a37b5b2b760b11b60448201526064016105c1565b6002546019546040516323b872dd60e01b81526001600160a01b03928316926323b872dd92611da392339290911690889060040161392d565b6020604051808303816000875af1158015611dc2573d6000803e3d6000fd5b505050506040513d601f19601f82011682018060405250810190611de69190613951565b611e0357604051633e75f72760e11b81526004016105c1906138f2565b600d54600160b01b900460ff1615611ed9576019546001600160a01b031631811115611e4257604051630b29193560e31b81526004016105c19061396e565b60015460405163a9059cbb60e01b8152336004820152602481018390526001600160a01b039091169063a9059cbb906044016020604051808303816000875af1158015611e93573d6000803e3d6000fd5b505050506040513d601f19601f82011682018060405250810190611eb79190613951565b611ed457604051633e75f72760e11b81526004016105c19061396e565b612004565b6003546019546040516370a0823160e01b81526001600160a01b039182166004820152839291909116906370a0823190602401602060405180830381865afa158015611f29573d6000803e3d6000fd5b505050506040513d601f19601f82011682018060405250810190611f4d91906135c2565b1015611f6c57604051630b29193560e31b81526004016105c19061396e565b600154600354604051637aa9bf6f60e11b81526001600160a01b039283169263f5537ede92611fa4929116903390869060040161392d565b6020604051808303816000875af1158015611fc3573d6000803e3d6000fd5b505050506040513d601f19601f82011682018060405250810190611fe79190613951565b61200457604051633e75f72760e11b81526004016105c19061396e565b6009546120119085612dd5565b600955600b546120219084612ce2565b600b55600a546120319082612dd5565b600a5560015460405163e32fca3f60e01b815233600482015260248101869052604481018590526001600160a01b039091169063e32fca3f90606401600060405180830381600087803b15801561208757600080fd5b505af115801561209b573d6000803e3d6000fd5b5050600954600b54600a5460408051338152602081018b90529081018990526060810193909352608083019190915260a08201527f20a7fc03b19d7f251cc907f177ff82194c6aebe9a2b47e1cd734dcb6bf772cc2925060c0019050611af2565b6000546001600160a01b031633146121265760405162461bcd60e51b81526004016105c19061340b565b61212e6122e9565b612136612e34565b601354612151906201000090046001600160a01b03166129dc565b61216d5760405162461bcd60e51b81526004016105c190613709565b6019805460ff60a01b1916600160a21b17908190556040517fcd8e02743d921fb9bca767936271b8b93911716c78c1d46c2c6ee6189309d30c916121bd913391600160a01b900460ff1690613778565b60405180910390a1565b6000546001600160a01b031633146121f15760405162461bcd60e51b81526004016105c19061340b565b6001600160a01b0381166122565760405162461bcd60e51b815260206004820152602660248201527f4f776e61626c653a206e6577206f776e657220697320746865207a65726f206160448201526564647265737360d01b60648201526084016105c1565b61225f81612e85565b50565b600080546001600160a01b0316331461228d5760405162461bcd60e51b81526004016105c19061340b565b506019546001600160a01b031690565b6000546001600160a01b031633146122c75760405162461bcd60e51b81526004016105c19061340b565b600180546001600160a01b0319166001600160a01b0392909216919091179055565b6004601954600160a01b900460ff166004811115612309576123096131c5565b0361076f5760405162461bcd60e51b815260206004820152601660248201527510dc9bddd9199d5b991a5b99c81a5cc818d85b98d95b60521b60448201526064016105c1565b60155442111561076f5760405162461bcd60e51b815260206004820152601660248201527510dc9bddd9199d5b991a5b99c81a185cc8195b99195960521b60448201526064016105c1565b600154604051631d76db5b60e31b81526001600160a01b038381166004830152600092839283929091169063ebb6dad8906024016040805180830381865afa1580156123ea573d6000803e3d6000fd5b505050506040513d601f19601f8201168201806040525081019061240e9190613795565b60015460405163f5a7976760e01b81526001600160a01b0388811660048301529294506000935091169063f5a79767906024016040805180830381865afa15801561245d573d6000803e3d6000fd5b505050506040513d601f19601f820116820180604052508101906124819190613795565b601354909250600091506124c8906124c29085906124bc90612710906124ab9061ffff1684613991565b6124b591906139a8565b8690612ce2565b90612dd5565b83612ed5565b905060006124d9600a546000612c52565b9150506124f060006124eb8484612ed5565b612c52565b9550955050505050915091565b60015460405163f5a7976760e01b81526001600160a01b038381166004830152600092839283929091169063f5a79767906024016040805180830381865afa15801561254d573d6000803e3d6000fd5b505050506040513d601f19601f820116820180604052508101906125719190613795565b5060115490915060009061259d906125899084612dd5565b600954600e5461259891612dd5565b612ed5565b905060006125ae6000600b54612c52565b5090506125c56125be8383612ed5565b6000612c52565b94509450505050915091565b6015544211806125e55750600e5460095410155b61263c5760405162461bcd60e51b815260206004820152602260248201527f43726f776466756e64696e6720656e6420636f6e646974696f6e206e6f74206d604482015261195d60f21b60648201526084016105c1565b6003601954600160a01b900460ff16600481111561265c5761265c6131c5565b0361076f5760405162461bcd60e51b815260206004820152601c60248201527f43726f776466756e64696e672073746174757320697320656e6465640000000060448201526064016105c1565b600080612739612710610901600460009054906101000a90046001600160a01b03166001600160a01b031663ddca3f436040518163ffffffff1660e01b8152600401602060405180830381865afa158015612708573d6000803e3d6000fd5b505050506040513d601f19601f8201168201806040525081019061272c91906139ca565b62ffffff1661134a612929565b600d54909150600090600160b01b900460ff1615612841576001546004805460408051622fcfcb60e31b815290516001600160a01b039485169463a9059cbb9493169263017e7e58928082019260209290918290030181865afa1580156127a4573d6000803e3d6000fd5b505050506040513d601f19601f820116820180604052508101906127c891906139ef565b6040516001600160e01b031960e084901b1681526001600160a01b039091166004820152602481018590526044015b6020604051808303816000875af1158015612816573d6000803e3d6000fd5b505050506040513d601f19601f8201168201806040525081019061283a9190613951565b9050612923565b6001546003546004805460408051622fcfcb60e31b815290516001600160a01b039586169563f5537ede9581169493169263017e7e58928082019260209290918290030181865afa15801561289a573d6000803e3d6000fd5b505050506040513d601f19601f820116820180604052508101906128be91906139ef565b856040518463ffffffff1660e01b81526004016128dd9392919061392d565b6020604051808303816000875af11580156128fc573d6000803e3d6000fd5b505050506040513d601f19601f820116820180604052508101906129209190613951565b90505b92915050565b600d54600090600160b01b900460ff161561294f57506019546001600160a01b03163190565b6003546019546040516370a0823160e01b81526001600160a01b0391821660048201529116906370a0823190602401602060405180830381865afa15801561299b573d6000803e3d6000fd5b505050506040513d601f19601f820116820180604052508101906129bf91906135c2565b905090565b60006129208284613991565b600061292082846139a8565b6002546019546040516370a0823160e01b81526001600160a01b03918216600482015260009260019284929116906370a0823190602401602060405180830381865afa158015612a30573d6000803e3d6000fd5b505050506040513d601f19601f82011682018060405250810190612a5491906135c2565b1115612923576001546002546019546040516370a0823160e01b81526001600160a01b0391821660048201529281169263f5537ede929190911690869082906370a08231906024015b602060405180830381865afa158015612aba573d6000803e3d6000fd5b505050506040513d601f19601f82011682018060405250810190612ade91906135c2565b6040518463ffffffff1660e01b81526004016128dd9392919061392d565b600d54600090600190600160b01b900460ff1615612b68576019546001600160a01b03163115612b635760015460195460405163a9059cbb60e01b81526001600160a01b03868116600483015291821631602482015291169063a9059cbb906044016127f7565b612923565b6003546019546040516370a0823160e01b81526001600160a01b03918216600482015260009291909116906370a0823190602401602060405180830381865afa158015612bb9573d6000803e3d6000fd5b505050506040513d601f19601f82011682018060405250810190612bdd91906135c2565b1115612923576001546003546019546040516370a0823160e01b81526001600160a01b0391821660048201529281169263f5537ede929190911690869082906370a0823190602401612a9d565b601454600090421015612c3d5750600190565b6015544211612c4c5750600290565b50600390565b6000808315612c9557600d548490612c7590600160a81b900460ff16600a6135b3565b600f54612c829087613991565b612c8c91906139a8565b91509150612cdb565b8215612cd457600f54600d54612cb690600160a81b900460ff16600a6135b3565b612cc09085613991565b612cca91906139a8565b8391509150612cdb565b5060009050805b9250929050565b60006129208284613a0c565b60145442101561234f5760405162461bcd60e51b815260206004820152601860248201527f43726f776466756e64696e67206e6f742073746172746564000000000000000060448201526064016105c1565b600080612d4e846000612c52565b9150506000612d5e600085612c52565b50905084811480612d6e57508382145b15612d7e57600192505050612923565b506000949350505050565b600080612d95846124fd565b509050808311612da9576001915050612923565b6000915050612923565b60105460009061271090612dcb9061ffff1684613991565b61292391906139a8565b60006129208284613a1f565b600080612ded8461239a565b915050808311612da9576001915050612923565b6010546000906129239061271090612e239062010000900461ffff1685613991565b612e2d91906139a8565b8390612dd5565b601454421061076f5760405162461bcd60e51b815260206004820152601860248201527f43726f776466756e64696e67206861732073746172746564000000000000000060448201526064016105c1565b600080546001600160a01b038381166001600160a01b0319831681178455604051919092169283917f8be0079c531659141344cd1fd0a4f28419497f9722a3daafe3b4186f6b6457e09190a35050565b6000818310612ee45781612920565b5090919050565b610ec680613a3383390190565b6001600160a01b038116811461225f57600080fd5b8035612f1881612ef8565b919050565b600060208284031215612f2f57600080fd5b8135612f3a81612ef8565b9392505050565b803561ffff81168114612f1857600080fd5b60008060008060008060c08789031215612f6c57600080fd5b86359550612f7c60208801612f41565b94506040870135935060608701359250612f9860808801612f41565b915060a087013590509295509295509295565b81516001600160a01b0316815261022081016020830151612fd760208401826001600160a01b03169052565b506040830151612fec604084018260ff169052565b506060830151613001606084018260ff169052565b506080830151613015608084018215159052565b5060a083015160a083015260c083015160c083015260e083015161303f60e084018261ffff169052565b506101008381015161ffff8116848301525050610120838101519083015261014080840151908301526101608084015161ffff8116828501525050610180838101516001600160a01b0381168483015250506101a083810151908301526101c080840151908301526101e0808401516001600160a01b03811682850152505061020092830151919092015290565b6000806000604084860312156130e257600080fd5b83356130ed81612ef8565b9250602084013567ffffffffffffffff8082111561310a57600080fd5b818601915086601f83011261311e57600080fd5b81358181111561312d57600080fd5b87602082850101111561313f57600080fd5b6020830194508093505050509250925092565b60005b8381101561316d578181015183820152602001613155565b50506000910152565b6000815180845261318e816020860160208601613152565b601f01601f19169290920160200192915050565b82151581526040602082015260006131bd6040830184613176565b949350505050565b634e487b7160e01b600052602160045260246000fd5b600581106131f957634e487b7160e01b600052602160045260246000fd5b9052565b6000610160820190508c82528b60208301528a60408301528960608301528860808301528760a08301528660c08301528560e0830152846101008301526132486101208301856131db565b826101408301529c9b505050505050505050505050565b634e487b7160e01b600052604160045260246000fd5b604051610220810167ffffffffffffffff811182821017156132995761329961325f565b60405290565b60ff8116811461225f57600080fd5b8035612f188161329f565b801515811461225f57600080fd5b8035612f18816132b9565b600061022082840312156132e557600080fd5b6132ed613275565b6132f683612f0d565b815261330460208401612f0d565b6020820152613315604084016132ae565b6040820152613326606084016132ae565b6060820152613337608084016132c7565b608082015260a083013560a082015260c083013560c082015261335c60e08401612f41565b60e082015261010061336f818501612f41565b9082015261012083810135908201526101408084013590820152610160613397818501612f41565b908201526101806133a9848201612f0d565b908201526101a083810135908201526101c080840135908201526101e06133d1818501612f0d565b90820152610200928301359281019290925250919050565b600080604083850312156133fc57600080fd5b50508035926020909101359150565b6020808252818101527f4f776e61626c653a2063616c6c6572206973206e6f7420746865206f776e6572604082015260600190565b6020808252600e908201526d4e6f2072652d656e7472616e637960901b604082015260600190565b60208082526031908201527f546865726520697320616e206572726f7220696e207769746864726177696e67604082015270207468652068616e646c696e672066656560781b606082015260800190565b634e487b7160e01b600052601160045260246000fd5b600181815b8085111561350a5781600019048211156134f0576134f06134b9565b808516156134fd57918102915b93841c93908002906134d4565b509250929050565b60008261352157506001612923565b8161352e57506000612923565b8160018114613544576002811461354e5761356a565b6001915050612923565b60ff84111561355f5761355f6134b9565b50506001821b612923565b5060208310610133831016604e8410600b841016171561358d575081810a612923565b61359783836134cf565b80600019048211156135ab576135ab6134b9565b029392505050565b600061292060ff841683613512565b6000602082840312156135d457600080fd5b5051919050565b6001600160a01b038981168252888116602083015287166040820152606081018690526080810185905260e060a0820181905281018390526000610100848682850137600083860182015292151560c083015250601f909201601f1916909101019695505050505050565b6000806040838503121561365957600080fd5b8251613664816132b9565b602084015190925067ffffffffffffffff8082111561368257600080fd5b818501915085601f83011261369657600080fd5b8151818111156136a8576136a861325f565b604051601f8201601f19908116603f011681019083821181831017156136d0576136d061325f565b816040528281528860208487010111156136e957600080fd5b6136fa836020830160208801613152565b80955050505050509250929050565b60208082526019908201527f526566756e642073656c6c20746f6b656e206661696c75726500000000000000604082015260600190565b6001600160a01b038416815261375960208201846131db565b60606040820152600061376f6060830184613176565b95945050505050565b6001600160a01b038316815260408101612f3a60208301846131db565b600080604083850312156137a857600080fd5b505080516020909101519092909150565b6000602082840312156137cb57600080fd5b8151612f3a8161329f565b6001600160a01b03868116825285811660208301528481166040830152606082018490528254811660808301526102a082019060018401546001600160a01b038282161660a085015260a081901c60ff1660c085015260a881901c60ff1660e085015261384e610100850160ff8360b01c1615159052565b5060028401546101208401526003840154610140840152600484015461ffff808216610160860152601091821c811661018086015260058601546101a086015260068601546101c086015260078601549081166101e0860152901c166001600160a01b0390811661020084015260088401546102208401526009840154610240840152600a84015416610260830152600b9092015461028090910152949350505050565b60208082526004908201526314d95b1b60e21b604082015260600190565b60208082526003908201526242757960e81b604082015260600190565b6001600160a01b039384168152919092166020820152604081019190915260600190565b60006020828403121561396357600080fd5b8151612f3a816132b9565b602080825260099082015268213abc903a37b5b2b760b91b604082015260600190565b8082028115828204841417612923576129236134b9565b6000826139c557634e487b7160e01b600052601260045260246000fd5b500490565b6000602082840312156139dc57600080fd5b815162ffffff81168114612f3a57600080fd5b600060208284031215613a0157600080fd5b8151612f3a81612ef8565b80820180821115612923576129236134b9565b81810381811115612923576129236134b956fe608060405234801561001057600080fd5b50600080546001600160a01b0319163390811790915560408051918252517f4101e71e974f68df5e9730cc223280b41654676bbb052cdcc735c3337e64d2d99181900360200190a1610e5f806100676000396000f3fe6080604052600436106100ab5760003560e01c8063da3e339711610064578063da3e3397146101e6578063e32fca3f14610206578063e5a4dbf814610226578063ebb6dad814610254578063f5537ede14610289578063f5a79767146102a957600080fd5b80632348238c146101075780636aa05ee31461012957806379da956514610149578063a2ba266b14610169578063a9059cbb14610189578063c6dbdf61146101be57600080fd5b36610102576040805133815260208101829052600781830152667265636569766560c81b606082015290517fd00ca3f088120b3d909c3a9e01be91e94a2b001aed9c25fe751c3c7a72dc49bf9181900360800190a1005b600080fd5b34801561011357600080fd5b50610127610122366004610b71565b6102c9565b005b34801561013557600080fd5b50610127610144366004610b8e565b6103c2565b34801561015557600080fd5b50610127610164366004610b8e565b610467565b34801561017557600080fd5b50610127610184366004610b8e565b61050a565b34801561019557600080fd5b506101a96101a4366004610bc3565b61058a565b60405190151581526020015b60405180910390f35b3480156101ca57600080fd5b506000546040516001600160a01b0390911681526020016101b5565b3480156101f257600080fd5b506101a9610201366004610bef565b61061d565b34801561021257600080fd5b50610127610221366004610b8e565b6106cd565b34801561023257600080fd5b50610246610241366004610c4e565b61074c565b6040516101b5929190610d1c565b34801561026057600080fd5b5061027461026f366004610b71565b610a1b565b604080519283526020830191909152016101b5565b34801561029557600080fd5b506101a96102a4366004610bef565b610a76565b3480156102b557600080fd5b506102746102c4366004610b71565b610adf565b6000546001600160a01b0316336001600160a01b0316146103055760405162461bcd60e51b81526004016102fc90610d74565b60405180910390fd5b6001600160a01b03811661036e5760405162461bcd60e51b815260206004820152602a60248201527f5365636f6e646172793a206e6577207072696d61727920697320746865207a65604482015269726f206164647265737360b01b60648201526084016102fc565b600080546001600160a01b0319166001600160a01b0383169081179091556040519081527f4101e71e974f68df5e9730cc223280b41654676bbb052cdcc735c3337e64d2d99060200160405180910390a150565b6000546001600160a01b0316336001600160a01b0316146103f55760405162461bcd60e51b81526004016102fc90610d74565b6001600160a01b0383166000908152600160205260409020546104189083610b3a565b6001600160a01b038416600090815260016020819052604090912091825501546104429082610b3a565b6001600160a01b03909316600090815260016020819052604090912001929092555050565b6000546001600160a01b0316336001600160a01b03161461049a5760405162461bcd60e51b81526004016102fc90610d74565b6001600160a01b0383166000908152600260205260409020546104bd9083610b3a565b6001600160a01b0384166000908152600260205260409020908155600101546104e69082610b3a565b6001600160a01b039093166000908152600260205260409020600101929092555050565b6000546001600160a01b0316336001600160a01b03161461053d5760405162461bcd60e51b81526004016102fc90610d74565b6001600160a01b0383166000908152600160205260409020546105609083610b4d565b6001600160a01b038416600090815260016020819052604090912091825501546104429082610b4d565b600080546001600160a01b0316336001600160a01b0316146105be5760405162461bcd60e51b81526004016102fc90610d74565b6000836001600160a01b03168360405160006040518083038185875af1925050503d806000811461060b576040519150601f19603f3d011682016040523d82523d6000602084013e610610565b606091505b5090925050505b92915050565b600080546001600160a01b0316336001600160a01b0316146106515760405162461bcd60e51b81526004016102fc90610d74565b60405163095ea7b360e01b81526001600160a01b0384811660048301526024820184905285169063095ea7b3906044015b6020604051808303816000875af11580156106a1573d6000803e3d6000fd5b505050506040513d601f19601f820116820180604052508101906106c59190610dc0565b949350505050565b6000546001600160a01b0316336001600160a01b0316146107005760405162461bcd60e51b81526004016102fc90610d74565b6001600160a01b0383166000908152600260205260409020546107239083610b4d565b6001600160a01b0384166000908152600260205260409020908155600101546104e69082610b4d565b600080546060906001600160a01b0316336001600160a01b0316146107835760405162461bcd60e51b81526004016102fc90610d74565b60405163095ea7b360e01b81526001600160a01b038b8116600483015260248201899052600091908b169063095ea7b3906044016020604051808303816000875af11580156107d6573d6000803e3d6000fd5b505050506040513d601f19601f820116820180604052508101906107fa9190610dc0565b9050806108545760405162461bcd60e51b815260206004820152602260248201527f417070726f76652073656c6c20746f6b656e20746f20726f757465722065727260448201526137b960f11b60648201526084016102fc565b83156108c2578a6001600160a01b0316878787604051610875929190610ddd565b60006040518083038185875af1925050503d80600081146108b2576040519150601f19603f3d011682016040523d82523d6000602084013e6108b7565b606091505b509093509150610a0d565b60405163095ea7b360e01b81526001600160a01b038c81166004830152602482018990528a169063095ea7b3906044016020604051808303816000875af1158015610911573d6000803e3d6000fd5b505050506040513d601f19601f820116820180604052508101906109359190610dc0565b9050806109aa5760405162461bcd60e51b815260206004820152603b60248201527f416e206572726f72206f63637572726564207768696c652073656e64696e672060448201527f7468652062757920746f6b656e20746f2074686520726f75746572000000000060648201526084016102fc565b8a6001600160a01b031686866040516109c4929190610ddd565b6000604051808303816000865af19150503d8060008114610a01576040519150601f19603f3d011682016040523d82523d6000602084013e610a06565b606091505b5090935091505b509850989650505050505050565b6000805481906001600160a01b0316336001600160a01b031614610a515760405162461bcd60e51b81526004016102fc90610d74565b50506001600160a01b0316600090815260016020819052604090912080549101549091565b600080546001600160a01b0316336001600160a01b031614610aaa5760405162461bcd60e51b81526004016102fc90610d74565b60405163a9059cbb60e01b81526001600160a01b0384811660048301526024820184905285169063a9059cbb90604401610682565b6000805481906001600160a01b0316336001600160a01b031614610b155760405162461bcd60e51b81526004016102fc90610d74565b50506001600160a01b0316600090815260026020526040902080546001909101549091565b6000610b468284610e03565b9392505050565b6000610b468284610e16565b6001600160a01b0381168114610b6e57600080fd5b50565b600060208284031215610b8357600080fd5b8135610b4681610b59565b600080600060608486031215610ba357600080fd5b8335610bae81610b59565b95602085013595506040909401359392505050565b60008060408385031215610bd657600080fd5b8235610be181610b59565b946020939093013593505050565b600080600060608486031215610c0457600080fd5b8335610c0f81610b59565b92506020840135610c1f81610b59565b929592945050506040919091013590565b8015158114610b6e57600080fd5b8035610c4981610c30565b919050565b60008060008060008060008060e0898b031215610c6a57600080fd5b8835610c7581610b59565b97506020890135610c8581610b59565b96506040890135610c9581610b59565b9550606089013594506080890135935060a089013567ffffffffffffffff80821115610cc057600080fd5b818b0191508b601f830112610cd457600080fd5b813581811115610ce357600080fd5b8c6020828501011115610cf557600080fd5b602083019550809450505050610d0d60c08a01610c3e565b90509295985092959890939650565b821515815260006020604081840152835180604085015260005b81811015610d5257858101830151858201606001528201610d36565b506000606082860101526060601f19601f830116850101925050509392505050565b6020808252602c908201527f5365636f6e646172793a2063616c6c6572206973206e6f74207468652070726960408201526b1b585c9e481858d8dbdd5b9d60a21b606082015260800190565b600060208284031215610dd257600080fd5b8151610b4681610c30565b8183823760009101908152919050565b634e487b7160e01b600052601160045260246000fd5b8082018082111561061757610617610ded565b8181038181111561061757610617610ded56fea26469706673582212201bbf263b62dcd4e0466d9b00e698276476e3b3b04503310c32b01134a5a4f31964736f6c63430008120033a264697066735822122066c67fef2b8af6d98e1150145371a675e74696aed56822b75175fa6d89eb871464736f6c63430008120033",
  "linkReferences": {},
  "deployedLinkReferences": {}
}