{
	"data": {
		"bytecode": {
			"linkReferences": {},
			"object": "60806040523480156200001157600080fd5b506040516200316b3803806200316b83398101604081905262000034916200065c565b6200003f33620003f2565b600380546001600160a01b03199081166001600160a01b03868116919091179092556004805482168584161790558251600980549092169083161790556020820151600a80546040850151606086015160808701519486166001600160a81b031990931692909217600160a01b60ff928316021761ffff60a81b1916600160a81b919092160260ff60b01b191617600160b01b9215159290920291909117905560a0820151600b5560c0820151600c5560e0820151600d805461010085015161ffff93841663ffffffff199092169190911762010000918416820217909155610120840151600e55610140840151600f8054610160870151929094166001600160b01b0319909416939093179316029190911790556101808101516010556101a08101516011556200017062000442565b6012805460ff60a01b1916600160a01b83600481111562000195576200019562000a59565b0217905550600954600180546001600160a01b0319166001600160a01b0390921691821790556040805163313ce56760e01b8152905163313ce56791600480820192602092909190829003018186803b158015620001f257600080fd5b505afa15801562000207573d6000803e3d6000fd5b505050506040513d601f19601f820116820180604052508101906200022d9190620007a5565b600a805460ff92909216600160a01b0260ff60a01b19831681179091556009546001600160a01b0390811691811692169190911714156200028257600a805461ffff60a81b1916608960a91b17905562000354565b600a805460ff60b01b1981169091556040805163313ce56760e01b815290516001600160a01b039092169163313ce56791600480820192602092909190829003018186803b158015620002d457600080fd5b505afa158015620002e9573d6000803e3d6000fd5b505050506040513d601f19601f820116820180604052508101906200030f9190620007a5565b600a805460ff92909216600160a81b0260ff60a81b1983168117909155600280546001600160a01b0319166001600160a01b0392831692909316919091179190911790555b6200035e6200046c565b6005819055600855601280546001600160a01b03191630179055620003838262000487565b7f95ad27b63a983f975981f9457d76ae9619c05f68e0a020ace848990fd814ee17620003b76000546001600160a01b031690565b600354600454600554604051620003e194936001600160a01b0390811693169190600990620007c3565b60405180910390a150505062000a6f565b600080546001600160a01b038381166001600160a01b0319831681178455604051919092169283917f8be0079c531659141344cd1fd0a4f28419497f9722a3daafe3b4186f6b6457e09190a35050565b601054600090421015620004565750600190565b6011544211620004665750600290565b50600390565b600b5460009081906200048090826200050a565b9392505050565b62000491620005ab565b6001600160a01b038116620004fc5760405162461bcd60e51b815260206004820152602660248201527f4f776e61626c653a206e6577206f776e657220697320746865207a65726f206160448201526564647265737360d01b60648201526084015b60405180910390fd5b6200050781620003f2565b50565b60008083156200055557600a805485916200053091600160a81b900460ff169062000960565b600c546200053f908762000a21565b6200054b9190620008f4565b91509150620005a4565b82156200059d57600c54600a80546200057a91600160a81b90910460ff169062000960565b62000586908562000a21565b620005929190620008f4565b8391509150620005a4565b5060009050805b9250929050565b6000546001600160a01b03163314620006075760405162461bcd60e51b815260206004820181905260248201527f4f776e61626c653a2063616c6c6572206973206e6f7420746865206f776e65726044820152606401620004f3565b565b80516001600160a01b03811681146200062157600080fd5b919050565b805180151581146200062157600080fd5b805161ffff811681146200062157600080fd5b805160ff811681146200062157600080fd5b60008060008385036102008112156200067457600080fd5b6200067f8562000609565b93506200068f6020860162000609565b92506101c080603f1983011215620006a657600080fd5b620006b0620008bc565b9150620006c06040870162000609565b8252620006d06060870162000609565b6020830152620006e3608087016200064a565b6040830152620006f660a087016200064a565b60608301526200070960c0870162000626565b608083015260e086015160a08301526101008087015160c08401526101206200073481890162000637565b60e085015261014062000749818a0162000637565b838601526101609250828901518286015261018091506200076c828a0162000637565b908501526101a06200078089820162000609565b8386015283890151828601526101e08901518186015250505050809150509250925092565b600060208284031215620007b857600080fd5b62000480826200064a565b6001600160a01b038681168252858116602083015284811660408301526060820184905282548116608083015261024082019060018401546001600160a01b038282161660a085015260a081901c60ff1660c085015260a881901c60ff1660e08501526200083c610100850160ff8360b01c1615159052565b5060028401546101208401526003840154610140840152600484015461ffff808216610160860152601091821c811661018086015260058601546101a086015260068601549081166101c0860152901c166001600160a01b03166101e0830152600783015461020083015260089092015461022090910152949350505050565b6040516101c081016001600160401b0381118282101715620008ee57634e487b7160e01b600052604160045260246000fd5b60405290565b6000826200091257634e487b7160e01b600052601260045260246000fd5b500490565b600181815b80851115620009585781600019048211156200093c576200093c62000a43565b808516156200094a57918102915b93841c93908002906200091c565b509250929050565b60006200048060ff8416836000826200097c5750600162000a1b565b816200098b5750600062000a1b565b8160018114620009a45760028114620009af57620009cf565b600191505062000a1b565b60ff841115620009c357620009c362000a43565b50506001821b62000a1b565b5060208310610133831016604e8410600b8410161715620009f4575081810a62000a1b565b62000a00838362000917565b806000190482111562000a175762000a1762000a43565b0290505b92915050565b600081600019048311821515161562000a3e5762000a3e62000a43565b500290565b634e487b7160e01b600052601160045260246000fd5b634e487b7160e01b600052602160045260246000fd5b6126ec8062000a7f6000396000f3fe6080604052600436106100ec5760003560e01c8063a7f437791161008a578063d79875eb11610059578063d79875eb146103ee578063dadd8c1814610401578063ea8a1af014610421578063f2fde38b1461043657600080fd5b8063a7f437791461037d578063c19d93fb14610392578063d0e30db0146103bd578063d6febde8146103db57600080fd5b8063715018a6116100c6578063715018a6146101e157806388e765ff146101f8578063890357301461020d5780638da5cb5b1461035557600080fd5b80633bf3e18e146101485780635dab24201461017857806366d602ae146101b757600080fd5b36610143576040805133815260208101829052600781830152667265636569766560c81b606082015290517fd00ca3f088120b3d909c3a9e01be91e94a2b001aed9c25fe751c3c7a72dc49bf9181900360800190a1005b600080fd5b34801561015457600080fd5b50600a54600160b01b900460ff165b60405190151581526020015b60405180910390f35b34801561018457600080fd5b5061018d610456565b604080516001600160a01b039485168152928416602084015292169181019190915260600161016f565b3480156101c357600080fd5b506101cc61048a565b6040805192835260208301919091520161016f565b3480156101ed57600080fd5b506101f661049e565b005b34801561020457600080fd5b506101cc6104b2565b34801561021957600080fd5b50610348604080516101c081018252600080825260208201819052918101829052606081018290526080810182905260a0810182905260c0810182905260e08101829052610100810182905261012081018290526101408101829052610160810182905261018081018290526101a081019190915250604080516101c0810182526009546001600160a01b039081168252600a54808216602084015260ff600160a01b8204811694840194909452600160a81b810484166060840152600160b01b900490921615156080820152600b5460a0820152600c5460c0820152600d5461ffff80821660e084015262010000918290048116610100840152600e54610120840152600f54908116610140840152049091166101608201526010546101808201526011546101a082015290565b60405161016f91906123c8565b34801561036157600080fd5b506000546040516001600160a01b03909116815260200161016f565b34801561038957600080fd5b506101f66104be565b34801561039e57600080fd5b506103a76105c2565b60405161016f9a999897969594939291906124bb565b3480156103c957600080fd5b5060055460405190815260200161016f565b6101636103e93660046123a6565b610754565b6101636103fc3660046123a6565b61102a565b34801561040d57600080fd5b506101f661041c366004612358565b6117e1565b34801561042d57600080fd5b506101f6611882565b34801561044257600080fd5b506101f66104513660046122ed565b611917565b600080600061046d6000546001600160a01b031690565b60035460045491956001600160a01b039182169550911692509050565b60008061049633611990565b915091509091565b6104a6611a57565b6104b06000611ab1565b565b60008061049633611b01565b6104c6611a57565b6104ce611b6b565b6104d6611bd2565b600f546104f1906201000090046001600160a01b0316611cab565b6105425760405162461bcd60e51b815260206004820152601860248201527f526566756e642062757920746f6b656e206661696c757265000000000000000060448201526064015b60405180910390fd5b600f5461055d906201000090046001600160a01b0316611ece565b6105a55760405162461bcd60e51b8152602060048201526019602482015278526566756e642073656c6c20746f6b656e206661696c75726560381b6044820152606401610539565b601280546003919060ff60a01b1916600160a01b835b0217905550565b601254600a546000918291829182918291829182918291829182916001600160a01b039091163190600160b01b900460ff1661067a576002546012546040516370a0823160e01b81526001600160a01b0391821660048201529116906370a082319060240160206040518083038186803b15801561063f57600080fd5b505afa158015610653573d6000803e3d6000fd5b505050506040513d601f19601f82011682018060405250810190610677919061233f565b90505b600b5460065460075460055460085433600090815260146020526040908190208054600191820154915460125493516370a0823160e01b81526001600160a01b03948516600482015291938a929116906370a082319060240160206040518083038186803b1580156106eb57600080fd5b505afa1580156106ff573d6000803e3d6000fd5b505050506040513d601f19601f82011682018060405250810190610723919061233f565b601260149054906101000a900460ff169a509a509a509a509a509a509a509a509a509a505090919293949596979899565b600061075e611b6b565b610766611f97565b601254600160a81b900460ff16156107b15760405162461bcd60e51b815260206004820152600e60248201526d4e6f2072652d656e7472616e637960901b6044820152606401610539565b6012805460ff60a81b1916600160a81b17905582158015906107d257508115155b61080f5760405162461bcd60e51b815260206004820152600e60248201526d416d6f756e74206973207a65726f60901b6044820152606401610539565b6108198383612034565b6108595760405162461bcd60e51b81526020600482015260116024820152700a0e4d2c6ca40d2e640dad2e6dac2e8c6d607b1b6044820152606401610539565b610863338461207d565b6108a85760405162461bcd60e51b8152602060048201526016602482015275416d6f756e742065786365656473206d6178696d756d60501b6044820152606401610539565b6001546012546040516370a0823160e01b81526001600160a01b039182166004820152849291909116906370a082319060240160206040518083038186803b1580156108f357600080fd5b505afa158015610907573d6000803e3d6000fd5b505050506040513d601f19601f8201168201806040525081019061092b919061233f565b10156109845760405162461bcd60e51b815260206004820152602260248201527f53656c6c20746f6b656e2062616c616e636520697320696e73756666696369656044820152611b9d60f21b6064820152608401610539565b600061098f846120a7565b600a54909150600160b01b900460ff1615610aaa578334146109ec5760405162461bcd60e51b81526020600482015260166024820152751b5cd9cb9d985b1d59481a5cc81b9bdd081d985b1a5960521b6044820152606401610539565b6012546040516000916001600160a01b03169082908181818181875af1925050503d8060008114610a39576040519150601f19603f3d011682016040523d82523d6000602084013e610a3e565b606091505b5050600f549091506201000090046001600160a01b0316610a5f34846120c9565b604051600081818185875af1925050503d8060008114610a9b576040519150601f19603f3d011682016040523d82523d6000602084013e610aa0565b606091505b50610e3792505050565b600254601254604051636eb1769f60e11b81523360048201526001600160a01b0391821660248201528692919091169063dd62ed3e9060440160206040518083038186803b158015610afb57600080fd5b505afa158015610b0f573d6000803e3d6000fd5b505050506040513d601f19601f82011682018060405250810190610b33919061233f565b1015610b925760405162461bcd60e51b815260206004820152602860248201527f596f75722062757920746f6b656e20616c6c6f77616e636520697320696e737560448201526719999a58da595b9d60c21b6064820152608401610539565b6002546040516370a0823160e01b815233600482015285916001600160a01b0316906370a082319060240160206040518083038186803b158015610bd557600080fd5b505afa158015610be9573d6000803e3d6000fd5b505050506040513d601f19601f82011682018060405250810190610c0d919061233f565b1015610c6a5760405162461bcd60e51b815260206004820152602660248201527f596f75722062757920746f6b656e2062616c616e636520697320696e737566666044820152651a58da595b9d60d21b6064820152608401610539565b6002546012546040516323b872dd60e01b81523360048201526001600160a01b039182166024820152604481018790529116906323b872dd90606401602060405180830381600087803b158015610cc057600080fd5b505af1158015610cd4573d6000803e3d6000fd5b505050506040513d601f19601f82011682018060405250810190610cf8919061231d565b610d445760405162461bcd60e51b815260206004820152601e60248201527f42757920746f6b656e207472616e7366657246726f6d206661696c75726500006044820152606401610539565b600254600f546001600160a01b039182169163a9059cbb9162010000900416610d6d87856120c9565b6040516001600160e01b031960e085901b1681526001600160a01b0390921660048301526024820152604401602060405180830381600087803b158015610db357600080fd5b505af1158015610dc7573d6000803e3d6000fd5b505050506040513d601f19601f82011682018060405250810190610deb919061231d565b610e375760405162461bcd60e51b815260206004820152601f60248201527f42757920746f6b656e207472616e73666572207465616d206661696c757265006044820152606401610539565b60015460405163a9059cbb60e01b8152336004820152602481018590526001600160a01b039091169063a9059cbb90604401602060405180830381600087803b158015610e8357600080fd5b505af1158015610e97573d6000803e3d6000fd5b505050506040513d601f19601f82011682018060405250810190610ebb919061231d565b610f075760405162461bcd60e51b815260206004820152601b60248201527f53656c6c20746f6b656e207472616e73666572206661696c75726500000000006044820152606401610539565b600654610f1490856120d5565b600655600854610f2490846120c9565b600855600754610f3490826120d5565b60075533600090815260136020526040902054610f5190856120d5565b33600090815260136020526040902090815560010154610f7190846120d5565b33600090815260136020908152604080832060010193909355601490522054610f9a90856120d5565b33600090815260146020526040902090815560010154610fba90846120d5565b336000818152601460209081526040918290206001019390935580519182529181018690529081018490527f1cbc5ab135991bd2b6a4b034a04aa2aa086dac1371cb9b16b8b5e2ed6b036bed906060015b60405180910390a150506012805460ff60a81b19169055506001919050565b6000611034611b6b565b61103c611f97565b601254600160a81b900460ff16156110875760405162461bcd60e51b815260206004820152600e60248201526d4e6f2072652d656e7472616e637960901b6044820152606401610539565b6012805460ff60a81b1916600160a81b17905582158015906110a857508115155b6110e55760405162461bcd60e51b815260206004820152600e60248201526d416d6f756e74206973207a65726f60901b6044820152606401610539565b6110ef8383612034565b61112f5760405162461bcd60e51b81526020600482015260116024820152700a0e4d2c6ca40d2e640dad2e6dac2e8c6d607b1b6044820152606401610539565b61113933836120e1565b61117e5760405162461bcd60e51b8152602060048201526016602482015275416d6f756e742065786365656473206d6178696d756d60501b6044820152606401610539565b600061118984612101565b905080611194612134565b10156111dc5760405162461bcd60e51b815260206004820152601760248201527610985b185b98d9481a5cc81a5b9cdd59999a58da595b9d604a1b6044820152606401610539565b600154601254604051636eb1769f60e11b81523360048201526001600160a01b0391821660248201528592919091169063dd62ed3e9060440160206040518083038186803b15801561122d57600080fd5b505afa158015611241573d6000803e3d6000fd5b505050506040513d601f19601f82011682018060405250810190611265919061233f565b10156112c55760405162461bcd60e51b815260206004820152602960248201527f596f75722073656c6c20746f6b656e20616c6c6f77616e636520697320696e736044820152681d59999a58da595b9d60ba1b6064820152608401610539565b6001546040516370a0823160e01b815233600482015284916001600160a01b0316906370a082319060240160206040518083038186803b15801561130857600080fd5b505afa15801561131c573d6000803e3d6000fd5b505050506040513d601f19601f82011682018060405250810190611340919061233f565b101561139e5760405162461bcd60e51b815260206004820152602760248201527f596f75722073656c6c20746f6b656e2062616c616e636520697320696e737566604482015266199a58da595b9d60ca1b6064820152608401610539565b6001546012546040516323b872dd60e01b81523360048201526001600160a01b039182166024820152604481018690529116906323b872dd90606401602060405180830381600087803b1580156113f457600080fd5b505af1158015611408573d6000803e3d6000fd5b505050506040513d601f19601f8201168201806040525081019061142c919061231d565b6114785760405162461bcd60e51b815260206004820152601f60248201527f53656c6c20746f6b656e207472616e7366657246726f6d206661696c757265006044820152606401610539565b600a54600160b01b900460ff1615611577576012546001600160a01b0316318111156114e05760405162461bcd60e51b815260206004820152601760248201527610985b185b98d9481a5cc81a5b9cdd59999a58da595b9d604a1b6044820152606401610539565b604051600090339083908381818185875af1925050503d8060008114611522576040519150601f19603f3d011682016040523d82523d6000602084013e611527565b606091505b50509050806115715760405162461bcd60e51b81526020600482015260166024820152755472616e73666572206275796572206661696c75726560501b6044820152606401610539565b50611722565b6002546012546040516370a0823160e01b81526001600160a01b039182166004820152839291909116906370a082319060240160206040518083038186803b1580156115c257600080fd5b505afa1580156115d6573d6000803e3d6000fd5b505050506040513d601f19601f820116820180604052508101906115fa919061233f565b10156116525760405162461bcd60e51b815260206004820152602160248201527f42757920746f6b656e2062616c616e636520697320696e73756666696369656e6044820152601d60fa1b6064820152608401610539565b60025460405163a9059cbb60e01b8152336004820152602481018390526001600160a01b039091169063a9059cbb90604401602060405180830381600087803b15801561169e57600080fd5b505af11580156116b2573d6000803e3d6000fd5b505050506040513d601f19601f820116820180604052508101906116d6919061231d565b6117225760405162461bcd60e51b815260206004820181905260248201527f42757920746f6b656e207472616e73666572206275796572206661696c7572656044820152606401610539565b60065461172f90856120c9565b60065560085461173f90846120d5565b60085560075461174f90826120c9565b6007553360009081526014602052604090205461176c90856120c9565b3360009081526014602052604090209081556001015461178c90846120c9565b336000818152601460209081526040918290206001019390935580519182529181018690529081018490527fed7a144fad14804d5c249145e3e0e2b63a9eb455b76aee5bc92d711e9bba3e4a9060600161100b565b6117e9611a57565b6117f1611b6b565b6117f9611fe9565b600c859055600d805461ffff86811661ffff199283168117909355600e869055600f8054918616919092168117909155601183905560408051888152602081019390935282018590526060820152608081018290527fb8da5f5fa816275fd95c075898a33829c48ae81ac6559b1efa7ebbb64b4a60569060a00160405180910390a15050505050565b61188a611a57565b611892611b6b565b61189a6121de565b600f546118b5906201000090046001600160a01b0316611ece565b6118fd5760405162461bcd60e51b8152602060048201526019602482015278526566756e642073656c6c20746f6b656e206661696c75726560381b6044820152606401610539565b601280546004919060ff60a01b1916600160a01b836105bb565b61191f611a57565b6001600160a01b0381166119845760405162461bcd60e51b815260206004820152602660248201527f4f776e61626c653a206e6577206f776e657220697320746865207a65726f206160448201526564647265737360d01b6064820152608401610539565b61198d81611ab1565b50565b6001600160a01b038116600090815260136020526040812060010154600f5482918291611a2491611a03916119fd90612710906119d19061ffff1684612654565b6119db9190612544565b6001600160a01b038916600090815260146020526040902060010154906120d5565b906120c9565b6001600160a01b03861660009081526014602052604090206001015461222f565b90506000611a356007546000612245565b915050611a4c6000611a47848461222f565b612245565b935093505050915091565b6000546001600160a01b031633146104b05760405162461bcd60e51b815260206004820181905260248201527f4f776e61626c653a2063616c6c6572206973206e6f7420746865206f776e65726044820152606401610539565b600080546001600160a01b038381166001600160a01b0319831681178455604051919092169283917f8be0079c531659141344cd1fd0a4f28419497f9722a3daafe3b4186f6b6457e09190a35050565b6001600160a01b038116600090815260146020526040812054600e5482918291611b4391611b2f91906120c9565b600654600b54611b3e916120c9565b61222f565b90506000611b546000600854612245565b509050611a4c611b64838361222f565b6000612245565b6004601254600160a01b900460ff166004811115611b8b57611b8b6126a0565b14156104b05760405162461bcd60e51b815260206004820152601660248201527510dc9bddd9199d5b991a5b99c81a5cc818d85b98d95b60521b6044820152606401610539565b601154421180611be65750600b5460065410155b611c3d5760405162461bcd60e51b815260206004820152602260248201527f43726f776466756e64696e6720656e6420636f6e646974696f6e206e6f74206d604482015261195d60f21b6064820152608401610539565b6003601254600160a01b900460ff166004811115611c5d57611c5d6126a0565b14156104b05760405162461bcd60e51b815260206004820152601c60248201527f43726f776466756e64696e672073746174757320697320656e646564000000006044820152606401610539565b600a54600090600190600160b01b900460ff1615611d33576012546001600160a01b03163115611d2e576012546040516001600160a01b0385811692163190600081818185875af1925050503d8060008114611d23576040519150601f19603f3d011682016040523d82523d6000602084013e611d28565b606091505b50909150505b611ec8565b6002546012546040516370a0823160e01b81526001600160a01b03918216600482015260009291909116906370a082319060240160206040518083038186803b158015611d7f57600080fd5b505afa158015611d93573d6000803e3d6000fd5b505050506040513d601f19601f82011682018060405250810190611db7919061233f565b1115611ec8576002546012546040516370a0823160e01b81526001600160a01b03918216600482015291169063a9059cbb90859083906370a08231906024015b60206040518083038186803b158015611e0f57600080fd5b505afa158015611e23573d6000803e3d6000fd5b505050506040513d601f19601f82011682018060405250810190611e47919061233f565b6040516001600160e01b031960e085901b1681526001600160a01b0390921660048301526024820152604401602060405180830381600087803b158015611e8d57600080fd5b505af1158015611ea1573d6000803e3d6000fd5b505050506040513d601f19601f82011682018060405250810190611ec5919061231d565b90505b92915050565b600180546012546040516370a0823160e01b81526001600160a01b03918216600482015260009392849216906370a082319060240160206040518083038186803b158015611f1b57600080fd5b505afa158015611f2f573d6000803e3d6000fd5b505050506040513d601f19601f82011682018060405250810190611f53919061233f565b1115611ec8576001546012546040516370a0823160e01b81526001600160a01b03918216600482015291169063a9059cbb90859083906370a0823190602401611df7565b601054421015611fe95760405162461bcd60e51b815260206004820152601860248201527f43726f776466756e64696e67206e6f74207374617274656400000000000000006044820152606401610539565b6011544211156104b05760405162461bcd60e51b815260206004820152601660248201527510dc9bddd9199d5b991a5b99c81a185cc8195b99195960521b6044820152606401610539565b600080612042846000612245565b9150506000612052600085612245565b5090508481148061206257508382145b1561207257600192505050611ec8565b506000949350505050565b60008061208984611b01565b50905080831161209d576001915050611ec8565b6000915050611ec8565b600d54600090612710906120bf9061ffff1684612654565b611ec89190612544565b6000611ec58284612673565b6000611ec5828461252c565b6000806120ed84611990565b91505080831161209d576001915050611ec8565b600d54600090611ec890612710906121239062010000900461ffff1685612654565b61212d9190612544565b83906120c9565b600a54600090600160b01b900460ff161561215a57506012546001600160a01b03163190565b6002546012546040516370a0823160e01b81526001600160a01b0391821660048201529116906370a082319060240160206040518083038186803b1580156121a157600080fd5b505afa1580156121b5573d6000803e3d6000fd5b505050506040513d601f19601f820116820180604052508101906121d9919061233f565b905090565b60105442106104b05760405162461bcd60e51b815260206004820152601860248201527f43726f776466756e64696e6720686173207374617274656400000000000000006044820152606401610539565b600081831061223e5781611ec5565b5090919050565b600080831561228857600a8054859161226891600160a81b900460ff16906125a9565b600c546122759087612654565b61227f9190612544565b915091506122cf565b82156122c857600c54600a80546122aa91600160a81b90910460ff16906125a9565b6122b49085612654565b6122be9190612544565b83915091506122cf565b5060009050805b9250929050565b803561ffff811681146122e857600080fd5b919050565b6000602082840312156122ff57600080fd5b81356001600160a01b038116811461231657600080fd5b9392505050565b60006020828403121561232f57600080fd5b8151801515811461231657600080fd5b60006020828403121561235157600080fd5b5051919050565b600080600080600060a0868803121561237057600080fd5b85359450612380602087016122d6565b935060408601359250612395606087016122d6565b949793965091946080013592915050565b600080604083850312156123b957600080fd5b50508035926020909101359150565b81516001600160a01b031681526101c0810160208301516123f460208401826001600160a01b03169052565b506040830151612409604084018260ff169052565b50606083015161241e606084018260ff169052565b506080830151612432608084018215159052565b5060a083015160a083015260c083015160c083015260e083015161245c60e084018261ffff169052565b506101008381015161ffff9081169184019190915261012080850151908401526101408085015190911690830152610160808401516001600160a01b03169083015261018080840151908301526101a092830151929091019190915290565b6000610140820190508b82528a60208301528960408301528860608301528760808301528660a08301528560c08301528460e0830152836101008301526005831061251657634e487b7160e01b600052602160045260246000fd5b826101208301529b9a5050505050505050505050565b6000821982111561253f5761253f61268a565b500190565b60008261256157634e487b7160e01b600052601260045260246000fd5b500490565b600181815b808511156125a15781600019048211156125875761258761268a565b8085161561259457918102915b93841c939080029061256b565b509250929050565b6000611ec560ff8416836000826125c257506001611ec8565b816125cf57506000611ec8565b81600181146125e557600281146125ef5761260b565b6001915050611ec8565b60ff8411156126005761260061268a565b50506001821b611ec8565b5060208310610133831016604e8410600b841016171561262e575081810a611ec8565b6126388383612566565b806000190482111561264c5761264c61268a565b029392505050565b600081600019048311821515161561266e5761266e61268a565b500290565b6000828210156126855761268561268a565b500390565b634e487b7160e01b600052601160045260246000fd5b634e487b7160e01b600052602160045260246000fdfea2646970667358221220fc3c2b08837a976c97b41f109e812357ddcf403d995bb2ccce5abbe8e51c440064736f6c63430008070033",
			"opcodes": "PUSH1 0x80 PUSH1 0x40 MSTORE CALLVALUE DUP1 ISZERO PUSH3 0x11 JUMPI PUSH1 0x0 DUP1 REVERT JUMPDEST POP PUSH1 0x40 MLOAD PUSH3 0x316B CODESIZE SUB DUP1 PUSH3 0x316B DUP4 CODECOPY DUP2 ADD PUSH1 0x40 DUP2 SWAP1 MSTORE PUSH3 0x34 SWAP2 PUSH3 0x65C JUMP JUMPDEST PUSH3 0x3F CALLER PUSH3 0x3F2 JUMP JUMPDEST PUSH1 0x3 DUP1 SLOAD PUSH1 0x1 PUSH1 0x1 PUSH1 0xA0 SHL SUB NOT SWAP1 DUP2 AND PUSH1 0x1 PUSH1 0x1 PUSH1 0xA0 SHL SUB DUP7 DUP2 AND SWAP2 SWAP1 SWAP2 OR SWAP1 SWAP3 SSTORE PUSH1 0x4 DUP1 SLOAD DUP3 AND DUP6 DUP5 AND OR SWAP1 SSTORE DUP3 MLOAD PUSH1 0x9 DUP1 SLOAD SWAP1 SWAP3 AND SWAP1 DUP4 AND OR SWAP1 SSTORE PUSH1 0x20 DUP3 ADD MLOAD PUSH1 0xA DUP1 SLOAD PUSH1 0x40 DUP6 ADD MLOAD PUSH1 0x60 DUP7 ADD MLOAD PUSH1 0x80 DUP8 ADD MLOAD SWAP5 DUP7 AND PUSH1 0x1 PUSH1 0x1 PUSH1 0xA8 SHL SUB NOT SWAP1 SWAP4 AND SWAP3 SWAP1 SWAP3 OR PUSH1 0x1 PUSH1 0xA0 SHL PUSH1 0xFF SWAP3 DUP4 AND MUL OR PUSH2 0xFFFF PUSH1 0xA8 SHL NOT AND PUSH1 0x1 PUSH1 0xA8 SHL SWAP2 SWAP1 SWAP3 AND MUL PUSH1 0xFF PUSH1 0xB0 SHL NOT AND OR PUSH1 0x1 PUSH1 0xB0 SHL SWAP3 ISZERO ISZERO SWAP3 SWAP1 SWAP3 MUL SWAP2 SWAP1 SWAP2 OR SWAP1 SSTORE PUSH1 0xA0 DUP3 ADD MLOAD PUSH1 0xB SSTORE PUSH1 0xC0 DUP3 ADD MLOAD PUSH1 0xC SSTORE PUSH1 0xE0 DUP3 ADD MLOAD PUSH1 0xD DUP1 SLOAD PUSH2 0x100 DUP6 ADD MLOAD PUSH2 0xFFFF SWAP4 DUP5 AND PUSH4 0xFFFFFFFF NOT SWAP1 SWAP3 AND SWAP2 SWAP1 SWAP2 OR PUSH3 0x10000 SWAP2 DUP5 AND DUP3 MUL OR SWAP1 SWAP2 SSTORE PUSH2 0x120 DUP5 ADD MLOAD PUSH1 0xE SSTORE PUSH2 0x140 DUP5 ADD MLOAD PUSH1 0xF DUP1 SLOAD PUSH2 0x160 DUP8 ADD MLOAD SWAP3 SWAP1 SWAP5 AND PUSH1 0x1 PUSH1 0x1 PUSH1 0xB0 SHL SUB NOT SWAP1 SWAP5 AND SWAP4 SWAP1 SWAP4 OR SWAP4 AND MUL SWAP2 SWAP1 SWAP2 OR SWAP1 SSTORE PUSH2 0x180 DUP2 ADD MLOAD PUSH1 0x10 SSTORE PUSH2 0x1A0 DUP2 ADD MLOAD PUSH1 0x11 SSTORE PUSH3 0x170 PUSH3 0x442 JUMP JUMPDEST PUSH1 0x12 DUP1 SLOAD PUSH1 0xFF PUSH1 0xA0 SHL NOT AND PUSH1 0x1 PUSH1 0xA0 SHL DUP4 PUSH1 0x4 DUP2 GT ISZERO PUSH3 0x195 JUMPI PUSH3 0x195 PUSH3 0xA59 JUMP JUMPDEST MUL OR SWAP1 SSTORE POP PUSH1 0x9 SLOAD PUSH1 0x1 DUP1 SLOAD PUSH1 0x1 PUSH1 0x1 PUSH1 0xA0 SHL SUB NOT AND PUSH1 0x1 PUSH1 0x1 PUSH1 0xA0 SHL SUB SWAP1 SWAP3 AND SWAP2 DUP3 OR SWAP1 SSTORE PUSH1 0x40 DUP1 MLOAD PUSH4 0x313CE567 PUSH1 0xE0 SHL DUP2 MSTORE SWAP1 MLOAD PUSH4 0x313CE567 SWAP2 PUSH1 0x4 DUP1 DUP3 ADD SWAP3 PUSH1 0x20 SWAP3 SWAP1 SWAP2 SWAP1 DUP3 SWAP1 SUB ADD DUP2 DUP7 DUP1 EXTCODESIZE ISZERO DUP1 ISZERO PUSH3 0x1F2 JUMPI PUSH1 0x0 DUP1 REVERT JUMPDEST POP GAS STATICCALL ISZERO DUP1 ISZERO PUSH3 0x207 JUMPI RETURNDATASIZE PUSH1 0x0 DUP1 RETURNDATACOPY RETURNDATASIZE PUSH1 0x0 REVERT JUMPDEST POP POP POP POP PUSH1 0x40 MLOAD RETURNDATASIZE PUSH1 0x1F NOT PUSH1 0x1F DUP3 ADD AND DUP3 ADD DUP1 PUSH1 0x40 MSTORE POP DUP2 ADD SWAP1 PUSH3 0x22D SWAP2 SWAP1 PUSH3 0x7A5 JUMP JUMPDEST PUSH1 0xA DUP1 SLOAD PUSH1 0xFF SWAP3 SWAP1 SWAP3 AND PUSH1 0x1 PUSH1 0xA0 SHL MUL PUSH1 0xFF PUSH1 0xA0 SHL NOT DUP4 AND DUP2 OR SWAP1 SWAP2 SSTORE PUSH1 0x9 SLOAD PUSH1 0x1 PUSH1 0x1 PUSH1 0xA0 SHL SUB SWAP1 DUP2 AND SWAP2 DUP2 AND SWAP3 AND SWAP2 SWAP1 SWAP2 OR EQ ISZERO PUSH3 0x282 JUMPI PUSH1 0xA DUP1 SLOAD PUSH2 0xFFFF PUSH1 0xA8 SHL NOT AND PUSH1 0x89 PUSH1 0xA9 SHL OR SWAP1 SSTORE PUSH3 0x354 JUMP JUMPDEST PUSH1 0xA DUP1 SLOAD PUSH1 0xFF PUSH1 0xB0 SHL NOT DUP2 AND SWAP1 SWAP2 SSTORE PUSH1 0x40 DUP1 MLOAD PUSH4 0x313CE567 PUSH1 0xE0 SHL DUP2 MSTORE SWAP1 MLOAD PUSH1 0x1 PUSH1 0x1 PUSH1 0xA0 SHL SUB SWAP1 SWAP3 AND SWAP2 PUSH4 0x313CE567 SWAP2 PUSH1 0x4 DUP1 DUP3 ADD SWAP3 PUSH1 0x20 SWAP3 SWAP1 SWAP2 SWAP1 DUP3 SWAP1 SUB ADD DUP2 DUP7 DUP1 EXTCODESIZE ISZERO DUP1 ISZERO PUSH3 0x2D4 JUMPI PUSH1 0x0 DUP1 REVERT JUMPDEST POP GAS STATICCALL ISZERO DUP1 ISZERO PUSH3 0x2E9 JUMPI RETURNDATASIZE PUSH1 0x0 DUP1 RETURNDATACOPY RETURNDATASIZE PUSH1 0x0 REVERT JUMPDEST POP POP POP POP PUSH1 0x40 MLOAD RETURNDATASIZE PUSH1 0x1F NOT PUSH1 0x1F DUP3 ADD AND DUP3 ADD DUP1 PUSH1 0x40 MSTORE POP DUP2 ADD SWAP1 PUSH3 0x30F SWAP2 SWAP1 PUSH3 0x7A5 JUMP JUMPDEST PUSH1 0xA DUP1 SLOAD PUSH1 0xFF SWAP3 SWAP1 SWAP3 AND PUSH1 0x1 PUSH1 0xA8 SHL MUL PUSH1 0xFF PUSH1 0xA8 SHL NOT DUP4 AND DUP2 OR SWAP1 SWAP2 SSTORE PUSH1 0x2 DUP1 SLOAD PUSH1 0x1 PUSH1 0x1 PUSH1 0xA0 SHL SUB NOT AND PUSH1 0x1 PUSH1 0x1 PUSH1 0xA0 SHL SUB SWAP3 DUP4 AND SWAP3 SWAP1 SWAP4 AND SWAP2 SWAP1 SWAP2 OR SWAP2 SWAP1 SWAP2 OR SWAP1 SSTORE JUMPDEST PUSH3 0x35E PUSH3 0x46C JUMP JUMPDEST PUSH1 0x5 DUP2 SWAP1 SSTORE PUSH1 0x8 SSTORE PUSH1 0x12 DUP1 SLOAD PUSH1 0x1 PUSH1 0x1 PUSH1 0xA0 SHL SUB NOT AND ADDRESS OR SWAP1 SSTORE PUSH3 0x383 DUP3 PUSH3 0x487 JUMP JUMPDEST PUSH32 0x95AD27B63A983F975981F9457D76AE9619C05F68E0A020ACE848990FD814EE17 PUSH3 0x3B7 PUSH1 0x0 SLOAD PUSH1 0x1 PUSH1 0x1 PUSH1 0xA0 SHL SUB AND SWAP1 JUMP JUMPDEST PUSH1 0x3 SLOAD PUSH1 0x4 SLOAD PUSH1 0x5 SLOAD PUSH1 0x40 MLOAD PUSH3 0x3E1 SWAP5 SWAP4 PUSH1 0x1 PUSH1 0x1 PUSH1 0xA0 SHL SUB SWAP1 DUP2 AND SWAP4 AND SWAP2 SWAP1 PUSH1 0x9 SWAP1 PUSH3 0x7C3 JUMP JUMPDEST PUSH1 0x40 MLOAD DUP1 SWAP2 SUB SWAP1 LOG1 POP POP POP PUSH3 0xA6F JUMP JUMPDEST PUSH1 0x0 DUP1 SLOAD PUSH1 0x1 PUSH1 0x1 PUSH1 0xA0 SHL SUB DUP4 DUP2 AND PUSH1 0x1 PUSH1 0x1 PUSH1 0xA0 SHL SUB NOT DUP4 AND DUP2 OR DUP5 SSTORE PUSH1 0x40 MLOAD SWAP2 SWAP1 SWAP3 AND SWAP3 DUP4 SWAP2 PUSH32 0x8BE0079C531659141344CD1FD0A4F28419497F9722A3DAAFE3B4186F6B6457E0 SWAP2 SWAP1 LOG3 POP POP JUMP JUMPDEST PUSH1 0x10 SLOAD PUSH1 0x0 SWAP1 TIMESTAMP LT ISZERO PUSH3 0x456 JUMPI POP PUSH1 0x1 SWAP1 JUMP JUMPDEST PUSH1 0x11 SLOAD TIMESTAMP GT PUSH3 0x466 JUMPI POP PUSH1 0x2 SWAP1 JUMP JUMPDEST POP PUSH1 0x3 SWAP1 JUMP JUMPDEST PUSH1 0xB SLOAD PUSH1 0x0 SWAP1 DUP2 SWAP1 PUSH3 0x480 SWAP1 DUP3 PUSH3 0x50A JUMP JUMPDEST SWAP4 SWAP3 POP POP POP JUMP JUMPDEST PUSH3 0x491 PUSH3 0x5AB JUMP JUMPDEST PUSH1 0x1 PUSH1 0x1 PUSH1 0xA0 SHL SUB DUP2 AND PUSH3 0x4FC JUMPI PUSH1 0x40 MLOAD PUSH3 0x461BCD PUSH1 0xE5 SHL DUP2 MSTORE PUSH1 0x20 PUSH1 0x4 DUP3 ADD MSTORE PUSH1 0x26 PUSH1 0x24 DUP3 ADD MSTORE PUSH32 0x4F776E61626C653A206E6577206F776E657220697320746865207A65726F2061 PUSH1 0x44 DUP3 ADD MSTORE PUSH6 0x646472657373 PUSH1 0xD0 SHL PUSH1 0x64 DUP3 ADD MSTORE PUSH1 0x84 ADD JUMPDEST PUSH1 0x40 MLOAD DUP1 SWAP2 SUB SWAP1 REVERT JUMPDEST PUSH3 0x507 DUP2 PUSH3 0x3F2 JUMP JUMPDEST POP JUMP JUMPDEST PUSH1 0x0 DUP1 DUP4 ISZERO PUSH3 0x555 JUMPI PUSH1 0xA DUP1 SLOAD DUP6 SWAP2 PUSH3 0x530 SWAP2 PUSH1 0x1 PUSH1 0xA8 SHL SWAP1 DIV PUSH1 0xFF AND SWAP1 PUSH3 0x960 JUMP JUMPDEST PUSH1 0xC SLOAD PUSH3 0x53F SWAP1 DUP8 PUSH3 0xA21 JUMP JUMPDEST PUSH3 0x54B SWAP2 SWAP1 PUSH3 0x8F4 JUMP JUMPDEST SWAP2 POP SWAP2 POP PUSH3 0x5A4 JUMP JUMPDEST DUP3 ISZERO PUSH3 0x59D JUMPI PUSH1 0xC SLOAD PUSH1 0xA DUP1 SLOAD PUSH3 0x57A SWAP2 PUSH1 0x1 PUSH1 0xA8 SHL SWAP1 SWAP2 DIV PUSH1 0xFF AND SWAP1 PUSH3 0x960 JUMP JUMPDEST PUSH3 0x586 SWAP1 DUP6 PUSH3 0xA21 JUMP JUMPDEST PUSH3 0x592 SWAP2 SWAP1 PUSH3 0x8F4 JUMP JUMPDEST DUP4 SWAP2 POP SWAP2 POP PUSH3 0x5A4 JUMP JUMPDEST POP PUSH1 0x0 SWAP1 POP DUP1 JUMPDEST SWAP3 POP SWAP3 SWAP1 POP JUMP JUMPDEST PUSH1 0x0 SLOAD PUSH1 0x1 PUSH1 0x1 PUSH1 0xA0 SHL SUB AND CALLER EQ PUSH3 0x607 JUMPI PUSH1 0x40 MLOAD PUSH3 0x461BCD PUSH1 0xE5 SHL DUP2 MSTORE PUSH1 0x20 PUSH1 0x4 DUP3 ADD DUP2 SWAP1 MSTORE PUSH1 0x24 DUP3 ADD MSTORE PUSH32 0x4F776E61626C653A2063616C6C6572206973206E6F7420746865206F776E6572 PUSH1 0x44 DUP3 ADD MSTORE PUSH1 0x64 ADD PUSH3 0x4F3 JUMP JUMPDEST JUMP JUMPDEST DUP1 MLOAD PUSH1 0x1 PUSH1 0x1 PUSH1 0xA0 SHL SUB DUP2 AND DUP2 EQ PUSH3 0x621 JUMPI PUSH1 0x0 DUP1 REVERT JUMPDEST SWAP2 SWAP1 POP JUMP JUMPDEST DUP1 MLOAD DUP1 ISZERO ISZERO DUP2 EQ PUSH3 0x621 JUMPI PUSH1 0x0 DUP1 REVERT JUMPDEST DUP1 MLOAD PUSH2 0xFFFF DUP2 AND DUP2 EQ PUSH3 0x621 JUMPI PUSH1 0x0 DUP1 REVERT JUMPDEST DUP1 MLOAD PUSH1 0xFF DUP2 AND DUP2 EQ PUSH3 0x621 JUMPI PUSH1 0x0 DUP1 REVERT JUMPDEST PUSH1 0x0 DUP1 PUSH1 0x0 DUP4 DUP6 SUB PUSH2 0x200 DUP2 SLT ISZERO PUSH3 0x674 JUMPI PUSH1 0x0 DUP1 REVERT JUMPDEST PUSH3 0x67F DUP6 PUSH3 0x609 JUMP JUMPDEST SWAP4 POP PUSH3 0x68F PUSH1 0x20 DUP7 ADD PUSH3 0x609 JUMP JUMPDEST SWAP3 POP PUSH2 0x1C0 DUP1 PUSH1 0x3F NOT DUP4 ADD SLT ISZERO PUSH3 0x6A6 JUMPI PUSH1 0x0 DUP1 REVERT JUMPDEST PUSH3 0x6B0 PUSH3 0x8BC JUMP JUMPDEST SWAP2 POP PUSH3 0x6C0 PUSH1 0x40 DUP8 ADD PUSH3 0x609 JUMP JUMPDEST DUP3 MSTORE PUSH3 0x6D0 PUSH1 0x60 DUP8 ADD PUSH3 0x609 JUMP JUMPDEST PUSH1 0x20 DUP4 ADD MSTORE PUSH3 0x6E3 PUSH1 0x80 DUP8 ADD PUSH3 0x64A JUMP JUMPDEST PUSH1 0x40 DUP4 ADD MSTORE PUSH3 0x6F6 PUSH1 0xA0 DUP8 ADD PUSH3 0x64A JUMP JUMPDEST PUSH1 0x60 DUP4 ADD MSTORE PUSH3 0x709 PUSH1 0xC0 DUP8 ADD PUSH3 0x626 JUMP JUMPDEST PUSH1 0x80 DUP4 ADD MSTORE PUSH1 0xE0 DUP7 ADD MLOAD PUSH1 0xA0 DUP4 ADD MSTORE PUSH2 0x100 DUP1 DUP8 ADD MLOAD PUSH1 0xC0 DUP5 ADD MSTORE PUSH2 0x120 PUSH3 0x734 DUP2 DUP10 ADD PUSH3 0x637 JUMP JUMPDEST PUSH1 0xE0 DUP6 ADD MSTORE PUSH2 0x140 PUSH3 0x749 DUP2 DUP11 ADD PUSH3 0x637 JUMP JUMPDEST DUP4 DUP7 ADD MSTORE PUSH2 0x160 SWAP3 POP DUP3 DUP10 ADD MLOAD DUP3 DUP7 ADD MSTORE PUSH2 0x180 SWAP2 POP PUSH3 0x76C DUP3 DUP11 ADD PUSH3 0x637 JUMP JUMPDEST SWAP1 DUP6 ADD MSTORE PUSH2 0x1A0 PUSH3 0x780 DUP10 DUP3 ADD PUSH3 0x609 JUMP JUMPDEST DUP4 DUP7 ADD MSTORE DUP4 DUP10 ADD MLOAD DUP3 DUP7 ADD MSTORE PUSH2 0x1E0 DUP10 ADD MLOAD DUP2 DUP7 ADD MSTORE POP POP POP POP DUP1 SWAP2 POP POP SWAP3 POP SWAP3 POP SWAP3 JUMP JUMPDEST PUSH1 0x0 PUSH1 0x20 DUP3 DUP5 SUB SLT ISZERO PUSH3 0x7B8 JUMPI PUSH1 0x0 DUP1 REVERT JUMPDEST PUSH3 0x480 DUP3 PUSH3 0x64A JUMP JUMPDEST PUSH1 0x1 PUSH1 0x1 PUSH1 0xA0 SHL SUB DUP7 DUP2 AND DUP3 MSTORE DUP6 DUP2 AND PUSH1 0x20 DUP4 ADD MSTORE DUP5 DUP2 AND PUSH1 0x40 DUP4 ADD MSTORE PUSH1 0x60 DUP3 ADD DUP5 SWAP1 MSTORE DUP3 SLOAD DUP2 AND PUSH1 0x80 DUP4 ADD MSTORE PUSH2 0x240 DUP3 ADD SWAP1 PUSH1 0x1 DUP5 ADD SLOAD PUSH1 0x1 PUSH1 0x1 PUSH1 0xA0 SHL SUB DUP3 DUP3 AND AND PUSH1 0xA0 DUP6 ADD MSTORE PUSH1 0xA0 DUP2 SWAP1 SHR PUSH1 0xFF AND PUSH1 0xC0 DUP6 ADD MSTORE PUSH1 0xA8 DUP2 SWAP1 SHR PUSH1 0xFF AND PUSH1 0xE0 DUP6 ADD MSTORE PUSH3 0x83C PUSH2 0x100 DUP6 ADD PUSH1 0xFF DUP4 PUSH1 0xB0 SHR AND ISZERO ISZERO SWAP1 MSTORE JUMP JUMPDEST POP PUSH1 0x2 DUP5 ADD SLOAD PUSH2 0x120 DUP5 ADD MSTORE PUSH1 0x3 DUP5 ADD SLOAD PUSH2 0x140 DUP5 ADD MSTORE PUSH1 0x4 DUP5 ADD SLOAD PUSH2 0xFFFF DUP1 DUP3 AND PUSH2 0x160 DUP7 ADD MSTORE PUSH1 0x10 SWAP2 DUP3 SHR DUP2 AND PUSH2 0x180 DUP7 ADD MSTORE PUSH1 0x5 DUP7 ADD SLOAD PUSH2 0x1A0 DUP7 ADD MSTORE PUSH1 0x6 DUP7 ADD SLOAD SWAP1 DUP2 AND PUSH2 0x1C0 DUP7 ADD MSTORE SWAP1 SHR AND PUSH1 0x1 PUSH1 0x1 PUSH1 0xA0 SHL SUB AND PUSH2 0x1E0 DUP4 ADD MSTORE PUSH1 0x7 DUP4 ADD SLOAD PUSH2 0x200 DUP4 ADD MSTORE PUSH1 0x8 SWAP1 SWAP3 ADD SLOAD PUSH2 0x220 SWAP1 SWAP2 ADD MSTORE SWAP5 SWAP4 POP POP POP POP JUMP JUMPDEST PUSH1 0x40 MLOAD PUSH2 0x1C0 DUP2 ADD PUSH1 0x1 PUSH1 0x1 PUSH1 0x40 SHL SUB DUP2 GT DUP3 DUP3 LT OR ISZERO PUSH3 0x8EE JUMPI PUSH4 0x4E487B71 PUSH1 0xE0 SHL PUSH1 0x0 MSTORE PUSH1 0x41 PUSH1 0x4 MSTORE PUSH1 0x24 PUSH1 0x0 REVERT JUMPDEST PUSH1 0x40 MSTORE SWAP1 JUMP JUMPDEST PUSH1 0x0 DUP3 PUSH3 0x912 JUMPI PUSH4 0x4E487B71 PUSH1 0xE0 SHL PUSH1 0x0 MSTORE PUSH1 0x12 PUSH1 0x4 MSTORE PUSH1 0x24 PUSH1 0x0 REVERT JUMPDEST POP DIV SWAP1 JUMP JUMPDEST PUSH1 0x1 DUP2 DUP2 JUMPDEST DUP1 DUP6 GT ISZERO PUSH3 0x958 JUMPI DUP2 PUSH1 0x0 NOT DIV DUP3 GT ISZERO PUSH3 0x93C JUMPI PUSH3 0x93C PUSH3 0xA43 JUMP JUMPDEST DUP1 DUP6 AND ISZERO PUSH3 0x94A JUMPI SWAP2 DUP2 MUL SWAP2 JUMPDEST SWAP4 DUP5 SHR SWAP4 SWAP1 DUP1 MUL SWAP1 PUSH3 0x91C JUMP JUMPDEST POP SWAP3 POP SWAP3 SWAP1 POP JUMP JUMPDEST PUSH1 0x0 PUSH3 0x480 PUSH1 0xFF DUP5 AND DUP4 PUSH1 0x0 DUP3 PUSH3 0x97C JUMPI POP PUSH1 0x1 PUSH3 0xA1B JUMP JUMPDEST DUP2 PUSH3 0x98B JUMPI POP PUSH1 0x0 PUSH3 0xA1B JUMP JUMPDEST DUP2 PUSH1 0x1 DUP2 EQ PUSH3 0x9A4 JUMPI PUSH1 0x2 DUP2 EQ PUSH3 0x9AF JUMPI PUSH3 0x9CF JUMP JUMPDEST PUSH1 0x1 SWAP2 POP POP PUSH3 0xA1B JUMP JUMPDEST PUSH1 0xFF DUP5 GT ISZERO PUSH3 0x9C3 JUMPI PUSH3 0x9C3 PUSH3 0xA43 JUMP JUMPDEST POP POP PUSH1 0x1 DUP3 SHL PUSH3 0xA1B JUMP JUMPDEST POP PUSH1 0x20 DUP4 LT PUSH2 0x133 DUP4 LT AND PUSH1 0x4E DUP5 LT PUSH1 0xB DUP5 LT AND OR ISZERO PUSH3 0x9F4 JUMPI POP DUP2 DUP2 EXP PUSH3 0xA1B JUMP JUMPDEST PUSH3 0xA00 DUP4 DUP4 PUSH3 0x917 JUMP JUMPDEST DUP1 PUSH1 0x0 NOT DIV DUP3 GT ISZERO PUSH3 0xA17 JUMPI PUSH3 0xA17 PUSH3 0xA43 JUMP JUMPDEST MUL SWAP1 POP JUMPDEST SWAP3 SWAP2 POP POP JUMP JUMPDEST PUSH1 0x0 DUP2 PUSH1 0x0 NOT DIV DUP4 GT DUP3 ISZERO ISZERO AND ISZERO PUSH3 0xA3E JUMPI PUSH3 0xA3E PUSH3 0xA43 JUMP JUMPDEST POP MUL SWAP1 JUMP JUMPDEST PUSH4 0x4E487B71 PUSH1 0xE0 SHL PUSH1 0x0 MSTORE PUSH1 0x11 PUSH1 0x4 MSTORE PUSH1 0x24 PUSH1 0x0 REVERT JUMPDEST PUSH4 0x4E487B71 PUSH1 0xE0 SHL PUSH1 0x0 MSTORE PUSH1 0x21 PUSH1 0x4 MSTORE PUSH1 0x24 PUSH1 0x0 REVERT JUMPDEST PUSH2 0x26EC DUP1 PUSH3 0xA7F PUSH1 0x0 CODECOPY PUSH1 0x0 RETURN INVALID PUSH1 0x80 PUSH1 0x40 MSTORE PUSH1 0x4 CALLDATASIZE LT PUSH2 0xEC JUMPI PUSH1 0x0 CALLDATALOAD PUSH1 0xE0 SHR DUP1 PUSH4 0xA7F43779 GT PUSH2 0x8A JUMPI DUP1 PUSH4 0xD79875EB GT PUSH2 0x59 JUMPI DUP1 PUSH4 0xD79875EB EQ PUSH2 0x3EE JUMPI DUP1 PUSH4 0xDADD8C18 EQ PUSH2 0x401 JUMPI DUP1 PUSH4 0xEA8A1AF0 EQ PUSH2 0x421 JUMPI DUP1 PUSH4 0xF2FDE38B EQ PUSH2 0x436 JUMPI PUSH1 0x0 DUP1 REVERT JUMPDEST DUP1 PUSH4 0xA7F43779 EQ PUSH2 0x37D JUMPI DUP1 PUSH4 0xC19D93FB EQ PUSH2 0x392 JUMPI DUP1 PUSH4 0xD0E30DB0 EQ PUSH2 0x3BD JUMPI DUP1 PUSH4 0xD6FEBDE8 EQ PUSH2 0x3DB JUMPI PUSH1 0x0 DUP1 REVERT JUMPDEST DUP1 PUSH4 0x715018A6 GT PUSH2 0xC6 JUMPI DUP1 PUSH4 0x715018A6 EQ PUSH2 0x1E1 JUMPI DUP1 PUSH4 0x88E765FF EQ PUSH2 0x1F8 JUMPI DUP1 PUSH4 0x89035730 EQ PUSH2 0x20D JUMPI DUP1 PUSH4 0x8DA5CB5B EQ PUSH2 0x355 JUMPI PUSH1 0x0 DUP1 REVERT JUMPDEST DUP1 PUSH4 0x3BF3E18E EQ PUSH2 0x148 JUMPI DUP1 PUSH4 0x5DAB2420 EQ PUSH2 0x178 JUMPI DUP1 PUSH4 0x66D602AE EQ PUSH2 0x1B7 JUMPI PUSH1 0x0 DUP1 REVERT JUMPDEST CALLDATASIZE PUSH2 0x143 JUMPI PUSH1 0x40 DUP1 MLOAD CALLER DUP2 MSTORE PUSH1 0x20 DUP2 ADD DUP3 SWAP1 MSTORE PUSH1 0x7 DUP2 DUP4 ADD MSTORE PUSH7 0x72656365697665 PUSH1 0xC8 SHL PUSH1 0x60 DUP3 ADD MSTORE SWAP1 MLOAD PUSH32 0xD00CA3F088120B3D909C3A9E01BE91E94A2B001AED9C25FE751C3C7A72DC49BF SWAP2 DUP2 SWAP1 SUB PUSH1 0x80 ADD SWAP1 LOG1 STOP JUMPDEST PUSH1 0x0 DUP1 REVERT JUMPDEST CALLVALUE DUP1 ISZERO PUSH2 0x154 JUMPI PUSH1 0x0 DUP1 REVERT JUMPDEST POP PUSH1 0xA SLOAD PUSH1 0x1 PUSH1 0xB0 SHL SWAP1 DIV PUSH1 0xFF AND JUMPDEST PUSH1 0x40 MLOAD SWAP1 ISZERO ISZERO DUP2 MSTORE PUSH1 0x20 ADD JUMPDEST PUSH1 0x40 MLOAD DUP1 SWAP2 SUB SWAP1 RETURN JUMPDEST CALLVALUE DUP1 ISZERO PUSH2 0x184 JUMPI PUSH1 0x0 DUP1 REVERT JUMPDEST POP PUSH2 0x18D PUSH2 0x456 JUMP JUMPDEST PUSH1 0x40 DUP1 MLOAD PUSH1 0x1 PUSH1 0x1 PUSH1 0xA0 SHL SUB SWAP5 DUP6 AND DUP2 MSTORE SWAP3 DUP5 AND PUSH1 0x20 DUP5 ADD MSTORE SWAP3 AND SWAP2 DUP2 ADD SWAP2 SWAP1 SWAP2 MSTORE PUSH1 0x60 ADD PUSH2 0x16F JUMP JUMPDEST CALLVALUE DUP1 ISZERO PUSH2 0x1C3 JUMPI PUSH1 0x0 DUP1 REVERT JUMPDEST POP PUSH2 0x1CC PUSH2 0x48A JUMP JUMPDEST PUSH1 0x40 DUP1 MLOAD SWAP3 DUP4 MSTORE PUSH1 0x20 DUP4 ADD SWAP2 SWAP1 SWAP2 MSTORE ADD PUSH2 0x16F JUMP JUMPDEST CALLVALUE DUP1 ISZERO PUSH2 0x1ED JUMPI PUSH1 0x0 DUP1 REVERT JUMPDEST POP PUSH2 0x1F6 PUSH2 0x49E JUMP JUMPDEST STOP JUMPDEST CALLVALUE DUP1 ISZERO PUSH2 0x204 JUMPI PUSH1 0x0 DUP1 REVERT JUMPDEST POP PUSH2 0x1CC PUSH2 0x4B2 JUMP JUMPDEST CALLVALUE DUP1 ISZERO PUSH2 0x219 JUMPI PUSH1 0x0 DUP1 REVERT JUMPDEST POP PUSH2 0x348 PUSH1 0x40 DUP1 MLOAD PUSH2 0x1C0 DUP2 ADD DUP3 MSTORE PUSH1 0x0 DUP1 DUP3 MSTORE PUSH1 0x20 DUP3 ADD DUP2 SWAP1 MSTORE SWAP2 DUP2 ADD DUP3 SWAP1 MSTORE PUSH1 0x60 DUP2 ADD DUP3 SWAP1 MSTORE PUSH1 0x80 DUP2 ADD DUP3 SWAP1 MSTORE PUSH1 0xA0 DUP2 ADD DUP3 SWAP1 MSTORE PUSH1 0xC0 DUP2 ADD DUP3 SWAP1 MSTORE PUSH1 0xE0 DUP2 ADD DUP3 SWAP1 MSTORE PUSH2 0x100 DUP2 ADD DUP3 SWAP1 MSTORE PUSH2 0x120 DUP2 ADD DUP3 SWAP1 MSTORE PUSH2 0x140 DUP2 ADD DUP3 SWAP1 MSTORE PUSH2 0x160 DUP2 ADD DUP3 SWAP1 MSTORE PUSH2 0x180 DUP2 ADD DUP3 SWAP1 MSTORE PUSH2 0x1A0 DUP2 ADD SWAP2 SWAP1 SWAP2 MSTORE POP PUSH1 0x40 DUP1 MLOAD PUSH2 0x1C0 DUP2 ADD DUP3 MSTORE PUSH1 0x9 SLOAD PUSH1 0x1 PUSH1 0x1 PUSH1 0xA0 SHL SUB SWAP1 DUP2 AND DUP3 MSTORE PUSH1 0xA SLOAD DUP1 DUP3 AND PUSH1 0x20 DUP5 ADD MSTORE PUSH1 0xFF PUSH1 0x1 PUSH1 0xA0 SHL DUP3 DIV DUP2 AND SWAP5 DUP5 ADD SWAP5 SWAP1 SWAP5 MSTORE PUSH1 0x1 PUSH1 0xA8 SHL DUP2 DIV DUP5 AND PUSH1 0x60 DUP5 ADD MSTORE PUSH1 0x1 PUSH1 0xB0 SHL SWAP1 DIV SWAP1 SWAP3 AND ISZERO ISZERO PUSH1 0x80 DUP3 ADD MSTORE PUSH1 0xB SLOAD PUSH1 0xA0 DUP3 ADD MSTORE PUSH1 0xC SLOAD PUSH1 0xC0 DUP3 ADD MSTORE PUSH1 0xD SLOAD PUSH2 0xFFFF DUP1 DUP3 AND PUSH1 0xE0 DUP5 ADD MSTORE PUSH3 0x10000 SWAP2 DUP3 SWAP1 DIV DUP2 AND PUSH2 0x100 DUP5 ADD MSTORE PUSH1 0xE SLOAD PUSH2 0x120 DUP5 ADD MSTORE PUSH1 0xF SLOAD SWAP1 DUP2 AND PUSH2 0x140 DUP5 ADD MSTORE DIV SWAP1 SWAP2 AND PUSH2 0x160 DUP3 ADD MSTORE PUSH1 0x10 SLOAD PUSH2 0x180 DUP3 ADD MSTORE PUSH1 0x11 SLOAD PUSH2 0x1A0 DUP3 ADD MSTORE SWAP1 JUMP JUMPDEST PUSH1 0x40 MLOAD PUSH2 0x16F SWAP2 SWAP1 PUSH2 0x23C8 JUMP JUMPDEST CALLVALUE DUP1 ISZERO PUSH2 0x361 JUMPI PUSH1 0x0 DUP1 REVERT JUMPDEST POP PUSH1 0x0 SLOAD PUSH1 0x40 MLOAD PUSH1 0x1 PUSH1 0x1 PUSH1 0xA0 SHL SUB SWAP1 SWAP2 AND DUP2 MSTORE PUSH1 0x20 ADD PUSH2 0x16F JUMP JUMPDEST CALLVALUE DUP1 ISZERO PUSH2 0x389 JUMPI PUSH1 0x0 DUP1 REVERT JUMPDEST POP PUSH2 0x1F6 PUSH2 0x4BE JUMP JUMPDEST CALLVALUE DUP1 ISZERO PUSH2 0x39E JUMPI PUSH1 0x0 DUP1 REVERT JUMPDEST POP PUSH2 0x3A7 PUSH2 0x5C2 JUMP JUMPDEST PUSH1 0x40 MLOAD PUSH2 0x16F SWAP11 SWAP10 SWAP9 SWAP8 SWAP7 SWAP6 SWAP5 SWAP4 SWAP3 SWAP2 SWAP1 PUSH2 0x24BB JUMP JUMPDEST CALLVALUE DUP1 ISZERO PUSH2 0x3C9 JUMPI PUSH1 0x0 DUP1 REVERT JUMPDEST POP PUSH1 0x5 SLOAD PUSH1 0x40 MLOAD SWAP1 DUP2 MSTORE PUSH1 0x20 ADD PUSH2 0x16F JUMP JUMPDEST PUSH2 0x163 PUSH2 0x3E9 CALLDATASIZE PUSH1 0x4 PUSH2 0x23A6 JUMP JUMPDEST PUSH2 0x754 JUMP JUMPDEST PUSH2 0x163 PUSH2 0x3FC CALLDATASIZE PUSH1 0x4 PUSH2 0x23A6 JUMP JUMPDEST PUSH2 0x102A JUMP JUMPDEST CALLVALUE DUP1 ISZERO PUSH2 0x40D JUMPI PUSH1 0x0 DUP1 REVERT JUMPDEST POP PUSH2 0x1F6 PUSH2 0x41C CALLDATASIZE PUSH1 0x4 PUSH2 0x2358 JUMP JUMPDEST PUSH2 0x17E1 JUMP JUMPDEST CALLVALUE DUP1 ISZERO PUSH2 0x42D JUMPI PUSH1 0x0 DUP1 REVERT JUMPDEST POP PUSH2 0x1F6 PUSH2 0x1882 JUMP JUMPDEST CALLVALUE DUP1 ISZERO PUSH2 0x442 JUMPI PUSH1 0x0 DUP1 REVERT JUMPDEST POP PUSH2 0x1F6 PUSH2 0x451 CALLDATASIZE PUSH1 0x4 PUSH2 0x22ED JUMP JUMPDEST PUSH2 0x1917 JUMP JUMPDEST PUSH1 0x0 DUP1 PUSH1 0x0 PUSH2 0x46D PUSH1 0x0 SLOAD PUSH1 0x1 PUSH1 0x1 PUSH1 0xA0 SHL SUB AND SWAP1 JUMP JUMPDEST PUSH1 0x3 SLOAD PUSH1 0x4 SLOAD SWAP2 SWAP6 PUSH1 0x1 PUSH1 0x1 PUSH1 0xA0 SHL SUB SWAP2 DUP3 AND SWAP6 POP SWAP2 AND SWAP3 POP SWAP1 POP JUMP JUMPDEST PUSH1 0x0 DUP1 PUSH2 0x496 CALLER PUSH2 0x1990 JUMP JUMPDEST SWAP2 POP SWAP2 POP SWAP1 SWAP2 JUMP JUMPDEST PUSH2 0x4A6 PUSH2 0x1A57 JUMP JUMPDEST PUSH2 0x4B0 PUSH1 0x0 PUSH2 0x1AB1 JUMP JUMPDEST JUMP JUMPDEST PUSH1 0x0 DUP1 PUSH2 0x496 CALLER PUSH2 0x1B01 JUMP JUMPDEST PUSH2 0x4C6 PUSH2 0x1A57 JUMP JUMPDEST PUSH2 0x4CE PUSH2 0x1B6B JUMP JUMPDEST PUSH2 0x4D6 PUSH2 0x1BD2 JUMP JUMPDEST PUSH1 0xF SLOAD PUSH2 0x4F1 SWAP1 PUSH3 0x10000 SWAP1 DIV PUSH1 0x1 PUSH1 0x1 PUSH1 0xA0 SHL SUB AND PUSH2 0x1CAB JUMP JUMPDEST PUSH2 0x542 JUMPI PUSH1 0x40 MLOAD PUSH3 0x461BCD PUSH1 0xE5 SHL DUP2 MSTORE PUSH1 0x20 PUSH1 0x4 DUP3 ADD MSTORE PUSH1 0x18 PUSH1 0x24 DUP3 ADD MSTORE PUSH32 0x526566756E642062757920746F6B656E206661696C7572650000000000000000 PUSH1 0x44 DUP3 ADD MSTORE PUSH1 0x64 ADD JUMPDEST PUSH1 0x40 MLOAD DUP1 SWAP2 SUB SWAP1 REVERT JUMPDEST PUSH1 0xF SLOAD PUSH2 0x55D SWAP1 PUSH3 0x10000 SWAP1 DIV PUSH1 0x1 PUSH1 0x1 PUSH1 0xA0 SHL SUB AND PUSH2 0x1ECE JUMP JUMPDEST PUSH2 0x5A5 JUMPI PUSH1 0x40 MLOAD PUSH3 0x461BCD PUSH1 0xE5 SHL DUP2 MSTORE PUSH1 0x20 PUSH1 0x4 DUP3 ADD MSTORE PUSH1 0x19 PUSH1 0x24 DUP3 ADD MSTORE PUSH25 0x526566756E642073656C6C20746F6B656E206661696C757265 PUSH1 0x38 SHL PUSH1 0x44 DUP3 ADD MSTORE PUSH1 0x64 ADD PUSH2 0x539 JUMP JUMPDEST PUSH1 0x12 DUP1 SLOAD PUSH1 0x3 SWAP2 SWAP1 PUSH1 0xFF PUSH1 0xA0 SHL NOT AND PUSH1 0x1 PUSH1 0xA0 SHL DUP4 JUMPDEST MUL OR SWAP1 SSTORE POP JUMP JUMPDEST PUSH1 0x12 SLOAD PUSH1 0xA SLOAD PUSH1 0x0 SWAP2 DUP3 SWAP2 DUP3 SWAP2 DUP3 SWAP2 DUP3 SWAP2 DUP3 SWAP2 DUP3 SWAP2 DUP3 SWAP2 DUP3 SWAP2 DUP3 SWAP2 PUSH1 0x1 PUSH1 0x1 PUSH1 0xA0 SHL SUB SWAP1 SWAP2 AND BALANCE SWAP1 PUSH1 0x1 PUSH1 0xB0 SHL SWAP1 DIV PUSH1 0xFF AND PUSH2 0x67A JUMPI PUSH1 0x2 SLOAD PUSH1 0x12 SLOAD PUSH1 0x40 MLOAD PUSH4 0x70A08231 PUSH1 0xE0 SHL DUP2 MSTORE PUSH1 0x1 PUSH1 0x1 PUSH1 0xA0 SHL SUB SWAP2 DUP3 AND PUSH1 0x4 DUP3 ADD MSTORE SWAP2 AND SWAP1 PUSH4 0x70A08231 SWAP1 PUSH1 0x24 ADD PUSH1 0x20 PUSH1 0x40 MLOAD DUP1 DUP4 SUB DUP2 DUP7 DUP1 EXTCODESIZE ISZERO DUP1 ISZERO PUSH2 0x63F JUMPI PUSH1 0x0 DUP1 REVERT JUMPDEST POP GAS STATICCALL ISZERO DUP1 ISZERO PUSH2 0x653 JUMPI RETURNDATASIZE PUSH1 0x0 DUP1 RETURNDATACOPY RETURNDATASIZE PUSH1 0x0 REVERT JUMPDEST POP POP POP POP PUSH1 0x40 MLOAD RETURNDATASIZE PUSH1 0x1F NOT PUSH1 0x1F DUP3 ADD AND DUP3 ADD DUP1 PUSH1 0x40 MSTORE POP DUP2 ADD SWAP1 PUSH2 0x677 SWAP2 SWAP1 PUSH2 0x233F JUMP JUMPDEST SWAP1 POP JUMPDEST PUSH1 0xB SLOAD PUSH1 0x6 SLOAD PUSH1 0x7 SLOAD PUSH1 0x5 SLOAD PUSH1 0x8 SLOAD CALLER PUSH1 0x0 SWAP1 DUP2 MSTORE PUSH1 0x14 PUSH1 0x20 MSTORE PUSH1 0x40 SWAP1 DUP2 SWAP1 KECCAK256 DUP1 SLOAD PUSH1 0x1 SWAP2 DUP3 ADD SLOAD SWAP2 SLOAD PUSH1 0x12 SLOAD SWAP4 MLOAD PUSH4 0x70A08231 PUSH1 0xE0 SHL DUP2 MSTORE PUSH1 0x1 PUSH1 0x1 PUSH1 0xA0 SHL SUB SWAP5 DUP6 AND PUSH1 0x4 DUP3 ADD MSTORE SWAP2 SWAP4 DUP11 SWAP3 SWAP2 AND SWAP1 PUSH4 0x70A08231 SWAP1 PUSH1 0x24 ADD PUSH1 0x20 PUSH1 0x40 MLOAD DUP1 DUP4 SUB DUP2 DUP7 DUP1 EXTCODESIZE ISZERO DUP1 ISZERO PUSH2 0x6EB JUMPI PUSH1 0x0 DUP1 REVERT JUMPDEST POP GAS STATICCALL ISZERO DUP1 ISZERO PUSH2 0x6FF JUMPI RETURNDATASIZE PUSH1 0x0 DUP1 RETURNDATACOPY RETURNDATASIZE PUSH1 0x0 REVERT JUMPDEST POP POP POP POP PUSH1 0x40 MLOAD RETURNDATASIZE PUSH1 0x1F NOT PUSH1 0x1F DUP3 ADD AND DUP3 ADD DUP1 PUSH1 0x40 MSTORE POP DUP2 ADD SWAP1 PUSH2 0x723 SWAP2 SWAP1 PUSH2 0x233F JUMP JUMPDEST PUSH1 0x12 PUSH1 0x14 SWAP1 SLOAD SWAP1 PUSH2 0x100 EXP SWAP1 DIV PUSH1 0xFF AND SWAP11 POP SWAP11 POP SWAP11 POP SWAP11 POP SWAP11 POP SWAP11 POP SWAP11 POP SWAP11 POP SWAP11 POP SWAP11 POP POP SWAP1 SWAP2 SWAP3 SWAP4 SWAP5 SWAP6 SWAP7 SWAP8 SWAP9 SWAP10 JUMP JUMPDEST PUSH1 0x0 PUSH2 0x75E PUSH2 0x1B6B JUMP JUMPDEST PUSH2 0x766 PUSH2 0x1F97 JUMP JUMPDEST PUSH1 0x12 SLOAD PUSH1 0x1 PUSH1 0xA8 SHL SWAP1 DIV PUSH1 0xFF AND ISZERO PUSH2 0x7B1 JUMPI PUSH1 0x40 MLOAD PUSH3 0x461BCD PUSH1 0xE5 SHL DUP2 MSTORE PUSH1 0x20 PUSH1 0x4 DUP3 ADD MSTORE PUSH1 0xE PUSH1 0x24 DUP3 ADD MSTORE PUSH14 0x4E6F2072652D656E7472616E6379 PUSH1 0x90 SHL PUSH1 0x44 DUP3 ADD MSTORE PUSH1 0x64 ADD PUSH2 0x539 JUMP JUMPDEST PUSH1 0x12 DUP1 SLOAD PUSH1 0xFF PUSH1 0xA8 SHL NOT AND PUSH1 0x1 PUSH1 0xA8 SHL OR SWAP1 SSTORE DUP3 ISZERO DUP1 ISZERO SWAP1 PUSH2 0x7D2 JUMPI POP DUP2 ISZERO ISZERO JUMPDEST PUSH2 0x80F JUMPI PUSH1 0x40 MLOAD PUSH3 0x461BCD PUSH1 0xE5 SHL DUP2 MSTORE PUSH1 0x20 PUSH1 0x4 DUP3 ADD MSTORE PUSH1 0xE PUSH1 0x24 DUP3 ADD MSTORE PUSH14 0x416D6F756E74206973207A65726F PUSH1 0x90 SHL PUSH1 0x44 DUP3 ADD MSTORE PUSH1 0x64 ADD PUSH2 0x539 JUMP JUMPDEST PUSH2 0x819 DUP4 DUP4 PUSH2 0x2034 JUMP JUMPDEST PUSH2 0x859 JUMPI PUSH1 0x40 MLOAD PUSH3 0x461BCD PUSH1 0xE5 SHL DUP2 MSTORE PUSH1 0x20 PUSH1 0x4 DUP3 ADD MSTORE PUSH1 0x11 PUSH1 0x24 DUP3 ADD MSTORE PUSH17 0xA0E4D2C6CA40D2E640DAD2E6DAC2E8C6D PUSH1 0x7B SHL PUSH1 0x44 DUP3 ADD MSTORE PUSH1 0x64 ADD PUSH2 0x539 JUMP JUMPDEST PUSH2 0x863 CALLER DUP5 PUSH2 0x207D JUMP JUMPDEST PUSH2 0x8A8 JUMPI PUSH1 0x40 MLOAD PUSH3 0x461BCD PUSH1 0xE5 SHL DUP2 MSTORE PUSH1 0x20 PUSH1 0x4 DUP3 ADD MSTORE PUSH1 0x16 PUSH1 0x24 DUP3 ADD MSTORE PUSH22 0x416D6F756E742065786365656473206D6178696D756D PUSH1 0x50 SHL PUSH1 0x44 DUP3 ADD MSTORE PUSH1 0x64 ADD PUSH2 0x539 JUMP JUMPDEST PUSH1 0x1 SLOAD PUSH1 0x12 SLOAD PUSH1 0x40 MLOAD PUSH4 0x70A08231 PUSH1 0xE0 SHL DUP2 MSTORE PUSH1 0x1 PUSH1 0x1 PUSH1 0xA0 SHL SUB SWAP2 DUP3 AND PUSH1 0x4 DUP3 ADD MSTORE DUP5 SWAP3 SWAP2 SWAP1 SWAP2 AND SWAP1 PUSH4 0x70A08231 SWAP1 PUSH1 0x24 ADD PUSH1 0x20 PUSH1 0x40 MLOAD DUP1 DUP4 SUB DUP2 DUP7 DUP1 EXTCODESIZE ISZERO DUP1 ISZERO PUSH2 0x8F3 JUMPI PUSH1 0x0 DUP1 REVERT JUMPDEST POP GAS STATICCALL ISZERO DUP1 ISZERO PUSH2 0x907 JUMPI RETURNDATASIZE PUSH1 0x0 DUP1 RETURNDATACOPY RETURNDATASIZE PUSH1 0x0 REVERT JUMPDEST POP POP POP POP PUSH1 0x40 MLOAD RETURNDATASIZE PUSH1 0x1F NOT PUSH1 0x1F DUP3 ADD AND DUP3 ADD DUP1 PUSH1 0x40 MSTORE POP DUP2 ADD SWAP1 PUSH2 0x92B SWAP2 SWAP1 PUSH2 0x233F JUMP JUMPDEST LT ISZERO PUSH2 0x984 JUMPI PUSH1 0x40 MLOAD PUSH3 0x461BCD PUSH1 0xE5 SHL DUP2 MSTORE PUSH1 0x20 PUSH1 0x4 DUP3 ADD MSTORE PUSH1 0x22 PUSH1 0x24 DUP3 ADD MSTORE PUSH32 0x53656C6C20746F6B656E2062616C616E636520697320696E7375666669636965 PUSH1 0x44 DUP3 ADD MSTORE PUSH2 0x1B9D PUSH1 0xF2 SHL PUSH1 0x64 DUP3 ADD MSTORE PUSH1 0x84 ADD PUSH2 0x539 JUMP JUMPDEST PUSH1 0x0 PUSH2 0x98F DUP5 PUSH2 0x20A7 JUMP JUMPDEST PUSH1 0xA SLOAD SWAP1 SWAP2 POP PUSH1 0x1 PUSH1 0xB0 SHL SWAP1 DIV PUSH1 0xFF AND ISZERO PUSH2 0xAAA JUMPI DUP4 CALLVALUE EQ PUSH2 0x9EC JUMPI PUSH1 0x40 MLOAD PUSH3 0x461BCD PUSH1 0xE5 SHL DUP2 MSTORE PUSH1 0x20 PUSH1 0x4 DUP3 ADD MSTORE PUSH1 0x16 PUSH1 0x24 DUP3 ADD MSTORE PUSH22 0x1B5CD9CB9D985B1D59481A5CC81B9BDD081D985B1A59 PUSH1 0x52 SHL PUSH1 0x44 DUP3 ADD MSTORE PUSH1 0x64 ADD PUSH2 0x539 JUMP JUMPDEST PUSH1 0x12 SLOAD PUSH1 0x40 MLOAD PUSH1 0x0 SWAP2 PUSH1 0x1 PUSH1 0x1 PUSH1 0xA0 SHL SUB AND SWAP1 DUP3 SWAP1 DUP2 DUP2 DUP2 DUP2 DUP2 DUP8 GAS CALL SWAP3 POP POP POP RETURNDATASIZE DUP1 PUSH1 0x0 DUP2 EQ PUSH2 0xA39 JUMPI PUSH1 0x40 MLOAD SWAP2 POP PUSH1 0x1F NOT PUSH1 0x3F RETURNDATASIZE ADD AND DUP3 ADD PUSH1 0x40 MSTORE RETURNDATASIZE DUP3 MSTORE RETURNDATASIZE PUSH1 0x0 PUSH1 0x20 DUP5 ADD RETURNDATACOPY PUSH2 0xA3E JUMP JUMPDEST PUSH1 0x60 SWAP2 POP JUMPDEST POP POP PUSH1 0xF SLOAD SWAP1 SWAP2 POP PUSH3 0x10000 SWAP1 DIV PUSH1 0x1 PUSH1 0x1 PUSH1 0xA0 SHL SUB AND PUSH2 0xA5F CALLVALUE DUP5 PUSH2 0x20C9 JUMP JUMPDEST PUSH1 0x40 MLOAD PUSH1 0x0 DUP2 DUP2 DUP2 DUP6 DUP8 GAS CALL SWAP3 POP POP POP RETURNDATASIZE DUP1 PUSH1 0x0 DUP2 EQ PUSH2 0xA9B JUMPI PUSH1 0x40 MLOAD SWAP2 POP PUSH1 0x1F NOT PUSH1 0x3F RETURNDATASIZE ADD AND DUP3 ADD PUSH1 0x40 MSTORE RETURNDATASIZE DUP3 MSTORE RETURNDATASIZE PUSH1 0x0 PUSH1 0x20 DUP5 ADD RETURNDATACOPY PUSH2 0xAA0 JUMP JUMPDEST PUSH1 0x60 SWAP2 POP JUMPDEST POP PUSH2 0xE37 SWAP3 POP POP POP JUMP JUMPDEST PUSH1 0x2 SLOAD PUSH1 0x12 SLOAD PUSH1 0x40 MLOAD PUSH4 0x6EB1769F PUSH1 0xE1 SHL DUP2 MSTORE CALLER PUSH1 0x4 DUP3 ADD MSTORE PUSH1 0x1 PUSH1 0x1 PUSH1 0xA0 SHL SUB SWAP2 DUP3 AND PUSH1 0x24 DUP3 ADD MSTORE DUP7 SWAP3 SWAP2 SWAP1 SWAP2 AND SWAP1 PUSH4 0xDD62ED3E SWAP1 PUSH1 0x44 ADD PUSH1 0x20 PUSH1 0x40 MLOAD DUP1 DUP4 SUB DUP2 DUP7 DUP1 EXTCODESIZE ISZERO DUP1 ISZERO PUSH2 0xAFB JUMPI PUSH1 0x0 DUP1 REVERT JUMPDEST POP GAS STATICCALL ISZERO DUP1 ISZERO PUSH2 0xB0F JUMPI RETURNDATASIZE PUSH1 0x0 DUP1 RETURNDATACOPY RETURNDATASIZE PUSH1 0x0 REVERT JUMPDEST POP POP POP POP PUSH1 0x40 MLOAD RETURNDATASIZE PUSH1 0x1F NOT PUSH1 0x1F DUP3 ADD AND DUP3 ADD DUP1 PUSH1 0x40 MSTORE POP DUP2 ADD SWAP1 PUSH2 0xB33 SWAP2 SWAP1 PUSH2 0x233F JUMP JUMPDEST LT ISZERO PUSH2 0xB92 JUMPI PUSH1 0x40 MLOAD PUSH3 0x461BCD PUSH1 0xE5 SHL DUP2 MSTORE PUSH1 0x20 PUSH1 0x4 DUP3 ADD MSTORE PUSH1 0x28 PUSH1 0x24 DUP3 ADD MSTORE PUSH32 0x596F75722062757920746F6B656E20616C6C6F77616E636520697320696E7375 PUSH1 0x44 DUP3 ADD MSTORE PUSH8 0x19999A58DA595B9D PUSH1 0xC2 SHL PUSH1 0x64 DUP3 ADD MSTORE PUSH1 0x84 ADD PUSH2 0x539 JUMP JUMPDEST PUSH1 0x2 SLOAD PUSH1 0x40 MLOAD PUSH4 0x70A08231 PUSH1 0xE0 SHL DUP2 MSTORE CALLER PUSH1 0x4 DUP3 ADD MSTORE DUP6 SWAP2 PUSH1 0x1 PUSH1 0x1 PUSH1 0xA0 SHL SUB AND SWAP1 PUSH4 0x70A08231 SWAP1 PUSH1 0x24 ADD PUSH1 0x20 PUSH1 0x40 MLOAD DUP1 DUP4 SUB DUP2 DUP7 DUP1 EXTCODESIZE ISZERO DUP1 ISZERO PUSH2 0xBD5 JUMPI PUSH1 0x0 DUP1 REVERT JUMPDEST POP GAS STATICCALL ISZERO DUP1 ISZERO PUSH2 0xBE9 JUMPI RETURNDATASIZE PUSH1 0x0 DUP1 RETURNDATACOPY RETURNDATASIZE PUSH1 0x0 REVERT JUMPDEST POP POP POP POP PUSH1 0x40 MLOAD RETURNDATASIZE PUSH1 0x1F NOT PUSH1 0x1F DUP3 ADD AND DUP3 ADD DUP1 PUSH1 0x40 MSTORE POP DUP2 ADD SWAP1 PUSH2 0xC0D SWAP2 SWAP1 PUSH2 0x233F JUMP JUMPDEST LT ISZERO PUSH2 0xC6A JUMPI PUSH1 0x40 MLOAD PUSH3 0x461BCD PUSH1 0xE5 SHL DUP2 MSTORE PUSH1 0x20 PUSH1 0x4 DUP3 ADD MSTORE PUSH1 0x26 PUSH1 0x24 DUP3 ADD MSTORE PUSH32 0x596F75722062757920746F6B656E2062616C616E636520697320696E73756666 PUSH1 0x44 DUP3 ADD MSTORE PUSH6 0x1A58DA595B9D PUSH1 0xD2 SHL PUSH1 0x64 DUP3 ADD MSTORE PUSH1 0x84 ADD PUSH2 0x539 JUMP JUMPDEST PUSH1 0x2 SLOAD PUSH1 0x12 SLOAD PUSH1 0x40 MLOAD PUSH4 0x23B872DD PUSH1 0xE0 SHL DUP2 MSTORE CALLER PUSH1 0x4 DUP3 ADD MSTORE PUSH1 0x1 PUSH1 0x1 PUSH1 0xA0 SHL SUB SWAP2 DUP3 AND PUSH1 0x24 DUP3 ADD MSTORE PUSH1 0x44 DUP2 ADD DUP8 SWAP1 MSTORE SWAP2 AND SWAP1 PUSH4 0x23B872DD SWAP1 PUSH1 0x64 ADD PUSH1 0x20 PUSH1 0x40 MLOAD DUP1 DUP4 SUB DUP2 PUSH1 0x0 DUP8 DUP1 EXTCODESIZE ISZERO DUP1 ISZERO PUSH2 0xCC0 JUMPI PUSH1 0x0 DUP1 REVERT JUMPDEST POP GAS CALL ISZERO DUP1 ISZERO PUSH2 0xCD4 JUMPI RETURNDATASIZE PUSH1 0x0 DUP1 RETURNDATACOPY RETURNDATASIZE PUSH1 0x0 REVERT JUMPDEST POP POP POP POP PUSH1 0x40 MLOAD RETURNDATASIZE PUSH1 0x1F NOT PUSH1 0x1F DUP3 ADD AND DUP3 ADD DUP1 PUSH1 0x40 MSTORE POP DUP2 ADD SWAP1 PUSH2 0xCF8 SWAP2 SWAP1 PUSH2 0x231D JUMP JUMPDEST PUSH2 0xD44 JUMPI PUSH1 0x40 MLOAD PUSH3 0x461BCD PUSH1 0xE5 SHL DUP2 MSTORE PUSH1 0x20 PUSH1 0x4 DUP3 ADD MSTORE PUSH1 0x1E PUSH1 0x24 DUP3 ADD MSTORE PUSH32 0x42757920746F6B656E207472616E7366657246726F6D206661696C7572650000 PUSH1 0x44 DUP3 ADD MSTORE PUSH1 0x64 ADD PUSH2 0x539 JUMP JUMPDEST PUSH1 0x2 SLOAD PUSH1 0xF SLOAD PUSH1 0x1 PUSH1 0x1 PUSH1 0xA0 SHL SUB SWAP2 DUP3 AND SWAP2 PUSH4 0xA9059CBB SWAP2 PUSH3 0x10000 SWAP1 DIV AND PUSH2 0xD6D DUP8 DUP6 PUSH2 0x20C9 JUMP JUMPDEST PUSH1 0x40 MLOAD PUSH1 0x1 PUSH1 0x1 PUSH1 0xE0 SHL SUB NOT PUSH1 0xE0 DUP6 SWAP1 SHL AND DUP2 MSTORE PUSH1 0x1 PUSH1 0x1 PUSH1 0xA0 SHL SUB SWAP1 SWAP3 AND PUSH1 0x4 DUP4 ADD MSTORE PUSH1 0x24 DUP3 ADD MSTORE PUSH1 0x44 ADD PUSH1 0x20 PUSH1 0x40 MLOAD DUP1 DUP4 SUB DUP2 PUSH1 0x0 DUP8 DUP1 EXTCODESIZE ISZERO DUP1 ISZERO PUSH2 0xDB3 JUMPI PUSH1 0x0 DUP1 REVERT JUMPDEST POP GAS CALL ISZERO DUP1 ISZERO PUSH2 0xDC7 JUMPI RETURNDATASIZE PUSH1 0x0 DUP1 RETURNDATACOPY RETURNDATASIZE PUSH1 0x0 REVERT JUMPDEST POP POP POP POP PUSH1 0x40 MLOAD RETURNDATASIZE PUSH1 0x1F NOT PUSH1 0x1F DUP3 ADD AND DUP3 ADD DUP1 PUSH1 0x40 MSTORE POP DUP2 ADD SWAP1 PUSH2 0xDEB SWAP2 SWAP1 PUSH2 0x231D JUMP JUMPDEST PUSH2 0xE37 JUMPI PUSH1 0x40 MLOAD PUSH3 0x461BCD PUSH1 0xE5 SHL DUP2 MSTORE PUSH1 0x20 PUSH1 0x4 DUP3 ADD MSTORE PUSH1 0x1F PUSH1 0x24 DUP3 ADD MSTORE PUSH32 0x42757920746F6B656E207472616E73666572207465616D206661696C75726500 PUSH1 0x44 DUP3 ADD MSTORE PUSH1 0x64 ADD PUSH2 0x539 JUMP JUMPDEST PUSH1 0x1 SLOAD PUSH1 0x40 MLOAD PUSH4 0xA9059CBB PUSH1 0xE0 SHL DUP2 MSTORE CALLER PUSH1 0x4 DUP3 ADD MSTORE PUSH1 0x24 DUP2 ADD DUP6 SWAP1 MSTORE PUSH1 0x1 PUSH1 0x1 PUSH1 0xA0 SHL SUB SWAP1 SWAP2 AND SWAP1 PUSH4 0xA9059CBB SWAP1 PUSH1 0x44 ADD PUSH1 0x20 PUSH1 0x40 MLOAD DUP1 DUP4 SUB DUP2 PUSH1 0x0 DUP8 DUP1 EXTCODESIZE ISZERO DUP1 ISZERO PUSH2 0xE83 JUMPI PUSH1 0x0 DUP1 REVERT JUMPDEST POP GAS CALL ISZERO DUP1 ISZERO PUSH2 0xE97 JUMPI RETURNDATASIZE PUSH1 0x0 DUP1 RETURNDATACOPY RETURNDATASIZE PUSH1 0x0 REVERT JUMPDEST POP POP POP POP PUSH1 0x40 MLOAD RETURNDATASIZE PUSH1 0x1F NOT PUSH1 0x1F DUP3 ADD AND DUP3 ADD DUP1 PUSH1 0x40 MSTORE POP DUP2 ADD SWAP1 PUSH2 0xEBB SWAP2 SWAP1 PUSH2 0x231D JUMP JUMPDEST PUSH2 0xF07 JUMPI PUSH1 0x40 MLOAD PUSH3 0x461BCD PUSH1 0xE5 SHL DUP2 MSTORE PUSH1 0x20 PUSH1 0x4 DUP3 ADD MSTORE PUSH1 0x1B PUSH1 0x24 DUP3 ADD MSTORE PUSH32 0x53656C6C20746F6B656E207472616E73666572206661696C7572650000000000 PUSH1 0x44 DUP3 ADD MSTORE PUSH1 0x64 ADD PUSH2 0x539 JUMP JUMPDEST PUSH1 0x6 SLOAD PUSH2 0xF14 SWAP1 DUP6 PUSH2 0x20D5 JUMP JUMPDEST PUSH1 0x6 SSTORE PUSH1 0x8 SLOAD PUSH2 0xF24 SWAP1 DUP5 PUSH2 0x20C9 JUMP JUMPDEST PUSH1 0x8 SSTORE PUSH1 0x7 SLOAD PUSH2 0xF34 SWAP1 DUP3 PUSH2 0x20D5 JUMP JUMPDEST PUSH1 0x7 SSTORE CALLER PUSH1 0x0 SWAP1 DUP2 MSTORE PUSH1 0x13 PUSH1 0x20 MSTORE PUSH1 0x40 SWAP1 KECCAK256 SLOAD PUSH2 0xF51 SWAP1 DUP6 PUSH2 0x20D5 JUMP JUMPDEST CALLER PUSH1 0x0 SWAP1 DUP2 MSTORE PUSH1 0x13 PUSH1 0x20 MSTORE PUSH1 0x40 SWAP1 KECCAK256 SWAP1 DUP2 SSTORE PUSH1 0x1 ADD SLOAD PUSH2 0xF71 SWAP1 DUP5 PUSH2 0x20D5 JUMP JUMPDEST CALLER PUSH1 0x0 SWAP1 DUP2 MSTORE PUSH1 0x13 PUSH1 0x20 SWAP1 DUP2 MSTORE PUSH1 0x40 DUP1 DUP4 KECCAK256 PUSH1 0x1 ADD SWAP4 SWAP1 SWAP4 SSTORE PUSH1 0x14 SWAP1 MSTORE KECCAK256 SLOAD PUSH2 0xF9A SWAP1 DUP6 PUSH2 0x20D5 JUMP JUMPDEST CALLER PUSH1 0x0 SWAP1 DUP2 MSTORE PUSH1 0x14 PUSH1 0x20 MSTORE PUSH1 0x40 SWAP1 KECCAK256 SWAP1 DUP2 SSTORE PUSH1 0x1 ADD SLOAD PUSH2 0xFBA SWAP1 DUP5 PUSH2 0x20D5 JUMP JUMPDEST CALLER PUSH1 0x0 DUP2 DUP2 MSTORE PUSH1 0x14 PUSH1 0x20 SWAP1 DUP2 MSTORE PUSH1 0x40 SWAP2 DUP3 SWAP1 KECCAK256 PUSH1 0x1 ADD SWAP4 SWAP1 SWAP4 SSTORE DUP1 MLOAD SWAP2 DUP3 MSTORE SWAP2 DUP2 ADD DUP7 SWAP1 MSTORE SWAP1 DUP2 ADD DUP5 SWAP1 MSTORE PUSH32 0x1CBC5AB135991BD2B6A4B034A04AA2AA086DAC1371CB9B16B8B5E2ED6B036BED SWAP1 PUSH1 0x60 ADD JUMPDEST PUSH1 0x40 MLOAD DUP1 SWAP2 SUB SWAP1 LOG1 POP POP PUSH1 0x12 DUP1 SLOAD PUSH1 0xFF PUSH1 0xA8 SHL NOT AND SWAP1 SSTORE POP PUSH1 0x1 SWAP2 SWAP1 POP JUMP JUMPDEST PUSH1 0x0 PUSH2 0x1034 PUSH2 0x1B6B JUMP JUMPDEST PUSH2 0x103C PUSH2 0x1F97 JUMP JUMPDEST PUSH1 0x12 SLOAD PUSH1 0x1 PUSH1 0xA8 SHL SWAP1 DIV PUSH1 0xFF AND ISZERO PUSH2 0x1087 JUMPI PUSH1 0x40 MLOAD PUSH3 0x461BCD PUSH1 0xE5 SHL DUP2 MSTORE PUSH1 0x20 PUSH1 0x4 DUP3 ADD MSTORE PUSH1 0xE PUSH1 0x24 DUP3 ADD MSTORE PUSH14 0x4E6F2072652D656E7472616E6379 PUSH1 0x90 SHL PUSH1 0x44 DUP3 ADD MSTORE PUSH1 0x64 ADD PUSH2 0x539 JUMP JUMPDEST PUSH1 0x12 DUP1 SLOAD PUSH1 0xFF PUSH1 0xA8 SHL NOT AND PUSH1 0x1 PUSH1 0xA8 SHL OR SWAP1 SSTORE DUP3 ISZERO DUP1 ISZERO SWAP1 PUSH2 0x10A8 JUMPI POP DUP2 ISZERO ISZERO JUMPDEST PUSH2 0x10E5 JUMPI PUSH1 0x40 MLOAD PUSH3 0x461BCD PUSH1 0xE5 SHL DUP2 MSTORE PUSH1 0x20 PUSH1 0x4 DUP3 ADD MSTORE PUSH1 0xE PUSH1 0x24 DUP3 ADD MSTORE PUSH14 0x416D6F756E74206973207A65726F PUSH1 0x90 SHL PUSH1 0x44 DUP3 ADD MSTORE PUSH1 0x64 ADD PUSH2 0x539 JUMP JUMPDEST PUSH2 0x10EF DUP4 DUP4 PUSH2 0x2034 JUMP JUMPDEST PUSH2 0x112F JUMPI PUSH1 0x40 MLOAD PUSH3 0x461BCD PUSH1 0xE5 SHL DUP2 MSTORE PUSH1 0x20 PUSH1 0x4 DUP3 ADD MSTORE PUSH1 0x11 PUSH1 0x24 DUP3 ADD MSTORE PUSH17 0xA0E4D2C6CA40D2E640DAD2E6DAC2E8C6D PUSH1 0x7B SHL PUSH1 0x44 DUP3 ADD MSTORE PUSH1 0x64 ADD PUSH2 0x539 JUMP JUMPDEST PUSH2 0x1139 CALLER DUP4 PUSH2 0x20E1 JUMP JUMPDEST PUSH2 0x117E JUMPI PUSH1 0x40 MLOAD PUSH3 0x461BCD PUSH1 0xE5 SHL DUP2 MSTORE PUSH1 0x20 PUSH1 0x4 DUP3 ADD MSTORE PUSH1 0x16 PUSH1 0x24 DUP3 ADD MSTORE PUSH22 0x416D6F756E742065786365656473206D6178696D756D PUSH1 0x50 SHL PUSH1 0x44 DUP3 ADD MSTORE PUSH1 0x64 ADD PUSH2 0x539 JUMP JUMPDEST PUSH1 0x0 PUSH2 0x1189 DUP5 PUSH2 0x2101 JUMP JUMPDEST SWAP1 POP DUP1 PUSH2 0x1194 PUSH2 0x2134 JUMP JUMPDEST LT ISZERO PUSH2 0x11DC JUMPI PUSH1 0x40 MLOAD PUSH3 0x461BCD PUSH1 0xE5 SHL DUP2 MSTORE PUSH1 0x20 PUSH1 0x4 DUP3 ADD MSTORE PUSH1 0x17 PUSH1 0x24 DUP3 ADD MSTORE PUSH23 0x10985B185B98D9481A5CC81A5B9CDD59999A58DA595B9D PUSH1 0x4A SHL PUSH1 0x44 DUP3 ADD MSTORE PUSH1 0x64 ADD PUSH2 0x539 JUMP JUMPDEST PUSH1 0x1 SLOAD PUSH1 0x12 SLOAD PUSH1 0x40 MLOAD PUSH4 0x6EB1769F PUSH1 0xE1 SHL DUP2 MSTORE CALLER PUSH1 0x4 DUP3 ADD MSTORE PUSH1 0x1 PUSH1 0x1 PUSH1 0xA0 SHL SUB SWAP2 DUP3 AND PUSH1 0x24 DUP3 ADD MSTORE DUP6 SWAP3 SWAP2 SWAP1 SWAP2 AND SWAP1 PUSH4 0xDD62ED3E SWAP1 PUSH1 0x44 ADD PUSH1 0x20 PUSH1 0x40 MLOAD DUP1 DUP4 SUB DUP2 DUP7 DUP1 EXTCODESIZE ISZERO DUP1 ISZERO PUSH2 0x122D JUMPI PUSH1 0x0 DUP1 REVERT JUMPDEST POP GAS STATICCALL ISZERO DUP1 ISZERO PUSH2 0x1241 JUMPI RETURNDATASIZE PUSH1 0x0 DUP1 RETURNDATACOPY RETURNDATASIZE PUSH1 0x0 REVERT JUMPDEST POP POP POP POP PUSH1 0x40 MLOAD RETURNDATASIZE PUSH1 0x1F NOT PUSH1 0x1F DUP3 ADD AND DUP3 ADD DUP1 PUSH1 0x40 MSTORE POP DUP2 ADD SWAP1 PUSH2 0x1265 SWAP2 SWAP1 PUSH2 0x233F JUMP JUMPDEST LT ISZERO PUSH2 0x12C5 JUMPI PUSH1 0x40 MLOAD PUSH3 0x461BCD PUSH1 0xE5 SHL DUP2 MSTORE PUSH1 0x20 PUSH1 0x4 DUP3 ADD MSTORE PUSH1 0x29 PUSH1 0x24 DUP3 ADD MSTORE PUSH32 0x596F75722073656C6C20746F6B656E20616C6C6F77616E636520697320696E73 PUSH1 0x44 DUP3 ADD MSTORE PUSH9 0x1D59999A58DA595B9D PUSH1 0xBA SHL PUSH1 0x64 DUP3 ADD MSTORE PUSH1 0x84 ADD PUSH2 0x539 JUMP JUMPDEST PUSH1 0x1 SLOAD PUSH1 0x40 MLOAD PUSH4 0x70A08231 PUSH1 0xE0 SHL DUP2 MSTORE CALLER PUSH1 0x4 DUP3 ADD MSTORE DUP5 SWAP2 PUSH1 0x1 PUSH1 0x1 PUSH1 0xA0 SHL SUB AND SWAP1 PUSH4 0x70A08231 SWAP1 PUSH1 0x24 ADD PUSH1 0x20 PUSH1 0x40 MLOAD DUP1 DUP4 SUB DUP2 DUP7 DUP1 EXTCODESIZE ISZERO DUP1 ISZERO PUSH2 0x1308 JUMPI PUSH1 0x0 DUP1 REVERT JUMPDEST POP GAS STATICCALL ISZERO DUP1 ISZERO PUSH2 0x131C JUMPI RETURNDATASIZE PUSH1 0x0 DUP1 RETURNDATACOPY RETURNDATASIZE PUSH1 0x0 REVERT JUMPDEST POP POP POP POP PUSH1 0x40 MLOAD RETURNDATASIZE PUSH1 0x1F NOT PUSH1 0x1F DUP3 ADD AND DUP3 ADD DUP1 PUSH1 0x40 MSTORE POP DUP2 ADD SWAP1 PUSH2 0x1340 SWAP2 SWAP1 PUSH2 0x233F JUMP JUMPDEST LT ISZERO PUSH2 0x139E JUMPI PUSH1 0x40 MLOAD PUSH3 0x461BCD PUSH1 0xE5 SHL DUP2 MSTORE PUSH1 0x20 PUSH1 0x4 DUP3 ADD MSTORE PUSH1 0x27 PUSH1 0x24 DUP3 ADD MSTORE PUSH32 0x596F75722073656C6C20746F6B656E2062616C616E636520697320696E737566 PUSH1 0x44 DUP3 ADD MSTORE PUSH7 0x199A58DA595B9D PUSH1 0xCA SHL PUSH1 0x64 DUP3 ADD MSTORE PUSH1 0x84 ADD PUSH2 0x539 JUMP JUMPDEST PUSH1 0x1 SLOAD PUSH1 0x12 SLOAD PUSH1 0x40 MLOAD PUSH4 0x23B872DD PUSH1 0xE0 SHL DUP2 MSTORE CALLER PUSH1 0x4 DUP3 ADD MSTORE PUSH1 0x1 PUSH1 0x1 PUSH1 0xA0 SHL SUB SWAP2 DUP3 AND PUSH1 0x24 DUP3 ADD MSTORE PUSH1 0x44 DUP2 ADD DUP7 SWAP1 MSTORE SWAP2 AND SWAP1 PUSH4 0x23B872DD SWAP1 PUSH1 0x64 ADD PUSH1 0x20 PUSH1 0x40 MLOAD DUP1 DUP4 SUB DUP2 PUSH1 0x0 DUP8 DUP1 EXTCODESIZE ISZERO DUP1 ISZERO PUSH2 0x13F4 JUMPI PUSH1 0x0 DUP1 REVERT JUMPDEST POP GAS CALL ISZERO DUP1 ISZERO PUSH2 0x1408 JUMPI RETURNDATASIZE PUSH1 0x0 DUP1 RETURNDATACOPY RETURNDATASIZE PUSH1 0x0 REVERT JUMPDEST POP POP POP POP PUSH1 0x40 MLOAD RETURNDATASIZE PUSH1 0x1F NOT PUSH1 0x1F DUP3 ADD AND DUP3 ADD DUP1 PUSH1 0x40 MSTORE POP DUP2 ADD SWAP1 PUSH2 0x142C SWAP2 SWAP1 PUSH2 0x231D JUMP JUMPDEST PUSH2 0x1478 JUMPI PUSH1 0x40 MLOAD PUSH3 0x461BCD PUSH1 0xE5 SHL DUP2 MSTORE PUSH1 0x20 PUSH1 0x4 DUP3 ADD MSTORE PUSH1 0x1F PUSH1 0x24 DUP3 ADD MSTORE PUSH32 0x53656C6C20746F6B656E207472616E7366657246726F6D206661696C75726500 PUSH1 0x44 DUP3 ADD MSTORE PUSH1 0x64 ADD PUSH2 0x539 JUMP JUMPDEST PUSH1 0xA SLOAD PUSH1 0x1 PUSH1 0xB0 SHL SWAP1 DIV PUSH1 0xFF AND ISZERO PUSH2 0x1577 JUMPI PUSH1 0x12 SLOAD PUSH1 0x1 PUSH1 0x1 PUSH1 0xA0 SHL SUB AND BALANCE DUP2 GT ISZERO PUSH2 0x14E0 JUMPI PUSH1 0x40 MLOAD PUSH3 0x461BCD PUSH1 0xE5 SHL DUP2 MSTORE PUSH1 0x20 PUSH1 0x4 DUP3 ADD MSTORE PUSH1 0x17 PUSH1 0x24 DUP3 ADD MSTORE PUSH23 0x10985B185B98D9481A5CC81A5B9CDD59999A58DA595B9D PUSH1 0x4A SHL PUSH1 0x44 DUP3 ADD MSTORE PUSH1 0x64 ADD PUSH2 0x539 JUMP JUMPDEST PUSH1 0x40 MLOAD PUSH1 0x0 SWAP1 CALLER SWAP1 DUP4 SWAP1 DUP4 DUP2 DUP2 DUP2 DUP6 DUP8 GAS CALL SWAP3 POP POP POP RETURNDATASIZE DUP1 PUSH1 0x0 DUP2 EQ PUSH2 0x1522 JUMPI PUSH1 0x40 MLOAD SWAP2 POP PUSH1 0x1F NOT PUSH1 0x3F RETURNDATASIZE ADD AND DUP3 ADD PUSH1 0x40 MSTORE RETURNDATASIZE DUP3 MSTORE RETURNDATASIZE PUSH1 0x0 PUSH1 0x20 DUP5 ADD RETURNDATACOPY PUSH2 0x1527 JUMP JUMPDEST PUSH1 0x60 SWAP2 POP JUMPDEST POP POP SWAP1 POP DUP1 PUSH2 0x1571 JUMPI PUSH1 0x40 MLOAD PUSH3 0x461BCD PUSH1 0xE5 SHL DUP2 MSTORE PUSH1 0x20 PUSH1 0x4 DUP3 ADD MSTORE PUSH1 0x16 PUSH1 0x24 DUP3 ADD MSTORE PUSH22 0x5472616E73666572206275796572206661696C757265 PUSH1 0x50 SHL PUSH1 0x44 DUP3 ADD MSTORE PUSH1 0x64 ADD PUSH2 0x539 JUMP JUMPDEST POP PUSH2 0x1722 JUMP JUMPDEST PUSH1 0x2 SLOAD PUSH1 0x12 SLOAD PUSH1 0x40 MLOAD PUSH4 0x70A08231 PUSH1 0xE0 SHL DUP2 MSTORE PUSH1 0x1 PUSH1 0x1 PUSH1 0xA0 SHL SUB SWAP2 DUP3 AND PUSH1 0x4 DUP3 ADD MSTORE DUP4 SWAP3 SWAP2 SWAP1 SWAP2 AND SWAP1 PUSH4 0x70A08231 SWAP1 PUSH1 0x24 ADD PUSH1 0x20 PUSH1 0x40 MLOAD DUP1 DUP4 SUB DUP2 DUP7 DUP1 EXTCODESIZE ISZERO DUP1 ISZERO PUSH2 0x15C2 JUMPI PUSH1 0x0 DUP1 REVERT JUMPDEST POP GAS STATICCALL ISZERO DUP1 ISZERO PUSH2 0x15D6 JUMPI RETURNDATASIZE PUSH1 0x0 DUP1 RETURNDATACOPY RETURNDATASIZE PUSH1 0x0 REVERT JUMPDEST POP POP POP POP PUSH1 0x40 MLOAD RETURNDATASIZE PUSH1 0x1F NOT PUSH1 0x1F DUP3 ADD AND DUP3 ADD DUP1 PUSH1 0x40 MSTORE POP DUP2 ADD SWAP1 PUSH2 0x15FA SWAP2 SWAP1 PUSH2 0x233F JUMP JUMPDEST LT ISZERO PUSH2 0x1652 JUMPI PUSH1 0x40 MLOAD PUSH3 0x461BCD PUSH1 0xE5 SHL DUP2 MSTORE PUSH1 0x20 PUSH1 0x4 DUP3 ADD MSTORE PUSH1 0x21 PUSH1 0x24 DUP3 ADD MSTORE PUSH32 0x42757920746F6B656E2062616C616E636520697320696E73756666696369656E PUSH1 0x44 DUP3 ADD MSTORE PUSH1 0x1D PUSH1 0xFA SHL PUSH1 0x64 DUP3 ADD MSTORE PUSH1 0x84 ADD PUSH2 0x539 JUMP JUMPDEST PUSH1 0x2 SLOAD PUSH1 0x40 MLOAD PUSH4 0xA9059CBB PUSH1 0xE0 SHL DUP2 MSTORE CALLER PUSH1 0x4 DUP3 ADD MSTORE PUSH1 0x24 DUP2 ADD DUP4 SWAP1 MSTORE PUSH1 0x1 PUSH1 0x1 PUSH1 0xA0 SHL SUB SWAP1 SWAP2 AND SWAP1 PUSH4 0xA9059CBB SWAP1 PUSH1 0x44 ADD PUSH1 0x20 PUSH1 0x40 MLOAD DUP1 DUP4 SUB DUP2 PUSH1 0x0 DUP8 DUP1 EXTCODESIZE ISZERO DUP1 ISZERO PUSH2 0x169E JUMPI PUSH1 0x0 DUP1 REVERT JUMPDEST POP GAS CALL ISZERO DUP1 ISZERO PUSH2 0x16B2 JUMPI RETURNDATASIZE PUSH1 0x0 DUP1 RETURNDATACOPY RETURNDATASIZE PUSH1 0x0 REVERT JUMPDEST POP POP POP POP PUSH1 0x40 MLOAD RETURNDATASIZE PUSH1 0x1F NOT PUSH1 0x1F DUP3 ADD AND DUP3 ADD DUP1 PUSH1 0x40 MSTORE POP DUP2 ADD SWAP1 PUSH2 0x16D6 SWAP2 SWAP1 PUSH2 0x231D JUMP JUMPDEST PUSH2 0x1722 JUMPI PUSH1 0x40 MLOAD PUSH3 0x461BCD PUSH1 0xE5 SHL DUP2 MSTORE PUSH1 0x20 PUSH1 0x4 DUP3 ADD DUP2 SWAP1 MSTORE PUSH1 0x24 DUP3 ADD MSTORE PUSH32 0x42757920746F6B656E207472616E73666572206275796572206661696C757265 PUSH1 0x44 DUP3 ADD MSTORE PUSH1 0x64 ADD PUSH2 0x539 JUMP JUMPDEST PUSH1 0x6 SLOAD PUSH2 0x172F SWAP1 DUP6 PUSH2 0x20C9 JUMP JUMPDEST PUSH1 0x6 SSTORE PUSH1 0x8 SLOAD PUSH2 0x173F SWAP1 DUP5 PUSH2 0x20D5 JUMP JUMPDEST PUSH1 0x8 SSTORE PUSH1 0x7 SLOAD PUSH2 0x174F SWAP1 DUP3 PUSH2 0x20C9 JUMP JUMPDEST PUSH1 0x7 SSTORE CALLER PUSH1 0x0 SWAP1 DUP2 MSTORE PUSH1 0x14 PUSH1 0x20 MSTORE PUSH1 0x40 SWAP1 KECCAK256 SLOAD PUSH2 0x176C SWAP1 DUP6 PUSH2 0x20C9 JUMP JUMPDEST CALLER PUSH1 0x0 SWAP1 DUP2 MSTORE PUSH1 0x14 PUSH1 0x20 MSTORE PUSH1 0x40 SWAP1 KECCAK256 SWAP1 DUP2 SSTORE PUSH1 0x1 ADD SLOAD PUSH2 0x178C SWAP1 DUP5 PUSH2 0x20C9 JUMP JUMPDEST CALLER PUSH1 0x0 DUP2 DUP2 MSTORE PUSH1 0x14 PUSH1 0x20 SWAP1 DUP2 MSTORE PUSH1 0x40 SWAP2 DUP3 SWAP1 KECCAK256 PUSH1 0x1 ADD SWAP4 SWAP1 SWAP4 SSTORE DUP1 MLOAD SWAP2 DUP3 MSTORE SWAP2 DUP2 ADD DUP7 SWAP1 MSTORE SWAP1 DUP2 ADD DUP5 SWAP1 MSTORE PUSH32 0xED7A144FAD14804D5C249145E3E0E2B63A9EB455B76AEE5BC92D711E9BBA3E4A SWAP1 PUSH1 0x60 ADD PUSH2 0x100B JUMP JUMPDEST PUSH2 0x17E9 PUSH2 0x1A57 JUMP JUMPDEST PUSH2 0x17F1 PUSH2 0x1B6B JUMP JUMPDEST PUSH2 0x17F9 PUSH2 0x1FE9 JUMP JUMPDEST PUSH1 0xC DUP6 SWAP1 SSTORE PUSH1 0xD DUP1 SLOAD PUSH2 0xFFFF DUP7 DUP2 AND PUSH2 0xFFFF NOT SWAP3 DUP4 AND DUP2 OR SWAP1 SWAP4 SSTORE PUSH1 0xE DUP7 SWAP1 SSTORE PUSH1 0xF DUP1 SLOAD SWAP2 DUP7 AND SWAP2 SWAP1 SWAP3 AND DUP2 OR SWAP1 SWAP2 SSTORE PUSH1 0x11 DUP4 SWAP1 SSTORE PUSH1 0x40 DUP1 MLOAD DUP9 DUP2 MSTORE PUSH1 0x20 DUP2 ADD SWAP4 SWAP1 SWAP4 MSTORE DUP3 ADD DUP6 SWAP1 MSTORE PUSH1 0x60 DUP3 ADD MSTORE PUSH1 0x80 DUP2 ADD DUP3 SWAP1 MSTORE PUSH32 0xB8DA5F5FA816275FD95C075898A33829C48AE81AC6559B1EFA7EBBB64B4A6056 SWAP1 PUSH1 0xA0 ADD PUSH1 0x40 MLOAD DUP1 SWAP2 SUB SWAP1 LOG1 POP POP POP POP POP JUMP JUMPDEST PUSH2 0x188A PUSH2 0x1A57 JUMP JUMPDEST PUSH2 0x1892 PUSH2 0x1B6B JUMP JUMPDEST PUSH2 0x189A PUSH2 0x21DE JUMP JUMPDEST PUSH1 0xF SLOAD PUSH2 0x18B5 SWAP1 PUSH3 0x10000 SWAP1 DIV PUSH1 0x1 PUSH1 0x1 PUSH1 0xA0 SHL SUB AND PUSH2 0x1ECE JUMP JUMPDEST PUSH2 0x18FD JUMPI PUSH1 0x40 MLOAD PUSH3 0x461BCD PUSH1 0xE5 SHL DUP2 MSTORE PUSH1 0x20 PUSH1 0x4 DUP3 ADD MSTORE PUSH1 0x19 PUSH1 0x24 DUP3 ADD MSTORE PUSH25 0x526566756E642073656C6C20746F6B656E206661696C757265 PUSH1 0x38 SHL PUSH1 0x44 DUP3 ADD MSTORE PUSH1 0x64 ADD PUSH2 0x539 JUMP JUMPDEST PUSH1 0x12 DUP1 SLOAD PUSH1 0x4 SWAP2 SWAP1 PUSH1 0xFF PUSH1 0xA0 SHL NOT AND PUSH1 0x1 PUSH1 0xA0 SHL DUP4 PUSH2 0x5BB JUMP JUMPDEST PUSH2 0x191F PUSH2 0x1A57 JUMP JUMPDEST PUSH1 0x1 PUSH1 0x1 PUSH1 0xA0 SHL SUB DUP2 AND PUSH2 0x1984 JUMPI PUSH1 0x40 MLOAD PUSH3 0x461BCD PUSH1 0xE5 SHL DUP2 MSTORE PUSH1 0x20 PUSH1 0x4 DUP3 ADD MSTORE PUSH1 0x26 PUSH1 0x24 DUP3 ADD MSTORE PUSH32 0x4F776E61626C653A206E6577206F776E657220697320746865207A65726F2061 PUSH1 0x44 DUP3 ADD MSTORE PUSH6 0x646472657373 PUSH1 0xD0 SHL PUSH1 0x64 DUP3 ADD MSTORE PUSH1 0x84 ADD PUSH2 0x539 JUMP JUMPDEST PUSH2 0x198D DUP2 PUSH2 0x1AB1 JUMP JUMPDEST POP JUMP JUMPDEST PUSH1 0x1 PUSH1 0x1 PUSH1 0xA0 SHL SUB DUP2 AND PUSH1 0x0 SWAP1 DUP2 MSTORE PUSH1 0x13 PUSH1 0x20 MSTORE PUSH1 0x40 DUP2 KECCAK256 PUSH1 0x1 ADD SLOAD PUSH1 0xF SLOAD DUP3 SWAP2 DUP3 SWAP2 PUSH2 0x1A24 SWAP2 PUSH2 0x1A03 SWAP2 PUSH2 0x19FD SWAP1 PUSH2 0x2710 SWAP1 PUSH2 0x19D1 SWAP1 PUSH2 0xFFFF AND DUP5 PUSH2 0x2654 JUMP JUMPDEST PUSH2 0x19DB SWAP2 SWAP1 PUSH2 0x2544 JUMP JUMPDEST PUSH1 0x1 PUSH1 0x1 PUSH1 0xA0 SHL SUB DUP10 AND PUSH1 0x0 SWAP1 DUP2 MSTORE PUSH1 0x14 PUSH1 0x20 MSTORE PUSH1 0x40 SWAP1 KECCAK256 PUSH1 0x1 ADD SLOAD SWAP1 PUSH2 0x20D5 JUMP JUMPDEST SWAP1 PUSH2 0x20C9 JUMP JUMPDEST PUSH1 0x1 PUSH1 0x1 PUSH1 0xA0 SHL SUB DUP7 AND PUSH1 0x0 SWAP1 DUP2 MSTORE PUSH1 0x14 PUSH1 0x20 MSTORE PUSH1 0x40 SWAP1 KECCAK256 PUSH1 0x1 ADD SLOAD PUSH2 0x222F JUMP JUMPDEST SWAP1 POP PUSH1 0x0 PUSH2 0x1A35 PUSH1 0x7 SLOAD PUSH1 0x0 PUSH2 0x2245 JUMP JUMPDEST SWAP2 POP POP PUSH2 0x1A4C PUSH1 0x0 PUSH2 0x1A47 DUP5 DUP5 PUSH2 0x222F JUMP JUMPDEST PUSH2 0x2245 JUMP JUMPDEST SWAP4 POP SWAP4 POP POP POP SWAP2 POP SWAP2 JUMP JUMPDEST PUSH1 0x0 SLOAD PUSH1 0x1 PUSH1 0x1 PUSH1 0xA0 SHL SUB AND CALLER EQ PUSH2 0x4B0 JUMPI PUSH1 0x40 MLOAD PUSH3 0x461BCD PUSH1 0xE5 SHL DUP2 MSTORE PUSH1 0x20 PUSH1 0x4 DUP3 ADD DUP2 SWAP1 MSTORE PUSH1 0x24 DUP3 ADD MSTORE PUSH32 0x4F776E61626C653A2063616C6C6572206973206E6F7420746865206F776E6572 PUSH1 0x44 DUP3 ADD MSTORE PUSH1 0x64 ADD PUSH2 0x539 JUMP JUMPDEST PUSH1 0x0 DUP1 SLOAD PUSH1 0x1 PUSH1 0x1 PUSH1 0xA0 SHL SUB DUP4 DUP2 AND PUSH1 0x1 PUSH1 0x1 PUSH1 0xA0 SHL SUB NOT DUP4 AND DUP2 OR DUP5 SSTORE PUSH1 0x40 MLOAD SWAP2 SWAP1 SWAP3 AND SWAP3 DUP4 SWAP2 PUSH32 0x8BE0079C531659141344CD1FD0A4F28419497F9722A3DAAFE3B4186F6B6457E0 SWAP2 SWAP1 LOG3 POP POP JUMP JUMPDEST PUSH1 0x1 PUSH1 0x1 PUSH1 0xA0 SHL SUB DUP2 AND PUSH1 0x0 SWAP1 DUP2 MSTORE PUSH1 0x14 PUSH1 0x20 MSTORE PUSH1 0x40 DUP2 KECCAK256 SLOAD PUSH1 0xE SLOAD DUP3 SWAP2 DUP3 SWAP2 PUSH2 0x1B43 SWAP2 PUSH2 0x1B2F SWAP2 SWAP1 PUSH2 0x20C9 JUMP JUMPDEST PUSH1 0x6 SLOAD PUSH1 0xB SLOAD PUSH2 0x1B3E SWAP2 PUSH2 0x20C9 JUMP JUMPDEST PUSH2 0x222F JUMP JUMPDEST SWAP1 POP PUSH1 0x0 PUSH2 0x1B54 PUSH1 0x0 PUSH1 0x8 SLOAD PUSH2 0x2245 JUMP JUMPDEST POP SWAP1 POP PUSH2 0x1A4C PUSH2 0x1B64 DUP4 DUP4 PUSH2 0x222F JUMP JUMPDEST PUSH1 0x0 PUSH2 0x2245 JUMP JUMPDEST PUSH1 0x4 PUSH1 0x12 SLOAD PUSH1 0x1 PUSH1 0xA0 SHL SWAP1 DIV PUSH1 0xFF AND PUSH1 0x4 DUP2 GT ISZERO PUSH2 0x1B8B JUMPI PUSH2 0x1B8B PUSH2 0x26A0 JUMP JUMPDEST EQ ISZERO PUSH2 0x4B0 JUMPI PUSH1 0x40 MLOAD PUSH3 0x461BCD PUSH1 0xE5 SHL DUP2 MSTORE PUSH1 0x20 PUSH1 0x4 DUP3 ADD MSTORE PUSH1 0x16 PUSH1 0x24 DUP3 ADD MSTORE PUSH22 0x10DC9BDDD9199D5B991A5B99C81A5CC818D85B98D95B PUSH1 0x52 SHL PUSH1 0x44 DUP3 ADD MSTORE PUSH1 0x64 ADD PUSH2 0x539 JUMP JUMPDEST PUSH1 0x11 SLOAD TIMESTAMP GT DUP1 PUSH2 0x1BE6 JUMPI POP PUSH1 0xB SLOAD PUSH1 0x6 SLOAD LT ISZERO JUMPDEST PUSH2 0x1C3D JUMPI PUSH1 0x40 MLOAD PUSH3 0x461BCD PUSH1 0xE5 SHL DUP2 MSTORE PUSH1 0x20 PUSH1 0x4 DUP3 ADD MSTORE PUSH1 0x22 PUSH1 0x24 DUP3 ADD MSTORE PUSH32 0x43726F776466756E64696E6720656E6420636F6E646974696F6E206E6F74206D PUSH1 0x44 DUP3 ADD MSTORE PUSH2 0x195D PUSH1 0xF2 SHL PUSH1 0x64 DUP3 ADD MSTORE PUSH1 0x84 ADD PUSH2 0x539 JUMP JUMPDEST PUSH1 0x3 PUSH1 0x12 SLOAD PUSH1 0x1 PUSH1 0xA0 SHL SWAP1 DIV PUSH1 0xFF AND PUSH1 0x4 DUP2 GT ISZERO PUSH2 0x1C5D JUMPI PUSH2 0x1C5D PUSH2 0x26A0 JUMP JUMPDEST EQ ISZERO PUSH2 0x4B0 JUMPI PUSH1 0x40 MLOAD PUSH3 0x461BCD PUSH1 0xE5 SHL DUP2 MSTORE PUSH1 0x20 PUSH1 0x4 DUP3 ADD MSTORE PUSH1 0x1C PUSH1 0x24 DUP3 ADD MSTORE PUSH32 0x43726F776466756E64696E672073746174757320697320656E64656400000000 PUSH1 0x44 DUP3 ADD MSTORE PUSH1 0x64 ADD PUSH2 0x539 JUMP JUMPDEST PUSH1 0xA SLOAD PUSH1 0x0 SWAP1 PUSH1 0x1 SWAP1 PUSH1 0x1 PUSH1 0xB0 SHL SWAP1 DIV PUSH1 0xFF AND ISZERO PUSH2 0x1D33 JUMPI PUSH1 0x12 SLOAD PUSH1 0x1 PUSH1 0x1 PUSH1 0xA0 SHL SUB AND BALANCE ISZERO PUSH2 0x1D2E JUMPI PUSH1 0x12 SLOAD PUSH1 0x40 MLOAD PUSH1 0x1 PUSH1 0x1 PUSH1 0xA0 SHL SUB DUP6 DUP2 AND SWAP3 AND BALANCE SWAP1 PUSH1 0x0 DUP2 DUP2 DUP2 DUP6 DUP8 GAS CALL SWAP3 POP POP POP RETURNDATASIZE DUP1 PUSH1 0x0 DUP2 EQ PUSH2 0x1D23 JUMPI PUSH1 0x40 MLOAD SWAP2 POP PUSH1 0x1F NOT PUSH1 0x3F RETURNDATASIZE ADD AND DUP3 ADD PUSH1 0x40 MSTORE RETURNDATASIZE DUP3 MSTORE RETURNDATASIZE PUSH1 0x0 PUSH1 0x20 DUP5 ADD RETURNDATACOPY PUSH2 0x1D28 JUMP JUMPDEST PUSH1 0x60 SWAP2 POP JUMPDEST POP SWAP1 SWAP2 POP POP JUMPDEST PUSH2 0x1EC8 JUMP JUMPDEST PUSH1 0x2 SLOAD PUSH1 0x12 SLOAD PUSH1 0x40 MLOAD PUSH4 0x70A08231 PUSH1 0xE0 SHL DUP2 MSTORE PUSH1 0x1 PUSH1 0x1 PUSH1 0xA0 SHL SUB SWAP2 DUP3 AND PUSH1 0x4 DUP3 ADD MSTORE PUSH1 0x0 SWAP3 SWAP2 SWAP1 SWAP2 AND SWAP1 PUSH4 0x70A08231 SWAP1 PUSH1 0x24 ADD PUSH1 0x20 PUSH1 0x40 MLOAD DUP1 DUP4 SUB DUP2 DUP7 DUP1 EXTCODESIZE ISZERO DUP1 ISZERO PUSH2 0x1D7F JUMPI PUSH1 0x0 DUP1 REVERT JUMPDEST POP GAS STATICCALL ISZERO DUP1 ISZERO PUSH2 0x1D93 JUMPI RETURNDATASIZE PUSH1 0x0 DUP1 RETURNDATACOPY RETURNDATASIZE PUSH1 0x0 REVERT JUMPDEST POP POP POP POP PUSH1 0x40 MLOAD RETURNDATASIZE PUSH1 0x1F NOT PUSH1 0x1F DUP3 ADD AND DUP3 ADD DUP1 PUSH1 0x40 MSTORE POP DUP2 ADD SWAP1 PUSH2 0x1DB7 SWAP2 SWAP1 PUSH2 0x233F JUMP JUMPDEST GT ISZERO PUSH2 0x1EC8 JUMPI PUSH1 0x2 SLOAD PUSH1 0x12 SLOAD PUSH1 0x40 MLOAD PUSH4 0x70A08231 PUSH1 0xE0 SHL DUP2 MSTORE PUSH1 0x1 PUSH1 0x1 PUSH1 0xA0 SHL SUB SWAP2 DUP3 AND PUSH1 0x4 DUP3 ADD MSTORE SWAP2 AND SWAP1 PUSH4 0xA9059CBB SWAP1 DUP6 SWAP1 DUP4 SWAP1 PUSH4 0x70A08231 SWAP1 PUSH1 0x24 ADD JUMPDEST PUSH1 0x20 PUSH1 0x40 MLOAD DUP1 DUP4 SUB DUP2 DUP7 DUP1 EXTCODESIZE ISZERO DUP1 ISZERO PUSH2 0x1E0F JUMPI PUSH1 0x0 DUP1 REVERT JUMPDEST POP GAS STATICCALL ISZERO DUP1 ISZERO PUSH2 0x1E23 JUMPI RETURNDATASIZE PUSH1 0x0 DUP1 RETURNDATACOPY RETURNDATASIZE PUSH1 0x0 REVERT JUMPDEST POP POP POP POP PUSH1 0x40 MLOAD RETURNDATASIZE PUSH1 0x1F NOT PUSH1 0x1F DUP3 ADD AND DUP3 ADD DUP1 PUSH1 0x40 MSTORE POP DUP2 ADD SWAP1 PUSH2 0x1E47 SWAP2 SWAP1 PUSH2 0x233F JUMP JUMPDEST PUSH1 0x40 MLOAD PUSH1 0x1 PUSH1 0x1 PUSH1 0xE0 SHL SUB NOT PUSH1 0xE0 DUP6 SWAP1 SHL AND DUP2 MSTORE PUSH1 0x1 PUSH1 0x1 PUSH1 0xA0 SHL SUB SWAP1 SWAP3 AND PUSH1 0x4 DUP4 ADD MSTORE PUSH1 0x24 DUP3 ADD MSTORE PUSH1 0x44 ADD PUSH1 0x20 PUSH1 0x40 MLOAD DUP1 DUP4 SUB DUP2 PUSH1 0x0 DUP8 DUP1 EXTCODESIZE ISZERO DUP1 ISZERO PUSH2 0x1E8D JUMPI PUSH1 0x0 DUP1 REVERT JUMPDEST POP GAS CALL ISZERO DUP1 ISZERO PUSH2 0x1EA1 JUMPI RETURNDATASIZE PUSH1 0x0 DUP1 RETURNDATACOPY RETURNDATASIZE PUSH1 0x0 REVERT JUMPDEST POP POP POP POP PUSH1 0x40 MLOAD RETURNDATASIZE PUSH1 0x1F NOT PUSH1 0x1F DUP3 ADD AND DUP3 ADD DUP1 PUSH1 0x40 MSTORE POP DUP2 ADD SWAP1 PUSH2 0x1EC5 SWAP2 SWAP1 PUSH2 0x231D JUMP JUMPDEST SWAP1 POP JUMPDEST SWAP3 SWAP2 POP POP JUMP JUMPDEST PUSH1 0x1 DUP1 SLOAD PUSH1 0x12 SLOAD PUSH1 0x40 MLOAD PUSH4 0x70A08231 PUSH1 0xE0 SHL DUP2 MSTORE PUSH1 0x1 PUSH1 0x1 PUSH1 0xA0 SHL SUB SWAP2 DUP3 AND PUSH1 0x4 DUP3 ADD MSTORE PUSH1 0x0 SWAP4 SWAP3 DUP5 SWAP3 AND SWAP1 PUSH4 0x70A08231 SWAP1 PUSH1 0x24 ADD PUSH1 0x20 PUSH1 0x40 MLOAD DUP1 DUP4 SUB DUP2 DUP7 DUP1 EXTCODESIZE ISZERO DUP1 ISZERO PUSH2 0x1F1B JUMPI PUSH1 0x0 DUP1 REVERT JUMPDEST POP GAS STATICCALL ISZERO DUP1 ISZERO PUSH2 0x1F2F JUMPI RETURNDATASIZE PUSH1 0x0 DUP1 RETURNDATACOPY RETURNDATASIZE PUSH1 0x0 REVERT JUMPDEST POP POP POP POP PUSH1 0x40 MLOAD RETURNDATASIZE PUSH1 0x1F NOT PUSH1 0x1F DUP3 ADD AND DUP3 ADD DUP1 PUSH1 0x40 MSTORE POP DUP2 ADD SWAP1 PUSH2 0x1F53 SWAP2 SWAP1 PUSH2 0x233F JUMP JUMPDEST GT ISZERO PUSH2 0x1EC8 JUMPI PUSH1 0x1 SLOAD PUSH1 0x12 SLOAD PUSH1 0x40 MLOAD PUSH4 0x70A08231 PUSH1 0xE0 SHL DUP2 MSTORE PUSH1 0x1 PUSH1 0x1 PUSH1 0xA0 SHL SUB SWAP2 DUP3 AND PUSH1 0x4 DUP3 ADD MSTORE SWAP2 AND SWAP1 PUSH4 0xA9059CBB SWAP1 DUP6 SWAP1 DUP4 SWAP1 PUSH4 0x70A08231 SWAP1 PUSH1 0x24 ADD PUSH2 0x1DF7 JUMP JUMPDEST PUSH1 0x10 SLOAD TIMESTAMP LT ISZERO PUSH2 0x1FE9 JUMPI PUSH1 0x40 MLOAD PUSH3 0x461BCD PUSH1 0xE5 SHL DUP2 MSTORE PUSH1 0x20 PUSH1 0x4 DUP3 ADD MSTORE PUSH1 0x18 PUSH1 0x24 DUP3 ADD MSTORE PUSH32 0x43726F776466756E64696E67206E6F7420737461727465640000000000000000 PUSH1 0x44 DUP3 ADD MSTORE PUSH1 0x64 ADD PUSH2 0x539 JUMP JUMPDEST PUSH1 0x11 SLOAD TIMESTAMP GT ISZERO PUSH2 0x4B0 JUMPI PUSH1 0x40 MLOAD PUSH3 0x461BCD PUSH1 0xE5 SHL DUP2 MSTORE PUSH1 0x20 PUSH1 0x4 DUP3 ADD MSTORE PUSH1 0x16 PUSH1 0x24 DUP3 ADD MSTORE PUSH22 0x10DC9BDDD9199D5B991A5B99C81A185CC8195B991959 PUSH1 0x52 SHL PUSH1 0x44 DUP3 ADD MSTORE PUSH1 0x64 ADD PUSH2 0x539 JUMP JUMPDEST PUSH1 0x0 DUP1 PUSH2 0x2042 DUP5 PUSH1 0x0 PUSH2 0x2245 JUMP JUMPDEST SWAP2 POP POP PUSH1 0x0 PUSH2 0x2052 PUSH1 0x0 DUP6 PUSH2 0x2245 JUMP JUMPDEST POP SWAP1 POP DUP5 DUP2 EQ DUP1 PUSH2 0x2062 JUMPI POP DUP4 DUP3 EQ JUMPDEST ISZERO PUSH2 0x2072 JUMPI PUSH1 0x1 SWAP3 POP POP POP PUSH2 0x1EC8 JUMP JUMPDEST POP PUSH1 0x0 SWAP5 SWAP4 POP POP POP POP JUMP JUMPDEST PUSH1 0x0 DUP1 PUSH2 0x2089 DUP5 PUSH2 0x1B01 JUMP JUMPDEST POP SWAP1 POP DUP1 DUP4 GT PUSH2 0x209D JUMPI PUSH1 0x1 SWAP2 POP POP PUSH2 0x1EC8 JUMP JUMPDEST PUSH1 0x0 SWAP2 POP POP PUSH2 0x1EC8 JUMP JUMPDEST PUSH1 0xD SLOAD PUSH1 0x0 SWAP1 PUSH2 0x2710 SWAP1 PUSH2 0x20BF SWAP1 PUSH2 0xFFFF AND DUP5 PUSH2 0x2654 JUMP JUMPDEST PUSH2 0x1EC8 SWAP2 SWAP1 PUSH2 0x2544 JUMP JUMPDEST PUSH1 0x0 PUSH2 0x1EC5 DUP3 DUP5 PUSH2 0x2673 JUMP JUMPDEST PUSH1 0x0 PUSH2 0x1EC5 DUP3 DUP5 PUSH2 0x252C JUMP JUMPDEST PUSH1 0x0 DUP1 PUSH2 0x20ED DUP5 PUSH2 0x1990 JUMP JUMPDEST SWAP2 POP POP DUP1 DUP4 GT PUSH2 0x209D JUMPI PUSH1 0x1 SWAP2 POP POP PUSH2 0x1EC8 JUMP JUMPDEST PUSH1 0xD SLOAD PUSH1 0x0 SWAP1 PUSH2 0x1EC8 SWAP1 PUSH2 0x2710 SWAP1 PUSH2 0x2123 SWAP1 PUSH3 0x10000 SWAP1 DIV PUSH2 0xFFFF AND DUP6 PUSH2 0x2654 JUMP JUMPDEST PUSH2 0x212D SWAP2 SWAP1 PUSH2 0x2544 JUMP JUMPDEST DUP4 SWAP1 PUSH2 0x20C9 JUMP JUMPDEST PUSH1 0xA SLOAD PUSH1 0x0 SWAP1 PUSH1 0x1 PUSH1 0xB0 SHL SWAP1 DIV PUSH1 0xFF AND ISZERO PUSH2 0x215A JUMPI POP PUSH1 0x12 SLOAD PUSH1 0x1 PUSH1 0x1 PUSH1 0xA0 SHL SUB AND BALANCE SWAP1 JUMP JUMPDEST PUSH1 0x2 SLOAD PUSH1 0x12 SLOAD PUSH1 0x40 MLOAD PUSH4 0x70A08231 PUSH1 0xE0 SHL DUP2 MSTORE PUSH1 0x1 PUSH1 0x1 PUSH1 0xA0 SHL SUB SWAP2 DUP3 AND PUSH1 0x4 DUP3 ADD MSTORE SWAP2 AND SWAP1 PUSH4 0x70A08231 SWAP1 PUSH1 0x24 ADD PUSH1 0x20 PUSH1 0x40 MLOAD DUP1 DUP4 SUB DUP2 DUP7 DUP1 EXTCODESIZE ISZERO DUP1 ISZERO PUSH2 0x21A1 JUMPI PUSH1 0x0 DUP1 REVERT JUMPDEST POP GAS STATICCALL ISZERO DUP1 ISZERO PUSH2 0x21B5 JUMPI RETURNDATASIZE PUSH1 0x0 DUP1 RETURNDATACOPY RETURNDATASIZE PUSH1 0x0 REVERT JUMPDEST POP POP POP POP PUSH1 0x40 MLOAD RETURNDATASIZE PUSH1 0x1F NOT PUSH1 0x1F DUP3 ADD AND DUP3 ADD DUP1 PUSH1 0x40 MSTORE POP DUP2 ADD SWAP1 PUSH2 0x21D9 SWAP2 SWAP1 PUSH2 0x233F JUMP JUMPDEST SWAP1 POP SWAP1 JUMP JUMPDEST PUSH1 0x10 SLOAD TIMESTAMP LT PUSH2 0x4B0 JUMPI PUSH1 0x40 MLOAD PUSH3 0x461BCD PUSH1 0xE5 SHL DUP2 MSTORE PUSH1 0x20 PUSH1 0x4 DUP3 ADD MSTORE PUSH1 0x18 PUSH1 0x24 DUP3 ADD MSTORE PUSH32 0x43726F776466756E64696E672068617320737461727465640000000000000000 PUSH1 0x44 DUP3 ADD MSTORE PUSH1 0x64 ADD PUSH2 0x539 JUMP JUMPDEST PUSH1 0x0 DUP2 DUP4 LT PUSH2 0x223E JUMPI DUP2 PUSH2 0x1EC5 JUMP JUMPDEST POP SWAP1 SWAP2 SWAP1 POP JUMP JUMPDEST PUSH1 0x0 DUP1 DUP4 ISZERO PUSH2 0x2288 JUMPI PUSH1 0xA DUP1 SLOAD DUP6 SWAP2 PUSH2 0x2268 SWAP2 PUSH1 0x1 PUSH1 0xA8 SHL SWAP1 DIV PUSH1 0xFF AND SWAP1 PUSH2 0x25A9 JUMP JUMPDEST PUSH1 0xC SLOAD PUSH2 0x2275 SWAP1 DUP8 PUSH2 0x2654 JUMP JUMPDEST PUSH2 0x227F SWAP2 SWAP1 PUSH2 0x2544 JUMP JUMPDEST SWAP2 POP SWAP2 POP PUSH2 0x22CF JUMP JUMPDEST DUP3 ISZERO PUSH2 0x22C8 JUMPI PUSH1 0xC SLOAD PUSH1 0xA DUP1 SLOAD PUSH2 0x22AA SWAP2 PUSH1 0x1 PUSH1 0xA8 SHL SWAP1 SWAP2 DIV PUSH1 0xFF AND SWAP1 PUSH2 0x25A9 JUMP JUMPDEST PUSH2 0x22B4 SWAP1 DUP6 PUSH2 0x2654 JUMP JUMPDEST PUSH2 0x22BE SWAP2 SWAP1 PUSH2 0x2544 JUMP JUMPDEST DUP4 SWAP2 POP SWAP2 POP PUSH2 0x22CF JUMP JUMPDEST POP PUSH1 0x0 SWAP1 POP DUP1 JUMPDEST SWAP3 POP SWAP3 SWAP1 POP JUMP JUMPDEST DUP1 CALLDATALOAD PUSH2 0xFFFF DUP2 AND DUP2 EQ PUSH2 0x22E8 JUMPI PUSH1 0x0 DUP1 REVERT JUMPDEST SWAP2 SWAP1 POP JUMP JUMPDEST PUSH1 0x0 PUSH1 0x20 DUP3 DUP5 SUB SLT ISZERO PUSH2 0x22FF JUMPI PUSH1 0x0 DUP1 REVERT JUMPDEST DUP2 CALLDATALOAD PUSH1 0x1 PUSH1 0x1 PUSH1 0xA0 SHL SUB DUP2 AND DUP2 EQ PUSH2 0x2316 JUMPI PUSH1 0x0 DUP1 REVERT JUMPDEST SWAP4 SWAP3 POP POP POP JUMP JUMPDEST PUSH1 0x0 PUSH1 0x20 DUP3 DUP5 SUB SLT ISZERO PUSH2 0x232F JUMPI PUSH1 0x0 DUP1 REVERT JUMPDEST DUP2 MLOAD DUP1 ISZERO ISZERO DUP2 EQ PUSH2 0x2316 JUMPI PUSH1 0x0 DUP1 REVERT JUMPDEST PUSH1 0x0 PUSH1 0x20 DUP3 DUP5 SUB SLT ISZERO PUSH2 0x2351 JUMPI PUSH1 0x0 DUP1 REVERT JUMPDEST POP MLOAD SWAP2 SWAP1 POP JUMP JUMPDEST PUSH1 0x0 DUP1 PUSH1 0x0 DUP1 PUSH1 0x0 PUSH1 0xA0 DUP7 DUP9 SUB SLT ISZERO PUSH2 0x2370 JUMPI PUSH1 0x0 DUP1 REVERT JUMPDEST DUP6 CALLDATALOAD SWAP5 POP PUSH2 0x2380 PUSH1 0x20 DUP8 ADD PUSH2 0x22D6 JUMP JUMPDEST SWAP4 POP PUSH1 0x40 DUP7 ADD CALLDATALOAD SWAP3 POP PUSH2 0x2395 PUSH1 0x60 DUP8 ADD PUSH2 0x22D6 JUMP JUMPDEST SWAP5 SWAP8 SWAP4 SWAP7 POP SWAP2 SWAP5 PUSH1 0x80 ADD CALLDATALOAD SWAP3 SWAP2 POP POP JUMP JUMPDEST PUSH1 0x0 DUP1 PUSH1 0x40 DUP4 DUP6 SUB SLT ISZERO PUSH2 0x23B9 JUMPI PUSH1 0x0 DUP1 REVERT JUMPDEST POP POP DUP1 CALLDATALOAD SWAP3 PUSH1 0x20 SWAP1 SWAP2 ADD CALLDATALOAD SWAP2 POP JUMP JUMPDEST DUP2 MLOAD PUSH1 0x1 PUSH1 0x1 PUSH1 0xA0 SHL SUB AND DUP2 MSTORE PUSH2 0x1C0 DUP2 ADD PUSH1 0x20 DUP4 ADD MLOAD PUSH2 0x23F4 PUSH1 0x20 DUP5 ADD DUP3 PUSH1 0x1 PUSH1 0x1 PUSH1 0xA0 SHL SUB AND SWAP1 MSTORE JUMP JUMPDEST POP PUSH1 0x40 DUP4 ADD MLOAD PUSH2 0x2409 PUSH1 0x40 DUP5 ADD DUP3 PUSH1 0xFF AND SWAP1 MSTORE JUMP JUMPDEST POP PUSH1 0x60 DUP4 ADD MLOAD PUSH2 0x241E PUSH1 0x60 DUP5 ADD DUP3 PUSH1 0xFF AND SWAP1 MSTORE JUMP JUMPDEST POP PUSH1 0x80 DUP4 ADD MLOAD PUSH2 0x2432 PUSH1 0x80 DUP5 ADD DUP3 ISZERO ISZERO SWAP1 MSTORE JUMP JUMPDEST POP PUSH1 0xA0 DUP4 ADD MLOAD PUSH1 0xA0 DUP4 ADD MSTORE PUSH1 0xC0 DUP4 ADD MLOAD PUSH1 0xC0 DUP4 ADD MSTORE PUSH1 0xE0 DUP4 ADD MLOAD PUSH2 0x245C PUSH1 0xE0 DUP5 ADD DUP3 PUSH2 0xFFFF AND SWAP1 MSTORE JUMP JUMPDEST POP PUSH2 0x100 DUP4 DUP2 ADD MLOAD PUSH2 0xFFFF SWAP1 DUP2 AND SWAP2 DUP5 ADD SWAP2 SWAP1 SWAP2 MSTORE PUSH2 0x120 DUP1 DUP6 ADD MLOAD SWAP1 DUP5 ADD MSTORE PUSH2 0x140 DUP1 DUP6 ADD MLOAD SWAP1 SWAP2 AND SWAP1 DUP4 ADD MSTORE PUSH2 0x160 DUP1 DUP5 ADD MLOAD PUSH1 0x1 PUSH1 0x1 PUSH1 0xA0 SHL SUB AND SWAP1 DUP4 ADD MSTORE PUSH2 0x180 DUP1 DUP5 ADD MLOAD SWAP1 DUP4 ADD MSTORE PUSH2 0x1A0 SWAP3 DUP4 ADD MLOAD SWAP3 SWAP1 SWAP2 ADD SWAP2 SWAP1 SWAP2 MSTORE SWAP1 JUMP JUMPDEST PUSH1 0x0 PUSH2 0x140 DUP3 ADD SWAP1 POP DUP12 DUP3 MSTORE DUP11 PUSH1 0x20 DUP4 ADD MSTORE DUP10 PUSH1 0x40 DUP4 ADD MSTORE DUP9 PUSH1 0x60 DUP4 ADD MSTORE DUP8 PUSH1 0x80 DUP4 ADD MSTORE DUP7 PUSH1 0xA0 DUP4 ADD MSTORE DUP6 PUSH1 0xC0 DUP4 ADD MSTORE DUP5 PUSH1 0xE0 DUP4 ADD MSTORE DUP4 PUSH2 0x100 DUP4 ADD MSTORE PUSH1 0x5 DUP4 LT PUSH2 0x2516 JUMPI PUSH4 0x4E487B71 PUSH1 0xE0 SHL PUSH1 0x0 MSTORE PUSH1 0x21 PUSH1 0x4 MSTORE PUSH1 0x24 PUSH1 0x0 REVERT JUMPDEST DUP3 PUSH2 0x120 DUP4 ADD MSTORE SWAP12 SWAP11 POP POP POP POP POP POP POP POP POP POP POP JUMP JUMPDEST PUSH1 0x0 DUP3 NOT DUP3 GT ISZERO PUSH2 0x253F JUMPI PUSH2 0x253F PUSH2 0x268A JUMP JUMPDEST POP ADD SWAP1 JUMP JUMPDEST PUSH1 0x0 DUP3 PUSH2 0x2561 JUMPI PUSH4 0x4E487B71 PUSH1 0xE0 SHL PUSH1 0x0 MSTORE PUSH1 0x12 PUSH1 0x4 MSTORE PUSH1 0x24 PUSH1 0x0 REVERT JUMPDEST POP DIV SWAP1 JUMP JUMPDEST PUSH1 0x1 DUP2 DUP2 JUMPDEST DUP1 DUP6 GT ISZERO PUSH2 0x25A1 JUMPI DUP2 PUSH1 0x0 NOT DIV DUP3 GT ISZERO PUSH2 0x2587 JUMPI PUSH2 0x2587 PUSH2 0x268A JUMP JUMPDEST DUP1 DUP6 AND ISZERO PUSH2 0x2594 JUMPI SWAP2 DUP2 MUL SWAP2 JUMPDEST SWAP4 DUP5 SHR SWAP4 SWAP1 DUP1 MUL SWAP1 PUSH2 0x256B JUMP JUMPDEST POP SWAP3 POP SWAP3 SWAP1 POP JUMP JUMPDEST PUSH1 0x0 PUSH2 0x1EC5 PUSH1 0xFF DUP5 AND DUP4 PUSH1 0x0 DUP3 PUSH2 0x25C2 JUMPI POP PUSH1 0x1 PUSH2 0x1EC8 JUMP JUMPDEST DUP2 PUSH2 0x25CF JUMPI POP PUSH1 0x0 PUSH2 0x1EC8 JUMP JUMPDEST DUP2 PUSH1 0x1 DUP2 EQ PUSH2 0x25E5 JUMPI PUSH1 0x2 DUP2 EQ PUSH2 0x25EF JUMPI PUSH2 0x260B JUMP JUMPDEST PUSH1 0x1 SWAP2 POP POP PUSH2 0x1EC8 JUMP JUMPDEST PUSH1 0xFF DUP5 GT ISZERO PUSH2 0x2600 JUMPI PUSH2 0x2600 PUSH2 0x268A JUMP JUMPDEST POP POP PUSH1 0x1 DUP3 SHL PUSH2 0x1EC8 JUMP JUMPDEST POP PUSH1 0x20 DUP4 LT PUSH2 0x133 DUP4 LT AND PUSH1 0x4E DUP5 LT PUSH1 0xB DUP5 LT AND OR ISZERO PUSH2 0x262E JUMPI POP DUP2 DUP2 EXP PUSH2 0x1EC8 JUMP JUMPDEST PUSH2 0x2638 DUP4 DUP4 PUSH2 0x2566 JUMP JUMPDEST DUP1 PUSH1 0x0 NOT DIV DUP3 GT ISZERO PUSH2 0x264C JUMPI PUSH2 0x264C PUSH2 0x268A JUMP JUMPDEST MUL SWAP4 SWAP3 POP POP POP JUMP JUMPDEST PUSH1 0x0 DUP2 PUSH1 0x0 NOT DIV DUP4 GT DUP3 ISZERO ISZERO AND ISZERO PUSH2 0x266E JUMPI PUSH2 0x266E PUSH2 0x268A JUMP JUMPDEST POP MUL SWAP1 JUMP JUMPDEST PUSH1 0x0 DUP3 DUP3 LT ISZERO PUSH2 0x2685 JUMPI PUSH2 0x2685 PUSH2 0x268A JUMP JUMPDEST POP SUB SWAP1 JUMP JUMPDEST PUSH4 0x4E487B71 PUSH1 0xE0 SHL PUSH1 0x0 MSTORE PUSH1 0x11 PUSH1 0x4 MSTORE PUSH1 0x24 PUSH1 0x0 REVERT JUMPDEST PUSH4 0x4E487B71 PUSH1 0xE0 SHL PUSH1 0x0 MSTORE PUSH1 0x21 PUSH1 0x4 MSTORE PUSH1 0x24 PUSH1 0x0 REVERT INVALID LOG2 PUSH5 0x6970667358 0x22 SLT KECCAK256 0xFC EXTCODECOPY 0x2B ADDMOD DUP4 PUSH27 0x976C97B41F109E812357DDCF403D995BB2CCCE5ABBE8E51C440064 PUSH20 0x6F6C634300080700330000000000000000000000 "
		},
		"gasEstimates": {
			"creation": {
				"codeDepositCost": "1992800",
				"executionCost": "infinite",
				"totalCost": "infinite"
			},
			"external": {
				"account()": "6610",
				"buy(uint256,uint256)": "infinite",
				"buyTokenIsNative()": "2323",
				"cancel()": "infinite",
				"deposit()": "2347",
				"maxBuyAmount()": "infinite",
				"maxSellAmount()": "infinite",
				"owner()": "2390",
				"parameters()": "20517",
				"remove()": "infinite",
				"renounceOwnership()": "infinite",
				"sell(uint256,uint256)": "infinite",
				"state()": "infinite",
				"transferOwnership(address)": "28386",
				"updateParas(uint256,uint16,uint256,uint16,uint256)": "infinite"
			},
			"internal": {
				"_amountAfterTax(uint256)": "infinite",
				"_buyBalance()": "infinite",
				"_calculateDeposit()": "infinite",
				"_checkActive()": "infinite",
				"_checkBeforeEnd()": "infinite",
				"_checkBeforeStart()": "infinite",
				"_checkCanOver()": "infinite",
				"_checkInTime()": "infinite",
				"_checkMaxBuyAmount(address,uint256)": "infinite",
				"_checkMaxSellAmount(address,uint256)": "infinite",
				"_checkPrice(uint256,uint256)": "infinite",
				"_getBuyMaxAmount(address)": "infinite",
				"_getSellMaxAmount(address)": "infinite",
				"_refundBuyToken(address payable)": "infinite",
				"_refundSellToken(address payable)": "infinite",
				"_statusFromTime()": "infinite",
				"_swapAmount(uint256,uint256)": "infinite",
				"_swapPrice()": "infinite",
				"_toSwapPoolAmount(uint256)": "2292"
			}
		},
		"methodIdentifiers": {
			"account()": "5dab2420",
			"buy(uint256,uint256)": "d6febde8",
			"buyTokenIsNative()": "3bf3e18e",
			"cancel()": "ea8a1af0",
			"deposit()": "d0e30db0",
			"maxBuyAmount()": "88e765ff",
			"maxSellAmount()": "66d602ae",
			"owner()": "8da5cb5b",
			"parameters()": "89035730",
			"remove()": "a7f43779",
			"renounceOwnership()": "715018a6",
			"sell(uint256,uint256)": "d79875eb",
			"state()": "c19d93fb",
			"transferOwnership(address)": "f2fde38b",
			"updateParas(uint256,uint16,uint256,uint16,uint256)": "dadd8c18"
		}
	},
	"abi": [
		{
			"inputs": [
				{
					"internalType": "address",
					"name": "_factory",
					"type": "address"
				},
				{
					"internalType": "address",
					"name": "_founder",
					"type": "address"
				},
				{
					"components": [
						{
							"internalType": "address",
							"name": "sellTokenAddress",
							"type": "address"
						},
						{
							"internalType": "address",
							"name": "buyTokenAddress",
							"type": "address"
						},
						{
							"internalType": "uint8",
							"name": "sellTokenDecimals",
							"type": "uint8"
						},
						{
							"internalType": "uint8",
							"name": "buyTokenDecimals",
							"type": "uint8"
						},
						{
							"internalType": "bool",
							"name": "buyTokenIsNative",
							"type": "bool"
						},
						{
							"internalType": "uint256",
							"name": "raiseTotal",
							"type": "uint256"
						},
						{
							"internalType": "uint256",
							"name": "buyPrice",
							"type": "uint256"
						},
						{
							"internalType": "uint16",
							"name": "swapPercent",
							"type": "uint16"
						},
						{
							"internalType": "uint16",
							"name": "sellTax",
							"type": "uint16"
						},
						{
							"internalType": "uint256",
							"name": "maxBuyAmount",
							"type": "uint256"
						},
						{
							"internalType": "uint16",
							"name": "maxSellPercent",
							"type": "uint16"
						},
						{
							"internalType": "address",
							"name": "teamWallet",
							"type": "address"
						},
						{
							"internalType": "uint256",
							"name": "startTime",
							"type": "uint256"
						},
						{
							"internalType": "uint256",
							"name": "endTime",
							"type": "uint256"
						}
					],
					"internalType": "struct Parameters",
					"name": "_parameters",
					"type": "tuple"
				}
			],
			"stateMutability": "nonpayable",
			"type": "constructor"
		},
		{
			"anonymous": false,
			"inputs": [
				{
					"indexed": false,
					"internalType": "address",
					"name": "caller",
					"type": "address"
				},
				{
					"indexed": false,
					"internalType": "uint256",
					"name": "buyAmount",
					"type": "uint256"
				},
				{
					"indexed": false,
					"internalType": "uint256",
					"name": "sellAmount",
					"type": "uint256"
				}
			],
			"name": "Buy",
			"type": "event"
		},
		{
			"anonymous": false,
			"inputs": [
				{
					"indexed": false,
					"internalType": "address",
					"name": "owner",
					"type": "address"
				},
				{
					"indexed": false,
					"internalType": "address",
					"name": "factory",
					"type": "address"
				},
				{
					"indexed": false,
					"internalType": "address",
					"name": "founder",
					"type": "address"
				},
				{
					"indexed": false,
					"internalType": "uint256",
					"name": "deposit",
					"type": "uint256"
				},
				{
					"components": [
						{
							"internalType": "address",
							"name": "sellTokenAddress",
							"type": "address"
						},
						{
							"internalType": "address",
							"name": "buyTokenAddress",
							"type": "address"
						},
						{
							"internalType": "uint8",
							"name": "sellTokenDecimals",
							"type": "uint8"
						},
						{
							"internalType": "uint8",
							"name": "buyTokenDecimals",
							"type": "uint8"
						},
						{
							"internalType": "bool",
							"name": "buyTokenIsNative",
							"type": "bool"
						},
						{
							"internalType": "uint256",
							"name": "raiseTotal",
							"type": "uint256"
						},
						{
							"internalType": "uint256",
							"name": "buyPrice",
							"type": "uint256"
						},
						{
							"internalType": "uint16",
							"name": "swapPercent",
							"type": "uint16"
						},
						{
							"internalType": "uint16",
							"name": "sellTax",
							"type": "uint16"
						},
						{
							"internalType": "uint256",
							"name": "maxBuyAmount",
							"type": "uint256"
						},
						{
							"internalType": "uint16",
							"name": "maxSellPercent",
							"type": "uint16"
						},
						{
							"internalType": "address",
							"name": "teamWallet",
							"type": "address"
						},
						{
							"internalType": "uint256",
							"name": "startTime",
							"type": "uint256"
						},
						{
							"internalType": "uint256",
							"name": "endTime",
							"type": "uint256"
						}
					],
					"indexed": false,
					"internalType": "struct Parameters",
					"name": "paras",
					"type": "tuple"
				}
			],
			"name": "Created",
			"type": "event"
		},
		{
			"anonymous": false,
			"inputs": [
				{
					"indexed": true,
					"internalType": "address",
					"name": "previousOwner",
					"type": "address"
				},
				{
					"indexed": true,
					"internalType": "address",
					"name": "newOwner",
					"type": "address"
				}
			],
			"name": "OwnershipTransferred",
			"type": "event"
		},
		{
			"anonymous": false,
			"inputs": [
				{
					"indexed": false,
					"internalType": "address",
					"name": "sender",
					"type": "address"
				},
				{
					"indexed": false,
					"internalType": "string",
					"name": "func",
					"type": "string"
				}
			],
			"name": "Receive",
			"type": "event"
		},
		{
			"anonymous": false,
			"inputs": [
				{
					"indexed": false,
					"internalType": "address",
					"name": "caller",
					"type": "address"
				},
				{
					"indexed": false,
					"internalType": "uint256",
					"name": "buyAmount",
					"type": "uint256"
				},
				{
					"indexed": false,
					"internalType": "uint256",
					"name": "sellAmount",
					"type": "uint256"
				}
			],
			"name": "Sell",
			"type": "event"
		},
		{
			"anonymous": false,
			"inputs": [
				{
					"indexed": false,
					"internalType": "uint256",
					"name": "buyPrice",
					"type": "uint256"
				},
				{
					"indexed": false,
					"internalType": "uint16",
					"name": "swapPercent",
					"type": "uint16"
				},
				{
					"indexed": false,
					"internalType": "uint256",
					"name": "maxBuyAmount",
					"type": "uint256"
				},
				{
					"indexed": false,
					"internalType": "uint16",
					"name": "maxSellPercent",
					"type": "uint16"
				},
				{
					"indexed": false,
					"internalType": "uint256",
					"name": "endTime",
					"type": "uint256"
				}
			],
			"name": "UpdateParas",
			"type": "event"
		},
		{
			"inputs": [],
			"name": "account",
			"outputs": [
				{
					"internalType": "address",
					"name": "_owner",
					"type": "address"
				},
				{
					"internalType": "address",
					"name": "_factory",
					"type": "address"
				},
				{
					"internalType": "address",
					"name": "_founder",
					"type": "address"
				}
			],
			"stateMutability": "view",
			"type": "function"
		},
		{
			"inputs": [
				{
					"internalType": "uint256",
					"name": "_buyAmount",
					"type": "uint256"
				},
				{
					"internalType": "uint256",
					"name": "_sellAmount",
					"type": "uint256"
				}
			],
			"name": "buy",
			"outputs": [
				{
					"internalType": "bool",
					"name": "",
					"type": "bool"
				}
			],
			"stateMutability": "payable",
			"type": "function"
		},
		{
			"inputs": [],
			"name": "buyTokenIsNative",
			"outputs": [
				{
					"internalType": "bool",
					"name": "isNative",
					"type": "bool"
				}
			],
			"stateMutability": "view",
			"type": "function"
		},
		{
			"inputs": [],
			"name": "cancel",
			"outputs": [],
			"stateMutability": "nonpayable",
			"type": "function"
		},
		{
			"inputs": [],
			"name": "deposit",
			"outputs": [
				{
					"internalType": "uint256",
					"name": "_depositAmount",
					"type": "uint256"
				}
			],
			"stateMutability": "view",
			"type": "function"
		},
		{
			"inputs": [],
			"name": "maxBuyAmount",
			"outputs": [
				{
					"internalType": "uint256",
					"name": "_buyAmount",
					"type": "uint256"
				},
				{
					"internalType": "uint256",
					"name": "_sellAmount",
					"type": "uint256"
				}
			],
			"stateMutability": "view",
			"type": "function"
		},
		{
			"inputs": [],
			"name": "maxSellAmount",
			"outputs": [
				{
					"internalType": "uint256",
					"name": "_buyAmount",
					"type": "uint256"
				},
				{
					"internalType": "uint256",
					"name": "_sellAmount",
					"type": "uint256"
				}
			],
			"stateMutability": "view",
			"type": "function"
		},
		{
			"inputs": [],
			"name": "owner",
			"outputs": [
				{
					"internalType": "address",
					"name": "",
					"type": "address"
				}
			],
			"stateMutability": "view",
			"type": "function"
		},
		{
			"inputs": [],
			"name": "parameters",
			"outputs": [
				{
					"components": [
						{
							"internalType": "address",
							"name": "sellTokenAddress",
							"type": "address"
						},
						{
							"internalType": "address",
							"name": "buyTokenAddress",
							"type": "address"
						},
						{
							"internalType": "uint8",
							"name": "sellTokenDecimals",
							"type": "uint8"
						},
						{
							"internalType": "uint8",
							"name": "buyTokenDecimals",
							"type": "uint8"
						},
						{
							"internalType": "bool",
							"name": "buyTokenIsNative",
							"type": "bool"
						},
						{
							"internalType": "uint256",
							"name": "raiseTotal",
							"type": "uint256"
						},
						{
							"internalType": "uint256",
							"name": "buyPrice",
							"type": "uint256"
						},
						{
							"internalType": "uint16",
							"name": "swapPercent",
							"type": "uint16"
						},
						{
							"internalType": "uint16",
							"name": "sellTax",
							"type": "uint16"
						},
						{
							"internalType": "uint256",
							"name": "maxBuyAmount",
							"type": "uint256"
						},
						{
							"internalType": "uint16",
							"name": "maxSellPercent",
							"type": "uint16"
						},
						{
							"internalType": "address",
							"name": "teamWallet",
							"type": "address"
						},
						{
							"internalType": "uint256",
							"name": "startTime",
							"type": "uint256"
						},
						{
							"internalType": "uint256",
							"name": "endTime",
							"type": "uint256"
						}
					],
					"internalType": "struct Parameters",
					"name": "_paras",
					"type": "tuple"
				}
			],
			"stateMutability": "view",
			"type": "function"
		},
		{
			"inputs": [],
			"name": "remove",
			"outputs": [],
			"stateMutability": "nonpayable",
			"type": "function"
		},
		{
			"inputs": [],
			"name": "renounceOwnership",
			"outputs": [],
			"stateMutability": "nonpayable",
			"type": "function"
		},
		{
			"inputs": [
				{
					"internalType": "uint256",
					"name": "_buyAmount",
					"type": "uint256"
				},
				{
					"internalType": "uint256",
					"name": "_sellAmount",
					"type": "uint256"
				}
			],
			"name": "sell",
			"outputs": [
				{
					"internalType": "bool",
					"name": "",
					"type": "bool"
				}
			],
			"stateMutability": "payable",
			"type": "function"
		},
		{
			"inputs": [],
			"name": "state",
			"outputs": [
				{
					"internalType": "uint256",
					"name": "_raiseTotal",
					"type": "uint256"
				},
				{
					"internalType": "uint256",
					"name": "_raiseAmount",
					"type": "uint256"
				},
				{
					"internalType": "uint256",
					"name": "_swapPoolAmount",
					"type": "uint256"
				},
				{
					"internalType": "uint256",
					"name": "_sellTokenDeposit",
					"type": "uint256"
				},
				{
					"internalType": "uint256",
					"name": "_sellTokenAmount",
					"type": "uint256"
				},
				{
					"internalType": "uint256",
					"name": "_myBuyTokenAmount",
					"type": "uint256"
				},
				{
					"internalType": "uint256",
					"name": "_mySellTokenAmount",
					"type": "uint256"
				},
				{
					"internalType": "uint256",
					"name": "_buyTokenBalance",
					"type": "uint256"
				},
				{
					"internalType": "uint256",
					"name": "_sellTokenBalance",
					"type": "uint256"
				},
				{
					"internalType": "enum Crowdfunding.Status",
					"name": "_status",
					"type": "uint8"
				}
			],
			"stateMutability": "view",
			"type": "function"
		},
		{
			"inputs": [
				{
					"internalType": "address",
					"name": "newOwner",
					"type": "address"
				}
			],
			"name": "transferOwnership",
			"outputs": [],
			"stateMutability": "nonpayable",
			"type": "function"
		},
		{
			"inputs": [
				{
					"internalType": "uint256",
					"name": "_buyPrice",
					"type": "uint256"
				},
				{
					"internalType": "uint16",
					"name": "_swapPercent",
					"type": "uint16"
				},
				{
					"internalType": "uint256",
					"name": "_maxBuyAmount",
					"type": "uint256"
				},
				{
					"internalType": "uint16",
					"name": "_maxSellPercent",
					"type": "uint16"
				},
				{
					"internalType": "uint256",
					"name": "_endTime",
					"type": "uint256"
				}
			],
			"name": "updateParas",
			"outputs": [],
			"stateMutability": "nonpayable",
			"type": "function"
		},
		{
			"stateMutability": "payable",
			"type": "receive"
		}
	]
}