{
	"data": {
		"bytecode": {
			"linkReferences": {},
			"object": "608060405234801561001057600080fd5b5061001a33610068565b604051610026906100b8565b604051809103906000f080158015610042573d6000803e3d6000fd5b50600180546001600160a01b0319166001600160a01b03929092169190911790556100c5565b600080546001600160a01b038381166001600160a01b0319831681178455604051919092169283917f8be0079c531659141344cd1fd0a4f28419497f9722a3daafe3b4186f6b6457e09190a35050565b6104bf80614e1883390190565b614d44806100d46000396000f3fe608060405234801561001057600080fd5b50600436106100935760003560e01c8063c2722ecc11610066578063c2722ecc146100f2578063c2bc80fd146100fa578063f2fde38b1461010f578063f523e77514610122578063fc91a8971461013557600080fd5b80632348238c14610098578063715018a6146100ad5780638da5cb5b146100b5578063b82364ff146100df575b600080fd5b6100ab6100a6366004610b0d565b610158565b005b6100ab6101c2565b6000546001600160a01b03165b6040516001600160a01b0390911681526020015b60405180910390f35b6100ab6100ed366004610b4e565b6101cc565b6100c261086c565b610102610886565b6040516100d69190610e1c565b6100ab61011d366004610b0d565b61090c565b6100ab610130366004610b0d565b610985565b610148610143366004610b0d565b6109af565b60405190151581526020016100d6565b610160610a33565b6001546040516308d208e360e21b81526001600160a01b03838116600483015290911690632348238c90602401600060405180830381600087803b1580156101a757600080fd5b505af11580156101bb573d6000803e3d6000fd5b5050505050565b6101ca610a33565b565b604080516101c0810182526001600160a01b03808e168083528d82166020840152601293830184905260608301939093526001608083015260a082018c905260c082018b905261ffff808b1660e084015289811661010084015261012083018990528716610140830152851661016082015261018081018490526101a08101839052901580159061026557506001600160a01b038b1615155b6102ae5760405162461bcd60e51b8152602060048201526015602482015274546f6b656e2061646472657373206973207a65726f60581b60448201526064015b60405180910390fd5b600089116102f75760405162461bcd60e51b8152602060048201526016602482015275109d5e481c1c9a58d9481a5cc81a5b98dbdc9c9958dd60521b60448201526064016102a5565b80516040516000903090339061030c90610add565b6001600160a01b03928316815291166020820152604001604051809103906000f08015801561033f573d6000803e3d6000fd5b50604051632010d7f160e21b81529091506001600160a01b038216906380435fc49061036f908690600401610e69565b600060405180830381600087803b15801561038957600080fd5b505af115801561039d573d6000803e3d6000fd5b505050506000816001600160a01b031663d0e30db06040518163ffffffff1660e01b815260040160206040518083038186803b1580156103dc57600080fd5b505afa1580156103f0573d6000803e3d6000fd5b505050506040513d601f19601f820116820180604052508101906104149190610ced565b9050600081116104665760405162461bcd60e51b815260206004820152601a60248201527f53656c6c20746f6b656e206465706f736974206973207a65726f00000000000060448201526064016102a5565b6040516370a0823160e01b815233600482015281906001600160a01b038516906370a082319060240160206040518083038186803b1580156104a757600080fd5b505afa1580156104bb573d6000803e3d6000fd5b505050506040513d601f19601f820116820180604052508101906104df9190610ced565b10156105385760405162461bcd60e51b815260206004820152602260248201527f53656c6c20746f6b656e2062616c616e636520697320696e73756666696369656044820152611b9d60f21b60648201526084016102a5565b604051636eb1769f60e11b815233600482015230602482015281906001600160a01b0385169063dd62ed3e9060440160206040518083038186803b15801561057f57600080fd5b505afa158015610593573d6000803e3d6000fd5b505050506040513d601f19601f820116820180604052508101906105b79190610ced565b10156106115760405162461bcd60e51b8152602060048201526024808201527f53656c6c20746f6b656e20616c6c6f77616e636520697320696e7375666669636044820152631a595b9d60e21b60648201526084016102a5565b826001600160a01b03166323b872dd33846001600160a01b031663f4e759ef6040518163ffffffff1660e01b815260040160206040518083038186803b15801561065a57600080fd5b505afa15801561066e573d6000803e3d6000fd5b505050506040513d601f19601f820116820180604052508101906106929190610b31565b6040516001600160e01b031960e085901b1681526001600160a01b0392831660048201529116602482015260448101849052606401602060405180830381600087803b1580156106e157600080fd5b505af11580156106f5573d6000803e3d6000fd5b505050506040513d601f19601f820116820180604052508101906107199190610ccb565b6107655760405162461bcd60e51b815260206004820152601f60248201527f53656c6c20746f6b656e207472616e7366657246726f6d206661696c7572650060448201526064016102a5565b60405163f2fde38b60e01b81523360048201526001600160a01b0383169063f2fde38b90602401600060405180830381600087803b1580156107a657600080fd5b505af11580156107ba573d6000803e3d6000fd5b50506001546040516389b09de760e01b81526001600160a01b03808716600483015286945090911691506389b09de790602401600060405180830381600087803b15801561080757600080fd5b505af115801561081b573d6000803e3d6000fd5b505050507f830f55a7b6f4bb64f0d5e04db727ef322438f008c47f8006de7fd5e5cf7743ae33828760405161085293929190610dee565b60405180910390a150505050505050505050505050505050565b6000610876610a33565b506001546001600160a01b031690565b6001546040805163c2bc80fd60e01b815290516060926001600160a01b03169163c2bc80fd916004808301926000929190829003018186803b1580156108cb57600080fd5b505afa1580156108df573d6000803e3d6000fd5b505050506040513d6000823e601f3d908101601f191682016040526109079190810190610bff565b905090565b610914610a33565b6001600160a01b0381166109795760405162461bcd60e51b815260206004820152602660248201527f4f776e61626c653a206e6577206f776e657220697320746865207a65726f206160448201526564647265737360d01b60648201526084016102a5565b61098281610a8d565b50565b61098d610a33565b600180546001600160a01b0319166001600160a01b0392909216919091179055565b60015460405163fc91a89760e01b81526001600160a01b038381166004830152600092169063fc91a8979060240160206040518083038186803b1580156109f557600080fd5b505afa158015610a09573d6000803e3d6000fd5b505050506040513d601f19601f82011682018060405250810190610a2d9190610ccb565b92915050565b6000546001600160a01b031633146101ca5760405162461bcd60e51b815260206004820181905260248201527f4f776e61626c653a2063616c6c6572206973206e6f7420746865206f776e657260448201526064016102a5565b600080546001600160a01b038381166001600160a01b0319831681178455604051919092169283917f8be0079c531659141344cd1fd0a4f28419497f9722a3daafe3b4186f6b6457e09190a35050565b613e6b8062000ea483390190565b8051610af681610e8e565b919050565b803561ffff81168114610af657600080fd5b600060208284031215610b1f57600080fd5b8135610b2a81610e8e565b9392505050565b600060208284031215610b4357600080fd5b8151610b2a81610e8e565b60008060008060008060008060008060006101608c8e031215610b7057600080fd5b8b35610b7b81610e8e565b9a5060208c0135610b8b81610e8e565b995060408c0135985060608c01359750610ba760808d01610afb565b9650610bb560a08d01610afb565b955060c08c01359450610bca60e08d01610afb565b93506101008c0135610bdb81610e8e565b809350506101208c013591506101408c013590509295989b509295989b9093969950565b60006020808385031215610c1257600080fd5b825167ffffffffffffffff80821115610c2a57600080fd5b818501915085601f830112610c3e57600080fd5b815181811115610c5057610c50610e78565b8060051b604051601f19603f83011681018181108582111715610c7557610c75610e78565b604052828152858101935084860182860187018a1015610c9457600080fd5b600095505b83861015610cbe57610caa81610aeb565b855260019590950194938601938601610c99565b5098975050505050505050565b600060208284031215610cdd57600080fd5b81518015158114610b2a57600080fd5b600060208284031215610cff57600080fd5b5051919050565b80516001600160a01b031682526020810151610d2d60208401826001600160a01b03169052565b506040810151610d42604084018260ff169052565b506060810151610d57606084018260ff169052565b506080810151610d6b608084018215159052565b5060a081015160a083015260c081015160c083015260e0810151610d9560e084018261ffff169052565b506101008181015161ffff9081169184019190915261012080830151908401526101408083015190911690830152610160808201516001600160a01b03169083015261018080820151908301526101a090810151910152565b6001600160a01b038481168252831660208201526102008101610e146040830184610d06565b949350505050565b6020808252825182820181905260009190848201906040850190845b81811015610e5d5783516001600160a01b031683529284019291840191600101610e38565b50909695505050505050565b6101c08101610a2d8284610d06565b634e487b7160e01b600052604160045260246000fd5b6001600160a01b038116811461098257600080fdfe60806040523480156200001157600080fd5b5060405162003e6b38038062003e6b8339810160408190526200003491620000ee565b6200003f3362000081565b600480546001600160a01b039384166001600160a01b031991821617909155600580549290931691811691909117909155601380549091163017905562000126565b600080546001600160a01b038381166001600160a01b0319831681178455604051919092169283917f8be0079c531659141344cd1fd0a4f28419497f9722a3daafe3b4186f6b6457e09190a35050565b80516001600160a01b0381168114620000e957600080fd5b919050565b600080604083850312156200010257600080fd5b6200010d83620000d1565b91506200011d60208401620000d1565b90509250929050565b613d3580620001366000396000f3fe6080604052600436106101235760003560e01c8063c19d93fb116100a0578063dadd8c1811610064578063dadd8c181461048a578063ea8a1af0146104aa578063f2fde38b146104bf578063f4e759ef146104df578063f523e775146104f457600080fd5b8063c19d93fb14610406578063c2722ecc14610431578063d0e30db014610446578063d6febde814610464578063d79875eb1461047757600080fd5b806380435fc4116100e757806380435fc41461024f57806388e765ff1461026257806389035730146102775780638da5cb5b146103bf578063a7f43779146103f157600080fd5b80632348238c1461017f5780633bf3e18e146101a15780635dab2420146101d157806366d602ae14610210578063715018a61461023a57600080fd5b3661017a576040805133815260208101829052600781830152667265636569766560c81b606082015290517fd00ca3f088120b3d909c3a9e01be91e94a2b001aed9c25fe751c3c7a72dc49bf9181900360800190a1005b600080fd5b34801561018b57600080fd5b5061019f61019a366004612c80565b610514565b005b3480156101ad57600080fd5b50600b54600160b01b900460ff165b60405190151581526020015b60405180910390f35b3480156101dd57600080fd5b506101e661057e565b604080516001600160a01b03948516815292841660208401529216918101919091526060016101c8565b34801561021c57600080fd5b506102256105b2565b604080519283526020830191909152016101c8565b34801561024657600080fd5b5061019f6105c6565b61019f61025d366004612cba565b6105d0565b34801561026e57600080fd5b506102256109ce565b34801561028357600080fd5b506103b2604080516101c081018252600080825260208201819052918101829052606081018290526080810182905260a0810182905260c0810182905260e08101829052610100810182905261012081018290526101408101829052610160810182905261018081018290526101a081019190915250604080516101c081018252600a546001600160a01b039081168252600b54808216602084015260ff600160a01b8204811694840194909452600160a81b810484166060840152600160b01b900490921615156080820152600c5460a0820152600d5460c0820152600e5461ffff80821660e084015262010000918290048116610100840152600f54610120840152601054908116610140840152049091166101608201526011546101808201526012546101a082015290565b6040516101c89190612fce565b3480156103cb57600080fd5b506000546001600160a01b03165b6040516001600160a01b0390911681526020016101c8565b3480156103fd57600080fd5b5061019f6109da565b34801561041257600080fd5b5061041b610b16565b6040516101c89a999897969594939291906130c1565b34801561043d57600080fd5b506103d9610d23565b34801561045257600080fd5b506006546040519081526020016101c8565b6101bc610472366004612e10565b610d3d565b6101bc610485366004612e10565b6116ec565b34801561049657600080fd5b5061019f6104a5366004612dc2565b611f16565b3480156104b657600080fd5b5061019f611fbf565b3480156104cb57600080fd5b5061019f6104da366004612c80565b61208a565b3480156104eb57600080fd5b506103d9612103565b34801561050057600080fd5b5061019f61050f366004612c80565b61211d565b61051c612147565b6001546040516308d208e360e21b81526001600160a01b03838116600483015290911690632348238c90602401600060405180830381600087803b15801561056357600080fd5b505af1158015610577573d6000803e3d6000fd5b5050505050565b60008060006105956000546001600160a01b031690565b60045460055491956001600160a01b039182169550911692509050565b6000806105be336121a1565b915091509091565b6105ce612147565b565b6105d8612147565b6001546001600160a01b03161561062a5760405162461bcd60e51b815260206004820152601160248201527053746f7265206973206e6f74207a65726f60781b60448201526064015b60405180910390fd5b60405161063690612c3b565b604051809103906000f080158015610652573d6000803e3d6000fd5b50600180546001600160a01b03199081166001600160a01b039384169081179092556014805482169092179091558251600a80549092169083161790556020820151600b80546040850151606086015160808701519486166001600160a81b031990931692909217600160a01b60ff928316021761ffff60a81b1916600160a81b919092160260ff60b01b191617600160b01b9215159290920291909117905560a0820151600c5560c0820151600d5560e0820151600e805461010085015161ffff93841663ffffffff199092169190911762010000918416820217909155610120840151600f5561014084015160108054610160870151929094166001600160b01b0319909416939093179316029190911790556101808101516011556101a0810151601255610781612322565b6014805460ff60a01b1916600160a01b8360048111156107a3576107a36132c7565b0217905550600a54600280546001600160a01b0319166001600160a01b0390921691821790556040805163313ce56760e01b8152905163313ce56791600480820192602092909190829003018186803b1580156107ff57600080fd5b505afa158015610813573d6000803e3d6000fd5b505050506040513d601f19601f820116820180604052508101906108379190612e56565b600b805460ff92909216600160a01b0260ff60a01b1983168117909155600a546001600160a01b03908116918116921691909117141561088a57600b805461ffff60a81b1916608960a91b179055610958565b600b805460ff60b01b1981169091556040805163313ce56760e01b815290516001600160a01b039092169163313ce56791600480820192602092909190829003018186803b1580156108db57600080fd5b505afa1580156108ef573d6000803e3d6000fd5b505050506040513d601f19601f820116820180604052508101906109139190612e56565b600b805460ff92909216600160a81b0260ff60a81b1983168117909155600380546001600160a01b0319166001600160a01b0392831692909316919091179190911790555b61096061234a565b60068190556009557f95ad27b63a983f975981f9457d76ae9619c05f68e0a020ace848990fd814ee1761099b6000546001600160a01b031690565b6004546005546006546040516109c394936001600160a01b0390811693169190600a90612eb9565b60405180910390a150565b6000806105be33612364565b6109e2612147565b6109ea612447565b6109f26124ae565b601054610a0d906201000090046001600160a01b0316612587565b610a595760405162461bcd60e51b815260206004820152601860248201527f526566756e642062757920746f6b656e206661696c75726500000000000000006044820152606401610621565b601054610a74906201000090046001600160a01b03166127d9565b610abc5760405162461bcd60e51b8152602060048201526019602482015278526566756e642073656c6c20746f6b656e206661696c75726560381b6044820152606401610621565b6014805460ff60a01b1916600360a01b17908190556040517fc5b1926826a1a3d3516971a2579cab66ddfa770959e8c2f1d832386b262e2d8691610b0c913391600160a01b900460ff1690612fb1565b60405180910390a1565b601454600b546000918291829182918291829182918291829182916001600160a01b039091163190600160b01b900460ff16610bce576003546014546040516370a0823160e01b81526001600160a01b0391821660048201529116906370a082319060240160206040518083038186803b158015610b9357600080fd5b505afa158015610ba7573d6000803e3d6000fd5b505050506040513d601f19601f82011682018060405250810190610bcb9190612da9565b90505b60015460405163f5a7976760e01b815233600482015260009182916001600160a01b039091169063f5a7976790602401604080518083038186803b158015610c1557600080fd5b505afa158015610c29573d6000803e3d6000fd5b505050506040513d601f19601f82011682018060405250810190610c4d9190612e32565b600c546007546008546006546009546002546014546040516370a0823160e01b81526001600160a01b039182166004820152989a5096985094969395929491939092899289928c92909116906370a082319060240160206040518083038186803b158015610cba57600080fd5b505afa158015610cce573d6000803e3d6000fd5b505050506040513d601f19601f82011682018060405250810190610cf29190612da9565b60148054906101000a900460ff169c509c509c509c509c509c509c509c509c509c5050505090919293949596979899565b6000610d2d612147565b506001546001600160a01b031690565b6000610d47612447565b610d4f6128ad565b601454600160a81b900460ff1615610d9a5760405162461bcd60e51b815260206004820152600e60248201526d4e6f2072652d656e7472616e637960901b6044820152606401610621565b6014805460ff60a81b1916600160a81b1790558215801590610dbb57508115155b610df85760405162461bcd60e51b815260206004820152600e60248201526d416d6f756e74206973207a65726f60901b6044820152606401610621565b610e02838361294a565b610e425760405162461bcd60e51b81526020600482015260116024820152700a0e4d2c6ca40d2e640dad2e6dac2e8c6d607b1b6044820152606401610621565b610e4c3384612993565b610e915760405162461bcd60e51b8152602060048201526016602482015275416d6f756e742065786365656473206d6178696d756d60501b6044820152606401610621565b6002546014546040516370a0823160e01b81526001600160a01b039182166004820152849291909116906370a082319060240160206040518083038186803b158015610edc57600080fd5b505afa158015610ef0573d6000803e3d6000fd5b505050506040513d601f19601f82011682018060405250810190610f149190612da9565b1015610f6d5760405162461bcd60e51b815260206004820152602260248201527f53656c6c20746f6b656e2062616c616e636520697320696e73756666696369656044820152611b9d60f21b6064820152608401610621565b6000610f78846129bd565b600b54909150600160b01b900460ff161561111957833414610fd55760405162461bcd60e51b81526020600482015260166024820152751b5cd9cb9d985b1d59481a5cc81b9bdd081d985b1a5960521b6044820152606401610621565b6014546040516000916001600160a01b03169083908381818185875af1925050503d8060008114611022576040519150601f19603f3d011682016040523d82523d6000602084013e611027565b606091505b505090508061106b5760405162461bcd60e51b815260206004820152601060248201526f5472616e73666572206661696c75726560801b6044820152606401610621565b6010546201000090046001600160a01b031661108734846129df565b604051600081818185875af1925050503d80600081146110c3576040519150601f19603f3d011682016040523d82523d6000602084013e6110c8565b606091505b505080915050806111135760405162461bcd60e51b81526020600482015260156024820152745472616e73666572207465616d206661696c75726560581b6044820152606401610621565b50611498565b600354601354604051636eb1769f60e11b81523360048201526001600160a01b0391821660248201528692919091169063dd62ed3e9060440160206040518083038186803b15801561116a57600080fd5b505afa15801561117e573d6000803e3d6000fd5b505050506040513d601f19601f820116820180604052508101906111a29190612da9565b10156112015760405162461bcd60e51b815260206004820152602860248201527f596f75722062757920746f6b656e20616c6c6f77616e636520697320696e737560448201526719999a58da595b9d60c21b6064820152608401610621565b6003546040516370a0823160e01b815233600482015285916001600160a01b0316906370a082319060240160206040518083038186803b15801561124457600080fd5b505afa158015611258573d6000803e3d6000fd5b505050506040513d601f19601f8201168201806040525081019061127c9190612da9565b10156112d95760405162461bcd60e51b815260206004820152602660248201527f596f75722062757920746f6b656e2062616c616e636520697320696e737566666044820152651a58da595b9d60d21b6064820152608401610621565b6003546014546040516323b872dd60e01b81526001600160a01b03928316926323b872dd92611312923392909116908690600401612e95565b602060405180830381600087803b15801561132c57600080fd5b505af1158015611340573d6000803e3d6000fd5b505050506040513d601f19601f820116820180604052508101906113649190612c9d565b6113b05760405162461bcd60e51b815260206004820152601e60248201527f42757920746f6b656e207472616e7366657246726f6d206661696c75726500006044820152606401610621565b6003546010546001600160a01b03918216916323b872dd91339162010000909104166113dc88866129df565b6040518463ffffffff1660e01b81526004016113fa93929190612e95565b602060405180830381600087803b15801561141457600080fd5b505af1158015611428573d6000803e3d6000fd5b505050506040513d601f19601f8201168201806040525081019061144c9190612c9d565b6114985760405162461bcd60e51b815260206004820152601f60248201527f42757920746f6b656e207472616e73666572207465616d206661696c757265006044820152606401610621565b600154600254604051637aa9bf6f60e11b81526001600160a01b039283169263f5537ede926114d09291169033908890600401612e95565b602060405180830381600087803b1580156114ea57600080fd5b505af11580156114fe573d6000803e3d6000fd5b505050506040513d601f19601f820116820180604052508101906115229190612c9d565b61156e5760405162461bcd60e51b815260206004820152601b60248201527f53656c6c20746f6b656e207472616e73666572206661696c75726500000000006044820152606401610621565b60075461157b90856129eb565b60075560095461158b90846129df565b60095560085461159b90826129eb565b600855600154604051636aa05ee360e01b815233600482015260248101869052604481018590526001600160a01b0390911690636aa05ee390606401600060405180830381600087803b1580156115f157600080fd5b505af1158015611605573d6000803e3d6000fd5b50506001546040516379da956560e01b815233600482015260248101889052604481018790526001600160a01b0390911692506379da95659150606401600060405180830381600087803b15801561165c57600080fd5b505af1158015611670573d6000803e3d6000fd5b505060075460095460085460408051338152602081018b90529081018990526060810193909352608083019190915260a08201527f178f20a8980b4e6cdc2c84f3ef670f5047f63638f90a8acc6b724b43f1da778d925060c00190505b60405180910390a150506014805460ff60a81b19169055506001919050565b60006116f6612447565b6116fe6128ad565b601454600160a81b900460ff16156117495760405162461bcd60e51b815260206004820152600e60248201526d4e6f2072652d656e7472616e637960901b6044820152606401610621565b6014805460ff60a81b1916600160a81b179055821580159061176a57508115155b6117a75760405162461bcd60e51b815260206004820152600e60248201526d416d6f756e74206973207a65726f60901b6044820152606401610621565b6117b1838361294a565b6117f15760405162461bcd60e51b81526020600482015260116024820152700a0e4d2c6ca40d2e640dad2e6dac2e8c6d607b1b6044820152606401610621565b6117fb33836129f7565b6118405760405162461bcd60e51b8152602060048201526016602482015275416d6f756e742065786365656473206d6178696d756d60501b6044820152606401610621565b600061184b84612a17565b905080611856612a4a565b101561189e5760405162461bcd60e51b815260206004820152601760248201527610985b185b98d9481a5cc81a5b9cdd59999a58da595b9d604a1b6044820152606401610621565b600254601354604051636eb1769f60e11b81523360048201526001600160a01b0391821660248201528592919091169063dd62ed3e9060440160206040518083038186803b1580156118ef57600080fd5b505afa158015611903573d6000803e3d6000fd5b505050506040513d601f19601f820116820180604052508101906119279190612da9565b10156119875760405162461bcd60e51b815260206004820152602960248201527f596f75722073656c6c20746f6b656e20616c6c6f77616e636520697320696e736044820152681d59999a58da595b9d60ba1b6064820152608401610621565b6002546040516370a0823160e01b815233600482015284916001600160a01b0316906370a082319060240160206040518083038186803b1580156119ca57600080fd5b505afa1580156119de573d6000803e3d6000fd5b505050506040513d601f19601f82011682018060405250810190611a029190612da9565b1015611a605760405162461bcd60e51b815260206004820152602760248201527f596f75722073656c6c20746f6b656e2062616c616e636520697320696e737566604482015266199a58da595b9d60ca1b6064820152608401610621565b6002546014546040516323b872dd60e01b81526001600160a01b03928316926323b872dd92611a99923392909116908890600401612e95565b602060405180830381600087803b158015611ab357600080fd5b505af1158015611ac7573d6000803e3d6000fd5b505050506040513d601f19601f82011682018060405250810190611aeb9190612c9d565b611b375760405162461bcd60e51b815260206004820152601f60248201527f53656c6c20746f6b656e207472616e7366657246726f6d206661696c757265006044820152606401610621565b600b54600160b01b900460ff1615611c6d576014546001600160a01b031631811115611b9f5760405162461bcd60e51b815260206004820152601760248201527610985b185b98d9481a5cc81a5b9cdd59999a58da595b9d604a1b6044820152606401610621565b60015460405163a9059cbb60e01b8152336004820152602481018390526001600160a01b039091169063a9059cbb90604401602060405180830381600087803b158015611beb57600080fd5b505af1158015611bff573d6000803e3d6000fd5b505050506040513d601f19601f82011682018060405250810190611c239190612c9d565b611c685760405162461bcd60e51b81526020600482015260166024820152755472616e73666572206275796572206661696c75726560501b6044820152606401610621565b611e1e565b6003546014546040516370a0823160e01b81526001600160a01b039182166004820152839291909116906370a082319060240160206040518083038186803b158015611cb857600080fd5b505afa158015611ccc573d6000803e3d6000fd5b505050506040513d601f19601f82011682018060405250810190611cf09190612da9565b1015611d485760405162461bcd60e51b815260206004820152602160248201527f42757920746f6b656e2062616c616e636520697320696e73756666696369656e6044820152601d60fa1b6064820152608401610621565b600154600354604051637aa9bf6f60e11b81526001600160a01b039283169263f5537ede92611d809291169033908690600401612e95565b602060405180830381600087803b158015611d9a57600080fd5b505af1158015611dae573d6000803e3d6000fd5b505050506040513d601f19601f82011682018060405250810190611dd29190612c9d565b611e1e5760405162461bcd60e51b815260206004820181905260248201527f42757920746f6b656e207472616e73666572206275796572206661696c7572656044820152606401610621565b600754611e2b90856129df565b600755600954611e3b90846129eb565b600955600854611e4b90826129df565b60085560015460405163e32fca3f60e01b815233600482015260248101869052604481018590526001600160a01b039091169063e32fca3f90606401600060405180830381600087803b158015611ea157600080fd5b505af1158015611eb5573d6000803e3d6000fd5b505060075460095460085460408051338152602081018b90529081018990526060810193909352608083019190915260a08201527f20a7fc03b19d7f251cc907f177ff82194c6aebe9a2b47e1cd734dcb6bf772cc2925060c00190506116cd565b611f1e612147565b611f26612447565b611f2e6128ff565b600d859055600e805461ffff86811661ffff199283168117909355600f86905560108054918616919092168117909155601283905560408051338152602081018990529081019290925260608201859052608082015260a081018290527fa8b16e07b45dffc2932e0802241be3440dde875279aadac4329f00b494dc495e9060c00160405180910390a15050505050565b611fc7612147565b611fcf612447565b611fd7612af4565b601054611ff2906201000090046001600160a01b03166127d9565b61203a5760405162461bcd60e51b8152602060048201526019602482015278526566756e642073656c6c20746f6b656e206661696c75726560381b6044820152606401610621565b6014805460ff60a01b1916600160a21b17908190556040517fcd8e02743d921fb9bca767936271b8b93911716c78c1d46c2c6ee6189309d30c91610b0c913391600160a01b900460ff1690612fb1565b612092612147565b6001600160a01b0381166120f75760405162461bcd60e51b815260206004820152602660248201527f4f776e61626c653a206e6577206f776e657220697320746865207a65726f206160448201526564647265737360d01b6064820152608401610621565b61210081612b45565b50565b600061210d612147565b506014546001600160a01b031690565b612125612147565b600180546001600160a01b0319166001600160a01b0392909216919091179055565b6000546001600160a01b031633146105ce5760405162461bcd60e51b815260206004820181905260248201527f4f776e61626c653a2063616c6c6572206973206e6f7420746865206f776e65726044820152606401610621565b600154604051631d76db5b60e31b81526001600160a01b038381166004830152600092839283929091169063ebb6dad890602401604080518083038186803b1580156121ec57600080fd5b505afa158015612200573d6000803e3d6000fd5b505050506040513d601f19601f820116820180604052508101906122249190612e32565b60015460405163f5a7976760e01b81526001600160a01b0388811660048301529294506000935091169063f5a7976790602401604080518083038186803b15801561226e57600080fd5b505afa158015612282573d6000803e3d6000fd5b505050506040513d601f19601f820116820180604052508101906122a69190612e32565b601054909250600091506122ed906122e79085906122e190612710906122d09061ffff168461327b565b6122da919061316b565b86906129eb565b906129df565b83612b95565b905060006122fe6008546000612bab565b91505061231560006123108484612b95565b612bab565b9550955050505050915091565b6011546000904210156123355750600190565b60125442116123445750600290565b50600390565b60008061235d600a600201546000612bab565b9392505050565b60015460405163f5a7976760e01b81526001600160a01b038381166004830152600092839283929091169063f5a7976790602401604080518083038186803b1580156123af57600080fd5b505afa1580156123c3573d6000803e3d6000fd5b505050506040513d601f19601f820116820180604052508101906123e79190612e32565b50600f54909150600090612413906123ff90846129df565b600754600c5461240e916129df565b612b95565b905060006124246000600954612bab565b50905061243b6124348383612b95565b6000612bab565b94509450505050915091565b6004601454600160a01b900460ff166004811115612467576124676132c7565b14156105ce5760405162461bcd60e51b815260206004820152601660248201527510dc9bddd9199d5b991a5b99c81a5cc818d85b98d95b60521b6044820152606401610621565b6012544211806124c25750600c5460075410155b6125195760405162461bcd60e51b815260206004820152602260248201527f43726f776466756e64696e6720656e6420636f6e646974696f6e206e6f74206d604482015261195d60f21b6064820152608401610621565b6003601454600160a01b900460ff166004811115612539576125396132c7565b14156105ce5760405162461bcd60e51b815260206004820152601c60248201527f43726f776466756e64696e672073746174757320697320656e646564000000006044820152606401610621565b600b54600090600190600160b01b900460ff1615612643576014546001600160a01b0316311561263e5760015460145460405163a9059cbb60e01b81526001600160a01b03868116600483015291821631602482015291169063a9059cbb90604401602060405180830381600087803b15801561260357600080fd5b505af1158015612617573d6000803e3d6000fd5b505050506040513d601f19601f8201168201806040525081019061263b9190612c9d565b90505b6127d3565b6003546014546040516370a0823160e01b81526001600160a01b03918216600482015260009291909116906370a082319060240160206040518083038186803b15801561268f57600080fd5b505afa1580156126a3573d6000803e3d6000fd5b505050506040513d601f19601f820116820180604052508101906126c79190612da9565b11156127d3576001546003546014546040516370a0823160e01b81526001600160a01b0391821660048201529281169263f5537ede929190911690869082906370a08231906024015b60206040518083038186803b15801561272857600080fd5b505afa15801561273c573d6000803e3d6000fd5b505050506040513d601f19601f820116820180604052508101906127609190612da9565b6040518463ffffffff1660e01b815260040161277e93929190612e95565b602060405180830381600087803b15801561279857600080fd5b505af11580156127ac573d6000803e3d6000fd5b505050506040513d601f19601f820116820180604052508101906127d09190612c9d565b90505b92915050565b6002546014546040516370a0823160e01b81526001600160a01b03918216600482015260009260019284929116906370a082319060240160206040518083038186803b15801561282857600080fd5b505afa15801561283c573d6000803e3d6000fd5b505050506040513d601f19601f820116820180604052508101906128609190612da9565b11156127d3576001546002546014546040516370a0823160e01b81526001600160a01b0391821660048201529281169263f5537ede929190911690869082906370a0823190602401612710565b6011544210156128ff5760405162461bcd60e51b815260206004820152601860248201527f43726f776466756e64696e67206e6f74207374617274656400000000000000006044820152606401610621565b6012544211156105ce5760405162461bcd60e51b815260206004820152601660248201527510dc9bddd9199d5b991a5b99c81a185cc8195b99195960521b6044820152606401610621565b600080612958846000612bab565b9150506000612968600085612bab565b5090508481148061297857508382145b15612988576001925050506127d3565b506000949350505050565b60008061299f84612364565b5090508083116129b35760019150506127d3565b60009150506127d3565b600e54600090612710906129d59061ffff168461327b565b6127d3919061316b565b60006127d0828461329a565b60006127d08284613153565b600080612a03846121a1565b9150508083116129b35760019150506127d3565b600e546000906127d39061271090612a399062010000900461ffff168561327b565b612a43919061316b565b83906129df565b600b54600090600160b01b900460ff1615612a7057506014546001600160a01b03163190565b6003546014546040516370a0823160e01b81526001600160a01b0391821660048201529116906370a082319060240160206040518083038186803b158015612ab757600080fd5b505afa158015612acb573d6000803e3d6000fd5b505050506040513d601f19601f82011682018060405250810190612aef9190612da9565b905090565b60115442106105ce5760405162461bcd60e51b815260206004820152601860248201527f43726f776466756e64696e6720686173207374617274656400000000000000006044820152606401610621565b600080546001600160a01b038381166001600160a01b0319831681178455604051919092169283917f8be0079c531659141344cd1fd0a4f28419497f9722a3daafe3b4186f6b6457e09190a35050565b6000818310612ba457816127d0565b5090919050565b6000808315612bee57600b548490612bce90600160a81b900460ff16600a6131d0565b600d54612bdb908761327b565b612be5919061316b565b91509150612c34565b8215612c2d57600d54600b54612c0f90600160a81b900460ff16600a6131d0565b612c19908561327b565b612c23919061316b565b8391509150612c34565b5060009050805b9250929050565b6109f08061331083390190565b8035612c53816132dd565b919050565b8035612c53816132f2565b803561ffff81168114612c5357600080fd5b8035612c5381613300565b600060208284031215612c9257600080fd5b813561235d816132dd565b600060208284031215612caf57600080fd5b815161235d816132f2565b60006101c08284031215612ccd57600080fd5b612cd561311b565b612cde83612c48565b8152612cec60208401612c48565b6020820152612cfd60408401612c75565b6040820152612d0e60608401612c75565b6060820152612d1f60808401612c58565b608082015260a083013560a082015260c083013560c0820152612d4460e08401612c63565b60e0820152610100612d57818501612c63565b908201526101208381013590820152610140612d74818501612c63565b90820152610160612d86848201612c48565b9082015261018083810135908201526101a0928301359281019290925250919050565b600060208284031215612dbb57600080fd5b5051919050565b600080600080600060a08688031215612dda57600080fd5b85359450612dea60208701612c63565b935060408601359250612dff60608701612c63565b949793965091946080013592915050565b60008060408385031215612e2357600080fd5b50508035926020909101359150565b60008060408385031215612e4557600080fd5b505080516020909101519092909150565b600060208284031215612e6857600080fd5b815161235d81613300565b60058110612e9157634e487b7160e01b600052602160045260246000fd5b9052565b6001600160a01b039384168152919092166020820152604081019190915260600190565b6001600160a01b038681168252858116602083015284811660408301526060820184905282548116608083015261024082019060018401546001600160a01b038282161660a085015260a081901c60ff1660c085015260a881901c60ff1660e0850152612f31610100850160ff8360b01c1615159052565b5060028401546101208401526003840154610140840152600484015461ffff808216610160860152601091821c811661018086015260058601546101a086015260068601549081166101c0860152901c166001600160a01b03166101e0830152600783015461020083015260089092015461022090910152949350505050565b6001600160a01b03831681526040810161235d6020830184612e73565b81516001600160a01b031681526101c081016020830151612ffa60208401826001600160a01b03169052565b50604083015161300f604084018260ff169052565b506060830151613024606084018260ff169052565b506080830151613038608084018215159052565b5060a083015160a083015260c083015160c083015260e083015161306260e084018261ffff169052565b506101008381015161ffff9081169184019190915261012080850151908401526101408085015190911690830152610160808401516001600160a01b03169083015261018080840151908301526101a092830151929091019190915290565b6000610140820190508b82528a60208301528960408301528860608301528760808301528660a08301528560c08301528460e08301528361010083015261310c610120830184612e73565b9b9a5050505050505050505050565b6040516101c0810167ffffffffffffffff8111828210171561314d57634e487b7160e01b600052604160045260246000fd5b60405290565b60008219821115613166576131666132b1565b500190565b60008261318857634e487b7160e01b600052601260045260246000fd5b500490565b600181815b808511156131c85781600019048211156131ae576131ae6132b1565b808516156131bb57918102915b93841c9390800290613192565b509250929050565b60006127d060ff8416836000826131e9575060016127d3565b816131f6575060006127d3565b816001811461320c576002811461321657613232565b60019150506127d3565b60ff841115613227576132276132b1565b50506001821b6127d3565b5060208310610133831016604e8410600b8410161715613255575081810a6127d3565b61325f838361318d565b8060001904821115613273576132736132b1565b029392505050565b6000816000190483118215151615613295576132956132b1565b500290565b6000828210156132ac576132ac6132b1565b500390565b634e487b7160e01b600052601160045260246000fd5b634e487b7160e01b600052602160045260246000fd5b6001600160a01b038116811461210057600080fd5b801515811461210057600080fd5b60ff8116811461210057600080fdfe608060405234801561001057600080fd5b50600080546001600160a01b0319163390811790915560408051918252517f4101e71e974f68df5e9730cc223280b41654676bbb052cdcc735c3337e64d2d99181900360200190a1610989806100676000396000f3fe6080604052600436106100955760003560e01c8063c6dbdf6111610059578063c6dbdf61146101a8578063e32fca3f146101d0578063ebb6dad8146101f0578063f5537ede14610225578063f5a797671461024557600080fd5b80632348238c146100f15780636aa05ee31461011357806379da956514610133578063a2ba266b14610153578063a9059cbb1461017357600080fd5b366100ec576040805133815260208101829052600781830152667265636569766560c81b606082015290517fd00ca3f088120b3d909c3a9e01be91e94a2b001aed9c25fe751c3c7a72dc49bf9181900360800190a1005b600080fd5b3480156100fd57600080fd5b5061011161010c3660046107c9565b610265565b005b34801561011f57600080fd5b5061011161012e366004610812565b61035e565b34801561013f57600080fd5b5061011161014e366004610812565b610403565b34801561015f57600080fd5b5061011161016e366004610812565b6104a6565b34801561017f57600080fd5b5061019361018e3660046107e6565b610526565b60405190151581526020015b60405180910390f35b3480156101b457600080fd5b506000546040516001600160a01b03909116815260200161019f565b3480156101dc57600080fd5b506101116101eb366004610812565b6105b7565b3480156101fc57600080fd5b5061021061020b3660046107c9565b610636565b6040805192835260208301919091520161019f565b34801561023157600080fd5b50610193610240366004610869565b610691565b34801561025157600080fd5b506102106102603660046107c9565b61074f565b6000546001600160a01b0316336001600160a01b0316146102a15760405162461bcd60e51b8152600401610298906108aa565b60405180910390fd5b6001600160a01b03811661030a5760405162461bcd60e51b815260206004820152602a60248201527f5365636f6e646172793a206e6577207072696d61727920697320746865207a65604482015269726f206164647265737360b01b6064820152608401610298565b600080546001600160a01b0319166001600160a01b0383169081179091556040519081527f4101e71e974f68df5e9730cc223280b41654676bbb052cdcc735c3337e64d2d99060200160405180910390a150565b6000546001600160a01b0316336001600160a01b0316146103915760405162461bcd60e51b8152600401610298906108aa565b6001600160a01b0383166000908152600160205260409020546103b490836107aa565b6001600160a01b038416600090815260016020819052604090912091825501546103de90826107aa565b6001600160a01b03909316600090815260016020819052604090912001929092555050565b6000546001600160a01b0316336001600160a01b0316146104365760405162461bcd60e51b8152600401610298906108aa565b6001600160a01b03831660009081526002602052604090205461045990836107aa565b6001600160a01b03841660009081526002602052604090209081556001015461048290826107aa565b6001600160a01b039093166000908152600260205260409020600101929092555050565b6000546001600160a01b0316336001600160a01b0316146104d95760405162461bcd60e51b8152600401610298906108aa565b6001600160a01b0383166000908152600160205260409020546104fc90836107bd565b6001600160a01b038416600090815260016020819052604090912091825501546103de90826107bd565b600080546001600160a01b0316336001600160a01b03161461055a5760405162461bcd60e51b8152600401610298906108aa565b6000836001600160a01b03168360405160006040518083038185875af1925050503d80600081146105a7576040519150601f19603f3d011682016040523d82523d6000602084013e6105ac565b606091505b509095945050505050565b6000546001600160a01b0316336001600160a01b0316146105ea5760405162461bcd60e51b8152600401610298906108aa565b6001600160a01b03831660009081526002602052604090205461060d90836107bd565b6001600160a01b03841660009081526002602052604090209081556001015461048290826107bd565b6000805481906001600160a01b0316336001600160a01b03161461066c5760405162461bcd60e51b8152600401610298906108aa565b50506001600160a01b0316600090815260016020819052604090912080549101549091565b600080546001600160a01b0316336001600160a01b0316146106c55760405162461bcd60e51b8152600401610298906108aa565b60405163a9059cbb60e01b81526001600160a01b0384811660048301526024820184905285169063a9059cbb90604401602060405180830381600087803b15801561070f57600080fd5b505af1158015610723573d6000803e3d6000fd5b505050506040513d601f19601f820116820180604052508101906107479190610847565b949350505050565b6000805481906001600160a01b0316336001600160a01b0316146107855760405162461bcd60e51b8152600401610298906108aa565b50506001600160a01b0316600090815260026020526040902080546001909101549091565b60006107b682846108f6565b9392505050565b60006107b6828461090e565b6000602082840312156107db57600080fd5b81356107b68161093b565b600080604083850312156107f957600080fd5b82356108048161093b565b946020939093013593505050565b60008060006060848603121561082757600080fd5b83356108328161093b565b95602085013595506040909401359392505050565b60006020828403121561085957600080fd5b815180151581146107b657600080fd5b60008060006060848603121561087e57600080fd5b83356108898161093b565b925060208401356108998161093b565b929592945050506040919091013590565b6020808252602c908201527f5365636f6e646172793a2063616c6c6572206973206e6f74207468652070726960408201526b1b585c9e481858d8dbdd5b9d60a21b606082015260800190565b6000821982111561090957610909610925565b500190565b60008282101561092057610920610925565b500390565b634e487b7160e01b600052601160045260246000fd5b6001600160a01b038116811461095057600080fd5b5056fea26469706673582212204666a225d1436eceeed7e332fa77edcf017f0a9ef30b23f1012fe0b4033ee6d464736f6c63430008070033a26469706673582212202db291c21245f0f22a9a7961be37fd1828aa9866dba68e6ba7759e0916edc1ec64736f6c63430008070033a26469706673582212202502bb603e0f2991b99f130ae298238ea402ec2f3e3e7a6e928c368efe6757e364736f6c63430008070033608060405234801561001057600080fd5b50600080546001600160a01b0319163390811790915560408051918252517f4101e71e974f68df5e9730cc223280b41654676bbb052cdcc735c3337e64d2d99181900360200190a1610458806100676000396000f3fe608060405234801561001057600080fd5b50600436106100575760003560e01c80632348238c1461005c57806389b09de714610071578063c2bc80fd14610084578063c6dbdf61146100a2578063fc91a897146100bd575b600080fd5b61006f61006a366004610359565b6100e0565b005b61006f61007f366004610359565b6101d9565b61008c610270565b6040516100999190610389565b60405180910390f35b6000546040516001600160a01b039091168152602001610099565b6100d06100cb366004610359565b610306565b6040519015158152602001610099565b6000546001600160a01b0316336001600160a01b03161461011c5760405162461bcd60e51b8152600401610113906103d6565b60405180910390fd5b6001600160a01b0381166101855760405162461bcd60e51b815260206004820152602a60248201527f5365636f6e646172793a206e6577207072696d61727920697320746865207a65604482015269726f206164647265737360b01b6064820152608401610113565b600080546001600160a01b0319166001600160a01b0383169081179091556040519081527f4101e71e974f68df5e9730cc223280b41654676bbb052cdcc735c3337e64d2d99060200160405180910390a150565b6000546001600160a01b0316336001600160a01b03161461020c5760405162461bcd60e51b8152600401610113906103d6565b6001805480820182557fb10e2d527612073b26eecdfd717e6a320cf44b4afac2b0732d9fcbe2b7fa0cf60180546001600160a01b039093166001600160a01b031990931683179055600091825260026020526040909120805460ff19169091179055565b6000546060906001600160a01b0316336001600160a01b0316146102a65760405162461bcd60e51b8152600401610113906103d6565b60018054806020026020016040519081016040528092919081815260200182805480156102fc57602002820191906000526020600020905b81546001600160a01b031681526001909101906020018083116102de575b5050505050905090565b600080546001600160a01b0316336001600160a01b03161461033a5760405162461bcd60e51b8152600401610113906103d6565b506001600160a01b031660009081526002602052604090205460ff1690565b60006020828403121561036b57600080fd5b81356001600160a01b038116811461038257600080fd5b9392505050565b6020808252825182820181905260009190848201906040850190845b818110156103ca5783516001600160a01b0316835292840192918401916001016103a5565b50909695505050505050565b6020808252602c908201527f5365636f6e646172793a2063616c6c6572206973206e6f74207468652070726960408201526b1b585c9e481858d8dbdd5b9d60a21b60608201526080019056fea26469706673582212205a6c49e4e3d033ee4c453d1dfdcc619f924aa4c460228f82e8a17c43b7f098b664736f6c63430008070033",
			"opcodes": "PUSH1 0x80 PUSH1 0x40 MSTORE CALLVALUE DUP1 ISZERO PUSH2 0x10 JUMPI PUSH1 0x0 DUP1 REVERT JUMPDEST POP PUSH2 0x1A CALLER PUSH2 0x68 JUMP JUMPDEST PUSH1 0x40 MLOAD PUSH2 0x26 SWAP1 PUSH2 0xB8 JUMP JUMPDEST PUSH1 0x40 MLOAD DUP1 SWAP2 SUB SWAP1 PUSH1 0x0 CREATE DUP1 ISZERO DUP1 ISZERO PUSH2 0x42 JUMPI RETURNDATASIZE PUSH1 0x0 DUP1 RETURNDATACOPY RETURNDATASIZE PUSH1 0x0 REVERT JUMPDEST POP PUSH1 0x1 DUP1 SLOAD PUSH1 0x1 PUSH1 0x1 PUSH1 0xA0 SHL SUB NOT AND PUSH1 0x1 PUSH1 0x1 PUSH1 0xA0 SHL SUB SWAP3 SWAP1 SWAP3 AND SWAP2 SWAP1 SWAP2 OR SWAP1 SSTORE PUSH2 0xC5 JUMP JUMPDEST PUSH1 0x0 DUP1 SLOAD PUSH1 0x1 PUSH1 0x1 PUSH1 0xA0 SHL SUB DUP4 DUP2 AND PUSH1 0x1 PUSH1 0x1 PUSH1 0xA0 SHL SUB NOT DUP4 AND DUP2 OR DUP5 SSTORE PUSH1 0x40 MLOAD SWAP2 SWAP1 SWAP3 AND SWAP3 DUP4 SWAP2 PUSH32 0x8BE0079C531659141344CD1FD0A4F28419497F9722A3DAAFE3B4186F6B6457E0 SWAP2 SWAP1 LOG3 POP POP JUMP JUMPDEST PUSH2 0x4BF DUP1 PUSH2 0x4E18 DUP4 CODECOPY ADD SWAP1 JUMP JUMPDEST PUSH2 0x4D44 DUP1 PUSH2 0xD4 PUSH1 0x0 CODECOPY PUSH1 0x0 RETURN INVALID PUSH1 0x80 PUSH1 0x40 MSTORE CALLVALUE DUP1 ISZERO PUSH2 0x10 JUMPI PUSH1 0x0 DUP1 REVERT JUMPDEST POP PUSH1 0x4 CALLDATASIZE LT PUSH2 0x93 JUMPI PUSH1 0x0 CALLDATALOAD PUSH1 0xE0 SHR DUP1 PUSH4 0xC2722ECC GT PUSH2 0x66 JUMPI DUP1 PUSH4 0xC2722ECC EQ PUSH2 0xF2 JUMPI DUP1 PUSH4 0xC2BC80FD EQ PUSH2 0xFA JUMPI DUP1 PUSH4 0xF2FDE38B EQ PUSH2 0x10F JUMPI DUP1 PUSH4 0xF523E775 EQ PUSH2 0x122 JUMPI DUP1 PUSH4 0xFC91A897 EQ PUSH2 0x135 JUMPI PUSH1 0x0 DUP1 REVERT JUMPDEST DUP1 PUSH4 0x2348238C EQ PUSH2 0x98 JUMPI DUP1 PUSH4 0x715018A6 EQ PUSH2 0xAD JUMPI DUP1 PUSH4 0x8DA5CB5B EQ PUSH2 0xB5 JUMPI DUP1 PUSH4 0xB82364FF EQ PUSH2 0xDF JUMPI JUMPDEST PUSH1 0x0 DUP1 REVERT JUMPDEST PUSH2 0xAB PUSH2 0xA6 CALLDATASIZE PUSH1 0x4 PUSH2 0xB0D JUMP JUMPDEST PUSH2 0x158 JUMP JUMPDEST STOP JUMPDEST PUSH2 0xAB PUSH2 0x1C2 JUMP JUMPDEST PUSH1 0x0 SLOAD PUSH1 0x1 PUSH1 0x1 PUSH1 0xA0 SHL SUB AND JUMPDEST PUSH1 0x40 MLOAD PUSH1 0x1 PUSH1 0x1 PUSH1 0xA0 SHL SUB SWAP1 SWAP2 AND DUP2 MSTORE PUSH1 0x20 ADD JUMPDEST PUSH1 0x40 MLOAD DUP1 SWAP2 SUB SWAP1 RETURN JUMPDEST PUSH2 0xAB PUSH2 0xED CALLDATASIZE PUSH1 0x4 PUSH2 0xB4E JUMP JUMPDEST PUSH2 0x1CC JUMP JUMPDEST PUSH2 0xC2 PUSH2 0x86C JUMP JUMPDEST PUSH2 0x102 PUSH2 0x886 JUMP JUMPDEST PUSH1 0x40 MLOAD PUSH2 0xD6 SWAP2 SWAP1 PUSH2 0xE1C JUMP JUMPDEST PUSH2 0xAB PUSH2 0x11D CALLDATASIZE PUSH1 0x4 PUSH2 0xB0D JUMP JUMPDEST PUSH2 0x90C JUMP JUMPDEST PUSH2 0xAB PUSH2 0x130 CALLDATASIZE PUSH1 0x4 PUSH2 0xB0D JUMP JUMPDEST PUSH2 0x985 JUMP JUMPDEST PUSH2 0x148 PUSH2 0x143 CALLDATASIZE PUSH1 0x4 PUSH2 0xB0D JUMP JUMPDEST PUSH2 0x9AF JUMP JUMPDEST PUSH1 0x40 MLOAD SWAP1 ISZERO ISZERO DUP2 MSTORE PUSH1 0x20 ADD PUSH2 0xD6 JUMP JUMPDEST PUSH2 0x160 PUSH2 0xA33 JUMP JUMPDEST PUSH1 0x1 SLOAD PUSH1 0x40 MLOAD PUSH4 0x8D208E3 PUSH1 0xE2 SHL DUP2 MSTORE PUSH1 0x1 PUSH1 0x1 PUSH1 0xA0 SHL SUB DUP4 DUP2 AND PUSH1 0x4 DUP4 ADD MSTORE SWAP1 SWAP2 AND SWAP1 PUSH4 0x2348238C SWAP1 PUSH1 0x24 ADD PUSH1 0x0 PUSH1 0x40 MLOAD DUP1 DUP4 SUB DUP2 PUSH1 0x0 DUP8 DUP1 EXTCODESIZE ISZERO DUP1 ISZERO PUSH2 0x1A7 JUMPI PUSH1 0x0 DUP1 REVERT JUMPDEST POP GAS CALL ISZERO DUP1 ISZERO PUSH2 0x1BB JUMPI RETURNDATASIZE PUSH1 0x0 DUP1 RETURNDATACOPY RETURNDATASIZE PUSH1 0x0 REVERT JUMPDEST POP POP POP POP POP JUMP JUMPDEST PUSH2 0x1CA PUSH2 0xA33 JUMP JUMPDEST JUMP JUMPDEST PUSH1 0x40 DUP1 MLOAD PUSH2 0x1C0 DUP2 ADD DUP3 MSTORE PUSH1 0x1 PUSH1 0x1 PUSH1 0xA0 SHL SUB DUP1 DUP15 AND DUP1 DUP4 MSTORE DUP14 DUP3 AND PUSH1 0x20 DUP5 ADD MSTORE PUSH1 0x12 SWAP4 DUP4 ADD DUP5 SWAP1 MSTORE PUSH1 0x60 DUP4 ADD SWAP4 SWAP1 SWAP4 MSTORE PUSH1 0x1 PUSH1 0x80 DUP4 ADD MSTORE PUSH1 0xA0 DUP3 ADD DUP13 SWAP1 MSTORE PUSH1 0xC0 DUP3 ADD DUP12 SWAP1 MSTORE PUSH2 0xFFFF DUP1 DUP12 AND PUSH1 0xE0 DUP5 ADD MSTORE DUP10 DUP2 AND PUSH2 0x100 DUP5 ADD MSTORE PUSH2 0x120 DUP4 ADD DUP10 SWAP1 MSTORE DUP8 AND PUSH2 0x140 DUP4 ADD MSTORE DUP6 AND PUSH2 0x160 DUP3 ADD MSTORE PUSH2 0x180 DUP2 ADD DUP5 SWAP1 MSTORE PUSH2 0x1A0 DUP2 ADD DUP4 SWAP1 MSTORE SWAP1 ISZERO DUP1 ISZERO SWAP1 PUSH2 0x265 JUMPI POP PUSH1 0x1 PUSH1 0x1 PUSH1 0xA0 SHL SUB DUP12 AND ISZERO ISZERO JUMPDEST PUSH2 0x2AE JUMPI PUSH1 0x40 MLOAD PUSH3 0x461BCD PUSH1 0xE5 SHL DUP2 MSTORE PUSH1 0x20 PUSH1 0x4 DUP3 ADD MSTORE PUSH1 0x15 PUSH1 0x24 DUP3 ADD MSTORE PUSH21 0x546F6B656E2061646472657373206973207A65726F PUSH1 0x58 SHL PUSH1 0x44 DUP3 ADD MSTORE PUSH1 0x64 ADD JUMPDEST PUSH1 0x40 MLOAD DUP1 SWAP2 SUB SWAP1 REVERT JUMPDEST PUSH1 0x0 DUP10 GT PUSH2 0x2F7 JUMPI PUSH1 0x40 MLOAD PUSH3 0x461BCD PUSH1 0xE5 SHL DUP2 MSTORE PUSH1 0x20 PUSH1 0x4 DUP3 ADD MSTORE PUSH1 0x16 PUSH1 0x24 DUP3 ADD MSTORE PUSH22 0x109D5E481C1C9A58D9481A5CC81A5B98DBDC9C9958DD PUSH1 0x52 SHL PUSH1 0x44 DUP3 ADD MSTORE PUSH1 0x64 ADD PUSH2 0x2A5 JUMP JUMPDEST DUP1 MLOAD PUSH1 0x40 MLOAD PUSH1 0x0 SWAP1 ADDRESS SWAP1 CALLER SWAP1 PUSH2 0x30C SWAP1 PUSH2 0xADD JUMP JUMPDEST PUSH1 0x1 PUSH1 0x1 PUSH1 0xA0 SHL SUB SWAP3 DUP4 AND DUP2 MSTORE SWAP2 AND PUSH1 0x20 DUP3 ADD MSTORE PUSH1 0x40 ADD PUSH1 0x40 MLOAD DUP1 SWAP2 SUB SWAP1 PUSH1 0x0 CREATE DUP1 ISZERO DUP1 ISZERO PUSH2 0x33F JUMPI RETURNDATASIZE PUSH1 0x0 DUP1 RETURNDATACOPY RETURNDATASIZE PUSH1 0x0 REVERT JUMPDEST POP PUSH1 0x40 MLOAD PUSH4 0x2010D7F1 PUSH1 0xE2 SHL DUP2 MSTORE SWAP1 SWAP2 POP PUSH1 0x1 PUSH1 0x1 PUSH1 0xA0 SHL SUB DUP3 AND SWAP1 PUSH4 0x80435FC4 SWAP1 PUSH2 0x36F SWAP1 DUP7 SWAP1 PUSH1 0x4 ADD PUSH2 0xE69 JUMP JUMPDEST PUSH1 0x0 PUSH1 0x40 MLOAD DUP1 DUP4 SUB DUP2 PUSH1 0x0 DUP8 DUP1 EXTCODESIZE ISZERO DUP1 ISZERO PUSH2 0x389 JUMPI PUSH1 0x0 DUP1 REVERT JUMPDEST POP GAS CALL ISZERO DUP1 ISZERO PUSH2 0x39D JUMPI RETURNDATASIZE PUSH1 0x0 DUP1 RETURNDATACOPY RETURNDATASIZE PUSH1 0x0 REVERT JUMPDEST POP POP POP POP PUSH1 0x0 DUP2 PUSH1 0x1 PUSH1 0x1 PUSH1 0xA0 SHL SUB AND PUSH4 0xD0E30DB0 PUSH1 0x40 MLOAD DUP2 PUSH4 0xFFFFFFFF AND PUSH1 0xE0 SHL DUP2 MSTORE PUSH1 0x4 ADD PUSH1 0x20 PUSH1 0x40 MLOAD DUP1 DUP4 SUB DUP2 DUP7 DUP1 EXTCODESIZE ISZERO DUP1 ISZERO PUSH2 0x3DC JUMPI PUSH1 0x0 DUP1 REVERT JUMPDEST POP GAS STATICCALL ISZERO DUP1 ISZERO PUSH2 0x3F0 JUMPI RETURNDATASIZE PUSH1 0x0 DUP1 RETURNDATACOPY RETURNDATASIZE PUSH1 0x0 REVERT JUMPDEST POP POP POP POP PUSH1 0x40 MLOAD RETURNDATASIZE PUSH1 0x1F NOT PUSH1 0x1F DUP3 ADD AND DUP3 ADD DUP1 PUSH1 0x40 MSTORE POP DUP2 ADD SWAP1 PUSH2 0x414 SWAP2 SWAP1 PUSH2 0xCED JUMP JUMPDEST SWAP1 POP PUSH1 0x0 DUP2 GT PUSH2 0x466 JUMPI PUSH1 0x40 MLOAD PUSH3 0x461BCD PUSH1 0xE5 SHL DUP2 MSTORE PUSH1 0x20 PUSH1 0x4 DUP3 ADD MSTORE PUSH1 0x1A PUSH1 0x24 DUP3 ADD MSTORE PUSH32 0x53656C6C20746F6B656E206465706F736974206973207A65726F000000000000 PUSH1 0x44 DUP3 ADD MSTORE PUSH1 0x64 ADD PUSH2 0x2A5 JUMP JUMPDEST PUSH1 0x40 MLOAD PUSH4 0x70A08231 PUSH1 0xE0 SHL DUP2 MSTORE CALLER PUSH1 0x4 DUP3 ADD MSTORE DUP2 SWAP1 PUSH1 0x1 PUSH1 0x1 PUSH1 0xA0 SHL SUB DUP6 AND SWAP1 PUSH4 0x70A08231 SWAP1 PUSH1 0x24 ADD PUSH1 0x20 PUSH1 0x40 MLOAD DUP1 DUP4 SUB DUP2 DUP7 DUP1 EXTCODESIZE ISZERO DUP1 ISZERO PUSH2 0x4A7 JUMPI PUSH1 0x0 DUP1 REVERT JUMPDEST POP GAS STATICCALL ISZERO DUP1 ISZERO PUSH2 0x4BB JUMPI RETURNDATASIZE PUSH1 0x0 DUP1 RETURNDATACOPY RETURNDATASIZE PUSH1 0x0 REVERT JUMPDEST POP POP POP POP PUSH1 0x40 MLOAD RETURNDATASIZE PUSH1 0x1F NOT PUSH1 0x1F DUP3 ADD AND DUP3 ADD DUP1 PUSH1 0x40 MSTORE POP DUP2 ADD SWAP1 PUSH2 0x4DF SWAP2 SWAP1 PUSH2 0xCED JUMP JUMPDEST LT ISZERO PUSH2 0x538 JUMPI PUSH1 0x40 MLOAD PUSH3 0x461BCD PUSH1 0xE5 SHL DUP2 MSTORE PUSH1 0x20 PUSH1 0x4 DUP3 ADD MSTORE PUSH1 0x22 PUSH1 0x24 DUP3 ADD MSTORE PUSH32 0x53656C6C20746F6B656E2062616C616E636520697320696E7375666669636965 PUSH1 0x44 DUP3 ADD MSTORE PUSH2 0x1B9D PUSH1 0xF2 SHL PUSH1 0x64 DUP3 ADD MSTORE PUSH1 0x84 ADD PUSH2 0x2A5 JUMP JUMPDEST PUSH1 0x40 MLOAD PUSH4 0x6EB1769F PUSH1 0xE1 SHL DUP2 MSTORE CALLER PUSH1 0x4 DUP3 ADD MSTORE ADDRESS PUSH1 0x24 DUP3 ADD MSTORE DUP2 SWAP1 PUSH1 0x1 PUSH1 0x1 PUSH1 0xA0 SHL SUB DUP6 AND SWAP1 PUSH4 0xDD62ED3E SWAP1 PUSH1 0x44 ADD PUSH1 0x20 PUSH1 0x40 MLOAD DUP1 DUP4 SUB DUP2 DUP7 DUP1 EXTCODESIZE ISZERO DUP1 ISZERO PUSH2 0x57F JUMPI PUSH1 0x0 DUP1 REVERT JUMPDEST POP GAS STATICCALL ISZERO DUP1 ISZERO PUSH2 0x593 JUMPI RETURNDATASIZE PUSH1 0x0 DUP1 RETURNDATACOPY RETURNDATASIZE PUSH1 0x0 REVERT JUMPDEST POP POP POP POP PUSH1 0x40 MLOAD RETURNDATASIZE PUSH1 0x1F NOT PUSH1 0x1F DUP3 ADD AND DUP3 ADD DUP1 PUSH1 0x40 MSTORE POP DUP2 ADD SWAP1 PUSH2 0x5B7 SWAP2 SWAP1 PUSH2 0xCED JUMP JUMPDEST LT ISZERO PUSH2 0x611 JUMPI PUSH1 0x40 MLOAD PUSH3 0x461BCD PUSH1 0xE5 SHL DUP2 MSTORE PUSH1 0x20 PUSH1 0x4 DUP3 ADD MSTORE PUSH1 0x24 DUP1 DUP3 ADD MSTORE PUSH32 0x53656C6C20746F6B656E20616C6C6F77616E636520697320696E737566666963 PUSH1 0x44 DUP3 ADD MSTORE PUSH4 0x1A595B9D PUSH1 0xE2 SHL PUSH1 0x64 DUP3 ADD MSTORE PUSH1 0x84 ADD PUSH2 0x2A5 JUMP JUMPDEST DUP3 PUSH1 0x1 PUSH1 0x1 PUSH1 0xA0 SHL SUB AND PUSH4 0x23B872DD CALLER DUP5 PUSH1 0x1 PUSH1 0x1 PUSH1 0xA0 SHL SUB AND PUSH4 0xF4E759EF PUSH1 0x40 MLOAD DUP2 PUSH4 0xFFFFFFFF AND PUSH1 0xE0 SHL DUP2 MSTORE PUSH1 0x4 ADD PUSH1 0x20 PUSH1 0x40 MLOAD DUP1 DUP4 SUB DUP2 DUP7 DUP1 EXTCODESIZE ISZERO DUP1 ISZERO PUSH2 0x65A JUMPI PUSH1 0x0 DUP1 REVERT JUMPDEST POP GAS STATICCALL ISZERO DUP1 ISZERO PUSH2 0x66E JUMPI RETURNDATASIZE PUSH1 0x0 DUP1 RETURNDATACOPY RETURNDATASIZE PUSH1 0x0 REVERT JUMPDEST POP POP POP POP PUSH1 0x40 MLOAD RETURNDATASIZE PUSH1 0x1F NOT PUSH1 0x1F DUP3 ADD AND DUP3 ADD DUP1 PUSH1 0x40 MSTORE POP DUP2 ADD SWAP1 PUSH2 0x692 SWAP2 SWAP1 PUSH2 0xB31 JUMP JUMPDEST PUSH1 0x40 MLOAD PUSH1 0x1 PUSH1 0x1 PUSH1 0xE0 SHL SUB NOT PUSH1 0xE0 DUP6 SWAP1 SHL AND DUP2 MSTORE PUSH1 0x1 PUSH1 0x1 PUSH1 0xA0 SHL SUB SWAP3 DUP4 AND PUSH1 0x4 DUP3 ADD MSTORE SWAP2 AND PUSH1 0x24 DUP3 ADD MSTORE PUSH1 0x44 DUP2 ADD DUP5 SWAP1 MSTORE PUSH1 0x64 ADD PUSH1 0x20 PUSH1 0x40 MLOAD DUP1 DUP4 SUB DUP2 PUSH1 0x0 DUP8 DUP1 EXTCODESIZE ISZERO DUP1 ISZERO PUSH2 0x6E1 JUMPI PUSH1 0x0 DUP1 REVERT JUMPDEST POP GAS CALL ISZERO DUP1 ISZERO PUSH2 0x6F5 JUMPI RETURNDATASIZE PUSH1 0x0 DUP1 RETURNDATACOPY RETURNDATASIZE PUSH1 0x0 REVERT JUMPDEST POP POP POP POP PUSH1 0x40 MLOAD RETURNDATASIZE PUSH1 0x1F NOT PUSH1 0x1F DUP3 ADD AND DUP3 ADD DUP1 PUSH1 0x40 MSTORE POP DUP2 ADD SWAP1 PUSH2 0x719 SWAP2 SWAP1 PUSH2 0xCCB JUMP JUMPDEST PUSH2 0x765 JUMPI PUSH1 0x40 MLOAD PUSH3 0x461BCD PUSH1 0xE5 SHL DUP2 MSTORE PUSH1 0x20 PUSH1 0x4 DUP3 ADD MSTORE PUSH1 0x1F PUSH1 0x24 DUP3 ADD MSTORE PUSH32 0x53656C6C20746F6B656E207472616E7366657246726F6D206661696C75726500 PUSH1 0x44 DUP3 ADD MSTORE PUSH1 0x64 ADD PUSH2 0x2A5 JUMP JUMPDEST PUSH1 0x40 MLOAD PUSH4 0xF2FDE38B PUSH1 0xE0 SHL DUP2 MSTORE CALLER PUSH1 0x4 DUP3 ADD MSTORE PUSH1 0x1 PUSH1 0x1 PUSH1 0xA0 SHL SUB DUP4 AND SWAP1 PUSH4 0xF2FDE38B SWAP1 PUSH1 0x24 ADD PUSH1 0x0 PUSH1 0x40 MLOAD DUP1 DUP4 SUB DUP2 PUSH1 0x0 DUP8 DUP1 EXTCODESIZE ISZERO DUP1 ISZERO PUSH2 0x7A6 JUMPI PUSH1 0x0 DUP1 REVERT JUMPDEST POP GAS CALL ISZERO DUP1 ISZERO PUSH2 0x7BA JUMPI RETURNDATASIZE PUSH1 0x0 DUP1 RETURNDATACOPY RETURNDATASIZE PUSH1 0x0 REVERT JUMPDEST POP POP PUSH1 0x1 SLOAD PUSH1 0x40 MLOAD PUSH4 0x89B09DE7 PUSH1 0xE0 SHL DUP2 MSTORE PUSH1 0x1 PUSH1 0x1 PUSH1 0xA0 SHL SUB DUP1 DUP8 AND PUSH1 0x4 DUP4 ADD MSTORE DUP7 SWAP5 POP SWAP1 SWAP2 AND SWAP2 POP PUSH4 0x89B09DE7 SWAP1 PUSH1 0x24 ADD PUSH1 0x0 PUSH1 0x40 MLOAD DUP1 DUP4 SUB DUP2 PUSH1 0x0 DUP8 DUP1 EXTCODESIZE ISZERO DUP1 ISZERO PUSH2 0x807 JUMPI PUSH1 0x0 DUP1 REVERT JUMPDEST POP GAS CALL ISZERO DUP1 ISZERO PUSH2 0x81B JUMPI RETURNDATASIZE PUSH1 0x0 DUP1 RETURNDATACOPY RETURNDATASIZE PUSH1 0x0 REVERT JUMPDEST POP POP POP POP PUSH32 0x830F55A7B6F4BB64F0D5E04DB727EF322438F008C47F8006DE7FD5E5CF7743AE CALLER DUP3 DUP8 PUSH1 0x40 MLOAD PUSH2 0x852 SWAP4 SWAP3 SWAP2 SWAP1 PUSH2 0xDEE JUMP JUMPDEST PUSH1 0x40 MLOAD DUP1 SWAP2 SUB SWAP1 LOG1 POP POP POP POP POP POP POP POP POP POP POP POP POP POP POP POP JUMP JUMPDEST PUSH1 0x0 PUSH2 0x876 PUSH2 0xA33 JUMP JUMPDEST POP PUSH1 0x1 SLOAD PUSH1 0x1 PUSH1 0x1 PUSH1 0xA0 SHL SUB AND SWAP1 JUMP JUMPDEST PUSH1 0x1 SLOAD PUSH1 0x40 DUP1 MLOAD PUSH4 0xC2BC80FD PUSH1 0xE0 SHL DUP2 MSTORE SWAP1 MLOAD PUSH1 0x60 SWAP3 PUSH1 0x1 PUSH1 0x1 PUSH1 0xA0 SHL SUB AND SWAP2 PUSH4 0xC2BC80FD SWAP2 PUSH1 0x4 DUP1 DUP4 ADD SWAP3 PUSH1 0x0 SWAP3 SWAP2 SWAP1 DUP3 SWAP1 SUB ADD DUP2 DUP7 DUP1 EXTCODESIZE ISZERO DUP1 ISZERO PUSH2 0x8CB JUMPI PUSH1 0x0 DUP1 REVERT JUMPDEST POP GAS STATICCALL ISZERO DUP1 ISZERO PUSH2 0x8DF JUMPI RETURNDATASIZE PUSH1 0x0 DUP1 RETURNDATACOPY RETURNDATASIZE PUSH1 0x0 REVERT JUMPDEST POP POP POP POP PUSH1 0x40 MLOAD RETURNDATASIZE PUSH1 0x0 DUP3 RETURNDATACOPY PUSH1 0x1F RETURNDATASIZE SWAP1 DUP2 ADD PUSH1 0x1F NOT AND DUP3 ADD PUSH1 0x40 MSTORE PUSH2 0x907 SWAP2 SWAP1 DUP2 ADD SWAP1 PUSH2 0xBFF JUMP JUMPDEST SWAP1 POP SWAP1 JUMP JUMPDEST PUSH2 0x914 PUSH2 0xA33 JUMP JUMPDEST PUSH1 0x1 PUSH1 0x1 PUSH1 0xA0 SHL SUB DUP2 AND PUSH2 0x979 JUMPI PUSH1 0x40 MLOAD PUSH3 0x461BCD PUSH1 0xE5 SHL DUP2 MSTORE PUSH1 0x20 PUSH1 0x4 DUP3 ADD MSTORE PUSH1 0x26 PUSH1 0x24 DUP3 ADD MSTORE PUSH32 0x4F776E61626C653A206E6577206F776E657220697320746865207A65726F2061 PUSH1 0x44 DUP3 ADD MSTORE PUSH6 0x646472657373 PUSH1 0xD0 SHL PUSH1 0x64 DUP3 ADD MSTORE PUSH1 0x84 ADD PUSH2 0x2A5 JUMP JUMPDEST PUSH2 0x982 DUP2 PUSH2 0xA8D JUMP JUMPDEST POP JUMP JUMPDEST PUSH2 0x98D PUSH2 0xA33 JUMP JUMPDEST PUSH1 0x1 DUP1 SLOAD PUSH1 0x1 PUSH1 0x1 PUSH1 0xA0 SHL SUB NOT AND PUSH1 0x1 PUSH1 0x1 PUSH1 0xA0 SHL SUB SWAP3 SWAP1 SWAP3 AND SWAP2 SWAP1 SWAP2 OR SWAP1 SSTORE JUMP JUMPDEST PUSH1 0x1 SLOAD PUSH1 0x40 MLOAD PUSH4 0xFC91A897 PUSH1 0xE0 SHL DUP2 MSTORE PUSH1 0x1 PUSH1 0x1 PUSH1 0xA0 SHL SUB DUP4 DUP2 AND PUSH1 0x4 DUP4 ADD MSTORE PUSH1 0x0 SWAP3 AND SWAP1 PUSH4 0xFC91A897 SWAP1 PUSH1 0x24 ADD PUSH1 0x20 PUSH1 0x40 MLOAD DUP1 DUP4 SUB DUP2 DUP7 DUP1 EXTCODESIZE ISZERO DUP1 ISZERO PUSH2 0x9F5 JUMPI PUSH1 0x0 DUP1 REVERT JUMPDEST POP GAS STATICCALL ISZERO DUP1 ISZERO PUSH2 0xA09 JUMPI RETURNDATASIZE PUSH1 0x0 DUP1 RETURNDATACOPY RETURNDATASIZE PUSH1 0x0 REVERT JUMPDEST POP POP POP POP PUSH1 0x40 MLOAD RETURNDATASIZE PUSH1 0x1F NOT PUSH1 0x1F DUP3 ADD AND DUP3 ADD DUP1 PUSH1 0x40 MSTORE POP DUP2 ADD SWAP1 PUSH2 0xA2D SWAP2 SWAP1 PUSH2 0xCCB JUMP JUMPDEST SWAP3 SWAP2 POP POP JUMP JUMPDEST PUSH1 0x0 SLOAD PUSH1 0x1 PUSH1 0x1 PUSH1 0xA0 SHL SUB AND CALLER EQ PUSH2 0x1CA JUMPI PUSH1 0x40 MLOAD PUSH3 0x461BCD PUSH1 0xE5 SHL DUP2 MSTORE PUSH1 0x20 PUSH1 0x4 DUP3 ADD DUP2 SWAP1 MSTORE PUSH1 0x24 DUP3 ADD MSTORE PUSH32 0x4F776E61626C653A2063616C6C6572206973206E6F7420746865206F776E6572 PUSH1 0x44 DUP3 ADD MSTORE PUSH1 0x64 ADD PUSH2 0x2A5 JUMP JUMPDEST PUSH1 0x0 DUP1 SLOAD PUSH1 0x1 PUSH1 0x1 PUSH1 0xA0 SHL SUB DUP4 DUP2 AND PUSH1 0x1 PUSH1 0x1 PUSH1 0xA0 SHL SUB NOT DUP4 AND DUP2 OR DUP5 SSTORE PUSH1 0x40 MLOAD SWAP2 SWAP1 SWAP3 AND SWAP3 DUP4 SWAP2 PUSH32 0x8BE0079C531659141344CD1FD0A4F28419497F9722A3DAAFE3B4186F6B6457E0 SWAP2 SWAP1 LOG3 POP POP JUMP JUMPDEST PUSH2 0x3E6B DUP1 PUSH3 0xEA4 DUP4 CODECOPY ADD SWAP1 JUMP JUMPDEST DUP1 MLOAD PUSH2 0xAF6 DUP2 PUSH2 0xE8E JUMP JUMPDEST SWAP2 SWAP1 POP JUMP JUMPDEST DUP1 CALLDATALOAD PUSH2 0xFFFF DUP2 AND DUP2 EQ PUSH2 0xAF6 JUMPI PUSH1 0x0 DUP1 REVERT JUMPDEST PUSH1 0x0 PUSH1 0x20 DUP3 DUP5 SUB SLT ISZERO PUSH2 0xB1F JUMPI PUSH1 0x0 DUP1 REVERT JUMPDEST DUP2 CALLDATALOAD PUSH2 0xB2A DUP2 PUSH2 0xE8E JUMP JUMPDEST SWAP4 SWAP3 POP POP POP JUMP JUMPDEST PUSH1 0x0 PUSH1 0x20 DUP3 DUP5 SUB SLT ISZERO PUSH2 0xB43 JUMPI PUSH1 0x0 DUP1 REVERT JUMPDEST DUP2 MLOAD PUSH2 0xB2A DUP2 PUSH2 0xE8E JUMP JUMPDEST PUSH1 0x0 DUP1 PUSH1 0x0 DUP1 PUSH1 0x0 DUP1 PUSH1 0x0 DUP1 PUSH1 0x0 DUP1 PUSH1 0x0 PUSH2 0x160 DUP13 DUP15 SUB SLT ISZERO PUSH2 0xB70 JUMPI PUSH1 0x0 DUP1 REVERT JUMPDEST DUP12 CALLDATALOAD PUSH2 0xB7B DUP2 PUSH2 0xE8E JUMP JUMPDEST SWAP11 POP PUSH1 0x20 DUP13 ADD CALLDATALOAD PUSH2 0xB8B DUP2 PUSH2 0xE8E JUMP JUMPDEST SWAP10 POP PUSH1 0x40 DUP13 ADD CALLDATALOAD SWAP9 POP PUSH1 0x60 DUP13 ADD CALLDATALOAD SWAP8 POP PUSH2 0xBA7 PUSH1 0x80 DUP14 ADD PUSH2 0xAFB JUMP JUMPDEST SWAP7 POP PUSH2 0xBB5 PUSH1 0xA0 DUP14 ADD PUSH2 0xAFB JUMP JUMPDEST SWAP6 POP PUSH1 0xC0 DUP13 ADD CALLDATALOAD SWAP5 POP PUSH2 0xBCA PUSH1 0xE0 DUP14 ADD PUSH2 0xAFB JUMP JUMPDEST SWAP4 POP PUSH2 0x100 DUP13 ADD CALLDATALOAD PUSH2 0xBDB DUP2 PUSH2 0xE8E JUMP JUMPDEST DUP1 SWAP4 POP POP PUSH2 0x120 DUP13 ADD CALLDATALOAD SWAP2 POP PUSH2 0x140 DUP13 ADD CALLDATALOAD SWAP1 POP SWAP3 SWAP6 SWAP9 SWAP12 POP SWAP3 SWAP6 SWAP9 SWAP12 SWAP1 SWAP4 SWAP7 SWAP10 POP JUMP JUMPDEST PUSH1 0x0 PUSH1 0x20 DUP1 DUP4 DUP6 SUB SLT ISZERO PUSH2 0xC12 JUMPI PUSH1 0x0 DUP1 REVERT JUMPDEST DUP3 MLOAD PUSH8 0xFFFFFFFFFFFFFFFF DUP1 DUP3 GT ISZERO PUSH2 0xC2A JUMPI PUSH1 0x0 DUP1 REVERT JUMPDEST DUP2 DUP6 ADD SWAP2 POP DUP6 PUSH1 0x1F DUP4 ADD SLT PUSH2 0xC3E JUMPI PUSH1 0x0 DUP1 REVERT JUMPDEST DUP2 MLOAD DUP2 DUP2 GT ISZERO PUSH2 0xC50 JUMPI PUSH2 0xC50 PUSH2 0xE78 JUMP JUMPDEST DUP1 PUSH1 0x5 SHL PUSH1 0x40 MLOAD PUSH1 0x1F NOT PUSH1 0x3F DUP4 ADD AND DUP2 ADD DUP2 DUP2 LT DUP6 DUP3 GT OR ISZERO PUSH2 0xC75 JUMPI PUSH2 0xC75 PUSH2 0xE78 JUMP JUMPDEST PUSH1 0x40 MSTORE DUP3 DUP2 MSTORE DUP6 DUP2 ADD SWAP4 POP DUP5 DUP7 ADD DUP3 DUP7 ADD DUP8 ADD DUP11 LT ISZERO PUSH2 0xC94 JUMPI PUSH1 0x0 DUP1 REVERT JUMPDEST PUSH1 0x0 SWAP6 POP JUMPDEST DUP4 DUP7 LT ISZERO PUSH2 0xCBE JUMPI PUSH2 0xCAA DUP2 PUSH2 0xAEB JUMP JUMPDEST DUP6 MSTORE PUSH1 0x1 SWAP6 SWAP1 SWAP6 ADD SWAP5 SWAP4 DUP7 ADD SWAP4 DUP7 ADD PUSH2 0xC99 JUMP JUMPDEST POP SWAP9 SWAP8 POP POP POP POP POP POP POP POP JUMP JUMPDEST PUSH1 0x0 PUSH1 0x20 DUP3 DUP5 SUB SLT ISZERO PUSH2 0xCDD JUMPI PUSH1 0x0 DUP1 REVERT JUMPDEST DUP2 MLOAD DUP1 ISZERO ISZERO DUP2 EQ PUSH2 0xB2A JUMPI PUSH1 0x0 DUP1 REVERT JUMPDEST PUSH1 0x0 PUSH1 0x20 DUP3 DUP5 SUB SLT ISZERO PUSH2 0xCFF JUMPI PUSH1 0x0 DUP1 REVERT JUMPDEST POP MLOAD SWAP2 SWAP1 POP JUMP JUMPDEST DUP1 MLOAD PUSH1 0x1 PUSH1 0x1 PUSH1 0xA0 SHL SUB AND DUP3 MSTORE PUSH1 0x20 DUP2 ADD MLOAD PUSH2 0xD2D PUSH1 0x20 DUP5 ADD DUP3 PUSH1 0x1 PUSH1 0x1 PUSH1 0xA0 SHL SUB AND SWAP1 MSTORE JUMP JUMPDEST POP PUSH1 0x40 DUP2 ADD MLOAD PUSH2 0xD42 PUSH1 0x40 DUP5 ADD DUP3 PUSH1 0xFF AND SWAP1 MSTORE JUMP JUMPDEST POP PUSH1 0x60 DUP2 ADD MLOAD PUSH2 0xD57 PUSH1 0x60 DUP5 ADD DUP3 PUSH1 0xFF AND SWAP1 MSTORE JUMP JUMPDEST POP PUSH1 0x80 DUP2 ADD MLOAD PUSH2 0xD6B PUSH1 0x80 DUP5 ADD DUP3 ISZERO ISZERO SWAP1 MSTORE JUMP JUMPDEST POP PUSH1 0xA0 DUP2 ADD MLOAD PUSH1 0xA0 DUP4 ADD MSTORE PUSH1 0xC0 DUP2 ADD MLOAD PUSH1 0xC0 DUP4 ADD MSTORE PUSH1 0xE0 DUP2 ADD MLOAD PUSH2 0xD95 PUSH1 0xE0 DUP5 ADD DUP3 PUSH2 0xFFFF AND SWAP1 MSTORE JUMP JUMPDEST POP PUSH2 0x100 DUP2 DUP2 ADD MLOAD PUSH2 0xFFFF SWAP1 DUP2 AND SWAP2 DUP5 ADD SWAP2 SWAP1 SWAP2 MSTORE PUSH2 0x120 DUP1 DUP4 ADD MLOAD SWAP1 DUP5 ADD MSTORE PUSH2 0x140 DUP1 DUP4 ADD MLOAD SWAP1 SWAP2 AND SWAP1 DUP4 ADD MSTORE PUSH2 0x160 DUP1 DUP3 ADD MLOAD PUSH1 0x1 PUSH1 0x1 PUSH1 0xA0 SHL SUB AND SWAP1 DUP4 ADD MSTORE PUSH2 0x180 DUP1 DUP3 ADD MLOAD SWAP1 DUP4 ADD MSTORE PUSH2 0x1A0 SWAP1 DUP2 ADD MLOAD SWAP2 ADD MSTORE JUMP JUMPDEST PUSH1 0x1 PUSH1 0x1 PUSH1 0xA0 SHL SUB DUP5 DUP2 AND DUP3 MSTORE DUP4 AND PUSH1 0x20 DUP3 ADD MSTORE PUSH2 0x200 DUP2 ADD PUSH2 0xE14 PUSH1 0x40 DUP4 ADD DUP5 PUSH2 0xD06 JUMP JUMPDEST SWAP5 SWAP4 POP POP POP POP JUMP JUMPDEST PUSH1 0x20 DUP1 DUP3 MSTORE DUP3 MLOAD DUP3 DUP3 ADD DUP2 SWAP1 MSTORE PUSH1 0x0 SWAP2 SWAP1 DUP5 DUP3 ADD SWAP1 PUSH1 0x40 DUP6 ADD SWAP1 DUP5 JUMPDEST DUP2 DUP2 LT ISZERO PUSH2 0xE5D JUMPI DUP4 MLOAD PUSH1 0x1 PUSH1 0x1 PUSH1 0xA0 SHL SUB AND DUP4 MSTORE SWAP3 DUP5 ADD SWAP3 SWAP2 DUP5 ADD SWAP2 PUSH1 0x1 ADD PUSH2 0xE38 JUMP JUMPDEST POP SWAP1 SWAP7 SWAP6 POP POP POP POP POP POP JUMP JUMPDEST PUSH2 0x1C0 DUP2 ADD PUSH2 0xA2D DUP3 DUP5 PUSH2 0xD06 JUMP JUMPDEST PUSH4 0x4E487B71 PUSH1 0xE0 SHL PUSH1 0x0 MSTORE PUSH1 0x41 PUSH1 0x4 MSTORE PUSH1 0x24 PUSH1 0x0 REVERT JUMPDEST PUSH1 0x1 PUSH1 0x1 PUSH1 0xA0 SHL SUB DUP2 AND DUP2 EQ PUSH2 0x982 JUMPI PUSH1 0x0 DUP1 REVERT INVALID PUSH1 0x80 PUSH1 0x40 MSTORE CALLVALUE DUP1 ISZERO PUSH3 0x11 JUMPI PUSH1 0x0 DUP1 REVERT JUMPDEST POP PUSH1 0x40 MLOAD PUSH3 0x3E6B CODESIZE SUB DUP1 PUSH3 0x3E6B DUP4 CODECOPY DUP2 ADD PUSH1 0x40 DUP2 SWAP1 MSTORE PUSH3 0x34 SWAP2 PUSH3 0xEE JUMP JUMPDEST PUSH3 0x3F CALLER PUSH3 0x81 JUMP JUMPDEST PUSH1 0x4 DUP1 SLOAD PUSH1 0x1 PUSH1 0x1 PUSH1 0xA0 SHL SUB SWAP4 DUP5 AND PUSH1 0x1 PUSH1 0x1 PUSH1 0xA0 SHL SUB NOT SWAP2 DUP3 AND OR SWAP1 SWAP2 SSTORE PUSH1 0x5 DUP1 SLOAD SWAP3 SWAP1 SWAP4 AND SWAP2 DUP2 AND SWAP2 SWAP1 SWAP2 OR SWAP1 SWAP2 SSTORE PUSH1 0x13 DUP1 SLOAD SWAP1 SWAP2 AND ADDRESS OR SWAP1 SSTORE PUSH3 0x126 JUMP JUMPDEST PUSH1 0x0 DUP1 SLOAD PUSH1 0x1 PUSH1 0x1 PUSH1 0xA0 SHL SUB DUP4 DUP2 AND PUSH1 0x1 PUSH1 0x1 PUSH1 0xA0 SHL SUB NOT DUP4 AND DUP2 OR DUP5 SSTORE PUSH1 0x40 MLOAD SWAP2 SWAP1 SWAP3 AND SWAP3 DUP4 SWAP2 PUSH32 0x8BE0079C531659141344CD1FD0A4F28419497F9722A3DAAFE3B4186F6B6457E0 SWAP2 SWAP1 LOG3 POP POP JUMP JUMPDEST DUP1 MLOAD PUSH1 0x1 PUSH1 0x1 PUSH1 0xA0 SHL SUB DUP2 AND DUP2 EQ PUSH3 0xE9 JUMPI PUSH1 0x0 DUP1 REVERT JUMPDEST SWAP2 SWAP1 POP JUMP JUMPDEST PUSH1 0x0 DUP1 PUSH1 0x40 DUP4 DUP6 SUB SLT ISZERO PUSH3 0x102 JUMPI PUSH1 0x0 DUP1 REVERT JUMPDEST PUSH3 0x10D DUP4 PUSH3 0xD1 JUMP JUMPDEST SWAP2 POP PUSH3 0x11D PUSH1 0x20 DUP5 ADD PUSH3 0xD1 JUMP JUMPDEST SWAP1 POP SWAP3 POP SWAP3 SWAP1 POP JUMP JUMPDEST PUSH2 0x3D35 DUP1 PUSH3 0x136 PUSH1 0x0 CODECOPY PUSH1 0x0 RETURN INVALID PUSH1 0x80 PUSH1 0x40 MSTORE PUSH1 0x4 CALLDATASIZE LT PUSH2 0x123 JUMPI PUSH1 0x0 CALLDATALOAD PUSH1 0xE0 SHR DUP1 PUSH4 0xC19D93FB GT PUSH2 0xA0 JUMPI DUP1 PUSH4 0xDADD8C18 GT PUSH2 0x64 JUMPI DUP1 PUSH4 0xDADD8C18 EQ PUSH2 0x48A JUMPI DUP1 PUSH4 0xEA8A1AF0 EQ PUSH2 0x4AA JUMPI DUP1 PUSH4 0xF2FDE38B EQ PUSH2 0x4BF JUMPI DUP1 PUSH4 0xF4E759EF EQ PUSH2 0x4DF JUMPI DUP1 PUSH4 0xF523E775 EQ PUSH2 0x4F4 JUMPI PUSH1 0x0 DUP1 REVERT JUMPDEST DUP1 PUSH4 0xC19D93FB EQ PUSH2 0x406 JUMPI DUP1 PUSH4 0xC2722ECC EQ PUSH2 0x431 JUMPI DUP1 PUSH4 0xD0E30DB0 EQ PUSH2 0x446 JUMPI DUP1 PUSH4 0xD6FEBDE8 EQ PUSH2 0x464 JUMPI DUP1 PUSH4 0xD79875EB EQ PUSH2 0x477 JUMPI PUSH1 0x0 DUP1 REVERT JUMPDEST DUP1 PUSH4 0x80435FC4 GT PUSH2 0xE7 JUMPI DUP1 PUSH4 0x80435FC4 EQ PUSH2 0x24F JUMPI DUP1 PUSH4 0x88E765FF EQ PUSH2 0x262 JUMPI DUP1 PUSH4 0x89035730 EQ PUSH2 0x277 JUMPI DUP1 PUSH4 0x8DA5CB5B EQ PUSH2 0x3BF JUMPI DUP1 PUSH4 0xA7F43779 EQ PUSH2 0x3F1 JUMPI PUSH1 0x0 DUP1 REVERT JUMPDEST DUP1 PUSH4 0x2348238C EQ PUSH2 0x17F JUMPI DUP1 PUSH4 0x3BF3E18E EQ PUSH2 0x1A1 JUMPI DUP1 PUSH4 0x5DAB2420 EQ PUSH2 0x1D1 JUMPI DUP1 PUSH4 0x66D602AE EQ PUSH2 0x210 JUMPI DUP1 PUSH4 0x715018A6 EQ PUSH2 0x23A JUMPI PUSH1 0x0 DUP1 REVERT JUMPDEST CALLDATASIZE PUSH2 0x17A JUMPI PUSH1 0x40 DUP1 MLOAD CALLER DUP2 MSTORE PUSH1 0x20 DUP2 ADD DUP3 SWAP1 MSTORE PUSH1 0x7 DUP2 DUP4 ADD MSTORE PUSH7 0x72656365697665 PUSH1 0xC8 SHL PUSH1 0x60 DUP3 ADD MSTORE SWAP1 MLOAD PUSH32 0xD00CA3F088120B3D909C3A9E01BE91E94A2B001AED9C25FE751C3C7A72DC49BF SWAP2 DUP2 SWAP1 SUB PUSH1 0x80 ADD SWAP1 LOG1 STOP JUMPDEST PUSH1 0x0 DUP1 REVERT JUMPDEST CALLVALUE DUP1 ISZERO PUSH2 0x18B JUMPI PUSH1 0x0 DUP1 REVERT JUMPDEST POP PUSH2 0x19F PUSH2 0x19A CALLDATASIZE PUSH1 0x4 PUSH2 0x2C80 JUMP JUMPDEST PUSH2 0x514 JUMP JUMPDEST STOP JUMPDEST CALLVALUE DUP1 ISZERO PUSH2 0x1AD JUMPI PUSH1 0x0 DUP1 REVERT JUMPDEST POP PUSH1 0xB SLOAD PUSH1 0x1 PUSH1 0xB0 SHL SWAP1 DIV PUSH1 0xFF AND JUMPDEST PUSH1 0x40 MLOAD SWAP1 ISZERO ISZERO DUP2 MSTORE PUSH1 0x20 ADD JUMPDEST PUSH1 0x40 MLOAD DUP1 SWAP2 SUB SWAP1 RETURN JUMPDEST CALLVALUE DUP1 ISZERO PUSH2 0x1DD JUMPI PUSH1 0x0 DUP1 REVERT JUMPDEST POP PUSH2 0x1E6 PUSH2 0x57E JUMP JUMPDEST PUSH1 0x40 DUP1 MLOAD PUSH1 0x1 PUSH1 0x1 PUSH1 0xA0 SHL SUB SWAP5 DUP6 AND DUP2 MSTORE SWAP3 DUP5 AND PUSH1 0x20 DUP5 ADD MSTORE SWAP3 AND SWAP2 DUP2 ADD SWAP2 SWAP1 SWAP2 MSTORE PUSH1 0x60 ADD PUSH2 0x1C8 JUMP JUMPDEST CALLVALUE DUP1 ISZERO PUSH2 0x21C JUMPI PUSH1 0x0 DUP1 REVERT JUMPDEST POP PUSH2 0x225 PUSH2 0x5B2 JUMP JUMPDEST PUSH1 0x40 DUP1 MLOAD SWAP3 DUP4 MSTORE PUSH1 0x20 DUP4 ADD SWAP2 SWAP1 SWAP2 MSTORE ADD PUSH2 0x1C8 JUMP JUMPDEST CALLVALUE DUP1 ISZERO PUSH2 0x246 JUMPI PUSH1 0x0 DUP1 REVERT JUMPDEST POP PUSH2 0x19F PUSH2 0x5C6 JUMP JUMPDEST PUSH2 0x19F PUSH2 0x25D CALLDATASIZE PUSH1 0x4 PUSH2 0x2CBA JUMP JUMPDEST PUSH2 0x5D0 JUMP JUMPDEST CALLVALUE DUP1 ISZERO PUSH2 0x26E JUMPI PUSH1 0x0 DUP1 REVERT JUMPDEST POP PUSH2 0x225 PUSH2 0x9CE JUMP JUMPDEST CALLVALUE DUP1 ISZERO PUSH2 0x283 JUMPI PUSH1 0x0 DUP1 REVERT JUMPDEST POP PUSH2 0x3B2 PUSH1 0x40 DUP1 MLOAD PUSH2 0x1C0 DUP2 ADD DUP3 MSTORE PUSH1 0x0 DUP1 DUP3 MSTORE PUSH1 0x20 DUP3 ADD DUP2 SWAP1 MSTORE SWAP2 DUP2 ADD DUP3 SWAP1 MSTORE PUSH1 0x60 DUP2 ADD DUP3 SWAP1 MSTORE PUSH1 0x80 DUP2 ADD DUP3 SWAP1 MSTORE PUSH1 0xA0 DUP2 ADD DUP3 SWAP1 MSTORE PUSH1 0xC0 DUP2 ADD DUP3 SWAP1 MSTORE PUSH1 0xE0 DUP2 ADD DUP3 SWAP1 MSTORE PUSH2 0x100 DUP2 ADD DUP3 SWAP1 MSTORE PUSH2 0x120 DUP2 ADD DUP3 SWAP1 MSTORE PUSH2 0x140 DUP2 ADD DUP3 SWAP1 MSTORE PUSH2 0x160 DUP2 ADD DUP3 SWAP1 MSTORE PUSH2 0x180 DUP2 ADD DUP3 SWAP1 MSTORE PUSH2 0x1A0 DUP2 ADD SWAP2 SWAP1 SWAP2 MSTORE POP PUSH1 0x40 DUP1 MLOAD PUSH2 0x1C0 DUP2 ADD DUP3 MSTORE PUSH1 0xA SLOAD PUSH1 0x1 PUSH1 0x1 PUSH1 0xA0 SHL SUB SWAP1 DUP2 AND DUP3 MSTORE PUSH1 0xB SLOAD DUP1 DUP3 AND PUSH1 0x20 DUP5 ADD MSTORE PUSH1 0xFF PUSH1 0x1 PUSH1 0xA0 SHL DUP3 DIV DUP2 AND SWAP5 DUP5 ADD SWAP5 SWAP1 SWAP5 MSTORE PUSH1 0x1 PUSH1 0xA8 SHL DUP2 DIV DUP5 AND PUSH1 0x60 DUP5 ADD MSTORE PUSH1 0x1 PUSH1 0xB0 SHL SWAP1 DIV SWAP1 SWAP3 AND ISZERO ISZERO PUSH1 0x80 DUP3 ADD MSTORE PUSH1 0xC SLOAD PUSH1 0xA0 DUP3 ADD MSTORE PUSH1 0xD SLOAD PUSH1 0xC0 DUP3 ADD MSTORE PUSH1 0xE SLOAD PUSH2 0xFFFF DUP1 DUP3 AND PUSH1 0xE0 DUP5 ADD MSTORE PUSH3 0x10000 SWAP2 DUP3 SWAP1 DIV DUP2 AND PUSH2 0x100 DUP5 ADD MSTORE PUSH1 0xF SLOAD PUSH2 0x120 DUP5 ADD MSTORE PUSH1 0x10 SLOAD SWAP1 DUP2 AND PUSH2 0x140 DUP5 ADD MSTORE DIV SWAP1 SWAP2 AND PUSH2 0x160 DUP3 ADD MSTORE PUSH1 0x11 SLOAD PUSH2 0x180 DUP3 ADD MSTORE PUSH1 0x12 SLOAD PUSH2 0x1A0 DUP3 ADD MSTORE SWAP1 JUMP JUMPDEST PUSH1 0x40 MLOAD PUSH2 0x1C8 SWAP2 SWAP1 PUSH2 0x2FCE JUMP JUMPDEST CALLVALUE DUP1 ISZERO PUSH2 0x3CB JUMPI PUSH1 0x0 DUP1 REVERT JUMPDEST POP PUSH1 0x0 SLOAD PUSH1 0x1 PUSH1 0x1 PUSH1 0xA0 SHL SUB AND JUMPDEST PUSH1 0x40 MLOAD PUSH1 0x1 PUSH1 0x1 PUSH1 0xA0 SHL SUB SWAP1 SWAP2 AND DUP2 MSTORE PUSH1 0x20 ADD PUSH2 0x1C8 JUMP JUMPDEST CALLVALUE DUP1 ISZERO PUSH2 0x3FD JUMPI PUSH1 0x0 DUP1 REVERT JUMPDEST POP PUSH2 0x19F PUSH2 0x9DA JUMP JUMPDEST CALLVALUE DUP1 ISZERO PUSH2 0x412 JUMPI PUSH1 0x0 DUP1 REVERT JUMPDEST POP PUSH2 0x41B PUSH2 0xB16 JUMP JUMPDEST PUSH1 0x40 MLOAD PUSH2 0x1C8 SWAP11 SWAP10 SWAP9 SWAP8 SWAP7 SWAP6 SWAP5 SWAP4 SWAP3 SWAP2 SWAP1 PUSH2 0x30C1 JUMP JUMPDEST CALLVALUE DUP1 ISZERO PUSH2 0x43D JUMPI PUSH1 0x0 DUP1 REVERT JUMPDEST POP PUSH2 0x3D9 PUSH2 0xD23 JUMP JUMPDEST CALLVALUE DUP1 ISZERO PUSH2 0x452 JUMPI PUSH1 0x0 DUP1 REVERT JUMPDEST POP PUSH1 0x6 SLOAD PUSH1 0x40 MLOAD SWAP1 DUP2 MSTORE PUSH1 0x20 ADD PUSH2 0x1C8 JUMP JUMPDEST PUSH2 0x1BC PUSH2 0x472 CALLDATASIZE PUSH1 0x4 PUSH2 0x2E10 JUMP JUMPDEST PUSH2 0xD3D JUMP JUMPDEST PUSH2 0x1BC PUSH2 0x485 CALLDATASIZE PUSH1 0x4 PUSH2 0x2E10 JUMP JUMPDEST PUSH2 0x16EC JUMP JUMPDEST CALLVALUE DUP1 ISZERO PUSH2 0x496 JUMPI PUSH1 0x0 DUP1 REVERT JUMPDEST POP PUSH2 0x19F PUSH2 0x4A5 CALLDATASIZE PUSH1 0x4 PUSH2 0x2DC2 JUMP JUMPDEST PUSH2 0x1F16 JUMP JUMPDEST CALLVALUE DUP1 ISZERO PUSH2 0x4B6 JUMPI PUSH1 0x0 DUP1 REVERT JUMPDEST POP PUSH2 0x19F PUSH2 0x1FBF JUMP JUMPDEST CALLVALUE DUP1 ISZERO PUSH2 0x4CB JUMPI PUSH1 0x0 DUP1 REVERT JUMPDEST POP PUSH2 0x19F PUSH2 0x4DA CALLDATASIZE PUSH1 0x4 PUSH2 0x2C80 JUMP JUMPDEST PUSH2 0x208A JUMP JUMPDEST CALLVALUE DUP1 ISZERO PUSH2 0x4EB JUMPI PUSH1 0x0 DUP1 REVERT JUMPDEST POP PUSH2 0x3D9 PUSH2 0x2103 JUMP JUMPDEST CALLVALUE DUP1 ISZERO PUSH2 0x500 JUMPI PUSH1 0x0 DUP1 REVERT JUMPDEST POP PUSH2 0x19F PUSH2 0x50F CALLDATASIZE PUSH1 0x4 PUSH2 0x2C80 JUMP JUMPDEST PUSH2 0x211D JUMP JUMPDEST PUSH2 0x51C PUSH2 0x2147 JUMP JUMPDEST PUSH1 0x1 SLOAD PUSH1 0x40 MLOAD PUSH4 0x8D208E3 PUSH1 0xE2 SHL DUP2 MSTORE PUSH1 0x1 PUSH1 0x1 PUSH1 0xA0 SHL SUB DUP4 DUP2 AND PUSH1 0x4 DUP4 ADD MSTORE SWAP1 SWAP2 AND SWAP1 PUSH4 0x2348238C SWAP1 PUSH1 0x24 ADD PUSH1 0x0 PUSH1 0x40 MLOAD DUP1 DUP4 SUB DUP2 PUSH1 0x0 DUP8 DUP1 EXTCODESIZE ISZERO DUP1 ISZERO PUSH2 0x563 JUMPI PUSH1 0x0 DUP1 REVERT JUMPDEST POP GAS CALL ISZERO DUP1 ISZERO PUSH2 0x577 JUMPI RETURNDATASIZE PUSH1 0x0 DUP1 RETURNDATACOPY RETURNDATASIZE PUSH1 0x0 REVERT JUMPDEST POP POP POP POP POP JUMP JUMPDEST PUSH1 0x0 DUP1 PUSH1 0x0 PUSH2 0x595 PUSH1 0x0 SLOAD PUSH1 0x1 PUSH1 0x1 PUSH1 0xA0 SHL SUB AND SWAP1 JUMP JUMPDEST PUSH1 0x4 SLOAD PUSH1 0x5 SLOAD SWAP2 SWAP6 PUSH1 0x1 PUSH1 0x1 PUSH1 0xA0 SHL SUB SWAP2 DUP3 AND SWAP6 POP SWAP2 AND SWAP3 POP SWAP1 POP JUMP JUMPDEST PUSH1 0x0 DUP1 PUSH2 0x5BE CALLER PUSH2 0x21A1 JUMP JUMPDEST SWAP2 POP SWAP2 POP SWAP1 SWAP2 JUMP JUMPDEST PUSH2 0x5CE PUSH2 0x2147 JUMP JUMPDEST JUMP JUMPDEST PUSH2 0x5D8 PUSH2 0x2147 JUMP JUMPDEST PUSH1 0x1 SLOAD PUSH1 0x1 PUSH1 0x1 PUSH1 0xA0 SHL SUB AND ISZERO PUSH2 0x62A JUMPI PUSH1 0x40 MLOAD PUSH3 0x461BCD PUSH1 0xE5 SHL DUP2 MSTORE PUSH1 0x20 PUSH1 0x4 DUP3 ADD MSTORE PUSH1 0x11 PUSH1 0x24 DUP3 ADD MSTORE PUSH17 0x53746F7265206973206E6F74207A65726F PUSH1 0x78 SHL PUSH1 0x44 DUP3 ADD MSTORE PUSH1 0x64 ADD JUMPDEST PUSH1 0x40 MLOAD DUP1 SWAP2 SUB SWAP1 REVERT JUMPDEST PUSH1 0x40 MLOAD PUSH2 0x636 SWAP1 PUSH2 0x2C3B JUMP JUMPDEST PUSH1 0x40 MLOAD DUP1 SWAP2 SUB SWAP1 PUSH1 0x0 CREATE DUP1 ISZERO DUP1 ISZERO PUSH2 0x652 JUMPI RETURNDATASIZE PUSH1 0x0 DUP1 RETURNDATACOPY RETURNDATASIZE PUSH1 0x0 REVERT JUMPDEST POP PUSH1 0x1 DUP1 SLOAD PUSH1 0x1 PUSH1 0x1 PUSH1 0xA0 SHL SUB NOT SWAP1 DUP2 AND PUSH1 0x1 PUSH1 0x1 PUSH1 0xA0 SHL SUB SWAP4 DUP5 AND SWAP1 DUP2 OR SWAP1 SWAP3 SSTORE PUSH1 0x14 DUP1 SLOAD DUP3 AND SWAP1 SWAP3 OR SWAP1 SWAP2 SSTORE DUP3 MLOAD PUSH1 0xA DUP1 SLOAD SWAP1 SWAP3 AND SWAP1 DUP4 AND OR SWAP1 SSTORE PUSH1 0x20 DUP3 ADD MLOAD PUSH1 0xB DUP1 SLOAD PUSH1 0x40 DUP6 ADD MLOAD PUSH1 0x60 DUP7 ADD MLOAD PUSH1 0x80 DUP8 ADD MLOAD SWAP5 DUP7 AND PUSH1 0x1 PUSH1 0x1 PUSH1 0xA8 SHL SUB NOT SWAP1 SWAP4 AND SWAP3 SWAP1 SWAP3 OR PUSH1 0x1 PUSH1 0xA0 SHL PUSH1 0xFF SWAP3 DUP4 AND MUL OR PUSH2 0xFFFF PUSH1 0xA8 SHL NOT AND PUSH1 0x1 PUSH1 0xA8 SHL SWAP2 SWAP1 SWAP3 AND MUL PUSH1 0xFF PUSH1 0xB0 SHL NOT AND OR PUSH1 0x1 PUSH1 0xB0 SHL SWAP3 ISZERO ISZERO SWAP3 SWAP1 SWAP3 MUL SWAP2 SWAP1 SWAP2 OR SWAP1 SSTORE PUSH1 0xA0 DUP3 ADD MLOAD PUSH1 0xC SSTORE PUSH1 0xC0 DUP3 ADD MLOAD PUSH1 0xD SSTORE PUSH1 0xE0 DUP3 ADD MLOAD PUSH1 0xE DUP1 SLOAD PUSH2 0x100 DUP6 ADD MLOAD PUSH2 0xFFFF SWAP4 DUP5 AND PUSH4 0xFFFFFFFF NOT SWAP1 SWAP3 AND SWAP2 SWAP1 SWAP2 OR PUSH3 0x10000 SWAP2 DUP5 AND DUP3 MUL OR SWAP1 SWAP2 SSTORE PUSH2 0x120 DUP5 ADD MLOAD PUSH1 0xF SSTORE PUSH2 0x140 DUP5 ADD MLOAD PUSH1 0x10 DUP1 SLOAD PUSH2 0x160 DUP8 ADD MLOAD SWAP3 SWAP1 SWAP5 AND PUSH1 0x1 PUSH1 0x1 PUSH1 0xB0 SHL SUB NOT SWAP1 SWAP5 AND SWAP4 SWAP1 SWAP4 OR SWAP4 AND MUL SWAP2 SWAP1 SWAP2 OR SWAP1 SSTORE PUSH2 0x180 DUP2 ADD MLOAD PUSH1 0x11 SSTORE PUSH2 0x1A0 DUP2 ADD MLOAD PUSH1 0x12 SSTORE PUSH2 0x781 PUSH2 0x2322 JUMP JUMPDEST PUSH1 0x14 DUP1 SLOAD PUSH1 0xFF PUSH1 0xA0 SHL NOT AND PUSH1 0x1 PUSH1 0xA0 SHL DUP4 PUSH1 0x4 DUP2 GT ISZERO PUSH2 0x7A3 JUMPI PUSH2 0x7A3 PUSH2 0x32C7 JUMP JUMPDEST MUL OR SWAP1 SSTORE POP PUSH1 0xA SLOAD PUSH1 0x2 DUP1 SLOAD PUSH1 0x1 PUSH1 0x1 PUSH1 0xA0 SHL SUB NOT AND PUSH1 0x1 PUSH1 0x1 PUSH1 0xA0 SHL SUB SWAP1 SWAP3 AND SWAP2 DUP3 OR SWAP1 SSTORE PUSH1 0x40 DUP1 MLOAD PUSH4 0x313CE567 PUSH1 0xE0 SHL DUP2 MSTORE SWAP1 MLOAD PUSH4 0x313CE567 SWAP2 PUSH1 0x4 DUP1 DUP3 ADD SWAP3 PUSH1 0x20 SWAP3 SWAP1 SWAP2 SWAP1 DUP3 SWAP1 SUB ADD DUP2 DUP7 DUP1 EXTCODESIZE ISZERO DUP1 ISZERO PUSH2 0x7FF JUMPI PUSH1 0x0 DUP1 REVERT JUMPDEST POP GAS STATICCALL ISZERO DUP1 ISZERO PUSH2 0x813 JUMPI RETURNDATASIZE PUSH1 0x0 DUP1 RETURNDATACOPY RETURNDATASIZE PUSH1 0x0 REVERT JUMPDEST POP POP POP POP PUSH1 0x40 MLOAD RETURNDATASIZE PUSH1 0x1F NOT PUSH1 0x1F DUP3 ADD AND DUP3 ADD DUP1 PUSH1 0x40 MSTORE POP DUP2 ADD SWAP1 PUSH2 0x837 SWAP2 SWAP1 PUSH2 0x2E56 JUMP JUMPDEST PUSH1 0xB DUP1 SLOAD PUSH1 0xFF SWAP3 SWAP1 SWAP3 AND PUSH1 0x1 PUSH1 0xA0 SHL MUL PUSH1 0xFF PUSH1 0xA0 SHL NOT DUP4 AND DUP2 OR SWAP1 SWAP2 SSTORE PUSH1 0xA SLOAD PUSH1 0x1 PUSH1 0x1 PUSH1 0xA0 SHL SUB SWAP1 DUP2 AND SWAP2 DUP2 AND SWAP3 AND SWAP2 SWAP1 SWAP2 OR EQ ISZERO PUSH2 0x88A JUMPI PUSH1 0xB DUP1 SLOAD PUSH2 0xFFFF PUSH1 0xA8 SHL NOT AND PUSH1 0x89 PUSH1 0xA9 SHL OR SWAP1 SSTORE PUSH2 0x958 JUMP JUMPDEST PUSH1 0xB DUP1 SLOAD PUSH1 0xFF PUSH1 0xB0 SHL NOT DUP2 AND SWAP1 SWAP2 SSTORE PUSH1 0x40 DUP1 MLOAD PUSH4 0x313CE567 PUSH1 0xE0 SHL DUP2 MSTORE SWAP1 MLOAD PUSH1 0x1 PUSH1 0x1 PUSH1 0xA0 SHL SUB SWAP1 SWAP3 AND SWAP2 PUSH4 0x313CE567 SWAP2 PUSH1 0x4 DUP1 DUP3 ADD SWAP3 PUSH1 0x20 SWAP3 SWAP1 SWAP2 SWAP1 DUP3 SWAP1 SUB ADD DUP2 DUP7 DUP1 EXTCODESIZE ISZERO DUP1 ISZERO PUSH2 0x8DB JUMPI PUSH1 0x0 DUP1 REVERT JUMPDEST POP GAS STATICCALL ISZERO DUP1 ISZERO PUSH2 0x8EF JUMPI RETURNDATASIZE PUSH1 0x0 DUP1 RETURNDATACOPY RETURNDATASIZE PUSH1 0x0 REVERT JUMPDEST POP POP POP POP PUSH1 0x40 MLOAD RETURNDATASIZE PUSH1 0x1F NOT PUSH1 0x1F DUP3 ADD AND DUP3 ADD DUP1 PUSH1 0x40 MSTORE POP DUP2 ADD SWAP1 PUSH2 0x913 SWAP2 SWAP1 PUSH2 0x2E56 JUMP JUMPDEST PUSH1 0xB DUP1 SLOAD PUSH1 0xFF SWAP3 SWAP1 SWAP3 AND PUSH1 0x1 PUSH1 0xA8 SHL MUL PUSH1 0xFF PUSH1 0xA8 SHL NOT DUP4 AND DUP2 OR SWAP1 SWAP2 SSTORE PUSH1 0x3 DUP1 SLOAD PUSH1 0x1 PUSH1 0x1 PUSH1 0xA0 SHL SUB NOT AND PUSH1 0x1 PUSH1 0x1 PUSH1 0xA0 SHL SUB SWAP3 DUP4 AND SWAP3 SWAP1 SWAP4 AND SWAP2 SWAP1 SWAP2 OR SWAP2 SWAP1 SWAP2 OR SWAP1 SSTORE JUMPDEST PUSH2 0x960 PUSH2 0x234A JUMP JUMPDEST PUSH1 0x6 DUP2 SWAP1 SSTORE PUSH1 0x9 SSTORE PUSH32 0x95AD27B63A983F975981F9457D76AE9619C05F68E0A020ACE848990FD814EE17 PUSH2 0x99B PUSH1 0x0 SLOAD PUSH1 0x1 PUSH1 0x1 PUSH1 0xA0 SHL SUB AND SWAP1 JUMP JUMPDEST PUSH1 0x4 SLOAD PUSH1 0x5 SLOAD PUSH1 0x6 SLOAD PUSH1 0x40 MLOAD PUSH2 0x9C3 SWAP5 SWAP4 PUSH1 0x1 PUSH1 0x1 PUSH1 0xA0 SHL SUB SWAP1 DUP2 AND SWAP4 AND SWAP2 SWAP1 PUSH1 0xA SWAP1 PUSH2 0x2EB9 JUMP JUMPDEST PUSH1 0x40 MLOAD DUP1 SWAP2 SUB SWAP1 LOG1 POP JUMP JUMPDEST PUSH1 0x0 DUP1 PUSH2 0x5BE CALLER PUSH2 0x2364 JUMP JUMPDEST PUSH2 0x9E2 PUSH2 0x2147 JUMP JUMPDEST PUSH2 0x9EA PUSH2 0x2447 JUMP JUMPDEST PUSH2 0x9F2 PUSH2 0x24AE JUMP JUMPDEST PUSH1 0x10 SLOAD PUSH2 0xA0D SWAP1 PUSH3 0x10000 SWAP1 DIV PUSH1 0x1 PUSH1 0x1 PUSH1 0xA0 SHL SUB AND PUSH2 0x2587 JUMP JUMPDEST PUSH2 0xA59 JUMPI PUSH1 0x40 MLOAD PUSH3 0x461BCD PUSH1 0xE5 SHL DUP2 MSTORE PUSH1 0x20 PUSH1 0x4 DUP3 ADD MSTORE PUSH1 0x18 PUSH1 0x24 DUP3 ADD MSTORE PUSH32 0x526566756E642062757920746F6B656E206661696C7572650000000000000000 PUSH1 0x44 DUP3 ADD MSTORE PUSH1 0x64 ADD PUSH2 0x621 JUMP JUMPDEST PUSH1 0x10 SLOAD PUSH2 0xA74 SWAP1 PUSH3 0x10000 SWAP1 DIV PUSH1 0x1 PUSH1 0x1 PUSH1 0xA0 SHL SUB AND PUSH2 0x27D9 JUMP JUMPDEST PUSH2 0xABC JUMPI PUSH1 0x40 MLOAD PUSH3 0x461BCD PUSH1 0xE5 SHL DUP2 MSTORE PUSH1 0x20 PUSH1 0x4 DUP3 ADD MSTORE PUSH1 0x19 PUSH1 0x24 DUP3 ADD MSTORE PUSH25 0x526566756E642073656C6C20746F6B656E206661696C757265 PUSH1 0x38 SHL PUSH1 0x44 DUP3 ADD MSTORE PUSH1 0x64 ADD PUSH2 0x621 JUMP JUMPDEST PUSH1 0x14 DUP1 SLOAD PUSH1 0xFF PUSH1 0xA0 SHL NOT AND PUSH1 0x3 PUSH1 0xA0 SHL OR SWAP1 DUP2 SWAP1 SSTORE PUSH1 0x40 MLOAD PUSH32 0xC5B1926826A1A3D3516971A2579CAB66DDFA770959E8C2F1D832386B262E2D86 SWAP2 PUSH2 0xB0C SWAP2 CALLER SWAP2 PUSH1 0x1 PUSH1 0xA0 SHL SWAP1 DIV PUSH1 0xFF AND SWAP1 PUSH2 0x2FB1 JUMP JUMPDEST PUSH1 0x40 MLOAD DUP1 SWAP2 SUB SWAP1 LOG1 JUMP JUMPDEST PUSH1 0x14 SLOAD PUSH1 0xB SLOAD PUSH1 0x0 SWAP2 DUP3 SWAP2 DUP3 SWAP2 DUP3 SWAP2 DUP3 SWAP2 DUP3 SWAP2 DUP3 SWAP2 DUP3 SWAP2 DUP3 SWAP2 DUP3 SWAP2 PUSH1 0x1 PUSH1 0x1 PUSH1 0xA0 SHL SUB SWAP1 SWAP2 AND BALANCE SWAP1 PUSH1 0x1 PUSH1 0xB0 SHL SWAP1 DIV PUSH1 0xFF AND PUSH2 0xBCE JUMPI PUSH1 0x3 SLOAD PUSH1 0x14 SLOAD PUSH1 0x40 MLOAD PUSH4 0x70A08231 PUSH1 0xE0 SHL DUP2 MSTORE PUSH1 0x1 PUSH1 0x1 PUSH1 0xA0 SHL SUB SWAP2 DUP3 AND PUSH1 0x4 DUP3 ADD MSTORE SWAP2 AND SWAP1 PUSH4 0x70A08231 SWAP1 PUSH1 0x24 ADD PUSH1 0x20 PUSH1 0x40 MLOAD DUP1 DUP4 SUB DUP2 DUP7 DUP1 EXTCODESIZE ISZERO DUP1 ISZERO PUSH2 0xB93 JUMPI PUSH1 0x0 DUP1 REVERT JUMPDEST POP GAS STATICCALL ISZERO DUP1 ISZERO PUSH2 0xBA7 JUMPI RETURNDATASIZE PUSH1 0x0 DUP1 RETURNDATACOPY RETURNDATASIZE PUSH1 0x0 REVERT JUMPDEST POP POP POP POP PUSH1 0x40 MLOAD RETURNDATASIZE PUSH1 0x1F NOT PUSH1 0x1F DUP3 ADD AND DUP3 ADD DUP1 PUSH1 0x40 MSTORE POP DUP2 ADD SWAP1 PUSH2 0xBCB SWAP2 SWAP1 PUSH2 0x2DA9 JUMP JUMPDEST SWAP1 POP JUMPDEST PUSH1 0x1 SLOAD PUSH1 0x40 MLOAD PUSH4 0xF5A79767 PUSH1 0xE0 SHL DUP2 MSTORE CALLER PUSH1 0x4 DUP3 ADD MSTORE PUSH1 0x0 SWAP2 DUP3 SWAP2 PUSH1 0x1 PUSH1 0x1 PUSH1 0xA0 SHL SUB SWAP1 SWAP2 AND SWAP1 PUSH4 0xF5A79767 SWAP1 PUSH1 0x24 ADD PUSH1 0x40 DUP1 MLOAD DUP1 DUP4 SUB DUP2 DUP7 DUP1 EXTCODESIZE ISZERO DUP1 ISZERO PUSH2 0xC15 JUMPI PUSH1 0x0 DUP1 REVERT JUMPDEST POP GAS STATICCALL ISZERO DUP1 ISZERO PUSH2 0xC29 JUMPI RETURNDATASIZE PUSH1 0x0 DUP1 RETURNDATACOPY RETURNDATASIZE PUSH1 0x0 REVERT JUMPDEST POP POP POP POP PUSH1 0x40 MLOAD RETURNDATASIZE PUSH1 0x1F NOT PUSH1 0x1F DUP3 ADD AND DUP3 ADD DUP1 PUSH1 0x40 MSTORE POP DUP2 ADD SWAP1 PUSH2 0xC4D SWAP2 SWAP1 PUSH2 0x2E32 JUMP JUMPDEST PUSH1 0xC SLOAD PUSH1 0x7 SLOAD PUSH1 0x8 SLOAD PUSH1 0x6 SLOAD PUSH1 0x9 SLOAD PUSH1 0x2 SLOAD PUSH1 0x14 SLOAD PUSH1 0x40 MLOAD PUSH4 0x70A08231 PUSH1 0xE0 SHL DUP2 MSTORE PUSH1 0x1 PUSH1 0x1 PUSH1 0xA0 SHL SUB SWAP2 DUP3 AND PUSH1 0x4 DUP3 ADD MSTORE SWAP9 SWAP11 POP SWAP7 SWAP9 POP SWAP5 SWAP7 SWAP4 SWAP6 SWAP3 SWAP5 SWAP2 SWAP4 SWAP1 SWAP3 DUP10 SWAP3 DUP10 SWAP3 DUP13 SWAP3 SWAP1 SWAP2 AND SWAP1 PUSH4 0x70A08231 SWAP1 PUSH1 0x24 ADD PUSH1 0x20 PUSH1 0x40 MLOAD DUP1 DUP4 SUB DUP2 DUP7 DUP1 EXTCODESIZE ISZERO DUP1 ISZERO PUSH2 0xCBA JUMPI PUSH1 0x0 DUP1 REVERT JUMPDEST POP GAS STATICCALL ISZERO DUP1 ISZERO PUSH2 0xCCE JUMPI RETURNDATASIZE PUSH1 0x0 DUP1 RETURNDATACOPY RETURNDATASIZE PUSH1 0x0 REVERT JUMPDEST POP POP POP POP PUSH1 0x40 MLOAD RETURNDATASIZE PUSH1 0x1F NOT PUSH1 0x1F DUP3 ADD AND DUP3 ADD DUP1 PUSH1 0x40 MSTORE POP DUP2 ADD SWAP1 PUSH2 0xCF2 SWAP2 SWAP1 PUSH2 0x2DA9 JUMP JUMPDEST PUSH1 0x14 DUP1 SLOAD SWAP1 PUSH2 0x100 EXP SWAP1 DIV PUSH1 0xFF AND SWAP13 POP SWAP13 POP SWAP13 POP SWAP13 POP SWAP13 POP SWAP13 POP SWAP13 POP SWAP13 POP SWAP13 POP SWAP13 POP POP POP POP SWAP1 SWAP2 SWAP3 SWAP4 SWAP5 SWAP6 SWAP7 SWAP8 SWAP9 SWAP10 JUMP JUMPDEST PUSH1 0x0 PUSH2 0xD2D PUSH2 0x2147 JUMP JUMPDEST POP PUSH1 0x1 SLOAD PUSH1 0x1 PUSH1 0x1 PUSH1 0xA0 SHL SUB AND SWAP1 JUMP JUMPDEST PUSH1 0x0 PUSH2 0xD47 PUSH2 0x2447 JUMP JUMPDEST PUSH2 0xD4F PUSH2 0x28AD JUMP JUMPDEST PUSH1 0x14 SLOAD PUSH1 0x1 PUSH1 0xA8 SHL SWAP1 DIV PUSH1 0xFF AND ISZERO PUSH2 0xD9A JUMPI PUSH1 0x40 MLOAD PUSH3 0x461BCD PUSH1 0xE5 SHL DUP2 MSTORE PUSH1 0x20 PUSH1 0x4 DUP3 ADD MSTORE PUSH1 0xE PUSH1 0x24 DUP3 ADD MSTORE PUSH14 0x4E6F2072652D656E7472616E6379 PUSH1 0x90 SHL PUSH1 0x44 DUP3 ADD MSTORE PUSH1 0x64 ADD PUSH2 0x621 JUMP JUMPDEST PUSH1 0x14 DUP1 SLOAD PUSH1 0xFF PUSH1 0xA8 SHL NOT AND PUSH1 0x1 PUSH1 0xA8 SHL OR SWAP1 SSTORE DUP3 ISZERO DUP1 ISZERO SWAP1 PUSH2 0xDBB JUMPI POP DUP2 ISZERO ISZERO JUMPDEST PUSH2 0xDF8 JUMPI PUSH1 0x40 MLOAD PUSH3 0x461BCD PUSH1 0xE5 SHL DUP2 MSTORE PUSH1 0x20 PUSH1 0x4 DUP3 ADD MSTORE PUSH1 0xE PUSH1 0x24 DUP3 ADD MSTORE PUSH14 0x416D6F756E74206973207A65726F PUSH1 0x90 SHL PUSH1 0x44 DUP3 ADD MSTORE PUSH1 0x64 ADD PUSH2 0x621 JUMP JUMPDEST PUSH2 0xE02 DUP4 DUP4 PUSH2 0x294A JUMP JUMPDEST PUSH2 0xE42 JUMPI PUSH1 0x40 MLOAD PUSH3 0x461BCD PUSH1 0xE5 SHL DUP2 MSTORE PUSH1 0x20 PUSH1 0x4 DUP3 ADD MSTORE PUSH1 0x11 PUSH1 0x24 DUP3 ADD MSTORE PUSH17 0xA0E4D2C6CA40D2E640DAD2E6DAC2E8C6D PUSH1 0x7B SHL PUSH1 0x44 DUP3 ADD MSTORE PUSH1 0x64 ADD PUSH2 0x621 JUMP JUMPDEST PUSH2 0xE4C CALLER DUP5 PUSH2 0x2993 JUMP JUMPDEST PUSH2 0xE91 JUMPI PUSH1 0x40 MLOAD PUSH3 0x461BCD PUSH1 0xE5 SHL DUP2 MSTORE PUSH1 0x20 PUSH1 0x4 DUP3 ADD MSTORE PUSH1 0x16 PUSH1 0x24 DUP3 ADD MSTORE PUSH22 0x416D6F756E742065786365656473206D6178696D756D PUSH1 0x50 SHL PUSH1 0x44 DUP3 ADD MSTORE PUSH1 0x64 ADD PUSH2 0x621 JUMP JUMPDEST PUSH1 0x2 SLOAD PUSH1 0x14 SLOAD PUSH1 0x40 MLOAD PUSH4 0x70A08231 PUSH1 0xE0 SHL DUP2 MSTORE PUSH1 0x1 PUSH1 0x1 PUSH1 0xA0 SHL SUB SWAP2 DUP3 AND PUSH1 0x4 DUP3 ADD MSTORE DUP5 SWAP3 SWAP2 SWAP1 SWAP2 AND SWAP1 PUSH4 0x70A08231 SWAP1 PUSH1 0x24 ADD PUSH1 0x20 PUSH1 0x40 MLOAD DUP1 DUP4 SUB DUP2 DUP7 DUP1 EXTCODESIZE ISZERO DUP1 ISZERO PUSH2 0xEDC JUMPI PUSH1 0x0 DUP1 REVERT JUMPDEST POP GAS STATICCALL ISZERO DUP1 ISZERO PUSH2 0xEF0 JUMPI RETURNDATASIZE PUSH1 0x0 DUP1 RETURNDATACOPY RETURNDATASIZE PUSH1 0x0 REVERT JUMPDEST POP POP POP POP PUSH1 0x40 MLOAD RETURNDATASIZE PUSH1 0x1F NOT PUSH1 0x1F DUP3 ADD AND DUP3 ADD DUP1 PUSH1 0x40 MSTORE POP DUP2 ADD SWAP1 PUSH2 0xF14 SWAP2 SWAP1 PUSH2 0x2DA9 JUMP JUMPDEST LT ISZERO PUSH2 0xF6D JUMPI PUSH1 0x40 MLOAD PUSH3 0x461BCD PUSH1 0xE5 SHL DUP2 MSTORE PUSH1 0x20 PUSH1 0x4 DUP3 ADD MSTORE PUSH1 0x22 PUSH1 0x24 DUP3 ADD MSTORE PUSH32 0x53656C6C20746F6B656E2062616C616E636520697320696E7375666669636965 PUSH1 0x44 DUP3 ADD MSTORE PUSH2 0x1B9D PUSH1 0xF2 SHL PUSH1 0x64 DUP3 ADD MSTORE PUSH1 0x84 ADD PUSH2 0x621 JUMP JUMPDEST PUSH1 0x0 PUSH2 0xF78 DUP5 PUSH2 0x29BD JUMP JUMPDEST PUSH1 0xB SLOAD SWAP1 SWAP2 POP PUSH1 0x1 PUSH1 0xB0 SHL SWAP1 DIV PUSH1 0xFF AND ISZERO PUSH2 0x1119 JUMPI DUP4 CALLVALUE EQ PUSH2 0xFD5 JUMPI PUSH1 0x40 MLOAD PUSH3 0x461BCD PUSH1 0xE5 SHL DUP2 MSTORE PUSH1 0x20 PUSH1 0x4 DUP3 ADD MSTORE PUSH1 0x16 PUSH1 0x24 DUP3 ADD MSTORE PUSH22 0x1B5CD9CB9D985B1D59481A5CC81B9BDD081D985B1A59 PUSH1 0x52 SHL PUSH1 0x44 DUP3 ADD MSTORE PUSH1 0x64 ADD PUSH2 0x621 JUMP JUMPDEST PUSH1 0x14 SLOAD PUSH1 0x40 MLOAD PUSH1 0x0 SWAP2 PUSH1 0x1 PUSH1 0x1 PUSH1 0xA0 SHL SUB AND SWAP1 DUP4 SWAP1 DUP4 DUP2 DUP2 DUP2 DUP6 DUP8 GAS CALL SWAP3 POP POP POP RETURNDATASIZE DUP1 PUSH1 0x0 DUP2 EQ PUSH2 0x1022 JUMPI PUSH1 0x40 MLOAD SWAP2 POP PUSH1 0x1F NOT PUSH1 0x3F RETURNDATASIZE ADD AND DUP3 ADD PUSH1 0x40 MSTORE RETURNDATASIZE DUP3 MSTORE RETURNDATASIZE PUSH1 0x0 PUSH1 0x20 DUP5 ADD RETURNDATACOPY PUSH2 0x1027 JUMP JUMPDEST PUSH1 0x60 SWAP2 POP JUMPDEST POP POP SWAP1 POP DUP1 PUSH2 0x106B JUMPI PUSH1 0x40 MLOAD PUSH3 0x461BCD PUSH1 0xE5 SHL DUP2 MSTORE PUSH1 0x20 PUSH1 0x4 DUP3 ADD MSTORE PUSH1 0x10 PUSH1 0x24 DUP3 ADD MSTORE PUSH16 0x5472616E73666572206661696C757265 PUSH1 0x80 SHL PUSH1 0x44 DUP3 ADD MSTORE PUSH1 0x64 ADD PUSH2 0x621 JUMP JUMPDEST PUSH1 0x10 SLOAD PUSH3 0x10000 SWAP1 DIV PUSH1 0x1 PUSH1 0x1 PUSH1 0xA0 SHL SUB AND PUSH2 0x1087 CALLVALUE DUP5 PUSH2 0x29DF JUMP JUMPDEST PUSH1 0x40 MLOAD PUSH1 0x0 DUP2 DUP2 DUP2 DUP6 DUP8 GAS CALL SWAP3 POP POP POP RETURNDATASIZE DUP1 PUSH1 0x0 DUP2 EQ PUSH2 0x10C3 JUMPI PUSH1 0x40 MLOAD SWAP2 POP PUSH1 0x1F NOT PUSH1 0x3F RETURNDATASIZE ADD AND DUP3 ADD PUSH1 0x40 MSTORE RETURNDATASIZE DUP3 MSTORE RETURNDATASIZE PUSH1 0x0 PUSH1 0x20 DUP5 ADD RETURNDATACOPY PUSH2 0x10C8 JUMP JUMPDEST PUSH1 0x60 SWAP2 POP JUMPDEST POP POP DUP1 SWAP2 POP POP DUP1 PUSH2 0x1113 JUMPI PUSH1 0x40 MLOAD PUSH3 0x461BCD PUSH1 0xE5 SHL DUP2 MSTORE PUSH1 0x20 PUSH1 0x4 DUP3 ADD MSTORE PUSH1 0x15 PUSH1 0x24 DUP3 ADD MSTORE PUSH21 0x5472616E73666572207465616D206661696C757265 PUSH1 0x58 SHL PUSH1 0x44 DUP3 ADD MSTORE PUSH1 0x64 ADD PUSH2 0x621 JUMP JUMPDEST POP PUSH2 0x1498 JUMP JUMPDEST PUSH1 0x3 SLOAD PUSH1 0x13 SLOAD PUSH1 0x40 MLOAD PUSH4 0x6EB1769F PUSH1 0xE1 SHL DUP2 MSTORE CALLER PUSH1 0x4 DUP3 ADD MSTORE PUSH1 0x1 PUSH1 0x1 PUSH1 0xA0 SHL SUB SWAP2 DUP3 AND PUSH1 0x24 DUP3 ADD MSTORE DUP7 SWAP3 SWAP2 SWAP1 SWAP2 AND SWAP1 PUSH4 0xDD62ED3E SWAP1 PUSH1 0x44 ADD PUSH1 0x20 PUSH1 0x40 MLOAD DUP1 DUP4 SUB DUP2 DUP7 DUP1 EXTCODESIZE ISZERO DUP1 ISZERO PUSH2 0x116A JUMPI PUSH1 0x0 DUP1 REVERT JUMPDEST POP GAS STATICCALL ISZERO DUP1 ISZERO PUSH2 0x117E JUMPI RETURNDATASIZE PUSH1 0x0 DUP1 RETURNDATACOPY RETURNDATASIZE PUSH1 0x0 REVERT JUMPDEST POP POP POP POP PUSH1 0x40 MLOAD RETURNDATASIZE PUSH1 0x1F NOT PUSH1 0x1F DUP3 ADD AND DUP3 ADD DUP1 PUSH1 0x40 MSTORE POP DUP2 ADD SWAP1 PUSH2 0x11A2 SWAP2 SWAP1 PUSH2 0x2DA9 JUMP JUMPDEST LT ISZERO PUSH2 0x1201 JUMPI PUSH1 0x40 MLOAD PUSH3 0x461BCD PUSH1 0xE5 SHL DUP2 MSTORE PUSH1 0x20 PUSH1 0x4 DUP3 ADD MSTORE PUSH1 0x28 PUSH1 0x24 DUP3 ADD MSTORE PUSH32 0x596F75722062757920746F6B656E20616C6C6F77616E636520697320696E7375 PUSH1 0x44 DUP3 ADD MSTORE PUSH8 0x19999A58DA595B9D PUSH1 0xC2 SHL PUSH1 0x64 DUP3 ADD MSTORE PUSH1 0x84 ADD PUSH2 0x621 JUMP JUMPDEST PUSH1 0x3 SLOAD PUSH1 0x40 MLOAD PUSH4 0x70A08231 PUSH1 0xE0 SHL DUP2 MSTORE CALLER PUSH1 0x4 DUP3 ADD MSTORE DUP6 SWAP2 PUSH1 0x1 PUSH1 0x1 PUSH1 0xA0 SHL SUB AND SWAP1 PUSH4 0x70A08231 SWAP1 PUSH1 0x24 ADD PUSH1 0x20 PUSH1 0x40 MLOAD DUP1 DUP4 SUB DUP2 DUP7 DUP1 EXTCODESIZE ISZERO DUP1 ISZERO PUSH2 0x1244 JUMPI PUSH1 0x0 DUP1 REVERT JUMPDEST POP GAS STATICCALL ISZERO DUP1 ISZERO PUSH2 0x1258 JUMPI RETURNDATASIZE PUSH1 0x0 DUP1 RETURNDATACOPY RETURNDATASIZE PUSH1 0x0 REVERT JUMPDEST POP POP POP POP PUSH1 0x40 MLOAD RETURNDATASIZE PUSH1 0x1F NOT PUSH1 0x1F DUP3 ADD AND DUP3 ADD DUP1 PUSH1 0x40 MSTORE POP DUP2 ADD SWAP1 PUSH2 0x127C SWAP2 SWAP1 PUSH2 0x2DA9 JUMP JUMPDEST LT ISZERO PUSH2 0x12D9 JUMPI PUSH1 0x40 MLOAD PUSH3 0x461BCD PUSH1 0xE5 SHL DUP2 MSTORE PUSH1 0x20 PUSH1 0x4 DUP3 ADD MSTORE PUSH1 0x26 PUSH1 0x24 DUP3 ADD MSTORE PUSH32 0x596F75722062757920746F6B656E2062616C616E636520697320696E73756666 PUSH1 0x44 DUP3 ADD MSTORE PUSH6 0x1A58DA595B9D PUSH1 0xD2 SHL PUSH1 0x64 DUP3 ADD MSTORE PUSH1 0x84 ADD PUSH2 0x621 JUMP JUMPDEST PUSH1 0x3 SLOAD PUSH1 0x14 SLOAD PUSH1 0x40 MLOAD PUSH4 0x23B872DD PUSH1 0xE0 SHL DUP2 MSTORE PUSH1 0x1 PUSH1 0x1 PUSH1 0xA0 SHL SUB SWAP3 DUP4 AND SWAP3 PUSH4 0x23B872DD SWAP3 PUSH2 0x1312 SWAP3 CALLER SWAP3 SWAP1 SWAP2 AND SWAP1 DUP7 SWAP1 PUSH1 0x4 ADD PUSH2 0x2E95 JUMP JUMPDEST PUSH1 0x20 PUSH1 0x40 MLOAD DUP1 DUP4 SUB DUP2 PUSH1 0x0 DUP8 DUP1 EXTCODESIZE ISZERO DUP1 ISZERO PUSH2 0x132C JUMPI PUSH1 0x0 DUP1 REVERT JUMPDEST POP GAS CALL ISZERO DUP1 ISZERO PUSH2 0x1340 JUMPI RETURNDATASIZE PUSH1 0x0 DUP1 RETURNDATACOPY RETURNDATASIZE PUSH1 0x0 REVERT JUMPDEST POP POP POP POP PUSH1 0x40 MLOAD RETURNDATASIZE PUSH1 0x1F NOT PUSH1 0x1F DUP3 ADD AND DUP3 ADD DUP1 PUSH1 0x40 MSTORE POP DUP2 ADD SWAP1 PUSH2 0x1364 SWAP2 SWAP1 PUSH2 0x2C9D JUMP JUMPDEST PUSH2 0x13B0 JUMPI PUSH1 0x40 MLOAD PUSH3 0x461BCD PUSH1 0xE5 SHL DUP2 MSTORE PUSH1 0x20 PUSH1 0x4 DUP3 ADD MSTORE PUSH1 0x1E PUSH1 0x24 DUP3 ADD MSTORE PUSH32 0x42757920746F6B656E207472616E7366657246726F6D206661696C7572650000 PUSH1 0x44 DUP3 ADD MSTORE PUSH1 0x64 ADD PUSH2 0x621 JUMP JUMPDEST PUSH1 0x3 SLOAD PUSH1 0x10 SLOAD PUSH1 0x1 PUSH1 0x1 PUSH1 0xA0 SHL SUB SWAP2 DUP3 AND SWAP2 PUSH4 0x23B872DD SWAP2 CALLER SWAP2 PUSH3 0x10000 SWAP1 SWAP2 DIV AND PUSH2 0x13DC DUP9 DUP7 PUSH2 0x29DF JUMP JUMPDEST PUSH1 0x40 MLOAD DUP5 PUSH4 0xFFFFFFFF AND PUSH1 0xE0 SHL DUP2 MSTORE PUSH1 0x4 ADD PUSH2 0x13FA SWAP4 SWAP3 SWAP2 SWAP1 PUSH2 0x2E95 JUMP JUMPDEST PUSH1 0x20 PUSH1 0x40 MLOAD DUP1 DUP4 SUB DUP2 PUSH1 0x0 DUP8 DUP1 EXTCODESIZE ISZERO DUP1 ISZERO PUSH2 0x1414 JUMPI PUSH1 0x0 DUP1 REVERT JUMPDEST POP GAS CALL ISZERO DUP1 ISZERO PUSH2 0x1428 JUMPI RETURNDATASIZE PUSH1 0x0 DUP1 RETURNDATACOPY RETURNDATASIZE PUSH1 0x0 REVERT JUMPDEST POP POP POP POP PUSH1 0x40 MLOAD RETURNDATASIZE PUSH1 0x1F NOT PUSH1 0x1F DUP3 ADD AND DUP3 ADD DUP1 PUSH1 0x40 MSTORE POP DUP2 ADD SWAP1 PUSH2 0x144C SWAP2 SWAP1 PUSH2 0x2C9D JUMP JUMPDEST PUSH2 0x1498 JUMPI PUSH1 0x40 MLOAD PUSH3 0x461BCD PUSH1 0xE5 SHL DUP2 MSTORE PUSH1 0x20 PUSH1 0x4 DUP3 ADD MSTORE PUSH1 0x1F PUSH1 0x24 DUP3 ADD MSTORE PUSH32 0x42757920746F6B656E207472616E73666572207465616D206661696C75726500 PUSH1 0x44 DUP3 ADD MSTORE PUSH1 0x64 ADD PUSH2 0x621 JUMP JUMPDEST PUSH1 0x1 SLOAD PUSH1 0x2 SLOAD PUSH1 0x40 MLOAD PUSH4 0x7AA9BF6F PUSH1 0xE1 SHL DUP2 MSTORE PUSH1 0x1 PUSH1 0x1 PUSH1 0xA0 SHL SUB SWAP3 DUP4 AND SWAP3 PUSH4 0xF5537EDE SWAP3 PUSH2 0x14D0 SWAP3 SWAP2 AND SWAP1 CALLER SWAP1 DUP9 SWAP1 PUSH1 0x4 ADD PUSH2 0x2E95 JUMP JUMPDEST PUSH1 0x20 PUSH1 0x40 MLOAD DUP1 DUP4 SUB DUP2 PUSH1 0x0 DUP8 DUP1 EXTCODESIZE ISZERO DUP1 ISZERO PUSH2 0x14EA JUMPI PUSH1 0x0 DUP1 REVERT JUMPDEST POP GAS CALL ISZERO DUP1 ISZERO PUSH2 0x14FE JUMPI RETURNDATASIZE PUSH1 0x0 DUP1 RETURNDATACOPY RETURNDATASIZE PUSH1 0x0 REVERT JUMPDEST POP POP POP POP PUSH1 0x40 MLOAD RETURNDATASIZE PUSH1 0x1F NOT PUSH1 0x1F DUP3 ADD AND DUP3 ADD DUP1 PUSH1 0x40 MSTORE POP DUP2 ADD SWAP1 PUSH2 0x1522 SWAP2 SWAP1 PUSH2 0x2C9D JUMP JUMPDEST PUSH2 0x156E JUMPI PUSH1 0x40 MLOAD PUSH3 0x461BCD PUSH1 0xE5 SHL DUP2 MSTORE PUSH1 0x20 PUSH1 0x4 DUP3 ADD MSTORE PUSH1 0x1B PUSH1 0x24 DUP3 ADD MSTORE PUSH32 0x53656C6C20746F6B656E207472616E73666572206661696C7572650000000000 PUSH1 0x44 DUP3 ADD MSTORE PUSH1 0x64 ADD PUSH2 0x621 JUMP JUMPDEST PUSH1 0x7 SLOAD PUSH2 0x157B SWAP1 DUP6 PUSH2 0x29EB JUMP JUMPDEST PUSH1 0x7 SSTORE PUSH1 0x9 SLOAD PUSH2 0x158B SWAP1 DUP5 PUSH2 0x29DF JUMP JUMPDEST PUSH1 0x9 SSTORE PUSH1 0x8 SLOAD PUSH2 0x159B SWAP1 DUP3 PUSH2 0x29EB JUMP JUMPDEST PUSH1 0x8 SSTORE PUSH1 0x1 SLOAD PUSH1 0x40 MLOAD PUSH4 0x6AA05EE3 PUSH1 0xE0 SHL DUP2 MSTORE CALLER PUSH1 0x4 DUP3 ADD MSTORE PUSH1 0x24 DUP2 ADD DUP7 SWAP1 MSTORE PUSH1 0x44 DUP2 ADD DUP6 SWAP1 MSTORE PUSH1 0x1 PUSH1 0x1 PUSH1 0xA0 SHL SUB SWAP1 SWAP2 AND SWAP1 PUSH4 0x6AA05EE3 SWAP1 PUSH1 0x64 ADD PUSH1 0x0 PUSH1 0x40 MLOAD DUP1 DUP4 SUB DUP2 PUSH1 0x0 DUP8 DUP1 EXTCODESIZE ISZERO DUP1 ISZERO PUSH2 0x15F1 JUMPI PUSH1 0x0 DUP1 REVERT JUMPDEST POP GAS CALL ISZERO DUP1 ISZERO PUSH2 0x1605 JUMPI RETURNDATASIZE PUSH1 0x0 DUP1 RETURNDATACOPY RETURNDATASIZE PUSH1 0x0 REVERT JUMPDEST POP POP PUSH1 0x1 SLOAD PUSH1 0x40 MLOAD PUSH4 0x79DA9565 PUSH1 0xE0 SHL DUP2 MSTORE CALLER PUSH1 0x4 DUP3 ADD MSTORE PUSH1 0x24 DUP2 ADD DUP9 SWAP1 MSTORE PUSH1 0x44 DUP2 ADD DUP8 SWAP1 MSTORE PUSH1 0x1 PUSH1 0x1 PUSH1 0xA0 SHL SUB SWAP1 SWAP2 AND SWAP3 POP PUSH4 0x79DA9565 SWAP2 POP PUSH1 0x64 ADD PUSH1 0x0 PUSH1 0x40 MLOAD DUP1 DUP4 SUB DUP2 PUSH1 0x0 DUP8 DUP1 EXTCODESIZE ISZERO DUP1 ISZERO PUSH2 0x165C JUMPI PUSH1 0x0 DUP1 REVERT JUMPDEST POP GAS CALL ISZERO DUP1 ISZERO PUSH2 0x1670 JUMPI RETURNDATASIZE PUSH1 0x0 DUP1 RETURNDATACOPY RETURNDATASIZE PUSH1 0x0 REVERT JUMPDEST POP POP PUSH1 0x7 SLOAD PUSH1 0x9 SLOAD PUSH1 0x8 SLOAD PUSH1 0x40 DUP1 MLOAD CALLER DUP2 MSTORE PUSH1 0x20 DUP2 ADD DUP12 SWAP1 MSTORE SWAP1 DUP2 ADD DUP10 SWAP1 MSTORE PUSH1 0x60 DUP2 ADD SWAP4 SWAP1 SWAP4 MSTORE PUSH1 0x80 DUP4 ADD SWAP2 SWAP1 SWAP2 MSTORE PUSH1 0xA0 DUP3 ADD MSTORE PUSH32 0x178F20A8980B4E6CDC2C84F3EF670F5047F63638F90A8ACC6B724B43F1DA778D SWAP3 POP PUSH1 0xC0 ADD SWAP1 POP JUMPDEST PUSH1 0x40 MLOAD DUP1 SWAP2 SUB SWAP1 LOG1 POP POP PUSH1 0x14 DUP1 SLOAD PUSH1 0xFF PUSH1 0xA8 SHL NOT AND SWAP1 SSTORE POP PUSH1 0x1 SWAP2 SWAP1 POP JUMP JUMPDEST PUSH1 0x0 PUSH2 0x16F6 PUSH2 0x2447 JUMP JUMPDEST PUSH2 0x16FE PUSH2 0x28AD JUMP JUMPDEST PUSH1 0x14 SLOAD PUSH1 0x1 PUSH1 0xA8 SHL SWAP1 DIV PUSH1 0xFF AND ISZERO PUSH2 0x1749 JUMPI PUSH1 0x40 MLOAD PUSH3 0x461BCD PUSH1 0xE5 SHL DUP2 MSTORE PUSH1 0x20 PUSH1 0x4 DUP3 ADD MSTORE PUSH1 0xE PUSH1 0x24 DUP3 ADD MSTORE PUSH14 0x4E6F2072652D656E7472616E6379 PUSH1 0x90 SHL PUSH1 0x44 DUP3 ADD MSTORE PUSH1 0x64 ADD PUSH2 0x621 JUMP JUMPDEST PUSH1 0x14 DUP1 SLOAD PUSH1 0xFF PUSH1 0xA8 SHL NOT AND PUSH1 0x1 PUSH1 0xA8 SHL OR SWAP1 SSTORE DUP3 ISZERO DUP1 ISZERO SWAP1 PUSH2 0x176A JUMPI POP DUP2 ISZERO ISZERO JUMPDEST PUSH2 0x17A7 JUMPI PUSH1 0x40 MLOAD PUSH3 0x461BCD PUSH1 0xE5 SHL DUP2 MSTORE PUSH1 0x20 PUSH1 0x4 DUP3 ADD MSTORE PUSH1 0xE PUSH1 0x24 DUP3 ADD MSTORE PUSH14 0x416D6F756E74206973207A65726F PUSH1 0x90 SHL PUSH1 0x44 DUP3 ADD MSTORE PUSH1 0x64 ADD PUSH2 0x621 JUMP JUMPDEST PUSH2 0x17B1 DUP4 DUP4 PUSH2 0x294A JUMP JUMPDEST PUSH2 0x17F1 JUMPI PUSH1 0x40 MLOAD PUSH3 0x461BCD PUSH1 0xE5 SHL DUP2 MSTORE PUSH1 0x20 PUSH1 0x4 DUP3 ADD MSTORE PUSH1 0x11 PUSH1 0x24 DUP3 ADD MSTORE PUSH17 0xA0E4D2C6CA40D2E640DAD2E6DAC2E8C6D PUSH1 0x7B SHL PUSH1 0x44 DUP3 ADD MSTORE PUSH1 0x64 ADD PUSH2 0x621 JUMP JUMPDEST PUSH2 0x17FB CALLER DUP4 PUSH2 0x29F7 JUMP JUMPDEST PUSH2 0x1840 JUMPI PUSH1 0x40 MLOAD PUSH3 0x461BCD PUSH1 0xE5 SHL DUP2 MSTORE PUSH1 0x20 PUSH1 0x4 DUP3 ADD MSTORE PUSH1 0x16 PUSH1 0x24 DUP3 ADD MSTORE PUSH22 0x416D6F756E742065786365656473206D6178696D756D PUSH1 0x50 SHL PUSH1 0x44 DUP3 ADD MSTORE PUSH1 0x64 ADD PUSH2 0x621 JUMP JUMPDEST PUSH1 0x0 PUSH2 0x184B DUP5 PUSH2 0x2A17 JUMP JUMPDEST SWAP1 POP DUP1 PUSH2 0x1856 PUSH2 0x2A4A JUMP JUMPDEST LT ISZERO PUSH2 0x189E JUMPI PUSH1 0x40 MLOAD PUSH3 0x461BCD PUSH1 0xE5 SHL DUP2 MSTORE PUSH1 0x20 PUSH1 0x4 DUP3 ADD MSTORE PUSH1 0x17 PUSH1 0x24 DUP3 ADD MSTORE PUSH23 0x10985B185B98D9481A5CC81A5B9CDD59999A58DA595B9D PUSH1 0x4A SHL PUSH1 0x44 DUP3 ADD MSTORE PUSH1 0x64 ADD PUSH2 0x621 JUMP JUMPDEST PUSH1 0x2 SLOAD PUSH1 0x13 SLOAD PUSH1 0x40 MLOAD PUSH4 0x6EB1769F PUSH1 0xE1 SHL DUP2 MSTORE CALLER PUSH1 0x4 DUP3 ADD MSTORE PUSH1 0x1 PUSH1 0x1 PUSH1 0xA0 SHL SUB SWAP2 DUP3 AND PUSH1 0x24 DUP3 ADD MSTORE DUP6 SWAP3 SWAP2 SWAP1 SWAP2 AND SWAP1 PUSH4 0xDD62ED3E SWAP1 PUSH1 0x44 ADD PUSH1 0x20 PUSH1 0x40 MLOAD DUP1 DUP4 SUB DUP2 DUP7 DUP1 EXTCODESIZE ISZERO DUP1 ISZERO PUSH2 0x18EF JUMPI PUSH1 0x0 DUP1 REVERT JUMPDEST POP GAS STATICCALL ISZERO DUP1 ISZERO PUSH2 0x1903 JUMPI RETURNDATASIZE PUSH1 0x0 DUP1 RETURNDATACOPY RETURNDATASIZE PUSH1 0x0 REVERT JUMPDEST POP POP POP POP PUSH1 0x40 MLOAD RETURNDATASIZE PUSH1 0x1F NOT PUSH1 0x1F DUP3 ADD AND DUP3 ADD DUP1 PUSH1 0x40 MSTORE POP DUP2 ADD SWAP1 PUSH2 0x1927 SWAP2 SWAP1 PUSH2 0x2DA9 JUMP JUMPDEST LT ISZERO PUSH2 0x1987 JUMPI PUSH1 0x40 MLOAD PUSH3 0x461BCD PUSH1 0xE5 SHL DUP2 MSTORE PUSH1 0x20 PUSH1 0x4 DUP3 ADD MSTORE PUSH1 0x29 PUSH1 0x24 DUP3 ADD MSTORE PUSH32 0x596F75722073656C6C20746F6B656E20616C6C6F77616E636520697320696E73 PUSH1 0x44 DUP3 ADD MSTORE PUSH9 0x1D59999A58DA595B9D PUSH1 0xBA SHL PUSH1 0x64 DUP3 ADD MSTORE PUSH1 0x84 ADD PUSH2 0x621 JUMP JUMPDEST PUSH1 0x2 SLOAD PUSH1 0x40 MLOAD PUSH4 0x70A08231 PUSH1 0xE0 SHL DUP2 MSTORE CALLER PUSH1 0x4 DUP3 ADD MSTORE DUP5 SWAP2 PUSH1 0x1 PUSH1 0x1 PUSH1 0xA0 SHL SUB AND SWAP1 PUSH4 0x70A08231 SWAP1 PUSH1 0x24 ADD PUSH1 0x20 PUSH1 0x40 MLOAD DUP1 DUP4 SUB DUP2 DUP7 DUP1 EXTCODESIZE ISZERO DUP1 ISZERO PUSH2 0x19CA JUMPI PUSH1 0x0 DUP1 REVERT JUMPDEST POP GAS STATICCALL ISZERO DUP1 ISZERO PUSH2 0x19DE JUMPI RETURNDATASIZE PUSH1 0x0 DUP1 RETURNDATACOPY RETURNDATASIZE PUSH1 0x0 REVERT JUMPDEST POP POP POP POP PUSH1 0x40 MLOAD RETURNDATASIZE PUSH1 0x1F NOT PUSH1 0x1F DUP3 ADD AND DUP3 ADD DUP1 PUSH1 0x40 MSTORE POP DUP2 ADD SWAP1 PUSH2 0x1A02 SWAP2 SWAP1 PUSH2 0x2DA9 JUMP JUMPDEST LT ISZERO PUSH2 0x1A60 JUMPI PUSH1 0x40 MLOAD PUSH3 0x461BCD PUSH1 0xE5 SHL DUP2 MSTORE PUSH1 0x20 PUSH1 0x4 DUP3 ADD MSTORE PUSH1 0x27 PUSH1 0x24 DUP3 ADD MSTORE PUSH32 0x596F75722073656C6C20746F6B656E2062616C616E636520697320696E737566 PUSH1 0x44 DUP3 ADD MSTORE PUSH7 0x199A58DA595B9D PUSH1 0xCA SHL PUSH1 0x64 DUP3 ADD MSTORE PUSH1 0x84 ADD PUSH2 0x621 JUMP JUMPDEST PUSH1 0x2 SLOAD PUSH1 0x14 SLOAD PUSH1 0x40 MLOAD PUSH4 0x23B872DD PUSH1 0xE0 SHL DUP2 MSTORE PUSH1 0x1 PUSH1 0x1 PUSH1 0xA0 SHL SUB SWAP3 DUP4 AND SWAP3 PUSH4 0x23B872DD SWAP3 PUSH2 0x1A99 SWAP3 CALLER SWAP3 SWAP1 SWAP2 AND SWAP1 DUP9 SWAP1 PUSH1 0x4 ADD PUSH2 0x2E95 JUMP JUMPDEST PUSH1 0x20 PUSH1 0x40 MLOAD DUP1 DUP4 SUB DUP2 PUSH1 0x0 DUP8 DUP1 EXTCODESIZE ISZERO DUP1 ISZERO PUSH2 0x1AB3 JUMPI PUSH1 0x0 DUP1 REVERT JUMPDEST POP GAS CALL ISZERO DUP1 ISZERO PUSH2 0x1AC7 JUMPI RETURNDATASIZE PUSH1 0x0 DUP1 RETURNDATACOPY RETURNDATASIZE PUSH1 0x0 REVERT JUMPDEST POP POP POP POP PUSH1 0x40 MLOAD RETURNDATASIZE PUSH1 0x1F NOT PUSH1 0x1F DUP3 ADD AND DUP3 ADD DUP1 PUSH1 0x40 MSTORE POP DUP2 ADD SWAP1 PUSH2 0x1AEB SWAP2 SWAP1 PUSH2 0x2C9D JUMP JUMPDEST PUSH2 0x1B37 JUMPI PUSH1 0x40 MLOAD PUSH3 0x461BCD PUSH1 0xE5 SHL DUP2 MSTORE PUSH1 0x20 PUSH1 0x4 DUP3 ADD MSTORE PUSH1 0x1F PUSH1 0x24 DUP3 ADD MSTORE PUSH32 0x53656C6C20746F6B656E207472616E7366657246726F6D206661696C75726500 PUSH1 0x44 DUP3 ADD MSTORE PUSH1 0x64 ADD PUSH2 0x621 JUMP JUMPDEST PUSH1 0xB SLOAD PUSH1 0x1 PUSH1 0xB0 SHL SWAP1 DIV PUSH1 0xFF AND ISZERO PUSH2 0x1C6D JUMPI PUSH1 0x14 SLOAD PUSH1 0x1 PUSH1 0x1 PUSH1 0xA0 SHL SUB AND BALANCE DUP2 GT ISZERO PUSH2 0x1B9F JUMPI PUSH1 0x40 MLOAD PUSH3 0x461BCD PUSH1 0xE5 SHL DUP2 MSTORE PUSH1 0x20 PUSH1 0x4 DUP3 ADD MSTORE PUSH1 0x17 PUSH1 0x24 DUP3 ADD MSTORE PUSH23 0x10985B185B98D9481A5CC81A5B9CDD59999A58DA595B9D PUSH1 0x4A SHL PUSH1 0x44 DUP3 ADD MSTORE PUSH1 0x64 ADD PUSH2 0x621 JUMP JUMPDEST PUSH1 0x1 SLOAD PUSH1 0x40 MLOAD PUSH4 0xA9059CBB PUSH1 0xE0 SHL DUP2 MSTORE CALLER PUSH1 0x4 DUP3 ADD MSTORE PUSH1 0x24 DUP2 ADD DUP4 SWAP1 MSTORE PUSH1 0x1 PUSH1 0x1 PUSH1 0xA0 SHL SUB SWAP1 SWAP2 AND SWAP1 PUSH4 0xA9059CBB SWAP1 PUSH1 0x44 ADD PUSH1 0x20 PUSH1 0x40 MLOAD DUP1 DUP4 SUB DUP2 PUSH1 0x0 DUP8 DUP1 EXTCODESIZE ISZERO DUP1 ISZERO PUSH2 0x1BEB JUMPI PUSH1 0x0 DUP1 REVERT JUMPDEST POP GAS CALL ISZERO DUP1 ISZERO PUSH2 0x1BFF JUMPI RETURNDATASIZE PUSH1 0x0 DUP1 RETURNDATACOPY RETURNDATASIZE PUSH1 0x0 REVERT JUMPDEST POP POP POP POP PUSH1 0x40 MLOAD RETURNDATASIZE PUSH1 0x1F NOT PUSH1 0x1F DUP3 ADD AND DUP3 ADD DUP1 PUSH1 0x40 MSTORE POP DUP2 ADD SWAP1 PUSH2 0x1C23 SWAP2 SWAP1 PUSH2 0x2C9D JUMP JUMPDEST PUSH2 0x1C68 JUMPI PUSH1 0x40 MLOAD PUSH3 0x461BCD PUSH1 0xE5 SHL DUP2 MSTORE PUSH1 0x20 PUSH1 0x4 DUP3 ADD MSTORE PUSH1 0x16 PUSH1 0x24 DUP3 ADD MSTORE PUSH22 0x5472616E73666572206275796572206661696C757265 PUSH1 0x50 SHL PUSH1 0x44 DUP3 ADD MSTORE PUSH1 0x64 ADD PUSH2 0x621 JUMP JUMPDEST PUSH2 0x1E1E JUMP JUMPDEST PUSH1 0x3 SLOAD PUSH1 0x14 SLOAD PUSH1 0x40 MLOAD PUSH4 0x70A08231 PUSH1 0xE0 SHL DUP2 MSTORE PUSH1 0x1 PUSH1 0x1 PUSH1 0xA0 SHL SUB SWAP2 DUP3 AND PUSH1 0x4 DUP3 ADD MSTORE DUP4 SWAP3 SWAP2 SWAP1 SWAP2 AND SWAP1 PUSH4 0x70A08231 SWAP1 PUSH1 0x24 ADD PUSH1 0x20 PUSH1 0x40 MLOAD DUP1 DUP4 SUB DUP2 DUP7 DUP1 EXTCODESIZE ISZERO DUP1 ISZERO PUSH2 0x1CB8 JUMPI PUSH1 0x0 DUP1 REVERT JUMPDEST POP GAS STATICCALL ISZERO DUP1 ISZERO PUSH2 0x1CCC JUMPI RETURNDATASIZE PUSH1 0x0 DUP1 RETURNDATACOPY RETURNDATASIZE PUSH1 0x0 REVERT JUMPDEST POP POP POP POP PUSH1 0x40 MLOAD RETURNDATASIZE PUSH1 0x1F NOT PUSH1 0x1F DUP3 ADD AND DUP3 ADD DUP1 PUSH1 0x40 MSTORE POP DUP2 ADD SWAP1 PUSH2 0x1CF0 SWAP2 SWAP1 PUSH2 0x2DA9 JUMP JUMPDEST LT ISZERO PUSH2 0x1D48 JUMPI PUSH1 0x40 MLOAD PUSH3 0x461BCD PUSH1 0xE5 SHL DUP2 MSTORE PUSH1 0x20 PUSH1 0x4 DUP3 ADD MSTORE PUSH1 0x21 PUSH1 0x24 DUP3 ADD MSTORE PUSH32 0x42757920746F6B656E2062616C616E636520697320696E73756666696369656E PUSH1 0x44 DUP3 ADD MSTORE PUSH1 0x1D PUSH1 0xFA SHL PUSH1 0x64 DUP3 ADD MSTORE PUSH1 0x84 ADD PUSH2 0x621 JUMP JUMPDEST PUSH1 0x1 SLOAD PUSH1 0x3 SLOAD PUSH1 0x40 MLOAD PUSH4 0x7AA9BF6F PUSH1 0xE1 SHL DUP2 MSTORE PUSH1 0x1 PUSH1 0x1 PUSH1 0xA0 SHL SUB SWAP3 DUP4 AND SWAP3 PUSH4 0xF5537EDE SWAP3 PUSH2 0x1D80 SWAP3 SWAP2 AND SWAP1 CALLER SWAP1 DUP7 SWAP1 PUSH1 0x4 ADD PUSH2 0x2E95 JUMP JUMPDEST PUSH1 0x20 PUSH1 0x40 MLOAD DUP1 DUP4 SUB DUP2 PUSH1 0x0 DUP8 DUP1 EXTCODESIZE ISZERO DUP1 ISZERO PUSH2 0x1D9A JUMPI PUSH1 0x0 DUP1 REVERT JUMPDEST POP GAS CALL ISZERO DUP1 ISZERO PUSH2 0x1DAE JUMPI RETURNDATASIZE PUSH1 0x0 DUP1 RETURNDATACOPY RETURNDATASIZE PUSH1 0x0 REVERT JUMPDEST POP POP POP POP PUSH1 0x40 MLOAD RETURNDATASIZE PUSH1 0x1F NOT PUSH1 0x1F DUP3 ADD AND DUP3 ADD DUP1 PUSH1 0x40 MSTORE POP DUP2 ADD SWAP1 PUSH2 0x1DD2 SWAP2 SWAP1 PUSH2 0x2C9D JUMP JUMPDEST PUSH2 0x1E1E JUMPI PUSH1 0x40 MLOAD PUSH3 0x461BCD PUSH1 0xE5 SHL DUP2 MSTORE PUSH1 0x20 PUSH1 0x4 DUP3 ADD DUP2 SWAP1 MSTORE PUSH1 0x24 DUP3 ADD MSTORE PUSH32 0x42757920746F6B656E207472616E73666572206275796572206661696C757265 PUSH1 0x44 DUP3 ADD MSTORE PUSH1 0x64 ADD PUSH2 0x621 JUMP JUMPDEST PUSH1 0x7 SLOAD PUSH2 0x1E2B SWAP1 DUP6 PUSH2 0x29DF JUMP JUMPDEST PUSH1 0x7 SSTORE PUSH1 0x9 SLOAD PUSH2 0x1E3B SWAP1 DUP5 PUSH2 0x29EB JUMP JUMPDEST PUSH1 0x9 SSTORE PUSH1 0x8 SLOAD PUSH2 0x1E4B SWAP1 DUP3 PUSH2 0x29DF JUMP JUMPDEST PUSH1 0x8 SSTORE PUSH1 0x1 SLOAD PUSH1 0x40 MLOAD PUSH4 0xE32FCA3F PUSH1 0xE0 SHL DUP2 MSTORE CALLER PUSH1 0x4 DUP3 ADD MSTORE PUSH1 0x24 DUP2 ADD DUP7 SWAP1 MSTORE PUSH1 0x44 DUP2 ADD DUP6 SWAP1 MSTORE PUSH1 0x1 PUSH1 0x1 PUSH1 0xA0 SHL SUB SWAP1 SWAP2 AND SWAP1 PUSH4 0xE32FCA3F SWAP1 PUSH1 0x64 ADD PUSH1 0x0 PUSH1 0x40 MLOAD DUP1 DUP4 SUB DUP2 PUSH1 0x0 DUP8 DUP1 EXTCODESIZE ISZERO DUP1 ISZERO PUSH2 0x1EA1 JUMPI PUSH1 0x0 DUP1 REVERT JUMPDEST POP GAS CALL ISZERO DUP1 ISZERO PUSH2 0x1EB5 JUMPI RETURNDATASIZE PUSH1 0x0 DUP1 RETURNDATACOPY RETURNDATASIZE PUSH1 0x0 REVERT JUMPDEST POP POP PUSH1 0x7 SLOAD PUSH1 0x9 SLOAD PUSH1 0x8 SLOAD PUSH1 0x40 DUP1 MLOAD CALLER DUP2 MSTORE PUSH1 0x20 DUP2 ADD DUP12 SWAP1 MSTORE SWAP1 DUP2 ADD DUP10 SWAP1 MSTORE PUSH1 0x60 DUP2 ADD SWAP4 SWAP1 SWAP4 MSTORE PUSH1 0x80 DUP4 ADD SWAP2 SWAP1 SWAP2 MSTORE PUSH1 0xA0 DUP3 ADD MSTORE PUSH32 0x20A7FC03B19D7F251CC907F177FF82194C6AEBE9A2B47E1CD734DCB6BF772CC2 SWAP3 POP PUSH1 0xC0 ADD SWAP1 POP PUSH2 0x16CD JUMP JUMPDEST PUSH2 0x1F1E PUSH2 0x2147 JUMP JUMPDEST PUSH2 0x1F26 PUSH2 0x2447 JUMP JUMPDEST PUSH2 0x1F2E PUSH2 0x28FF JUMP JUMPDEST PUSH1 0xD DUP6 SWAP1 SSTORE PUSH1 0xE DUP1 SLOAD PUSH2 0xFFFF DUP7 DUP2 AND PUSH2 0xFFFF NOT SWAP3 DUP4 AND DUP2 OR SWAP1 SWAP4 SSTORE PUSH1 0xF DUP7 SWAP1 SSTORE PUSH1 0x10 DUP1 SLOAD SWAP2 DUP7 AND SWAP2 SWAP1 SWAP3 AND DUP2 OR SWAP1 SWAP2 SSTORE PUSH1 0x12 DUP4 SWAP1 SSTORE PUSH1 0x40 DUP1 MLOAD CALLER DUP2 MSTORE PUSH1 0x20 DUP2 ADD DUP10 SWAP1 MSTORE SWAP1 DUP2 ADD SWAP3 SWAP1 SWAP3 MSTORE PUSH1 0x60 DUP3 ADD DUP6 SWAP1 MSTORE PUSH1 0x80 DUP3 ADD MSTORE PUSH1 0xA0 DUP2 ADD DUP3 SWAP1 MSTORE PUSH32 0xA8B16E07B45DFFC2932E0802241BE3440DDE875279AADAC4329F00B494DC495E SWAP1 PUSH1 0xC0 ADD PUSH1 0x40 MLOAD DUP1 SWAP2 SUB SWAP1 LOG1 POP POP POP POP POP JUMP JUMPDEST PUSH2 0x1FC7 PUSH2 0x2147 JUMP JUMPDEST PUSH2 0x1FCF PUSH2 0x2447 JUMP JUMPDEST PUSH2 0x1FD7 PUSH2 0x2AF4 JUMP JUMPDEST PUSH1 0x10 SLOAD PUSH2 0x1FF2 SWAP1 PUSH3 0x10000 SWAP1 DIV PUSH1 0x1 PUSH1 0x1 PUSH1 0xA0 SHL SUB AND PUSH2 0x27D9 JUMP JUMPDEST PUSH2 0x203A JUMPI PUSH1 0x40 MLOAD PUSH3 0x461BCD PUSH1 0xE5 SHL DUP2 MSTORE PUSH1 0x20 PUSH1 0x4 DUP3 ADD MSTORE PUSH1 0x19 PUSH1 0x24 DUP3 ADD MSTORE PUSH25 0x526566756E642073656C6C20746F6B656E206661696C757265 PUSH1 0x38 SHL PUSH1 0x44 DUP3 ADD MSTORE PUSH1 0x64 ADD PUSH2 0x621 JUMP JUMPDEST PUSH1 0x14 DUP1 SLOAD PUSH1 0xFF PUSH1 0xA0 SHL NOT AND PUSH1 0x1 PUSH1 0xA2 SHL OR SWAP1 DUP2 SWAP1 SSTORE PUSH1 0x40 MLOAD PUSH32 0xCD8E02743D921FB9BCA767936271B8B93911716C78C1D46C2C6EE6189309D30C SWAP2 PUSH2 0xB0C SWAP2 CALLER SWAP2 PUSH1 0x1 PUSH1 0xA0 SHL SWAP1 DIV PUSH1 0xFF AND SWAP1 PUSH2 0x2FB1 JUMP JUMPDEST PUSH2 0x2092 PUSH2 0x2147 JUMP JUMPDEST PUSH1 0x1 PUSH1 0x1 PUSH1 0xA0 SHL SUB DUP2 AND PUSH2 0x20F7 JUMPI PUSH1 0x40 MLOAD PUSH3 0x461BCD PUSH1 0xE5 SHL DUP2 MSTORE PUSH1 0x20 PUSH1 0x4 DUP3 ADD MSTORE PUSH1 0x26 PUSH1 0x24 DUP3 ADD MSTORE PUSH32 0x4F776E61626C653A206E6577206F776E657220697320746865207A65726F2061 PUSH1 0x44 DUP3 ADD MSTORE PUSH6 0x646472657373 PUSH1 0xD0 SHL PUSH1 0x64 DUP3 ADD MSTORE PUSH1 0x84 ADD PUSH2 0x621 JUMP JUMPDEST PUSH2 0x2100 DUP2 PUSH2 0x2B45 JUMP JUMPDEST POP JUMP JUMPDEST PUSH1 0x0 PUSH2 0x210D PUSH2 0x2147 JUMP JUMPDEST POP PUSH1 0x14 SLOAD PUSH1 0x1 PUSH1 0x1 PUSH1 0xA0 SHL SUB AND SWAP1 JUMP JUMPDEST PUSH2 0x2125 PUSH2 0x2147 JUMP JUMPDEST PUSH1 0x1 DUP1 SLOAD PUSH1 0x1 PUSH1 0x1 PUSH1 0xA0 SHL SUB NOT AND PUSH1 0x1 PUSH1 0x1 PUSH1 0xA0 SHL SUB SWAP3 SWAP1 SWAP3 AND SWAP2 SWAP1 SWAP2 OR SWAP1 SSTORE JUMP JUMPDEST PUSH1 0x0 SLOAD PUSH1 0x1 PUSH1 0x1 PUSH1 0xA0 SHL SUB AND CALLER EQ PUSH2 0x5CE JUMPI PUSH1 0x40 MLOAD PUSH3 0x461BCD PUSH1 0xE5 SHL DUP2 MSTORE PUSH1 0x20 PUSH1 0x4 DUP3 ADD DUP2 SWAP1 MSTORE PUSH1 0x24 DUP3 ADD MSTORE PUSH32 0x4F776E61626C653A2063616C6C6572206973206E6F7420746865206F776E6572 PUSH1 0x44 DUP3 ADD MSTORE PUSH1 0x64 ADD PUSH2 0x621 JUMP JUMPDEST PUSH1 0x1 SLOAD PUSH1 0x40 MLOAD PUSH4 0x1D76DB5B PUSH1 0xE3 SHL DUP2 MSTORE PUSH1 0x1 PUSH1 0x1 PUSH1 0xA0 SHL SUB DUP4 DUP2 AND PUSH1 0x4 DUP4 ADD MSTORE PUSH1 0x0 SWAP3 DUP4 SWAP3 DUP4 SWAP3 SWAP1 SWAP2 AND SWAP1 PUSH4 0xEBB6DAD8 SWAP1 PUSH1 0x24 ADD PUSH1 0x40 DUP1 MLOAD DUP1 DUP4 SUB DUP2 DUP7 DUP1 EXTCODESIZE ISZERO DUP1 ISZERO PUSH2 0x21EC JUMPI PUSH1 0x0 DUP1 REVERT JUMPDEST POP GAS STATICCALL ISZERO DUP1 ISZERO PUSH2 0x2200 JUMPI RETURNDATASIZE PUSH1 0x0 DUP1 RETURNDATACOPY RETURNDATASIZE PUSH1 0x0 REVERT JUMPDEST POP POP POP POP PUSH1 0x40 MLOAD RETURNDATASIZE PUSH1 0x1F NOT PUSH1 0x1F DUP3 ADD AND DUP3 ADD DUP1 PUSH1 0x40 MSTORE POP DUP2 ADD SWAP1 PUSH2 0x2224 SWAP2 SWAP1 PUSH2 0x2E32 JUMP JUMPDEST PUSH1 0x1 SLOAD PUSH1 0x40 MLOAD PUSH4 0xF5A79767 PUSH1 0xE0 SHL DUP2 MSTORE PUSH1 0x1 PUSH1 0x1 PUSH1 0xA0 SHL SUB DUP9 DUP2 AND PUSH1 0x4 DUP4 ADD MSTORE SWAP3 SWAP5 POP PUSH1 0x0 SWAP4 POP SWAP2 AND SWAP1 PUSH4 0xF5A79767 SWAP1 PUSH1 0x24 ADD PUSH1 0x40 DUP1 MLOAD DUP1 DUP4 SUB DUP2 DUP7 DUP1 EXTCODESIZE ISZERO DUP1 ISZERO PUSH2 0x226E JUMPI PUSH1 0x0 DUP1 REVERT JUMPDEST POP GAS STATICCALL ISZERO DUP1 ISZERO PUSH2 0x2282 JUMPI RETURNDATASIZE PUSH1 0x0 DUP1 RETURNDATACOPY RETURNDATASIZE PUSH1 0x0 REVERT JUMPDEST POP POP POP POP PUSH1 0x40 MLOAD RETURNDATASIZE PUSH1 0x1F NOT PUSH1 0x1F DUP3 ADD AND DUP3 ADD DUP1 PUSH1 0x40 MSTORE POP DUP2 ADD SWAP1 PUSH2 0x22A6 SWAP2 SWAP1 PUSH2 0x2E32 JUMP JUMPDEST PUSH1 0x10 SLOAD SWAP1 SWAP3 POP PUSH1 0x0 SWAP2 POP PUSH2 0x22ED SWAP1 PUSH2 0x22E7 SWAP1 DUP6 SWAP1 PUSH2 0x22E1 SWAP1 PUSH2 0x2710 SWAP1 PUSH2 0x22D0 SWAP1 PUSH2 0xFFFF AND DUP5 PUSH2 0x327B JUMP JUMPDEST PUSH2 0x22DA SWAP2 SWAP1 PUSH2 0x316B JUMP JUMPDEST DUP7 SWAP1 PUSH2 0x29EB JUMP JUMPDEST SWAP1 PUSH2 0x29DF JUMP JUMPDEST DUP4 PUSH2 0x2B95 JUMP JUMPDEST SWAP1 POP PUSH1 0x0 PUSH2 0x22FE PUSH1 0x8 SLOAD PUSH1 0x0 PUSH2 0x2BAB JUMP JUMPDEST SWAP2 POP POP PUSH2 0x2315 PUSH1 0x0 PUSH2 0x2310 DUP5 DUP5 PUSH2 0x2B95 JUMP JUMPDEST PUSH2 0x2BAB JUMP JUMPDEST SWAP6 POP SWAP6 POP POP POP POP POP SWAP2 POP SWAP2 JUMP JUMPDEST PUSH1 0x11 SLOAD PUSH1 0x0 SWAP1 TIMESTAMP LT ISZERO PUSH2 0x2335 JUMPI POP PUSH1 0x1 SWAP1 JUMP JUMPDEST PUSH1 0x12 SLOAD TIMESTAMP GT PUSH2 0x2344 JUMPI POP PUSH1 0x2 SWAP1 JUMP JUMPDEST POP PUSH1 0x3 SWAP1 JUMP JUMPDEST PUSH1 0x0 DUP1 PUSH2 0x235D PUSH1 0xA PUSH1 0x2 ADD SLOAD PUSH1 0x0 PUSH2 0x2BAB JUMP JUMPDEST SWAP4 SWAP3 POP POP POP JUMP JUMPDEST PUSH1 0x1 SLOAD PUSH1 0x40 MLOAD PUSH4 0xF5A79767 PUSH1 0xE0 SHL DUP2 MSTORE PUSH1 0x1 PUSH1 0x1 PUSH1 0xA0 SHL SUB DUP4 DUP2 AND PUSH1 0x4 DUP4 ADD MSTORE PUSH1 0x0 SWAP3 DUP4 SWAP3 DUP4 SWAP3 SWAP1 SWAP2 AND SWAP1 PUSH4 0xF5A79767 SWAP1 PUSH1 0x24 ADD PUSH1 0x40 DUP1 MLOAD DUP1 DUP4 SUB DUP2 DUP7 DUP1 EXTCODESIZE ISZERO DUP1 ISZERO PUSH2 0x23AF JUMPI PUSH1 0x0 DUP1 REVERT JUMPDEST POP GAS STATICCALL ISZERO DUP1 ISZERO PUSH2 0x23C3 JUMPI RETURNDATASIZE PUSH1 0x0 DUP1 RETURNDATACOPY RETURNDATASIZE PUSH1 0x0 REVERT JUMPDEST POP POP POP POP PUSH1 0x40 MLOAD RETURNDATASIZE PUSH1 0x1F NOT PUSH1 0x1F DUP3 ADD AND DUP3 ADD DUP1 PUSH1 0x40 MSTORE POP DUP2 ADD SWAP1 PUSH2 0x23E7 SWAP2 SWAP1 PUSH2 0x2E32 JUMP JUMPDEST POP PUSH1 0xF SLOAD SWAP1 SWAP2 POP PUSH1 0x0 SWAP1 PUSH2 0x2413 SWAP1 PUSH2 0x23FF SWAP1 DUP5 PUSH2 0x29DF JUMP JUMPDEST PUSH1 0x7 SLOAD PUSH1 0xC SLOAD PUSH2 0x240E SWAP2 PUSH2 0x29DF JUMP JUMPDEST PUSH2 0x2B95 JUMP JUMPDEST SWAP1 POP PUSH1 0x0 PUSH2 0x2424 PUSH1 0x0 PUSH1 0x9 SLOAD PUSH2 0x2BAB JUMP JUMPDEST POP SWAP1 POP PUSH2 0x243B PUSH2 0x2434 DUP4 DUP4 PUSH2 0x2B95 JUMP JUMPDEST PUSH1 0x0 PUSH2 0x2BAB JUMP JUMPDEST SWAP5 POP SWAP5 POP POP POP POP SWAP2 POP SWAP2 JUMP JUMPDEST PUSH1 0x4 PUSH1 0x14 SLOAD PUSH1 0x1 PUSH1 0xA0 SHL SWAP1 DIV PUSH1 0xFF AND PUSH1 0x4 DUP2 GT ISZERO PUSH2 0x2467 JUMPI PUSH2 0x2467 PUSH2 0x32C7 JUMP JUMPDEST EQ ISZERO PUSH2 0x5CE JUMPI PUSH1 0x40 MLOAD PUSH3 0x461BCD PUSH1 0xE5 SHL DUP2 MSTORE PUSH1 0x20 PUSH1 0x4 DUP3 ADD MSTORE PUSH1 0x16 PUSH1 0x24 DUP3 ADD MSTORE PUSH22 0x10DC9BDDD9199D5B991A5B99C81A5CC818D85B98D95B PUSH1 0x52 SHL PUSH1 0x44 DUP3 ADD MSTORE PUSH1 0x64 ADD PUSH2 0x621 JUMP JUMPDEST PUSH1 0x12 SLOAD TIMESTAMP GT DUP1 PUSH2 0x24C2 JUMPI POP PUSH1 0xC SLOAD PUSH1 0x7 SLOAD LT ISZERO JUMPDEST PUSH2 0x2519 JUMPI PUSH1 0x40 MLOAD PUSH3 0x461BCD PUSH1 0xE5 SHL DUP2 MSTORE PUSH1 0x20 PUSH1 0x4 DUP3 ADD MSTORE PUSH1 0x22 PUSH1 0x24 DUP3 ADD MSTORE PUSH32 0x43726F776466756E64696E6720656E6420636F6E646974696F6E206E6F74206D PUSH1 0x44 DUP3 ADD MSTORE PUSH2 0x195D PUSH1 0xF2 SHL PUSH1 0x64 DUP3 ADD MSTORE PUSH1 0x84 ADD PUSH2 0x621 JUMP JUMPDEST PUSH1 0x3 PUSH1 0x14 SLOAD PUSH1 0x1 PUSH1 0xA0 SHL SWAP1 DIV PUSH1 0xFF AND PUSH1 0x4 DUP2 GT ISZERO PUSH2 0x2539 JUMPI PUSH2 0x2539 PUSH2 0x32C7 JUMP JUMPDEST EQ ISZERO PUSH2 0x5CE JUMPI PUSH1 0x40 MLOAD PUSH3 0x461BCD PUSH1 0xE5 SHL DUP2 MSTORE PUSH1 0x20 PUSH1 0x4 DUP3 ADD MSTORE PUSH1 0x1C PUSH1 0x24 DUP3 ADD MSTORE PUSH32 0x43726F776466756E64696E672073746174757320697320656E64656400000000 PUSH1 0x44 DUP3 ADD MSTORE PUSH1 0x64 ADD PUSH2 0x621 JUMP JUMPDEST PUSH1 0xB SLOAD PUSH1 0x0 SWAP1 PUSH1 0x1 SWAP1 PUSH1 0x1 PUSH1 0xB0 SHL SWAP1 DIV PUSH1 0xFF AND ISZERO PUSH2 0x2643 JUMPI PUSH1 0x14 SLOAD PUSH1 0x1 PUSH1 0x1 PUSH1 0xA0 SHL SUB AND BALANCE ISZERO PUSH2 0x263E JUMPI PUSH1 0x1 SLOAD PUSH1 0x14 SLOAD PUSH1 0x40 MLOAD PUSH4 0xA9059CBB PUSH1 0xE0 SHL DUP2 MSTORE PUSH1 0x1 PUSH1 0x1 PUSH1 0xA0 SHL SUB DUP7 DUP2 AND PUSH1 0x4 DUP4 ADD MSTORE SWAP2 DUP3 AND BALANCE PUSH1 0x24 DUP3 ADD MSTORE SWAP2 AND SWAP1 PUSH4 0xA9059CBB SWAP1 PUSH1 0x44 ADD PUSH1 0x20 PUSH1 0x40 MLOAD DUP1 DUP4 SUB DUP2 PUSH1 0x0 DUP8 DUP1 EXTCODESIZE ISZERO DUP1 ISZERO PUSH2 0x2603 JUMPI PUSH1 0x0 DUP1 REVERT JUMPDEST POP GAS CALL ISZERO DUP1 ISZERO PUSH2 0x2617 JUMPI RETURNDATASIZE PUSH1 0x0 DUP1 RETURNDATACOPY RETURNDATASIZE PUSH1 0x0 REVERT JUMPDEST POP POP POP POP PUSH1 0x40 MLOAD RETURNDATASIZE PUSH1 0x1F NOT PUSH1 0x1F DUP3 ADD AND DUP3 ADD DUP1 PUSH1 0x40 MSTORE POP DUP2 ADD SWAP1 PUSH2 0x263B SWAP2 SWAP1 PUSH2 0x2C9D JUMP JUMPDEST SWAP1 POP JUMPDEST PUSH2 0x27D3 JUMP JUMPDEST PUSH1 0x3 SLOAD PUSH1 0x14 SLOAD PUSH1 0x40 MLOAD PUSH4 0x70A08231 PUSH1 0xE0 SHL DUP2 MSTORE PUSH1 0x1 PUSH1 0x1 PUSH1 0xA0 SHL SUB SWAP2 DUP3 AND PUSH1 0x4 DUP3 ADD MSTORE PUSH1 0x0 SWAP3 SWAP2 SWAP1 SWAP2 AND SWAP1 PUSH4 0x70A08231 SWAP1 PUSH1 0x24 ADD PUSH1 0x20 PUSH1 0x40 MLOAD DUP1 DUP4 SUB DUP2 DUP7 DUP1 EXTCODESIZE ISZERO DUP1 ISZERO PUSH2 0x268F JUMPI PUSH1 0x0 DUP1 REVERT JUMPDEST POP GAS STATICCALL ISZERO DUP1 ISZERO PUSH2 0x26A3 JUMPI RETURNDATASIZE PUSH1 0x0 DUP1 RETURNDATACOPY RETURNDATASIZE PUSH1 0x0 REVERT JUMPDEST POP POP POP POP PUSH1 0x40 MLOAD RETURNDATASIZE PUSH1 0x1F NOT PUSH1 0x1F DUP3 ADD AND DUP3 ADD DUP1 PUSH1 0x40 MSTORE POP DUP2 ADD SWAP1 PUSH2 0x26C7 SWAP2 SWAP1 PUSH2 0x2DA9 JUMP JUMPDEST GT ISZERO PUSH2 0x27D3 JUMPI PUSH1 0x1 SLOAD PUSH1 0x3 SLOAD PUSH1 0x14 SLOAD PUSH1 0x40 MLOAD PUSH4 0x70A08231 PUSH1 0xE0 SHL DUP2 MSTORE PUSH1 0x1 PUSH1 0x1 PUSH1 0xA0 SHL SUB SWAP2 DUP3 AND PUSH1 0x4 DUP3 ADD MSTORE SWAP3 DUP2 AND SWAP3 PUSH4 0xF5537EDE SWAP3 SWAP2 SWAP1 SWAP2 AND SWAP1 DUP7 SWAP1 DUP3 SWAP1 PUSH4 0x70A08231 SWAP1 PUSH1 0x24 ADD JUMPDEST PUSH1 0x20 PUSH1 0x40 MLOAD DUP1 DUP4 SUB DUP2 DUP7 DUP1 EXTCODESIZE ISZERO DUP1 ISZERO PUSH2 0x2728 JUMPI PUSH1 0x0 DUP1 REVERT JUMPDEST POP GAS STATICCALL ISZERO DUP1 ISZERO PUSH2 0x273C JUMPI RETURNDATASIZE PUSH1 0x0 DUP1 RETURNDATACOPY RETURNDATASIZE PUSH1 0x0 REVERT JUMPDEST POP POP POP POP PUSH1 0x40 MLOAD RETURNDATASIZE PUSH1 0x1F NOT PUSH1 0x1F DUP3 ADD AND DUP3 ADD DUP1 PUSH1 0x40 MSTORE POP DUP2 ADD SWAP1 PUSH2 0x2760 SWAP2 SWAP1 PUSH2 0x2DA9 JUMP JUMPDEST PUSH1 0x40 MLOAD DUP5 PUSH4 0xFFFFFFFF AND PUSH1 0xE0 SHL DUP2 MSTORE PUSH1 0x4 ADD PUSH2 0x277E SWAP4 SWAP3 SWAP2 SWAP1 PUSH2 0x2E95 JUMP JUMPDEST PUSH1 0x20 PUSH1 0x40 MLOAD DUP1 DUP4 SUB DUP2 PUSH1 0x0 DUP8 DUP1 EXTCODESIZE ISZERO DUP1 ISZERO PUSH2 0x2798 JUMPI PUSH1 0x0 DUP1 REVERT JUMPDEST POP GAS CALL ISZERO DUP1 ISZERO PUSH2 0x27AC JUMPI RETURNDATASIZE PUSH1 0x0 DUP1 RETURNDATACOPY RETURNDATASIZE PUSH1 0x0 REVERT JUMPDEST POP POP POP POP PUSH1 0x40 MLOAD RETURNDATASIZE PUSH1 0x1F NOT PUSH1 0x1F DUP3 ADD AND DUP3 ADD DUP1 PUSH1 0x40 MSTORE POP DUP2 ADD SWAP1 PUSH2 0x27D0 SWAP2 SWAP1 PUSH2 0x2C9D JUMP JUMPDEST SWAP1 POP JUMPDEST SWAP3 SWAP2 POP POP JUMP JUMPDEST PUSH1 0x2 SLOAD PUSH1 0x14 SLOAD PUSH1 0x40 MLOAD PUSH4 0x70A08231 PUSH1 0xE0 SHL DUP2 MSTORE PUSH1 0x1 PUSH1 0x1 PUSH1 0xA0 SHL SUB SWAP2 DUP3 AND PUSH1 0x4 DUP3 ADD MSTORE PUSH1 0x0 SWAP3 PUSH1 0x1 SWAP3 DUP5 SWAP3 SWAP2 AND SWAP1 PUSH4 0x70A08231 SWAP1 PUSH1 0x24 ADD PUSH1 0x20 PUSH1 0x40 MLOAD DUP1 DUP4 SUB DUP2 DUP7 DUP1 EXTCODESIZE ISZERO DUP1 ISZERO PUSH2 0x2828 JUMPI PUSH1 0x0 DUP1 REVERT JUMPDEST POP GAS STATICCALL ISZERO DUP1 ISZERO PUSH2 0x283C JUMPI RETURNDATASIZE PUSH1 0x0 DUP1 RETURNDATACOPY RETURNDATASIZE PUSH1 0x0 REVERT JUMPDEST POP POP POP POP PUSH1 0x40 MLOAD RETURNDATASIZE PUSH1 0x1F NOT PUSH1 0x1F DUP3 ADD AND DUP3 ADD DUP1 PUSH1 0x40 MSTORE POP DUP2 ADD SWAP1 PUSH2 0x2860 SWAP2 SWAP1 PUSH2 0x2DA9 JUMP JUMPDEST GT ISZERO PUSH2 0x27D3 JUMPI PUSH1 0x1 SLOAD PUSH1 0x2 SLOAD PUSH1 0x14 SLOAD PUSH1 0x40 MLOAD PUSH4 0x70A08231 PUSH1 0xE0 SHL DUP2 MSTORE PUSH1 0x1 PUSH1 0x1 PUSH1 0xA0 SHL SUB SWAP2 DUP3 AND PUSH1 0x4 DUP3 ADD MSTORE SWAP3 DUP2 AND SWAP3 PUSH4 0xF5537EDE SWAP3 SWAP2 SWAP1 SWAP2 AND SWAP1 DUP7 SWAP1 DUP3 SWAP1 PUSH4 0x70A08231 SWAP1 PUSH1 0x24 ADD PUSH2 0x2710 JUMP JUMPDEST PUSH1 0x11 SLOAD TIMESTAMP LT ISZERO PUSH2 0x28FF JUMPI PUSH1 0x40 MLOAD PUSH3 0x461BCD PUSH1 0xE5 SHL DUP2 MSTORE PUSH1 0x20 PUSH1 0x4 DUP3 ADD MSTORE PUSH1 0x18 PUSH1 0x24 DUP3 ADD MSTORE PUSH32 0x43726F776466756E64696E67206E6F7420737461727465640000000000000000 PUSH1 0x44 DUP3 ADD MSTORE PUSH1 0x64 ADD PUSH2 0x621 JUMP JUMPDEST PUSH1 0x12 SLOAD TIMESTAMP GT ISZERO PUSH2 0x5CE JUMPI PUSH1 0x40 MLOAD PUSH3 0x461BCD PUSH1 0xE5 SHL DUP2 MSTORE PUSH1 0x20 PUSH1 0x4 DUP3 ADD MSTORE PUSH1 0x16 PUSH1 0x24 DUP3 ADD MSTORE PUSH22 0x10DC9BDDD9199D5B991A5B99C81A185CC8195B991959 PUSH1 0x52 SHL PUSH1 0x44 DUP3 ADD MSTORE PUSH1 0x64 ADD PUSH2 0x621 JUMP JUMPDEST PUSH1 0x0 DUP1 PUSH2 0x2958 DUP5 PUSH1 0x0 PUSH2 0x2BAB JUMP JUMPDEST SWAP2 POP POP PUSH1 0x0 PUSH2 0x2968 PUSH1 0x0 DUP6 PUSH2 0x2BAB JUMP JUMPDEST POP SWAP1 POP DUP5 DUP2 EQ DUP1 PUSH2 0x2978 JUMPI POP DUP4 DUP3 EQ JUMPDEST ISZERO PUSH2 0x2988 JUMPI PUSH1 0x1 SWAP3 POP POP POP PUSH2 0x27D3 JUMP JUMPDEST POP PUSH1 0x0 SWAP5 SWAP4 POP POP POP POP JUMP JUMPDEST PUSH1 0x0 DUP1 PUSH2 0x299F DUP5 PUSH2 0x2364 JUMP JUMPDEST POP SWAP1 POP DUP1 DUP4 GT PUSH2 0x29B3 JUMPI PUSH1 0x1 SWAP2 POP POP PUSH2 0x27D3 JUMP JUMPDEST PUSH1 0x0 SWAP2 POP POP PUSH2 0x27D3 JUMP JUMPDEST PUSH1 0xE SLOAD PUSH1 0x0 SWAP1 PUSH2 0x2710 SWAP1 PUSH2 0x29D5 SWAP1 PUSH2 0xFFFF AND DUP5 PUSH2 0x327B JUMP JUMPDEST PUSH2 0x27D3 SWAP2 SWAP1 PUSH2 0x316B JUMP JUMPDEST PUSH1 0x0 PUSH2 0x27D0 DUP3 DUP5 PUSH2 0x329A JUMP JUMPDEST PUSH1 0x0 PUSH2 0x27D0 DUP3 DUP5 PUSH2 0x3153 JUMP JUMPDEST PUSH1 0x0 DUP1 PUSH2 0x2A03 DUP5 PUSH2 0x21A1 JUMP JUMPDEST SWAP2 POP POP DUP1 DUP4 GT PUSH2 0x29B3 JUMPI PUSH1 0x1 SWAP2 POP POP PUSH2 0x27D3 JUMP JUMPDEST PUSH1 0xE SLOAD PUSH1 0x0 SWAP1 PUSH2 0x27D3 SWAP1 PUSH2 0x2710 SWAP1 PUSH2 0x2A39 SWAP1 PUSH3 0x10000 SWAP1 DIV PUSH2 0xFFFF AND DUP6 PUSH2 0x327B JUMP JUMPDEST PUSH2 0x2A43 SWAP2 SWAP1 PUSH2 0x316B JUMP JUMPDEST DUP4 SWAP1 PUSH2 0x29DF JUMP JUMPDEST PUSH1 0xB SLOAD PUSH1 0x0 SWAP1 PUSH1 0x1 PUSH1 0xB0 SHL SWAP1 DIV PUSH1 0xFF AND ISZERO PUSH2 0x2A70 JUMPI POP PUSH1 0x14 SLOAD PUSH1 0x1 PUSH1 0x1 PUSH1 0xA0 SHL SUB AND BALANCE SWAP1 JUMP JUMPDEST PUSH1 0x3 SLOAD PUSH1 0x14 SLOAD PUSH1 0x40 MLOAD PUSH4 0x70A08231 PUSH1 0xE0 SHL DUP2 MSTORE PUSH1 0x1 PUSH1 0x1 PUSH1 0xA0 SHL SUB SWAP2 DUP3 AND PUSH1 0x4 DUP3 ADD MSTORE SWAP2 AND SWAP1 PUSH4 0x70A08231 SWAP1 PUSH1 0x24 ADD PUSH1 0x20 PUSH1 0x40 MLOAD DUP1 DUP4 SUB DUP2 DUP7 DUP1 EXTCODESIZE ISZERO DUP1 ISZERO PUSH2 0x2AB7 JUMPI PUSH1 0x0 DUP1 REVERT JUMPDEST POP GAS STATICCALL ISZERO DUP1 ISZERO PUSH2 0x2ACB JUMPI RETURNDATASIZE PUSH1 0x0 DUP1 RETURNDATACOPY RETURNDATASIZE PUSH1 0x0 REVERT JUMPDEST POP POP POP POP PUSH1 0x40 MLOAD RETURNDATASIZE PUSH1 0x1F NOT PUSH1 0x1F DUP3 ADD AND DUP3 ADD DUP1 PUSH1 0x40 MSTORE POP DUP2 ADD SWAP1 PUSH2 0x2AEF SWAP2 SWAP1 PUSH2 0x2DA9 JUMP JUMPDEST SWAP1 POP SWAP1 JUMP JUMPDEST PUSH1 0x11 SLOAD TIMESTAMP LT PUSH2 0x5CE JUMPI PUSH1 0x40 MLOAD PUSH3 0x461BCD PUSH1 0xE5 SHL DUP2 MSTORE PUSH1 0x20 PUSH1 0x4 DUP3 ADD MSTORE PUSH1 0x18 PUSH1 0x24 DUP3 ADD MSTORE PUSH32 0x43726F776466756E64696E672068617320737461727465640000000000000000 PUSH1 0x44 DUP3 ADD MSTORE PUSH1 0x64 ADD PUSH2 0x621 JUMP JUMPDEST PUSH1 0x0 DUP1 SLOAD PUSH1 0x1 PUSH1 0x1 PUSH1 0xA0 SHL SUB DUP4 DUP2 AND PUSH1 0x1 PUSH1 0x1 PUSH1 0xA0 SHL SUB NOT DUP4 AND DUP2 OR DUP5 SSTORE PUSH1 0x40 MLOAD SWAP2 SWAP1 SWAP3 AND SWAP3 DUP4 SWAP2 PUSH32 0x8BE0079C531659141344CD1FD0A4F28419497F9722A3DAAFE3B4186F6B6457E0 SWAP2 SWAP1 LOG3 POP POP JUMP JUMPDEST PUSH1 0x0 DUP2 DUP4 LT PUSH2 0x2BA4 JUMPI DUP2 PUSH2 0x27D0 JUMP JUMPDEST POP SWAP1 SWAP2 SWAP1 POP JUMP JUMPDEST PUSH1 0x0 DUP1 DUP4 ISZERO PUSH2 0x2BEE JUMPI PUSH1 0xB SLOAD DUP5 SWAP1 PUSH2 0x2BCE SWAP1 PUSH1 0x1 PUSH1 0xA8 SHL SWAP1 DIV PUSH1 0xFF AND PUSH1 0xA PUSH2 0x31D0 JUMP JUMPDEST PUSH1 0xD SLOAD PUSH2 0x2BDB SWAP1 DUP8 PUSH2 0x327B JUMP JUMPDEST PUSH2 0x2BE5 SWAP2 SWAP1 PUSH2 0x316B JUMP JUMPDEST SWAP2 POP SWAP2 POP PUSH2 0x2C34 JUMP JUMPDEST DUP3 ISZERO PUSH2 0x2C2D JUMPI PUSH1 0xD SLOAD PUSH1 0xB SLOAD PUSH2 0x2C0F SWAP1 PUSH1 0x1 PUSH1 0xA8 SHL SWAP1 DIV PUSH1 0xFF AND PUSH1 0xA PUSH2 0x31D0 JUMP JUMPDEST PUSH2 0x2C19 SWAP1 DUP6 PUSH2 0x327B JUMP JUMPDEST PUSH2 0x2C23 SWAP2 SWAP1 PUSH2 0x316B JUMP JUMPDEST DUP4 SWAP2 POP SWAP2 POP PUSH2 0x2C34 JUMP JUMPDEST POP PUSH1 0x0 SWAP1 POP DUP1 JUMPDEST SWAP3 POP SWAP3 SWAP1 POP JUMP JUMPDEST PUSH2 0x9F0 DUP1 PUSH2 0x3310 DUP4 CODECOPY ADD SWAP1 JUMP JUMPDEST DUP1 CALLDATALOAD PUSH2 0x2C53 DUP2 PUSH2 0x32DD JUMP JUMPDEST SWAP2 SWAP1 POP JUMP JUMPDEST DUP1 CALLDATALOAD PUSH2 0x2C53 DUP2 PUSH2 0x32F2 JUMP JUMPDEST DUP1 CALLDATALOAD PUSH2 0xFFFF DUP2 AND DUP2 EQ PUSH2 0x2C53 JUMPI PUSH1 0x0 DUP1 REVERT JUMPDEST DUP1 CALLDATALOAD PUSH2 0x2C53 DUP2 PUSH2 0x3300 JUMP JUMPDEST PUSH1 0x0 PUSH1 0x20 DUP3 DUP5 SUB SLT ISZERO PUSH2 0x2C92 JUMPI PUSH1 0x0 DUP1 REVERT JUMPDEST DUP2 CALLDATALOAD PUSH2 0x235D DUP2 PUSH2 0x32DD JUMP JUMPDEST PUSH1 0x0 PUSH1 0x20 DUP3 DUP5 SUB SLT ISZERO PUSH2 0x2CAF JUMPI PUSH1 0x0 DUP1 REVERT JUMPDEST DUP2 MLOAD PUSH2 0x235D DUP2 PUSH2 0x32F2 JUMP JUMPDEST PUSH1 0x0 PUSH2 0x1C0 DUP3 DUP5 SUB SLT ISZERO PUSH2 0x2CCD JUMPI PUSH1 0x0 DUP1 REVERT JUMPDEST PUSH2 0x2CD5 PUSH2 0x311B JUMP JUMPDEST PUSH2 0x2CDE DUP4 PUSH2 0x2C48 JUMP JUMPDEST DUP2 MSTORE PUSH2 0x2CEC PUSH1 0x20 DUP5 ADD PUSH2 0x2C48 JUMP JUMPDEST PUSH1 0x20 DUP3 ADD MSTORE PUSH2 0x2CFD PUSH1 0x40 DUP5 ADD PUSH2 0x2C75 JUMP JUMPDEST PUSH1 0x40 DUP3 ADD MSTORE PUSH2 0x2D0E PUSH1 0x60 DUP5 ADD PUSH2 0x2C75 JUMP JUMPDEST PUSH1 0x60 DUP3 ADD MSTORE PUSH2 0x2D1F PUSH1 0x80 DUP5 ADD PUSH2 0x2C58 JUMP JUMPDEST PUSH1 0x80 DUP3 ADD MSTORE PUSH1 0xA0 DUP4 ADD CALLDATALOAD PUSH1 0xA0 DUP3 ADD MSTORE PUSH1 0xC0 DUP4 ADD CALLDATALOAD PUSH1 0xC0 DUP3 ADD MSTORE PUSH2 0x2D44 PUSH1 0xE0 DUP5 ADD PUSH2 0x2C63 JUMP JUMPDEST PUSH1 0xE0 DUP3 ADD MSTORE PUSH2 0x100 PUSH2 0x2D57 DUP2 DUP6 ADD PUSH2 0x2C63 JUMP JUMPDEST SWAP1 DUP3 ADD MSTORE PUSH2 0x120 DUP4 DUP2 ADD CALLDATALOAD SWAP1 DUP3 ADD MSTORE PUSH2 0x140 PUSH2 0x2D74 DUP2 DUP6 ADD PUSH2 0x2C63 JUMP JUMPDEST SWAP1 DUP3 ADD MSTORE PUSH2 0x160 PUSH2 0x2D86 DUP5 DUP3 ADD PUSH2 0x2C48 JUMP JUMPDEST SWAP1 DUP3 ADD MSTORE PUSH2 0x180 DUP4 DUP2 ADD CALLDATALOAD SWAP1 DUP3 ADD MSTORE PUSH2 0x1A0 SWAP3 DUP4 ADD CALLDATALOAD SWAP3 DUP2 ADD SWAP3 SWAP1 SWAP3 MSTORE POP SWAP2 SWAP1 POP JUMP JUMPDEST PUSH1 0x0 PUSH1 0x20 DUP3 DUP5 SUB SLT ISZERO PUSH2 0x2DBB JUMPI PUSH1 0x0 DUP1 REVERT JUMPDEST POP MLOAD SWAP2 SWAP1 POP JUMP JUMPDEST PUSH1 0x0 DUP1 PUSH1 0x0 DUP1 PUSH1 0x0 PUSH1 0xA0 DUP7 DUP9 SUB SLT ISZERO PUSH2 0x2DDA JUMPI PUSH1 0x0 DUP1 REVERT JUMPDEST DUP6 CALLDATALOAD SWAP5 POP PUSH2 0x2DEA PUSH1 0x20 DUP8 ADD PUSH2 0x2C63 JUMP JUMPDEST SWAP4 POP PUSH1 0x40 DUP7 ADD CALLDATALOAD SWAP3 POP PUSH2 0x2DFF PUSH1 0x60 DUP8 ADD PUSH2 0x2C63 JUMP JUMPDEST SWAP5 SWAP8 SWAP4 SWAP7 POP SWAP2 SWAP5 PUSH1 0x80 ADD CALLDATALOAD SWAP3 SWAP2 POP POP JUMP JUMPDEST PUSH1 0x0 DUP1 PUSH1 0x40 DUP4 DUP6 SUB SLT ISZERO PUSH2 0x2E23 JUMPI PUSH1 0x0 DUP1 REVERT JUMPDEST POP POP DUP1 CALLDATALOAD SWAP3 PUSH1 0x20 SWAP1 SWAP2 ADD CALLDATALOAD SWAP2 POP JUMP JUMPDEST PUSH1 0x0 DUP1 PUSH1 0x40 DUP4 DUP6 SUB SLT ISZERO PUSH2 0x2E45 JUMPI PUSH1 0x0 DUP1 REVERT JUMPDEST POP POP DUP1 MLOAD PUSH1 0x20 SWAP1 SWAP2 ADD MLOAD SWAP1 SWAP3 SWAP1 SWAP2 POP JUMP JUMPDEST PUSH1 0x0 PUSH1 0x20 DUP3 DUP5 SUB SLT ISZERO PUSH2 0x2E68 JUMPI PUSH1 0x0 DUP1 REVERT JUMPDEST DUP2 MLOAD PUSH2 0x235D DUP2 PUSH2 0x3300 JUMP JUMPDEST PUSH1 0x5 DUP2 LT PUSH2 0x2E91 JUMPI PUSH4 0x4E487B71 PUSH1 0xE0 SHL PUSH1 0x0 MSTORE PUSH1 0x21 PUSH1 0x4 MSTORE PUSH1 0x24 PUSH1 0x0 REVERT JUMPDEST SWAP1 MSTORE JUMP JUMPDEST PUSH1 0x1 PUSH1 0x1 PUSH1 0xA0 SHL SUB SWAP4 DUP5 AND DUP2 MSTORE SWAP2 SWAP1 SWAP3 AND PUSH1 0x20 DUP3 ADD MSTORE PUSH1 0x40 DUP2 ADD SWAP2 SWAP1 SWAP2 MSTORE PUSH1 0x60 ADD SWAP1 JUMP JUMPDEST PUSH1 0x1 PUSH1 0x1 PUSH1 0xA0 SHL SUB DUP7 DUP2 AND DUP3 MSTORE DUP6 DUP2 AND PUSH1 0x20 DUP4 ADD MSTORE DUP5 DUP2 AND PUSH1 0x40 DUP4 ADD MSTORE PUSH1 0x60 DUP3 ADD DUP5 SWAP1 MSTORE DUP3 SLOAD DUP2 AND PUSH1 0x80 DUP4 ADD MSTORE PUSH2 0x240 DUP3 ADD SWAP1 PUSH1 0x1 DUP5 ADD SLOAD PUSH1 0x1 PUSH1 0x1 PUSH1 0xA0 SHL SUB DUP3 DUP3 AND AND PUSH1 0xA0 DUP6 ADD MSTORE PUSH1 0xA0 DUP2 SWAP1 SHR PUSH1 0xFF AND PUSH1 0xC0 DUP6 ADD MSTORE PUSH1 0xA8 DUP2 SWAP1 SHR PUSH1 0xFF AND PUSH1 0xE0 DUP6 ADD MSTORE PUSH2 0x2F31 PUSH2 0x100 DUP6 ADD PUSH1 0xFF DUP4 PUSH1 0xB0 SHR AND ISZERO ISZERO SWAP1 MSTORE JUMP JUMPDEST POP PUSH1 0x2 DUP5 ADD SLOAD PUSH2 0x120 DUP5 ADD MSTORE PUSH1 0x3 DUP5 ADD SLOAD PUSH2 0x140 DUP5 ADD MSTORE PUSH1 0x4 DUP5 ADD SLOAD PUSH2 0xFFFF DUP1 DUP3 AND PUSH2 0x160 DUP7 ADD MSTORE PUSH1 0x10 SWAP2 DUP3 SHR DUP2 AND PUSH2 0x180 DUP7 ADD MSTORE PUSH1 0x5 DUP7 ADD SLOAD PUSH2 0x1A0 DUP7 ADD MSTORE PUSH1 0x6 DUP7 ADD SLOAD SWAP1 DUP2 AND PUSH2 0x1C0 DUP7 ADD MSTORE SWAP1 SHR AND PUSH1 0x1 PUSH1 0x1 PUSH1 0xA0 SHL SUB AND PUSH2 0x1E0 DUP4 ADD MSTORE PUSH1 0x7 DUP4 ADD SLOAD PUSH2 0x200 DUP4 ADD MSTORE PUSH1 0x8 SWAP1 SWAP3 ADD SLOAD PUSH2 0x220 SWAP1 SWAP2 ADD MSTORE SWAP5 SWAP4 POP POP POP POP JUMP JUMPDEST PUSH1 0x1 PUSH1 0x1 PUSH1 0xA0 SHL SUB DUP4 AND DUP2 MSTORE PUSH1 0x40 DUP2 ADD PUSH2 0x235D PUSH1 0x20 DUP4 ADD DUP5 PUSH2 0x2E73 JUMP JUMPDEST DUP2 MLOAD PUSH1 0x1 PUSH1 0x1 PUSH1 0xA0 SHL SUB AND DUP2 MSTORE PUSH2 0x1C0 DUP2 ADD PUSH1 0x20 DUP4 ADD MLOAD PUSH2 0x2FFA PUSH1 0x20 DUP5 ADD DUP3 PUSH1 0x1 PUSH1 0x1 PUSH1 0xA0 SHL SUB AND SWAP1 MSTORE JUMP JUMPDEST POP PUSH1 0x40 DUP4 ADD MLOAD PUSH2 0x300F PUSH1 0x40 DUP5 ADD DUP3 PUSH1 0xFF AND SWAP1 MSTORE JUMP JUMPDEST POP PUSH1 0x60 DUP4 ADD MLOAD PUSH2 0x3024 PUSH1 0x60 DUP5 ADD DUP3 PUSH1 0xFF AND SWAP1 MSTORE JUMP JUMPDEST POP PUSH1 0x80 DUP4 ADD MLOAD PUSH2 0x3038 PUSH1 0x80 DUP5 ADD DUP3 ISZERO ISZERO SWAP1 MSTORE JUMP JUMPDEST POP PUSH1 0xA0 DUP4 ADD MLOAD PUSH1 0xA0 DUP4 ADD MSTORE PUSH1 0xC0 DUP4 ADD MLOAD PUSH1 0xC0 DUP4 ADD MSTORE PUSH1 0xE0 DUP4 ADD MLOAD PUSH2 0x3062 PUSH1 0xE0 DUP5 ADD DUP3 PUSH2 0xFFFF AND SWAP1 MSTORE JUMP JUMPDEST POP PUSH2 0x100 DUP4 DUP2 ADD MLOAD PUSH2 0xFFFF SWAP1 DUP2 AND SWAP2 DUP5 ADD SWAP2 SWAP1 SWAP2 MSTORE PUSH2 0x120 DUP1 DUP6 ADD MLOAD SWAP1 DUP5 ADD MSTORE PUSH2 0x140 DUP1 DUP6 ADD MLOAD SWAP1 SWAP2 AND SWAP1 DUP4 ADD MSTORE PUSH2 0x160 DUP1 DUP5 ADD MLOAD PUSH1 0x1 PUSH1 0x1 PUSH1 0xA0 SHL SUB AND SWAP1 DUP4 ADD MSTORE PUSH2 0x180 DUP1 DUP5 ADD MLOAD SWAP1 DUP4 ADD MSTORE PUSH2 0x1A0 SWAP3 DUP4 ADD MLOAD SWAP3 SWAP1 SWAP2 ADD SWAP2 SWAP1 SWAP2 MSTORE SWAP1 JUMP JUMPDEST PUSH1 0x0 PUSH2 0x140 DUP3 ADD SWAP1 POP DUP12 DUP3 MSTORE DUP11 PUSH1 0x20 DUP4 ADD MSTORE DUP10 PUSH1 0x40 DUP4 ADD MSTORE DUP9 PUSH1 0x60 DUP4 ADD MSTORE DUP8 PUSH1 0x80 DUP4 ADD MSTORE DUP7 PUSH1 0xA0 DUP4 ADD MSTORE DUP6 PUSH1 0xC0 DUP4 ADD MSTORE DUP5 PUSH1 0xE0 DUP4 ADD MSTORE DUP4 PUSH2 0x100 DUP4 ADD MSTORE PUSH2 0x310C PUSH2 0x120 DUP4 ADD DUP5 PUSH2 0x2E73 JUMP JUMPDEST SWAP12 SWAP11 POP POP POP POP POP POP POP POP POP POP POP JUMP JUMPDEST PUSH1 0x40 MLOAD PUSH2 0x1C0 DUP2 ADD PUSH8 0xFFFFFFFFFFFFFFFF DUP2 GT DUP3 DUP3 LT OR ISZERO PUSH2 0x314D JUMPI PUSH4 0x4E487B71 PUSH1 0xE0 SHL PUSH1 0x0 MSTORE PUSH1 0x41 PUSH1 0x4 MSTORE PUSH1 0x24 PUSH1 0x0 REVERT JUMPDEST PUSH1 0x40 MSTORE SWAP1 JUMP JUMPDEST PUSH1 0x0 DUP3 NOT DUP3 GT ISZERO PUSH2 0x3166 JUMPI PUSH2 0x3166 PUSH2 0x32B1 JUMP JUMPDEST POP ADD SWAP1 JUMP JUMPDEST PUSH1 0x0 DUP3 PUSH2 0x3188 JUMPI PUSH4 0x4E487B71 PUSH1 0xE0 SHL PUSH1 0x0 MSTORE PUSH1 0x12 PUSH1 0x4 MSTORE PUSH1 0x24 PUSH1 0x0 REVERT JUMPDEST POP DIV SWAP1 JUMP JUMPDEST PUSH1 0x1 DUP2 DUP2 JUMPDEST DUP1 DUP6 GT ISZERO PUSH2 0x31C8 JUMPI DUP2 PUSH1 0x0 NOT DIV DUP3 GT ISZERO PUSH2 0x31AE JUMPI PUSH2 0x31AE PUSH2 0x32B1 JUMP JUMPDEST DUP1 DUP6 AND ISZERO PUSH2 0x31BB JUMPI SWAP2 DUP2 MUL SWAP2 JUMPDEST SWAP4 DUP5 SHR SWAP4 SWAP1 DUP1 MUL SWAP1 PUSH2 0x3192 JUMP JUMPDEST POP SWAP3 POP SWAP3 SWAP1 POP JUMP JUMPDEST PUSH1 0x0 PUSH2 0x27D0 PUSH1 0xFF DUP5 AND DUP4 PUSH1 0x0 DUP3 PUSH2 0x31E9 JUMPI POP PUSH1 0x1 PUSH2 0x27D3 JUMP JUMPDEST DUP2 PUSH2 0x31F6 JUMPI POP PUSH1 0x0 PUSH2 0x27D3 JUMP JUMPDEST DUP2 PUSH1 0x1 DUP2 EQ PUSH2 0x320C JUMPI PUSH1 0x2 DUP2 EQ PUSH2 0x3216 JUMPI PUSH2 0x3232 JUMP JUMPDEST PUSH1 0x1 SWAP2 POP POP PUSH2 0x27D3 JUMP JUMPDEST PUSH1 0xFF DUP5 GT ISZERO PUSH2 0x3227 JUMPI PUSH2 0x3227 PUSH2 0x32B1 JUMP JUMPDEST POP POP PUSH1 0x1 DUP3 SHL PUSH2 0x27D3 JUMP JUMPDEST POP PUSH1 0x20 DUP4 LT PUSH2 0x133 DUP4 LT AND PUSH1 0x4E DUP5 LT PUSH1 0xB DUP5 LT AND OR ISZERO PUSH2 0x3255 JUMPI POP DUP2 DUP2 EXP PUSH2 0x27D3 JUMP JUMPDEST PUSH2 0x325F DUP4 DUP4 PUSH2 0x318D JUMP JUMPDEST DUP1 PUSH1 0x0 NOT DIV DUP3 GT ISZERO PUSH2 0x3273 JUMPI PUSH2 0x3273 PUSH2 0x32B1 JUMP JUMPDEST MUL SWAP4 SWAP3 POP POP POP JUMP JUMPDEST PUSH1 0x0 DUP2 PUSH1 0x0 NOT DIV DUP4 GT DUP3 ISZERO ISZERO AND ISZERO PUSH2 0x3295 JUMPI PUSH2 0x3295 PUSH2 0x32B1 JUMP JUMPDEST POP MUL SWAP1 JUMP JUMPDEST PUSH1 0x0 DUP3 DUP3 LT ISZERO PUSH2 0x32AC JUMPI PUSH2 0x32AC PUSH2 0x32B1 JUMP JUMPDEST POP SUB SWAP1 JUMP JUMPDEST PUSH4 0x4E487B71 PUSH1 0xE0 SHL PUSH1 0x0 MSTORE PUSH1 0x11 PUSH1 0x4 MSTORE PUSH1 0x24 PUSH1 0x0 REVERT JUMPDEST PUSH4 0x4E487B71 PUSH1 0xE0 SHL PUSH1 0x0 MSTORE PUSH1 0x21 PUSH1 0x4 MSTORE PUSH1 0x24 PUSH1 0x0 REVERT JUMPDEST PUSH1 0x1 PUSH1 0x1 PUSH1 0xA0 SHL SUB DUP2 AND DUP2 EQ PUSH2 0x2100 JUMPI PUSH1 0x0 DUP1 REVERT JUMPDEST DUP1 ISZERO ISZERO DUP2 EQ PUSH2 0x2100 JUMPI PUSH1 0x0 DUP1 REVERT JUMPDEST PUSH1 0xFF DUP2 AND DUP2 EQ PUSH2 0x2100 JUMPI PUSH1 0x0 DUP1 REVERT INVALID PUSH1 0x80 PUSH1 0x40 MSTORE CALLVALUE DUP1 ISZERO PUSH2 0x10 JUMPI PUSH1 0x0 DUP1 REVERT JUMPDEST POP PUSH1 0x0 DUP1 SLOAD PUSH1 0x1 PUSH1 0x1 PUSH1 0xA0 SHL SUB NOT AND CALLER SWAP1 DUP2 OR SWAP1 SWAP2 SSTORE PUSH1 0x40 DUP1 MLOAD SWAP2 DUP3 MSTORE MLOAD PUSH32 0x4101E71E974F68DF5E9730CC223280B41654676BBB052CDCC735C3337E64D2D9 SWAP2 DUP2 SWAP1 SUB PUSH1 0x20 ADD SWAP1 LOG1 PUSH2 0x989 DUP1 PUSH2 0x67 PUSH1 0x0 CODECOPY PUSH1 0x0 RETURN INVALID PUSH1 0x80 PUSH1 0x40 MSTORE PUSH1 0x4 CALLDATASIZE LT PUSH2 0x95 JUMPI PUSH1 0x0 CALLDATALOAD PUSH1 0xE0 SHR DUP1 PUSH4 0xC6DBDF61 GT PUSH2 0x59 JUMPI DUP1 PUSH4 0xC6DBDF61 EQ PUSH2 0x1A8 JUMPI DUP1 PUSH4 0xE32FCA3F EQ PUSH2 0x1D0 JUMPI DUP1 PUSH4 0xEBB6DAD8 EQ PUSH2 0x1F0 JUMPI DUP1 PUSH4 0xF5537EDE EQ PUSH2 0x225 JUMPI DUP1 PUSH4 0xF5A79767 EQ PUSH2 0x245 JUMPI PUSH1 0x0 DUP1 REVERT JUMPDEST DUP1 PUSH4 0x2348238C EQ PUSH2 0xF1 JUMPI DUP1 PUSH4 0x6AA05EE3 EQ PUSH2 0x113 JUMPI DUP1 PUSH4 0x79DA9565 EQ PUSH2 0x133 JUMPI DUP1 PUSH4 0xA2BA266B EQ PUSH2 0x153 JUMPI DUP1 PUSH4 0xA9059CBB EQ PUSH2 0x173 JUMPI PUSH1 0x0 DUP1 REVERT JUMPDEST CALLDATASIZE PUSH2 0xEC JUMPI PUSH1 0x40 DUP1 MLOAD CALLER DUP2 MSTORE PUSH1 0x20 DUP2 ADD DUP3 SWAP1 MSTORE PUSH1 0x7 DUP2 DUP4 ADD MSTORE PUSH7 0x72656365697665 PUSH1 0xC8 SHL PUSH1 0x60 DUP3 ADD MSTORE SWAP1 MLOAD PUSH32 0xD00CA3F088120B3D909C3A9E01BE91E94A2B001AED9C25FE751C3C7A72DC49BF SWAP2 DUP2 SWAP1 SUB PUSH1 0x80 ADD SWAP1 LOG1 STOP JUMPDEST PUSH1 0x0 DUP1 REVERT JUMPDEST CALLVALUE DUP1 ISZERO PUSH2 0xFD JUMPI PUSH1 0x0 DUP1 REVERT JUMPDEST POP PUSH2 0x111 PUSH2 0x10C CALLDATASIZE PUSH1 0x4 PUSH2 0x7C9 JUMP JUMPDEST PUSH2 0x265 JUMP JUMPDEST STOP JUMPDEST CALLVALUE DUP1 ISZERO PUSH2 0x11F JUMPI PUSH1 0x0 DUP1 REVERT JUMPDEST POP PUSH2 0x111 PUSH2 0x12E CALLDATASIZE PUSH1 0x4 PUSH2 0x812 JUMP JUMPDEST PUSH2 0x35E JUMP JUMPDEST CALLVALUE DUP1 ISZERO PUSH2 0x13F JUMPI PUSH1 0x0 DUP1 REVERT JUMPDEST POP PUSH2 0x111 PUSH2 0x14E CALLDATASIZE PUSH1 0x4 PUSH2 0x812 JUMP JUMPDEST PUSH2 0x403 JUMP JUMPDEST CALLVALUE DUP1 ISZERO PUSH2 0x15F JUMPI PUSH1 0x0 DUP1 REVERT JUMPDEST POP PUSH2 0x111 PUSH2 0x16E CALLDATASIZE PUSH1 0x4 PUSH2 0x812 JUMP JUMPDEST PUSH2 0x4A6 JUMP JUMPDEST CALLVALUE DUP1 ISZERO PUSH2 0x17F JUMPI PUSH1 0x0 DUP1 REVERT JUMPDEST POP PUSH2 0x193 PUSH2 0x18E CALLDATASIZE PUSH1 0x4 PUSH2 0x7E6 JUMP JUMPDEST PUSH2 0x526 JUMP JUMPDEST PUSH1 0x40 MLOAD SWAP1 ISZERO ISZERO DUP2 MSTORE PUSH1 0x20 ADD JUMPDEST PUSH1 0x40 MLOAD DUP1 SWAP2 SUB SWAP1 RETURN JUMPDEST CALLVALUE DUP1 ISZERO PUSH2 0x1B4 JUMPI PUSH1 0x0 DUP1 REVERT JUMPDEST POP PUSH1 0x0 SLOAD PUSH1 0x40 MLOAD PUSH1 0x1 PUSH1 0x1 PUSH1 0xA0 SHL SUB SWAP1 SWAP2 AND DUP2 MSTORE PUSH1 0x20 ADD PUSH2 0x19F JUMP JUMPDEST CALLVALUE DUP1 ISZERO PUSH2 0x1DC JUMPI PUSH1 0x0 DUP1 REVERT JUMPDEST POP PUSH2 0x111 PUSH2 0x1EB CALLDATASIZE PUSH1 0x4 PUSH2 0x812 JUMP JUMPDEST PUSH2 0x5B7 JUMP JUMPDEST CALLVALUE DUP1 ISZERO PUSH2 0x1FC JUMPI PUSH1 0x0 DUP1 REVERT JUMPDEST POP PUSH2 0x210 PUSH2 0x20B CALLDATASIZE PUSH1 0x4 PUSH2 0x7C9 JUMP JUMPDEST PUSH2 0x636 JUMP JUMPDEST PUSH1 0x40 DUP1 MLOAD SWAP3 DUP4 MSTORE PUSH1 0x20 DUP4 ADD SWAP2 SWAP1 SWAP2 MSTORE ADD PUSH2 0x19F JUMP JUMPDEST CALLVALUE DUP1 ISZERO PUSH2 0x231 JUMPI PUSH1 0x0 DUP1 REVERT JUMPDEST POP PUSH2 0x193 PUSH2 0x240 CALLDATASIZE PUSH1 0x4 PUSH2 0x869 JUMP JUMPDEST PUSH2 0x691 JUMP JUMPDEST CALLVALUE DUP1 ISZERO PUSH2 0x251 JUMPI PUSH1 0x0 DUP1 REVERT JUMPDEST POP PUSH2 0x210 PUSH2 0x260 CALLDATASIZE PUSH1 0x4 PUSH2 0x7C9 JUMP JUMPDEST PUSH2 0x74F JUMP JUMPDEST PUSH1 0x0 SLOAD PUSH1 0x1 PUSH1 0x1 PUSH1 0xA0 SHL SUB AND CALLER PUSH1 0x1 PUSH1 0x1 PUSH1 0xA0 SHL SUB AND EQ PUSH2 0x2A1 JUMPI PUSH1 0x40 MLOAD PUSH3 0x461BCD PUSH1 0xE5 SHL DUP2 MSTORE PUSH1 0x4 ADD PUSH2 0x298 SWAP1 PUSH2 0x8AA JUMP JUMPDEST PUSH1 0x40 MLOAD DUP1 SWAP2 SUB SWAP1 REVERT JUMPDEST PUSH1 0x1 PUSH1 0x1 PUSH1 0xA0 SHL SUB DUP2 AND PUSH2 0x30A JUMPI PUSH1 0x40 MLOAD PUSH3 0x461BCD PUSH1 0xE5 SHL DUP2 MSTORE PUSH1 0x20 PUSH1 0x4 DUP3 ADD MSTORE PUSH1 0x2A PUSH1 0x24 DUP3 ADD MSTORE PUSH32 0x5365636F6E646172793A206E6577207072696D61727920697320746865207A65 PUSH1 0x44 DUP3 ADD MSTORE PUSH10 0x726F2061646472657373 PUSH1 0xB0 SHL PUSH1 0x64 DUP3 ADD MSTORE PUSH1 0x84 ADD PUSH2 0x298 JUMP JUMPDEST PUSH1 0x0 DUP1 SLOAD PUSH1 0x1 PUSH1 0x1 PUSH1 0xA0 SHL SUB NOT AND PUSH1 0x1 PUSH1 0x1 PUSH1 0xA0 SHL SUB DUP4 AND SWAP1 DUP2 OR SWAP1 SWAP2 SSTORE PUSH1 0x40 MLOAD SWAP1 DUP2 MSTORE PUSH32 0x4101E71E974F68DF5E9730CC223280B41654676BBB052CDCC735C3337E64D2D9 SWAP1 PUSH1 0x20 ADD PUSH1 0x40 MLOAD DUP1 SWAP2 SUB SWAP1 LOG1 POP JUMP JUMPDEST PUSH1 0x0 SLOAD PUSH1 0x1 PUSH1 0x1 PUSH1 0xA0 SHL SUB AND CALLER PUSH1 0x1 PUSH1 0x1 PUSH1 0xA0 SHL SUB AND EQ PUSH2 0x391 JUMPI PUSH1 0x40 MLOAD PUSH3 0x461BCD PUSH1 0xE5 SHL DUP2 MSTORE PUSH1 0x4 ADD PUSH2 0x298 SWAP1 PUSH2 0x8AA JUMP JUMPDEST PUSH1 0x1 PUSH1 0x1 PUSH1 0xA0 SHL SUB DUP4 AND PUSH1 0x0 SWAP1 DUP2 MSTORE PUSH1 0x1 PUSH1 0x20 MSTORE PUSH1 0x40 SWAP1 KECCAK256 SLOAD PUSH2 0x3B4 SWAP1 DUP4 PUSH2 0x7AA JUMP JUMPDEST PUSH1 0x1 PUSH1 0x1 PUSH1 0xA0 SHL SUB DUP5 AND PUSH1 0x0 SWAP1 DUP2 MSTORE PUSH1 0x1 PUSH1 0x20 DUP2 SWAP1 MSTORE PUSH1 0x40 SWAP1 SWAP2 KECCAK256 SWAP2 DUP3 SSTORE ADD SLOAD PUSH2 0x3DE SWAP1 DUP3 PUSH2 0x7AA JUMP JUMPDEST PUSH1 0x1 PUSH1 0x1 PUSH1 0xA0 SHL SUB SWAP1 SWAP4 AND PUSH1 0x0 SWAP1 DUP2 MSTORE PUSH1 0x1 PUSH1 0x20 DUP2 SWAP1 MSTORE PUSH1 0x40 SWAP1 SWAP2 KECCAK256 ADD SWAP3 SWAP1 SWAP3 SSTORE POP POP JUMP JUMPDEST PUSH1 0x0 SLOAD PUSH1 0x1 PUSH1 0x1 PUSH1 0xA0 SHL SUB AND CALLER PUSH1 0x1 PUSH1 0x1 PUSH1 0xA0 SHL SUB AND EQ PUSH2 0x436 JUMPI PUSH1 0x40 MLOAD PUSH3 0x461BCD PUSH1 0xE5 SHL DUP2 MSTORE PUSH1 0x4 ADD PUSH2 0x298 SWAP1 PUSH2 0x8AA JUMP JUMPDEST PUSH1 0x1 PUSH1 0x1 PUSH1 0xA0 SHL SUB DUP4 AND PUSH1 0x0 SWAP1 DUP2 MSTORE PUSH1 0x2 PUSH1 0x20 MSTORE PUSH1 0x40 SWAP1 KECCAK256 SLOAD PUSH2 0x459 SWAP1 DUP4 PUSH2 0x7AA JUMP JUMPDEST PUSH1 0x1 PUSH1 0x1 PUSH1 0xA0 SHL SUB DUP5 AND PUSH1 0x0 SWAP1 DUP2 MSTORE PUSH1 0x2 PUSH1 0x20 MSTORE PUSH1 0x40 SWAP1 KECCAK256 SWAP1 DUP2 SSTORE PUSH1 0x1 ADD SLOAD PUSH2 0x482 SWAP1 DUP3 PUSH2 0x7AA JUMP JUMPDEST PUSH1 0x1 PUSH1 0x1 PUSH1 0xA0 SHL SUB SWAP1 SWAP4 AND PUSH1 0x0 SWAP1 DUP2 MSTORE PUSH1 0x2 PUSH1 0x20 MSTORE PUSH1 0x40 SWAP1 KECCAK256 PUSH1 0x1 ADD SWAP3 SWAP1 SWAP3 SSTORE POP POP JUMP JUMPDEST PUSH1 0x0 SLOAD PUSH1 0x1 PUSH1 0x1 PUSH1 0xA0 SHL SUB AND CALLER PUSH1 0x1 PUSH1 0x1 PUSH1 0xA0 SHL SUB AND EQ PUSH2 0x4D9 JUMPI PUSH1 0x40 MLOAD PUSH3 0x461BCD PUSH1 0xE5 SHL DUP2 MSTORE PUSH1 0x4 ADD PUSH2 0x298 SWAP1 PUSH2 0x8AA JUMP JUMPDEST PUSH1 0x1 PUSH1 0x1 PUSH1 0xA0 SHL SUB DUP4 AND PUSH1 0x0 SWAP1 DUP2 MSTORE PUSH1 0x1 PUSH1 0x20 MSTORE PUSH1 0x40 SWAP1 KECCAK256 SLOAD PUSH2 0x4FC SWAP1 DUP4 PUSH2 0x7BD JUMP JUMPDEST PUSH1 0x1 PUSH1 0x1 PUSH1 0xA0 SHL SUB DUP5 AND PUSH1 0x0 SWAP1 DUP2 MSTORE PUSH1 0x1 PUSH1 0x20 DUP2 SWAP1 MSTORE PUSH1 0x40 SWAP1 SWAP2 KECCAK256 SWAP2 DUP3 SSTORE ADD SLOAD PUSH2 0x3DE SWAP1 DUP3 PUSH2 0x7BD JUMP JUMPDEST PUSH1 0x0 DUP1 SLOAD PUSH1 0x1 PUSH1 0x1 PUSH1 0xA0 SHL SUB AND CALLER PUSH1 0x1 PUSH1 0x1 PUSH1 0xA0 SHL SUB AND EQ PUSH2 0x55A JUMPI PUSH1 0x40 MLOAD PUSH3 0x461BCD PUSH1 0xE5 SHL DUP2 MSTORE PUSH1 0x4 ADD PUSH2 0x298 SWAP1 PUSH2 0x8AA JUMP JUMPDEST PUSH1 0x0 DUP4 PUSH1 0x1 PUSH1 0x1 PUSH1 0xA0 SHL SUB AND DUP4 PUSH1 0x40 MLOAD PUSH1 0x0 PUSH1 0x40 MLOAD DUP1 DUP4 SUB DUP2 DUP6 DUP8 GAS CALL SWAP3 POP POP POP RETURNDATASIZE DUP1 PUSH1 0x0 DUP2 EQ PUSH2 0x5A7 JUMPI PUSH1 0x40 MLOAD SWAP2 POP PUSH1 0x1F NOT PUSH1 0x3F RETURNDATASIZE ADD AND DUP3 ADD PUSH1 0x40 MSTORE RETURNDATASIZE DUP3 MSTORE RETURNDATASIZE PUSH1 0x0 PUSH1 0x20 DUP5 ADD RETURNDATACOPY PUSH2 0x5AC JUMP JUMPDEST PUSH1 0x60 SWAP2 POP JUMPDEST POP SWAP1 SWAP6 SWAP5 POP POP POP POP POP JUMP JUMPDEST PUSH1 0x0 SLOAD PUSH1 0x1 PUSH1 0x1 PUSH1 0xA0 SHL SUB AND CALLER PUSH1 0x1 PUSH1 0x1 PUSH1 0xA0 SHL SUB AND EQ PUSH2 0x5EA JUMPI PUSH1 0x40 MLOAD PUSH3 0x461BCD PUSH1 0xE5 SHL DUP2 MSTORE PUSH1 0x4 ADD PUSH2 0x298 SWAP1 PUSH2 0x8AA JUMP JUMPDEST PUSH1 0x1 PUSH1 0x1 PUSH1 0xA0 SHL SUB DUP4 AND PUSH1 0x0 SWAP1 DUP2 MSTORE PUSH1 0x2 PUSH1 0x20 MSTORE PUSH1 0x40 SWAP1 KECCAK256 SLOAD PUSH2 0x60D SWAP1 DUP4 PUSH2 0x7BD JUMP JUMPDEST PUSH1 0x1 PUSH1 0x1 PUSH1 0xA0 SHL SUB DUP5 AND PUSH1 0x0 SWAP1 DUP2 MSTORE PUSH1 0x2 PUSH1 0x20 MSTORE PUSH1 0x40 SWAP1 KECCAK256 SWAP1 DUP2 SSTORE PUSH1 0x1 ADD SLOAD PUSH2 0x482 SWAP1 DUP3 PUSH2 0x7BD JUMP JUMPDEST PUSH1 0x0 DUP1 SLOAD DUP2 SWAP1 PUSH1 0x1 PUSH1 0x1 PUSH1 0xA0 SHL SUB AND CALLER PUSH1 0x1 PUSH1 0x1 PUSH1 0xA0 SHL SUB AND EQ PUSH2 0x66C JUMPI PUSH1 0x40 MLOAD PUSH3 0x461BCD PUSH1 0xE5 SHL DUP2 MSTORE PUSH1 0x4 ADD PUSH2 0x298 SWAP1 PUSH2 0x8AA JUMP JUMPDEST POP POP PUSH1 0x1 PUSH1 0x1 PUSH1 0xA0 SHL SUB AND PUSH1 0x0 SWAP1 DUP2 MSTORE PUSH1 0x1 PUSH1 0x20 DUP2 SWAP1 MSTORE PUSH1 0x40 SWAP1 SWAP2 KECCAK256 DUP1 SLOAD SWAP2 ADD SLOAD SWAP1 SWAP2 JUMP JUMPDEST PUSH1 0x0 DUP1 SLOAD PUSH1 0x1 PUSH1 0x1 PUSH1 0xA0 SHL SUB AND CALLER PUSH1 0x1 PUSH1 0x1 PUSH1 0xA0 SHL SUB AND EQ PUSH2 0x6C5 JUMPI PUSH1 0x40 MLOAD PUSH3 0x461BCD PUSH1 0xE5 SHL DUP2 MSTORE PUSH1 0x4 ADD PUSH2 0x298 SWAP1 PUSH2 0x8AA JUMP JUMPDEST PUSH1 0x40 MLOAD PUSH4 0xA9059CBB PUSH1 0xE0 SHL DUP2 MSTORE PUSH1 0x1 PUSH1 0x1 PUSH1 0xA0 SHL SUB DUP5 DUP2 AND PUSH1 0x4 DUP4 ADD MSTORE PUSH1 0x24 DUP3 ADD DUP5 SWAP1 MSTORE DUP6 AND SWAP1 PUSH4 0xA9059CBB SWAP1 PUSH1 0x44 ADD PUSH1 0x20 PUSH1 0x40 MLOAD DUP1 DUP4 SUB DUP2 PUSH1 0x0 DUP8 DUP1 EXTCODESIZE ISZERO DUP1 ISZERO PUSH2 0x70F JUMPI PUSH1 0x0 DUP1 REVERT JUMPDEST POP GAS CALL ISZERO DUP1 ISZERO PUSH2 0x723 JUMPI RETURNDATASIZE PUSH1 0x0 DUP1 RETURNDATACOPY RETURNDATASIZE PUSH1 0x0 REVERT JUMPDEST POP POP POP POP PUSH1 0x40 MLOAD RETURNDATASIZE PUSH1 0x1F NOT PUSH1 0x1F DUP3 ADD AND DUP3 ADD DUP1 PUSH1 0x40 MSTORE POP DUP2 ADD SWAP1 PUSH2 0x747 SWAP2 SWAP1 PUSH2 0x847 JUMP JUMPDEST SWAP5 SWAP4 POP POP POP POP JUMP JUMPDEST PUSH1 0x0 DUP1 SLOAD DUP2 SWAP1 PUSH1 0x1 PUSH1 0x1 PUSH1 0xA0 SHL SUB AND CALLER PUSH1 0x1 PUSH1 0x1 PUSH1 0xA0 SHL SUB AND EQ PUSH2 0x785 JUMPI PUSH1 0x40 MLOAD PUSH3 0x461BCD PUSH1 0xE5 SHL DUP2 MSTORE PUSH1 0x4 ADD PUSH2 0x298 SWAP1 PUSH2 0x8AA JUMP JUMPDEST POP POP PUSH1 0x1 PUSH1 0x1 PUSH1 0xA0 SHL SUB AND PUSH1 0x0 SWAP1 DUP2 MSTORE PUSH1 0x2 PUSH1 0x20 MSTORE PUSH1 0x40 SWAP1 KECCAK256 DUP1 SLOAD PUSH1 0x1 SWAP1 SWAP2 ADD SLOAD SWAP1 SWAP2 JUMP JUMPDEST PUSH1 0x0 PUSH2 0x7B6 DUP3 DUP5 PUSH2 0x8F6 JUMP JUMPDEST SWAP4 SWAP3 POP POP POP JUMP JUMPDEST PUSH1 0x0 PUSH2 0x7B6 DUP3 DUP5 PUSH2 0x90E JUMP JUMPDEST PUSH1 0x0 PUSH1 0x20 DUP3 DUP5 SUB SLT ISZERO PUSH2 0x7DB JUMPI PUSH1 0x0 DUP1 REVERT JUMPDEST DUP2 CALLDATALOAD PUSH2 0x7B6 DUP2 PUSH2 0x93B JUMP JUMPDEST PUSH1 0x0 DUP1 PUSH1 0x40 DUP4 DUP6 SUB SLT ISZERO PUSH2 0x7F9 JUMPI PUSH1 0x0 DUP1 REVERT JUMPDEST DUP3 CALLDATALOAD PUSH2 0x804 DUP2 PUSH2 0x93B JUMP JUMPDEST SWAP5 PUSH1 0x20 SWAP4 SWAP1 SWAP4 ADD CALLDATALOAD SWAP4 POP POP POP JUMP JUMPDEST PUSH1 0x0 DUP1 PUSH1 0x0 PUSH1 0x60 DUP5 DUP7 SUB SLT ISZERO PUSH2 0x827 JUMPI PUSH1 0x0 DUP1 REVERT JUMPDEST DUP4 CALLDATALOAD PUSH2 0x832 DUP2 PUSH2 0x93B JUMP JUMPDEST SWAP6 PUSH1 0x20 DUP6 ADD CALLDATALOAD SWAP6 POP PUSH1 0x40 SWAP1 SWAP5 ADD CALLDATALOAD SWAP4 SWAP3 POP POP POP JUMP JUMPDEST PUSH1 0x0 PUSH1 0x20 DUP3 DUP5 SUB SLT ISZERO PUSH2 0x859 JUMPI PUSH1 0x0 DUP1 REVERT JUMPDEST DUP2 MLOAD DUP1 ISZERO ISZERO DUP2 EQ PUSH2 0x7B6 JUMPI PUSH1 0x0 DUP1 REVERT JUMPDEST PUSH1 0x0 DUP1 PUSH1 0x0 PUSH1 0x60 DUP5 DUP7 SUB SLT ISZERO PUSH2 0x87E JUMPI PUSH1 0x0 DUP1 REVERT JUMPDEST DUP4 CALLDATALOAD PUSH2 0x889 DUP2 PUSH2 0x93B JUMP JUMPDEST SWAP3 POP PUSH1 0x20 DUP5 ADD CALLDATALOAD PUSH2 0x899 DUP2 PUSH2 0x93B JUMP JUMPDEST SWAP3 SWAP6 SWAP3 SWAP5 POP POP POP PUSH1 0x40 SWAP2 SWAP1 SWAP2 ADD CALLDATALOAD SWAP1 JUMP JUMPDEST PUSH1 0x20 DUP1 DUP3 MSTORE PUSH1 0x2C SWAP1 DUP3 ADD MSTORE PUSH32 0x5365636F6E646172793A2063616C6C6572206973206E6F742074686520707269 PUSH1 0x40 DUP3 ADD MSTORE PUSH12 0x1B585C9E481858D8DBDD5B9D PUSH1 0xA2 SHL PUSH1 0x60 DUP3 ADD MSTORE PUSH1 0x80 ADD SWAP1 JUMP JUMPDEST PUSH1 0x0 DUP3 NOT DUP3 GT ISZERO PUSH2 0x909 JUMPI PUSH2 0x909 PUSH2 0x925 JUMP JUMPDEST POP ADD SWAP1 JUMP JUMPDEST PUSH1 0x0 DUP3 DUP3 LT ISZERO PUSH2 0x920 JUMPI PUSH2 0x920 PUSH2 0x925 JUMP JUMPDEST POP SUB SWAP1 JUMP JUMPDEST PUSH4 0x4E487B71 PUSH1 0xE0 SHL PUSH1 0x0 MSTORE PUSH1 0x11 PUSH1 0x4 MSTORE PUSH1 0x24 PUSH1 0x0 REVERT JUMPDEST PUSH1 0x1 PUSH1 0x1 PUSH1 0xA0 SHL SUB DUP2 AND DUP2 EQ PUSH2 0x950 JUMPI PUSH1 0x0 DUP1 REVERT JUMPDEST POP JUMP INVALID LOG2 PUSH5 0x6970667358 0x22 SLT KECCAK256 CHAINID PUSH7 0xA225D1436ECEEE 0xD7 0xE3 ORIGIN STATICCALL PUSH24 0xEDCF017F0A9EF30B23F1012FE0B4033EE6D464736F6C6343 STOP ADDMOD SMOD STOP CALLER LOG2 PUSH5 0x6970667358 0x22 SLT KECCAK256 0x2D 0xB2 SWAP2 0xC2 SLT GASLIMIT CREATE CALLCODE 0x2A SWAP11 PUSH26 0x61BE37FD1828AA9866DBA68E6BA7759E0916EDC1EC64736F6C63 NUMBER STOP ADDMOD SMOD STOP CALLER LOG2 PUSH5 0x6970667358 0x22 SLT KECCAK256 0x25 MUL 0xBB PUSH1 0x3E 0xF 0x29 SWAP2 0xB9 SWAP16 SGT EXP 0xE2 SWAP9 0x23 DUP15 LOG4 MUL 0xEC 0x2F RETURNDATACOPY RETURNDATACOPY PUSH27 0x6E928C368EFE6757E364736F6C6343000807003360806040523480 ISZERO PUSH2 0x10 JUMPI PUSH1 0x0 DUP1 REVERT JUMPDEST POP PUSH1 0x0 DUP1 SLOAD PUSH1 0x1 PUSH1 0x1 PUSH1 0xA0 SHL SUB NOT AND CALLER SWAP1 DUP2 OR SWAP1 SWAP2 SSTORE PUSH1 0x40 DUP1 MLOAD SWAP2 DUP3 MSTORE MLOAD PUSH32 0x4101E71E974F68DF5E9730CC223280B41654676BBB052CDCC735C3337E64D2D9 SWAP2 DUP2 SWAP1 SUB PUSH1 0x20 ADD SWAP1 LOG1 PUSH2 0x458 DUP1 PUSH2 0x67 PUSH1 0x0 CODECOPY PUSH1 0x0 RETURN INVALID PUSH1 0x80 PUSH1 0x40 MSTORE CALLVALUE DUP1 ISZERO PUSH2 0x10 JUMPI PUSH1 0x0 DUP1 REVERT JUMPDEST POP PUSH1 0x4 CALLDATASIZE LT PUSH2 0x57 JUMPI PUSH1 0x0 CALLDATALOAD PUSH1 0xE0 SHR DUP1 PUSH4 0x2348238C EQ PUSH2 0x5C JUMPI DUP1 PUSH4 0x89B09DE7 EQ PUSH2 0x71 JUMPI DUP1 PUSH4 0xC2BC80FD EQ PUSH2 0x84 JUMPI DUP1 PUSH4 0xC6DBDF61 EQ PUSH2 0xA2 JUMPI DUP1 PUSH4 0xFC91A897 EQ PUSH2 0xBD JUMPI JUMPDEST PUSH1 0x0 DUP1 REVERT JUMPDEST PUSH2 0x6F PUSH2 0x6A CALLDATASIZE PUSH1 0x4 PUSH2 0x359 JUMP JUMPDEST PUSH2 0xE0 JUMP JUMPDEST STOP JUMPDEST PUSH2 0x6F PUSH2 0x7F CALLDATASIZE PUSH1 0x4 PUSH2 0x359 JUMP JUMPDEST PUSH2 0x1D9 JUMP JUMPDEST PUSH2 0x8C PUSH2 0x270 JUMP JUMPDEST PUSH1 0x40 MLOAD PUSH2 0x99 SWAP2 SWAP1 PUSH2 0x389 JUMP JUMPDEST PUSH1 0x40 MLOAD DUP1 SWAP2 SUB SWAP1 RETURN JUMPDEST PUSH1 0x0 SLOAD PUSH1 0x40 MLOAD PUSH1 0x1 PUSH1 0x1 PUSH1 0xA0 SHL SUB SWAP1 SWAP2 AND DUP2 MSTORE PUSH1 0x20 ADD PUSH2 0x99 JUMP JUMPDEST PUSH2 0xD0 PUSH2 0xCB CALLDATASIZE PUSH1 0x4 PUSH2 0x359 JUMP JUMPDEST PUSH2 0x306 JUMP JUMPDEST PUSH1 0x40 MLOAD SWAP1 ISZERO ISZERO DUP2 MSTORE PUSH1 0x20 ADD PUSH2 0x99 JUMP JUMPDEST PUSH1 0x0 SLOAD PUSH1 0x1 PUSH1 0x1 PUSH1 0xA0 SHL SUB AND CALLER PUSH1 0x1 PUSH1 0x1 PUSH1 0xA0 SHL SUB AND EQ PUSH2 0x11C JUMPI PUSH1 0x40 MLOAD PUSH3 0x461BCD PUSH1 0xE5 SHL DUP2 MSTORE PUSH1 0x4 ADD PUSH2 0x113 SWAP1 PUSH2 0x3D6 JUMP JUMPDEST PUSH1 0x40 MLOAD DUP1 SWAP2 SUB SWAP1 REVERT JUMPDEST PUSH1 0x1 PUSH1 0x1 PUSH1 0xA0 SHL SUB DUP2 AND PUSH2 0x185 JUMPI PUSH1 0x40 MLOAD PUSH3 0x461BCD PUSH1 0xE5 SHL DUP2 MSTORE PUSH1 0x20 PUSH1 0x4 DUP3 ADD MSTORE PUSH1 0x2A PUSH1 0x24 DUP3 ADD MSTORE PUSH32 0x5365636F6E646172793A206E6577207072696D61727920697320746865207A65 PUSH1 0x44 DUP3 ADD MSTORE PUSH10 0x726F2061646472657373 PUSH1 0xB0 SHL PUSH1 0x64 DUP3 ADD MSTORE PUSH1 0x84 ADD PUSH2 0x113 JUMP JUMPDEST PUSH1 0x0 DUP1 SLOAD PUSH1 0x1 PUSH1 0x1 PUSH1 0xA0 SHL SUB NOT AND PUSH1 0x1 PUSH1 0x1 PUSH1 0xA0 SHL SUB DUP4 AND SWAP1 DUP2 OR SWAP1 SWAP2 SSTORE PUSH1 0x40 MLOAD SWAP1 DUP2 MSTORE PUSH32 0x4101E71E974F68DF5E9730CC223280B41654676BBB052CDCC735C3337E64D2D9 SWAP1 PUSH1 0x20 ADD PUSH1 0x40 MLOAD DUP1 SWAP2 SUB SWAP1 LOG1 POP JUMP JUMPDEST PUSH1 0x0 SLOAD PUSH1 0x1 PUSH1 0x1 PUSH1 0xA0 SHL SUB AND CALLER PUSH1 0x1 PUSH1 0x1 PUSH1 0xA0 SHL SUB AND EQ PUSH2 0x20C JUMPI PUSH1 0x40 MLOAD PUSH3 0x461BCD PUSH1 0xE5 SHL DUP2 MSTORE PUSH1 0x4 ADD PUSH2 0x113 SWAP1 PUSH2 0x3D6 JUMP JUMPDEST PUSH1 0x1 DUP1 SLOAD DUP1 DUP3 ADD DUP3 SSTORE PUSH32 0xB10E2D527612073B26EECDFD717E6A320CF44B4AFAC2B0732D9FCBE2B7FA0CF6 ADD DUP1 SLOAD PUSH1 0x1 PUSH1 0x1 PUSH1 0xA0 SHL SUB SWAP1 SWAP4 AND PUSH1 0x1 PUSH1 0x1 PUSH1 0xA0 SHL SUB NOT SWAP1 SWAP4 AND DUP4 OR SWAP1 SSTORE PUSH1 0x0 SWAP2 DUP3 MSTORE PUSH1 0x2 PUSH1 0x20 MSTORE PUSH1 0x40 SWAP1 SWAP2 KECCAK256 DUP1 SLOAD PUSH1 0xFF NOT AND SWAP1 SWAP2 OR SWAP1 SSTORE JUMP JUMPDEST PUSH1 0x0 SLOAD PUSH1 0x60 SWAP1 PUSH1 0x1 PUSH1 0x1 PUSH1 0xA0 SHL SUB AND CALLER PUSH1 0x1 PUSH1 0x1 PUSH1 0xA0 SHL SUB AND EQ PUSH2 0x2A6 JUMPI PUSH1 0x40 MLOAD PUSH3 0x461BCD PUSH1 0xE5 SHL DUP2 MSTORE PUSH1 0x4 ADD PUSH2 0x113 SWAP1 PUSH2 0x3D6 JUMP JUMPDEST PUSH1 0x1 DUP1 SLOAD DUP1 PUSH1 0x20 MUL PUSH1 0x20 ADD PUSH1 0x40 MLOAD SWAP1 DUP2 ADD PUSH1 0x40 MSTORE DUP1 SWAP3 SWAP2 SWAP1 DUP2 DUP2 MSTORE PUSH1 0x20 ADD DUP3 DUP1 SLOAD DUP1 ISZERO PUSH2 0x2FC JUMPI PUSH1 0x20 MUL DUP3 ADD SWAP2 SWAP1 PUSH1 0x0 MSTORE PUSH1 0x20 PUSH1 0x0 KECCAK256 SWAP1 JUMPDEST DUP2 SLOAD PUSH1 0x1 PUSH1 0x1 PUSH1 0xA0 SHL SUB AND DUP2 MSTORE PUSH1 0x1 SWAP1 SWAP2 ADD SWAP1 PUSH1 0x20 ADD DUP1 DUP4 GT PUSH2 0x2DE JUMPI JUMPDEST POP POP POP POP POP SWAP1 POP SWAP1 JUMP JUMPDEST PUSH1 0x0 DUP1 SLOAD PUSH1 0x1 PUSH1 0x1 PUSH1 0xA0 SHL SUB AND CALLER PUSH1 0x1 PUSH1 0x1 PUSH1 0xA0 SHL SUB AND EQ PUSH2 0x33A JUMPI PUSH1 0x40 MLOAD PUSH3 0x461BCD PUSH1 0xE5 SHL DUP2 MSTORE PUSH1 0x4 ADD PUSH2 0x113 SWAP1 PUSH2 0x3D6 JUMP JUMPDEST POP PUSH1 0x1 PUSH1 0x1 PUSH1 0xA0 SHL SUB AND PUSH1 0x0 SWAP1 DUP2 MSTORE PUSH1 0x2 PUSH1 0x20 MSTORE PUSH1 0x40 SWAP1 KECCAK256 SLOAD PUSH1 0xFF AND SWAP1 JUMP JUMPDEST PUSH1 0x0 PUSH1 0x20 DUP3 DUP5 SUB SLT ISZERO PUSH2 0x36B JUMPI PUSH1 0x0 DUP1 REVERT JUMPDEST DUP2 CALLDATALOAD PUSH1 0x1 PUSH1 0x1 PUSH1 0xA0 SHL SUB DUP2 AND DUP2 EQ PUSH2 0x382 JUMPI PUSH1 0x0 DUP1 REVERT JUMPDEST SWAP4 SWAP3 POP POP POP JUMP JUMPDEST PUSH1 0x20 DUP1 DUP3 MSTORE DUP3 MLOAD DUP3 DUP3 ADD DUP2 SWAP1 MSTORE PUSH1 0x0 SWAP2 SWAP1 DUP5 DUP3 ADD SWAP1 PUSH1 0x40 DUP6 ADD SWAP1 DUP5 JUMPDEST DUP2 DUP2 LT ISZERO PUSH2 0x3CA JUMPI DUP4 MLOAD PUSH1 0x1 PUSH1 0x1 PUSH1 0xA0 SHL SUB AND DUP4 MSTORE SWAP3 DUP5 ADD SWAP3 SWAP2 DUP5 ADD SWAP2 PUSH1 0x1 ADD PUSH2 0x3A5 JUMP JUMPDEST POP SWAP1 SWAP7 SWAP6 POP POP POP POP POP POP JUMP JUMPDEST PUSH1 0x20 DUP1 DUP3 MSTORE PUSH1 0x2C SWAP1 DUP3 ADD MSTORE PUSH32 0x5365636F6E646172793A2063616C6C6572206973206E6F742074686520707269 PUSH1 0x40 DUP3 ADD MSTORE PUSH12 0x1B585C9E481858D8DBDD5B9D PUSH1 0xA2 SHL PUSH1 0x60 DUP3 ADD MSTORE PUSH1 0x80 ADD SWAP1 JUMP INVALID LOG2 PUSH5 0x6970667358 0x22 SLT KECCAK256 GAS PUSH13 0x49E4E3D033EE4C453D1DFDCC61 SWAP16 SWAP3 0x4A LOG4 0xC4 PUSH1 0x22 DUP16 DUP3 0xE8 LOG1 PUSH29 0x43B7F098B664736F6C6343000807003300000000000000000000000000 "
		},
		"gasEstimates": {
			"creation": {
				"codeDepositCost": "3956000",
				"executionCost": "infinite",
				"totalCost": "infinite"
			},
			"external": {
				"children()": "infinite",
				"createCrowdfundingContract(address,address,uint256,uint256,uint16,uint16,uint256,uint16,address,uint256,uint256)": "infinite",
				"getStore()": "4504",
				"isChild(address)": "infinite",
				"owner()": "2354",
				"renounceOwnership()": "infinite",
				"transferOwnership(address)": "infinite",
				"transferPrimary(address)": "infinite",
				"transferStore(address)": "26795"
			}
		},
		"methodIdentifiers": {
			"children()": "c2bc80fd",
			"createCrowdfundingContract(address,address,uint256,uint256,uint16,uint16,uint256,uint16,address,uint256,uint256)": "b82364ff",
			"getStore()": "c2722ecc",
			"isChild(address)": "fc91a897",
			"owner()": "8da5cb5b",
			"renounceOwnership()": "715018a6",
			"transferOwnership(address)": "f2fde38b",
			"transferPrimary(address)": "2348238c",
			"transferStore(address)": "f523e775"
		}
	},
	"abi": [
		{
			"inputs": [],
			"stateMutability": "nonpayable",
			"type": "constructor"
		},
		{
			"anonymous": false,
			"inputs": [
				{
					"indexed": false,
					"internalType": "address",
					"name": "founder",
					"type": "address"
				},
				{
					"indexed": false,
					"internalType": "address",
					"name": "crowdfunding",
					"type": "address"
				},
				{
					"components": [
						{
							"internalType": "address",
							"name": "sellTokenAddress",
							"type": "address"
						},
						{
							"internalType": "address",
							"name": "buyTokenAddress",
							"type": "address"
						},
						{
							"internalType": "uint8",
							"name": "sellTokenDecimals",
							"type": "uint8"
						},
						{
							"internalType": "uint8",
							"name": "buyTokenDecimals",
							"type": "uint8"
						},
						{
							"internalType": "bool",
							"name": "buyTokenIsNative",
							"type": "bool"
						},
						{
							"internalType": "uint256",
							"name": "raiseTotal",
							"type": "uint256"
						},
						{
							"internalType": "uint256",
							"name": "buyPrice",
							"type": "uint256"
						},
						{
							"internalType": "uint16",
							"name": "swapPercent",
							"type": "uint16"
						},
						{
							"internalType": "uint16",
							"name": "sellTax",
							"type": "uint16"
						},
						{
							"internalType": "uint256",
							"name": "maxBuyAmount",
							"type": "uint256"
						},
						{
							"internalType": "uint16",
							"name": "maxSellPercent",
							"type": "uint16"
						},
						{
							"internalType": "address",
							"name": "teamWallet",
							"type": "address"
						},
						{
							"internalType": "uint256",
							"name": "startTime",
							"type": "uint256"
						},
						{
							"internalType": "uint256",
							"name": "endTime",
							"type": "uint256"
						}
					],
					"indexed": false,
					"internalType": "struct Parameters",
					"name": "paras",
					"type": "tuple"
				}
			],
			"name": "Created",
			"type": "event"
		},
		{
			"anonymous": false,
			"inputs": [
				{
					"indexed": true,
					"internalType": "address",
					"name": "previousOwner",
					"type": "address"
				},
				{
					"indexed": true,
					"internalType": "address",
					"name": "newOwner",
					"type": "address"
				}
			],
			"name": "OwnershipTransferred",
			"type": "event"
		},
		{
			"inputs": [],
			"name": "children",
			"outputs": [
				{
					"internalType": "address[]",
					"name": "",
					"type": "address[]"
				}
			],
			"stateMutability": "view",
			"type": "function"
		},
		{
			"inputs": [
				{
					"internalType": "address",
					"name": "_sellToken",
					"type": "address"
				},
				{
					"internalType": "address",
					"name": "_buyToken",
					"type": "address"
				},
				{
					"internalType": "uint256",
					"name": "_raiseTotal",
					"type": "uint256"
				},
				{
					"internalType": "uint256",
					"name": "_buyPrice",
					"type": "uint256"
				},
				{
					"internalType": "uint16",
					"name": "_swapPercent",
					"type": "uint16"
				},
				{
					"internalType": "uint16",
					"name": "_sellTax",
					"type": "uint16"
				},
				{
					"internalType": "uint256",
					"name": "_maxBuyAmount",
					"type": "uint256"
				},
				{
					"internalType": "uint16",
					"name": "_maxSellPercent",
					"type": "uint16"
				},
				{
					"internalType": "address",
					"name": "_teamWallet",
					"type": "address"
				},
				{
					"internalType": "uint256",
					"name": "_startTime",
					"type": "uint256"
				},
				{
					"internalType": "uint256",
					"name": "_endTime",
					"type": "uint256"
				}
			],
			"name": "createCrowdfundingContract",
			"outputs": [],
			"stateMutability": "nonpayable",
			"type": "function"
		},
		{
			"inputs": [],
			"name": "getStore",
			"outputs": [
				{
					"internalType": "address",
					"name": "",
					"type": "address"
				}
			],
			"stateMutability": "view",
			"type": "function"
		},
		{
			"inputs": [
				{
					"internalType": "address",
					"name": "_address",
					"type": "address"
				}
			],
			"name": "isChild",
			"outputs": [
				{
					"internalType": "bool",
					"name": "",
					"type": "bool"
				}
			],
			"stateMutability": "view",
			"type": "function"
		},
		{
			"inputs": [],
			"name": "owner",
			"outputs": [
				{
					"internalType": "address",
					"name": "",
					"type": "address"
				}
			],
			"stateMutability": "view",
			"type": "function"
		},
		{
			"inputs": [],
			"name": "renounceOwnership",
			"outputs": [],
			"stateMutability": "nonpayable",
			"type": "function"
		},
		{
			"inputs": [
				{
					"internalType": "address",
					"name": "newOwner",
					"type": "address"
				}
			],
			"name": "transferOwnership",
			"outputs": [],
			"stateMutability": "nonpayable",
			"type": "function"
		},
		{
			"inputs": [
				{
					"internalType": "address",
					"name": "newFactory",
					"type": "address"
				}
			],
			"name": "transferPrimary",
			"outputs": [],
			"stateMutability": "nonpayable",
			"type": "function"
		},
		{
			"inputs": [
				{
					"internalType": "address",
					"name": "newStore",
					"type": "address"
				}
			],
			"name": "transferStore",
			"outputs": [],
			"stateMutability": "nonpayable",
			"type": "function"
		}
	]
}