{
	"data": {
		"bytecode": {
			"linkReferences": {},
			"object": "608060405234801561001057600080fd5b5061002d61002261003260201b60201c565b61003a60201b60201c565b6100fe565b600033905090565b60008060009054906101000a900473ffffffffffffffffffffffffffffffffffffffff169050816000806101000a81548173ffffffffffffffffffffffffffffffffffffffff021916908373ffffffffffffffffffffffffffffffffffffffff1602179055508173ffffffffffffffffffffffffffffffffffffffff168173ffffffffffffffffffffffffffffffffffffffff167f8be0079c531659141344cd1fd0a4f28419497f9722a3daafe3b4186f6b6457e060405160405180910390a35050565b6129c18061010d6000396000f3fe60806040523480156200001157600080fd5b50600436106200005e5760003560e01c8063715018a6146200006357806379201eec146200006f5780638da5cb5b14620000915780639216be2714620000b3578063f2fde38b14620000d3575b600080fd5b6200006d620000f3565b005b620000796200010b565b60405162000088919062000fa9565b60405180910390f35b6200009b6200019b565b604051620000aa919062000eb6565b60405180910390f35b620000d16004803603810190620000cb919062000a65565b620001c4565b005b620000f16004803603810190620000eb919062000a33565b620007bf565b005b620000fd6200084a565b620001096000620008cf565b565b606060018054806020026020016040519081016040528092919081815260200182805480156200019157602002820191906000526020600020905b8160009054906101000a900473ffffffffffffffffffffffffffffffffffffffff1673ffffffffffffffffffffffffffffffffffffffff168152602001906001019080831162000146575b5050505050905090565b60008060009054906101000a900473ffffffffffffffffffffffffffffffffffffffff16905090565b60006040518061016001604052808b73ffffffffffffffffffffffffffffffffffffffff1681526020018a73ffffffffffffffffffffffffffffffffffffffff168152602001601260ff1681526020016001151581526020018981526020018881526020018761ffff1681526020018661ffff1681526020018581526020018461ffff1681526020018373ffffffffffffffffffffffffffffffffffffffff168152509050600073ffffffffffffffffffffffffffffffffffffffff168a73ffffffffffffffffffffffffffffffffffffffff161415620002dc576040517f08c379a0000000000000000000000000000000000000000000000000000000008152600401620002d39062000fef565b60405180910390fd5b600073ffffffffffffffffffffffffffffffffffffffff168973ffffffffffffffffffffffffffffffffffffffff1614156200034f576040517f08c379a0000000000000000000000000000000000000000000000000000000008152600401620003469062001077565b60405180910390fd5b806020015173ffffffffffffffffffffffffffffffffffffffff16816000015173ffffffffffffffffffffffffffffffffffffffff161462000434576000816060019015159081151581525050806020015173ffffffffffffffffffffffffffffffffffffffff1663313ce5676040518163ffffffff1660e01b815260040160206040518083038186803b158015620003e757600080fd5b505afa158015620003fc573d6000803e3d6000fd5b505050506040513d601f19601f8201168201806040525081019062000422919062000ba8565b816040019060ff16908160ff16815250505b6000816000015190506000826000015173ffffffffffffffffffffffffffffffffffffffff1663313ce5676040518163ffffffff1660e01b815260040160206040518083038186803b1580156200048a57600080fd5b505afa1580156200049f573d6000803e3d6000fd5b505050506040513d601f19601f82011682018060405250810190620004c5919062000ba8565b600a620004d3919062001176565b60648460a001518560400151600a620004ed919062001176565b8660800151620004fe9190620010e3565b6200050a9190620012b3565b620005169190620010e3565b620005229190620012b3565b9050808273ffffffffffffffffffffffffffffffffffffffff1663dd62ed3e33306040518363ffffffff1660e01b81526004016200056292919062000ed3565b60206040518083038186803b1580156200057b57600080fd5b505afa15801562000590573d6000803e3d6000fd5b505050506040513d601f19601f82011682018060405250810190620005b6919062000b76565b1015620005fa576040517f08c379a0000000000000000000000000000000000000000000000000000000008152600401620005f19062001011565b60405180910390fd5b60003382856040516200060d906200099b565b6200061b9392919062000f6b565b604051809103906000f08015801562000638573d6000803e3d6000fd5b5090508273ffffffffffffffffffffffffffffffffffffffff166323b872dd3383856040518463ffffffff1660e01b81526004016200067a9392919062000f00565b602060405180830381600087803b1580156200069557600080fd5b505af1158015620006aa573d6000803e3d6000fd5b505050506040513d601f19601f82011682018060405250810190620006d0919062000b44565b62000712576040517f08c379a0000000000000000000000000000000000000000000000000000000008152600401620007099062001055565b60405180910390fd5b6001819080600181540180825580915050600190039060005260206000200160009091909190916101000a81548173ffffffffffffffffffffffffffffffffffffffff021916908373ffffffffffffffffffffffffffffffffffffffff1602179055507fcdb338146291f7d9e95dae7ef810b11e499445dbbb37f6ceb0064a0fb9cff6b08185604051620007a892919062000f3d565b60405180910390a150505050505050505050505050565b620007c96200084a565b600073ffffffffffffffffffffffffffffffffffffffff168173ffffffffffffffffffffffffffffffffffffffff1614156200083c576040517f08c379a0000000000000000000000000000000000000000000000000000000008152600401620008339062000fcd565b60405180910390fd5b6200084781620008cf565b50565b6200085462000993565b73ffffffffffffffffffffffffffffffffffffffff16620008746200019b565b73ffffffffffffffffffffffffffffffffffffffff1614620008cd576040517f08c379a0000000000000000000000000000000000000000000000000000000008152600401620008c49062001033565b60405180910390fd5b565b60008060009054906101000a900473ffffffffffffffffffffffffffffffffffffffff169050816000806101000a81548173ffffffffffffffffffffffffffffffffffffffff021916908373ffffffffffffffffffffffffffffffffffffffff1602179055508173ffffffffffffffffffffffffffffffffffffffff168173ffffffffffffffffffffffffffffffffffffffff167f8be0079c531659141344cd1fd0a4f28419497f9722a3daafe3b4186f6b6457e060405160405180910390a35050565b600033905090565b611404806200158883390190565b600081359050620009ba8162001505565b92915050565b600081519050620009d1816200151f565b92915050565b600081359050620009e88162001539565b92915050565b600081359050620009ff8162001553565b92915050565b60008151905062000a168162001553565b92915050565b60008151905062000a2d816200156d565b92915050565b60006020828403121562000a4c5762000a4b620013d7565b5b600062000a5c84828501620009a9565b91505092915050565b60008060008060008060008060006101208a8c03121562000a8b5762000a8a620013d7565b5b600062000a9b8c828d01620009a9565b995050602062000aae8c828d01620009a9565b985050604062000ac18c828d01620009ee565b975050606062000ad48c828d01620009ee565b965050608062000ae78c828d01620009d7565b95505060a062000afa8c828d01620009d7565b94505060c062000b0d8c828d01620009ee565b93505060e062000b208c828d01620009d7565b92505061010062000b348c828d01620009a9565b9150509295985092959850929598565b60006020828403121562000b5d5762000b5c620013d7565b5b600062000b6d84828501620009c0565b91505092915050565b60006020828403121562000b8f5762000b8e620013d7565b5b600062000b9f8482850162000a05565b91505092915050565b60006020828403121562000bc15762000bc0620013d7565b5b600062000bd18482850162000a1c565b91505092915050565b600062000be8838362000bf4565b60208301905092915050565b62000bff8162001314565b82525050565b62000c108162001314565b82525050565b600062000c2382620010a9565b62000c2f8185620010c1565b935062000c3c8362001099565b8060005b8381101562000c7357815162000c57888262000bda565b975062000c6483620010b4565b92505060018101905062000c40565b5085935050505092915050565b62000c8b8162001328565b82525050565b600062000ca0602683620010d2565b915062000cad82620013e9565b604082019050919050565b600062000cc7601a83620010d2565b915062000cd48262001438565b602082019050919050565b600062000cee601883620010d2565b915062000cfb8262001461565b602082019050919050565b600062000d15602083620010d2565b915062000d22826200148a565b602082019050919050565b600062000d3c601283620010d2565b915062000d4982620014b3565b602082019050919050565b600062000d63601983620010d2565b915062000d7082620014dc565b602082019050919050565b6101608201600082015162000d94600085018262000bf4565b50602082015162000da9602085018262000bf4565b50604082015162000dbe604085018262000ea5565b50606082015162000dd3606085018262000c80565b50608082015162000de8608085018262000e83565b5060a082015162000dfd60a085018262000e83565b5060c082015162000e1260c085018262000e72565b5060e082015162000e2760e085018262000e72565b5061010082015162000e3e61010085018262000e83565b5061012082015162000e5561012085018262000e72565b5061014082015162000e6c61014085018262000bf4565b50505050565b62000e7d8162001334565b82525050565b62000e8e8162001362565b82525050565b62000e9f8162001362565b82525050565b62000eb0816200136c565b82525050565b600060208201905062000ecd600083018462000c05565b92915050565b600060408201905062000eea600083018562000c05565b62000ef9602083018462000c05565b9392505050565b600060608201905062000f17600083018662000c05565b62000f26602083018562000c05565b62000f35604083018462000e94565b949350505050565b60006101808201905062000f55600083018562000c05565b62000f64602083018462000d7b565b9392505050565b60006101a08201905062000f83600083018662000c05565b62000f92602083018562000e94565b62000fa1604083018462000d7b565b949350505050565b6000602082019050818103600083015262000fc5818462000c16565b905092915050565b6000602082019050818103600083015262000fe88162000c91565b9050919050565b600060208201905081810360008301526200100a8162000cb8565b9050919050565b600060208201905081810360008301526200102c8162000cdf565b9050919050565b600060208201905081810360008301526200104e8162000d06565b9050919050565b60006020820190508181036000830152620010708162000d2d565b9050919050565b60006020820190508181036000830152620010928162000d54565b9050919050565b6000819050602082019050919050565b600081519050919050565b6000602082019050919050565b600082825260208201905092915050565b600082825260208201905092915050565b6000620010f08262001362565b9150620010fd8362001362565b92508262001110576200110f620013a8565b5b828204905092915050565b6000808291508390505b60018511156200116d5780860481111562001145576200114462001379565b5b6001851615620011555780820291505b80810290506200116585620013dc565b945062001125565b94509492505050565b6000620011838262001362565b915062001190836200136c565b9250620011bf7fffffffffffffffffffffffffffffffffffffffffffffffffffffffffffffffff8484620011c7565b905092915050565b600082620011d95760019050620012ac565b81620011e95760009050620012ac565b81600181146200120257600281146200120d5762001243565b6001915050620012ac565b60ff84111562001222576200122162001379565b5b8360020a9150848211156200123c576200123b62001379565b5b50620012ac565b5060208310610133831016604e8410600b84101617156200127d5782820a90508381111562001277576200127662001379565b5b620012ac565b6200128c84848460016200111b565b92509050818404811115620012a657620012a562001379565b5b81810290505b9392505050565b6000620012c08262001362565b9150620012cd8362001362565b9250817fffffffffffffffffffffffffffffffffffffffffffffffffffffffffffffffff048311821515161562001309576200130862001379565b5b828202905092915050565b6000620013218262001342565b9050919050565b60008115159050919050565b600061ffff82169050919050565b600073ffffffffffffffffffffffffffffffffffffffff82169050919050565b6000819050919050565b600060ff82169050919050565b7f4e487b7100000000000000000000000000000000000000000000000000000000600052601160045260246000fd5b7f4e487b7100000000000000000000000000000000000000000000000000000000600052601260045260246000fd5b600080fd5b60008160011c9050919050565b7f4f776e61626c653a206e6577206f776e657220697320746865207a65726f206160008201527f6464726573730000000000000000000000000000000000000000000000000000602082015250565b7f53656c6c20746f6b656e2061646472657373206973207a65726f000000000000600082015250565b7f416c6c6f77616e636520697320696e737566666369656e740000000000000000600082015250565b7f4f776e61626c653a2063616c6c6572206973206e6f7420746865206f776e6572600082015250565b7f5472616e7366657246726f6d206572726f720000000000000000000000000000600082015250565b7f42757920746f6b656e2061646472657373206973207a65726f00000000000000600082015250565b620015108162001314565b81146200151c57600080fd5b50565b6200152a8162001328565b81146200153657600080fd5b50565b620015448162001334565b81146200155057600080fd5b50565b6200155e8162001362565b81146200156a57600080fd5b50565b62001578816200136c565b81146200158457600080fd5b5056fe60806040523480156200001157600080fd5b506040516200140438038062001404833981810160405281019062000037919062000577565b620000576200004b6200031160201b60201c565b6200031960201b60201c565b33600160006101000a81548173ffffffffffffffffffffffffffffffffffffffff021916908373ffffffffffffffffffffffffffffffffffffffff16021790555082600260006101000a81548173ffffffffffffffffffffffffffffffffffffffff021916908373ffffffffffffffffffffffffffffffffffffffff1602179055508160038190555080600460008201518160000160006101000a81548173ffffffffffffffffffffffffffffffffffffffff021916908373ffffffffffffffffffffffffffffffffffffffff16021790555060208201518160010160006101000a81548173ffffffffffffffffffffffffffffffffffffffff021916908373ffffffffffffffffffffffffffffffffffffffff16021790555060408201518160010160146101000a81548160ff021916908360ff16021790555060608201518160010160156101000a81548160ff0219169083151502179055506080820151816002015560a0820151816003015560c08201518160040160006101000a81548161ffff021916908361ffff16021790555060e08201518160040160026101000a81548161ffff021916908361ffff16021790555061010082015181600501556101208201518160060160006101000a81548161ffff021916908361ffff1602179055506101408201518160060160026101000a81548173ffffffffffffffffffffffffffffffffffffffff021916908373ffffffffffffffffffffffffffffffffffffffff1602179055509050507f814781ebf6983ec3ae5232a07cd5f49d7be5b356e8b5b3e3c45c2eb50e72a7b8600160009054906101000a900473ffffffffffffffffffffffffffffffffffffffff16600260009054906101000a900473ffffffffffffffffffffffffffffffffffffffff1660046040516200030093929190620007a3565b60405180910390a150505062000ac9565b600033905090565b60008060009054906101000a900473ffffffffffffffffffffffffffffffffffffffff169050816000806101000a81548173ffffffffffffffffffffffffffffffffffffffff021916908373ffffffffffffffffffffffffffffffffffffffff1602179055508173ffffffffffffffffffffffffffffffffffffffff168173ffffffffffffffffffffffffffffffffffffffff167f8be0079c531659141344cd1fd0a4f28419497f9722a3daafe3b4186f6b6457e060405160405180910390a35050565b600081519050620003ee8162000a47565b92915050565b600081519050620004058162000a61565b92915050565b60006101608284031215620004255762000424620009f8565b5b62000432610160620007e1565b905060006200044484828501620003dd565b60008301525060206200045a84828501620003dd565b6020830152506040620004708482850162000560565b60408301525060606200048684828501620003f4565b60608301525060806200049c8482850162000549565b60808301525060a0620004b28482850162000549565b60a08301525060c0620004c88482850162000532565b60c08301525060e0620004de8482850162000532565b60e083015250610100620004f58482850162000549565b610100830152506101206200050d8482850162000532565b610120830152506101406200052584828501620003dd565b6101408301525092915050565b600081519050620005438162000a7b565b92915050565b6000815190506200055a8162000a95565b92915050565b600081519050620005718162000aaf565b92915050565b60008060006101a08486031215620005945762000593620009fd565b5b6000620005a486828701620003dd565b9350506020620005b78682870162000549565b9250506040620005ca868287016200040b565b9150509250925092565b620005df816200085c565b82525050565b620005f0816200085c565b82525050565b620006018162000870565b82525050565b610160820160008083015490506200061f81620008c1565b6200062e6000860182620005d4565b50600183015490506200064181620008c1565b620006506020860182620005d4565b506200065c816200091b565b6200066b604086018262000792565b50620006778162000939565b620006866060860182620005f6565b50600283015490506200069981620008fd565b620006a8608086018262000781565b5060038301549050620006bb81620008fd565b620006ca60a086018262000781565b5060048301549050620006dd81620008df565b620006ec60c086018262000770565b50620006f88162000975565b6200070760e086018262000770565b50600583015490506200071a81620008fd565b6200072a61010086018262000781565b50600683015490506200073d81620008df565b6200074d61012086018262000770565b50620007598162000957565b62000769610140860182620005d4565b5050505050565b6200077b816200087c565b82525050565b6200078c81620008aa565b82525050565b6200079d81620008b4565b82525050565b60006101a082019050620007bb6000830186620005e5565b620007ca6020830185620005e5565b620007d9604083018462000607565b949350505050565b6000620007ed62000800565b9050620007fb828262000993565b919050565b6000604051905090565b600073ffffffffffffffffffffffffffffffffffffffff82169050919050565b600060ff82169050919050565b600061ffff82169050919050565b6000819050919050565b600060ff82169050919050565b600062000869826200088a565b9050919050565b60008115159050919050565b600061ffff82169050919050565b600073ffffffffffffffffffffffffffffffffffffffff82169050919050565b6000819050919050565b600060ff82169050919050565b6000620008d8620008d28362000a13565b6200080a565b9050919050565b6000620008f6620008f08362000a13565b62000837565b9050919050565b6000620009146200090e8362000a13565b62000845565b9050919050565b6000620009326200092c8362000a20565b6200084f565b9050919050565b6000620009506200094a8362000a2d565b6200082a565b9050919050565b60006200096e620009688362000a3a565b6200080a565b9050919050565b60006200098c620009868362000a3a565b62000837565b9050919050565b6200099e8262000a02565b810181811067ffffffffffffffff82111715620009c057620009bf620009c9565b5b80604052505050565b7f4e487b7100000000000000000000000000000000000000000000000000000000600052604160045260246000fd5b600080fd5b600080fd5b6000601f19601f8301169050919050565b60008160001c9050919050565b60008160a01c9050919050565b60008160a81c9050919050565b60008160101c9050919050565b62000a52816200085c565b811462000a5e57600080fd5b50565b62000a6c8162000870565b811462000a7857600080fd5b50565b62000a86816200087c565b811462000a9257600080fd5b50565b62000aa081620008aa565b811462000aac57600080fd5b50565b62000aba81620008b4565b811462000ac657600080fd5b50565b61092b8062000ad96000396000f3fe608060405234801561001057600080fd5b50600436106100885760003560e01c80638da5cb5b1161005b5780638da5cb5b146100f2578063a0e6a0c514610110578063c45a015514610138578063f2fde38b1461015657610088565b8063320fd80a1461008d578063370158ea146100ab5780634d853ee5146100ca578063715018a6146100e8575b600080fd5b610095610172565b6040516100a29190610792565b60405180910390f35b6100b3610178565b6040516100c19291906107ad565b60405180910390f35b6100d2610234565b6040516100df919061068c565b60405180910390f35b6100f061025a565b005b6100fa61026e565b604051610107919061068c565b60405180910390f35b610118610297565b60405161012f9b9a999897969594939291906106a7565b60405180910390f35b610140610383565b60405161014d919061068c565b60405180910390f35b610170600480360381019061016b91906105a1565b6103a9565b005b60035481565b600080600354600460000160009054906101000a900473ffffffffffffffffffffffffffffffffffffffff1673ffffffffffffffffffffffffffffffffffffffff166370a08231306040518263ffffffff1660e01b81526004016101dc919061068c565b60206040518083038186803b1580156101f457600080fd5b505afa158015610208573d6000803e3d6000fd5b505050506040513d601f19601f8201168201806040525081019061022c91906105ce565b915091509091565b600260009054906101000a900473ffffffffffffffffffffffffffffffffffffffff1681565b61026261042d565b61026c60006104ab565b565b60008060009054906101000a900473ffffffffffffffffffffffffffffffffffffffff16905090565b60048060000160009054906101000a900473ffffffffffffffffffffffffffffffffffffffff16908060010160009054906101000a900473ffffffffffffffffffffffffffffffffffffffff16908060010160149054906101000a900460ff16908060010160159054906101000a900460ff16908060020154908060030154908060040160009054906101000a900461ffff16908060040160029054906101000a900461ffff16908060050154908060060160009054906101000a900461ffff16908060060160029054906101000a900473ffffffffffffffffffffffffffffffffffffffff1690508b565b600160009054906101000a900473ffffffffffffffffffffffffffffffffffffffff1681565b6103b161042d565b600073ffffffffffffffffffffffffffffffffffffffff168173ffffffffffffffffffffffffffffffffffffffff161415610421576040517f08c379a000000000000000000000000000000000000000000000000000000000815260040161041890610752565b60405180910390fd5b61042a816104ab565b50565b61043561056f565b73ffffffffffffffffffffffffffffffffffffffff1661045361026e565b73ffffffffffffffffffffffffffffffffffffffff16146104a9576040517f08c379a00000000000000000000000000000000000000000000000000000000081526004016104a090610772565b60405180910390fd5b565b60008060009054906101000a900473ffffffffffffffffffffffffffffffffffffffff169050816000806101000a81548173ffffffffffffffffffffffffffffffffffffffff021916908373ffffffffffffffffffffffffffffffffffffffff1602179055508173ffffffffffffffffffffffffffffffffffffffff168173ffffffffffffffffffffffffffffffffffffffff167f8be0079c531659141344cd1fd0a4f28419497f9722a3daafe3b4186f6b6457e060405160405180910390a35050565b600033905090565b600081359050610586816108c7565b92915050565b60008151905061059b816108de565b92915050565b6000602082840312156105b7576105b661084a565b5b60006105c584828501610577565b91505092915050565b6000602082840312156105e4576105e361084a565b5b60006105f28482850161058c565b91505092915050565b610604816107e7565b82525050565b610613816107f9565b82525050565b60006106266026836107d6565b91506106318261084f565b604082019050919050565b60006106496020836107d6565b91506106548261089e565b602082019050919050565b61066881610805565b82525050565b61067781610833565b82525050565b6106868161083d565b82525050565b60006020820190506106a160008301846105fb565b92915050565b6000610160820190506106bd600083018e6105fb565b6106ca602083018d6105fb565b6106d7604083018c61067d565b6106e4606083018b61060a565b6106f1608083018a61066e565b6106fe60a083018961066e565b61070b60c083018861065f565b61071860e083018761065f565b61072661010083018661066e565b61073461012083018561065f565b6107426101408301846105fb565b9c9b505050505050505050505050565b6000602082019050818103600083015261076b81610619565b9050919050565b6000602082019050818103600083015261078b8161063c565b9050919050565b60006020820190506107a7600083018461066e565b92915050565b60006040820190506107c2600083018561066e565b6107cf602083018461066e565b9392505050565b600082825260208201905092915050565b60006107f282610813565b9050919050565b60008115159050919050565b600061ffff82169050919050565b600073ffffffffffffffffffffffffffffffffffffffff82169050919050565b6000819050919050565b600060ff82169050919050565b600080fd5b7f4f776e61626c653a206e6577206f776e657220697320746865207a65726f206160008201527f6464726573730000000000000000000000000000000000000000000000000000602082015250565b7f4f776e61626c653a2063616c6c6572206973206e6f7420746865206f776e6572600082015250565b6108d0816107e7565b81146108db57600080fd5b50565b6108e781610833565b81146108f257600080fd5b5056fea26469706673582212208ab6d47ee97066646e3c583f2e87d67e16f116ea58f41aeb100ceffbb210b22f64736f6c63430008070033a2646970667358221220d5dbe651d2b9daaeabf663d7167ab8f1e80b4ad348c227bbfb4867612c413ccd64736f6c63430008070033",
			"opcodes": "PUSH1 0x80 PUSH1 0x40 MSTORE CALLVALUE DUP1 ISZERO PUSH2 0x10 JUMPI PUSH1 0x0 DUP1 REVERT JUMPDEST POP PUSH2 0x2D PUSH2 0x22 PUSH2 0x32 PUSH1 0x20 SHL PUSH1 0x20 SHR JUMP JUMPDEST PUSH2 0x3A PUSH1 0x20 SHL PUSH1 0x20 SHR JUMP JUMPDEST PUSH2 0xFE JUMP JUMPDEST PUSH1 0x0 CALLER SWAP1 POP SWAP1 JUMP JUMPDEST PUSH1 0x0 DUP1 PUSH1 0x0 SWAP1 SLOAD SWAP1 PUSH2 0x100 EXP SWAP1 DIV PUSH20 0xFFFFFFFFFFFFFFFFFFFFFFFFFFFFFFFFFFFFFFFF AND SWAP1 POP DUP2 PUSH1 0x0 DUP1 PUSH2 0x100 EXP DUP2 SLOAD DUP2 PUSH20 0xFFFFFFFFFFFFFFFFFFFFFFFFFFFFFFFFFFFFFFFF MUL NOT AND SWAP1 DUP4 PUSH20 0xFFFFFFFFFFFFFFFFFFFFFFFFFFFFFFFFFFFFFFFF AND MUL OR SWAP1 SSTORE POP DUP2 PUSH20 0xFFFFFFFFFFFFFFFFFFFFFFFFFFFFFFFFFFFFFFFF AND DUP2 PUSH20 0xFFFFFFFFFFFFFFFFFFFFFFFFFFFFFFFFFFFFFFFF AND PUSH32 0x8BE0079C531659141344CD1FD0A4F28419497F9722A3DAAFE3B4186F6B6457E0 PUSH1 0x40 MLOAD PUSH1 0x40 MLOAD DUP1 SWAP2 SUB SWAP1 LOG3 POP POP JUMP JUMPDEST PUSH2 0x29C1 DUP1 PUSH2 0x10D PUSH1 0x0 CODECOPY PUSH1 0x0 RETURN INVALID PUSH1 0x80 PUSH1 0x40 MSTORE CALLVALUE DUP1 ISZERO PUSH3 0x11 JUMPI PUSH1 0x0 DUP1 REVERT JUMPDEST POP PUSH1 0x4 CALLDATASIZE LT PUSH3 0x5E JUMPI PUSH1 0x0 CALLDATALOAD PUSH1 0xE0 SHR DUP1 PUSH4 0x715018A6 EQ PUSH3 0x63 JUMPI DUP1 PUSH4 0x79201EEC EQ PUSH3 0x6F JUMPI DUP1 PUSH4 0x8DA5CB5B EQ PUSH3 0x91 JUMPI DUP1 PUSH4 0x9216BE27 EQ PUSH3 0xB3 JUMPI DUP1 PUSH4 0xF2FDE38B EQ PUSH3 0xD3 JUMPI JUMPDEST PUSH1 0x0 DUP1 REVERT JUMPDEST PUSH3 0x6D PUSH3 0xF3 JUMP JUMPDEST STOP JUMPDEST PUSH3 0x79 PUSH3 0x10B JUMP JUMPDEST PUSH1 0x40 MLOAD PUSH3 0x88 SWAP2 SWAP1 PUSH3 0xFA9 JUMP JUMPDEST PUSH1 0x40 MLOAD DUP1 SWAP2 SUB SWAP1 RETURN JUMPDEST PUSH3 0x9B PUSH3 0x19B JUMP JUMPDEST PUSH1 0x40 MLOAD PUSH3 0xAA SWAP2 SWAP1 PUSH3 0xEB6 JUMP JUMPDEST PUSH1 0x40 MLOAD DUP1 SWAP2 SUB SWAP1 RETURN JUMPDEST PUSH3 0xD1 PUSH1 0x4 DUP1 CALLDATASIZE SUB DUP2 ADD SWAP1 PUSH3 0xCB SWAP2 SWAP1 PUSH3 0xA65 JUMP JUMPDEST PUSH3 0x1C4 JUMP JUMPDEST STOP JUMPDEST PUSH3 0xF1 PUSH1 0x4 DUP1 CALLDATASIZE SUB DUP2 ADD SWAP1 PUSH3 0xEB SWAP2 SWAP1 PUSH3 0xA33 JUMP JUMPDEST PUSH3 0x7BF JUMP JUMPDEST STOP JUMPDEST PUSH3 0xFD PUSH3 0x84A JUMP JUMPDEST PUSH3 0x109 PUSH1 0x0 PUSH3 0x8CF JUMP JUMPDEST JUMP JUMPDEST PUSH1 0x60 PUSH1 0x1 DUP1 SLOAD DUP1 PUSH1 0x20 MUL PUSH1 0x20 ADD PUSH1 0x40 MLOAD SWAP1 DUP2 ADD PUSH1 0x40 MSTORE DUP1 SWAP3 SWAP2 SWAP1 DUP2 DUP2 MSTORE PUSH1 0x20 ADD DUP3 DUP1 SLOAD DUP1 ISZERO PUSH3 0x191 JUMPI PUSH1 0x20 MUL DUP3 ADD SWAP2 SWAP1 PUSH1 0x0 MSTORE PUSH1 0x20 PUSH1 0x0 KECCAK256 SWAP1 JUMPDEST DUP2 PUSH1 0x0 SWAP1 SLOAD SWAP1 PUSH2 0x100 EXP SWAP1 DIV PUSH20 0xFFFFFFFFFFFFFFFFFFFFFFFFFFFFFFFFFFFFFFFF AND PUSH20 0xFFFFFFFFFFFFFFFFFFFFFFFFFFFFFFFFFFFFFFFF AND DUP2 MSTORE PUSH1 0x20 ADD SWAP1 PUSH1 0x1 ADD SWAP1 DUP1 DUP4 GT PUSH3 0x146 JUMPI JUMPDEST POP POP POP POP POP SWAP1 POP SWAP1 JUMP JUMPDEST PUSH1 0x0 DUP1 PUSH1 0x0 SWAP1 SLOAD SWAP1 PUSH2 0x100 EXP SWAP1 DIV PUSH20 0xFFFFFFFFFFFFFFFFFFFFFFFFFFFFFFFFFFFFFFFF AND SWAP1 POP SWAP1 JUMP JUMPDEST PUSH1 0x0 PUSH1 0x40 MLOAD DUP1 PUSH2 0x160 ADD PUSH1 0x40 MSTORE DUP1 DUP12 PUSH20 0xFFFFFFFFFFFFFFFFFFFFFFFFFFFFFFFFFFFFFFFF AND DUP2 MSTORE PUSH1 0x20 ADD DUP11 PUSH20 0xFFFFFFFFFFFFFFFFFFFFFFFFFFFFFFFFFFFFFFFF AND DUP2 MSTORE PUSH1 0x20 ADD PUSH1 0x12 PUSH1 0xFF AND DUP2 MSTORE PUSH1 0x20 ADD PUSH1 0x1 ISZERO ISZERO DUP2 MSTORE PUSH1 0x20 ADD DUP10 DUP2 MSTORE PUSH1 0x20 ADD DUP9 DUP2 MSTORE PUSH1 0x20 ADD DUP8 PUSH2 0xFFFF AND DUP2 MSTORE PUSH1 0x20 ADD DUP7 PUSH2 0xFFFF AND DUP2 MSTORE PUSH1 0x20 ADD DUP6 DUP2 MSTORE PUSH1 0x20 ADD DUP5 PUSH2 0xFFFF AND DUP2 MSTORE PUSH1 0x20 ADD DUP4 PUSH20 0xFFFFFFFFFFFFFFFFFFFFFFFFFFFFFFFFFFFFFFFF AND DUP2 MSTORE POP SWAP1 POP PUSH1 0x0 PUSH20 0xFFFFFFFFFFFFFFFFFFFFFFFFFFFFFFFFFFFFFFFF AND DUP11 PUSH20 0xFFFFFFFFFFFFFFFFFFFFFFFFFFFFFFFFFFFFFFFF AND EQ ISZERO PUSH3 0x2DC JUMPI PUSH1 0x40 MLOAD PUSH32 0x8C379A000000000000000000000000000000000000000000000000000000000 DUP2 MSTORE PUSH1 0x4 ADD PUSH3 0x2D3 SWAP1 PUSH3 0xFEF JUMP JUMPDEST PUSH1 0x40 MLOAD DUP1 SWAP2 SUB SWAP1 REVERT JUMPDEST PUSH1 0x0 PUSH20 0xFFFFFFFFFFFFFFFFFFFFFFFFFFFFFFFFFFFFFFFF AND DUP10 PUSH20 0xFFFFFFFFFFFFFFFFFFFFFFFFFFFFFFFFFFFFFFFF AND EQ ISZERO PUSH3 0x34F JUMPI PUSH1 0x40 MLOAD PUSH32 0x8C379A000000000000000000000000000000000000000000000000000000000 DUP2 MSTORE PUSH1 0x4 ADD PUSH3 0x346 SWAP1 PUSH3 0x1077 JUMP JUMPDEST PUSH1 0x40 MLOAD DUP1 SWAP2 SUB SWAP1 REVERT JUMPDEST DUP1 PUSH1 0x20 ADD MLOAD PUSH20 0xFFFFFFFFFFFFFFFFFFFFFFFFFFFFFFFFFFFFFFFF AND DUP2 PUSH1 0x0 ADD MLOAD PUSH20 0xFFFFFFFFFFFFFFFFFFFFFFFFFFFFFFFFFFFFFFFF AND EQ PUSH3 0x434 JUMPI PUSH1 0x0 DUP2 PUSH1 0x60 ADD SWAP1 ISZERO ISZERO SWAP1 DUP2 ISZERO ISZERO DUP2 MSTORE POP POP DUP1 PUSH1 0x20 ADD MLOAD PUSH20 0xFFFFFFFFFFFFFFFFFFFFFFFFFFFFFFFFFFFFFFFF AND PUSH4 0x313CE567 PUSH1 0x40 MLOAD DUP2 PUSH4 0xFFFFFFFF AND PUSH1 0xE0 SHL DUP2 MSTORE PUSH1 0x4 ADD PUSH1 0x20 PUSH1 0x40 MLOAD DUP1 DUP4 SUB DUP2 DUP7 DUP1 EXTCODESIZE ISZERO DUP1 ISZERO PUSH3 0x3E7 JUMPI PUSH1 0x0 DUP1 REVERT JUMPDEST POP GAS STATICCALL ISZERO DUP1 ISZERO PUSH3 0x3FC JUMPI RETURNDATASIZE PUSH1 0x0 DUP1 RETURNDATACOPY RETURNDATASIZE PUSH1 0x0 REVERT JUMPDEST POP POP POP POP PUSH1 0x40 MLOAD RETURNDATASIZE PUSH1 0x1F NOT PUSH1 0x1F DUP3 ADD AND DUP3 ADD DUP1 PUSH1 0x40 MSTORE POP DUP2 ADD SWAP1 PUSH3 0x422 SWAP2 SWAP1 PUSH3 0xBA8 JUMP JUMPDEST DUP2 PUSH1 0x40 ADD SWAP1 PUSH1 0xFF AND SWAP1 DUP2 PUSH1 0xFF AND DUP2 MSTORE POP POP JUMPDEST PUSH1 0x0 DUP2 PUSH1 0x0 ADD MLOAD SWAP1 POP PUSH1 0x0 DUP3 PUSH1 0x0 ADD MLOAD PUSH20 0xFFFFFFFFFFFFFFFFFFFFFFFFFFFFFFFFFFFFFFFF AND PUSH4 0x313CE567 PUSH1 0x40 MLOAD DUP2 PUSH4 0xFFFFFFFF AND PUSH1 0xE0 SHL DUP2 MSTORE PUSH1 0x4 ADD PUSH1 0x20 PUSH1 0x40 MLOAD DUP1 DUP4 SUB DUP2 DUP7 DUP1 EXTCODESIZE ISZERO DUP1 ISZERO PUSH3 0x48A JUMPI PUSH1 0x0 DUP1 REVERT JUMPDEST POP GAS STATICCALL ISZERO DUP1 ISZERO PUSH3 0x49F JUMPI RETURNDATASIZE PUSH1 0x0 DUP1 RETURNDATACOPY RETURNDATASIZE PUSH1 0x0 REVERT JUMPDEST POP POP POP POP PUSH1 0x40 MLOAD RETURNDATASIZE PUSH1 0x1F NOT PUSH1 0x1F DUP3 ADD AND DUP3 ADD DUP1 PUSH1 0x40 MSTORE POP DUP2 ADD SWAP1 PUSH3 0x4C5 SWAP2 SWAP1 PUSH3 0xBA8 JUMP JUMPDEST PUSH1 0xA PUSH3 0x4D3 SWAP2 SWAP1 PUSH3 0x1176 JUMP JUMPDEST PUSH1 0x64 DUP5 PUSH1 0xA0 ADD MLOAD DUP6 PUSH1 0x40 ADD MLOAD PUSH1 0xA PUSH3 0x4ED SWAP2 SWAP1 PUSH3 0x1176 JUMP JUMPDEST DUP7 PUSH1 0x80 ADD MLOAD PUSH3 0x4FE SWAP2 SWAP1 PUSH3 0x10E3 JUMP JUMPDEST PUSH3 0x50A SWAP2 SWAP1 PUSH3 0x12B3 JUMP JUMPDEST PUSH3 0x516 SWAP2 SWAP1 PUSH3 0x10E3 JUMP JUMPDEST PUSH3 0x522 SWAP2 SWAP1 PUSH3 0x12B3 JUMP JUMPDEST SWAP1 POP DUP1 DUP3 PUSH20 0xFFFFFFFFFFFFFFFFFFFFFFFFFFFFFFFFFFFFFFFF AND PUSH4 0xDD62ED3E CALLER ADDRESS PUSH1 0x40 MLOAD DUP4 PUSH4 0xFFFFFFFF AND PUSH1 0xE0 SHL DUP2 MSTORE PUSH1 0x4 ADD PUSH3 0x562 SWAP3 SWAP2 SWAP1 PUSH3 0xED3 JUMP JUMPDEST PUSH1 0x20 PUSH1 0x40 MLOAD DUP1 DUP4 SUB DUP2 DUP7 DUP1 EXTCODESIZE ISZERO DUP1 ISZERO PUSH3 0x57B JUMPI PUSH1 0x0 DUP1 REVERT JUMPDEST POP GAS STATICCALL ISZERO DUP1 ISZERO PUSH3 0x590 JUMPI RETURNDATASIZE PUSH1 0x0 DUP1 RETURNDATACOPY RETURNDATASIZE PUSH1 0x0 REVERT JUMPDEST POP POP POP POP PUSH1 0x40 MLOAD RETURNDATASIZE PUSH1 0x1F NOT PUSH1 0x1F DUP3 ADD AND DUP3 ADD DUP1 PUSH1 0x40 MSTORE POP DUP2 ADD SWAP1 PUSH3 0x5B6 SWAP2 SWAP1 PUSH3 0xB76 JUMP JUMPDEST LT ISZERO PUSH3 0x5FA JUMPI PUSH1 0x40 MLOAD PUSH32 0x8C379A000000000000000000000000000000000000000000000000000000000 DUP2 MSTORE PUSH1 0x4 ADD PUSH3 0x5F1 SWAP1 PUSH3 0x1011 JUMP JUMPDEST PUSH1 0x40 MLOAD DUP1 SWAP2 SUB SWAP1 REVERT JUMPDEST PUSH1 0x0 CALLER DUP3 DUP6 PUSH1 0x40 MLOAD PUSH3 0x60D SWAP1 PUSH3 0x99B JUMP JUMPDEST PUSH3 0x61B SWAP4 SWAP3 SWAP2 SWAP1 PUSH3 0xF6B JUMP JUMPDEST PUSH1 0x40 MLOAD DUP1 SWAP2 SUB SWAP1 PUSH1 0x0 CREATE DUP1 ISZERO DUP1 ISZERO PUSH3 0x638 JUMPI RETURNDATASIZE PUSH1 0x0 DUP1 RETURNDATACOPY RETURNDATASIZE PUSH1 0x0 REVERT JUMPDEST POP SWAP1 POP DUP3 PUSH20 0xFFFFFFFFFFFFFFFFFFFFFFFFFFFFFFFFFFFFFFFF AND PUSH4 0x23B872DD CALLER DUP4 DUP6 PUSH1 0x40 MLOAD DUP5 PUSH4 0xFFFFFFFF AND PUSH1 0xE0 SHL DUP2 MSTORE PUSH1 0x4 ADD PUSH3 0x67A SWAP4 SWAP3 SWAP2 SWAP1 PUSH3 0xF00 JUMP JUMPDEST PUSH1 0x20 PUSH1 0x40 MLOAD DUP1 DUP4 SUB DUP2 PUSH1 0x0 DUP8 DUP1 EXTCODESIZE ISZERO DUP1 ISZERO PUSH3 0x695 JUMPI PUSH1 0x0 DUP1 REVERT JUMPDEST POP GAS CALL ISZERO DUP1 ISZERO PUSH3 0x6AA JUMPI RETURNDATASIZE PUSH1 0x0 DUP1 RETURNDATACOPY RETURNDATASIZE PUSH1 0x0 REVERT JUMPDEST POP POP POP POP PUSH1 0x40 MLOAD RETURNDATASIZE PUSH1 0x1F NOT PUSH1 0x1F DUP3 ADD AND DUP3 ADD DUP1 PUSH1 0x40 MSTORE POP DUP2 ADD SWAP1 PUSH3 0x6D0 SWAP2 SWAP1 PUSH3 0xB44 JUMP JUMPDEST PUSH3 0x712 JUMPI PUSH1 0x40 MLOAD PUSH32 0x8C379A000000000000000000000000000000000000000000000000000000000 DUP2 MSTORE PUSH1 0x4 ADD PUSH3 0x709 SWAP1 PUSH3 0x1055 JUMP JUMPDEST PUSH1 0x40 MLOAD DUP1 SWAP2 SUB SWAP1 REVERT JUMPDEST PUSH1 0x1 DUP2 SWAP1 DUP1 PUSH1 0x1 DUP2 SLOAD ADD DUP1 DUP3 SSTORE DUP1 SWAP2 POP POP PUSH1 0x1 SWAP1 SUB SWAP1 PUSH1 0x0 MSTORE PUSH1 0x20 PUSH1 0x0 KECCAK256 ADD PUSH1 0x0 SWAP1 SWAP2 SWAP1 SWAP2 SWAP1 SWAP2 PUSH2 0x100 EXP DUP2 SLOAD DUP2 PUSH20 0xFFFFFFFFFFFFFFFFFFFFFFFFFFFFFFFFFFFFFFFF MUL NOT AND SWAP1 DUP4 PUSH20 0xFFFFFFFFFFFFFFFFFFFFFFFFFFFFFFFFFFFFFFFF AND MUL OR SWAP1 SSTORE POP PUSH32 0xCDB338146291F7D9E95DAE7EF810B11E499445DBBB37F6CEB0064A0FB9CFF6B0 DUP2 DUP6 PUSH1 0x40 MLOAD PUSH3 0x7A8 SWAP3 SWAP2 SWAP1 PUSH3 0xF3D JUMP JUMPDEST PUSH1 0x40 MLOAD DUP1 SWAP2 SUB SWAP1 LOG1 POP POP POP POP POP POP POP POP POP POP POP POP POP JUMP JUMPDEST PUSH3 0x7C9 PUSH3 0x84A JUMP JUMPDEST PUSH1 0x0 PUSH20 0xFFFFFFFFFFFFFFFFFFFFFFFFFFFFFFFFFFFFFFFF AND DUP2 PUSH20 0xFFFFFFFFFFFFFFFFFFFFFFFFFFFFFFFFFFFFFFFF AND EQ ISZERO PUSH3 0x83C JUMPI PUSH1 0x40 MLOAD PUSH32 0x8C379A000000000000000000000000000000000000000000000000000000000 DUP2 MSTORE PUSH1 0x4 ADD PUSH3 0x833 SWAP1 PUSH3 0xFCD JUMP JUMPDEST PUSH1 0x40 MLOAD DUP1 SWAP2 SUB SWAP1 REVERT JUMPDEST PUSH3 0x847 DUP2 PUSH3 0x8CF JUMP JUMPDEST POP JUMP JUMPDEST PUSH3 0x854 PUSH3 0x993 JUMP JUMPDEST PUSH20 0xFFFFFFFFFFFFFFFFFFFFFFFFFFFFFFFFFFFFFFFF AND PUSH3 0x874 PUSH3 0x19B JUMP JUMPDEST PUSH20 0xFFFFFFFFFFFFFFFFFFFFFFFFFFFFFFFFFFFFFFFF AND EQ PUSH3 0x8CD JUMPI PUSH1 0x40 MLOAD PUSH32 0x8C379A000000000000000000000000000000000000000000000000000000000 DUP2 MSTORE PUSH1 0x4 ADD PUSH3 0x8C4 SWAP1 PUSH3 0x1033 JUMP JUMPDEST PUSH1 0x40 MLOAD DUP1 SWAP2 SUB SWAP1 REVERT JUMPDEST JUMP JUMPDEST PUSH1 0x0 DUP1 PUSH1 0x0 SWAP1 SLOAD SWAP1 PUSH2 0x100 EXP SWAP1 DIV PUSH20 0xFFFFFFFFFFFFFFFFFFFFFFFFFFFFFFFFFFFFFFFF AND SWAP1 POP DUP2 PUSH1 0x0 DUP1 PUSH2 0x100 EXP DUP2 SLOAD DUP2 PUSH20 0xFFFFFFFFFFFFFFFFFFFFFFFFFFFFFFFFFFFFFFFF MUL NOT AND SWAP1 DUP4 PUSH20 0xFFFFFFFFFFFFFFFFFFFFFFFFFFFFFFFFFFFFFFFF AND MUL OR SWAP1 SSTORE POP DUP2 PUSH20 0xFFFFFFFFFFFFFFFFFFFFFFFFFFFFFFFFFFFFFFFF AND DUP2 PUSH20 0xFFFFFFFFFFFFFFFFFFFFFFFFFFFFFFFFFFFFFFFF AND PUSH32 0x8BE0079C531659141344CD1FD0A4F28419497F9722A3DAAFE3B4186F6B6457E0 PUSH1 0x40 MLOAD PUSH1 0x40 MLOAD DUP1 SWAP2 SUB SWAP1 LOG3 POP POP JUMP JUMPDEST PUSH1 0x0 CALLER SWAP1 POP SWAP1 JUMP JUMPDEST PUSH2 0x1404 DUP1 PUSH3 0x1588 DUP4 CODECOPY ADD SWAP1 JUMP JUMPDEST PUSH1 0x0 DUP2 CALLDATALOAD SWAP1 POP PUSH3 0x9BA DUP2 PUSH3 0x1505 JUMP JUMPDEST SWAP3 SWAP2 POP POP JUMP JUMPDEST PUSH1 0x0 DUP2 MLOAD SWAP1 POP PUSH3 0x9D1 DUP2 PUSH3 0x151F JUMP JUMPDEST SWAP3 SWAP2 POP POP JUMP JUMPDEST PUSH1 0x0 DUP2 CALLDATALOAD SWAP1 POP PUSH3 0x9E8 DUP2 PUSH3 0x1539 JUMP JUMPDEST SWAP3 SWAP2 POP POP JUMP JUMPDEST PUSH1 0x0 DUP2 CALLDATALOAD SWAP1 POP PUSH3 0x9FF DUP2 PUSH3 0x1553 JUMP JUMPDEST SWAP3 SWAP2 POP POP JUMP JUMPDEST PUSH1 0x0 DUP2 MLOAD SWAP1 POP PUSH3 0xA16 DUP2 PUSH3 0x1553 JUMP JUMPDEST SWAP3 SWAP2 POP POP JUMP JUMPDEST PUSH1 0x0 DUP2 MLOAD SWAP1 POP PUSH3 0xA2D DUP2 PUSH3 0x156D JUMP JUMPDEST SWAP3 SWAP2 POP POP JUMP JUMPDEST PUSH1 0x0 PUSH1 0x20 DUP3 DUP5 SUB SLT ISZERO PUSH3 0xA4C JUMPI PUSH3 0xA4B PUSH3 0x13D7 JUMP JUMPDEST JUMPDEST PUSH1 0x0 PUSH3 0xA5C DUP5 DUP3 DUP6 ADD PUSH3 0x9A9 JUMP JUMPDEST SWAP2 POP POP SWAP3 SWAP2 POP POP JUMP JUMPDEST PUSH1 0x0 DUP1 PUSH1 0x0 DUP1 PUSH1 0x0 DUP1 PUSH1 0x0 DUP1 PUSH1 0x0 PUSH2 0x120 DUP11 DUP13 SUB SLT ISZERO PUSH3 0xA8B JUMPI PUSH3 0xA8A PUSH3 0x13D7 JUMP JUMPDEST JUMPDEST PUSH1 0x0 PUSH3 0xA9B DUP13 DUP3 DUP14 ADD PUSH3 0x9A9 JUMP JUMPDEST SWAP10 POP POP PUSH1 0x20 PUSH3 0xAAE DUP13 DUP3 DUP14 ADD PUSH3 0x9A9 JUMP JUMPDEST SWAP9 POP POP PUSH1 0x40 PUSH3 0xAC1 DUP13 DUP3 DUP14 ADD PUSH3 0x9EE JUMP JUMPDEST SWAP8 POP POP PUSH1 0x60 PUSH3 0xAD4 DUP13 DUP3 DUP14 ADD PUSH3 0x9EE JUMP JUMPDEST SWAP7 POP POP PUSH1 0x80 PUSH3 0xAE7 DUP13 DUP3 DUP14 ADD PUSH3 0x9D7 JUMP JUMPDEST SWAP6 POP POP PUSH1 0xA0 PUSH3 0xAFA DUP13 DUP3 DUP14 ADD PUSH3 0x9D7 JUMP JUMPDEST SWAP5 POP POP PUSH1 0xC0 PUSH3 0xB0D DUP13 DUP3 DUP14 ADD PUSH3 0x9EE JUMP JUMPDEST SWAP4 POP POP PUSH1 0xE0 PUSH3 0xB20 DUP13 DUP3 DUP14 ADD PUSH3 0x9D7 JUMP JUMPDEST SWAP3 POP POP PUSH2 0x100 PUSH3 0xB34 DUP13 DUP3 DUP14 ADD PUSH3 0x9A9 JUMP JUMPDEST SWAP2 POP POP SWAP3 SWAP6 SWAP9 POP SWAP3 SWAP6 SWAP9 POP SWAP3 SWAP6 SWAP9 JUMP JUMPDEST PUSH1 0x0 PUSH1 0x20 DUP3 DUP5 SUB SLT ISZERO PUSH3 0xB5D JUMPI PUSH3 0xB5C PUSH3 0x13D7 JUMP JUMPDEST JUMPDEST PUSH1 0x0 PUSH3 0xB6D DUP5 DUP3 DUP6 ADD PUSH3 0x9C0 JUMP JUMPDEST SWAP2 POP POP SWAP3 SWAP2 POP POP JUMP JUMPDEST PUSH1 0x0 PUSH1 0x20 DUP3 DUP5 SUB SLT ISZERO PUSH3 0xB8F JUMPI PUSH3 0xB8E PUSH3 0x13D7 JUMP JUMPDEST JUMPDEST PUSH1 0x0 PUSH3 0xB9F DUP5 DUP3 DUP6 ADD PUSH3 0xA05 JUMP JUMPDEST SWAP2 POP POP SWAP3 SWAP2 POP POP JUMP JUMPDEST PUSH1 0x0 PUSH1 0x20 DUP3 DUP5 SUB SLT ISZERO PUSH3 0xBC1 JUMPI PUSH3 0xBC0 PUSH3 0x13D7 JUMP JUMPDEST JUMPDEST PUSH1 0x0 PUSH3 0xBD1 DUP5 DUP3 DUP6 ADD PUSH3 0xA1C JUMP JUMPDEST SWAP2 POP POP SWAP3 SWAP2 POP POP JUMP JUMPDEST PUSH1 0x0 PUSH3 0xBE8 DUP4 DUP4 PUSH3 0xBF4 JUMP JUMPDEST PUSH1 0x20 DUP4 ADD SWAP1 POP SWAP3 SWAP2 POP POP JUMP JUMPDEST PUSH3 0xBFF DUP2 PUSH3 0x1314 JUMP JUMPDEST DUP3 MSTORE POP POP JUMP JUMPDEST PUSH3 0xC10 DUP2 PUSH3 0x1314 JUMP JUMPDEST DUP3 MSTORE POP POP JUMP JUMPDEST PUSH1 0x0 PUSH3 0xC23 DUP3 PUSH3 0x10A9 JUMP JUMPDEST PUSH3 0xC2F DUP2 DUP6 PUSH3 0x10C1 JUMP JUMPDEST SWAP4 POP PUSH3 0xC3C DUP4 PUSH3 0x1099 JUMP JUMPDEST DUP1 PUSH1 0x0 JUMPDEST DUP4 DUP2 LT ISZERO PUSH3 0xC73 JUMPI DUP2 MLOAD PUSH3 0xC57 DUP9 DUP3 PUSH3 0xBDA JUMP JUMPDEST SWAP8 POP PUSH3 0xC64 DUP4 PUSH3 0x10B4 JUMP JUMPDEST SWAP3 POP POP PUSH1 0x1 DUP2 ADD SWAP1 POP PUSH3 0xC40 JUMP JUMPDEST POP DUP6 SWAP4 POP POP POP POP SWAP3 SWAP2 POP POP JUMP JUMPDEST PUSH3 0xC8B DUP2 PUSH3 0x1328 JUMP JUMPDEST DUP3 MSTORE POP POP JUMP JUMPDEST PUSH1 0x0 PUSH3 0xCA0 PUSH1 0x26 DUP4 PUSH3 0x10D2 JUMP JUMPDEST SWAP2 POP PUSH3 0xCAD DUP3 PUSH3 0x13E9 JUMP JUMPDEST PUSH1 0x40 DUP3 ADD SWAP1 POP SWAP2 SWAP1 POP JUMP JUMPDEST PUSH1 0x0 PUSH3 0xCC7 PUSH1 0x1A DUP4 PUSH3 0x10D2 JUMP JUMPDEST SWAP2 POP PUSH3 0xCD4 DUP3 PUSH3 0x1438 JUMP JUMPDEST PUSH1 0x20 DUP3 ADD SWAP1 POP SWAP2 SWAP1 POP JUMP JUMPDEST PUSH1 0x0 PUSH3 0xCEE PUSH1 0x18 DUP4 PUSH3 0x10D2 JUMP JUMPDEST SWAP2 POP PUSH3 0xCFB DUP3 PUSH3 0x1461 JUMP JUMPDEST PUSH1 0x20 DUP3 ADD SWAP1 POP SWAP2 SWAP1 POP JUMP JUMPDEST PUSH1 0x0 PUSH3 0xD15 PUSH1 0x20 DUP4 PUSH3 0x10D2 JUMP JUMPDEST SWAP2 POP PUSH3 0xD22 DUP3 PUSH3 0x148A JUMP JUMPDEST PUSH1 0x20 DUP3 ADD SWAP1 POP SWAP2 SWAP1 POP JUMP JUMPDEST PUSH1 0x0 PUSH3 0xD3C PUSH1 0x12 DUP4 PUSH3 0x10D2 JUMP JUMPDEST SWAP2 POP PUSH3 0xD49 DUP3 PUSH3 0x14B3 JUMP JUMPDEST PUSH1 0x20 DUP3 ADD SWAP1 POP SWAP2 SWAP1 POP JUMP JUMPDEST PUSH1 0x0 PUSH3 0xD63 PUSH1 0x19 DUP4 PUSH3 0x10D2 JUMP JUMPDEST SWAP2 POP PUSH3 0xD70 DUP3 PUSH3 0x14DC JUMP JUMPDEST PUSH1 0x20 DUP3 ADD SWAP1 POP SWAP2 SWAP1 POP JUMP JUMPDEST PUSH2 0x160 DUP3 ADD PUSH1 0x0 DUP3 ADD MLOAD PUSH3 0xD94 PUSH1 0x0 DUP6 ADD DUP3 PUSH3 0xBF4 JUMP JUMPDEST POP PUSH1 0x20 DUP3 ADD MLOAD PUSH3 0xDA9 PUSH1 0x20 DUP6 ADD DUP3 PUSH3 0xBF4 JUMP JUMPDEST POP PUSH1 0x40 DUP3 ADD MLOAD PUSH3 0xDBE PUSH1 0x40 DUP6 ADD DUP3 PUSH3 0xEA5 JUMP JUMPDEST POP PUSH1 0x60 DUP3 ADD MLOAD PUSH3 0xDD3 PUSH1 0x60 DUP6 ADD DUP3 PUSH3 0xC80 JUMP JUMPDEST POP PUSH1 0x80 DUP3 ADD MLOAD PUSH3 0xDE8 PUSH1 0x80 DUP6 ADD DUP3 PUSH3 0xE83 JUMP JUMPDEST POP PUSH1 0xA0 DUP3 ADD MLOAD PUSH3 0xDFD PUSH1 0xA0 DUP6 ADD DUP3 PUSH3 0xE83 JUMP JUMPDEST POP PUSH1 0xC0 DUP3 ADD MLOAD PUSH3 0xE12 PUSH1 0xC0 DUP6 ADD DUP3 PUSH3 0xE72 JUMP JUMPDEST POP PUSH1 0xE0 DUP3 ADD MLOAD PUSH3 0xE27 PUSH1 0xE0 DUP6 ADD DUP3 PUSH3 0xE72 JUMP JUMPDEST POP PUSH2 0x100 DUP3 ADD MLOAD PUSH3 0xE3E PUSH2 0x100 DUP6 ADD DUP3 PUSH3 0xE83 JUMP JUMPDEST POP PUSH2 0x120 DUP3 ADD MLOAD PUSH3 0xE55 PUSH2 0x120 DUP6 ADD DUP3 PUSH3 0xE72 JUMP JUMPDEST POP PUSH2 0x140 DUP3 ADD MLOAD PUSH3 0xE6C PUSH2 0x140 DUP6 ADD DUP3 PUSH3 0xBF4 JUMP JUMPDEST POP POP POP POP JUMP JUMPDEST PUSH3 0xE7D DUP2 PUSH3 0x1334 JUMP JUMPDEST DUP3 MSTORE POP POP JUMP JUMPDEST PUSH3 0xE8E DUP2 PUSH3 0x1362 JUMP JUMPDEST DUP3 MSTORE POP POP JUMP JUMPDEST PUSH3 0xE9F DUP2 PUSH3 0x1362 JUMP JUMPDEST DUP3 MSTORE POP POP JUMP JUMPDEST PUSH3 0xEB0 DUP2 PUSH3 0x136C JUMP JUMPDEST DUP3 MSTORE POP POP JUMP JUMPDEST PUSH1 0x0 PUSH1 0x20 DUP3 ADD SWAP1 POP PUSH3 0xECD PUSH1 0x0 DUP4 ADD DUP5 PUSH3 0xC05 JUMP JUMPDEST SWAP3 SWAP2 POP POP JUMP JUMPDEST PUSH1 0x0 PUSH1 0x40 DUP3 ADD SWAP1 POP PUSH3 0xEEA PUSH1 0x0 DUP4 ADD DUP6 PUSH3 0xC05 JUMP JUMPDEST PUSH3 0xEF9 PUSH1 0x20 DUP4 ADD DUP5 PUSH3 0xC05 JUMP JUMPDEST SWAP4 SWAP3 POP POP POP JUMP JUMPDEST PUSH1 0x0 PUSH1 0x60 DUP3 ADD SWAP1 POP PUSH3 0xF17 PUSH1 0x0 DUP4 ADD DUP7 PUSH3 0xC05 JUMP JUMPDEST PUSH3 0xF26 PUSH1 0x20 DUP4 ADD DUP6 PUSH3 0xC05 JUMP JUMPDEST PUSH3 0xF35 PUSH1 0x40 DUP4 ADD DUP5 PUSH3 0xE94 JUMP JUMPDEST SWAP5 SWAP4 POP POP POP POP JUMP JUMPDEST PUSH1 0x0 PUSH2 0x180 DUP3 ADD SWAP1 POP PUSH3 0xF55 PUSH1 0x0 DUP4 ADD DUP6 PUSH3 0xC05 JUMP JUMPDEST PUSH3 0xF64 PUSH1 0x20 DUP4 ADD DUP5 PUSH3 0xD7B JUMP JUMPDEST SWAP4 SWAP3 POP POP POP JUMP JUMPDEST PUSH1 0x0 PUSH2 0x1A0 DUP3 ADD SWAP1 POP PUSH3 0xF83 PUSH1 0x0 DUP4 ADD DUP7 PUSH3 0xC05 JUMP JUMPDEST PUSH3 0xF92 PUSH1 0x20 DUP4 ADD DUP6 PUSH3 0xE94 JUMP JUMPDEST PUSH3 0xFA1 PUSH1 0x40 DUP4 ADD DUP5 PUSH3 0xD7B JUMP JUMPDEST SWAP5 SWAP4 POP POP POP POP JUMP JUMPDEST PUSH1 0x0 PUSH1 0x20 DUP3 ADD SWAP1 POP DUP2 DUP2 SUB PUSH1 0x0 DUP4 ADD MSTORE PUSH3 0xFC5 DUP2 DUP5 PUSH3 0xC16 JUMP JUMPDEST SWAP1 POP SWAP3 SWAP2 POP POP JUMP JUMPDEST PUSH1 0x0 PUSH1 0x20 DUP3 ADD SWAP1 POP DUP2 DUP2 SUB PUSH1 0x0 DUP4 ADD MSTORE PUSH3 0xFE8 DUP2 PUSH3 0xC91 JUMP JUMPDEST SWAP1 POP SWAP2 SWAP1 POP JUMP JUMPDEST PUSH1 0x0 PUSH1 0x20 DUP3 ADD SWAP1 POP DUP2 DUP2 SUB PUSH1 0x0 DUP4 ADD MSTORE PUSH3 0x100A DUP2 PUSH3 0xCB8 JUMP JUMPDEST SWAP1 POP SWAP2 SWAP1 POP JUMP JUMPDEST PUSH1 0x0 PUSH1 0x20 DUP3 ADD SWAP1 POP DUP2 DUP2 SUB PUSH1 0x0 DUP4 ADD MSTORE PUSH3 0x102C DUP2 PUSH3 0xCDF JUMP JUMPDEST SWAP1 POP SWAP2 SWAP1 POP JUMP JUMPDEST PUSH1 0x0 PUSH1 0x20 DUP3 ADD SWAP1 POP DUP2 DUP2 SUB PUSH1 0x0 DUP4 ADD MSTORE PUSH3 0x104E DUP2 PUSH3 0xD06 JUMP JUMPDEST SWAP1 POP SWAP2 SWAP1 POP JUMP JUMPDEST PUSH1 0x0 PUSH1 0x20 DUP3 ADD SWAP1 POP DUP2 DUP2 SUB PUSH1 0x0 DUP4 ADD MSTORE PUSH3 0x1070 DUP2 PUSH3 0xD2D JUMP JUMPDEST SWAP1 POP SWAP2 SWAP1 POP JUMP JUMPDEST PUSH1 0x0 PUSH1 0x20 DUP3 ADD SWAP1 POP DUP2 DUP2 SUB PUSH1 0x0 DUP4 ADD MSTORE PUSH3 0x1092 DUP2 PUSH3 0xD54 JUMP JUMPDEST SWAP1 POP SWAP2 SWAP1 POP JUMP JUMPDEST PUSH1 0x0 DUP2 SWAP1 POP PUSH1 0x20 DUP3 ADD SWAP1 POP SWAP2 SWAP1 POP JUMP JUMPDEST PUSH1 0x0 DUP2 MLOAD SWAP1 POP SWAP2 SWAP1 POP JUMP JUMPDEST PUSH1 0x0 PUSH1 0x20 DUP3 ADD SWAP1 POP SWAP2 SWAP1 POP JUMP JUMPDEST PUSH1 0x0 DUP3 DUP3 MSTORE PUSH1 0x20 DUP3 ADD SWAP1 POP SWAP3 SWAP2 POP POP JUMP JUMPDEST PUSH1 0x0 DUP3 DUP3 MSTORE PUSH1 0x20 DUP3 ADD SWAP1 POP SWAP3 SWAP2 POP POP JUMP JUMPDEST PUSH1 0x0 PUSH3 0x10F0 DUP3 PUSH3 0x1362 JUMP JUMPDEST SWAP2 POP PUSH3 0x10FD DUP4 PUSH3 0x1362 JUMP JUMPDEST SWAP3 POP DUP3 PUSH3 0x1110 JUMPI PUSH3 0x110F PUSH3 0x13A8 JUMP JUMPDEST JUMPDEST DUP3 DUP3 DIV SWAP1 POP SWAP3 SWAP2 POP POP JUMP JUMPDEST PUSH1 0x0 DUP1 DUP3 SWAP2 POP DUP4 SWAP1 POP JUMPDEST PUSH1 0x1 DUP6 GT ISZERO PUSH3 0x116D JUMPI DUP1 DUP7 DIV DUP2 GT ISZERO PUSH3 0x1145 JUMPI PUSH3 0x1144 PUSH3 0x1379 JUMP JUMPDEST JUMPDEST PUSH1 0x1 DUP6 AND ISZERO PUSH3 0x1155 JUMPI DUP1 DUP3 MUL SWAP2 POP JUMPDEST DUP1 DUP2 MUL SWAP1 POP PUSH3 0x1165 DUP6 PUSH3 0x13DC JUMP JUMPDEST SWAP5 POP PUSH3 0x1125 JUMP JUMPDEST SWAP5 POP SWAP5 SWAP3 POP POP POP JUMP JUMPDEST PUSH1 0x0 PUSH3 0x1183 DUP3 PUSH3 0x1362 JUMP JUMPDEST SWAP2 POP PUSH3 0x1190 DUP4 PUSH3 0x136C JUMP JUMPDEST SWAP3 POP PUSH3 0x11BF PUSH32 0xFFFFFFFFFFFFFFFFFFFFFFFFFFFFFFFFFFFFFFFFFFFFFFFFFFFFFFFFFFFFFFFF DUP5 DUP5 PUSH3 0x11C7 JUMP JUMPDEST SWAP1 POP SWAP3 SWAP2 POP POP JUMP JUMPDEST PUSH1 0x0 DUP3 PUSH3 0x11D9 JUMPI PUSH1 0x1 SWAP1 POP PUSH3 0x12AC JUMP JUMPDEST DUP2 PUSH3 0x11E9 JUMPI PUSH1 0x0 SWAP1 POP PUSH3 0x12AC JUMP JUMPDEST DUP2 PUSH1 0x1 DUP2 EQ PUSH3 0x1202 JUMPI PUSH1 0x2 DUP2 EQ PUSH3 0x120D JUMPI PUSH3 0x1243 JUMP JUMPDEST PUSH1 0x1 SWAP2 POP POP PUSH3 0x12AC JUMP JUMPDEST PUSH1 0xFF DUP5 GT ISZERO PUSH3 0x1222 JUMPI PUSH3 0x1221 PUSH3 0x1379 JUMP JUMPDEST JUMPDEST DUP4 PUSH1 0x2 EXP SWAP2 POP DUP5 DUP3 GT ISZERO PUSH3 0x123C JUMPI PUSH3 0x123B PUSH3 0x1379 JUMP JUMPDEST JUMPDEST POP PUSH3 0x12AC JUMP JUMPDEST POP PUSH1 0x20 DUP4 LT PUSH2 0x133 DUP4 LT AND PUSH1 0x4E DUP5 LT PUSH1 0xB DUP5 LT AND OR ISZERO PUSH3 0x127D JUMPI DUP3 DUP3 EXP SWAP1 POP DUP4 DUP2 GT ISZERO PUSH3 0x1277 JUMPI PUSH3 0x1276 PUSH3 0x1379 JUMP JUMPDEST JUMPDEST PUSH3 0x12AC JUMP JUMPDEST PUSH3 0x128C DUP5 DUP5 DUP5 PUSH1 0x1 PUSH3 0x111B JUMP JUMPDEST SWAP3 POP SWAP1 POP DUP2 DUP5 DIV DUP2 GT ISZERO PUSH3 0x12A6 JUMPI PUSH3 0x12A5 PUSH3 0x1379 JUMP JUMPDEST JUMPDEST DUP2 DUP2 MUL SWAP1 POP JUMPDEST SWAP4 SWAP3 POP POP POP JUMP JUMPDEST PUSH1 0x0 PUSH3 0x12C0 DUP3 PUSH3 0x1362 JUMP JUMPDEST SWAP2 POP PUSH3 0x12CD DUP4 PUSH3 0x1362 JUMP JUMPDEST SWAP3 POP DUP2 PUSH32 0xFFFFFFFFFFFFFFFFFFFFFFFFFFFFFFFFFFFFFFFFFFFFFFFFFFFFFFFFFFFFFFFF DIV DUP4 GT DUP3 ISZERO ISZERO AND ISZERO PUSH3 0x1309 JUMPI PUSH3 0x1308 PUSH3 0x1379 JUMP JUMPDEST JUMPDEST DUP3 DUP3 MUL SWAP1 POP SWAP3 SWAP2 POP POP JUMP JUMPDEST PUSH1 0x0 PUSH3 0x1321 DUP3 PUSH3 0x1342 JUMP JUMPDEST SWAP1 POP SWAP2 SWAP1 POP JUMP JUMPDEST PUSH1 0x0 DUP2 ISZERO ISZERO SWAP1 POP SWAP2 SWAP1 POP JUMP JUMPDEST PUSH1 0x0 PUSH2 0xFFFF DUP3 AND SWAP1 POP SWAP2 SWAP1 POP JUMP JUMPDEST PUSH1 0x0 PUSH20 0xFFFFFFFFFFFFFFFFFFFFFFFFFFFFFFFFFFFFFFFF DUP3 AND SWAP1 POP SWAP2 SWAP1 POP JUMP JUMPDEST PUSH1 0x0 DUP2 SWAP1 POP SWAP2 SWAP1 POP JUMP JUMPDEST PUSH1 0x0 PUSH1 0xFF DUP3 AND SWAP1 POP SWAP2 SWAP1 POP JUMP JUMPDEST PUSH32 0x4E487B7100000000000000000000000000000000000000000000000000000000 PUSH1 0x0 MSTORE PUSH1 0x11 PUSH1 0x4 MSTORE PUSH1 0x24 PUSH1 0x0 REVERT JUMPDEST PUSH32 0x4E487B7100000000000000000000000000000000000000000000000000000000 PUSH1 0x0 MSTORE PUSH1 0x12 PUSH1 0x4 MSTORE PUSH1 0x24 PUSH1 0x0 REVERT JUMPDEST PUSH1 0x0 DUP1 REVERT JUMPDEST PUSH1 0x0 DUP2 PUSH1 0x1 SHR SWAP1 POP SWAP2 SWAP1 POP JUMP JUMPDEST PUSH32 0x4F776E61626C653A206E6577206F776E657220697320746865207A65726F2061 PUSH1 0x0 DUP3 ADD MSTORE PUSH32 0x6464726573730000000000000000000000000000000000000000000000000000 PUSH1 0x20 DUP3 ADD MSTORE POP JUMP JUMPDEST PUSH32 0x53656C6C20746F6B656E2061646472657373206973207A65726F000000000000 PUSH1 0x0 DUP3 ADD MSTORE POP JUMP JUMPDEST PUSH32 0x416C6C6F77616E636520697320696E737566666369656E740000000000000000 PUSH1 0x0 DUP3 ADD MSTORE POP JUMP JUMPDEST PUSH32 0x4F776E61626C653A2063616C6C6572206973206E6F7420746865206F776E6572 PUSH1 0x0 DUP3 ADD MSTORE POP JUMP JUMPDEST PUSH32 0x5472616E7366657246726F6D206572726F720000000000000000000000000000 PUSH1 0x0 DUP3 ADD MSTORE POP JUMP JUMPDEST PUSH32 0x42757920746F6B656E2061646472657373206973207A65726F00000000000000 PUSH1 0x0 DUP3 ADD MSTORE POP JUMP JUMPDEST PUSH3 0x1510 DUP2 PUSH3 0x1314 JUMP JUMPDEST DUP2 EQ PUSH3 0x151C JUMPI PUSH1 0x0 DUP1 REVERT JUMPDEST POP JUMP JUMPDEST PUSH3 0x152A DUP2 PUSH3 0x1328 JUMP JUMPDEST DUP2 EQ PUSH3 0x1536 JUMPI PUSH1 0x0 DUP1 REVERT JUMPDEST POP JUMP JUMPDEST PUSH3 0x1544 DUP2 PUSH3 0x1334 JUMP JUMPDEST DUP2 EQ PUSH3 0x1550 JUMPI PUSH1 0x0 DUP1 REVERT JUMPDEST POP JUMP JUMPDEST PUSH3 0x155E DUP2 PUSH3 0x1362 JUMP JUMPDEST DUP2 EQ PUSH3 0x156A JUMPI PUSH1 0x0 DUP1 REVERT JUMPDEST POP JUMP JUMPDEST PUSH3 0x1578 DUP2 PUSH3 0x136C JUMP JUMPDEST DUP2 EQ PUSH3 0x1584 JUMPI PUSH1 0x0 DUP1 REVERT JUMPDEST POP JUMP INVALID PUSH1 0x80 PUSH1 0x40 MSTORE CALLVALUE DUP1 ISZERO PUSH3 0x11 JUMPI PUSH1 0x0 DUP1 REVERT JUMPDEST POP PUSH1 0x40 MLOAD PUSH3 0x1404 CODESIZE SUB DUP1 PUSH3 0x1404 DUP4 CODECOPY DUP2 DUP2 ADD PUSH1 0x40 MSTORE DUP2 ADD SWAP1 PUSH3 0x37 SWAP2 SWAP1 PUSH3 0x577 JUMP JUMPDEST PUSH3 0x57 PUSH3 0x4B PUSH3 0x311 PUSH1 0x20 SHL PUSH1 0x20 SHR JUMP JUMPDEST PUSH3 0x319 PUSH1 0x20 SHL PUSH1 0x20 SHR JUMP JUMPDEST CALLER PUSH1 0x1 PUSH1 0x0 PUSH2 0x100 EXP DUP2 SLOAD DUP2 PUSH20 0xFFFFFFFFFFFFFFFFFFFFFFFFFFFFFFFFFFFFFFFF MUL NOT AND SWAP1 DUP4 PUSH20 0xFFFFFFFFFFFFFFFFFFFFFFFFFFFFFFFFFFFFFFFF AND MUL OR SWAP1 SSTORE POP DUP3 PUSH1 0x2 PUSH1 0x0 PUSH2 0x100 EXP DUP2 SLOAD DUP2 PUSH20 0xFFFFFFFFFFFFFFFFFFFFFFFFFFFFFFFFFFFFFFFF MUL NOT AND SWAP1 DUP4 PUSH20 0xFFFFFFFFFFFFFFFFFFFFFFFFFFFFFFFFFFFFFFFF AND MUL OR SWAP1 SSTORE POP DUP2 PUSH1 0x3 DUP2 SWAP1 SSTORE POP DUP1 PUSH1 0x4 PUSH1 0x0 DUP3 ADD MLOAD DUP2 PUSH1 0x0 ADD PUSH1 0x0 PUSH2 0x100 EXP DUP2 SLOAD DUP2 PUSH20 0xFFFFFFFFFFFFFFFFFFFFFFFFFFFFFFFFFFFFFFFF MUL NOT AND SWAP1 DUP4 PUSH20 0xFFFFFFFFFFFFFFFFFFFFFFFFFFFFFFFFFFFFFFFF AND MUL OR SWAP1 SSTORE POP PUSH1 0x20 DUP3 ADD MLOAD DUP2 PUSH1 0x1 ADD PUSH1 0x0 PUSH2 0x100 EXP DUP2 SLOAD DUP2 PUSH20 0xFFFFFFFFFFFFFFFFFFFFFFFFFFFFFFFFFFFFFFFF MUL NOT AND SWAP1 DUP4 PUSH20 0xFFFFFFFFFFFFFFFFFFFFFFFFFFFFFFFFFFFFFFFF AND MUL OR SWAP1 SSTORE POP PUSH1 0x40 DUP3 ADD MLOAD DUP2 PUSH1 0x1 ADD PUSH1 0x14 PUSH2 0x100 EXP DUP2 SLOAD DUP2 PUSH1 0xFF MUL NOT AND SWAP1 DUP4 PUSH1 0xFF AND MUL OR SWAP1 SSTORE POP PUSH1 0x60 DUP3 ADD MLOAD DUP2 PUSH1 0x1 ADD PUSH1 0x15 PUSH2 0x100 EXP DUP2 SLOAD DUP2 PUSH1 0xFF MUL NOT AND SWAP1 DUP4 ISZERO ISZERO MUL OR SWAP1 SSTORE POP PUSH1 0x80 DUP3 ADD MLOAD DUP2 PUSH1 0x2 ADD SSTORE PUSH1 0xA0 DUP3 ADD MLOAD DUP2 PUSH1 0x3 ADD SSTORE PUSH1 0xC0 DUP3 ADD MLOAD DUP2 PUSH1 0x4 ADD PUSH1 0x0 PUSH2 0x100 EXP DUP2 SLOAD DUP2 PUSH2 0xFFFF MUL NOT AND SWAP1 DUP4 PUSH2 0xFFFF AND MUL OR SWAP1 SSTORE POP PUSH1 0xE0 DUP3 ADD MLOAD DUP2 PUSH1 0x4 ADD PUSH1 0x2 PUSH2 0x100 EXP DUP2 SLOAD DUP2 PUSH2 0xFFFF MUL NOT AND SWAP1 DUP4 PUSH2 0xFFFF AND MUL OR SWAP1 SSTORE POP PUSH2 0x100 DUP3 ADD MLOAD DUP2 PUSH1 0x5 ADD SSTORE PUSH2 0x120 DUP3 ADD MLOAD DUP2 PUSH1 0x6 ADD PUSH1 0x0 PUSH2 0x100 EXP DUP2 SLOAD DUP2 PUSH2 0xFFFF MUL NOT AND SWAP1 DUP4 PUSH2 0xFFFF AND MUL OR SWAP1 SSTORE POP PUSH2 0x140 DUP3 ADD MLOAD DUP2 PUSH1 0x6 ADD PUSH1 0x2 PUSH2 0x100 EXP DUP2 SLOAD DUP2 PUSH20 0xFFFFFFFFFFFFFFFFFFFFFFFFFFFFFFFFFFFFFFFF MUL NOT AND SWAP1 DUP4 PUSH20 0xFFFFFFFFFFFFFFFFFFFFFFFFFFFFFFFFFFFFFFFF AND MUL OR SWAP1 SSTORE POP SWAP1 POP POP PUSH32 0x814781EBF6983EC3AE5232A07CD5F49D7BE5B356E8B5B3E3C45C2EB50E72A7B8 PUSH1 0x1 PUSH1 0x0 SWAP1 SLOAD SWAP1 PUSH2 0x100 EXP SWAP1 DIV PUSH20 0xFFFFFFFFFFFFFFFFFFFFFFFFFFFFFFFFFFFFFFFF AND PUSH1 0x2 PUSH1 0x0 SWAP1 SLOAD SWAP1 PUSH2 0x100 EXP SWAP1 DIV PUSH20 0xFFFFFFFFFFFFFFFFFFFFFFFFFFFFFFFFFFFFFFFF AND PUSH1 0x4 PUSH1 0x40 MLOAD PUSH3 0x300 SWAP4 SWAP3 SWAP2 SWAP1 PUSH3 0x7A3 JUMP JUMPDEST PUSH1 0x40 MLOAD DUP1 SWAP2 SUB SWAP1 LOG1 POP POP POP PUSH3 0xAC9 JUMP JUMPDEST PUSH1 0x0 CALLER SWAP1 POP SWAP1 JUMP JUMPDEST PUSH1 0x0 DUP1 PUSH1 0x0 SWAP1 SLOAD SWAP1 PUSH2 0x100 EXP SWAP1 DIV PUSH20 0xFFFFFFFFFFFFFFFFFFFFFFFFFFFFFFFFFFFFFFFF AND SWAP1 POP DUP2 PUSH1 0x0 DUP1 PUSH2 0x100 EXP DUP2 SLOAD DUP2 PUSH20 0xFFFFFFFFFFFFFFFFFFFFFFFFFFFFFFFFFFFFFFFF MUL NOT AND SWAP1 DUP4 PUSH20 0xFFFFFFFFFFFFFFFFFFFFFFFFFFFFFFFFFFFFFFFF AND MUL OR SWAP1 SSTORE POP DUP2 PUSH20 0xFFFFFFFFFFFFFFFFFFFFFFFFFFFFFFFFFFFFFFFF AND DUP2 PUSH20 0xFFFFFFFFFFFFFFFFFFFFFFFFFFFFFFFFFFFFFFFF AND PUSH32 0x8BE0079C531659141344CD1FD0A4F28419497F9722A3DAAFE3B4186F6B6457E0 PUSH1 0x40 MLOAD PUSH1 0x40 MLOAD DUP1 SWAP2 SUB SWAP1 LOG3 POP POP JUMP JUMPDEST PUSH1 0x0 DUP2 MLOAD SWAP1 POP PUSH3 0x3EE DUP2 PUSH3 0xA47 JUMP JUMPDEST SWAP3 SWAP2 POP POP JUMP JUMPDEST PUSH1 0x0 DUP2 MLOAD SWAP1 POP PUSH3 0x405 DUP2 PUSH3 0xA61 JUMP JUMPDEST SWAP3 SWAP2 POP POP JUMP JUMPDEST PUSH1 0x0 PUSH2 0x160 DUP3 DUP5 SUB SLT ISZERO PUSH3 0x425 JUMPI PUSH3 0x424 PUSH3 0x9F8 JUMP JUMPDEST JUMPDEST PUSH3 0x432 PUSH2 0x160 PUSH3 0x7E1 JUMP JUMPDEST SWAP1 POP PUSH1 0x0 PUSH3 0x444 DUP5 DUP3 DUP6 ADD PUSH3 0x3DD JUMP JUMPDEST PUSH1 0x0 DUP4 ADD MSTORE POP PUSH1 0x20 PUSH3 0x45A DUP5 DUP3 DUP6 ADD PUSH3 0x3DD JUMP JUMPDEST PUSH1 0x20 DUP4 ADD MSTORE POP PUSH1 0x40 PUSH3 0x470 DUP5 DUP3 DUP6 ADD PUSH3 0x560 JUMP JUMPDEST PUSH1 0x40 DUP4 ADD MSTORE POP PUSH1 0x60 PUSH3 0x486 DUP5 DUP3 DUP6 ADD PUSH3 0x3F4 JUMP JUMPDEST PUSH1 0x60 DUP4 ADD MSTORE POP PUSH1 0x80 PUSH3 0x49C DUP5 DUP3 DUP6 ADD PUSH3 0x549 JUMP JUMPDEST PUSH1 0x80 DUP4 ADD MSTORE POP PUSH1 0xA0 PUSH3 0x4B2 DUP5 DUP3 DUP6 ADD PUSH3 0x549 JUMP JUMPDEST PUSH1 0xA0 DUP4 ADD MSTORE POP PUSH1 0xC0 PUSH3 0x4C8 DUP5 DUP3 DUP6 ADD PUSH3 0x532 JUMP JUMPDEST PUSH1 0xC0 DUP4 ADD MSTORE POP PUSH1 0xE0 PUSH3 0x4DE DUP5 DUP3 DUP6 ADD PUSH3 0x532 JUMP JUMPDEST PUSH1 0xE0 DUP4 ADD MSTORE POP PUSH2 0x100 PUSH3 0x4F5 DUP5 DUP3 DUP6 ADD PUSH3 0x549 JUMP JUMPDEST PUSH2 0x100 DUP4 ADD MSTORE POP PUSH2 0x120 PUSH3 0x50D DUP5 DUP3 DUP6 ADD PUSH3 0x532 JUMP JUMPDEST PUSH2 0x120 DUP4 ADD MSTORE POP PUSH2 0x140 PUSH3 0x525 DUP5 DUP3 DUP6 ADD PUSH3 0x3DD JUMP JUMPDEST PUSH2 0x140 DUP4 ADD MSTORE POP SWAP3 SWAP2 POP POP JUMP JUMPDEST PUSH1 0x0 DUP2 MLOAD SWAP1 POP PUSH3 0x543 DUP2 PUSH3 0xA7B JUMP JUMPDEST SWAP3 SWAP2 POP POP JUMP JUMPDEST PUSH1 0x0 DUP2 MLOAD SWAP1 POP PUSH3 0x55A DUP2 PUSH3 0xA95 JUMP JUMPDEST SWAP3 SWAP2 POP POP JUMP JUMPDEST PUSH1 0x0 DUP2 MLOAD SWAP1 POP PUSH3 0x571 DUP2 PUSH3 0xAAF JUMP JUMPDEST SWAP3 SWAP2 POP POP JUMP JUMPDEST PUSH1 0x0 DUP1 PUSH1 0x0 PUSH2 0x1A0 DUP5 DUP7 SUB SLT ISZERO PUSH3 0x594 JUMPI PUSH3 0x593 PUSH3 0x9FD JUMP JUMPDEST JUMPDEST PUSH1 0x0 PUSH3 0x5A4 DUP7 DUP3 DUP8 ADD PUSH3 0x3DD JUMP JUMPDEST SWAP4 POP POP PUSH1 0x20 PUSH3 0x5B7 DUP7 DUP3 DUP8 ADD PUSH3 0x549 JUMP JUMPDEST SWAP3 POP POP PUSH1 0x40 PUSH3 0x5CA DUP7 DUP3 DUP8 ADD PUSH3 0x40B JUMP JUMPDEST SWAP2 POP POP SWAP3 POP SWAP3 POP SWAP3 JUMP JUMPDEST PUSH3 0x5DF DUP2 PUSH3 0x85C JUMP JUMPDEST DUP3 MSTORE POP POP JUMP JUMPDEST PUSH3 0x5F0 DUP2 PUSH3 0x85C JUMP JUMPDEST DUP3 MSTORE POP POP JUMP JUMPDEST PUSH3 0x601 DUP2 PUSH3 0x870 JUMP JUMPDEST DUP3 MSTORE POP POP JUMP JUMPDEST PUSH2 0x160 DUP3 ADD PUSH1 0x0 DUP1 DUP4 ADD SLOAD SWAP1 POP PUSH3 0x61F DUP2 PUSH3 0x8C1 JUMP JUMPDEST PUSH3 0x62E PUSH1 0x0 DUP7 ADD DUP3 PUSH3 0x5D4 JUMP JUMPDEST POP PUSH1 0x1 DUP4 ADD SLOAD SWAP1 POP PUSH3 0x641 DUP2 PUSH3 0x8C1 JUMP JUMPDEST PUSH3 0x650 PUSH1 0x20 DUP7 ADD DUP3 PUSH3 0x5D4 JUMP JUMPDEST POP PUSH3 0x65C DUP2 PUSH3 0x91B JUMP JUMPDEST PUSH3 0x66B PUSH1 0x40 DUP7 ADD DUP3 PUSH3 0x792 JUMP JUMPDEST POP PUSH3 0x677 DUP2 PUSH3 0x939 JUMP JUMPDEST PUSH3 0x686 PUSH1 0x60 DUP7 ADD DUP3 PUSH3 0x5F6 JUMP JUMPDEST POP PUSH1 0x2 DUP4 ADD SLOAD SWAP1 POP PUSH3 0x699 DUP2 PUSH3 0x8FD JUMP JUMPDEST PUSH3 0x6A8 PUSH1 0x80 DUP7 ADD DUP3 PUSH3 0x781 JUMP JUMPDEST POP PUSH1 0x3 DUP4 ADD SLOAD SWAP1 POP PUSH3 0x6BB DUP2 PUSH3 0x8FD JUMP JUMPDEST PUSH3 0x6CA PUSH1 0xA0 DUP7 ADD DUP3 PUSH3 0x781 JUMP JUMPDEST POP PUSH1 0x4 DUP4 ADD SLOAD SWAP1 POP PUSH3 0x6DD DUP2 PUSH3 0x8DF JUMP JUMPDEST PUSH3 0x6EC PUSH1 0xC0 DUP7 ADD DUP3 PUSH3 0x770 JUMP JUMPDEST POP PUSH3 0x6F8 DUP2 PUSH3 0x975 JUMP JUMPDEST PUSH3 0x707 PUSH1 0xE0 DUP7 ADD DUP3 PUSH3 0x770 JUMP JUMPDEST POP PUSH1 0x5 DUP4 ADD SLOAD SWAP1 POP PUSH3 0x71A DUP2 PUSH3 0x8FD JUMP JUMPDEST PUSH3 0x72A PUSH2 0x100 DUP7 ADD DUP3 PUSH3 0x781 JUMP JUMPDEST POP PUSH1 0x6 DUP4 ADD SLOAD SWAP1 POP PUSH3 0x73D DUP2 PUSH3 0x8DF JUMP JUMPDEST PUSH3 0x74D PUSH2 0x120 DUP7 ADD DUP3 PUSH3 0x770 JUMP JUMPDEST POP PUSH3 0x759 DUP2 PUSH3 0x957 JUMP JUMPDEST PUSH3 0x769 PUSH2 0x140 DUP7 ADD DUP3 PUSH3 0x5D4 JUMP JUMPDEST POP POP POP POP POP JUMP JUMPDEST PUSH3 0x77B DUP2 PUSH3 0x87C JUMP JUMPDEST DUP3 MSTORE POP POP JUMP JUMPDEST PUSH3 0x78C DUP2 PUSH3 0x8AA JUMP JUMPDEST DUP3 MSTORE POP POP JUMP JUMPDEST PUSH3 0x79D DUP2 PUSH3 0x8B4 JUMP JUMPDEST DUP3 MSTORE POP POP JUMP JUMPDEST PUSH1 0x0 PUSH2 0x1A0 DUP3 ADD SWAP1 POP PUSH3 0x7BB PUSH1 0x0 DUP4 ADD DUP7 PUSH3 0x5E5 JUMP JUMPDEST PUSH3 0x7CA PUSH1 0x20 DUP4 ADD DUP6 PUSH3 0x5E5 JUMP JUMPDEST PUSH3 0x7D9 PUSH1 0x40 DUP4 ADD DUP5 PUSH3 0x607 JUMP JUMPDEST SWAP5 SWAP4 POP POP POP POP JUMP JUMPDEST PUSH1 0x0 PUSH3 0x7ED PUSH3 0x800 JUMP JUMPDEST SWAP1 POP PUSH3 0x7FB DUP3 DUP3 PUSH3 0x993 JUMP JUMPDEST SWAP2 SWAP1 POP JUMP JUMPDEST PUSH1 0x0 PUSH1 0x40 MLOAD SWAP1 POP SWAP1 JUMP JUMPDEST PUSH1 0x0 PUSH20 0xFFFFFFFFFFFFFFFFFFFFFFFFFFFFFFFFFFFFFFFF DUP3 AND SWAP1 POP SWAP2 SWAP1 POP JUMP JUMPDEST PUSH1 0x0 PUSH1 0xFF DUP3 AND SWAP1 POP SWAP2 SWAP1 POP JUMP JUMPDEST PUSH1 0x0 PUSH2 0xFFFF DUP3 AND SWAP1 POP SWAP2 SWAP1 POP JUMP JUMPDEST PUSH1 0x0 DUP2 SWAP1 POP SWAP2 SWAP1 POP JUMP JUMPDEST PUSH1 0x0 PUSH1 0xFF DUP3 AND SWAP1 POP SWAP2 SWAP1 POP JUMP JUMPDEST PUSH1 0x0 PUSH3 0x869 DUP3 PUSH3 0x88A JUMP JUMPDEST SWAP1 POP SWAP2 SWAP1 POP JUMP JUMPDEST PUSH1 0x0 DUP2 ISZERO ISZERO SWAP1 POP SWAP2 SWAP1 POP JUMP JUMPDEST PUSH1 0x0 PUSH2 0xFFFF DUP3 AND SWAP1 POP SWAP2 SWAP1 POP JUMP JUMPDEST PUSH1 0x0 PUSH20 0xFFFFFFFFFFFFFFFFFFFFFFFFFFFFFFFFFFFFFFFF DUP3 AND SWAP1 POP SWAP2 SWAP1 POP JUMP JUMPDEST PUSH1 0x0 DUP2 SWAP1 POP SWAP2 SWAP1 POP JUMP JUMPDEST PUSH1 0x0 PUSH1 0xFF DUP3 AND SWAP1 POP SWAP2 SWAP1 POP JUMP JUMPDEST PUSH1 0x0 PUSH3 0x8D8 PUSH3 0x8D2 DUP4 PUSH3 0xA13 JUMP JUMPDEST PUSH3 0x80A JUMP JUMPDEST SWAP1 POP SWAP2 SWAP1 POP JUMP JUMPDEST PUSH1 0x0 PUSH3 0x8F6 PUSH3 0x8F0 DUP4 PUSH3 0xA13 JUMP JUMPDEST PUSH3 0x837 JUMP JUMPDEST SWAP1 POP SWAP2 SWAP1 POP JUMP JUMPDEST PUSH1 0x0 PUSH3 0x914 PUSH3 0x90E DUP4 PUSH3 0xA13 JUMP JUMPDEST PUSH3 0x845 JUMP JUMPDEST SWAP1 POP SWAP2 SWAP1 POP JUMP JUMPDEST PUSH1 0x0 PUSH3 0x932 PUSH3 0x92C DUP4 PUSH3 0xA20 JUMP JUMPDEST PUSH3 0x84F JUMP JUMPDEST SWAP1 POP SWAP2 SWAP1 POP JUMP JUMPDEST PUSH1 0x0 PUSH3 0x950 PUSH3 0x94A DUP4 PUSH3 0xA2D JUMP JUMPDEST PUSH3 0x82A JUMP JUMPDEST SWAP1 POP SWAP2 SWAP1 POP JUMP JUMPDEST PUSH1 0x0 PUSH3 0x96E PUSH3 0x968 DUP4 PUSH3 0xA3A JUMP JUMPDEST PUSH3 0x80A JUMP JUMPDEST SWAP1 POP SWAP2 SWAP1 POP JUMP JUMPDEST PUSH1 0x0 PUSH3 0x98C PUSH3 0x986 DUP4 PUSH3 0xA3A JUMP JUMPDEST PUSH3 0x837 JUMP JUMPDEST SWAP1 POP SWAP2 SWAP1 POP JUMP JUMPDEST PUSH3 0x99E DUP3 PUSH3 0xA02 JUMP JUMPDEST DUP2 ADD DUP2 DUP2 LT PUSH8 0xFFFFFFFFFFFFFFFF DUP3 GT OR ISZERO PUSH3 0x9C0 JUMPI PUSH3 0x9BF PUSH3 0x9C9 JUMP JUMPDEST JUMPDEST DUP1 PUSH1 0x40 MSTORE POP POP POP JUMP JUMPDEST PUSH32 0x4E487B7100000000000000000000000000000000000000000000000000000000 PUSH1 0x0 MSTORE PUSH1 0x41 PUSH1 0x4 MSTORE PUSH1 0x24 PUSH1 0x0 REVERT JUMPDEST PUSH1 0x0 DUP1 REVERT JUMPDEST PUSH1 0x0 DUP1 REVERT JUMPDEST PUSH1 0x0 PUSH1 0x1F NOT PUSH1 0x1F DUP4 ADD AND SWAP1 POP SWAP2 SWAP1 POP JUMP JUMPDEST PUSH1 0x0 DUP2 PUSH1 0x0 SHR SWAP1 POP SWAP2 SWAP1 POP JUMP JUMPDEST PUSH1 0x0 DUP2 PUSH1 0xA0 SHR SWAP1 POP SWAP2 SWAP1 POP JUMP JUMPDEST PUSH1 0x0 DUP2 PUSH1 0xA8 SHR SWAP1 POP SWAP2 SWAP1 POP JUMP JUMPDEST PUSH1 0x0 DUP2 PUSH1 0x10 SHR SWAP1 POP SWAP2 SWAP1 POP JUMP JUMPDEST PUSH3 0xA52 DUP2 PUSH3 0x85C JUMP JUMPDEST DUP2 EQ PUSH3 0xA5E JUMPI PUSH1 0x0 DUP1 REVERT JUMPDEST POP JUMP JUMPDEST PUSH3 0xA6C DUP2 PUSH3 0x870 JUMP JUMPDEST DUP2 EQ PUSH3 0xA78 JUMPI PUSH1 0x0 DUP1 REVERT JUMPDEST POP JUMP JUMPDEST PUSH3 0xA86 DUP2 PUSH3 0x87C JUMP JUMPDEST DUP2 EQ PUSH3 0xA92 JUMPI PUSH1 0x0 DUP1 REVERT JUMPDEST POP JUMP JUMPDEST PUSH3 0xAA0 DUP2 PUSH3 0x8AA JUMP JUMPDEST DUP2 EQ PUSH3 0xAAC JUMPI PUSH1 0x0 DUP1 REVERT JUMPDEST POP JUMP JUMPDEST PUSH3 0xABA DUP2 PUSH3 0x8B4 JUMP JUMPDEST DUP2 EQ PUSH3 0xAC6 JUMPI PUSH1 0x0 DUP1 REVERT JUMPDEST POP JUMP JUMPDEST PUSH2 0x92B DUP1 PUSH3 0xAD9 PUSH1 0x0 CODECOPY PUSH1 0x0 RETURN INVALID PUSH1 0x80 PUSH1 0x40 MSTORE CALLVALUE DUP1 ISZERO PUSH2 0x10 JUMPI PUSH1 0x0 DUP1 REVERT JUMPDEST POP PUSH1 0x4 CALLDATASIZE LT PUSH2 0x88 JUMPI PUSH1 0x0 CALLDATALOAD PUSH1 0xE0 SHR DUP1 PUSH4 0x8DA5CB5B GT PUSH2 0x5B JUMPI DUP1 PUSH4 0x8DA5CB5B EQ PUSH2 0xF2 JUMPI DUP1 PUSH4 0xA0E6A0C5 EQ PUSH2 0x110 JUMPI DUP1 PUSH4 0xC45A0155 EQ PUSH2 0x138 JUMPI DUP1 PUSH4 0xF2FDE38B EQ PUSH2 0x156 JUMPI PUSH2 0x88 JUMP JUMPDEST DUP1 PUSH4 0x320FD80A EQ PUSH2 0x8D JUMPI DUP1 PUSH4 0x370158EA EQ PUSH2 0xAB JUMPI DUP1 PUSH4 0x4D853EE5 EQ PUSH2 0xCA JUMPI DUP1 PUSH4 0x715018A6 EQ PUSH2 0xE8 JUMPI JUMPDEST PUSH1 0x0 DUP1 REVERT JUMPDEST PUSH2 0x95 PUSH2 0x172 JUMP JUMPDEST PUSH1 0x40 MLOAD PUSH2 0xA2 SWAP2 SWAP1 PUSH2 0x792 JUMP JUMPDEST PUSH1 0x40 MLOAD DUP1 SWAP2 SUB SWAP1 RETURN JUMPDEST PUSH2 0xB3 PUSH2 0x178 JUMP JUMPDEST PUSH1 0x40 MLOAD PUSH2 0xC1 SWAP3 SWAP2 SWAP1 PUSH2 0x7AD JUMP JUMPDEST PUSH1 0x40 MLOAD DUP1 SWAP2 SUB SWAP1 RETURN JUMPDEST PUSH2 0xD2 PUSH2 0x234 JUMP JUMPDEST PUSH1 0x40 MLOAD PUSH2 0xDF SWAP2 SWAP1 PUSH2 0x68C JUMP JUMPDEST PUSH1 0x40 MLOAD DUP1 SWAP2 SUB SWAP1 RETURN JUMPDEST PUSH2 0xF0 PUSH2 0x25A JUMP JUMPDEST STOP JUMPDEST PUSH2 0xFA PUSH2 0x26E JUMP JUMPDEST PUSH1 0x40 MLOAD PUSH2 0x107 SWAP2 SWAP1 PUSH2 0x68C JUMP JUMPDEST PUSH1 0x40 MLOAD DUP1 SWAP2 SUB SWAP1 RETURN JUMPDEST PUSH2 0x118 PUSH2 0x297 JUMP JUMPDEST PUSH1 0x40 MLOAD PUSH2 0x12F SWAP12 SWAP11 SWAP10 SWAP9 SWAP8 SWAP7 SWAP6 SWAP5 SWAP4 SWAP3 SWAP2 SWAP1 PUSH2 0x6A7 JUMP JUMPDEST PUSH1 0x40 MLOAD DUP1 SWAP2 SUB SWAP1 RETURN JUMPDEST PUSH2 0x140 PUSH2 0x383 JUMP JUMPDEST PUSH1 0x40 MLOAD PUSH2 0x14D SWAP2 SWAP1 PUSH2 0x68C JUMP JUMPDEST PUSH1 0x40 MLOAD DUP1 SWAP2 SUB SWAP1 RETURN JUMPDEST PUSH2 0x170 PUSH1 0x4 DUP1 CALLDATASIZE SUB DUP2 ADD SWAP1 PUSH2 0x16B SWAP2 SWAP1 PUSH2 0x5A1 JUMP JUMPDEST PUSH2 0x3A9 JUMP JUMPDEST STOP JUMPDEST PUSH1 0x3 SLOAD DUP2 JUMP JUMPDEST PUSH1 0x0 DUP1 PUSH1 0x3 SLOAD PUSH1 0x4 PUSH1 0x0 ADD PUSH1 0x0 SWAP1 SLOAD SWAP1 PUSH2 0x100 EXP SWAP1 DIV PUSH20 0xFFFFFFFFFFFFFFFFFFFFFFFFFFFFFFFFFFFFFFFF AND PUSH20 0xFFFFFFFFFFFFFFFFFFFFFFFFFFFFFFFFFFFFFFFF AND PUSH4 0x70A08231 ADDRESS PUSH1 0x40 MLOAD DUP3 PUSH4 0xFFFFFFFF AND PUSH1 0xE0 SHL DUP2 MSTORE PUSH1 0x4 ADD PUSH2 0x1DC SWAP2 SWAP1 PUSH2 0x68C JUMP JUMPDEST PUSH1 0x20 PUSH1 0x40 MLOAD DUP1 DUP4 SUB DUP2 DUP7 DUP1 EXTCODESIZE ISZERO DUP1 ISZERO PUSH2 0x1F4 JUMPI PUSH1 0x0 DUP1 REVERT JUMPDEST POP GAS STATICCALL ISZERO DUP1 ISZERO PUSH2 0x208 JUMPI RETURNDATASIZE PUSH1 0x0 DUP1 RETURNDATACOPY RETURNDATASIZE PUSH1 0x0 REVERT JUMPDEST POP POP POP POP PUSH1 0x40 MLOAD RETURNDATASIZE PUSH1 0x1F NOT PUSH1 0x1F DUP3 ADD AND DUP3 ADD DUP1 PUSH1 0x40 MSTORE POP DUP2 ADD SWAP1 PUSH2 0x22C SWAP2 SWAP1 PUSH2 0x5CE JUMP JUMPDEST SWAP2 POP SWAP2 POP SWAP1 SWAP2 JUMP JUMPDEST PUSH1 0x2 PUSH1 0x0 SWAP1 SLOAD SWAP1 PUSH2 0x100 EXP SWAP1 DIV PUSH20 0xFFFFFFFFFFFFFFFFFFFFFFFFFFFFFFFFFFFFFFFF AND DUP2 JUMP JUMPDEST PUSH2 0x262 PUSH2 0x42D JUMP JUMPDEST PUSH2 0x26C PUSH1 0x0 PUSH2 0x4AB JUMP JUMPDEST JUMP JUMPDEST PUSH1 0x0 DUP1 PUSH1 0x0 SWAP1 SLOAD SWAP1 PUSH2 0x100 EXP SWAP1 DIV PUSH20 0xFFFFFFFFFFFFFFFFFFFFFFFFFFFFFFFFFFFFFFFF AND SWAP1 POP SWAP1 JUMP JUMPDEST PUSH1 0x4 DUP1 PUSH1 0x0 ADD PUSH1 0x0 SWAP1 SLOAD SWAP1 PUSH2 0x100 EXP SWAP1 DIV PUSH20 0xFFFFFFFFFFFFFFFFFFFFFFFFFFFFFFFFFFFFFFFF AND SWAP1 DUP1 PUSH1 0x1 ADD PUSH1 0x0 SWAP1 SLOAD SWAP1 PUSH2 0x100 EXP SWAP1 DIV PUSH20 0xFFFFFFFFFFFFFFFFFFFFFFFFFFFFFFFFFFFFFFFF AND SWAP1 DUP1 PUSH1 0x1 ADD PUSH1 0x14 SWAP1 SLOAD SWAP1 PUSH2 0x100 EXP SWAP1 DIV PUSH1 0xFF AND SWAP1 DUP1 PUSH1 0x1 ADD PUSH1 0x15 SWAP1 SLOAD SWAP1 PUSH2 0x100 EXP SWAP1 DIV PUSH1 0xFF AND SWAP1 DUP1 PUSH1 0x2 ADD SLOAD SWAP1 DUP1 PUSH1 0x3 ADD SLOAD SWAP1 DUP1 PUSH1 0x4 ADD PUSH1 0x0 SWAP1 SLOAD SWAP1 PUSH2 0x100 EXP SWAP1 DIV PUSH2 0xFFFF AND SWAP1 DUP1 PUSH1 0x4 ADD PUSH1 0x2 SWAP1 SLOAD SWAP1 PUSH2 0x100 EXP SWAP1 DIV PUSH2 0xFFFF AND SWAP1 DUP1 PUSH1 0x5 ADD SLOAD SWAP1 DUP1 PUSH1 0x6 ADD PUSH1 0x0 SWAP1 SLOAD SWAP1 PUSH2 0x100 EXP SWAP1 DIV PUSH2 0xFFFF AND SWAP1 DUP1 PUSH1 0x6 ADD PUSH1 0x2 SWAP1 SLOAD SWAP1 PUSH2 0x100 EXP SWAP1 DIV PUSH20 0xFFFFFFFFFFFFFFFFFFFFFFFFFFFFFFFFFFFFFFFF AND SWAP1 POP DUP12 JUMP JUMPDEST PUSH1 0x1 PUSH1 0x0 SWAP1 SLOAD SWAP1 PUSH2 0x100 EXP SWAP1 DIV PUSH20 0xFFFFFFFFFFFFFFFFFFFFFFFFFFFFFFFFFFFFFFFF AND DUP2 JUMP JUMPDEST PUSH2 0x3B1 PUSH2 0x42D JUMP JUMPDEST PUSH1 0x0 PUSH20 0xFFFFFFFFFFFFFFFFFFFFFFFFFFFFFFFFFFFFFFFF AND DUP2 PUSH20 0xFFFFFFFFFFFFFFFFFFFFFFFFFFFFFFFFFFFFFFFF AND EQ ISZERO PUSH2 0x421 JUMPI PUSH1 0x40 MLOAD PUSH32 0x8C379A000000000000000000000000000000000000000000000000000000000 DUP2 MSTORE PUSH1 0x4 ADD PUSH2 0x418 SWAP1 PUSH2 0x752 JUMP JUMPDEST PUSH1 0x40 MLOAD DUP1 SWAP2 SUB SWAP1 REVERT JUMPDEST PUSH2 0x42A DUP2 PUSH2 0x4AB JUMP JUMPDEST POP JUMP JUMPDEST PUSH2 0x435 PUSH2 0x56F JUMP JUMPDEST PUSH20 0xFFFFFFFFFFFFFFFFFFFFFFFFFFFFFFFFFFFFFFFF AND PUSH2 0x453 PUSH2 0x26E JUMP JUMPDEST PUSH20 0xFFFFFFFFFFFFFFFFFFFFFFFFFFFFFFFFFFFFFFFF AND EQ PUSH2 0x4A9 JUMPI PUSH1 0x40 MLOAD PUSH32 0x8C379A000000000000000000000000000000000000000000000000000000000 DUP2 MSTORE PUSH1 0x4 ADD PUSH2 0x4A0 SWAP1 PUSH2 0x772 JUMP JUMPDEST PUSH1 0x40 MLOAD DUP1 SWAP2 SUB SWAP1 REVERT JUMPDEST JUMP JUMPDEST PUSH1 0x0 DUP1 PUSH1 0x0 SWAP1 SLOAD SWAP1 PUSH2 0x100 EXP SWAP1 DIV PUSH20 0xFFFFFFFFFFFFFFFFFFFFFFFFFFFFFFFFFFFFFFFF AND SWAP1 POP DUP2 PUSH1 0x0 DUP1 PUSH2 0x100 EXP DUP2 SLOAD DUP2 PUSH20 0xFFFFFFFFFFFFFFFFFFFFFFFFFFFFFFFFFFFFFFFF MUL NOT AND SWAP1 DUP4 PUSH20 0xFFFFFFFFFFFFFFFFFFFFFFFFFFFFFFFFFFFFFFFF AND MUL OR SWAP1 SSTORE POP DUP2 PUSH20 0xFFFFFFFFFFFFFFFFFFFFFFFFFFFFFFFFFFFFFFFF AND DUP2 PUSH20 0xFFFFFFFFFFFFFFFFFFFFFFFFFFFFFFFFFFFFFFFF AND PUSH32 0x8BE0079C531659141344CD1FD0A4F28419497F9722A3DAAFE3B4186F6B6457E0 PUSH1 0x40 MLOAD PUSH1 0x40 MLOAD DUP1 SWAP2 SUB SWAP1 LOG3 POP POP JUMP JUMPDEST PUSH1 0x0 CALLER SWAP1 POP SWAP1 JUMP JUMPDEST PUSH1 0x0 DUP2 CALLDATALOAD SWAP1 POP PUSH2 0x586 DUP2 PUSH2 0x8C7 JUMP JUMPDEST SWAP3 SWAP2 POP POP JUMP JUMPDEST PUSH1 0x0 DUP2 MLOAD SWAP1 POP PUSH2 0x59B DUP2 PUSH2 0x8DE JUMP JUMPDEST SWAP3 SWAP2 POP POP JUMP JUMPDEST PUSH1 0x0 PUSH1 0x20 DUP3 DUP5 SUB SLT ISZERO PUSH2 0x5B7 JUMPI PUSH2 0x5B6 PUSH2 0x84A JUMP JUMPDEST JUMPDEST PUSH1 0x0 PUSH2 0x5C5 DUP5 DUP3 DUP6 ADD PUSH2 0x577 JUMP JUMPDEST SWAP2 POP POP SWAP3 SWAP2 POP POP JUMP JUMPDEST PUSH1 0x0 PUSH1 0x20 DUP3 DUP5 SUB SLT ISZERO PUSH2 0x5E4 JUMPI PUSH2 0x5E3 PUSH2 0x84A JUMP JUMPDEST JUMPDEST PUSH1 0x0 PUSH2 0x5F2 DUP5 DUP3 DUP6 ADD PUSH2 0x58C JUMP JUMPDEST SWAP2 POP POP SWAP3 SWAP2 POP POP JUMP JUMPDEST PUSH2 0x604 DUP2 PUSH2 0x7E7 JUMP JUMPDEST DUP3 MSTORE POP POP JUMP JUMPDEST PUSH2 0x613 DUP2 PUSH2 0x7F9 JUMP JUMPDEST DUP3 MSTORE POP POP JUMP JUMPDEST PUSH1 0x0 PUSH2 0x626 PUSH1 0x26 DUP4 PUSH2 0x7D6 JUMP JUMPDEST SWAP2 POP PUSH2 0x631 DUP3 PUSH2 0x84F JUMP JUMPDEST PUSH1 0x40 DUP3 ADD SWAP1 POP SWAP2 SWAP1 POP JUMP JUMPDEST PUSH1 0x0 PUSH2 0x649 PUSH1 0x20 DUP4 PUSH2 0x7D6 JUMP JUMPDEST SWAP2 POP PUSH2 0x654 DUP3 PUSH2 0x89E JUMP JUMPDEST PUSH1 0x20 DUP3 ADD SWAP1 POP SWAP2 SWAP1 POP JUMP JUMPDEST PUSH2 0x668 DUP2 PUSH2 0x805 JUMP JUMPDEST DUP3 MSTORE POP POP JUMP JUMPDEST PUSH2 0x677 DUP2 PUSH2 0x833 JUMP JUMPDEST DUP3 MSTORE POP POP JUMP JUMPDEST PUSH2 0x686 DUP2 PUSH2 0x83D JUMP JUMPDEST DUP3 MSTORE POP POP JUMP JUMPDEST PUSH1 0x0 PUSH1 0x20 DUP3 ADD SWAP1 POP PUSH2 0x6A1 PUSH1 0x0 DUP4 ADD DUP5 PUSH2 0x5FB JUMP JUMPDEST SWAP3 SWAP2 POP POP JUMP JUMPDEST PUSH1 0x0 PUSH2 0x160 DUP3 ADD SWAP1 POP PUSH2 0x6BD PUSH1 0x0 DUP4 ADD DUP15 PUSH2 0x5FB JUMP JUMPDEST PUSH2 0x6CA PUSH1 0x20 DUP4 ADD DUP14 PUSH2 0x5FB JUMP JUMPDEST PUSH2 0x6D7 PUSH1 0x40 DUP4 ADD DUP13 PUSH2 0x67D JUMP JUMPDEST PUSH2 0x6E4 PUSH1 0x60 DUP4 ADD DUP12 PUSH2 0x60A JUMP JUMPDEST PUSH2 0x6F1 PUSH1 0x80 DUP4 ADD DUP11 PUSH2 0x66E JUMP JUMPDEST PUSH2 0x6FE PUSH1 0xA0 DUP4 ADD DUP10 PUSH2 0x66E JUMP JUMPDEST PUSH2 0x70B PUSH1 0xC0 DUP4 ADD DUP9 PUSH2 0x65F JUMP JUMPDEST PUSH2 0x718 PUSH1 0xE0 DUP4 ADD DUP8 PUSH2 0x65F JUMP JUMPDEST PUSH2 0x726 PUSH2 0x100 DUP4 ADD DUP7 PUSH2 0x66E JUMP JUMPDEST PUSH2 0x734 PUSH2 0x120 DUP4 ADD DUP6 PUSH2 0x65F JUMP JUMPDEST PUSH2 0x742 PUSH2 0x140 DUP4 ADD DUP5 PUSH2 0x5FB JUMP JUMPDEST SWAP13 SWAP12 POP POP POP POP POP POP POP POP POP POP POP POP JUMP JUMPDEST PUSH1 0x0 PUSH1 0x20 DUP3 ADD SWAP1 POP DUP2 DUP2 SUB PUSH1 0x0 DUP4 ADD MSTORE PUSH2 0x76B DUP2 PUSH2 0x619 JUMP JUMPDEST SWAP1 POP SWAP2 SWAP1 POP JUMP JUMPDEST PUSH1 0x0 PUSH1 0x20 DUP3 ADD SWAP1 POP DUP2 DUP2 SUB PUSH1 0x0 DUP4 ADD MSTORE PUSH2 0x78B DUP2 PUSH2 0x63C JUMP JUMPDEST SWAP1 POP SWAP2 SWAP1 POP JUMP JUMPDEST PUSH1 0x0 PUSH1 0x20 DUP3 ADD SWAP1 POP PUSH2 0x7A7 PUSH1 0x0 DUP4 ADD DUP5 PUSH2 0x66E JUMP JUMPDEST SWAP3 SWAP2 POP POP JUMP JUMPDEST PUSH1 0x0 PUSH1 0x40 DUP3 ADD SWAP1 POP PUSH2 0x7C2 PUSH1 0x0 DUP4 ADD DUP6 PUSH2 0x66E JUMP JUMPDEST PUSH2 0x7CF PUSH1 0x20 DUP4 ADD DUP5 PUSH2 0x66E JUMP JUMPDEST SWAP4 SWAP3 POP POP POP JUMP JUMPDEST PUSH1 0x0 DUP3 DUP3 MSTORE PUSH1 0x20 DUP3 ADD SWAP1 POP SWAP3 SWAP2 POP POP JUMP JUMPDEST PUSH1 0x0 PUSH2 0x7F2 DUP3 PUSH2 0x813 JUMP JUMPDEST SWAP1 POP SWAP2 SWAP1 POP JUMP JUMPDEST PUSH1 0x0 DUP2 ISZERO ISZERO SWAP1 POP SWAP2 SWAP1 POP JUMP JUMPDEST PUSH1 0x0 PUSH2 0xFFFF DUP3 AND SWAP1 POP SWAP2 SWAP1 POP JUMP JUMPDEST PUSH1 0x0 PUSH20 0xFFFFFFFFFFFFFFFFFFFFFFFFFFFFFFFFFFFFFFFF DUP3 AND SWAP1 POP SWAP2 SWAP1 POP JUMP JUMPDEST PUSH1 0x0 DUP2 SWAP1 POP SWAP2 SWAP1 POP JUMP JUMPDEST PUSH1 0x0 PUSH1 0xFF DUP3 AND SWAP1 POP SWAP2 SWAP1 POP JUMP JUMPDEST PUSH1 0x0 DUP1 REVERT JUMPDEST PUSH32 0x4F776E61626C653A206E6577206F776E657220697320746865207A65726F2061 PUSH1 0x0 DUP3 ADD MSTORE PUSH32 0x6464726573730000000000000000000000000000000000000000000000000000 PUSH1 0x20 DUP3 ADD MSTORE POP JUMP JUMPDEST PUSH32 0x4F776E61626C653A2063616C6C6572206973206E6F7420746865206F776E6572 PUSH1 0x0 DUP3 ADD MSTORE POP JUMP JUMPDEST PUSH2 0x8D0 DUP2 PUSH2 0x7E7 JUMP JUMPDEST DUP2 EQ PUSH2 0x8DB JUMPI PUSH1 0x0 DUP1 REVERT JUMPDEST POP JUMP JUMPDEST PUSH2 0x8E7 DUP2 PUSH2 0x833 JUMP JUMPDEST DUP2 EQ PUSH2 0x8F2 JUMPI PUSH1 0x0 DUP1 REVERT JUMPDEST POP JUMP INVALID LOG2 PUSH5 0x6970667358 0x22 SLT KECCAK256 DUP11 0xB6 0xD4 PUSH31 0xE97066646E3C583F2E87D67E16F116EA58F41AEB100CEFFBB210B22F64736F PUSH13 0x63430008070033A26469706673 PC 0x22 SLT KECCAK256 0xD5 0xDB 0xE6 MLOAD 0xD2 0xB9 0xDA 0xAE 0xAB 0xF6 PUSH4 0xD7167AB8 CALL 0xE8 SIGNEXTEND 0x4A 0xD3 BASEFEE 0xC2 0x27 0xBB 0xFB BASEFEE PUSH8 0x612C413CCD64736F PUSH13 0x63430008070033000000000000 "
		},
		"gasEstimates": {
			"creation": {
				"codeDepositCost": "2137800",
				"executionCost": "infinite",
				"totalCost": "infinite"
			},
			"external": {
				"createCrowdfundingContract(address,address,uint256,uint256,uint16,uint16,uint256,uint16,address)": "infinite",
				"getDeployedCrowdfundingContracts()": "infinite",
				"owner()": "2544",
				"renounceOwnership()": "30376",
				"transferOwnership(address)": "30813"
			}
		},
		"methodIdentifiers": {
			"createCrowdfundingContract(address,address,uint256,uint256,uint16,uint16,uint256,uint16,address)": "9216be27",
			"getDeployedCrowdfundingContracts()": "79201eec",
			"owner()": "8da5cb5b",
			"renounceOwnership()": "715018a6",
			"transferOwnership(address)": "f2fde38b"
		}
	},
	"abi": [
		{
			"anonymous": false,
			"inputs": [
				{
					"indexed": false,
					"internalType": "address",
					"name": "_childContract",
					"type": "address"
				},
				{
					"components": [
						{
							"internalType": "address",
							"name": "sellTokenAddress",
							"type": "address"
						},
						{
							"internalType": "address",
							"name": "buyTokenAddress",
							"type": "address"
						},
						{
							"internalType": "uint8",
							"name": "buyTokenDecimals",
							"type": "uint8"
						},
						{
							"internalType": "bool",
							"name": "buyTokenIsNative",
							"type": "bool"
						},
						{
							"internalType": "uint256",
							"name": "raiseTotal",
							"type": "uint256"
						},
						{
							"internalType": "uint256",
							"name": "buyPrice",
							"type": "uint256"
						},
						{
							"internalType": "uint16",
							"name": "swapPercent",
							"type": "uint16"
						},
						{
							"internalType": "uint16",
							"name": "sellTax",
							"type": "uint16"
						},
						{
							"internalType": "uint256",
							"name": "maxBuyAmount",
							"type": "uint256"
						},
						{
							"internalType": "uint16",
							"name": "maxSellPercent",
							"type": "uint16"
						},
						{
							"internalType": "address",
							"name": "teamWallet",
							"type": "address"
						}
					],
					"indexed": false,
					"internalType": "struct Parameters",
					"name": "_paras",
					"type": "tuple"
				}
			],
			"name": "CrowdfundingCreated",
			"type": "event"
		},
		{
			"anonymous": false,
			"inputs": [
				{
					"indexed": true,
					"internalType": "address",
					"name": "previousOwner",
					"type": "address"
				},
				{
					"indexed": true,
					"internalType": "address",
					"name": "newOwner",
					"type": "address"
				}
			],
			"name": "OwnershipTransferred",
			"type": "event"
		},
		{
			"inputs": [
				{
					"internalType": "address",
					"name": "_sellToken",
					"type": "address"
				},
				{
					"internalType": "address",
					"name": "_buyToken",
					"type": "address"
				},
				{
					"internalType": "uint256",
					"name": "_raiseTotal",
					"type": "uint256"
				},
				{
					"internalType": "uint256",
					"name": "_buyPrice",
					"type": "uint256"
				},
				{
					"internalType": "uint16",
					"name": "_swapPercent",
					"type": "uint16"
				},
				{
					"internalType": "uint16",
					"name": "_sellTax",
					"type": "uint16"
				},
				{
					"internalType": "uint256",
					"name": "_maxBuyAmount",
					"type": "uint256"
				},
				{
					"internalType": "uint16",
					"name": "_maxSellPercent",
					"type": "uint16"
				},
				{
					"internalType": "address",
					"name": "_teamWallet",
					"type": "address"
				}
			],
			"name": "createCrowdfundingContract",
			"outputs": [],
			"stateMutability": "nonpayable",
			"type": "function"
		},
		{
			"inputs": [],
			"name": "getDeployedCrowdfundingContracts",
			"outputs": [
				{
					"internalType": "address[]",
					"name": "",
					"type": "address[]"
				}
			],
			"stateMutability": "view",
			"type": "function"
		},
		{
			"inputs": [],
			"name": "owner",
			"outputs": [
				{
					"internalType": "address",
					"name": "",
					"type": "address"
				}
			],
			"stateMutability": "view",
			"type": "function"
		},
		{
			"inputs": [],
			"name": "renounceOwnership",
			"outputs": [],
			"stateMutability": "nonpayable",
			"type": "function"
		},
		{
			"inputs": [
				{
					"internalType": "address",
					"name": "newOwner",
					"type": "address"
				}
			],
			"name": "transferOwnership",
			"outputs": [],
			"stateMutability": "nonpayable",
			"type": "function"
		}
	]
}