{
  "_format": "hh-sol-artifact-1",
  "contractName": "Crowdfunding",
  "sourceName": "contracts/Crowdfunding.sol",
  "abi": [
    {
      "inputs": [
        {
          "internalType": "address",
          "name": "_factory",
          "type": "address"
        },
        {
          "internalType": "address",
          "name": "_founder",
          "type": "address"
        }
      ],
      "stateMutability": "nonpayable",
      "type": "constructor"
    },
    {
      "inputs": [],
      "name": "AmountExceedsMaximum",
      "type": "error"
    },
    {
      "inputs": [],
      "name": "PriceIsMismatch",
      "type": "error"
    },
    {
      "inputs": [
        {
          "internalType": "string",
          "name": "_type",
          "type": "string"
        }
      ],
      "name": "TokenAllowanceInsufficient",
      "type": "error"
    },
    {
      "inputs": [
        {
          "internalType": "string",
          "name": "_type",
          "type": "string"
        }
      ],
      "name": "TokenBalanceInsufficient",
      "type": "error"
    },
    {
      "inputs": [
        {
          "internalType": "string",
          "name": "_type",
          "type": "string"
        }
      ],
      "name": "Transfer",
      "type": "error"
    },
    {
      "inputs": [],
      "name": "ZeroAmount",
      "type": "error"
    },
    {
      "anonymous": false,
      "inputs": [
        {
          "indexed": false,
          "internalType": "address",
          "name": "caller",
          "type": "address"
        },
        {
          "indexed": false,
          "internalType": "uint256",
          "name": "buyAmount",
          "type": "uint256"
        },
        {
          "indexed": false,
          "internalType": "uint256",
          "name": "sellAmount",
          "type": "uint256"
        },
        {
          "indexed": false,
          "internalType": "uint256",
          "name": "buyTokenBalance",
          "type": "uint256"
        },
        {
          "indexed": false,
          "internalType": "uint256",
          "name": "sellTokenBalance",
          "type": "uint256"
        },
        {
          "indexed": false,
          "internalType": "uint256",
          "name": "swapPoolBalance",
          "type": "uint256"
        }
      ],
      "name": "Buy",
      "type": "event"
    },
    {
      "anonymous": false,
      "inputs": [
        {
          "indexed": false,
          "internalType": "address",
          "name": "caller",
          "type": "address"
        },
        {
          "indexed": false,
          "internalType": "enum Crowdfunding.Status",
          "name": "status",
          "type": "uint8"
        }
      ],
      "name": "Cancel",
      "type": "event"
    },
    {
      "anonymous": false,
      "inputs": [
        {
          "indexed": false,
          "internalType": "address",
          "name": "owner",
          "type": "address"
        },
        {
          "indexed": false,
          "internalType": "address",
          "name": "factory",
          "type": "address"
        },
        {
          "indexed": false,
          "internalType": "address",
          "name": "founder",
          "type": "address"
        },
        {
          "indexed": false,
          "internalType": "uint256",
          "name": "deposit",
          "type": "uint256"
        },
        {
          "components": [
            {
              "internalType": "address",
              "name": "sellTokenAddress",
              "type": "address"
            },
            {
              "internalType": "address",
              "name": "buyTokenAddress",
              "type": "address"
            },
            {
              "internalType": "uint8",
              "name": "sellTokenDecimals",
              "type": "uint8"
            },
            {
              "internalType": "uint8",
              "name": "buyTokenDecimals",
              "type": "uint8"
            },
            {
              "internalType": "bool",
              "name": "buyTokenIsNative",
              "type": "bool"
            },
            {
              "internalType": "uint256",
              "name": "raiseTotal",
              "type": "uint256"
            },
            {
              "internalType": "uint256",
              "name": "buyPrice",
              "type": "uint256"
            },
            {
              "internalType": "uint16",
              "name": "swapPercent",
              "type": "uint16"
            },
            {
              "internalType": "uint16",
              "name": "sellTax",
              "type": "uint16"
            },
            {
              "internalType": "uint256",
              "name": "maxBuyAmount",
              "type": "uint256"
            },
            {
              "internalType": "uint16",
              "name": "maxSellPercent",
              "type": "uint16"
            },
            {
              "internalType": "address",
              "name": "teamWallet",
              "type": "address"
            },
            {
              "internalType": "uint256",
              "name": "startTime",
              "type": "uint256"
            },
            {
              "internalType": "uint256",
              "name": "endTime",
              "type": "uint256"
            },
            {
              "internalType": "address",
              "name": "router",
              "type": "address"
            },
            {
              "internalType": "uint256",
              "name": "dexInitPrice",
              "type": "uint256"
            }
          ],
          "indexed": false,
          "internalType": "struct Parameters",
          "name": "paras",
          "type": "tuple"
        }
      ],
      "name": "Created",
      "type": "event"
    },
    {
      "anonymous": false,
      "inputs": [
        {
          "indexed": true,
          "internalType": "address",
          "name": "previousOwner",
          "type": "address"
        },
        {
          "indexed": true,
          "internalType": "address",
          "name": "newOwner",
          "type": "address"
        }
      ],
      "name": "OwnershipTransferred",
      "type": "event"
    },
    {
      "anonymous": false,
      "inputs": [
        {
          "indexed": false,
          "internalType": "address",
          "name": "sender",
          "type": "address"
        },
        {
          "indexed": false,
          "internalType": "string",
          "name": "func",
          "type": "string"
        }
      ],
      "name": "Receive",
      "type": "event"
    },
    {
      "anonymous": false,
      "inputs": [
        {
          "indexed": false,
          "internalType": "address",
          "name": "caller",
          "type": "address"
        },
        {
          "indexed": false,
          "internalType": "enum Crowdfunding.Status",
          "name": "status",
          "type": "uint8"
        }
      ],
      "name": "Remove",
      "type": "event"
    },
    {
      "anonymous": false,
      "inputs": [
        {
          "indexed": false,
          "internalType": "address",
          "name": "caller",
          "type": "address"
        },
        {
          "indexed": false,
          "internalType": "uint256",
          "name": "buyAmount",
          "type": "uint256"
        },
        {
          "indexed": false,
          "internalType": "uint256",
          "name": "sellAmount",
          "type": "uint256"
        },
        {
          "indexed": false,
          "internalType": "uint256",
          "name": "buyTokenBalance",
          "type": "uint256"
        },
        {
          "indexed": false,
          "internalType": "uint256",
          "name": "sellTokenBalance",
          "type": "uint256"
        },
        {
          "indexed": false,
          "internalType": "uint256",
          "name": "swapPoolBalance",
          "type": "uint256"
        }
      ],
      "name": "Sell",
      "type": "event"
    },
    {
      "anonymous": false,
      "inputs": [
        {
          "indexed": false,
          "internalType": "address",
          "name": "caller",
          "type": "address"
        },
        {
          "indexed": false,
          "internalType": "enum Crowdfunding.Status",
          "name": "status",
          "type": "uint8"
        },
        {
          "indexed": false,
          "internalType": "bytes",
          "name": "data",
          "type": "bytes"
        }
      ],
      "name": "TransferToLiquidity",
      "type": "event"
    },
    {
      "anonymous": false,
      "inputs": [
        {
          "indexed": false,
          "internalType": "address",
          "name": "caller",
          "type": "address"
        },
        {
          "indexed": false,
          "internalType": "uint256",
          "name": "buyPrice",
          "type": "uint256"
        },
        {
          "indexed": false,
          "internalType": "uint16",
          "name": "swapPercent",
          "type": "uint16"
        },
        {
          "indexed": false,
          "internalType": "uint256",
          "name": "maxBuyAmount",
          "type": "uint256"
        },
        {
          "indexed": false,
          "internalType": "uint16",
          "name": "maxSellPercent",
          "type": "uint16"
        },
        {
          "indexed": false,
          "internalType": "uint256",
          "name": "endTime",
          "type": "uint256"
        }
      ],
      "name": "UpdateParas",
      "type": "event"
    },
    {
      "inputs": [],
      "name": "account",
      "outputs": [
        {
          "internalType": "address",
          "name": "_owner",
          "type": "address"
        },
        {
          "internalType": "address",
          "name": "_factory",
          "type": "address"
        },
        {
          "internalType": "address",
          "name": "_founder",
          "type": "address"
        }
      ],
      "stateMutability": "view",
      "type": "function"
    },
    {
      "inputs": [
        {
          "internalType": "uint256",
          "name": "_buyAmount",
          "type": "uint256"
        },
        {
          "internalType": "uint256",
          "name": "_sellAmount",
          "type": "uint256"
        }
      ],
      "name": "buy",
      "outputs": [
        {
          "internalType": "bool",
          "name": "",
          "type": "bool"
        }
      ],
      "stateMutability": "payable",
      "type": "function"
    },
    {
      "inputs": [],
      "name": "buyTokenIsNative",
      "outputs": [
        {
          "internalType": "bool",
          "name": "isNative",
          "type": "bool"
        }
      ],
      "stateMutability": "view",
      "type": "function"
    },
    {
      "inputs": [],
      "name": "cancel",
      "outputs": [],
      "stateMutability": "nonpayable",
      "type": "function"
    },
    {
      "inputs": [],
      "name": "deposit",
      "outputs": [
        {
          "internalType": "uint256",
          "name": "_depositAmount",
          "type": "uint256"
        }
      ],
      "stateMutability": "view",
      "type": "function"
    },
    {
      "inputs": [],
      "name": "getStore",
      "outputs": [
        {
          "internalType": "address",
          "name": "",
          "type": "address"
        }
      ],
      "stateMutability": "view",
      "type": "function"
    },
    {
      "inputs": [
        {
          "components": [
            {
              "internalType": "address",
              "name": "sellTokenAddress",
              "type": "address"
            },
            {
              "internalType": "address",
              "name": "buyTokenAddress",
              "type": "address"
            },
            {
              "internalType": "uint8",
              "name": "sellTokenDecimals",
              "type": "uint8"
            },
            {
              "internalType": "uint8",
              "name": "buyTokenDecimals",
              "type": "uint8"
            },
            {
              "internalType": "bool",
              "name": "buyTokenIsNative",
              "type": "bool"
            },
            {
              "internalType": "uint256",
              "name": "raiseTotal",
              "type": "uint256"
            },
            {
              "internalType": "uint256",
              "name": "buyPrice",
              "type": "uint256"
            },
            {
              "internalType": "uint16",
              "name": "swapPercent",
              "type": "uint16"
            },
            {
              "internalType": "uint16",
              "name": "sellTax",
              "type": "uint16"
            },
            {
              "internalType": "uint256",
              "name": "maxBuyAmount",
              "type": "uint256"
            },
            {
              "internalType": "uint16",
              "name": "maxSellPercent",
              "type": "uint16"
            },
            {
              "internalType": "address",
              "name": "teamWallet",
              "type": "address"
            },
            {
              "internalType": "uint256",
              "name": "startTime",
              "type": "uint256"
            },
            {
              "internalType": "uint256",
              "name": "endTime",
              "type": "uint256"
            },
            {
              "internalType": "address",
              "name": "router",
              "type": "address"
            },
            {
              "internalType": "uint256",
              "name": "dexInitPrice",
              "type": "uint256"
            }
          ],
          "internalType": "struct Parameters",
          "name": "_parameters",
          "type": "tuple"
        }
      ],
      "name": "init",
      "outputs": [],
      "stateMutability": "payable",
      "type": "function"
    },
    {
      "inputs": [],
      "name": "maxBuyAmount",
      "outputs": [
        {
          "internalType": "uint256",
          "name": "_buyAmount",
          "type": "uint256"
        },
        {
          "internalType": "uint256",
          "name": "_sellAmount",
          "type": "uint256"
        }
      ],
      "stateMutability": "view",
      "type": "function"
    },
    {
      "inputs": [],
      "name": "maxSellAmount",
      "outputs": [
        {
          "internalType": "uint256",
          "name": "_buyAmount",
          "type": "uint256"
        },
        {
          "internalType": "uint256",
          "name": "_sellAmount",
          "type": "uint256"
        }
      ],
      "stateMutability": "view",
      "type": "function"
    },
    {
      "inputs": [],
      "name": "owner",
      "outputs": [
        {
          "internalType": "address",
          "name": "",
          "type": "address"
        }
      ],
      "stateMutability": "view",
      "type": "function"
    },
    {
      "inputs": [],
      "name": "parameters",
      "outputs": [
        {
          "components": [
            {
              "internalType": "address",
              "name": "sellTokenAddress",
              "type": "address"
            },
            {
              "internalType": "address",
              "name": "buyTokenAddress",
              "type": "address"
            },
            {
              "internalType": "uint8",
              "name": "sellTokenDecimals",
              "type": "uint8"
            },
            {
              "internalType": "uint8",
              "name": "buyTokenDecimals",
              "type": "uint8"
            },
            {
              "internalType": "bool",
              "name": "buyTokenIsNative",
              "type": "bool"
            },
            {
              "internalType": "uint256",
              "name": "raiseTotal",
              "type": "uint256"
            },
            {
              "internalType": "uint256",
              "name": "buyPrice",
              "type": "uint256"
            },
            {
              "internalType": "uint16",
              "name": "swapPercent",
              "type": "uint16"
            },
            {
              "internalType": "uint16",
              "name": "sellTax",
              "type": "uint16"
            },
            {
              "internalType": "uint256",
              "name": "maxBuyAmount",
              "type": "uint256"
            },
            {
              "internalType": "uint16",
              "name": "maxSellPercent",
              "type": "uint16"
            },
            {
              "internalType": "address",
              "name": "teamWallet",
              "type": "address"
            },
            {
              "internalType": "uint256",
              "name": "startTime",
              "type": "uint256"
            },
            {
              "internalType": "uint256",
              "name": "endTime",
              "type": "uint256"
            },
            {
              "internalType": "address",
              "name": "router",
              "type": "address"
            },
            {
              "internalType": "uint256",
              "name": "dexInitPrice",
              "type": "uint256"
            }
          ],
          "internalType": "struct Parameters",
          "name": "_paras",
          "type": "tuple"
        }
      ],
      "stateMutability": "view",
      "type": "function"
    },
    {
      "inputs": [],
      "name": "remove",
      "outputs": [],
      "stateMutability": "nonpayable",
      "type": "function"
    },
    {
      "inputs": [],
      "name": "renounceOwnership",
      "outputs": [],
      "stateMutability": "nonpayable",
      "type": "function"
    },
    {
      "inputs": [
        {
          "internalType": "uint256",
          "name": "_buyAmount",
          "type": "uint256"
        },
        {
          "internalType": "uint256",
          "name": "_sellAmount",
          "type": "uint256"
        }
      ],
      "name": "sell",
      "outputs": [
        {
          "internalType": "bool",
          "name": "",
          "type": "bool"
        }
      ],
      "stateMutability": "payable",
      "type": "function"
    },
    {
      "inputs": [],
      "name": "sellDeposit",
      "outputs": [
        {
          "internalType": "uint256",
          "name": "_depositAmount",
          "type": "uint256"
        }
      ],
      "stateMutability": "view",
      "type": "function"
    },
    {
      "inputs": [],
      "name": "state",
      "outputs": [
        {
          "internalType": "uint256",
          "name": "_raiseTotal",
          "type": "uint256"
        },
        {
          "internalType": "uint256",
          "name": "_raiseAmount",
          "type": "uint256"
        },
        {
          "internalType": "uint256",
          "name": "_swapPoolAmount",
          "type": "uint256"
        },
        {
          "internalType": "uint256",
          "name": "_sellTokenDeposit",
          "type": "uint256"
        },
        {
          "internalType": "uint256",
          "name": "_sellTokenAmount",
          "type": "uint256"
        },
        {
          "internalType": "uint256",
          "name": "_myBuyTokenAmount",
          "type": "uint256"
        },
        {
          "internalType": "uint256",
          "name": "_mySellTokenAmount",
          "type": "uint256"
        },
        {
          "internalType": "uint256",
          "name": "_buyTokenBalance",
          "type": "uint256"
        },
        {
          "internalType": "uint256",
          "name": "_sellTokenBalance",
          "type": "uint256"
        },
        {
          "internalType": "enum Crowdfunding.Status",
          "name": "_status",
          "type": "uint8"
        },
        {
          "internalType": "uint256",
          "name": "_dexInitPrice",
          "type": "uint256"
        }
      ],
      "stateMutability": "view",
      "type": "function"
    },
    {
      "inputs": [
        {
          "internalType": "address",
          "name": "newOwner",
          "type": "address"
        }
      ],
      "name": "transferOwnership",
      "outputs": [],
      "stateMutability": "nonpayable",
      "type": "function"
    },
    {
      "inputs": [
        {
          "internalType": "address",
          "name": "newCrowdfunding",
          "type": "address"
        }
      ],
      "name": "transferPrimary",
      "outputs": [],
      "stateMutability": "nonpayable",
      "type": "function"
    },
    {
      "inputs": [
        {
          "internalType": "address payable",
          "name": "newStore",
          "type": "address"
        }
      ],
      "name": "transferStore",
      "outputs": [],
      "stateMutability": "nonpayable",
      "type": "function"
    },
    {
      "inputs": [
        {
          "internalType": "address",
          "name": "_router",
          "type": "address"
        },
        {
          "internalType": "bytes",
          "name": "_data",
          "type": "bytes"
        }
      ],
      "name": "transferToLiquidity",
      "outputs": [
        {
          "internalType": "bool",
          "name": "success",
          "type": "bool"
        },
        {
          "internalType": "bytes",
          "name": "result",
          "type": "bytes"
        }
      ],
      "stateMutability": "payable",
      "type": "function"
    },
    {
      "inputs": [
        {
          "internalType": "uint256",
          "name": "_buyPrice",
          "type": "uint256"
        },
        {
          "internalType": "uint16",
          "name": "_swapPercent",
          "type": "uint16"
        },
        {
          "internalType": "uint256",
          "name": "_maxBuyAmount",
          "type": "uint256"
        },
        {
          "internalType": "uint16",
          "name": "_maxSellPercent",
          "type": "uint16"
        },
        {
          "internalType": "uint256",
          "name": "_endTime",
          "type": "uint256"
        }
      ],
      "name": "updateParas",
      "outputs": [],
      "stateMutability": "nonpayable",
      "type": "function"
    },
    {
      "inputs": [],
      "name": "vaultAccount",
      "outputs": [
        {
          "internalType": "address",
          "name": "",
          "type": "address"
        }
      ],
      "stateMutability": "view",
      "type": "function"
    },
    {
      "stateMutability": "payable",
      "type": "receive"
    }
  ],
  "bytecode": "0x60806040523480156200001157600080fd5b5060405162004ac338038062004ac38339810160408190526200003491620000fa565b6200003f336200008d565b600580546001600160a01b039384166001600160a01b031991821681179092556006805493909416928116929092179092556017805482163017905560048054909116909117905562000132565b600080546001600160a01b038381166001600160a01b0319831681178455604051919092169283917f8be0079c531659141344cd1fd0a4f28419497f9722a3daafe3b4186f6b6457e09190a35050565b80516001600160a01b0381168114620000f557600080fd5b919050565b600080604083850312156200010e57600080fd5b6200011983620000dd565b91506200012960208401620000dd565b90509250929050565b61498180620001426000396000f3fe6080604052600436106101395760003560e01c8063c19d93fb116100ab578063dadd8c181161006f578063dadd8c18146104e9578063ea8a1af014610509578063ef3a3f051461051e578063f2fde38b14610531578063f4e759ef14610551578063f523e7751461056657600080fd5b8063c19d93fb1461046d578063c2722ecc14610499578063d0e30db0146104ae578063d6febde8146104c3578063d79875eb146104d657600080fd5b806388e765ff116100fd57806388e765ff14610265578063890357301461027a5780638da5cb5b146103e65780639761729314610418578063a7f4377914610439578063ae9bb7a71461044e57600080fd5b80632348238c146101955780633bf3e18e146101b75780635dab2420146101e757806366d602ae14610226578063715018a61461025057600080fd5b36610190576040805133815260208101829052600781830152667265636569766560c81b606082015290517fd00ca3f088120b3d909c3a9e01be91e94a2b001aed9c25fe751c3c7a72dc49bf9181900360800190a1005b600080fd5b3480156101a157600080fd5b506101b56101b0366004612f9b565b610586565b005b3480156101c357600080fd5b50600d54600160b01b900460ff165b60405190151581526020015b60405180910390f35b3480156101f357600080fd5b506101fc61061b565b604080516001600160a01b03948516815292841660208401529216918101919091526060016101de565b34801561023257600080fd5b5061023b61064f565b604080519283526020830191909152016101de565b34801561025c57600080fd5b506101b5610663565b34801561027157600080fd5b5061023b61068f565b34801561028657600080fd5b506103d96040805161020081018252600080825260208201819052918101829052606081018290526080810182905260a0810182905260c0810182905260e08101829052610100810182905261012081018290526101408101829052610160810182905261018081018290526101a081018290526101c081018290526101e0810191909152506040805161020081018252600c546001600160a01b039081168252600d54808216602084015260ff600160a01b8204811694840194909452600160a81b810484166060840152600160b01b900490921615156080820152600e5460a0820152600f5460c082015260105461ffff80821660e0840152620100009182900481166101008401526011546101208401526012549081166101408401520482166101608201526013546101808201526014546101a08201526015549091166101c08201526016546101e082015290565b6040516101de9190612fbf565b3480156103f257600080fd5b506000546001600160a01b03165b6040516001600160a01b0390911681526020016101de565b61042b6104263660046130d6565b61069b565b6040516101de9291906131ab565b34801561044557600080fd5b506101b5610b44565b34801561045a57600080fd5b506007545b6040519081526020016101de565b34801561047957600080fd5b50610482610d0e565b6040516101de9b9a99989796959493929190613206565b3480156104a557600080fd5b50610400610ef9565b3480156104ba57600080fd5b5060085461045f565b6101d26104d1366004613268565b610f34565b6101d26104e4366004613268565b61166e565b3480156104f557600080fd5b506101b561050436600461329c565b611c59565b34801561051557600080fd5b506101b5611d24565b6101b561052c36600461335d565b611def565b34801561053d57600080fd5b506101b561054c366004612f9b565b612245565b34801561055d57600080fd5b506104006122e0565b34801561057257600080fd5b506101b5610581366004612f9b565b61231b565b6000546001600160a01b031633146105b95760405162461bcd60e51b81526004016105b090613469565b60405180910390fd5b6001546040516308d208e360e21b81526001600160a01b03838116600483015290911690632348238c90602401600060405180830381600087803b15801561060057600080fd5b505af1158015610614573d6000803e3d6000fd5b5050505050565b60008060006106326000546001600160a01b031690565b60055460065491956001600160a01b039182169550911692509050565b60008061065b33612367565b915091509091565b6000546001600160a01b0316331461068d5760405162461bcd60e51b81526004016105b090613469565b565b60008061065b336124ca565b600080546060906001600160a01b031633146106c95760405162461bcd60e51b81526004016105b090613469565b601854600160a81b900460ff16156106f35760405162461bcd60e51b81526004016105b09061349e565b6018805460ff60a81b1916600160a81b17905561070e61259e565b610716612604565b6015546001600160a01b03166107875760405162461bcd60e51b815260206004820152603060248201527f446f6573206e6f7420737570706f7274206175746f6d61746963207472616e7360448201526f666572206f66206c697175696469747960801b60648201526084016105b0565b6015546001600160a01b038681169116146107ff5760405162461bcd60e51b815260206004820152603260248201527f506c65617365207472616e7366657220746f207468652064657820796f752063604482015271686f7365207768656e206372656174696e6760701b60648201526084016105b0565b60006108096126dc565b9050806108285760405162461bcd60e51b81526004016105b0906134c6565b600061083261295c565b600d549091506000906108689061085490600160a81b900460ff16600a613611565b6016546108629085906129f7565b90612a03565b6002546018546040516370a0823160e01b81526001600160a01b03918216600482015292935016906370a0823190602401602060405180830381865afa1580156108b6573d6000803e3d6000fd5b505050506040513d601f19601f820116820180604052508101906108da9190613620565b8111156109755760405162461bcd60e51b815260206004820152605d60248201527f5468652062616c616e6365206f662074686520746f6b656e20736f6c6420697360448201527f20696e73756666696369656e7420746f20636f6d706c6574652074686520617560648201527f746f6d61746963207472616e73666572206f66206c6971756964697479000000608482015260a4016105b0565b600160009054906101000a90046001600160a01b03166001600160a01b031663e5a4dbf889600260009054906101000a90046001600160a01b0316600360009054906101000a90046001600160a01b031685878d8d600c60010160169054906101000a900460ff166040518963ffffffff1660e01b8152600401610a00989796959493929190613639565b6000604051808303816000875af1158015610a1f573d6000803e3d6000fd5b505050506040513d6000823e601f3d908101601f19168201604052610a4791908101906136a4565b909550935084610a995760405162461bcd60e51b815260206004820152601760248201527f4661696c656420746f20616464206c697175696469747900000000000000000060448201526064016105b0565b601254610ab4906201000090046001600160a01b0316612a0f565b610ad05760405162461bcd60e51b81526004016105b090613767565b6018805460ff60a01b1916600360a01b17908190556040517fab3f2147088482db1a84b21889cc70b0e5ac5a0a34b9217f12cfc1861a9c3cef91610b22913391600160a01b900460ff1690889061379e565b60405180910390a15050506018805460ff60a81b191690559094909350915050565b6000546001600160a01b03163314610b6e5760405162461bcd60e51b81526004016105b090613469565b610b7661259e565b610b7e612604565b6015546001600160a01b031615610bec5760405162461bcd60e51b815260206004820152602c60248201527f43616e206f6e6c7920626520636c6f736564206279207472616e73666572726960448201526b6e67206c697175696469747960a01b60648201526084016105b0565b6000610bf66126dc565b905080610c155760405162461bcd60e51b81526004016105b0906134c6565b601254610c30906201000090046001600160a01b0316612b2f565b610c7c5760405162461bcd60e51b815260206004820152601860248201527f526566756e642062757920746f6b656e206661696c757265000000000000000060448201526064016105b0565b601254610c97906201000090046001600160a01b0316612a0f565b610cb35760405162461bcd60e51b81526004016105b090613767565b6018805460ff60a01b1916600360a01b17908190556040517fc5b1926826a1a3d3516971a2579cab66ddfa770959e8c2f1d832386b262e2d8691610d03913391600160a01b900460ff16906137d6565b60405180910390a150565b601854600d5460009182918291829182918291829182918291829182916001600160a01b03163190600160b01b900460ff16610db7576003546018546040516370a0823160e01b81526001600160a01b0391821660048201529116906370a0823190602401602060405180830381865afa158015610d90573d6000803e3d6000fd5b505050506040513d601f19601f82011682018060405250810190610db49190613620565b90505b60015460405163f5a7976760e01b815233600482015260009182916001600160a01b039091169063f5a79767906024016040805180830381865afa158015610e03573d6000803e3d6000fd5b505050506040513d601f19601f82011682018060405250810190610e2791906137f3565b600e54600954600a54600754600b546002546018546040516370a0823160e01b81526001600160a01b039182166004820152989a5096985094969395929491939092899289928c92909116906370a0823190602401602060405180830381865afa158015610e99573d6000803e3d6000fd5b505050506040513d601f19601f82011682018060405250810190610ebd9190613620565b601860149054906101000a900460ff16600c600a01549d509d509d509d509d509d509d509d509d509d509d50505050909192939495969798999a565b600080546001600160a01b03163314610f245760405162461bcd60e51b81526004016105b090613469565b506001546001600160a01b031690565b6000610f3e61259e565b610f46612c5d565b601854600160a81b900460ff1615610f705760405162461bcd60e51b81526004016105b09061349e565b6018805460ff60a81b1916600160a81b179055821580610f8e575081155b15610fac57604051631f2a200560e01b815260040160405180910390fd5b610fb68383612cfa565b610fd35760405163640dea9d60e11b815260040160405180910390fd5b610fdd3384612d43565b610ffa576040516311b5c73d60e21b815260040160405180910390fd5b6002546018546040516370a0823160e01b81526001600160a01b039182166004820152849291909116906370a0823190602401602060405180830381865afa15801561104a573d6000803e3d6000fd5b505050506040513d601f19601f8201168201806040525081019061106e9190613620565b101561108d57604051638c2f4c6b60e01b81526004016105b090613817565b600061109884612d6d565b600d54909150600160b01b900460ff16156111f1578334146110f55760405162461bcd60e51b81526020600482015260166024820152751b5cd9cb9d985b1d59481a5cc81b9bdd081d985b1a5960521b60448201526064016105b0565b6018546040516000916001600160a01b03169083908381818185875af1925050503d8060008114611142576040519150601f19603f3d011682016040523d82523d6000602084013e611147565b606091505b50509050801561116a57604051633e75f72760e11b81526004016105b090613835565b6012546201000090046001600160a01b03166111863484612d8f565b604051600081818185875af1925050503d80600081146111c2576040519150601f19603f3d011682016040523d82523d6000602084013e6111c7565b606091505b509091505080156111eb57604051633e75f72760e11b81526004016105b090613835565b50611458565b600354601754604051636eb1769f60e11b81523360048201526001600160a01b0391821660248201528692919091169063dd62ed3e90604401602060405180830381865afa158015611247573d6000803e3d6000fd5b505050506040513d601f19601f8201168201806040525081019061126b9190613620565b101561128a57604051630b29193560e31b81526004016105b090613835565b6003546040516370a0823160e01b815233600482015285916001600160a01b0316906370a0823190602401602060405180830381865afa1580156112d2573d6000803e3d6000fd5b505050506040513d601f19601f820116820180604052508101906112f69190613620565b101561131557604051638c2f4c6b60e01b81526004016105b090613835565b6003546018546040516323b872dd60e01b81526001600160a01b03928316926323b872dd9261134e923392909116908690600401613852565b6020604051808303816000875af115801561136d573d6000803e3d6000fd5b505050506040513d601f19601f820116820180604052508101906113919190613876565b6113ae57604051633e75f72760e11b81526004016105b090613835565b6003546012546001600160a01b03918216916323b872dd91339162010000909104166113da8886612d8f565b6040518463ffffffff1660e01b81526004016113f893929190613852565b6020604051808303816000875af1158015611417573d6000803e3d6000fd5b505050506040513d601f19601f8201168201806040525081019061143b9190613876565b61145857604051633e75f72760e11b81526004016105b090613835565b600154600254604051637aa9bf6f60e11b81526001600160a01b039283169263f5537ede926114909291169033908890600401613852565b6020604051808303816000875af11580156114af573d6000803e3d6000fd5b505050506040513d601f19601f820116820180604052508101906114d39190613876565b6114f057604051633e75f72760e11b81526004016105b090613817565b6009546114fd9085612d9b565b600955600b5461150d9084612d8f565b600b55600a5461151d9082612d9b565b600a55600154604051636aa05ee360e01b815233600482015260248101869052604481018590526001600160a01b0390911690636aa05ee390606401600060405180830381600087803b15801561157357600080fd5b505af1158015611587573d6000803e3d6000fd5b50506001546040516379da956560e01b815233600482015260248101889052604481018790526001600160a01b0390911692506379da95659150606401600060405180830381600087803b1580156115de57600080fd5b505af11580156115f2573d6000803e3d6000fd5b5050600954600b54600a5460408051338152602081018b90529081018990526060810193909352608083019190915260a08201527f178f20a8980b4e6cdc2c84f3ef670f5047f63638f90a8acc6b724b43f1da778d925060c00190505b60405180910390a150506018805460ff60a81b19169055506001919050565b600061167861259e565b611680612c5d565b601854600160a81b900460ff16156116aa5760405162461bcd60e51b81526004016105b09061349e565b6018805460ff60a81b1916600160a81b1790558215806116c8575081155b156116e657604051631f2a200560e01b815260040160405180910390fd5b6116f08383612cfa565b61170d5760405163640dea9d60e11b815260040160405180910390fd5b6117173383612da7565b611734576040516311b5c73d60e21b815260040160405180910390fd5b600061173f84612dc7565b90508061174a61295c565b101561176957604051638c2f4c6b60e01b81526004016105b090613835565b600254601754604051636eb1769f60e11b81523360048201526001600160a01b0391821660248201528592919091169063dd62ed3e90604401602060405180830381865afa1580156117bf573d6000803e3d6000fd5b505050506040513d601f19601f820116820180604052508101906117e39190613620565b101561181f57604051630b29193560e31b815260206004820152600a60248201526929b2b636103a37b5b2b760b11b60448201526064016105b0565b6002546040516370a0823160e01b815233600482015284916001600160a01b0316906370a0823190602401602060405180830381865afa158015611867573d6000803e3d6000fd5b505050506040513d601f19601f8201168201806040525081019061188b9190613620565b10156118c757604051638c2f4c6b60e01b815260206004820152600a60248201526929b2b636103a37b5b2b760b11b60448201526064016105b0565b6002546018546040516323b872dd60e01b81526001600160a01b03928316926323b872dd92611900923392909116908890600401613852565b6020604051808303816000875af115801561191f573d6000803e3d6000fd5b505050506040513d601f19601f820116820180604052508101906119439190613876565b61196057604051633e75f72760e11b81526004016105b090613817565b600d54600160b01b900460ff1615611a36576018546001600160a01b03163181111561199f57604051630b29193560e31b81526004016105b090613893565b60015460405163a9059cbb60e01b8152336004820152602481018390526001600160a01b039091169063a9059cbb906044016020604051808303816000875af11580156119f0573d6000803e3d6000fd5b505050506040513d601f19601f82011682018060405250810190611a149190613876565b611a3157604051633e75f72760e11b81526004016105b090613893565b611b61565b6003546018546040516370a0823160e01b81526001600160a01b039182166004820152839291909116906370a0823190602401602060405180830381865afa158015611a86573d6000803e3d6000fd5b505050506040513d601f19601f82011682018060405250810190611aaa9190613620565b1015611ac957604051630b29193560e31b81526004016105b090613893565b600154600354604051637aa9bf6f60e11b81526001600160a01b039283169263f5537ede92611b019291169033908690600401613852565b6020604051808303816000875af1158015611b20573d6000803e3d6000fd5b505050506040513d601f19601f82011682018060405250810190611b449190613876565b611b6157604051633e75f72760e11b81526004016105b090613893565b600954611b6e9085612d8f565b600955600b54611b7e9084612d9b565b600b55600a54611b8e9082612d8f565b600a5560015460405163e32fca3f60e01b815233600482015260248101869052604481018590526001600160a01b039091169063e32fca3f90606401600060405180830381600087803b158015611be457600080fd5b505af1158015611bf8573d6000803e3d6000fd5b5050600954600b54600a5460408051338152602081018b90529081018990526060810193909352608083019190915260a08201527f20a7fc03b19d7f251cc907f177ff82194c6aebe9a2b47e1cd734dcb6bf772cc2925060c001905061164f565b6000546001600160a01b03163314611c835760405162461bcd60e51b81526004016105b090613469565b611c8b61259e565b611c93612caf565b600f8590556010805461ffff86811661ffff199283168117909355601186905560128054918616919092168117909155601483905560408051338152602081018990529081019290925260608201859052608082015260a081018290527fa8b16e07b45dffc2932e0802241be3440dde875279aadac4329f00b494dc495e9060c00160405180910390a15050505050565b6000546001600160a01b03163314611d4e5760405162461bcd60e51b81526004016105b090613469565b611d5661259e565b611d5e612dfa565b601254611d79906201000090046001600160a01b0316612a0f565b611d955760405162461bcd60e51b81526004016105b090613767565b6018805460ff60a01b1916600160a21b17908190556040517fcd8e02743d921fb9bca767936271b8b93911716c78c1d46c2c6ee6189309d30c91611de5913391600160a01b900460ff16906137d6565b60405180910390a1565b6000546001600160a01b03163314611e195760405162461bcd60e51b81526004016105b090613469565b6001546001600160a01b031615611e665760405162461bcd60e51b815260206004820152601160248201527053746f7265206973206e6f74207a65726f60781b60448201526064016105b0565b604051611e7290612f69565b604051809103906000f080158015611e8e573d6000803e3d6000fd5b50600180546001600160a01b03199081166001600160a01b039384169081179092556018805482169092179091558251600c805483169184169190911790556020830151600d80546040860151606087015160808801519487166001600160a81b031990931692909217600160a01b60ff928316021761ffff60a81b1916600160a81b919092160260ff60b01b191617600160b01b9215159290920291909117905560a0830151600e5560c0830151600f5560e08301516010805461010086015161ffff93841663ffffffff19909216919091176201000091841682021790915561012085015160115561014085015160128054610160880151929094166001600160b01b0319909416939093179085169091021790556101808301516013556101a08301516014556101c08301516015805490921692169190911790556101e0810151601655611fdd612e4b565b6018805460ff60a01b1916600160a01b836004811115611fff57611fff6131ce565b0217905550600c54600280546001600160a01b0319166001600160a01b0390921691821790556040805163313ce56760e01b8152905163313ce567916004808201926020929091908290030181865afa158015612060573d6000803e3d6000fd5b505050506040513d601f19601f8201168201806040525081019061208491906138b6565b600d805460ff92909216600160a01b0260ff60a01b1983168117909155600c546001600160a01b03918216928216929092179116036120d657600d805461ffff60a81b1916608960a91b179055612182565b600d805460ff60b01b198116909155600380546001600160a01b0319166001600160a01b0390921691821790556040805163313ce56760e01b8152905163313ce567916004808201926020929091908290030181865afa15801561213e573d6000803e3d6000fd5b505050506040513d601f19601f8201168201806040525081019061216291906138b6565b600d805460ff92909216600160a81b0260ff60a81b199092169190911790555b600e54612190906000612e73565b6007819055600b819055600d546121e792506121e1906121bb90600160a81b900460ff16600a613611565b601654601054600e54610862926127109284926121db9161ffff166129f7565b906129f7565b90612d9b565b6008557f678049c31d14b3099dabc161f3bb35d9200aefac436daea21fde47f508fd587b61221d6000546001600160a01b031690565b600554600654600754604051610d0394936001600160a01b0390811693169190600c906138d3565b6000546001600160a01b0316331461226f5760405162461bcd60e51b81526004016105b090613469565b6001600160a01b0381166122d45760405162461bcd60e51b815260206004820152602660248201527f4f776e61626c653a206e6577206f776e657220697320746865207a65726f206160448201526564647265737360d01b60648201526084016105b0565b6122dd81612f03565b50565b600080546001600160a01b0316331461230b5760405162461bcd60e51b81526004016105b090613469565b506018546001600160a01b031690565b6000546001600160a01b031633146123455760405162461bcd60e51b81526004016105b090613469565b600180546001600160a01b0319166001600160a01b0392909216919091179055565b600154604051631d76db5b60e31b81526001600160a01b038381166004830152600092839283929091169063ebb6dad8906024016040805180830381865afa1580156123b7573d6000803e3d6000fd5b505050506040513d601f19601f820116820180604052508101906123db91906137f3565b60015460405163f5a7976760e01b81526001600160a01b0388811660048301529294506000935091169063f5a79767906024016040805180830381865afa15801561242a573d6000803e3d6000fd5b505050506040513d601f19601f8201168201806040525081019061244e91906137f3565b601254909250600091506124959061248f90859061248990612710906124789061ffff16846139e4565b61248291906139fb565b8690612d9b565b90612d8f565b83612f53565b905060006124a6600a546000612e73565b9150506124bd60006124b88484612f53565b612e73565b9550955050505050915091565b60015460405163f5a7976760e01b81526001600160a01b038381166004830152600092839283929091169063f5a79767906024016040805180830381865afa15801561251a573d6000803e3d6000fd5b505050506040513d601f19601f8201168201806040525081019061253e91906137f3565b5060115490915060009061256a906125569084612d8f565b600954600e5461256591612d8f565b612f53565b9050600061257b6000600b54612e73565b50905061259261258b8383612f53565b6000612e73565b94509450505050915091565b6004601854600160a01b900460ff1660048111156125be576125be6131ce565b0361068d5760405162461bcd60e51b815260206004820152601660248201527510dc9bddd9199d5b991a5b99c81a5cc818d85b98d95b60521b60448201526064016105b0565b6014544211806126185750600e5460095410155b61266f5760405162461bcd60e51b815260206004820152602260248201527f43726f776466756e64696e6720656e6420636f6e646974696f6e206e6f74206d604482015261195d60f21b60648201526084016105b0565b6003601854600160a01b900460ff16600481111561268f5761268f6131ce565b0361068d5760405162461bcd60e51b815260206004820152601c60248201527f43726f776466756e64696e672073746174757320697320656e6465640000000060448201526064016105b0565b60008061276c612710610862600460009054906101000a90046001600160a01b03166001600160a01b031663ddca3f436040518163ffffffff1660e01b8152600401602060405180830381865afa15801561273b573d6000803e3d6000fd5b505050506040513d601f19601f8201168201806040525081019061275f9190613a1d565b62ffffff166121db61295c565b600d54909150600090600160b01b900460ff1615612874576001546004805460408051622fcfcb60e31b815290516001600160a01b039485169463a9059cbb9493169263017e7e58928082019260209290918290030181865afa1580156127d7573d6000803e3d6000fd5b505050506040513d601f19601f820116820180604052508101906127fb9190613a42565b6040516001600160e01b031960e084901b1681526001600160a01b039091166004820152602481018590526044015b6020604051808303816000875af1158015612849573d6000803e3d6000fd5b505050506040513d601f19601f8201168201806040525081019061286d9190613876565b9050612956565b6001546003546004805460408051622fcfcb60e31b815290516001600160a01b039586169563f5537ede9581169493169263017e7e58928082019260209290918290030181865afa1580156128cd573d6000803e3d6000fd5b505050506040513d601f19601f820116820180604052508101906128f19190613a42565b856040518463ffffffff1660e01b815260040161291093929190613852565b6020604051808303816000875af115801561292f573d6000803e3d6000fd5b505050506040513d601f19601f820116820180604052508101906129539190613876565b90505b92915050565b600d54600090600160b01b900460ff161561298257506018546001600160a01b03163190565b6003546018546040516370a0823160e01b81526001600160a01b0391821660048201529116906370a0823190602401602060405180830381865afa1580156129ce573d6000803e3d6000fd5b505050506040513d601f19601f820116820180604052508101906129f29190613620565b905090565b600061295382846139e4565b600061295382846139fb565b6002546018546040516370a0823160e01b81526001600160a01b03918216600482015260009260019284929116906370a0823190602401602060405180830381865afa158015612a63573d6000803e3d6000fd5b505050506040513d601f19601f82011682018060405250810190612a879190613620565b1115612956576001546002546018546040516370a0823160e01b81526001600160a01b0391821660048201529281169263f5537ede929190911690869082906370a08231906024015b602060405180830381865afa158015612aed573d6000803e3d6000fd5b505050506040513d601f19601f82011682018060405250810190612b119190613620565b6040518463ffffffff1660e01b815260040161291093929190613852565b600d54600090600190600160b01b900460ff1615612b9b576018546001600160a01b03163115612b965760015460185460405163a9059cbb60e01b81526001600160a01b03868116600483015291821631602482015291169063a9059cbb9060440161282a565b612956565b6003546018546040516370a0823160e01b81526001600160a01b03918216600482015260009291909116906370a0823190602401602060405180830381865afa158015612bec573d6000803e3d6000fd5b505050506040513d601f19601f82011682018060405250810190612c109190613620565b1115612956576001546003546018546040516370a0823160e01b81526001600160a01b0391821660048201529281169263f5537ede929190911690869082906370a0823190602401612ad0565b601354421015612caf5760405162461bcd60e51b815260206004820152601860248201527f43726f776466756e64696e67206e6f742073746172746564000000000000000060448201526064016105b0565b60145442111561068d5760405162461bcd60e51b815260206004820152601660248201527510dc9bddd9199d5b991a5b99c81a185cc8195b99195960521b60448201526064016105b0565b600080612d08846000612e73565b9150506000612d18600085612e73565b50905084811480612d2857508382145b15612d3857600192505050612956565b506000949350505050565b600080612d4f846124ca565b509050808311612d63576001915050612956565b6000915050612956565b60105460009061271090612d859061ffff16846139e4565b61295691906139fb565b60006129538284613a5f565b60006129538284613a72565b600080612db384612367565b915050808311612d63576001915050612956565b6010546000906129569061271090612de99062010000900461ffff16856139e4565b612df391906139fb565b8390612d8f565b601354421061068d5760405162461bcd60e51b815260206004820152601860248201527f43726f776466756e64696e67206861732073746172746564000000000000000060448201526064016105b0565b601354600090421015612e5e5750600190565b6014544211612e6d5750600290565b50600390565b6000808315612eb657600d548490612e9690600160a81b900460ff16600a613611565b600f54612ea390876139e4565b612ead91906139fb565b91509150612efc565b8215612ef557600f54600d54612ed790600160a81b900460ff16600a613611565b612ee190856139e4565b612eeb91906139fb565b8391509150612efc565b5060009050805b9250929050565b600080546001600160a01b038381166001600160a01b0319831681178455604051919092169283917f8be0079c531659141344cd1fd0a4f28419497f9722a3daafe3b4186f6b6457e09190a35050565b6000818310612f625781612953565b5090919050565b610ec680613a8683390190565b6001600160a01b03811681146122dd57600080fd5b8035612f9681612f76565b919050565b600060208284031215612fad57600080fd5b8135612fb881612f76565b9392505050565b81516001600160a01b0316815261020081016020830151612feb60208401826001600160a01b03169052565b506040830151613000604084018260ff169052565b506060830151613015606084018260ff169052565b506080830151613029608084018215159052565b5060a083015160a083015260c083015160c083015260e083015161305360e084018261ffff169052565b506101008381015161ffff811684830152505061012083810151908301526101408084015161ffff8116828501525050610160838101516001600160a01b03811684830152505061018083810151908301526101a080840151908301526101c0808401516001600160a01b0381168285015250506101e092830151919092015290565b6000806000604084860312156130eb57600080fd5b83356130f681612f76565b9250602084013567ffffffffffffffff8082111561311357600080fd5b818601915086601f83011261312757600080fd5b81358181111561313657600080fd5b87602082850101111561314857600080fd5b6020830194508093505050509250925092565b60005b8381101561317657818101518382015260200161315e565b50506000910152565b6000815180845261319781602086016020860161315b565b601f01601f19169290920160200192915050565b82151581526040602082015260006131c6604083018461317f565b949350505050565b634e487b7160e01b600052602160045260246000fd5b6005811061320257634e487b7160e01b600052602160045260246000fd5b9052565b6000610160820190508c82528b60208301528a60408301528960608301528860808301528760a08301528660c08301528560e0830152846101008301526132516101208301856131e4565b826101408301529c9b505050505050505050505050565b6000806040838503121561327b57600080fd5b50508035926020909101359150565b803561ffff81168114612f9657600080fd5b600080600080600060a086880312156132b457600080fd5b853594506132c46020870161328a565b9350604086013592506132d96060870161328a565b949793965091946080013592915050565b634e487b7160e01b600052604160045260246000fd5b604051610200810167ffffffffffffffff81118282101715613324576133246132ea565b60405290565b60ff811681146122dd57600080fd5b8035612f968161332a565b80151581146122dd57600080fd5b8035612f9681613344565b6000610200828403121561337057600080fd5b613378613300565b61338183612f8b565b815261338f60208401612f8b565b60208201526133a060408401613339565b60408201526133b160608401613339565b60608201526133c260808401613352565b608082015260a083013560a082015260c083013560c08201526133e760e0840161328a565b60e08201526101006133fa81850161328a565b90820152610120838101359082015261014061341781850161328a565b90820152610160613429848201612f8b565b9082015261018083810135908201526101a080840135908201526101c0613451818501612f8b565b908201526101e0928301359281019290925250919050565b6020808252818101527f4f776e61626c653a2063616c6c6572206973206e6f7420746865206f776e6572604082015260600190565b6020808252600e908201526d4e6f2072652d656e7472616e637960901b604082015260600190565b60208082526031908201527f546865726520697320616e206572726f7220696e207769746864726177696e67604082015270207468652068616e646c696e672066656560781b606082015260800190565b634e487b7160e01b600052601160045260246000fd5b600181815b8085111561356857816000190482111561354e5761354e613517565b8085161561355b57918102915b93841c9390800290613532565b509250929050565b60008261357f57506001612956565b8161358c57506000612956565b81600181146135a257600281146135ac576135c8565b6001915050612956565b60ff8411156135bd576135bd613517565b50506001821b612956565b5060208310610133831016604e8410600b84101617156135eb575081810a612956565b6135f5838361352d565b806000190482111561360957613609613517565b029392505050565b600061295360ff841683613570565b60006020828403121561363257600080fd5b5051919050565b6001600160a01b038981168252888116602083015287166040820152606081018690526080810185905260e060a0820181905281018390526000610100848682850137600083860182015292151560c083015250601f909201601f1916909101019695505050505050565b600080604083850312156136b757600080fd5b82516136c281613344565b602084015190925067ffffffffffffffff808211156136e057600080fd5b818501915085601f8301126136f457600080fd5b815181811115613706576137066132ea565b604051601f8201601f19908116603f0116810190838211818310171561372e5761372e6132ea565b8160405282815288602084870101111561374757600080fd5b61375883602083016020880161315b565b80955050505050509250929050565b60208082526019908201527f526566756e642073656c6c20746f6b656e206661696c75726500000000000000604082015260600190565b6001600160a01b03841681526137b760208201846131e4565b6060604082015260006137cd606083018461317f565b95945050505050565b6001600160a01b038316815260408101612fb860208301846131e4565b6000806040838503121561380657600080fd5b505080516020909101519092909150565b60208082526004908201526314d95b1b60e21b604082015260600190565b60208082526003908201526242757960e81b604082015260600190565b6001600160a01b039384168152919092166020820152604081019190915260600190565b60006020828403121561388857600080fd5b8151612fb881613344565b602080825260099082015268213abc903a37b5b2b760b91b604082015260600190565b6000602082840312156138c857600080fd5b8151612fb88161332a565b6001600160a01b038681168252858116602083015284811660408301526060820184905282548116608083015261028082019060018401546001600160a01b038282161660a085015260a081901c60ff1660c085015260a881901c60ff1660e085015261394b610100850160ff8360b01c1615159052565b5060028401546101208401526003840154610140840152600484015461ffff808216610160860152601091821c811661018086015260058601546101a086015260068601549081166101c0860152901c166001600160a01b039081166101e084015260078401546102008401526008840154610220840152600984015416610240830152600a9092015461026090910152949350505050565b808202811582820484141761295657612956613517565b600082613a1857634e487b7160e01b600052601260045260246000fd5b500490565b600060208284031215613a2f57600080fd5b815162ffffff81168114612fb857600080fd5b600060208284031215613a5457600080fd5b8151612fb881612f76565b8181038181111561295657612956613517565b808201808211156129565761295661351756fe608060405234801561001057600080fd5b50600080546001600160a01b0319163390811790915560408051918252517f4101e71e974f68df5e9730cc223280b41654676bbb052cdcc735c3337e64d2d99181900360200190a1610e5f806100676000396000f3fe6080604052600436106100ab5760003560e01c8063da3e339711610064578063da3e3397146101e6578063e32fca3f14610206578063e5a4dbf814610226578063ebb6dad814610254578063f5537ede14610289578063f5a79767146102a957600080fd5b80632348238c146101075780636aa05ee31461012957806379da956514610149578063a2ba266b14610169578063a9059cbb14610189578063c6dbdf61146101be57600080fd5b36610102576040805133815260208101829052600781830152667265636569766560c81b606082015290517fd00ca3f088120b3d909c3a9e01be91e94a2b001aed9c25fe751c3c7a72dc49bf9181900360800190a1005b600080fd5b34801561011357600080fd5b50610127610122366004610b71565b6102c9565b005b34801561013557600080fd5b50610127610144366004610b8e565b6103c2565b34801561015557600080fd5b50610127610164366004610b8e565b610467565b34801561017557600080fd5b50610127610184366004610b8e565b61050a565b34801561019557600080fd5b506101a96101a4366004610bc3565b61058a565b60405190151581526020015b60405180910390f35b3480156101ca57600080fd5b506000546040516001600160a01b0390911681526020016101b5565b3480156101f257600080fd5b506101a9610201366004610bef565b61061d565b34801561021257600080fd5b50610127610221366004610b8e565b6106cd565b34801561023257600080fd5b50610246610241366004610c4e565b61074c565b6040516101b5929190610d1c565b34801561026057600080fd5b5061027461026f366004610b71565b610a1b565b604080519283526020830191909152016101b5565b34801561029557600080fd5b506101a96102a4366004610bef565b610a76565b3480156102b557600080fd5b506102746102c4366004610b71565b610adf565b6000546001600160a01b0316336001600160a01b0316146103055760405162461bcd60e51b81526004016102fc90610d74565b60405180910390fd5b6001600160a01b03811661036e5760405162461bcd60e51b815260206004820152602a60248201527f5365636f6e646172793a206e6577207072696d61727920697320746865207a65604482015269726f206164647265737360b01b60648201526084016102fc565b600080546001600160a01b0319166001600160a01b0383169081179091556040519081527f4101e71e974f68df5e9730cc223280b41654676bbb052cdcc735c3337e64d2d99060200160405180910390a150565b6000546001600160a01b0316336001600160a01b0316146103f55760405162461bcd60e51b81526004016102fc90610d74565b6001600160a01b0383166000908152600160205260409020546104189083610b3a565b6001600160a01b038416600090815260016020819052604090912091825501546104429082610b3a565b6001600160a01b03909316600090815260016020819052604090912001929092555050565b6000546001600160a01b0316336001600160a01b03161461049a5760405162461bcd60e51b81526004016102fc90610d74565b6001600160a01b0383166000908152600260205260409020546104bd9083610b3a565b6001600160a01b0384166000908152600260205260409020908155600101546104e69082610b3a565b6001600160a01b039093166000908152600260205260409020600101929092555050565b6000546001600160a01b0316336001600160a01b03161461053d5760405162461bcd60e51b81526004016102fc90610d74565b6001600160a01b0383166000908152600160205260409020546105609083610b4d565b6001600160a01b038416600090815260016020819052604090912091825501546104429082610b4d565b600080546001600160a01b0316336001600160a01b0316146105be5760405162461bcd60e51b81526004016102fc90610d74565b6000836001600160a01b03168360405160006040518083038185875af1925050503d806000811461060b576040519150601f19603f3d011682016040523d82523d6000602084013e610610565b606091505b5090925050505b92915050565b600080546001600160a01b0316336001600160a01b0316146106515760405162461bcd60e51b81526004016102fc90610d74565b60405163095ea7b360e01b81526001600160a01b0384811660048301526024820184905285169063095ea7b3906044015b6020604051808303816000875af11580156106a1573d6000803e3d6000fd5b505050506040513d601f19601f820116820180604052508101906106c59190610dc0565b949350505050565b6000546001600160a01b0316336001600160a01b0316146107005760405162461bcd60e51b81526004016102fc90610d74565b6001600160a01b0383166000908152600260205260409020546107239083610b4d565b6001600160a01b0384166000908152600260205260409020908155600101546104e69082610b4d565b600080546060906001600160a01b0316336001600160a01b0316146107835760405162461bcd60e51b81526004016102fc90610d74565b60405163095ea7b360e01b81526001600160a01b038b8116600483015260248201899052600091908b169063095ea7b3906044016020604051808303816000875af11580156107d6573d6000803e3d6000fd5b505050506040513d601f19601f820116820180604052508101906107fa9190610dc0565b9050806108545760405162461bcd60e51b815260206004820152602260248201527f417070726f76652073656c6c20746f6b656e20746f20726f757465722065727260448201526137b960f11b60648201526084016102fc565b83156108c2578a6001600160a01b0316878787604051610875929190610ddd565b60006040518083038185875af1925050503d80600081146108b2576040519150601f19603f3d011682016040523d82523d6000602084013e6108b7565b606091505b509093509150610a0d565b60405163095ea7b360e01b81526001600160a01b038c81166004830152602482018990528a169063095ea7b3906044016020604051808303816000875af1158015610911573d6000803e3d6000fd5b505050506040513d601f19601f820116820180604052508101906109359190610dc0565b9050806109aa5760405162461bcd60e51b815260206004820152603b60248201527f416e206572726f72206f63637572726564207768696c652073656e64696e672060448201527f7468652062757920746f6b656e20746f2074686520726f75746572000000000060648201526084016102fc565b8a6001600160a01b031686866040516109c4929190610ddd565b6000604051808303816000865af19150503d8060008114610a01576040519150601f19603f3d011682016040523d82523d6000602084013e610a06565b606091505b5090935091505b509850989650505050505050565b6000805481906001600160a01b0316336001600160a01b031614610a515760405162461bcd60e51b81526004016102fc90610d74565b50506001600160a01b0316600090815260016020819052604090912080549101549091565b600080546001600160a01b0316336001600160a01b031614610aaa5760405162461bcd60e51b81526004016102fc90610d74565b60405163a9059cbb60e01b81526001600160a01b0384811660048301526024820184905285169063a9059cbb90604401610682565b6000805481906001600160a01b0316336001600160a01b031614610b155760405162461bcd60e51b81526004016102fc90610d74565b50506001600160a01b0316600090815260026020526040902080546001909101549091565b6000610b468284610e03565b9392505050565b6000610b468284610e16565b6001600160a01b0381168114610b6e57600080fd5b50565b600060208284031215610b8357600080fd5b8135610b4681610b59565b600080600060608486031215610ba357600080fd5b8335610bae81610b59565b95602085013595506040909401359392505050565b60008060408385031215610bd657600080fd5b8235610be181610b59565b946020939093013593505050565b600080600060608486031215610c0457600080fd5b8335610c0f81610b59565b92506020840135610c1f81610b59565b929592945050506040919091013590565b8015158114610b6e57600080fd5b8035610c4981610c30565b919050565b60008060008060008060008060e0898b031215610c6a57600080fd5b8835610c7581610b59565b97506020890135610c8581610b59565b96506040890135610c9581610b59565b9550606089013594506080890135935060a089013567ffffffffffffffff80821115610cc057600080fd5b818b0191508b601f830112610cd457600080fd5b813581811115610ce357600080fd5b8c6020828501011115610cf557600080fd5b602083019550809450505050610d0d60c08a01610c3e565b90509295985092959890939650565b821515815260006020604081840152835180604085015260005b81811015610d5257858101830151858201606001528201610d36565b506000606082860101526060601f19601f830116850101925050509392505050565b6020808252602c908201527f5365636f6e646172793a2063616c6c6572206973206e6f74207468652070726960408201526b1b585c9e481858d8dbdd5b9d60a21b606082015260800190565b600060208284031215610dd257600080fd5b8151610b4681610c30565b8183823760009101908152919050565b634e487b7160e01b600052601160045260246000fd5b8082018082111561061757610617610ded565b8181038181111561061757610617610ded56fea2646970667358221220fdef1e1799888f44d7387dac26f5b02fc9717cb47973ca91a1c57977ab37c83a64736f6c63430008120033a26469706673582212203ce85e091e0a9f05470f697756a2bd62c3c40db45f40f45bc10b275988a8271564736f6c63430008120033",
  "linkReferences": {},
  "deployedLinkReferences": {}
}