{
  "_format": "hh-sol-artifact-1",
  "contractName": "Crowdfunding",
  "sourceName": "contracts/Crowdfunding.sol",
  "abi": [
    {
      "inputs": [
        {
          "internalType": "address",
          "name": "_factory",
          "type": "address"
        },
        {
          "internalType": "address",
          "name": "_founder",
          "type": "address"
        },
        {
          "internalType": "string",
          "name": "_name",
          "type": "string"
        },
        {
          "internalType": "string",
          "name": "_version",
          "type": "string"
        }
      ],
      "stateMutability": "nonpayable",
      "type": "constructor"
    },
    {
      "inputs": [],
      "name": "AddLiquidityFailed",
      "type": "error"
    },
    {
      "inputs": [],
      "name": "AmountExceedsMaximum",
      "type": "error"
    },
    {
      "inputs": [],
      "name": "AmountLTMinimum",
      "type": "error"
    },
    {
      "inputs": [],
      "name": "Canceled",
      "type": "error"
    },
    {
      "inputs": [],
      "name": "HandleFeeError",
      "type": "error"
    },
    {
      "inputs": [],
      "name": "HasEnded",
      "type": "error"
    },
    {
      "inputs": [],
      "name": "HasStarted",
      "type": "error"
    },
    {
      "inputs": [],
      "name": "NotStarted",
      "type": "error"
    },
    {
      "inputs": [],
      "name": "PriceIsMismatch",
      "type": "error"
    },
    {
      "inputs": [],
      "name": "RefundBuyTokenFailed",
      "type": "error"
    },
    {
      "inputs": [],
      "name": "RefundSellTokenFailed",
      "type": "error"
    },
    {
      "inputs": [],
      "name": "StatusIsEnded",
      "type": "error"
    },
    {
      "inputs": [
        {
          "internalType": "string",
          "name": "_type",
          "type": "string"
        }
      ],
      "name": "TokenAllowanceInsufficient",
      "type": "error"
    },
    {
      "inputs": [
        {
          "internalType": "string",
          "name": "_type",
          "type": "string"
        }
      ],
      "name": "TokenBalanceInsufficient",
      "type": "error"
    },
    {
      "inputs": [
        {
          "internalType": "string",
          "name": "_type",
          "type": "string"
        }
      ],
      "name": "Transfer",
      "type": "error"
    },
    {
      "inputs": [
        {
          "internalType": "string",
          "name": "_type",
          "type": "string"
        }
      ],
      "name": "TransferLiquidity",
      "type": "error"
    },
    {
      "inputs": [],
      "name": "TransferLiquiditySignatureVerificationFailed",
      "type": "error"
    },
    {
      "inputs": [],
      "name": "ZeroAmount",
      "type": "error"
    },
    {
      "anonymous": false,
      "inputs": [
        {
          "indexed": false,
          "internalType": "address",
          "name": "caller",
          "type": "address"
        },
        {
          "indexed": false,
          "internalType": "uint256",
          "name": "buyAmount",
          "type": "uint256"
        },
        {
          "indexed": false,
          "internalType": "uint256",
          "name": "sellAmount",
          "type": "uint256"
        },
        {
          "indexed": false,
          "internalType": "uint256",
          "name": "buyTokenBalance",
          "type": "uint256"
        },
        {
          "indexed": false,
          "internalType": "uint256",
          "name": "sellTokenBalance",
          "type": "uint256"
        },
        {
          "indexed": false,
          "internalType": "uint256",
          "name": "swapPoolBalance",
          "type": "uint256"
        },
        {
          "indexed": false,
          "internalType": "uint256",
          "name": "_timestamp",
          "type": "uint256"
        }
      ],
      "name": "Buy",
      "type": "event"
    },
    {
      "anonymous": false,
      "inputs": [
        {
          "indexed": false,
          "internalType": "address",
          "name": "caller",
          "type": "address"
        },
        {
          "indexed": false,
          "internalType": "enum Crowdfunding.Status",
          "name": "status",
          "type": "uint8"
        }
      ],
      "name": "Cancel",
      "type": "event"
    },
    {
      "anonymous": false,
      "inputs": [
        {
          "indexed": false,
          "internalType": "address",
          "name": "owner",
          "type": "address"
        },
        {
          "indexed": false,
          "internalType": "address",
          "name": "factory",
          "type": "address"
        },
        {
          "indexed": false,
          "internalType": "address",
          "name": "founder",
          "type": "address"
        },
        {
          "indexed": false,
          "internalType": "uint256",
          "name": "deposit",
          "type": "uint256"
        },
        {
          "components": [
            {
              "internalType": "address",
              "name": "sellTokenAddress",
              "type": "address"
            },
            {
              "internalType": "address",
              "name": "buyTokenAddress",
              "type": "address"
            },
            {
              "internalType": "uint8",
              "name": "sellTokenDecimals",
              "type": "uint8"
            },
            {
              "internalType": "uint8",
              "name": "buyTokenDecimals",
              "type": "uint8"
            },
            {
              "internalType": "bool",
              "name": "buyTokenIsNative",
              "type": "bool"
            },
            {
              "internalType": "uint256",
              "name": "raiseTotal",
              "type": "uint256"
            },
            {
              "internalType": "uint256",
              "name": "buyPrice",
              "type": "uint256"
            },
            {
              "internalType": "uint16",
              "name": "swapPercent",
              "type": "uint16"
            },
            {
              "internalType": "uint16",
              "name": "sellTax",
              "type": "uint16"
            },
            {
              "internalType": "uint256",
              "name": "maxBuyAmount",
              "type": "uint256"
            },
            {
              "internalType": "uint256",
              "name": "minBuyAmount",
              "type": "uint256"
            },
            {
              "internalType": "uint16",
              "name": "maxSellPercent",
              "type": "uint16"
            },
            {
              "internalType": "address",
              "name": "teamWallet",
              "type": "address"
            },
            {
              "internalType": "uint256",
              "name": "startTime",
              "type": "uint256"
            },
            {
              "internalType": "uint256",
              "name": "endTime",
              "type": "uint256"
            },
            {
              "internalType": "address",
              "name": "router",
              "type": "address"
            },
            {
              "internalType": "uint256",
              "name": "dexInitPrice",
              "type": "uint256"
            }
          ],
          "indexed": false,
          "internalType": "struct Parameters",
          "name": "paras",
          "type": "tuple"
        }
      ],
      "name": "Created",
      "type": "event"
    },
    {
      "anonymous": false,
      "inputs": [
        {
          "indexed": true,
          "internalType": "address",
          "name": "previousOwner",
          "type": "address"
        },
        {
          "indexed": true,
          "internalType": "address",
          "name": "newOwner",
          "type": "address"
        }
      ],
      "name": "OwnershipTransferred",
      "type": "event"
    },
    {
      "anonymous": false,
      "inputs": [
        {
          "indexed": false,
          "internalType": "address",
          "name": "sender",
          "type": "address"
        },
        {
          "indexed": false,
          "internalType": "string",
          "name": "func",
          "type": "string"
        }
      ],
      "name": "Receive",
      "type": "event"
    },
    {
      "anonymous": false,
      "inputs": [
        {
          "indexed": false,
          "internalType": "address",
          "name": "caller",
          "type": "address"
        },
        {
          "indexed": false,
          "internalType": "enum Crowdfunding.Status",
          "name": "status",
          "type": "uint8"
        }
      ],
      "name": "Remove",
      "type": "event"
    },
    {
      "anonymous": false,
      "inputs": [
        {
          "indexed": false,
          "internalType": "address",
          "name": "caller",
          "type": "address"
        },
        {
          "indexed": false,
          "internalType": "uint256",
          "name": "buyAmount",
          "type": "uint256"
        },
        {
          "indexed": false,
          "internalType": "uint256",
          "name": "sellAmount",
          "type": "uint256"
        },
        {
          "indexed": false,
          "internalType": "uint256",
          "name": "buyTokenBalance",
          "type": "uint256"
        },
        {
          "indexed": false,
          "internalType": "uint256",
          "name": "sellTokenBalance",
          "type": "uint256"
        },
        {
          "indexed": false,
          "internalType": "uint256",
          "name": "swapPoolBalance",
          "type": "uint256"
        },
        {
          "indexed": false,
          "internalType": "uint256",
          "name": "_timestamp",
          "type": "uint256"
        }
      ],
      "name": "Sell",
      "type": "event"
    },
    {
      "anonymous": false,
      "inputs": [
        {
          "indexed": false,
          "internalType": "address",
          "name": "caller",
          "type": "address"
        },
        {
          "indexed": false,
          "internalType": "enum Crowdfunding.Status",
          "name": "status",
          "type": "uint8"
        },
        {
          "indexed": false,
          "internalType": "bytes",
          "name": "data",
          "type": "bytes"
        }
      ],
      "name": "TransferToLiquidity",
      "type": "event"
    },
    {
      "anonymous": false,
      "inputs": [
        {
          "indexed": false,
          "internalType": "address",
          "name": "caller",
          "type": "address"
        },
        {
          "indexed": false,
          "internalType": "uint256",
          "name": "endTime",
          "type": "uint256"
        }
      ],
      "name": "UpdateParas",
      "type": "event"
    },
    {
      "inputs": [
        {
          "internalType": "uint256",
          "name": "_buyAmount",
          "type": "uint256"
        },
        {
          "internalType": "uint256",
          "name": "_sellAmount",
          "type": "uint256"
        }
      ],
      "name": "buy",
      "outputs": [
        {
          "internalType": "bool",
          "name": "",
          "type": "bool"
        }
      ],
      "stateMutability": "payable",
      "type": "function"
    },
    {
      "inputs": [],
      "name": "cancel",
      "outputs": [],
      "stateMutability": "nonpayable",
      "type": "function"
    },
    {
      "inputs": [],
      "name": "deposit",
      "outputs": [
        {
          "internalType": "uint256",
          "name": "_depositAmount",
          "type": "uint256"
        }
      ],
      "stateMutability": "view",
      "type": "function"
    },
    {
      "inputs": [],
      "name": "getStore",
      "outputs": [
        {
          "internalType": "address",
          "name": "",
          "type": "address"
        }
      ],
      "stateMutability": "view",
      "type": "function"
    },
    {
      "inputs": [
        {
          "components": [
            {
              "internalType": "address",
              "name": "sellTokenAddress",
              "type": "address"
            },
            {
              "internalType": "address",
              "name": "buyTokenAddress",
              "type": "address"
            },
            {
              "internalType": "uint8",
              "name": "sellTokenDecimals",
              "type": "uint8"
            },
            {
              "internalType": "uint8",
              "name": "buyTokenDecimals",
              "type": "uint8"
            },
            {
              "internalType": "bool",
              "name": "buyTokenIsNative",
              "type": "bool"
            },
            {
              "internalType": "uint256",
              "name": "raiseTotal",
              "type": "uint256"
            },
            {
              "internalType": "uint256",
              "name": "buyPrice",
              "type": "uint256"
            },
            {
              "internalType": "uint16",
              "name": "swapPercent",
              "type": "uint16"
            },
            {
              "internalType": "uint16",
              "name": "sellTax",
              "type": "uint16"
            },
            {
              "internalType": "uint256",
              "name": "maxBuyAmount",
              "type": "uint256"
            },
            {
              "internalType": "uint256",
              "name": "minBuyAmount",
              "type": "uint256"
            },
            {
              "internalType": "uint16",
              "name": "maxSellPercent",
              "type": "uint16"
            },
            {
              "internalType": "address",
              "name": "teamWallet",
              "type": "address"
            },
            {
              "internalType": "uint256",
              "name": "startTime",
              "type": "uint256"
            },
            {
              "internalType": "uint256",
              "name": "endTime",
              "type": "uint256"
            },
            {
              "internalType": "address",
              "name": "router",
              "type": "address"
            },
            {
              "internalType": "uint256",
              "name": "dexInitPrice",
              "type": "uint256"
            }
          ],
          "internalType": "struct Parameters",
          "name": "_parameters",
          "type": "tuple"
        }
      ],
      "name": "init",
      "outputs": [],
      "stateMutability": "payable",
      "type": "function"
    },
    {
      "inputs": [],
      "name": "maxBuyAmount",
      "outputs": [
        {
          "internalType": "uint256",
          "name": "_buyAmount",
          "type": "uint256"
        },
        {
          "internalType": "uint256",
          "name": "_sellAmount",
          "type": "uint256"
        }
      ],
      "stateMutability": "view",
      "type": "function"
    },
    {
      "inputs": [],
      "name": "maxSellAmount",
      "outputs": [
        {
          "internalType": "uint256",
          "name": "_buyAmount",
          "type": "uint256"
        },
        {
          "internalType": "uint256",
          "name": "_sellAmount",
          "type": "uint256"
        }
      ],
      "stateMutability": "view",
      "type": "function"
    },
    {
      "inputs": [],
      "name": "owner",
      "outputs": [
        {
          "internalType": "address",
          "name": "",
          "type": "address"
        }
      ],
      "stateMutability": "view",
      "type": "function"
    },
    {
      "inputs": [],
      "name": "parameters",
      "outputs": [
        {
          "internalType": "address",
          "name": "_sellTokenAddress",
          "type": "address"
        },
        {
          "internalType": "address",
          "name": "_buyTokenAddress",
          "type": "address"
        },
        {
          "internalType": "uint8",
          "name": "_buyTokenDecimals",
          "type": "uint8"
        },
        {
          "internalType": "uint256",
          "name": "_buyPrice",
          "type": "uint256"
        },
        {
          "internalType": "uint16",
          "name": "_swapPercent",
          "type": "uint16"
        },
        {
          "internalType": "uint256",
          "name": "_maxBuyAmount",
          "type": "uint256"
        },
        {
          "internalType": "uint256",
          "name": "_minBuyAmount",
          "type": "uint256"
        },
        {
          "internalType": "uint16",
          "name": "_maxSellPercent",
          "type": "uint16"
        },
        {
          "internalType": "uint256",
          "name": "_dexInitPrice",
          "type": "uint256"
        }
      ],
      "stateMutability": "view",
      "type": "function"
    },
    {
      "inputs": [],
      "name": "remove",
      "outputs": [],
      "stateMutability": "nonpayable",
      "type": "function"
    },
    {
      "inputs": [],
      "name": "renounceOwnership",
      "outputs": [],
      "stateMutability": "nonpayable",
      "type": "function"
    },
    {
      "inputs": [
        {
          "internalType": "uint256",
          "name": "_buyAmount",
          "type": "uint256"
        },
        {
          "internalType": "uint256",
          "name": "_sellAmount",
          "type": "uint256"
        }
      ],
      "name": "sell",
      "outputs": [
        {
          "internalType": "bool",
          "name": "",
          "type": "bool"
        }
      ],
      "stateMutability": "payable",
      "type": "function"
    },
    {
      "inputs": [],
      "name": "state",
      "outputs": [
        {
          "internalType": "uint256",
          "name": "_raiseTotal",
          "type": "uint256"
        },
        {
          "internalType": "uint256",
          "name": "_raiseAmount",
          "type": "uint256"
        },
        {
          "internalType": "uint256",
          "name": "_swapPoolAmount",
          "type": "uint256"
        },
        {
          "internalType": "uint256",
          "name": "_buyTokenBalance",
          "type": "uint256"
        },
        {
          "internalType": "uint256",
          "name": "_dexInitPrice",
          "type": "uint256"
        }
      ],
      "stateMutability": "view",
      "type": "function"
    },
    {
      "inputs": [
        {
          "internalType": "address",
          "name": "newOwner",
          "type": "address"
        }
      ],
      "name": "transferOwnership",
      "outputs": [],
      "stateMutability": "nonpayable",
      "type": "function"
    },
    {
      "inputs": [
        {
          "internalType": "address",
          "name": "newCrowdfunding",
          "type": "address"
        }
      ],
      "name": "transferPrimary",
      "outputs": [],
      "stateMutability": "nonpayable",
      "type": "function"
    },
    {
      "inputs": [
        {
          "internalType": "address payable",
          "name": "newStore",
          "type": "address"
        }
      ],
      "name": "transferStore",
      "outputs": [],
      "stateMutability": "nonpayable",
      "type": "function"
    },
    {
      "inputs": [
        {
          "internalType": "address",
          "name": "_router",
          "type": "address"
        },
        {
          "internalType": "uint256",
          "name": "_amountA",
          "type": "uint256"
        },
        {
          "internalType": "bytes",
          "name": "_data",
          "type": "bytes"
        },
        {
          "internalType": "bytes",
          "name": "_signature",
          "type": "bytes"
        }
      ],
      "name": "transferToLiquidity",
      "outputs": [
        {
          "internalType": "bool",
          "name": "success",
          "type": "bool"
        },
        {
          "internalType": "bytes",
          "name": "result",
          "type": "bytes"
        }
      ],
      "stateMutability": "payable",
      "type": "function"
    },
    {
      "inputs": [
        {
          "internalType": "uint256",
          "name": "_endTime",
          "type": "uint256"
        }
      ],
      "name": "updateParas",
      "outputs": [],
      "stateMutability": "nonpayable",
      "type": "function"
    },
    {
      "inputs": [],
      "name": "vaultAccount",
      "outputs": [
        {
          "internalType": "address",
          "name": "",
          "type": "address"
        }
      ],
      "stateMutability": "view",
      "type": "function"
    },
    {
      "stateMutability": "payable",
      "type": "receive"
    }
  ],
  "bytecode": "0x6101406040523480156200001257600080fd5b5060405162004c5338038062004c53833981016040819052620000359162000253565b8181620000423362000121565b815160209283012081519183019190912060e08290526101008190524660a0818152604080517f8b73c3c69bb8fe3d512ecc4cf759cc79239f7b179b0ffacaa9a75d522b39400f818801819052818301969096526060810194909452608080850193909352308483018190528151808603909301835260c094850190915281519190950120905282905261012052600580546001600160a01b03199081166001600160a01b03978816908117909255600680548216969097169590951790955560188054851690911790555050600480549091169091179055620002e3565b600080546001600160a01b038381166001600160a01b0319831681178455604051919092169283917f8be0079c531659141344cd1fd0a4f28419497f9722a3daafe3b4186f6b6457e09190a35050565b80516001600160a01b03811681146200018957600080fd5b919050565b634e487b7160e01b600052604160045260246000fd5b600082601f830112620001b657600080fd5b81516001600160401b0380821115620001d357620001d36200018e565b604051601f8301601f19908116603f01168101908282118183101715620001fe57620001fe6200018e565b816040528381526020925086838588010111156200021b57600080fd5b600091505b838210156200023f578582018301518183018401529082019062000220565b600093810190920192909252949350505050565b600080600080608085870312156200026a57600080fd5b620002758562000171565b9350620002856020860162000171565b60408601519093506001600160401b0380821115620002a357600080fd5b620002b188838901620001a4565b93506060870151915080821115620002c857600080fd5b50620002d787828801620001a4565b91505092959194509250565b60805160a05160c05160e0516101005161012051614920620003336000396000612c6c01526000612cae01526000612c8d01526000612bf101526000612c1b01526000612c4501526149206000f3fe6080604052600436106101185760003560e01c8063c216ff88116100a0578063d79875eb11610064578063d79875eb146103cb578063ea8a1af0146103de578063f2fde38b146103f3578063f4e759ef14610413578063f523e7751461042857600080fd5b8063c216ff8814610341578063c2722ecc14610362578063d0e30db014610377578063d13a267214610395578063d6febde8146103a857600080fd5b806389035730116100e757806389035730146101ef5780638da5cb5b1461029d578063a7f43779146102cf578063b305862b146102e4578063c19d93fb1461030457600080fd5b80632348238c1461017457806366d602ae14610196578063715018a6146101c557806388e765ff146101da57600080fd5b3661016f576040805133815260208101829052600781830152667265636569766560c81b606082015290517fd00ca3f088120b3d909c3a9e01be91e94a2b001aed9c25fe751c3c7a72dc49bf9181900360800190a1005b600080fd5b34801561018057600080fd5b5061019461018f366004613095565b610448565b005b3480156101a257600080fd5b506101ab6104dd565b604080519283526020830191909152015b60405180910390f35b3480156101d157600080fd5b506101946104f1565b3480156101e657600080fd5b506101ab61051d565b3480156101fb57600080fd5b50610240600c54600d54600f546010546011546012546013546017546001600160a01b039788169897871697600160a81b90970460ff169661ffff9586169590921691565b604080516001600160a01b039a8b1681529990981660208a015260ff90961696880196909652606087019390935261ffff918216608087015260a086015260c085019190915290911660e0830152610100820152610120016101bc565b3480156102a957600080fd5b506000546001600160a01b03165b6040516001600160a01b0390911681526020016101bc565b3480156102db57600080fd5b50610194610529565b3480156102f057600080fd5b506101946102ff3660046130b2565b6106b7565b34801561031057600080fd5b50610319610733565b604080519586526020860194909452928401919091526060830152608082015260a0016101bc565b61035461034f36600461310d565b6107ec565b6040516101bc9291906131e9565b34801561036e57600080fd5b506102b7610c7b565b34801561038357600080fd5b506008546040519081526020016101bc565b6101946103a3366004613291565b610cb6565b6103bb6103b63660046133a8565b611115565b60405190151581526020016101bc565b6103bb6103d93660046133a8565b611813565b3480156103ea57600080fd5b50610194611d9c565b3480156103ff57600080fd5b5061019461040e366004613095565b611e5e565b34801561041f57600080fd5b506102b7611ef9565b34801561043457600080fd5b50610194610443366004613095565b611f34565b6000546001600160a01b0316331461047b5760405162461bcd60e51b8152600401610472906133ca565b60405180910390fd5b6001546040516308d208e360e21b81526001600160a01b03838116600483015290911690632348238c90602401600060405180830381600087803b1580156104c257600080fd5b505af11580156104d6573d6000803e3d6000fd5b5050505050565b6000806104e933611f80565b915091509091565b6000546001600160a01b0316331461051b5760405162461bcd60e51b8152600401610472906133ca565b565b6000806104e9336120e3565b6000546001600160a01b031633146105535760405162461bcd60e51b8152600401610472906133ca565b61055b6121b7565b6105636121f5565b600061056d61227d565b11156105ed576016546001600160a01b0316156105c1576040516306b53bd360e11b81526020600482015260116024820152706f6e6c79206175746f206c697374696e6760781b6044820152606401610472565b60006105cb612318565b9050806105eb57604051636244afcf60e11b815260040160405180910390fd5b505b601354610608906201000090046001600160a01b0316612598565b6106255760405163a1b57be360e01b815260040160405180910390fd5b601354610640906201000090046001600160a01b0316612721565b61065d5760405163012e4d1960e61b815260040160405180910390fd5b6019805460ff60a01b1916600360a01b17908190556040517fc5b1926826a1a3d3516971a2579cab66ddfa770959e8c2f1d832386b262e2d86916106ad913391600160a01b900460ff1690613437565b60405180910390a1565b6000546001600160a01b031633146106e15760405162461bcd60e51b8152600401610472906133ca565b6106e96121b7565b6106f16127e6565b601581905560408051338152602081018390527f808c9d67d9bb9dd70b931d1346a5e2b1f750fc3eeb2d9770805038ab16c3028d91015b60405180910390a150565b601954600d5460009182918291829182916001600160a01b03163190600160b01b900460ff166107d0576003546019546040516370a0823160e01b81526001600160a01b0391821660048201529116906370a0823190602401602060405180830381865afa1580156107a9573d6000803e3d6000fd5b505050506040513d601f19601f820116820180604052508101906107cd9190613454565b90505b600e54600954600a546017549299919850965091945092509050565b600080546060906001600160a01b0316331461081a5760405162461bcd60e51b8152600401610472906133ca565b601954600160a81b900460ff16156108445760405162461bcd60e51b81526004016104729061346d565b6019805460ff60a81b1916600160a81b17905561085f6121b7565b6108676121f5565b6016546001600160a01b03166108b9576040516306b53bd360e11b81526020600482015260166024820152756e6f7420616c6c6f77206175746f206c697374696e6760501b6044820152606401610472565b6016546001600160a01b0389811691161461090d576040516306b53bd360e11b815260206004820152601360248201527224b731b7b739b4b9ba32b73a103937baba32b960691b6044820152606401610472565b60055460408051630b1d00df60e41b815290516001600160a01b039092169161099491839163b1d00df0916004808201926020929091908290030181865afa15801561095d573d6000803e3d6000fd5b505050506040513d601f19601f820116820180604052508101906109819190613495565b61098d8b8b8b8b612808565b878761286a565b156109b25760405163247d106d60e11b815260040160405180910390fd5b60006109bc612318565b9050806109dc57604051636244afcf60e11b815260040160405180910390fd5b60006109e661227d565b600d54909150600090610a1c90610a0890600160a81b900460ff16600a6135ac565b601754610a169085906128c9565b906128d5565b6002546019546040516370a0823160e01b81526001600160a01b03918216600482015292935016906370a0823190602401602060405180830381865afa158015610a6a573d6000803e3d6000fd5b505050506040513d601f19601f82011682018060405250810190610a8e9190613454565b811115610acb57604051638c2f4c6b60e01b815260206004820152600a60248201526939b2b636103a37b5b2b760b11b6044820152606401610472565b3660008b8b91509150600160009054906101000a90046001600160a01b03166001600160a01b031663e5a4dbf88f600260009054906101000a90046001600160a01b0316600360009054906101000a90046001600160a01b031687898888600c60010160169054906101000a900460ff166040518963ffffffff1660e01b8152600401610b5f9897969594939291906135e4565b6000604051808303816000875af1158015610b7e573d6000803e3d6000fd5b505050506040513d6000823e601f3d908101601f19168201604052610ba6919081019061363e565b909850965087610bc957604051637a4c140d60e11b815260040160405180910390fd5b601354610be4906201000090046001600160a01b0316612721565b610c015760405163012e4d1960e61b815260040160405180910390fd5b6019805460ff60a01b1916600360a01b17908190556040517fab3f2147088482db1a84b21889cc70b0e5ac5a0a34b9217f12cfc1861a9c3cef91610c53913391600160a01b900460ff16908b90613701565b60405180910390a15050505050506019805460ff60a81b191690559097909650945050505050565b600080546001600160a01b03163314610ca65760405162461bcd60e51b8152600401610472906133ca565b506001546001600160a01b031690565b6000546001600160a01b03163314610ce05760405162461bcd60e51b8152600401610472906133ca565b6001546001600160a01b031615610d2d5760405162461bcd60e51b815260206004820152601160248201527053746f7265206973206e6f74207a65726f60781b6044820152606401610472565b604051610d3990613063565b604051809103906000f080158015610d55573d6000803e3d6000fd5b50600180546001600160a01b03199081166001600160a01b039384169081179092556019805482169092179091558251600c805483169184169190911790556020830151600d80546040860151606087015160808801519487166001600160a81b031990931692909217600160a01b60ff928316021761ffff60a81b1916600160a81b919092160260ff60b01b191617600160b01b9215159290920291909117905560a0830151600e5560c0830151600f5560e08301516010805461010086015161ffff93841663ffffffff19909216919091176201000091841682021790915561012085015160115561014085015160125561016085015160138054610180880151929094166001600160b01b0319909416939093179085169091021790556101a08301516014556101c08301516015556101e0830151601680549092169216919091179055610200810151601755610ead6128e1565b6019805460ff60a01b1916600160a01b836004811115610ecf57610ecf6133ff565b0217905550600c54600280546001600160a01b0319166001600160a01b0390921691821790556040805163313ce56760e01b8152905163313ce567916004808201926020929091908290030181865afa158015610f30573d6000803e3d6000fd5b505050506040513d601f19601f82011682018060405250810190610f549190613730565b600d805460ff92909216600160a01b0260ff60a01b1983168117909155600c546001600160a01b0391821692821692909217911603610fa657600d805461ffff60a81b1916608960a91b179055611052565b600d805460ff60b01b198116909155600380546001600160a01b0319166001600160a01b0390921691821790556040805163313ce56760e01b8152905163313ce567916004808201926020929091908290030181865afa15801561100e573d6000803e3d6000fd5b505050506040513d601f19601f820116820180604052508101906110329190613730565b600d805460ff92909216600160a81b0260ff60a81b199092169190911790555b600e54611060906000612909565b6007819055600b819055600d546110b792506110b19061108b90600160a81b900460ff16600a6135ac565b601754601054600e54610a16926127109284926110ab9161ffff166128c9565b906128c9565b9061298d565b6008557fa81af9f26c34c6997396d1d61be10b4cd9843035f372979270c7049cf0325b8a6110ed6000546001600160a01b031690565b60055460065460075460405161072894936001600160a01b0390811693169190600c9061374d565b600061111f6121b7565b611127612999565b601954600160a81b900460ff16156111515760405162461bcd60e51b81526004016104729061346d565b6019805460ff60a81b1916600160a81b17905561116e83836129bc565b60125483101561119157604051636226a2a560e01b815260040160405180910390fd5b61119b3384612a10565b6111b8576040516311b5c73d60e21b815260040160405180910390fd5b6002546019546040516370a0823160e01b81526001600160a01b039182166004820152849291909116906370a0823190602401602060405180830381865afa158015611208573d6000803e3d6000fd5b505050506040513d601f19601f8201168201806040525081019061122c9190613454565b101561124b57604051638c2f4c6b60e01b815260040161047290613869565b600061125684612a28565b600d54909150600160b01b900460ff16156113ae578334146112b35760405162461bcd60e51b81526020600482015260166024820152751b5cd9cb9d985b1d59481a5cc81b9bdd081d985b1a5960521b6044820152606401610472565b6019546040516000916001600160a01b03169083908381818185875af1925050503d8060008114611300576040519150601f19603f3d011682016040523d82523d6000602084013e611305565b606091505b505090508061132757604051633e75f72760e11b815260040161047290613887565b6013546201000090046001600160a01b03166113433484612a4a565b604051600081818185875af1925050503d806000811461137f576040519150601f19603f3d011682016040523d82523d6000602084013e611384565b606091505b505080915050806113a857604051633e75f72760e11b815260040161047290613887565b50611615565b600354601854604051636eb1769f60e11b81523360048201526001600160a01b0391821660248201528692919091169063dd62ed3e90604401602060405180830381865afa158015611404573d6000803e3d6000fd5b505050506040513d601f19601f820116820180604052508101906114289190613454565b101561144757604051630b29193560e31b815260040161047290613887565b6003546040516370a0823160e01b815233600482015285916001600160a01b0316906370a0823190602401602060405180830381865afa15801561148f573d6000803e3d6000fd5b505050506040513d601f19601f820116820180604052508101906114b39190613454565b10156114d257604051638c2f4c6b60e01b815260040161047290613887565b6003546019546040516323b872dd60e01b81526001600160a01b03928316926323b872dd9261150b9233929091169086906004016138a4565b6020604051808303816000875af115801561152a573d6000803e3d6000fd5b505050506040513d601f19601f8201168201806040525081019061154e91906138c8565b61156b57604051633e75f72760e11b815260040161047290613887565b6003546013546001600160a01b03918216916323b872dd91339162010000909104166115978886612a4a565b6040518463ffffffff1660e01b81526004016115b5939291906138a4565b6020604051808303816000875af11580156115d4573d6000803e3d6000fd5b505050506040513d601f19601f820116820180604052508101906115f891906138c8565b61161557604051633e75f72760e11b815260040161047290613887565b600154600254604051637aa9bf6f60e11b81526001600160a01b039283169263f5537ede9261164d92911690339088906004016138a4565b6020604051808303816000875af115801561166c573d6000803e3d6000fd5b505050506040513d601f19601f8201168201806040525081019061169091906138c8565b6116ad57604051633e75f72760e11b815260040161047290613869565b6009546116ba908561298d565b600955600b546116ca9084612a4a565b600b55600a546116da908261298d565b600a55600154604051636aa05ee360e01b815233600482015260248101869052604481018590526001600160a01b0390911690636aa05ee390606401600060405180830381600087803b15801561173057600080fd5b505af1158015611744573d6000803e3d6000fd5b50506001546040516379da956560e01b815233600482015260248101889052604481018790526001600160a01b0390911692506379da95659150606401600060405180830381600087803b15801561179b57600080fd5b505af11580156117af573d6000803e3d6000fd5b505050507f2c5cc05b9a7b53e2478a9af1c94ec079b5be7c669be3df98ad86d28237f689e7338585600954600b54600a54426040516117f497969594939291906138e5565b60405180910390a150506019805460ff60a81b19169055506001919050565b600061181d6121b7565b611825612999565b601954600160a81b900460ff161561184f5760405162461bcd60e51b81526004016104729061346d565b6019805460ff60a81b1916600160a81b17905561186c83836129bc565b6118763383612a56565b611893576040516311b5c73d60e21b815260040160405180910390fd5b600061189e84612a6e565b9050806118a961227d565b10156118c857604051638c2f4c6b60e01b815260040161047290613887565b600254601854604051636eb1769f60e11b81523360048201526001600160a01b0391821660248201528592919091169063dd62ed3e90604401602060405180830381865afa15801561191e573d6000803e3d6000fd5b505050506040513d601f19601f820116820180604052508101906119429190613454565b101561197e57604051630b29193560e31b815260206004820152600a60248201526929b2b636103a37b5b2b760b11b6044820152606401610472565b6002546040516370a0823160e01b815233600482015284916001600160a01b0316906370a0823190602401602060405180830381865afa1580156119c6573d6000803e3d6000fd5b505050506040513d601f19601f820116820180604052508101906119ea9190613454565b1015611a2657604051638c2f4c6b60e01b815260206004820152600a60248201526929b2b636103a37b5b2b760b11b6044820152606401610472565b6002546019546040516323b872dd60e01b81526001600160a01b03928316926323b872dd92611a5f9233929091169088906004016138a4565b6020604051808303816000875af1158015611a7e573d6000803e3d6000fd5b505050506040513d601f19601f82011682018060405250810190611aa291906138c8565b611abf57604051633e75f72760e11b815260040161047290613869565b600d54600160b01b900460ff1615611b95576019546001600160a01b031631811115611afe57604051630b29193560e31b815260040161047290613920565b60015460405163a9059cbb60e01b8152336004820152602481018390526001600160a01b039091169063a9059cbb906044016020604051808303816000875af1158015611b4f573d6000803e3d6000fd5b505050506040513d601f19601f82011682018060405250810190611b7391906138c8565b611b9057604051633e75f72760e11b815260040161047290613920565b611cc0565b6003546019546040516370a0823160e01b81526001600160a01b039182166004820152839291909116906370a0823190602401602060405180830381865afa158015611be5573d6000803e3d6000fd5b505050506040513d601f19601f82011682018060405250810190611c099190613454565b1015611c2857604051630b29193560e31b815260040161047290613920565b600154600354604051637aa9bf6f60e11b81526001600160a01b039283169263f5537ede92611c6092911690339086906004016138a4565b6020604051808303816000875af1158015611c7f573d6000803e3d6000fd5b505050506040513d601f19601f82011682018060405250810190611ca391906138c8565b611cc057604051633e75f72760e11b815260040161047290613920565b600954611ccd9085612a4a565b600955600b54611cdd908461298d565b600b55600a54611ced9082612a4a565b600a5560015460405163e32fca3f60e01b815233600482015260248101869052604481018590526001600160a01b039091169063e32fca3f90606401600060405180830381600087803b158015611d4357600080fd5b505af1158015611d57573d6000803e3d6000fd5b505050507fe771a8c700d0802cd276270eb0596a1aead6f28237a9e5f26e00ccf08dad7033338585600954600b54600a54426040516117f497969594939291906138e5565b6000546001600160a01b03163314611dc65760405162461bcd60e51b8152600401610472906133ca565b611dce6121b7565b611dd6612aa1565b601354611df1906201000090046001600160a01b0316612721565b611e0e5760405163012e4d1960e61b815260040160405180910390fd5b6019805460ff60a01b1916600160a21b17908190556040517fcd8e02743d921fb9bca767936271b8b93911716c78c1d46c2c6ee6189309d30c916106ad913391600160a01b900460ff1690613437565b6000546001600160a01b03163314611e885760405162461bcd60e51b8152600401610472906133ca565b6001600160a01b038116611eed5760405162461bcd60e51b815260206004820152602660248201527f4f776e61626c653a206e6577206f776e657220697320746865207a65726f206160448201526564647265737360d01b6064820152608401610472565b611ef681612ac3565b50565b600080546001600160a01b03163314611f245760405162461bcd60e51b8152600401610472906133ca565b506019546001600160a01b031690565b6000546001600160a01b03163314611f5e5760405162461bcd60e51b8152600401610472906133ca565b600180546001600160a01b0319166001600160a01b0392909216919091179055565b600154604051631d76db5b60e31b81526001600160a01b038381166004830152600092839283929091169063ebb6dad8906024016040805180830381865afa158015611fd0573d6000803e3d6000fd5b505050506040513d601f19601f82011682018060405250810190611ff49190613943565b60015460405163f5a7976760e01b81526001600160a01b0388811660048301529294506000935091169063f5a79767906024016040805180830381865afa158015612043573d6000803e3d6000fd5b505050506040513d601f19601f820116820180604052508101906120679190613943565b601354909250600091506120ae906120a89085906120a290612710906120919061ffff1684613967565b61209b919061397e565b869061298d565b90612a4a565b83612b13565b905060006120bf600a546000612909565b9150506120d660006120d18484612b13565b612909565b9550955050505050915091565b60015460405163f5a7976760e01b81526001600160a01b038381166004830152600092839283929091169063f5a79767906024016040805180830381865afa158015612133573d6000803e3d6000fd5b505050506040513d601f19601f820116820180604052508101906121579190613943565b506011549091506000906121839061216f9084612a4a565b600954600e5461217e91612a4a565b612b13565b905060006121946000600b54612909565b5090506121ab6121a48383612b13565b6000612909565b94509450505050915091565b6004601954600160a01b900460ff1660048111156121d7576121d76133ff565b0361051b57604051631afb0ae560e01b815260040160405180910390fd5b6015544211806122095750600e5460095410155b61223f5760405162461bcd60e51b81526020600482015260076024820152664552523a204e4560c81b6044820152606401610472565b6003601954600160a01b900460ff16600481111561225f5761225f6133ff565b0361051b57604051631a48f37b60e21b815260040160405180910390fd5b600d54600090600160b01b900460ff16156122a357506019546001600160a01b03163190565b6003546019546040516370a0823160e01b81526001600160a01b0391821660048201529116906370a0823190602401602060405180830381865afa1580156122ef573d6000803e3d6000fd5b505050506040513d601f19601f820116820180604052508101906123139190613454565b905090565b6000806123a8612710610a16600460009054906101000a90046001600160a01b03166001600160a01b031663ddca3f436040518163ffffffff1660e01b8152600401602060405180830381865afa158015612377573d6000803e3d6000fd5b505050506040513d601f19601f8201168201806040525081019061239b91906139a0565b62ffffff166110ab61227d565b600d54909150600090600160b01b900460ff16156124b0576001546004805460408051622fcfcb60e31b815290516001600160a01b039485169463a9059cbb9493169263017e7e58928082019260209290918290030181865afa158015612413573d6000803e3d6000fd5b505050506040513d601f19601f820116820180604052508101906124379190613495565b6040516001600160e01b031960e084901b1681526001600160a01b039091166004820152602481018590526044015b6020604051808303816000875af1158015612485573d6000803e3d6000fd5b505050506040513d601f19601f820116820180604052508101906124a991906138c8565b9050612592565b6001546003546004805460408051622fcfcb60e31b815290516001600160a01b039586169563f5537ede9581169493169263017e7e58928082019260209290918290030181865afa158015612509573d6000803e3d6000fd5b505050506040513d601f19601f8201168201806040525081019061252d9190613495565b856040518463ffffffff1660e01b815260040161254c939291906138a4565b6020604051808303816000875af115801561256b573d6000803e3d6000fd5b505050506040513d601f19601f8201168201806040525081019061258f91906138c8565b90505b92915050565b600d54600090600190600160b01b900460ff1615612604576019546001600160a01b031631156125ff5760015460195460405163a9059cbb60e01b81526001600160a01b03868116600483015291821631602482015291169063a9059cbb90604401612466565b612592565b6003546019546040516370a0823160e01b81526001600160a01b03918216600482015260009291909116906370a0823190602401602060405180830381865afa158015612655573d6000803e3d6000fd5b505050506040513d601f19601f820116820180604052508101906126799190613454565b1115612592576001546003546019546040516370a0823160e01b81526001600160a01b0391821660048201529281169263f5537ede929190911690869082906370a08231906024015b602060405180830381865afa1580156126df573d6000803e3d6000fd5b505050506040513d601f19601f820116820180604052508101906127039190613454565b6040518463ffffffff1660e01b815260040161254c939291906138a4565b6002546019546040516370a0823160e01b81526001600160a01b03918216600482015260009260019284929116906370a0823190602401602060405180830381865afa158015612775573d6000803e3d6000fd5b505050506040513d601f19601f820116820180604052508101906127999190613454565b1115612592576001546002546019546040516370a0823160e01b81526001600160a01b0391821660048201529281169263f5537ede929190911690869082906370a08231906024016126c2565b60155442111561051b576040516265dca760e51b815260040160405180910390fd5b60006128617f08523daf28ee17754671f39f9958942c4717267760901eea3e6ffd35005a72ea858786866040516020016128469594939291906139c5565b60405160208183030381529060405280519060200120612b29565b95945050505050565b6000846001600160a01b03166128b68585858080601f016020809104026020016040519081016040528093929190818152602001838380828437600092019190915250612b7792505050565b6001600160a01b03161495945050505050565b600061258f8284613967565b600061258f828461397e565b6014546000904210156128f45750600190565b60155442116129035750600290565b50600390565b600080831561294857600d546129419061292e90600160a81b900460ff16600a6135ac565b610a1661293a600f5490565b87906128c9565b9250612980565b82156129805761297d61295a600f5490565b600d54610a169061297690600160a81b900460ff16600a6135ac565b86906128c9565b93505b50829050815b9250929050565b600061258f82846139fe565b6014544210156127e657604051636f312cbd60e01b815260040160405180910390fd5b8115806129c7575080155b156129e557604051631f2a200560e01b815260040160405180910390fd5b6129ef8282612b9b565b612a0c5760405163640dea9d60e11b815260040160405180910390fd5b5050565b600080612a1c846120e3565b50909211159392505050565b60105460009061271090612a409061ffff1684613967565b612592919061397e565b600061258f8284613a11565b600080612a6284611f80565b90931115949350505050565b6010546000906125929061271090612a909062010000900461ffff1685613967565b612a9a919061397e565b8390612a4a565b601454421061051b5760405163fc505be960e01b815260040160405180910390fd5b600080546001600160a01b038381166001600160a01b0319831681178455604051919092169283917f8be0079c531659141344cd1fd0a4f28419497f9722a3daafe3b4186f6b6457e09190a35050565b6000818310612b22578161258f565b5090919050565b6000612592612b36612be4565b8360405161190160f01b6020820152602281018390526042810182905260009060620160405160208183030381529060405280519060200120905092915050565b6000806000612b868585612cd2565b91509150612b9381612d3d565b509392505050565b600080612ba9846000612909565b9150506000612bb9600085612909565b50905084811480612bc957508382145b15612bd957600192505050612592565b506000949350505050565b6000306001600160a01b037f000000000000000000000000000000000000000000000000000000000000000016148015612c3d57507f000000000000000000000000000000000000000000000000000000000000000046145b15612c6757507f000000000000000000000000000000000000000000000000000000000000000090565b6123137f00000000000000000000000000000000000000000000000000000000000000007f00000000000000000000000000000000000000000000000000000000000000007f0000000000000000000000000000000000000000000000000000000000000000612ef3565b6000808251604103612d085760208301516040840151606085015160001a612cfc87828585612f3d565b94509450505050612986565b8251604003612d315760208301516040840151612d2686838361302a565b935093505050612986565b50600090506002612986565b6000816004811115612d5157612d516133ff565b03612d595750565b6001816004811115612d6d57612d6d6133ff565b03612dba5760405162461bcd60e51b815260206004820152601860248201527f45434453413a20696e76616c6964207369676e617475726500000000000000006044820152606401610472565b6002816004811115612dce57612dce6133ff565b03612e1b5760405162461bcd60e51b815260206004820152601f60248201527f45434453413a20696e76616c6964207369676e6174757265206c656e677468006044820152606401610472565b6003816004811115612e2f57612e2f6133ff565b03612e875760405162461bcd60e51b815260206004820152602260248201527f45434453413a20696e76616c6964207369676e6174757265202773272076616c604482015261756560f01b6064820152608401610472565b6004816004811115612e9b57612e9b6133ff565b03611ef65760405162461bcd60e51b815260206004820152602260248201527f45434453413a20696e76616c6964207369676e6174757265202776272076616c604482015261756560f01b6064820152608401610472565b6040805160208101859052908101839052606081018290524660808201523060a082015260009060c0016040516020818303038152906040528051906020012090505b9392505050565b6000807f7fffffffffffffffffffffffffffffff5d576e7357a4501ddfe92f46681b20a0831115612f745750600090506003613021565b8460ff16601b14158015612f8c57508460ff16601c14155b15612f9d5750600090506004613021565b6040805160008082526020820180845289905260ff881692820192909252606081018690526080810185905260019060a0016020604051602081039080840390855afa158015612ff1573d6000803e3d6000fd5b5050604051601f1901519150506001600160a01b03811661301a57600060019250925050613021565b9150600090505b94509492505050565b6000806001600160ff1b0383168161304760ff86901c601b6139fe565b905061305587828885612f3d565b935093505050935093915050565b610ec680613a2583390190565b6001600160a01b0381168114611ef657600080fd5b803561309081613070565b919050565b6000602082840312156130a757600080fd5b8135612f3681613070565b6000602082840312156130c457600080fd5b5035919050565b60008083601f8401126130dd57600080fd5b50813567ffffffffffffffff8111156130f557600080fd5b60208301915083602082850101111561298657600080fd5b6000806000806000806080878903121561312657600080fd5b863561313181613070565b955060208701359450604087013567ffffffffffffffff8082111561315557600080fd5b6131618a838b016130cb565b9096509450606089013591508082111561317a57600080fd5b5061318789828a016130cb565b979a9699509497509295939492505050565b60005b838110156131b457818101518382015260200161319c565b50506000910152565b600081518084526131d5816020860160208601613199565b601f01601f19169290920160200192915050565b821515815260406020820152600061320460408301846131bd565b949350505050565b634e487b7160e01b600052604160045260246000fd5b604051610220810167ffffffffffffffff811182821017156132465761324661320c565b60405290565b60ff81168114611ef657600080fd5b80356130908161324c565b8015158114611ef657600080fd5b803561309081613266565b803561ffff8116811461309057600080fd5b600061022082840312156132a457600080fd5b6132ac613222565b6132b583613085565b81526132c360208401613085565b60208201526132d46040840161325b565b60408201526132e56060840161325b565b60608201526132f660808401613274565b608082015260a083013560a082015260c083013560c082015261331b60e0840161327f565b60e082015261010061332e81850161327f565b908201526101208381013590820152610140808401359082015261016061335681850161327f565b90820152610180613368848201613085565b908201526101a083810135908201526101c080840135908201526101e0613390818501613085565b90820152610200928301359281019290925250919050565b600080604083850312156133bb57600080fd5b50508035926020909101359150565b6020808252818101527f4f776e61626c653a2063616c6c6572206973206e6f7420746865206f776e6572604082015260600190565b634e487b7160e01b600052602160045260246000fd5b6005811061343357634e487b7160e01b600052602160045260246000fd5b9052565b6001600160a01b038316815260408101612f366020830184613415565b60006020828403121561346657600080fd5b5051919050565b6020808252600e908201526d4e6f2072652d656e7472616e637960901b604082015260600190565b6000602082840312156134a757600080fd5b8151612f3681613070565b634e487b7160e01b600052601160045260246000fd5b600181815b808511156135035781600019048211156134e9576134e96134b2565b808516156134f657918102915b93841c93908002906134cd565b509250929050565b60008261351a57506001612592565b8161352757506000612592565b816001811461353d576002811461354757613563565b6001915050612592565b60ff841115613558576135586134b2565b50506001821b612592565b5060208310610133831016604e8410600b8410161715613586575081810a612592565b61359083836134c8565b80600019048211156135a4576135a46134b2565b029392505050565b600061258f60ff84168361350b565b81835281816020850137506000828201602090810191909152601f909101601f19169091010190565b6001600160a01b038981168252888116602083015287166040820152606081018690526080810185905260e060a0820181905260009061362790830185876135bb565b905082151560c08301529998505050505050505050565b6000806040838503121561365157600080fd5b825161365c81613266565b602084015190925067ffffffffffffffff8082111561367a57600080fd5b818501915085601f83011261368e57600080fd5b8151818111156136a0576136a061320c565b604051601f8201601f19908116603f011681019083821181831017156136c8576136c861320c565b816040528281528860208487010111156136e157600080fd5b6136f2836020830160208801613199565b80955050505050509250929050565b6001600160a01b038416815261371a6020820184613415565b60606040820152600061286160608301846131bd565b60006020828403121561374257600080fd5b8151612f368161324c565b6001600160a01b03868116825285811660208301528481166040830152606082018490528254811660808301526102a082019060018401546001600160a01b038282161660a085015260a081901c60ff1660c085015260a881901c60ff1660e08501526137c5610100850160ff8360b01c1615159052565b5060028401546101208401526003840154610140840152600484015461ffff808216610160860152601091821c811661018086015260058601546101a086015260068601546101c086015260078601549081166101e0860152901c166001600160a01b0390811661020084015260088401546102208401526009840154610240840152600a84015416610260830152600b9092015461028090910152949350505050565b60208082526004908201526314d95b1b60e21b604082015260600190565b60208082526003908201526242757960e81b604082015260600190565b6001600160a01b039384168152919092166020820152604081019190915260600190565b6000602082840312156138da57600080fd5b8151612f3681613266565b6001600160a01b03979097168752602087019590955260408601939093526060850191909152608084015260a083015260c082015260e00190565b602080825260099082015268213abc903a37b5b2b760b91b604082015260600190565b6000806040838503121561395657600080fd5b505080516020909101519092909150565b8082028115828204841417612592576125926134b2565b60008261399b57634e487b7160e01b600052601260045260246000fd5b500490565b6000602082840312156139b257600080fd5b815162ffffff81168114612f3657600080fd5b85815284602082015260018060a01b03841660408201526080606082015260006139f36080830184866135bb565b979650505050505050565b80820180821115612592576125926134b2565b81810381811115612592576125926134b256fe608060405234801561001057600080fd5b50600080546001600160a01b0319163390811790915560408051918252517f4101e71e974f68df5e9730cc223280b41654676bbb052cdcc735c3337e64d2d99181900360200190a1610e5f806100676000396000f3fe6080604052600436106100ab5760003560e01c8063da3e339711610064578063da3e3397146101e6578063e32fca3f14610206578063e5a4dbf814610226578063ebb6dad814610254578063f5537ede14610289578063f5a79767146102a957600080fd5b80632348238c146101075780636aa05ee31461012957806379da956514610149578063a2ba266b14610169578063a9059cbb14610189578063c6dbdf61146101be57600080fd5b36610102576040805133815260208101829052600781830152667265636569766560c81b606082015290517fd00ca3f088120b3d909c3a9e01be91e94a2b001aed9c25fe751c3c7a72dc49bf9181900360800190a1005b600080fd5b34801561011357600080fd5b50610127610122366004610b71565b6102c9565b005b34801561013557600080fd5b50610127610144366004610b8e565b6103c2565b34801561015557600080fd5b50610127610164366004610b8e565b610467565b34801561017557600080fd5b50610127610184366004610b8e565b61050a565b34801561019557600080fd5b506101a96101a4366004610bc3565b61058a565b60405190151581526020015b60405180910390f35b3480156101ca57600080fd5b506000546040516001600160a01b0390911681526020016101b5565b3480156101f257600080fd5b506101a9610201366004610bef565b61061d565b34801561021257600080fd5b50610127610221366004610b8e565b6106cd565b34801561023257600080fd5b50610246610241366004610c4e565b61074c565b6040516101b5929190610d1c565b34801561026057600080fd5b5061027461026f366004610b71565b610a1b565b604080519283526020830191909152016101b5565b34801561029557600080fd5b506101a96102a4366004610bef565b610a76565b3480156102b557600080fd5b506102746102c4366004610b71565b610adf565b6000546001600160a01b0316336001600160a01b0316146103055760405162461bcd60e51b81526004016102fc90610d74565b60405180910390fd5b6001600160a01b03811661036e5760405162461bcd60e51b815260206004820152602a60248201527f5365636f6e646172793a206e6577207072696d61727920697320746865207a65604482015269726f206164647265737360b01b60648201526084016102fc565b600080546001600160a01b0319166001600160a01b0383169081179091556040519081527f4101e71e974f68df5e9730cc223280b41654676bbb052cdcc735c3337e64d2d99060200160405180910390a150565b6000546001600160a01b0316336001600160a01b0316146103f55760405162461bcd60e51b81526004016102fc90610d74565b6001600160a01b0383166000908152600160205260409020546104189083610b3a565b6001600160a01b038416600090815260016020819052604090912091825501546104429082610b3a565b6001600160a01b03909316600090815260016020819052604090912001929092555050565b6000546001600160a01b0316336001600160a01b03161461049a5760405162461bcd60e51b81526004016102fc90610d74565b6001600160a01b0383166000908152600260205260409020546104bd9083610b3a565b6001600160a01b0384166000908152600260205260409020908155600101546104e69082610b3a565b6001600160a01b039093166000908152600260205260409020600101929092555050565b6000546001600160a01b0316336001600160a01b03161461053d5760405162461bcd60e51b81526004016102fc90610d74565b6001600160a01b0383166000908152600160205260409020546105609083610b4d565b6001600160a01b038416600090815260016020819052604090912091825501546104429082610b4d565b600080546001600160a01b0316336001600160a01b0316146105be5760405162461bcd60e51b81526004016102fc90610d74565b6000836001600160a01b03168360405160006040518083038185875af1925050503d806000811461060b576040519150601f19603f3d011682016040523d82523d6000602084013e610610565b606091505b5090925050505b92915050565b600080546001600160a01b0316336001600160a01b0316146106515760405162461bcd60e51b81526004016102fc90610d74565b60405163095ea7b360e01b81526001600160a01b0384811660048301526024820184905285169063095ea7b3906044015b6020604051808303816000875af11580156106a1573d6000803e3d6000fd5b505050506040513d601f19601f820116820180604052508101906106c59190610dc0565b949350505050565b6000546001600160a01b0316336001600160a01b0316146107005760405162461bcd60e51b81526004016102fc90610d74565b6001600160a01b0383166000908152600260205260409020546107239083610b4d565b6001600160a01b0384166000908152600260205260409020908155600101546104e69082610b4d565b600080546060906001600160a01b0316336001600160a01b0316146107835760405162461bcd60e51b81526004016102fc90610d74565b60405163095ea7b360e01b81526001600160a01b038b8116600483015260248201899052600091908b169063095ea7b3906044016020604051808303816000875af11580156107d6573d6000803e3d6000fd5b505050506040513d601f19601f820116820180604052508101906107fa9190610dc0565b9050806108545760405162461bcd60e51b815260206004820152602260248201527f417070726f76652073656c6c20746f6b656e20746f20726f757465722065727260448201526137b960f11b60648201526084016102fc565b83156108c2578a6001600160a01b0316878787604051610875929190610ddd565b60006040518083038185875af1925050503d80600081146108b2576040519150601f19603f3d011682016040523d82523d6000602084013e6108b7565b606091505b509093509150610a0d565b60405163095ea7b360e01b81526001600160a01b038c81166004830152602482018990528a169063095ea7b3906044016020604051808303816000875af1158015610911573d6000803e3d6000fd5b505050506040513d601f19601f820116820180604052508101906109359190610dc0565b9050806109aa5760405162461bcd60e51b815260206004820152603b60248201527f416e206572726f72206f63637572726564207768696c652073656e64696e672060448201527f7468652062757920746f6b656e20746f2074686520726f75746572000000000060648201526084016102fc565b8a6001600160a01b031686866040516109c4929190610ddd565b6000604051808303816000865af19150503d8060008114610a01576040519150601f19603f3d011682016040523d82523d6000602084013e610a06565b606091505b5090935091505b509850989650505050505050565b6000805481906001600160a01b0316336001600160a01b031614610a515760405162461bcd60e51b81526004016102fc90610d74565b50506001600160a01b0316600090815260016020819052604090912080549101549091565b600080546001600160a01b0316336001600160a01b031614610aaa5760405162461bcd60e51b81526004016102fc90610d74565b60405163a9059cbb60e01b81526001600160a01b0384811660048301526024820184905285169063a9059cbb90604401610682565b6000805481906001600160a01b0316336001600160a01b031614610b155760405162461bcd60e51b81526004016102fc90610d74565b50506001600160a01b0316600090815260026020526040902080546001909101549091565b6000610b468284610e03565b9392505050565b6000610b468284610e16565b6001600160a01b0381168114610b6e57600080fd5b50565b600060208284031215610b8357600080fd5b8135610b4681610b59565b600080600060608486031215610ba357600080fd5b8335610bae81610b59565b95602085013595506040909401359392505050565b60008060408385031215610bd657600080fd5b8235610be181610b59565b946020939093013593505050565b600080600060608486031215610c0457600080fd5b8335610c0f81610b59565b92506020840135610c1f81610b59565b929592945050506040919091013590565b8015158114610b6e57600080fd5b8035610c4981610c30565b919050565b60008060008060008060008060e0898b031215610c6a57600080fd5b8835610c7581610b59565b97506020890135610c8581610b59565b96506040890135610c9581610b59565b9550606089013594506080890135935060a089013567ffffffffffffffff80821115610cc057600080fd5b818b0191508b601f830112610cd457600080fd5b813581811115610ce357600080fd5b8c6020828501011115610cf557600080fd5b602083019550809450505050610d0d60c08a01610c3e565b90509295985092959890939650565b821515815260006020604081840152835180604085015260005b81811015610d5257858101830151858201606001528201610d36565b506000606082860101526060601f19601f830116850101925050509392505050565b6020808252602c908201527f5365636f6e646172793a2063616c6c6572206973206e6f74207468652070726960408201526b1b585c9e481858d8dbdd5b9d60a21b606082015260800190565b600060208284031215610dd257600080fd5b8151610b4681610c30565b8183823760009101908152919050565b634e487b7160e01b600052601160045260246000fd5b8082018082111561061757610617610ded565b8181038181111561061757610617610ded56fea26469706673582212201bbf263b62dcd4e0466d9b00e698276476e3b3b04503310c32b01134a5a4f31964736f6c63430008120033a264697066735822122074ce492ed6a07f845231e60f315ab2008045c56ad72d1b77728a4cacd52a4b6c64736f6c63430008120033",
  "linkReferences": {},
  "deployedLinkReferences": {}
}