{
  "_format": "hh-sol-artifact-1",
  "contractName": "CrowdfundingFactory",
  "sourceName": "contracts/CrowdfundingFactory.sol",
  "abi": [
    {
      "inputs": [
        {
          "internalType": "address",
          "name": "_feeToSetter",
          "type": "address"
        },
        {
          "internalType": "address",
          "name": "_feeTo",
          "type": "address"
        },
        {
          "internalType": "address",
          "name": "_transferSigner",
          "type": "address"
        }
      ],
      "stateMutability": "nonpayable",
      "type": "constructor"
    },
    {
      "inputs": [],
      "name": "TokenAddress",
      "type": "error"
    },
    {
      "inputs": [
        {
          "internalType": "string",
          "name": "_type",
          "type": "string"
        }
      ],
      "name": "TokenAllowanceInsufficient",
      "type": "error"
    },
    {
      "inputs": [
        {
          "internalType": "string",
          "name": "_type",
          "type": "string"
        }
      ],
      "name": "TokenBalanceInsufficient",
      "type": "error"
    },
    {
      "inputs": [
        {
          "internalType": "address",
          "name": "_sender",
          "type": "address"
        }
      ],
      "name": "Unauthorized",
      "type": "error"
    },
    {
      "anonymous": false,
      "inputs": [
        {
          "indexed": false,
          "internalType": "address",
          "name": "founder",
          "type": "address"
        },
        {
          "indexed": false,
          "internalType": "address",
          "name": "crowdfunding",
          "type": "address"
        },
        {
          "components": [
            {
              "internalType": "address",
              "name": "sellTokenAddress",
              "type": "address"
            },
            {
              "internalType": "address",
              "name": "buyTokenAddress",
              "type": "address"
            },
            {
              "internalType": "uint8",
              "name": "sellTokenDecimals",
              "type": "uint8"
            },
            {
              "internalType": "uint8",
              "name": "buyTokenDecimals",
              "type": "uint8"
            },
            {
              "internalType": "bool",
              "name": "buyTokenIsNative",
              "type": "bool"
            },
            {
              "internalType": "uint256",
              "name": "raiseTotal",
              "type": "uint256"
            },
            {
              "internalType": "uint256",
              "name": "buyPrice",
              "type": "uint256"
            },
            {
              "internalType": "uint16",
              "name": "swapPercent",
              "type": "uint16"
            },
            {
              "internalType": "uint16",
              "name": "sellTax",
              "type": "uint16"
            },
            {
              "internalType": "uint256",
              "name": "maxBuyAmount",
              "type": "uint256"
            },
            {
              "internalType": "uint256",
              "name": "minBuyAmount",
              "type": "uint256"
            },
            {
              "internalType": "uint16",
              "name": "maxSellPercent",
              "type": "uint16"
            },
            {
              "internalType": "address",
              "name": "teamWallet",
              "type": "address"
            },
            {
              "internalType": "uint256",
              "name": "startTime",
              "type": "uint256"
            },
            {
              "internalType": "uint256",
              "name": "endTime",
              "type": "uint256"
            },
            {
              "internalType": "address",
              "name": "router",
              "type": "address"
            },
            {
              "internalType": "uint256",
              "name": "dexInitPrice",
              "type": "uint256"
            }
          ],
          "indexed": false,
          "internalType": "struct Parameters",
          "name": "paras",
          "type": "tuple"
        }
      ],
      "name": "Created",
      "type": "event"
    },
    {
      "anonymous": false,
      "inputs": [
        {
          "indexed": true,
          "internalType": "address",
          "name": "previousOwner",
          "type": "address"
        },
        {
          "indexed": true,
          "internalType": "address",
          "name": "newOwner",
          "type": "address"
        }
      ],
      "name": "OwnershipTransferred",
      "type": "event"
    },
    {
      "inputs": [
        {
          "internalType": "address",
          "name": "_router",
          "type": "address"
        }
      ],
      "name": "addToDexRouters",
      "outputs": [],
      "stateMutability": "nonpayable",
      "type": "function"
    },
    {
      "inputs": [],
      "name": "children",
      "outputs": [
        {
          "internalType": "address[]",
          "name": "",
          "type": "address[]"
        }
      ],
      "stateMutability": "view",
      "type": "function"
    },
    {
      "inputs": [
        {
          "components": [
            {
              "internalType": "address",
              "name": "sellTokenAddress",
              "type": "address"
            },
            {
              "internalType": "address",
              "name": "buyTokenAddress",
              "type": "address"
            },
            {
              "internalType": "uint8",
              "name": "sellTokenDecimals",
              "type": "uint8"
            },
            {
              "internalType": "uint8",
              "name": "buyTokenDecimals",
              "type": "uint8"
            },
            {
              "internalType": "bool",
              "name": "buyTokenIsNative",
              "type": "bool"
            },
            {
              "internalType": "uint256",
              "name": "raiseTotal",
              "type": "uint256"
            },
            {
              "internalType": "uint256",
              "name": "buyPrice",
              "type": "uint256"
            },
            {
              "internalType": "uint16",
              "name": "swapPercent",
              "type": "uint16"
            },
            {
              "internalType": "uint16",
              "name": "sellTax",
              "type": "uint16"
            },
            {
              "internalType": "uint256",
              "name": "maxBuyAmount",
              "type": "uint256"
            },
            {
              "internalType": "uint256",
              "name": "minBuyAmount",
              "type": "uint256"
            },
            {
              "internalType": "uint16",
              "name": "maxSellPercent",
              "type": "uint16"
            },
            {
              "internalType": "address",
              "name": "teamWallet",
              "type": "address"
            },
            {
              "internalType": "uint256",
              "name": "startTime",
              "type": "uint256"
            },
            {
              "internalType": "uint256",
              "name": "endTime",
              "type": "uint256"
            },
            {
              "internalType": "address",
              "name": "router",
              "type": "address"
            },
            {
              "internalType": "uint256",
              "name": "dexInitPrice",
              "type": "uint256"
            }
          ],
          "internalType": "struct Parameters",
          "name": "paras",
          "type": "tuple"
        }
      ],
      "name": "createCrowdfundingContract",
      "outputs": [],
      "stateMutability": "nonpayable",
      "type": "function"
    },
    {
      "inputs": [],
      "name": "fee",
      "outputs": [
        {
          "internalType": "uint24",
          "name": "",
          "type": "uint24"
        }
      ],
      "stateMutability": "view",
      "type": "function"
    },
    {
      "inputs": [],
      "name": "feeTo",
      "outputs": [
        {
          "internalType": "address",
          "name": "",
          "type": "address"
        }
      ],
      "stateMutability": "view",
      "type": "function"
    },
    {
      "inputs": [],
      "name": "feeToSetter",
      "outputs": [
        {
          "internalType": "address",
          "name": "",
          "type": "address"
        }
      ],
      "stateMutability": "view",
      "type": "function"
    },
    {
      "inputs": [],
      "name": "getStore",
      "outputs": [
        {
          "internalType": "address",
          "name": "",
          "type": "address"
        }
      ],
      "stateMutability": "view",
      "type": "function"
    },
    {
      "inputs": [
        {
          "internalType": "address",
          "name": "_address",
          "type": "address"
        }
      ],
      "name": "isChild",
      "outputs": [
        {
          "internalType": "bool",
          "name": "",
          "type": "bool"
        }
      ],
      "stateMutability": "view",
      "type": "function"
    },
    {
      "inputs": [
        {
          "internalType": "address",
          "name": "_router",
          "type": "address"
        }
      ],
      "name": "isDexRouters",
      "outputs": [
        {
          "internalType": "bool",
          "name": "",
          "type": "bool"
        }
      ],
      "stateMutability": "view",
      "type": "function"
    },
    {
      "inputs": [],
      "name": "owner",
      "outputs": [
        {
          "internalType": "address",
          "name": "",
          "type": "address"
        }
      ],
      "stateMutability": "view",
      "type": "function"
    },
    {
      "inputs": [
        {
          "internalType": "address",
          "name": "_router",
          "type": "address"
        }
      ],
      "name": "removeFromDexRouters",
      "outputs": [],
      "stateMutability": "nonpayable",
      "type": "function"
    },
    {
      "inputs": [],
      "name": "renounceOwnership",
      "outputs": [],
      "stateMutability": "nonpayable",
      "type": "function"
    },
    {
      "inputs": [
        {
          "internalType": "address",
          "name": "_feeTo",
          "type": "address"
        }
      ],
      "name": "setFeeTo",
      "outputs": [],
      "stateMutability": "nonpayable",
      "type": "function"
    },
    {
      "inputs": [
        {
          "internalType": "address",
          "name": "_feeToSetter",
          "type": "address"
        }
      ],
      "name": "setFeeToSetter",
      "outputs": [],
      "stateMutability": "nonpayable",
      "type": "function"
    },
    {
      "inputs": [
        {
          "internalType": "address",
          "name": "_transferSigner",
          "type": "address"
        }
      ],
      "name": "setTransferSigner",
      "outputs": [],
      "stateMutability": "nonpayable",
      "type": "function"
    },
    {
      "inputs": [
        {
          "internalType": "address",
          "name": "newOwner",
          "type": "address"
        }
      ],
      "name": "transferOwnership",
      "outputs": [],
      "stateMutability": "nonpayable",
      "type": "function"
    },
    {
      "inputs": [
        {
          "internalType": "address",
          "name": "newFactory",
          "type": "address"
        }
      ],
      "name": "transferPrimary",
      "outputs": [],
      "stateMutability": "nonpayable",
      "type": "function"
    },
    {
      "inputs": [],
      "name": "transferSigner",
      "outputs": [
        {
          "internalType": "address",
          "name": "",
          "type": "address"
        }
      ],
      "stateMutability": "view",
      "type": "function"
    },
    {
      "inputs": [
        {
          "internalType": "address",
          "name": "newStore",
          "type": "address"
        }
      ],
      "name": "transferStore",
      "outputs": [],
      "stateMutability": "nonpayable",
      "type": "function"
    }
  ],
  "bytecode": "0x60a06040523480156200001157600080fd5b5060405162006add38038062006add833981016040819052620000349162000197565b6200003f336200010e565b6040516200004d906200015e565b604051809103906000f0801580156200006a573d6000803e3d6000fd5b50600180546001600160a01b0319166001600160a01b039290921691909117905560405162000099906200016c565b604051809103906000f080158015620000b6573d6000803e3d6000fd5b50600280546001600160a01b03199081166001600160a01b0393841617909155600480548216958316959095179094556005805485169282169290921790915560038054909316911617905561012c608052620001e1565b600080546001600160a01b038381166001600160a01b0319831681178455604051919092169283917f8be0079c531659141344cd1fd0a4f28419497f9722a3daafe3b4186f6b6457e09190a35050565b6104bf80620060cf83390190565b61054f806200658e83390190565b80516001600160a01b03811681146200019257600080fd5b919050565b600080600060608486031215620001ad57600080fd5b620001b8846200017a565b9250620001c8602085016200017a565b9150620001d8604085016200017a565b90509250925092565b608051615ed2620001fd60003960006102680152615ed26000f3fe60806040523480156200001157600080fd5b5060043610620001395760003560e01c8063a5f5775111620000bb578063e7836e1b116200007a578063e7836e1b146200029f578063f2fde38b14620002c7578063f46901ed14620002de578063f523e77514620002f5578063fc91a897146200030c57600080fd5b8063a5f577511462000214578063b1d00df0146200022b578063c2722ecc146200023f578063c2bc80fd1462000249578063ddca3f43146200026257600080fd5b8063269e4e171162000108578063269e4e1714620001b35780633d4281b814620001ca578063715018a614620001e15780638da5cb5b14620001eb578063a2e74af614620001fd57600080fd5b8063017e7e58146200013e5780630728bb94146200016f578063094b741514620001885780632348238c146200019c575b600080fd5b60035462000152906001600160a01b031681565b6040516001600160a01b0390911681526020015b60405180910390f35b620001866200018036600462000f15565b62000323565b005b60045462000152906001600160a01b031681565b62000186620001ad36600462000f57565b620009d6565b62000186620001c436600462000f57565b62000a68565b62000186620001db36600462000f57565b62000ac8565b6200018662000b28565b6000546001600160a01b031662000152565b620001866200020e36600462000f57565b62000b57565b620001866200022536600462000f57565b62000bc1565b60055462000152906001600160a01b031681565b6200015262000c10565b6200025362000c4e565b60405162000166919062000f7e565b6200028a7f000000000000000000000000000000000000000000000000000000000000000081565b60405162ffffff909116815260200162000166565b620002b6620002b036600462000f57565b62000cc8565b604051901515815260200162000166565b62000186620002d836600462000f57565b62000d41565b62000186620002ef36600462000f57565b62000de3565b620001866200030636600462000f57565b62000e34565b620002b66200031d36600462000f57565b62000e83565b600062000334602083018362000f57565b6001600160a01b031614801562000365575060006200035a604083016020840162000f57565b6001600160a01b0316145b156200038457604051636165d18360e11b815260040160405180910390fd5b60008160c0013511620003cf5760405162461bcd60e51b815260206004820152600e60248201526d4552523a2042555920505249434560901b60448201526064015b60405180910390fd5b6000620003e561020083016101e0840162000f57565b6001600160a01b0316146200044457600081610200013511620004445760405162461bcd60e51b815260206004820152601660248201527508aa4a47440929c92a840a0a492868a409e8c40888ab60531b6044820152606401620003c6565b6200045c620002b061020083016101e0840162000f57565b8062000484575060006200047961020083016101e0840162000f57565b6001600160a01b0316145b620004c85760405162461bcd60e51b815260206004820152601360248201527208aa4a4749c9ea840a6aaa0a09ea4a840888ab606b1b6044820152606401620003c6565b6000620004d9602083018362000f57565b905060003033604051620004ed9062000f07565b6001600160a01b03928316815291166020820152604001604051809103906000f08015801562000521573d6000803e3d6000fd5b5060405163689d133960e11b81529091506001600160a01b0382169063d13a2672906200055390869060040162001157565b600060405180830381600087803b1580156200056e57600080fd5b505af115801562000583573d6000803e3d6000fd5b505050506000816001600160a01b031663d0e30db06040518163ffffffff1660e01b8152600401602060405180830381865afa158015620005c8573d6000803e3d6000fd5b505050506040513d601f19601f82011682018060405250810190620005ee919062001168565b905060008111620006425760405162461bcd60e51b815260206004820152601a60248201527f53656c6c20746f6b656e206465706f736974206973207a65726f0000000000006044820152606401620003c6565b6040516370a0823160e01b815233600482015281906001600160a01b038516906370a0823190602401602060405180830381865afa15801562000689573d6000803e3d6000fd5b505050506040513d601f19601f82011682018060405250810190620006af919062001168565b1015620006e957604051638c2f4c6b60e01b8152600401620003c69060208082526004908201526314d95b1b60e21b604082015260600190565b604051636eb1769f60e11b815233600482015230602482015281906001600160a01b0385169063dd62ed3e90604401602060405180830381865afa15801562000736573d6000803e3d6000fd5b505050506040513d601f19601f820116820180604052508101906200075c919062001168565b10156200079657604051630b29193560e31b8152600401620003c69060208082526004908201526314d95b1b60e21b604082015260600190565b826001600160a01b03166323b872dd33846001600160a01b031663f4e759ef6040518163ffffffff1660e01b8152600401602060405180830381865afa158015620007e5573d6000803e3d6000fd5b505050506040513d601f19601f820116820180604052508101906200080b91906200118f565b6040516001600160e01b031960e085901b1681526001600160a01b03928316600482015291166024820152604481018490526064016020604051808303816000875af115801562000860573d6000803e3d6000fd5b505050506040513d601f19601f82011682018060405250810190620008869190620011af565b620008d45760405162461bcd60e51b815260206004820152601f60248201527f53656c6c20746f6b656e207472616e7366657246726f6d206661696c757265006044820152606401620003c6565b60405163f2fde38b60e01b81523360048201526001600160a01b0383169063f2fde38b90602401600060405180830381600087803b1580156200091657600080fd5b505af11580156200092b573d6000803e3d6000fd5b50506001546040516389b09de760e01b81526001600160a01b03808716600483015286945090911691506389b09de790602401600060405180830381600087803b1580156200097957600080fd5b505af11580156200098e573d6000803e3d6000fd5b505050507fc1191fb07fb1a904651e55bac1a512862d3f31c90f8073cb542dd291994e7048338287604051620009c793929190620011cf565b60405180910390a15050505050565b6000546001600160a01b0316331462000a035760405162461bcd60e51b8152600401620003c690620011ff565b6001546040516308d208e360e21b81526001600160a01b03838116600483015290911690632348238c906024015b600060405180830381600087803b15801562000a4c57600080fd5b505af115801562000a61573d6000803e3d6000fd5b5050505050565b6000546001600160a01b0316331462000a955760405162461bcd60e51b8152600401620003c690620011ff565b600254604051638ab1d68160e01b81526001600160a01b03838116600483015290911690638ab1d6819060240162000a31565b6000546001600160a01b0316331462000af55760405162461bcd60e51b8152600401620003c690620011ff565b60025460405163e43252d760e01b81526001600160a01b0383811660048301529091169063e43252d79060240162000a31565b6000546001600160a01b0316331462000b555760405162461bcd60e51b8152600401620003c690620011ff565b565b6004546001600160a01b03163314158062000b7d57506000546001600160a01b03163314155b1562000b9f5760405163472511eb60e11b8152336004820152602401620003c6565b600480546001600160a01b0319166001600160a01b0392909216919091179055565b6000546001600160a01b0316331462000bee5760405162461bcd60e51b8152600401620003c690620011ff565b600580546001600160a01b0319166001600160a01b0392909216919091179055565b600080546001600160a01b0316331462000c3e5760405162461bcd60e51b8152600401620003c690620011ff565b506001546001600160a01b031690565b6001546040805163c2bc80fd60e01b815290516060926001600160a01b03169163c2bc80fd9160048083019260009291908290030181865afa15801562000c99573d6000803e3d6000fd5b505050506040513d6000823e601f3d908101601f1916820160405262000cc391908101906200124a565b905090565b600254604051633af32abf60e01b81526001600160a01b0383811660048301526000921690633af32abf906024015b602060405180830381865afa15801562000d15573d6000803e3d6000fd5b505050506040513d601f19601f8201168201806040525081019062000d3b9190620011af565b92915050565b6000546001600160a01b0316331462000d6e5760405162461bcd60e51b8152600401620003c690620011ff565b6001600160a01b03811662000dd55760405162461bcd60e51b815260206004820152602660248201527f4f776e61626c653a206e6577206f776e657220697320746865207a65726f206160448201526564647265737360d01b6064820152608401620003c6565b62000de08162000eb7565b50565b6004546001600160a01b0316331462000e125760405163472511eb60e11b8152336004820152602401620003c6565b600380546001600160a01b0319166001600160a01b0392909216919091179055565b6000546001600160a01b0316331462000e615760405162461bcd60e51b8152600401620003c690620011ff565b600180546001600160a01b0319166001600160a01b0392909216919091179055565b60015460405163fc91a89760e01b81526001600160a01b038381166004830152600092169063fc91a8979060240162000cf7565b600080546001600160a01b038381166001600160a01b0319831681178455604051919092169283917f8be0079c531659141344cd1fd0a4f28419497f9722a3daafe3b4186f6b6457e09190a35050565b614b7f806200131e83390190565b6000610220828403121562000f2957600080fd5b50919050565b6001600160a01b038116811462000de057600080fd5b803562000f528162000f2f565b919050565b60006020828403121562000f6a57600080fd5b813562000f778162000f2f565b9392505050565b6020808252825182820181905260009190848201906040850190845b8181101562000fc15783516001600160a01b03168352928401929184019160010162000f9a565b50909695505050505050565b803560ff8116811462000f5257600080fd5b801515811462000de057600080fd5b803562000f528162000fdf565b803561ffff8116811462000f5257600080fd5b6200102b826200101e8362000f45565b6001600160a01b03169052565b620010396020820162000f45565b6001600160a01b03166020830152620010556040820162000fcd565b60ff1660408301526200106b6060820162000fcd565b60ff166060830152620010816080820162000fee565b80151560808401525060a081013560a083015260c081013560c0830152620010ac60e0820162000ffb565b61ffff1660e0830152610100620010c582820162000ffb565b61ffff169083015261012081810135908301526101408082013590830152610160620010f381830162000ffb565b61ffff16908301526101806200110b82820162000f45565b6001600160a01b0316908301526101a081810135908301526101c080820135908301526101e06200113e81830162000f45565b6001600160a01b03169083015261020090810135910152565b610220810162000d3b82846200100e565b6000602082840312156200117b57600080fd5b5051919050565b805162000f528162000f2f565b600060208284031215620011a257600080fd5b815162000f778162000f2f565b600060208284031215620011c257600080fd5b815162000f778162000fdf565b6001600160a01b038481168252831660208201526102608101620011f760408301846200100e565b949350505050565b6020808252818101527f4f776e61626c653a2063616c6c6572206973206e6f7420746865206f776e6572604082015260600190565b634e487b7160e01b600052604160045260246000fd5b600060208083850312156200125e57600080fd5b825167ffffffffffffffff808211156200127757600080fd5b818501915085601f8301126200128c57600080fd5b815181811115620012a157620012a162001234565b8060051b604051601f19603f83011681018181108582111715620012c957620012c962001234565b604052918252848201925083810185019188831115620012e857600080fd5b938501935b828510156200131157620013018562001182565b84529385019392850192620012ed565b9897505050505050505056fe6101406040523480156200001257600080fd5b5060405162004b7f38038062004b7f8339810160408190526200003591620001de565b6040518060400160405280600c81526020016b43726f776466756e64696e6760a01b815250604051806040016040528060038152602001620312e360ec1b815250620000906200008a6200016d60201b60201c565b62000171565b815160209283012081519183019190912060e08290526101008190524660a0818152604080517f8b73c3c69bb8fe3d512ecc4cf759cc79239f7b179b0ffacaa9a75d522b39400f818801819052818301969096526060810194909452608080850193909352308483018190528151808603909301835260c094850190915281519190950120905282905261012052600580546001600160a01b03199081166001600160a01b039586169081179092556006805482169490951693909317909355601880548316909117905560048054909116909117905562000216565b3390565b600080546001600160a01b038381166001600160a01b0319831681178455604051919092169283917f8be0079c531659141344cd1fd0a4f28419497f9722a3daafe3b4186f6b6457e09190a35050565b80516001600160a01b0381168114620001d957600080fd5b919050565b60008060408385031215620001f257600080fd5b620001fd83620001c1565b91506200020d60208401620001c1565b90509250929050565b60805160a05160c05160e0516101005161012051614919620002666000396000612ca001526000612ce201526000612cc101526000612c2501526000612c4f01526000612c7901526149196000f3fe6080604052600436106101185760003560e01c8063c216ff88116100a0578063d79875eb11610064578063d79875eb146103cb578063ea8a1af0146103de578063f2fde38b146103f3578063f4e759ef14610413578063f523e7751461042857600080fd5b8063c216ff8814610341578063c2722ecc14610362578063d0e30db014610377578063d13a267214610395578063d6febde8146103a857600080fd5b806389035730116100e757806389035730146101ef5780638da5cb5b1461029d578063a7f43779146102cf578063b305862b146102e4578063c19d93fb1461030457600080fd5b80632348238c1461017457806366d602ae14610196578063715018a6146101c557806388e765ff146101da57600080fd5b3661016f576040805133815260208101829052600781830152667265636569766560c81b606082015290517fd00ca3f088120b3d909c3a9e01be91e94a2b001aed9c25fe751c3c7a72dc49bf9181900360800190a1005b600080fd5b34801561018057600080fd5b5061019461018f3660046130c9565b610448565b005b3480156101a257600080fd5b506101ab6104dd565b604080519283526020830191909152015b60405180910390f35b3480156101d157600080fd5b506101946104f1565b3480156101e657600080fd5b506101ab61051d565b3480156101fb57600080fd5b50610240600c54600d54600f546010546011546012546013546017546001600160a01b039788169897871697600160a81b90970460ff169661ffff9586169590921691565b604080516001600160a01b039a8b1681529990981660208a015260ff90961696880196909652606087019390935261ffff918216608087015260a086015260c085019190915290911660e0830152610100820152610120016101bc565b3480156102a957600080fd5b506000546001600160a01b03165b6040516001600160a01b0390911681526020016101bc565b3480156102db57600080fd5b50610194610529565b3480156102f057600080fd5b506101946102ff3660046130e6565b6106b7565b34801561031057600080fd5b50610319610733565b604080519586526020860194909452928401919091526060830152608082015260a0016101bc565b61035461034f366004613141565b6107ec565b6040516101bc92919061321d565b34801561036e57600080fd5b506102b7610c7b565b34801561038357600080fd5b506008546040519081526020016101bc565b6101946103a33660046132c5565b610cb6565b6103bb6103b63660046133dc565b611115565b60405190151581526020016101bc565b6103bb6103d93660046133dc565b61182b565b3480156103ea57600080fd5b50610194611dd0565b3480156103ff57600080fd5b5061019461040e3660046130c9565b611e92565b34801561041f57600080fd5b506102b7611f2d565b34801561043457600080fd5b506101946104433660046130c9565b611f68565b6000546001600160a01b0316331461047b5760405162461bcd60e51b8152600401610472906133fe565b60405180910390fd5b6001546040516308d208e360e21b81526001600160a01b03838116600483015290911690632348238c90602401600060405180830381600087803b1580156104c257600080fd5b505af11580156104d6573d6000803e3d6000fd5b5050505050565b6000806104e933611fb4565b915091509091565b6000546001600160a01b0316331461051b5760405162461bcd60e51b8152600401610472906133fe565b565b6000806104e933612117565b6000546001600160a01b031633146105535760405162461bcd60e51b8152600401610472906133fe565b61055b6121eb565b610563612229565b600061056d6122b1565b11156105ed576016546001600160a01b0316156105c1576040516306b53bd360e11b81526020600482015260116024820152706f6e6c79206175746f206c697374696e6760781b6044820152606401610472565b60006105cb61234c565b9050806105eb57604051636244afcf60e11b815260040160405180910390fd5b505b601354610608906201000090046001600160a01b03166125cc565b6106255760405163a1b57be360e01b815260040160405180910390fd5b601354610640906201000090046001600160a01b0316612755565b61065d5760405163012e4d1960e61b815260040160405180910390fd5b6019805460ff60a01b1916600360a01b17908190556040517fc5b1926826a1a3d3516971a2579cab66ddfa770959e8c2f1d832386b262e2d86916106ad913391600160a01b900460ff169061346b565b60405180910390a1565b6000546001600160a01b031633146106e15760405162461bcd60e51b8152600401610472906133fe565b6106e96121eb565b6106f161281a565b601581905560408051338152602081018390527f808c9d67d9bb9dd70b931d1346a5e2b1f750fc3eeb2d9770805038ab16c3028d91015b60405180910390a150565b601954600d5460009182918291829182916001600160a01b03163190600160b01b900460ff166107d0576003546019546040516370a0823160e01b81526001600160a01b0391821660048201529116906370a0823190602401602060405180830381865afa1580156107a9573d6000803e3d6000fd5b505050506040513d601f19601f820116820180604052508101906107cd9190613488565b90505b600e54600954600a546017549299919850965091945092509050565b600080546060906001600160a01b0316331461081a5760405162461bcd60e51b8152600401610472906133fe565b601954600160a81b900460ff16156108445760405162461bcd60e51b8152600401610472906134a1565b6019805460ff60a81b1916600160a81b17905561085f6121eb565b610867612229565b6016546001600160a01b03166108b9576040516306b53bd360e11b81526020600482015260166024820152756e6f7420616c6c6f77206175746f206c697374696e6760501b6044820152606401610472565b6016546001600160a01b0389811691161461090d576040516306b53bd360e11b815260206004820152601360248201527224b731b7b739b4b9ba32b73a103937baba32b960691b6044820152606401610472565b60055460408051630b1d00df60e41b815290516001600160a01b039092169161099491839163b1d00df0916004808201926020929091908290030181865afa15801561095d573d6000803e3d6000fd5b505050506040513d601f19601f8201168201806040525081019061098191906134c9565b61098d8b8b8b8b61283c565b878761289e565b156109b25760405163247d106d60e11b815260040160405180910390fd5b60006109bc61234c565b9050806109dc57604051636244afcf60e11b815260040160405180910390fd5b60006109e66122b1565b600d54909150600090610a1c90610a0890600160a81b900460ff16600a6135e0565b601754610a169085906128fd565b90612909565b6002546019546040516370a0823160e01b81526001600160a01b03918216600482015292935016906370a0823190602401602060405180830381865afa158015610a6a573d6000803e3d6000fd5b505050506040513d601f19601f82011682018060405250810190610a8e9190613488565b811115610acb57604051638c2f4c6b60e01b815260206004820152600a60248201526939b2b636103a37b5b2b760b11b6044820152606401610472565b3660008b8b91509150600160009054906101000a90046001600160a01b03166001600160a01b031663e5a4dbf88f600260009054906101000a90046001600160a01b0316600360009054906101000a90046001600160a01b031687898888600c60010160169054906101000a900460ff166040518963ffffffff1660e01b8152600401610b5f989796959493929190613618565b6000604051808303816000875af1158015610b7e573d6000803e3d6000fd5b505050506040513d6000823e601f3d908101601f19168201604052610ba69190810190613672565b909850965087610bc957604051637a4c140d60e11b815260040160405180910390fd5b601354610be4906201000090046001600160a01b0316612755565b610c015760405163012e4d1960e61b815260040160405180910390fd5b6019805460ff60a01b1916600360a01b17908190556040517fab3f2147088482db1a84b21889cc70b0e5ac5a0a34b9217f12cfc1861a9c3cef91610c53913391600160a01b900460ff16908b90613735565b60405180910390a15050505050506019805460ff60a81b191690559097909650945050505050565b600080546001600160a01b03163314610ca65760405162461bcd60e51b8152600401610472906133fe565b506001546001600160a01b031690565b6000546001600160a01b03163314610ce05760405162461bcd60e51b8152600401610472906133fe565b6001546001600160a01b031615610d2d5760405162461bcd60e51b815260206004820152601160248201527053746f7265206973206e6f74207a65726f60781b6044820152606401610472565b604051610d3990613097565b604051809103906000f080158015610d55573d6000803e3d6000fd5b50600180546001600160a01b03199081166001600160a01b039384169081179092556019805482169092179091558251600c805483169184169190911790556020830151600d80546040860151606087015160808801519487166001600160a81b031990931692909217600160a01b60ff928316021761ffff60a81b1916600160a81b919092160260ff60b01b191617600160b01b9215159290920291909117905560a0830151600e5560c0830151600f5560e08301516010805461010086015161ffff93841663ffffffff19909216919091176201000091841682021790915561012085015160115561014085015160125561016085015160138054610180880151929094166001600160b01b0319909416939093179085169091021790556101a08301516014556101c08301516015556101e0830151601680549092169216919091179055610200810151601755610ead612915565b6019805460ff60a01b1916600160a01b836004811115610ecf57610ecf613433565b0217905550600c54600280546001600160a01b0319166001600160a01b0390921691821790556040805163313ce56760e01b8152905163313ce567916004808201926020929091908290030181865afa158015610f30573d6000803e3d6000fd5b505050506040513d601f19601f82011682018060405250810190610f549190613764565b600d805460ff92909216600160a01b0260ff60a01b1983168117909155600c546001600160a01b0391821692821692909217911603610fa657600d805461ffff60a81b1916608960a91b179055611052565b600d805460ff60b01b198116909155600380546001600160a01b0319166001600160a01b0390921691821790556040805163313ce56760e01b8152905163313ce567916004808201926020929091908290030181865afa15801561100e573d6000803e3d6000fd5b505050506040513d601f19601f820116820180604052508101906110329190613764565b600d805460ff92909216600160a81b0260ff60a81b199092169190911790555b600e5461106090600061293d565b6007819055600b819055600d546110b792506110b19061108b90600160a81b900460ff16600a6135e0565b601754601054600e54610a16926127109284926110ab9161ffff166128fd565b906128fd565b906129c1565b6008557fa81af9f26c34c6997396d1d61be10b4cd9843035f372979270c7049cf0325b8a6110ed6000546001600160a01b031690565b60055460065460075460405161072894936001600160a01b0390811693169190600c90613781565b600061111f6121eb565b6111276129cd565b601954600160a81b900460ff16156111515760405162461bcd60e51b8152600401610472906134a1565b6019805460ff60a81b1916600160a81b17905561116e83836129f0565b60125483101561119157604051636226a2a560e01b815260040160405180910390fd5b61119b3384612a44565b6111b8576040516311b5c73d60e21b815260040160405180910390fd5b6002546019546040516370a0823160e01b81526001600160a01b039182166004820152849291909116906370a0823190602401602060405180830381865afa158015611208573d6000803e3d6000fd5b505050506040513d601f19601f8201168201806040525081019061122c9190613488565b101561124b57604051638c2f4c6b60e01b81526004016104729061389d565b600061125684612a5c565b600d54909150600160b01b900460ff16156113ae578334146112b35760405162461bcd60e51b81526020600482015260166024820152751b5cd9cb9d985b1d59481a5cc81b9bdd081d985b1a5960521b6044820152606401610472565b6019546040516000916001600160a01b03169083908381818185875af1925050503d8060008114611300576040519150601f19603f3d011682016040523d82523d6000602084013e611305565b606091505b505090508061132757604051633e75f72760e11b8152600401610472906138bb565b6013546201000090046001600160a01b03166113433484612a7e565b604051600081818185875af1925050503d806000811461137f576040519150601f19603f3d011682016040523d82523d6000602084013e611384565b606091505b505080915050806113a857604051633e75f72760e11b8152600401610472906138bb565b50611615565b600354601854604051636eb1769f60e11b81523360048201526001600160a01b0391821660248201528692919091169063dd62ed3e90604401602060405180830381865afa158015611404573d6000803e3d6000fd5b505050506040513d601f19601f820116820180604052508101906114289190613488565b101561144757604051630b29193560e31b8152600401610472906138bb565b6003546040516370a0823160e01b815233600482015285916001600160a01b0316906370a0823190602401602060405180830381865afa15801561148f573d6000803e3d6000fd5b505050506040513d601f19601f820116820180604052508101906114b39190613488565b10156114d257604051638c2f4c6b60e01b8152600401610472906138bb565b6003546019546040516323b872dd60e01b81526001600160a01b03928316926323b872dd9261150b9233929091169086906004016138d8565b6020604051808303816000875af115801561152a573d6000803e3d6000fd5b505050506040513d601f19601f8201168201806040525081019061154e91906138fc565b61156b57604051633e75f72760e11b8152600401610472906138bb565b6003546013546001600160a01b03918216916323b872dd91339162010000909104166115978886612a7e565b6040518463ffffffff1660e01b81526004016115b5939291906138d8565b6020604051808303816000875af11580156115d4573d6000803e3d6000fd5b505050506040513d601f19601f820116820180604052508101906115f891906138fc565b61161557604051633e75f72760e11b8152600401610472906138bb565b600154600254604051637aa9bf6f60e11b81526001600160a01b039283169263f5537ede9261164d92911690339088906004016138d8565b6020604051808303816000875af115801561166c573d6000803e3d6000fd5b505050506040513d601f19601f8201168201806040525081019061169091906138fc565b6116ad57604051633e75f72760e11b81526004016104729061389d565b6009546116ba90856129c1565b600955600b546116ca9084612a7e565b600b55600a546116da90826129c1565b600a55600154604051636aa05ee360e01b815233600482015260248101869052604481018590526001600160a01b0390911690636aa05ee390606401600060405180830381600087803b15801561173057600080fd5b505af1158015611744573d6000803e3d6000fd5b50506001546040516379da956560e01b815233600482015260248101889052604481018790526001600160a01b0390911692506379da95659150606401600060405180830381600087803b15801561179b57600080fd5b505af11580156117af573d6000803e3d6000fd5b5050600954600b54600a5460408051338152602081018b90529081018990526060810193909352608083019190915260a08201527f178f20a8980b4e6cdc2c84f3ef670f5047f63638f90a8acc6b724b43f1da778d925060c00190505b60405180910390a150506019805460ff60a81b19169055506001919050565b60006118356121eb565b61183d6129cd565b601954600160a81b900460ff16156118675760405162461bcd60e51b8152600401610472906134a1565b6019805460ff60a81b1916600160a81b17905561188483836129f0565b61188e3383612a8a565b6118ab576040516311b5c73d60e21b815260040160405180910390fd5b60006118b684612aa2565b9050806118c16122b1565b10156118e057604051638c2f4c6b60e01b8152600401610472906138bb565b600254601854604051636eb1769f60e11b81523360048201526001600160a01b0391821660248201528592919091169063dd62ed3e90604401602060405180830381865afa158015611936573d6000803e3d6000fd5b505050506040513d601f19601f8201168201806040525081019061195a9190613488565b101561199657604051630b29193560e31b815260206004820152600a60248201526929b2b636103a37b5b2b760b11b6044820152606401610472565b6002546040516370a0823160e01b815233600482015284916001600160a01b0316906370a0823190602401602060405180830381865afa1580156119de573d6000803e3d6000fd5b505050506040513d601f19601f82011682018060405250810190611a029190613488565b1015611a3e57604051638c2f4c6b60e01b815260206004820152600a60248201526929b2b636103a37b5b2b760b11b6044820152606401610472565b6002546019546040516323b872dd60e01b81526001600160a01b03928316926323b872dd92611a779233929091169088906004016138d8565b6020604051808303816000875af1158015611a96573d6000803e3d6000fd5b505050506040513d601f19601f82011682018060405250810190611aba91906138fc565b611ad757604051633e75f72760e11b81526004016104729061389d565b600d54600160b01b900460ff1615611bad576019546001600160a01b031631811115611b1657604051630b29193560e31b815260040161047290613919565b60015460405163a9059cbb60e01b8152336004820152602481018390526001600160a01b039091169063a9059cbb906044016020604051808303816000875af1158015611b67573d6000803e3d6000fd5b505050506040513d601f19601f82011682018060405250810190611b8b91906138fc565b611ba857604051633e75f72760e11b815260040161047290613919565b611cd8565b6003546019546040516370a0823160e01b81526001600160a01b039182166004820152839291909116906370a0823190602401602060405180830381865afa158015611bfd573d6000803e3d6000fd5b505050506040513d601f19601f82011682018060405250810190611c219190613488565b1015611c4057604051630b29193560e31b815260040161047290613919565b600154600354604051637aa9bf6f60e11b81526001600160a01b039283169263f5537ede92611c7892911690339086906004016138d8565b6020604051808303816000875af1158015611c97573d6000803e3d6000fd5b505050506040513d601f19601f82011682018060405250810190611cbb91906138fc565b611cd857604051633e75f72760e11b815260040161047290613919565b600954611ce59085612a7e565b600955600b54611cf590846129c1565b600b55600a54611d059082612a7e565b600a5560015460405163e32fca3f60e01b815233600482015260248101869052604481018590526001600160a01b039091169063e32fca3f90606401600060405180830381600087803b158015611d5b57600080fd5b505af1158015611d6f573d6000803e3d6000fd5b5050600954600b54600a5460408051338152602081018b90529081018990526060810193909352608083019190915260a08201527f20a7fc03b19d7f251cc907f177ff82194c6aebe9a2b47e1cd734dcb6bf772cc2925060c001905061180c565b6000546001600160a01b03163314611dfa5760405162461bcd60e51b8152600401610472906133fe565b611e026121eb565b611e0a612ad5565b601354611e25906201000090046001600160a01b0316612755565b611e425760405163012e4d1960e61b815260040160405180910390fd5b6019805460ff60a01b1916600160a21b17908190556040517fcd8e02743d921fb9bca767936271b8b93911716c78c1d46c2c6ee6189309d30c916106ad913391600160a01b900460ff169061346b565b6000546001600160a01b03163314611ebc5760405162461bcd60e51b8152600401610472906133fe565b6001600160a01b038116611f215760405162461bcd60e51b815260206004820152602660248201527f4f776e61626c653a206e6577206f776e657220697320746865207a65726f206160448201526564647265737360d01b6064820152608401610472565b611f2a81612af7565b50565b600080546001600160a01b03163314611f585760405162461bcd60e51b8152600401610472906133fe565b506019546001600160a01b031690565b6000546001600160a01b03163314611f925760405162461bcd60e51b8152600401610472906133fe565b600180546001600160a01b0319166001600160a01b0392909216919091179055565b600154604051631d76db5b60e31b81526001600160a01b038381166004830152600092839283929091169063ebb6dad8906024016040805180830381865afa158015612004573d6000803e3d6000fd5b505050506040513d601f19601f82011682018060405250810190612028919061393c565b60015460405163f5a7976760e01b81526001600160a01b0388811660048301529294506000935091169063f5a79767906024016040805180830381865afa158015612077573d6000803e3d6000fd5b505050506040513d601f19601f8201168201806040525081019061209b919061393c565b601354909250600091506120e2906120dc9085906120d690612710906120c59061ffff1684613960565b6120cf9190613977565b86906129c1565b90612a7e565b83612b47565b905060006120f3600a54600061293d565b91505061210a60006121058484612b47565b61293d565b9550955050505050915091565b60015460405163f5a7976760e01b81526001600160a01b038381166004830152600092839283929091169063f5a79767906024016040805180830381865afa158015612167573d6000803e3d6000fd5b505050506040513d601f19601f8201168201806040525081019061218b919061393c565b506011549091506000906121b7906121a39084612a7e565b600954600e546121b291612a7e565b612b47565b905060006121c86000600b5461293d565b5090506121df6121d88383612b47565b600061293d565b94509450505050915091565b6004601954600160a01b900460ff16600481111561220b5761220b613433565b0361051b57604051631afb0ae560e01b815260040160405180910390fd5b60155442118061223d5750600e5460095410155b6122735760405162461bcd60e51b81526020600482015260076024820152664552523a204e4560c81b6044820152606401610472565b6003601954600160a01b900460ff16600481111561229357612293613433565b0361051b57604051631a48f37b60e21b815260040160405180910390fd5b600d54600090600160b01b900460ff16156122d757506019546001600160a01b03163190565b6003546019546040516370a0823160e01b81526001600160a01b0391821660048201529116906370a0823190602401602060405180830381865afa158015612323573d6000803e3d6000fd5b505050506040513d601f19601f820116820180604052508101906123479190613488565b905090565b6000806123dc612710610a16600460009054906101000a90046001600160a01b03166001600160a01b031663ddca3f436040518163ffffffff1660e01b8152600401602060405180830381865afa1580156123ab573d6000803e3d6000fd5b505050506040513d601f19601f820116820180604052508101906123cf9190613999565b62ffffff166110ab6122b1565b600d54909150600090600160b01b900460ff16156124e4576001546004805460408051622fcfcb60e31b815290516001600160a01b039485169463a9059cbb9493169263017e7e58928082019260209290918290030181865afa158015612447573d6000803e3d6000fd5b505050506040513d601f19601f8201168201806040525081019061246b91906134c9565b6040516001600160e01b031960e084901b1681526001600160a01b039091166004820152602481018590526044015b6020604051808303816000875af11580156124b9573d6000803e3d6000fd5b505050506040513d601f19601f820116820180604052508101906124dd91906138fc565b90506125c6565b6001546003546004805460408051622fcfcb60e31b815290516001600160a01b039586169563f5537ede9581169493169263017e7e58928082019260209290918290030181865afa15801561253d573d6000803e3d6000fd5b505050506040513d601f19601f8201168201806040525081019061256191906134c9565b856040518463ffffffff1660e01b8152600401612580939291906138d8565b6020604051808303816000875af115801561259f573d6000803e3d6000fd5b505050506040513d601f19601f820116820180604052508101906125c391906138fc565b90505b92915050565b600d54600090600190600160b01b900460ff1615612638576019546001600160a01b031631156126335760015460195460405163a9059cbb60e01b81526001600160a01b03868116600483015291821631602482015291169063a9059cbb9060440161249a565b6125c6565b6003546019546040516370a0823160e01b81526001600160a01b03918216600482015260009291909116906370a0823190602401602060405180830381865afa158015612689573d6000803e3d6000fd5b505050506040513d601f19601f820116820180604052508101906126ad9190613488565b11156125c6576001546003546019546040516370a0823160e01b81526001600160a01b0391821660048201529281169263f5537ede929190911690869082906370a08231906024015b602060405180830381865afa158015612713573d6000803e3d6000fd5b505050506040513d601f19601f820116820180604052508101906127379190613488565b6040518463ffffffff1660e01b8152600401612580939291906138d8565b6002546019546040516370a0823160e01b81526001600160a01b03918216600482015260009260019284929116906370a0823190602401602060405180830381865afa1580156127a9573d6000803e3d6000fd5b505050506040513d601f19601f820116820180604052508101906127cd9190613488565b11156125c6576001546002546019546040516370a0823160e01b81526001600160a01b0391821660048201529281169263f5537ede929190911690869082906370a08231906024016126f6565b60155442111561051b576040516265dca760e51b815260040160405180910390fd5b60006128957f08523daf28ee17754671f39f9958942c4717267760901eea3e6ffd35005a72ea8587868660405160200161287a9594939291906139be565b60405160208183030381529060405280519060200120612b5d565b95945050505050565b6000846001600160a01b03166128ea8585858080601f016020809104026020016040519081016040528093929190818152602001838380828437600092019190915250612bab92505050565b6001600160a01b03161495945050505050565b60006125c38284613960565b60006125c38284613977565b6014546000904210156129285750600190565b60155442116129375750600290565b50600390565b600080831561297c57600d546129759061296290600160a81b900460ff16600a6135e0565b610a1661296e600f5490565b87906128fd565b92506129b4565b82156129b4576129b161298e600f5490565b600d54610a16906129aa90600160a81b900460ff16600a6135e0565b86906128fd565b93505b50829050815b9250929050565b60006125c382846139f7565b60145442101561281a57604051636f312cbd60e01b815260040160405180910390fd5b8115806129fb575080155b15612a1957604051631f2a200560e01b815260040160405180910390fd5b612a238282612bcf565b612a405760405163640dea9d60e11b815260040160405180910390fd5b5050565b600080612a5084612117565b50909211159392505050565b60105460009061271090612a749061ffff1684613960565b6125c69190613977565b60006125c38284613a0a565b600080612a9684611fb4565b90931115949350505050565b6010546000906125c69061271090612ac49062010000900461ffff1685613960565b612ace9190613977565b8390612a7e565b601454421061051b5760405163fc505be960e01b815260040160405180910390fd5b600080546001600160a01b038381166001600160a01b0319831681178455604051919092169283917f8be0079c531659141344cd1fd0a4f28419497f9722a3daafe3b4186f6b6457e09190a35050565b6000818310612b5657816125c3565b5090919050565b60006125c6612b6a612c18565b8360405161190160f01b6020820152602281018390526042810182905260009060620160405160208183030381529060405280519060200120905092915050565b6000806000612bba8585612d06565b91509150612bc781612d71565b509392505050565b600080612bdd84600061293d565b9150506000612bed60008561293d565b50905084811480612bfd57508382145b15612c0d576001925050506125c6565b506000949350505050565b6000306001600160a01b037f000000000000000000000000000000000000000000000000000000000000000016148015612c7157507f000000000000000000000000000000000000000000000000000000000000000046145b15612c9b57507f000000000000000000000000000000000000000000000000000000000000000090565b6123477f00000000000000000000000000000000000000000000000000000000000000007f00000000000000000000000000000000000000000000000000000000000000007f0000000000000000000000000000000000000000000000000000000000000000612f27565b6000808251604103612d3c5760208301516040840151606085015160001a612d3087828585612f71565b945094505050506129ba565b8251604003612d655760208301516040840151612d5a86838361305e565b9350935050506129ba565b506000905060026129ba565b6000816004811115612d8557612d85613433565b03612d8d5750565b6001816004811115612da157612da1613433565b03612dee5760405162461bcd60e51b815260206004820152601860248201527f45434453413a20696e76616c6964207369676e617475726500000000000000006044820152606401610472565b6002816004811115612e0257612e02613433565b03612e4f5760405162461bcd60e51b815260206004820152601f60248201527f45434453413a20696e76616c6964207369676e6174757265206c656e677468006044820152606401610472565b6003816004811115612e6357612e63613433565b03612ebb5760405162461bcd60e51b815260206004820152602260248201527f45434453413a20696e76616c6964207369676e6174757265202773272076616c604482015261756560f01b6064820152608401610472565b6004816004811115612ecf57612ecf613433565b03611f2a5760405162461bcd60e51b815260206004820152602260248201527f45434453413a20696e76616c6964207369676e6174757265202776272076616c604482015261756560f01b6064820152608401610472565b6040805160208101859052908101839052606081018290524660808201523060a082015260009060c0016040516020818303038152906040528051906020012090505b9392505050565b6000807f7fffffffffffffffffffffffffffffff5d576e7357a4501ddfe92f46681b20a0831115612fa85750600090506003613055565b8460ff16601b14158015612fc057508460ff16601c14155b15612fd15750600090506004613055565b6040805160008082526020820180845289905260ff881692820192909252606081018690526080810185905260019060a0016020604051602081039080840390855afa158015613025573d6000803e3d6000fd5b5050604051601f1901519150506001600160a01b03811661304e57600060019250925050613055565b9150600090505b94509492505050565b6000806001600160ff1b0383168161307b60ff86901c601b6139f7565b905061308987828885612f71565b935093505050935093915050565b610ec680613a1e83390190565b6001600160a01b0381168114611f2a57600080fd5b80356130c4816130a4565b919050565b6000602082840312156130db57600080fd5b8135612f6a816130a4565b6000602082840312156130f857600080fd5b5035919050565b60008083601f84011261311157600080fd5b50813567ffffffffffffffff81111561312957600080fd5b6020830191508360208285010111156129ba57600080fd5b6000806000806000806080878903121561315a57600080fd5b8635613165816130a4565b955060208701359450604087013567ffffffffffffffff8082111561318957600080fd5b6131958a838b016130ff565b909650945060608901359150808211156131ae57600080fd5b506131bb89828a016130ff565b979a9699509497509295939492505050565b60005b838110156131e85781810151838201526020016131d0565b50506000910152565b600081518084526132098160208601602086016131cd565b601f01601f19169290920160200192915050565b821515815260406020820152600061323860408301846131f1565b949350505050565b634e487b7160e01b600052604160045260246000fd5b604051610220810167ffffffffffffffff8111828210171561327a5761327a613240565b60405290565b60ff81168114611f2a57600080fd5b80356130c481613280565b8015158114611f2a57600080fd5b80356130c48161329a565b803561ffff811681146130c457600080fd5b600061022082840312156132d857600080fd5b6132e0613256565b6132e9836130b9565b81526132f7602084016130b9565b60208201526133086040840161328f565b60408201526133196060840161328f565b606082015261332a608084016132a8565b608082015260a083013560a082015260c083013560c082015261334f60e084016132b3565b60e08201526101006133628185016132b3565b908201526101208381013590820152610140808401359082015261016061338a8185016132b3565b9082015261018061339c8482016130b9565b908201526101a083810135908201526101c080840135908201526101e06133c48185016130b9565b90820152610200928301359281019290925250919050565b600080604083850312156133ef57600080fd5b50508035926020909101359150565b6020808252818101527f4f776e61626c653a2063616c6c6572206973206e6f7420746865206f776e6572604082015260600190565b634e487b7160e01b600052602160045260246000fd5b6005811061346757634e487b7160e01b600052602160045260246000fd5b9052565b6001600160a01b038316815260408101612f6a6020830184613449565b60006020828403121561349a57600080fd5b5051919050565b6020808252600e908201526d4e6f2072652d656e7472616e637960901b604082015260600190565b6000602082840312156134db57600080fd5b8151612f6a816130a4565b634e487b7160e01b600052601160045260246000fd5b600181815b8085111561353757816000190482111561351d5761351d6134e6565b8085161561352a57918102915b93841c9390800290613501565b509250929050565b60008261354e575060016125c6565b8161355b575060006125c6565b8160018114613571576002811461357b57613597565b60019150506125c6565b60ff84111561358c5761358c6134e6565b50506001821b6125c6565b5060208310610133831016604e8410600b84101617156135ba575081810a6125c6565b6135c483836134fc565b80600019048211156135d8576135d86134e6565b029392505050565b60006125c360ff84168361353f565b81835281816020850137506000828201602090810191909152601f909101601f19169091010190565b6001600160a01b038981168252888116602083015287166040820152606081018690526080810185905260e060a0820181905260009061365b90830185876135ef565b905082151560c08301529998505050505050505050565b6000806040838503121561368557600080fd5b82516136908161329a565b602084015190925067ffffffffffffffff808211156136ae57600080fd5b818501915085601f8301126136c257600080fd5b8151818111156136d4576136d4613240565b604051601f8201601f19908116603f011681019083821181831017156136fc576136fc613240565b8160405282815288602084870101111561371557600080fd5b6137268360208301602088016131cd565b80955050505050509250929050565b6001600160a01b038416815261374e6020820184613449565b60606040820152600061289560608301846131f1565b60006020828403121561377657600080fd5b8151612f6a81613280565b6001600160a01b03868116825285811660208301528481166040830152606082018490528254811660808301526102a082019060018401546001600160a01b038282161660a085015260a081901c60ff1660c085015260a881901c60ff1660e08501526137f9610100850160ff8360b01c1615159052565b5060028401546101208401526003840154610140840152600484015461ffff808216610160860152601091821c811661018086015260058601546101a086015260068601546101c086015260078601549081166101e0860152901c166001600160a01b0390811661020084015260088401546102208401526009840154610240840152600a84015416610260830152600b9092015461028090910152949350505050565b60208082526004908201526314d95b1b60e21b604082015260600190565b60208082526003908201526242757960e81b604082015260600190565b6001600160a01b039384168152919092166020820152604081019190915260600190565b60006020828403121561390e57600080fd5b8151612f6a8161329a565b602080825260099082015268213abc903a37b5b2b760b91b604082015260600190565b6000806040838503121561394f57600080fd5b505080516020909101519092909150565b80820281158282048414176125c6576125c66134e6565b60008261399457634e487b7160e01b600052601260045260246000fd5b500490565b6000602082840312156139ab57600080fd5b815162ffffff81168114612f6a57600080fd5b85815284602082015260018060a01b03841660408201526080606082015260006139ec6080830184866135ef565b979650505050505050565b808201808211156125c6576125c66134e6565b818103818111156125c6576125c66134e656fe608060405234801561001057600080fd5b50600080546001600160a01b0319163390811790915560408051918252517f4101e71e974f68df5e9730cc223280b41654676bbb052cdcc735c3337e64d2d99181900360200190a1610e5f806100676000396000f3fe6080604052600436106100ab5760003560e01c8063da3e339711610064578063da3e3397146101e6578063e32fca3f14610206578063e5a4dbf814610226578063ebb6dad814610254578063f5537ede14610289578063f5a79767146102a957600080fd5b80632348238c146101075780636aa05ee31461012957806379da956514610149578063a2ba266b14610169578063a9059cbb14610189578063c6dbdf61146101be57600080fd5b36610102576040805133815260208101829052600781830152667265636569766560c81b606082015290517fd00ca3f088120b3d909c3a9e01be91e94a2b001aed9c25fe751c3c7a72dc49bf9181900360800190a1005b600080fd5b34801561011357600080fd5b50610127610122366004610b71565b6102c9565b005b34801561013557600080fd5b50610127610144366004610b8e565b6103c2565b34801561015557600080fd5b50610127610164366004610b8e565b610467565b34801561017557600080fd5b50610127610184366004610b8e565b61050a565b34801561019557600080fd5b506101a96101a4366004610bc3565b61058a565b60405190151581526020015b60405180910390f35b3480156101ca57600080fd5b506000546040516001600160a01b0390911681526020016101b5565b3480156101f257600080fd5b506101a9610201366004610bef565b61061d565b34801561021257600080fd5b50610127610221366004610b8e565b6106cd565b34801561023257600080fd5b50610246610241366004610c4e565b61074c565b6040516101b5929190610d1c565b34801561026057600080fd5b5061027461026f366004610b71565b610a1b565b604080519283526020830191909152016101b5565b34801561029557600080fd5b506101a96102a4366004610bef565b610a76565b3480156102b557600080fd5b506102746102c4366004610b71565b610adf565b6000546001600160a01b0316336001600160a01b0316146103055760405162461bcd60e51b81526004016102fc90610d74565b60405180910390fd5b6001600160a01b03811661036e5760405162461bcd60e51b815260206004820152602a60248201527f5365636f6e646172793a206e6577207072696d61727920697320746865207a65604482015269726f206164647265737360b01b60648201526084016102fc565b600080546001600160a01b0319166001600160a01b0383169081179091556040519081527f4101e71e974f68df5e9730cc223280b41654676bbb052cdcc735c3337e64d2d99060200160405180910390a150565b6000546001600160a01b0316336001600160a01b0316146103f55760405162461bcd60e51b81526004016102fc90610d74565b6001600160a01b0383166000908152600160205260409020546104189083610b3a565b6001600160a01b038416600090815260016020819052604090912091825501546104429082610b3a565b6001600160a01b03909316600090815260016020819052604090912001929092555050565b6000546001600160a01b0316336001600160a01b03161461049a5760405162461bcd60e51b81526004016102fc90610d74565b6001600160a01b0383166000908152600260205260409020546104bd9083610b3a565b6001600160a01b0384166000908152600260205260409020908155600101546104e69082610b3a565b6001600160a01b039093166000908152600260205260409020600101929092555050565b6000546001600160a01b0316336001600160a01b03161461053d5760405162461bcd60e51b81526004016102fc90610d74565b6001600160a01b0383166000908152600160205260409020546105609083610b4d565b6001600160a01b038416600090815260016020819052604090912091825501546104429082610b4d565b600080546001600160a01b0316336001600160a01b0316146105be5760405162461bcd60e51b81526004016102fc90610d74565b6000836001600160a01b03168360405160006040518083038185875af1925050503d806000811461060b576040519150601f19603f3d011682016040523d82523d6000602084013e610610565b606091505b5090925050505b92915050565b600080546001600160a01b0316336001600160a01b0316146106515760405162461bcd60e51b81526004016102fc90610d74565b60405163095ea7b360e01b81526001600160a01b0384811660048301526024820184905285169063095ea7b3906044015b6020604051808303816000875af11580156106a1573d6000803e3d6000fd5b505050506040513d601f19601f820116820180604052508101906106c59190610dc0565b949350505050565b6000546001600160a01b0316336001600160a01b0316146107005760405162461bcd60e51b81526004016102fc90610d74565b6001600160a01b0383166000908152600260205260409020546107239083610b4d565b6001600160a01b0384166000908152600260205260409020908155600101546104e69082610b4d565b600080546060906001600160a01b0316336001600160a01b0316146107835760405162461bcd60e51b81526004016102fc90610d74565b60405163095ea7b360e01b81526001600160a01b038b8116600483015260248201899052600091908b169063095ea7b3906044016020604051808303816000875af11580156107d6573d6000803e3d6000fd5b505050506040513d601f19601f820116820180604052508101906107fa9190610dc0565b9050806108545760405162461bcd60e51b815260206004820152602260248201527f417070726f76652073656c6c20746f6b656e20746f20726f757465722065727260448201526137b960f11b60648201526084016102fc565b83156108c2578a6001600160a01b0316878787604051610875929190610ddd565b60006040518083038185875af1925050503d80600081146108b2576040519150601f19603f3d011682016040523d82523d6000602084013e6108b7565b606091505b509093509150610a0d565b60405163095ea7b360e01b81526001600160a01b038c81166004830152602482018990528a169063095ea7b3906044016020604051808303816000875af1158015610911573d6000803e3d6000fd5b505050506040513d601f19601f820116820180604052508101906109359190610dc0565b9050806109aa5760405162461bcd60e51b815260206004820152603b60248201527f416e206572726f72206f63637572726564207768696c652073656e64696e672060448201527f7468652062757920746f6b656e20746f2074686520726f75746572000000000060648201526084016102fc565b8a6001600160a01b031686866040516109c4929190610ddd565b6000604051808303816000865af19150503d8060008114610a01576040519150601f19603f3d011682016040523d82523d6000602084013e610a06565b606091505b5090935091505b509850989650505050505050565b6000805481906001600160a01b0316336001600160a01b031614610a515760405162461bcd60e51b81526004016102fc90610d74565b50506001600160a01b0316600090815260016020819052604090912080549101549091565b600080546001600160a01b0316336001600160a01b031614610aaa5760405162461bcd60e51b81526004016102fc90610d74565b60405163a9059cbb60e01b81526001600160a01b0384811660048301526024820184905285169063a9059cbb90604401610682565b6000805481906001600160a01b0316336001600160a01b031614610b155760405162461bcd60e51b81526004016102fc90610d74565b50506001600160a01b0316600090815260026020526040902080546001909101549091565b6000610b468284610e03565b9392505050565b6000610b468284610e16565b6001600160a01b0381168114610b6e57600080fd5b50565b600060208284031215610b8357600080fd5b8135610b4681610b59565b600080600060608486031215610ba357600080fd5b8335610bae81610b59565b95602085013595506040909401359392505050565b60008060408385031215610bd657600080fd5b8235610be181610b59565b946020939093013593505050565b600080600060608486031215610c0457600080fd5b8335610c0f81610b59565b92506020840135610c1f81610b59565b929592945050506040919091013590565b8015158114610b6e57600080fd5b8035610c4981610c30565b919050565b60008060008060008060008060e0898b031215610c6a57600080fd5b8835610c7581610b59565b97506020890135610c8581610b59565b96506040890135610c9581610b59565b9550606089013594506080890135935060a089013567ffffffffffffffff80821115610cc057600080fd5b818b0191508b601f830112610cd457600080fd5b813581811115610ce357600080fd5b8c6020828501011115610cf557600080fd5b602083019550809450505050610d0d60c08a01610c3e565b90509295985092959890939650565b821515815260006020604081840152835180604085015260005b81811015610d5257858101830151858201606001528201610d36565b506000606082860101526060601f19601f830116850101925050509392505050565b6020808252602c908201527f5365636f6e646172793a2063616c6c6572206973206e6f74207468652070726960408201526b1b585c9e481858d8dbdd5b9d60a21b606082015260800190565b600060208284031215610dd257600080fd5b8151610b4681610c30565b8183823760009101908152919050565b634e487b7160e01b600052601160045260246000fd5b8082018082111561061757610617610ded565b8181038181111561061757610617610ded56fea26469706673582212201bbf263b62dcd4e0466d9b00e698276476e3b3b04503310c32b01134a5a4f31964736f6c63430008120033a26469706673582212204831cc88f04c171ca3780073a1720ed84776ddff6525159aa30db084e54cb7c964736f6c63430008120033a2646970667358221220ab17b47ad025424e7c716167b0eb6d12b58100ad183b8f73c80a518c798dfd9c64736f6c63430008120033608060405234801561001057600080fd5b50600080546001600160a01b0319163390811790915560408051918252517f4101e71e974f68df5e9730cc223280b41654676bbb052cdcc735c3337e64d2d99181900360200190a1610458806100676000396000f3fe608060405234801561001057600080fd5b50600436106100575760003560e01c80632348238c1461005c57806389b09de714610071578063c2bc80fd14610084578063c6dbdf61146100a2578063fc91a897146100bd575b600080fd5b61006f61006a366004610359565b6100e0565b005b61006f61007f366004610359565b6101d9565b61008c610270565b6040516100999190610389565b60405180910390f35b6000546040516001600160a01b039091168152602001610099565b6100d06100cb366004610359565b610306565b6040519015158152602001610099565b6000546001600160a01b0316336001600160a01b03161461011c5760405162461bcd60e51b8152600401610113906103d6565b60405180910390fd5b6001600160a01b0381166101855760405162461bcd60e51b815260206004820152602a60248201527f5365636f6e646172793a206e6577207072696d61727920697320746865207a65604482015269726f206164647265737360b01b6064820152608401610113565b600080546001600160a01b0319166001600160a01b0383169081179091556040519081527f4101e71e974f68df5e9730cc223280b41654676bbb052cdcc735c3337e64d2d99060200160405180910390a150565b6000546001600160a01b0316336001600160a01b03161461020c5760405162461bcd60e51b8152600401610113906103d6565b6001805480820182557fb10e2d527612073b26eecdfd717e6a320cf44b4afac2b0732d9fcbe2b7fa0cf60180546001600160a01b039093166001600160a01b031990931683179055600091825260026020526040909120805460ff19169091179055565b6000546060906001600160a01b0316336001600160a01b0316146102a65760405162461bcd60e51b8152600401610113906103d6565b60018054806020026020016040519081016040528092919081815260200182805480156102fc57602002820191906000526020600020905b81546001600160a01b031681526001909101906020018083116102de575b5050505050905090565b600080546001600160a01b0316336001600160a01b03161461033a5760405162461bcd60e51b8152600401610113906103d6565b506001600160a01b031660009081526002602052604090205460ff1690565b60006020828403121561036b57600080fd5b81356001600160a01b038116811461038257600080fd5b9392505050565b6020808252825182820181905260009190848201906040850190845b818110156103ca5783516001600160a01b0316835292840192918401916001016103a5565b50909695505050505050565b6020808252602c908201527f5365636f6e646172793a2063616c6c6572206973206e6f74207468652070726960408201526b1b585c9e481858d8dbdd5b9d60a21b60608201526080019056fea2646970667358221220966553de967a178386abe824c201884392773bd9c7f9833e8c3d08448a4afa2564736f6c63430008120033608060405234801561001057600080fd5b5061001a3361001f565b61006f565b600080546001600160a01b038381166001600160a01b0319831681178455604051919092169283917f8be0079c531659141344cd1fd0a4f28419497f9722a3daafe3b4186f6b6457e09190a35050565b6104d18061007e6000396000f3fe608060405234801561001057600080fd5b50600436106100625760003560e01c80633af32abf14610067578063715018a6146100a85780638ab1d681146100b25780638da5cb5b146100c5578063e43252d7146100e0578063f2fde38b146100f3575b600080fd5b610093610075366004610436565b6001600160a01b031660009081526001602052604090205460ff1690565b60405190151581526020015b60405180910390f35b6100b0610106565b005b6100b06100c0366004610436565b610145565b6000546040516001600160a01b03909116815260200161009f565b6100b06100ee366004610436565b610220565b6100b0610101366004610436565b61034b565b6000546001600160a01b031633146101395760405162461bcd60e51b815260040161013090610466565b60405180910390fd5b61014360006103e6565b565b6000546001600160a01b0316331461016f5760405162461bcd60e51b815260040161013090610466565b6001600160a01b03811660009081526001602052604090205460ff166101d75760405162461bcd60e51b815260206004820152601b60248201527f41646472657373206973206e6f742077686974656c69737465642e00000000006044820152606401610130565b6001600160a01b038116600081815260016020526040808220805460ff19169055517f24a12366c02e13fe4a9e03d86a8952e85bb74a456c16e4a18b6d8295700b74bb9190a250565b6000546001600160a01b0316331461024a5760405162461bcd60e51b815260040161013090610466565b6001600160a01b0381166102935760405162461bcd60e51b815260206004820152601060248201526f24b73b30b634b21030b2323932b9b99760811b6044820152606401610130565b6001600160a01b03811660009081526001602052604090205460ff16156102fc5760405162461bcd60e51b815260206004820152601f60248201527f4164647265737320697320616c72656164792077686974656c69737465642e006044820152606401610130565b6001600160a01b0381166000818152600160208190526040808320805460ff1916909217909155517fa226db3f664042183ee0281230bba26cbf7b5057e50aee7f25a175ff45ce4d7f9190a250565b6000546001600160a01b031633146103755760405162461bcd60e51b815260040161013090610466565b6001600160a01b0381166103da5760405162461bcd60e51b815260206004820152602660248201527f4f776e61626c653a206e6577206f776e657220697320746865207a65726f206160448201526564647265737360d01b6064820152608401610130565b6103e3816103e6565b50565b600080546001600160a01b038381166001600160a01b0319831681178455604051919092169283917f8be0079c531659141344cd1fd0a4f28419497f9722a3daafe3b4186f6b6457e09190a35050565b60006020828403121561044857600080fd5b81356001600160a01b038116811461045f57600080fd5b9392505050565b6020808252818101527f4f776e61626c653a2063616c6c6572206973206e6f7420746865206f776e657260408201526060019056fea2646970667358221220a77cdf0f3d86db49028e6c901b914b09b8bac955701756e31487bed82467b8a264736f6c63430008120033",
  "linkReferences": {},
  "deployedLinkReferences": {}
}